{
  "_format": "hh-sol-artifact-1",
  "contractName": "ONFT1155",
  "sourceName": "contracts/token/onft/ONFT1155.sol",
  "abi": [
    {
      "inputs": [
        {
          "internalType": "string",
          "name": "_uri",
          "type": "string"
        },
        {
          "internalType": "address",
          "name": "_lzEndpoint",
          "type": "address"
        }
      ],
      "stateMutability": "nonpayable",
      "type": "constructor"
    },
    {
      "anonymous": false,
      "inputs": [
        {
          "indexed": true,
          "internalType": "address",
          "name": "account",
          "type": "address"
        },
        {
          "indexed": true,
          "internalType": "address",
          "name": "operator",
          "type": "address"
        },
        {
          "indexed": false,
          "internalType": "bool",
          "name": "approved",
          "type": "bool"
        }
      ],
      "name": "ApprovalForAll",
      "type": "event"
    },
    {
      "anonymous": false,
      "inputs": [
        {
          "indexed": false,
          "internalType": "uint16",
          "name": "_srcChainId",
          "type": "uint16"
        },
        {
          "indexed": false,
          "internalType": "bytes",
          "name": "_srcAddress",
          "type": "bytes"
        },
        {
          "indexed": false,
          "internalType": "uint64",
          "name": "_nonce",
          "type": "uint64"
        },
        {
          "indexed": false,
          "internalType": "bytes",
          "name": "_payload",
          "type": "bytes"
        },
        {
          "indexed": false,
          "internalType": "bytes",
          "name": "_reason",
          "type": "bytes"
        }
      ],
      "name": "MessageFailed",
      "type": "event"
    },
    {
      "anonymous": false,
      "inputs": [
        {
          "indexed": true,
          "internalType": "address",
          "name": "previousOwner",
          "type": "address"
        },
        {
          "indexed": true,
          "internalType": "address",
          "name": "newOwner",
          "type": "address"
        }
      ],
      "name": "OwnershipTransferred",
      "type": "event"
    },
    {
      "anonymous": false,
      "inputs": [
        {
          "indexed": true,
          "internalType": "uint16",
          "name": "_srcChainId",
          "type": "uint16"
        },
        {
          "indexed": true,
          "internalType": "bytes",
          "name": "_srcAddress",
          "type": "bytes"
        },
        {
          "indexed": true,
          "internalType": "address",
          "name": "_toAddress",
          "type": "address"
        },
        {
          "indexed": false,
          "internalType": "uint256[]",
          "name": "_tokenIds",
          "type": "uint256[]"
        },
        {
          "indexed": false,
          "internalType": "uint256[]",
          "name": "_amounts",
          "type": "uint256[]"
        }
      ],
      "name": "ReceiveBatchFromChain",
      "type": "event"
    },
    {
      "anonymous": false,
      "inputs": [
        {
          "indexed": true,
          "internalType": "uint16",
          "name": "_srcChainId",
          "type": "uint16"
        },
        {
          "indexed": true,
          "internalType": "bytes",
          "name": "_srcAddress",
          "type": "bytes"
        },
        {
          "indexed": true,
          "internalType": "address",
          "name": "_toAddress",
          "type": "address"
        },
        {
          "indexed": false,
          "internalType": "uint256",
          "name": "_tokenId",
          "type": "uint256"
        },
        {
          "indexed": false,
          "internalType": "uint256",
          "name": "_amount",
          "type": "uint256"
        }
      ],
      "name": "ReceiveFromChain",
      "type": "event"
    },
    {
      "anonymous": false,
      "inputs": [
        {
          "indexed": false,
          "internalType": "uint16",
          "name": "_srcChainId",
          "type": "uint16"
        },
        {
          "indexed": false,
          "internalType": "bytes",
          "name": "_srcAddress",
          "type": "bytes"
        },
        {
          "indexed": false,
          "internalType": "uint64",
          "name": "_nonce",
          "type": "uint64"
        },
        {
          "indexed": false,
          "internalType": "bytes32",
          "name": "_payloadHash",
          "type": "bytes32"
        }
      ],
      "name": "RetryMessageSuccess",
      "type": "event"
    },
    {
      "anonymous": false,
      "inputs": [
        {
          "indexed": true,
          "internalType": "uint16",
          "name": "_dstChainId",
          "type": "uint16"
        },
        {
          "indexed": true,
          "internalType": "address",
          "name": "_from",
          "type": "address"
        },
        {
          "indexed": true,
          "internalType": "bytes",
          "name": "_toAddress",
          "type": "bytes"
        },
        {
          "indexed": false,
          "internalType": "uint256[]",
          "name": "_tokenIds",
          "type": "uint256[]"
        },
        {
          "indexed": false,
          "internalType": "uint256[]",
          "name": "_amounts",
          "type": "uint256[]"
        }
      ],
      "name": "SendBatchToChain",
      "type": "event"
    },
    {
      "anonymous": false,
      "inputs": [
        {
          "indexed": true,
          "internalType": "uint16",
          "name": "_dstChainId",
          "type": "uint16"
        },
        {
          "indexed": true,
          "internalType": "address",
          "name": "_from",
          "type": "address"
        },
        {
          "indexed": true,
          "internalType": "bytes",
          "name": "_toAddress",
          "type": "bytes"
        },
        {
          "indexed": false,
          "internalType": "uint256",
          "name": "_tokenId",
          "type": "uint256"
        },
        {
          "indexed": false,
          "internalType": "uint256",
          "name": "_amount",
          "type": "uint256"
        }
      ],
      "name": "SendToChain",
      "type": "event"
    },
    {
      "anonymous": false,
      "inputs": [
        {
          "indexed": false,
          "internalType": "uint16",
          "name": "_dstChainId",
          "type": "uint16"
        },
        {
          "indexed": false,
          "internalType": "uint16",
          "name": "_type",
          "type": "uint16"
        },
        {
          "indexed": false,
          "internalType": "uint256",
          "name": "_minDstGas",
          "type": "uint256"
        }
      ],
      "name": "SetMinDstGas",
      "type": "event"
    },
    {
      "anonymous": false,
      "inputs": [
        {
          "indexed": false,
          "internalType": "address",
          "name": "precrime",
          "type": "address"
        }
      ],
      "name": "SetPrecrime",
      "type": "event"
    },
    {
      "anonymous": false,
      "inputs": [
        {
          "indexed": false,
          "internalType": "uint16",
          "name": "_remoteChainId",
          "type": "uint16"
        },
        {
          "indexed": false,
          "internalType": "bytes",
          "name": "_path",
          "type": "bytes"
        }
      ],
      "name": "SetTrustedRemote",
      "type": "event"
    },
    {
      "anonymous": false,
      "inputs": [
        {
          "indexed": false,
          "internalType": "uint16",
          "name": "_remoteChainId",
          "type": "uint16"
        },
        {
          "indexed": false,
          "internalType": "bytes",
          "name": "_remoteAddress",
          "type": "bytes"
        }
      ],
      "name": "SetTrustedRemoteAddress",
      "type": "event"
    },
    {
      "anonymous": false,
      "inputs": [
        {
          "indexed": false,
          "internalType": "bool",
          "name": "_useCustomAdapterParams",
          "type": "bool"
        }
      ],
      "name": "SetUseCustomAdapterParams",
      "type": "event"
    },
    {
      "anonymous": false,
      "inputs": [
        {
          "indexed": true,
          "internalType": "address",
          "name": "operator",
          "type": "address"
        },
        {
          "indexed": true,
          "internalType": "address",
          "name": "from",
          "type": "address"
        },
        {
          "indexed": true,
          "internalType": "address",
          "name": "to",
          "type": "address"
        },
        {
          "indexed": false,
          "internalType": "uint256[]",
          "name": "ids",
          "type": "uint256[]"
        },
        {
          "indexed": false,
          "internalType": "uint256[]",
          "name": "values",
          "type": "uint256[]"
        }
      ],
      "name": "TransferBatch",
      "type": "event"
    },
    {
      "anonymous": false,
      "inputs": [
        {
          "indexed": true,
          "internalType": "address",
          "name": "operator",
          "type": "address"
        },
        {
          "indexed": true,
          "internalType": "address",
          "name": "from",
          "type": "address"
        },
        {
          "indexed": true,
          "internalType": "address",
          "name": "to",
          "type": "address"
        },
        {
          "indexed": false,
          "internalType": "uint256",
          "name": "id",
          "type": "uint256"
        },
        {
          "indexed": false,
          "internalType": "uint256",
          "name": "value",
          "type": "uint256"
        }
      ],
      "name": "TransferSingle",
      "type": "event"
    },
    {
      "anonymous": false,
      "inputs": [
        {
          "indexed": false,
          "internalType": "string",
          "name": "value",
          "type": "string"
        },
        {
          "indexed": true,
          "internalType": "uint256",
          "name": "id",
          "type": "uint256"
        }
      ],
      "name": "URI",
      "type": "event"
    },
    {
      "inputs": [],
      "name": "DEFAULT_PAYLOAD_SIZE_LIMIT",
      "outputs": [
        {
          "internalType": "uint256",
          "name": "",
          "type": "uint256"
        }
      ],
      "stateMutability": "view",
      "type": "function"
    },
    {
      "inputs": [],
      "name": "FUNCTION_TYPE_SEND",
      "outputs": [
        {
          "internalType": "uint16",
          "name": "",
          "type": "uint16"
        }
      ],
      "stateMutability": "view",
      "type": "function"
    },
    {
      "inputs": [],
      "name": "FUNCTION_TYPE_SEND_BATCH",
      "outputs": [
        {
          "internalType": "uint16",
          "name": "",
          "type": "uint16"
        }
      ],
      "stateMutability": "view",
      "type": "function"
    },
    {
      "inputs": [],
      "name": "NO_EXTRA_GAS",
      "outputs": [
        {
          "internalType": "uint256",
          "name": "",
          "type": "uint256"
        }
      ],
      "stateMutability": "view",
      "type": "function"
    },
    {
      "inputs": [
        {
          "internalType": "address",
          "name": "account",
          "type": "address"
        },
        {
          "internalType": "uint256",
          "name": "id",
          "type": "uint256"
        }
      ],
      "name": "balanceOf",
      "outputs": [
        {
          "internalType": "uint256",
          "name": "",
          "type": "uint256"
        }
      ],
      "stateMutability": "view",
      "type": "function"
    },
    {
      "inputs": [
        {
          "internalType": "address[]",
          "name": "accounts",
          "type": "address[]"
        },
        {
          "internalType": "uint256[]",
          "name": "ids",
          "type": "uint256[]"
        }
      ],
      "name": "balanceOfBatch",
      "outputs": [
        {
          "internalType": "uint256[]",
          "name": "",
          "type": "uint256[]"
        }
      ],
      "stateMutability": "view",
      "type": "function"
    },
    {
      "inputs": [
        {
          "internalType": "uint16",
          "name": "_dstChainId",
          "type": "uint16"
        },
        {
          "internalType": "bytes",
          "name": "_toAddress",
          "type": "bytes"
        },
        {
          "internalType": "uint256[]",
          "name": "_tokenIds",
          "type": "uint256[]"
        },
        {
          "internalType": "uint256[]",
          "name": "_amounts",
          "type": "uint256[]"
        },
        {
          "internalType": "bool",
          "name": "_useZro",
          "type": "bool"
        },
        {
          "internalType": "bytes",
          "name": "_adapterParams",
          "type": "bytes"
        }
      ],
      "name": "estimateSendBatchFee",
      "outputs": [
        {
          "internalType": "uint256",
          "name": "nativeFee",
          "type": "uint256"
        },
        {
          "internalType": "uint256",
          "name": "zroFee",
          "type": "uint256"
        }
      ],
      "stateMutability": "view",
      "type": "function"
    },
    {
      "inputs": [
        {
          "internalType": "uint16",
          "name": "_dstChainId",
          "type": "uint16"
        },
        {
          "internalType": "bytes",
          "name": "_toAddress",
          "type": "bytes"
        },
        {
          "internalType": "uint256",
          "name": "_tokenId",
          "type": "uint256"
        },
        {
          "internalType": "uint256",
          "name": "_amount",
          "type": "uint256"
        },
        {
          "internalType": "bool",
          "name": "_useZro",
          "type": "bool"
        },
        {
          "internalType": "bytes",
          "name": "_adapterParams",
          "type": "bytes"
        }
      ],
      "name": "estimateSendFee",
      "outputs": [
        {
          "internalType": "uint256",
          "name": "nativeFee",
          "type": "uint256"
        },
        {
          "internalType": "uint256",
          "name": "zroFee",
          "type": "uint256"
        }
      ],
      "stateMutability": "view",
      "type": "function"
    },
    {
      "inputs": [
        {
          "internalType": "uint16",
          "name": "",
          "type": "uint16"
        },
        {
          "internalType": "bytes",
          "name": "",
          "type": "bytes"
        },
        {
          "internalType": "uint64",
          "name": "",
          "type": "uint64"
        }
      ],
      "name": "failedMessages",
      "outputs": [
        {
          "internalType": "bytes32",
          "name": "",
          "type": "bytes32"
        }
      ],
      "stateMutability": "view",
      "type": "function"
    },
    {
      "inputs": [
        {
          "internalType": "uint16",
          "name": "_srcChainId",
          "type": "uint16"
        },
        {
          "internalType": "bytes",
          "name": "_srcAddress",
          "type": "bytes"
        }
      ],
      "name": "forceResumeReceive",
      "outputs": [],
      "stateMutability": "nonpayable",
      "type": "function"
    },
    {
      "inputs": [
        {
          "internalType": "uint16",
          "name": "_version",
          "type": "uint16"
        },
        {
          "internalType": "uint16",
          "name": "_chainId",
          "type": "uint16"
        },
        {
          "internalType": "address",
          "name": "",
          "type": "address"
        },
        {
          "internalType": "uint256",
          "name": "_configType",
          "type": "uint256"
        }
      ],
      "name": "getConfig",
      "outputs": [
        {
          "internalType": "bytes",
          "name": "",
          "type": "bytes"
        }
      ],
      "stateMutability": "view",
      "type": "function"
    },
    {
      "inputs": [
        {
          "internalType": "uint16",
          "name": "_remoteChainId",
          "type": "uint16"
        }
      ],
      "name": "getTrustedRemoteAddress",
      "outputs": [
        {
          "internalType": "bytes",
          "name": "",
          "type": "bytes"
        }
      ],
      "stateMutability": "view",
      "type": "function"
    },
    {
      "inputs": [
        {
          "internalType": "address",
          "name": "account",
          "type": "address"
        },
        {
          "internalType": "address",
          "name": "operator",
          "type": "address"
        }
      ],
      "name": "isApprovedForAll",
      "outputs": [
        {
          "internalType": "bool",
          "name": "",
          "type": "bool"
        }
      ],
      "stateMutability": "view",
      "type": "function"
    },
    {
      "inputs": [
        {
          "internalType": "uint16",
          "name": "_srcChainId",
          "type": "uint16"
        },
        {
          "internalType": "bytes",
          "name": "_srcAddress",
          "type": "bytes"
        }
      ],
      "name": "isTrustedRemote",
      "outputs": [
        {
          "internalType": "bool",
          "name": "",
          "type": "bool"
        }
      ],
      "stateMutability": "view",
      "type": "function"
    },
    {
      "inputs": [],
      "name": "lzEndpoint",
      "outputs": [
        {
          "internalType": "contract ILayerZeroEndpoint",
          "name": "",
          "type": "address"
        }
      ],
      "stateMutability": "view",
      "type": "function"
    },
    {
      "inputs": [
        {
          "internalType": "uint16",
          "name": "_srcChainId",
          "type": "uint16"
        },
        {
          "internalType": "bytes",
          "name": "_srcAddress",
          "type": "bytes"
        },
        {
          "internalType": "uint64",
          "name": "_nonce",
          "type": "uint64"
        },
        {
          "internalType": "bytes",
          "name": "_payload",
          "type": "bytes"
        }
      ],
      "name": "lzReceive",
      "outputs": [],
      "stateMutability": "nonpayable",
      "type": "function"
    },
    {
      "inputs": [
        {
          "internalType": "uint16",
          "name": "",
          "type": "uint16"
        },
        {
          "internalType": "uint16",
          "name": "",
          "type": "uint16"
        }
      ],
      "name": "minDstGasLookup",
      "outputs": [
        {
          "internalType": "uint256",
          "name": "",
          "type": "uint256"
        }
      ],
      "stateMutability": "view",
      "type": "function"
    },
    {
      "inputs": [
        {
          "internalType": "uint16",
          "name": "_srcChainId",
          "type": "uint16"
        },
        {
          "internalType": "bytes",
          "name": "_srcAddress",
          "type": "bytes"
        },
        {
          "internalType": "uint64",
          "name": "_nonce",
          "type": "uint64"
        },
        {
          "internalType": "bytes",
          "name": "_payload",
          "type": "bytes"
        }
      ],
      "name": "nonblockingLzReceive",
      "outputs": [],
      "stateMutability": "nonpayable",
      "type": "function"
    },
    {
      "inputs": [],
      "name": "owner",
      "outputs": [
        {
          "internalType": "address",
          "name": "",
          "type": "address"
        }
      ],
      "stateMutability": "view",
      "type": "function"
    },
    {
      "inputs": [
        {
          "internalType": "uint16",
          "name": "",
          "type": "uint16"
        }
      ],
      "name": "payloadSizeLimitLookup",
      "outputs": [
        {
          "internalType": "uint256",
          "name": "",
          "type": "uint256"
        }
      ],
      "stateMutability": "view",
      "type": "function"
    },
    {
      "inputs": [],
      "name": "precrime",
      "outputs": [
        {
          "internalType": "address",
          "name": "",
          "type": "address"
        }
      ],
      "stateMutability": "view",
      "type": "function"
    },
    {
      "inputs": [],
      "name": "renounceOwnership",
      "outputs": [],
      "stateMutability": "nonpayable",
      "type": "function"
    },
    {
      "inputs": [
        {
          "internalType": "uint16",
          "name": "_srcChainId",
          "type": "uint16"
        },
        {
          "internalType": "bytes",
          "name": "_srcAddress",
          "type": "bytes"
        },
        {
          "internalType": "uint64",
          "name": "_nonce",
          "type": "uint64"
        },
        {
          "internalType": "bytes",
          "name": "_payload",
          "type": "bytes"
        }
      ],
      "name": "retryMessage",
      "outputs": [],
      "stateMutability": "payable",
      "type": "function"
    },
    {
      "inputs": [
        {
          "internalType": "address",
          "name": "from",
          "type": "address"
        },
        {
          "internalType": "address",
          "name": "to",
          "type": "address"
        },
        {
          "internalType": "uint256[]",
          "name": "ids",
          "type": "uint256[]"
        },
        {
          "internalType": "uint256[]",
          "name": "amounts",
          "type": "uint256[]"
        },
        {
          "internalType": "bytes",
          "name": "data",
          "type": "bytes"
        }
      ],
      "name": "safeBatchTransferFrom",
      "outputs": [],
      "stateMutability": "nonpayable",
      "type": "function"
    },
    {
      "inputs": [
        {
          "internalType": "address",
          "name": "from",
          "type": "address"
        },
        {
          "internalType": "address",
          "name": "to",
          "type": "address"
        },
        {
          "internalType": "uint256",
          "name": "id",
          "type": "uint256"
        },
        {
          "internalType": "uint256",
          "name": "amount",
          "type": "uint256"
        },
        {
          "internalType": "bytes",
          "name": "data",
          "type": "bytes"
        }
      ],
      "name": "safeTransferFrom",
      "outputs": [],
      "stateMutability": "nonpayable",
      "type": "function"
    },
    {
      "inputs": [
        {
          "internalType": "address",
          "name": "_from",
          "type": "address"
        },
        {
          "internalType": "uint16",
          "name": "_dstChainId",
          "type": "uint16"
        },
        {
          "internalType": "bytes",
          "name": "_toAddress",
          "type": "bytes"
        },
        {
          "internalType": "uint256[]",
          "name": "_tokenIds",
          "type": "uint256[]"
        },
        {
          "internalType": "uint256[]",
          "name": "_amounts",
          "type": "uint256[]"
        },
        {
          "internalType": "address payable",
          "name": "_refundAddress",
          "type": "address"
        },
        {
          "internalType": "address",
          "name": "_zroPaymentAddress",
          "type": "address"
        },
        {
          "internalType": "bytes",
          "name": "_adapterParams",
          "type": "bytes"
        }
      ],
      "name": "sendBatchFrom",
      "outputs": [],
      "stateMutability": "payable",
      "type": "function"
    },
    {
      "inputs": [
        {
          "internalType": "address",
          "name": "_from",
          "type": "address"
        },
        {
          "internalType": "uint16",
          "name": "_dstChainId",
          "type": "uint16"
        },
        {
          "internalType": "bytes",
          "name": "_toAddress",
          "type": "bytes"
        },
        {
          "internalType": "uint256",
          "name": "_tokenId",
          "type": "uint256"
        },
        {
          "internalType": "uint256",
          "name": "_amount",
          "type": "uint256"
        },
        {
          "internalType": "address payable",
          "name": "_refundAddress",
          "type": "address"
        },
        {
          "internalType": "address",
          "name": "_zroPaymentAddress",
          "type": "address"
        },
        {
          "internalType": "bytes",
          "name": "_adapterParams",
          "type": "bytes"
        }
      ],
      "name": "sendFrom",
      "outputs": [],
      "stateMutability": "payable",
      "type": "function"
    },
    {
      "inputs": [
        {
          "internalType": "address",
          "name": "operator",
          "type": "address"
        },
        {
          "internalType": "bool",
          "name": "approved",
          "type": "bool"
        }
      ],
      "name": "setApprovalForAll",
      "outputs": [],
      "stateMutability": "nonpayable",
      "type": "function"
    },
    {
      "inputs": [
        {
          "internalType": "uint16",
          "name": "_version",
          "type": "uint16"
        },
        {
          "internalType": "uint16",
          "name": "_chainId",
          "type": "uint16"
        },
        {
          "internalType": "uint256",
          "name": "_configType",
          "type": "uint256"
        },
        {
          "internalType": "bytes",
          "name": "_config",
          "type": "bytes"
        }
      ],
      "name": "setConfig",
      "outputs": [],
      "stateMutability": "nonpayable",
      "type": "function"
    },
    {
      "inputs": [
        {
          "internalType": "uint16",
          "name": "_dstChainId",
          "type": "uint16"
        },
        {
          "internalType": "uint16",
          "name": "_packetType",
          "type": "uint16"
        },
        {
          "internalType": "uint256",
          "name": "_minGas",
          "type": "uint256"
        }
      ],
      "name": "setMinDstGas",
      "outputs": [],
      "stateMutability": "nonpayable",
      "type": "function"
    },
    {
      "inputs": [
        {
          "internalType": "uint16",
          "name": "_dstChainId",
          "type": "uint16"
        },
        {
          "internalType": "uint256",
          "name": "_size",
          "type": "uint256"
        }
      ],
      "name": "setPayloadSizeLimit",
      "outputs": [],
      "stateMutability": "nonpayable",
      "type": "function"
    },
    {
      "inputs": [
        {
          "internalType": "address",
          "name": "_precrime",
          "type": "address"
        }
      ],
      "name": "setPrecrime",
      "outputs": [],
      "stateMutability": "nonpayable",
      "type": "function"
    },
    {
      "inputs": [
        {
          "internalType": "uint16",
          "name": "_version",
          "type": "uint16"
        }
      ],
      "name": "setReceiveVersion",
      "outputs": [],
      "stateMutability": "nonpayable",
      "type": "function"
    },
    {
      "inputs": [
        {
          "internalType": "uint16",
          "name": "_version",
          "type": "uint16"
        }
      ],
      "name": "setSendVersion",
      "outputs": [],
      "stateMutability": "nonpayable",
      "type": "function"
    },
    {
      "inputs": [
        {
          "internalType": "uint16",
          "name": "_srcChainId",
          "type": "uint16"
        },
        {
          "internalType": "bytes",
          "name": "_path",
          "type": "bytes"
        }
      ],
      "name": "setTrustedRemote",
      "outputs": [],
      "stateMutability": "nonpayable",
      "type": "function"
    },
    {
      "inputs": [
        {
          "internalType": "uint16",
          "name": "_remoteChainId",
          "type": "uint16"
        },
        {
          "internalType": "bytes",
          "name": "_remoteAddress",
          "type": "bytes"
        }
      ],
      "name": "setTrustedRemoteAddress",
      "outputs": [],
      "stateMutability": "nonpayable",
      "type": "function"
    },
    {
      "inputs": [
        {
          "internalType": "bool",
          "name": "_useCustomAdapterParams",
          "type": "bool"
        }
      ],
      "name": "setUseCustomAdapterParams",
      "outputs": [],
      "stateMutability": "nonpayable",
      "type": "function"
    },
    {
      "inputs": [
        {
          "internalType": "bytes4",
          "name": "interfaceId",
          "type": "bytes4"
        }
      ],
      "name": "supportsInterface",
      "outputs": [
        {
          "internalType": "bool",
          "name": "",
          "type": "bool"
        }
      ],
      "stateMutability": "view",
      "type": "function"
    },
    {
      "inputs": [
        {
          "internalType": "address",
          "name": "newOwner",
          "type": "address"
        }
      ],
      "name": "transferOwnership",
      "outputs": [],
      "stateMutability": "nonpayable",
      "type": "function"
    },
    {
      "inputs": [
        {
          "internalType": "uint16",
          "name": "",
          "type": "uint16"
        }
      ],
      "name": "trustedRemoteLookup",
      "outputs": [
        {
          "internalType": "bytes",
          "name": "",
          "type": "bytes"
        }
      ],
      "stateMutability": "view",
      "type": "function"
    },
    {
      "inputs": [
        {
          "internalType": "uint256",
          "name": "",
          "type": "uint256"
        }
      ],
      "name": "uri",
      "outputs": [
        {
          "internalType": "string",
          "name": "",
          "type": "string"
        }
      ],
      "stateMutability": "view",
      "type": "function"
    },
    {
      "inputs": [],
      "name": "useCustomAdapterParams",
      "outputs": [
        {
          "internalType": "bool",
          "name": "",
          "type": "bool"
        }
      ],
      "stateMutability": "view",
      "type": "function"
    }
  ],
  "bytecode": "0x60a06040523480156200001157600080fd5b5060405162004639380380620046398339810160408190526200003491620001a8565b81818080620000433362000066565b6001600160a01b0316608052506200005d905081620000b6565b505050620002d6565b600080546001600160a01b038381166001600160a01b0319831681178455604051919092169283917f8be0079c531659141344cd1fd0a4f28419497f9722a3daafe3b4186f6b6457e09190a35050565b8051620000cb906009906020840190620000cf565b5050565b828054620000dd9062000299565b90600052602060002090601f0160209004810192826200010157600085556200014c565b82601f106200011c57805160ff19168380011785556200014c565b828001600101855582156200014c579182015b828111156200014c5782518255916020019190600101906200012f565b506200015a9291506200015e565b5090565b5b808211156200015a57600081556001016200015f565b634e487b7160e01b600052604160045260246000fd5b80516001600160a01b0381168114620001a357600080fd5b919050565b60008060408385031215620001bc57600080fd5b82516001600160401b0380821115620001d457600080fd5b818501915085601f830112620001e957600080fd5b815181811115620001fe57620001fe62000175565b604051601f8201601f19908116603f0116810190838211818310171562000229576200022962000175565b816040528281526020935088848487010111156200024657600080fd5b600091505b828210156200026a57848201840151818301850152908301906200024b565b828211156200027c5760008484830101525b95506200028e9150508582016200018b565b925050509250929050565b600181811c90821680620002ae57607f821691505b60208210811415620002d057634e487b7160e01b600052602260045260246000fd5b50919050565b60805161430f6200032a6000396000818161068d0152818161083e01528181610b4301528181610c7f01528181610de6015281816113710152818161147a0152818161194a01526128e8015261430f6000f3fe60806040526004361061024f5760003560e01c80638cfd8f5c11610139578063c4461834116100b6578063eab45d9c1161007a578063eab45d9c14610781578063eb8d72b7146107a1578063ed629c5c146107c1578063f242432a146107db578063f2fde38b146107fb578063f5ecbdbc1461081b57600080fd5b8063c4461834146106cf578063cbed8b9c146106e5578063d1deba1f14610705578063df2a5b3b14610718578063e985e9c51461073857600080fd5b8063a6c3d165116100fd578063a6c3d16514610626578063af3fb21c14610646578063b25356631461065b578063b353aaa71461067b578063baf3292d146106af57600080fd5b80638cfd8f5c1461055c5780638da5cb5b14610594578063950c8a74146105c65780639f38369a146105e6578063a22cb4651461060657600080fd5b80633f1f4fa4116101d25780634e1273f4116101965780634e1273f4146104565780635b8c41e61461048357806366ad5c8a146104d2578063715018a6146104f25780637533d788146105075780638608e5f81461052757600080fd5b80633f1f4fa4146103ce57806342d65a8d146103fb578063447705151461041b5780634ab4e687146104305780634db8226a1461044357600080fd5b80630e89341c116102195780630e89341c1461031957806310ddb13714610346578063149e3e1f146103665780632eb2c2d61461038e5780633d8b38f6146103ae57600080fd5b80621d356714610254578062fdd58e1461027657806301ffc9a7146102a957806307e0db17146102d95780630df37483146102f9575b600080fd5b34801561026057600080fd5b5061027461026f36600461303e565b61083b565b005b34801561028257600080fd5b506102966102913660046130f1565b610a6c565b6040519081526020015b60405180910390f35b3480156102b557600080fd5b506102c96102c4366004613133565b610aff565b60405190151581526020016102a0565b3480156102e557600080fd5b506102746102f4366004613150565b610b22565b34801561030557600080fd5b5061027461031436600461316b565b610bab565b34801561032557600080fd5b50610339610334366004613187565b610bca565b6040516102a091906131f8565b34801561035257600080fd5b50610274610361366004613150565b610c5e565b34801561037257600080fd5b5061037b600281565b60405161ffff90911681526020016102a0565b34801561039a57600080fd5b506102746103a9366004613364565b610cb6565b3480156103ba57600080fd5b506102c96103c9366004613411565b610cfb565b3480156103da57600080fd5b506102966103e9366004613150565b60036020526000908152604090205481565b34801561040757600080fd5b50610274610416366004613411565b610dc7565b34801561042757600080fd5b50610296600081565b61027461043e366004613463565b610e4d565b610274610451366004613552565b610e67565b34801561046257600080fd5b506104766104713660046135f8565b610e87565b6040516102a091906136ff565b34801561048f57600080fd5b5061029661049e366004613712565b6005602090815260009384526040808520845180860184018051928152908401958401959095209452929052825290205481565b3480156104de57600080fd5b506102746104ed36600461303e565b610fb0565b3480156104fe57600080fd5b5061027461108c565b34801561051357600080fd5b50610339610522366004613150565b6110a0565b34801561053357600080fd5b5061054761054236600461377f565b61113a565b604080519283526020830191909152016102a0565b34801561056857600080fd5b50610296610577366004613815565b600260209081526000928352604080842090915290825290205481565b3480156105a057600080fd5b506000546001600160a01b03165b6040516001600160a01b0390911681526020016102a0565b3480156105d257600080fd5b506004546105ae906001600160a01b031681565b3480156105f257600080fd5b50610339610601366004613150565b61116a565b34801561061257600080fd5b50610274610621366004613848565b611281565b34801561063257600080fd5b50610274610641366004613411565b611290565b34801561065257600080fd5b5061037b600181565b34801561066757600080fd5b50610547610676366004613874565b611330565b34801561068757600080fd5b506105ae7f000000000000000000000000000000000000000000000000000000000000000081565b3480156106bb57600080fd5b506102746106ca366004613910565b6113fe565b3480156106db57600080fd5b5061029661271081565b3480156106f157600080fd5b5061027461070036600461392d565b61145b565b61027461071336600461303e565b6114f0565b34801561072457600080fd5b5061027461073336600461399b565b611706565b34801561074457600080fd5b506102c96107533660046139d7565b6001600160a01b03918216600090815260086020908152604080832093909416825291909152205460ff1690565b34801561078d57600080fd5b5061027461079c366004613a10565b6117b8565b3480156107ad57600080fd5b506102746107bc366004613411565b611801565b3480156107cd57600080fd5b506006546102c99060ff1681565b3480156107e757600080fd5b506102746107f6366004613a2b565b61185b565b34801561080757600080fd5b50610274610816366004613910565b6118a0565b34801561082757600080fd5b50610339610836366004613a93565b611919565b337f00000000000000000000000000000000000000000000000000000000000000006001600160a01b0316146108b85760405162461bcd60e51b815260206004820152601e60248201527f4c7a4170703a20696e76616c696420656e64706f696e742063616c6c6572000060448201526064015b60405180910390fd5b61ffff8616600090815260016020526040812080546108d690613ae0565b80601f016020809104026020016040519081016040528092919081815260200182805461090290613ae0565b801561094f5780601f106109245761010080835404028352916020019161094f565b820191906000526020600020905b81548152906001019060200180831161093257829003601f168201915b5050505050905080518686905014801561096a575060008151115b80156109925750805160208201206040516109889088908890613b1b565b6040518091039020145b6109ed5760405162461bcd60e51b815260206004820152602660248201527f4c7a4170703a20696e76616c696420736f757263652073656e64696e6720636f6044820152651b9d1c9858dd60d21b60648201526084016108af565b610a638787878080601f01602080910402602001604051908101604052809392919081815260200183838082843760009201919091525050604080516020601f8a018190048102820181019092528881528a9350915088908890819084018382808284376000920191909152506119ca92505050565b50505050505050565b60006001600160a01b038316610ad75760405162461bcd60e51b815260206004820152602a60248201527f455243313135353a2061646472657373207a65726f206973206e6f742061207660448201526930b634b21037bbb732b960b11b60648201526084016108af565b5060009081526007602090815260408083206001600160a01b03949094168352929052205490565b60006001600160e01b031982161580610b1c5750610b1c82611a43565b92915050565b610b2a611a83565b6040516307e0db1760e01b815261ffff821660048201527f00000000000000000000000000000000000000000000000000000000000000006001600160a01b0316906307e0db17906024015b600060405180830381600087803b158015610b9057600080fd5b505af1158015610ba4573d6000803e3d6000fd5b5050505050565b610bb3611a83565b61ffff909116600090815260036020526040902055565b606060098054610bd990613ae0565b80601f0160208091040260200160405190810160405280929190818152602001828054610c0590613ae0565b8015610c525780601f10610c2757610100808354040283529160200191610c52565b820191906000526020600020905b815481529060010190602001808311610c3557829003601f168201915b50505050509050919050565b610c66611a83565b6040516310ddb13760e01b815261ffff821660048201527f00000000000000000000000000000000000000000000000000000000000000006001600160a01b0316906310ddb13790602401610b76565b6001600160a01b038516331480610cd25750610cd28533610753565b610cee5760405162461bcd60e51b81526004016108af90613b2b565b610ba48585858585611add565b61ffff831660009081526001602052604081208054829190610d1c90613ae0565b80601f0160208091040260200160405190810160405280929190818152602001828054610d4890613ae0565b8015610d955780601f10610d6a57610100808354040283529160200191610d95565b820191906000526020600020905b815481529060010190602001808311610d7857829003601f168201915b505050505090508383604051610dac929190613b1b565b60405180910390208180519060200120149150509392505050565b610dcf611a83565b6040516342d65a8d60e01b81526001600160a01b037f000000000000000000000000000000000000000000000000000000000000000016906342d65a8d90610e1f90869086908690600401613ba3565b600060405180830381600087803b158015610e3957600080fd5b505af1158015610a63573d6000803e3d6000fd5b610e5d8888888888888888611c74565b5050505050505050565b610e5d888888610e7689611e5c565b610e7f89611e5c565b888888611c74565b60608151835114610eec5760405162461bcd60e51b815260206004820152602960248201527f455243313135353a206163636f756e747320616e6420696473206c656e677468604482015268040dad2e6dac2e8c6d60bb1b60648201526084016108af565b600083516001600160401b03811115610f0757610f0761320b565b604051908082528060200260200182016040528015610f30578160200160208202803683370190505b50905060005b8451811015610fa857610f7b858281518110610f5457610f54613bc1565b6020026020010151858381518110610f6e57610f6e613bc1565b6020026020010151610a6c565b828281518110610f8d57610f8d613bc1565b6020908102919091010152610fa181613bed565b9050610f36565b509392505050565b33301461100e5760405162461bcd60e51b815260206004820152602660248201527f4e6f6e626c6f636b696e674c7a4170703a2063616c6c6572206d7573742062656044820152650204c7a4170760d41b60648201526084016108af565b6110848686868080601f01602080910402602001604051908101604052809392919081815260200183838082843760009201919091525050604080516020601f890181900481028201810190925287815289935091508790879081908401838280828437600092019190915250611ea792505050565b505050505050565b611094611a83565b61109e6000611ff5565b565b600160205260009081526040902080546110b990613ae0565b80601f01602080910402602001604051908101604052809291908181526020018280546110e590613ae0565b80156111325780601f1061110757610100808354040283529160200191611132565b820191906000526020600020905b81548152906001019060200180831161111557829003601f168201915b505050505081565b60008061115b888861114b89611e5c565b61115489611e5c565b8888611330565b91509150965096945050505050565b61ffff811660009081526001602052604081208054606092919061118d90613ae0565b80601f01602080910402602001604051908101604052809291908181526020018280546111b990613ae0565b80156112065780601f106111db57610100808354040283529160200191611206565b820191906000526020600020905b8154815290600101906020018083116111e957829003601f168201915b5050505050905080516000141561125f5760405162461bcd60e51b815260206004820152601d60248201527f4c7a4170703a206e6f20747275737465642070617468207265636f726400000060448201526064016108af565b61127a6000601483516112729190613c08565b839190612045565b9392505050565b61128c338383612152565b5050565b611298611a83565b8181306040516020016112ad93929190613c1f565b60408051601f1981840301815291815261ffff851660009081526001602090815291902082516112e293919290910190612ebb565b506112f08361ffff16612233565b7f8c0400cfe2d1199b1a725c78960bcc2a344d869b80590d0f2bd005db15a572ce83838360405161132393929190613ba3565b60405180910390a1505050565b600080600087878760405160200161134a93929190613c45565b60408051601f198184030181529082905263040a7bb160e41b825291506001600160a01b037f000000000000000000000000000000000000000000000000000000000000000016906340a7bb10906113ae908c90309086908b908b90600401613c88565b6040805180830381865afa1580156113ca573d6000803e3d6000fd5b505050506040513d601f19601f820116820180604052508101906113ee9190613cdc565b9250925050965096945050505050565b611406611a83565b600480546001600160a01b0319166001600160a01b0383169081179091556040519081527f5db758e995a17ec1ad84bdef7e8c3293a0bd6179bcce400dff5d4c3d87db726b906020015b60405180910390a150565b611463611a83565b6040516332fb62e760e21b81526001600160a01b037f0000000000000000000000000000000000000000000000000000000000000000169063cbed8b9c906114b79088908890889088908890600401613d00565b600060405180830381600087803b1580156114d157600080fd5b505af11580156114e5573d6000803e3d6000fd5b505050505050505050565b61ffff861660009081526005602052604080822090516115139088908890613b1b565b90815260408051602092819003830190206001600160401b038716600090815292529020549050806115935760405162461bcd60e51b815260206004820152602360248201527f4e6f6e626c6f636b696e674c7a4170703a206e6f2073746f726564206d65737360448201526261676560e81b60648201526084016108af565b8083836040516115a4929190613b1b565b6040518091039020146116035760405162461bcd60e51b815260206004820152602160248201527f4e6f6e626c6f636b696e674c7a4170703a20696e76616c6964207061796c6f616044820152601960fa1b60648201526084016108af565b61ffff871660009081526005602052604080822090516116269089908990613b1b565b90815260408051602092819003830181206001600160401b038916600090815290845282902093909355601f880182900482028301820190528682526116be918991899089908190840183828082843760009201919091525050604080516020601f8a018190048102820181019092528881528a935091508890889081908401838280828437600092019190915250611ea792505050565b7fc264d91f3adc5588250e1551f547752ca0cfa8f6b530d243b9f9f4cab10ea8e587878787856040516116f5959493929190613d39565b60405180910390a150505050505050565b61170e611a83565b600081116117565760405162461bcd60e51b81526020600482015260156024820152744c7a4170703a20696e76616c6964206d696e47617360581b60448201526064016108af565b61ffff83811660008181526002602090815260408083209487168084529482529182902085905581519283528201929092529081018290527f9d5c7c0b934da8fefa9c7760c98383778a12dfbfc0c3b3106518f43fb9508ac090606001611323565b6117c0611a83565b6006805460ff19168215159081179091556040519081527f1584ad594a70cbe1e6515592e1272a987d922b097ead875069cebe8b40c004a490602001611450565b611809611a83565b61ffff83166000908152600160205260409020611827908383612f3f565b507ffa41487ad5d6728f0b19276fa1eddc16558578f5109fc39d2dc33c3230470dab83838360405161132393929190613ba3565b6001600160a01b03851633148061187757506118778533610753565b6118935760405162461bcd60e51b81526004016108af90613b2b565b610ba48585858585612278565b6118a8611a83565b6001600160a01b03811661190d5760405162461bcd60e51b815260206004820152602660248201527f4f776e61626c653a206e6577206f776e657220697320746865207a65726f206160448201526564647265737360d01b60648201526084016108af565b61191681611ff5565b50565b604051633d7b2f6f60e21b815261ffff808616600483015284166024820152306044820152606481018290526060907f00000000000000000000000000000000000000000000000000000000000000006001600160a01b03169063f5ecbdbc90608401600060405180830381865afa158015611999573d6000803e3d6000fd5b505050506040513d6000823e601f3d908101601f191682016040526119c19190810190613dc3565b95945050505050565b600080611a2d5a60966366ad5c8a60e01b898989896040516024016119f29493929190613dff565b60408051601f198184030181529190526020810180516001600160e01b03166001600160e01b0319909316929092179091523092919061239b565b9150915081611084576110848686868685612425565b60006001600160e01b03198216636cdb3d1360e11b1480611a7457506001600160e01b031982166303a24d0760e21b145b80610b1c5750610b1c826124c2565b6000546001600160a01b0316331461109e5760405162461bcd60e51b815260206004820181905260248201527f4f776e61626c653a2063616c6c6572206973206e6f7420746865206f776e657260448201526064016108af565b8151835114611afe5760405162461bcd60e51b81526004016108af90613e3d565b6001600160a01b038416611b245760405162461bcd60e51b81526004016108af90613e85565b3360005b8451811015611c0e576000858281518110611b4557611b45613bc1565b602002602001015190506000858381518110611b6357611b63613bc1565b60209081029190910181015160008481526007835260408082206001600160a01b038e168352909352919091205490915081811015611bb45760405162461bcd60e51b81526004016108af90613eca565b60008381526007602090815260408083206001600160a01b038e8116855292528083208585039055908b16825281208054849290611bf3908490613f14565b9250508190555050505080611c0790613bed565b9050611b28565b50846001600160a01b0316866001600160a01b0316826001600160a01b03167f4a39dc06d4c0dbc64b70af90fd698a233a518aa5d07e595d983b8c0526c8f7fb8787604051611c5e929190613f2c565b60405180910390a46110848187878787876124f7565b611c818888888888612653565b6000868686604051602001611c9893929190613c45565b6040516020818303038152906040529050855160011415611d9e5760065460ff1615611cd157611ccc8860018460006126df565b611cf0565b815115611cf05760405162461bcd60e51b81526004016108af90613f51565b611cfe8882868686346127be565b86604051611d0c9190613f95565b6040518091039020896001600160a01b03168961ffff167f968b0d61ebcf43e5d76ed87bd2c4ee2f22b4969b9f4ca49e3373c025eddd5eeb89600081518110611d5757611d57613bc1565b602002602001015189600081518110611d7257611d72613bc1565b6020026020010151604051611d91929190918252602082015260400190565b60405180910390a46114e5565b6001865111156114e55760065460ff1615611dc657611dc18860028460006126df565b611de5565b815115611de55760405162461bcd60e51b81526004016108af90613f51565b611df38882868686346127be565b86604051611e019190613f95565b6040518091039020896001600160a01b03168961ffff167fddd15f7cfbd674ac2096d598f1650367f8a8bd72b4e3abd85591099ea3b57e338989604051611e49929190613f2c565b60405180910390a4505050505050505050565b60408051600180825281830190925260609160009190602080830190803683370190505090508281600081518110611e9657611e96613bc1565b602090810291909101015292915050565b600080600083806020019051810190611ec09190614017565b60148301519295509093509150611ed988828585612964565b825160011415611f8357806001600160a01b031687604051611efb9190613f95565b60405180910390208961ffff167f1bf64e58d19fc43de4c44b3d1bb1fae313979af831a7a39f3297564294329f0f86600081518110611f3c57611f3c613bc1565b602002602001015186600081518110611f5757611f57613bc1565b6020026020010151604051611f76929190918252602082015260400190565b60405180910390a4610e5d565b600183511115610e5d57806001600160a01b031687604051611fa59190613f95565b60405180910390208961ffff167f1ae08edbbcd7baa8d064835de8593ce16b313414525ac89534e349f4da7926e48686604051611fe3929190613f2c565b60405180910390a45050505050505050565b600080546001600160a01b038381166001600160a01b0319831681178455604051919092169283917f8be0079c531659141344cd1fd0a4f28419497f9722a3daafe3b4186f6b6457e09190a35050565b60608161205381601f613f14565b10156120925760405162461bcd60e51b815260206004820152600e60248201526d736c6963655f6f766572666c6f7760901b60448201526064016108af565b61209c8284613f14565b845110156120e05760405162461bcd60e51b8152602060048201526011602482015270736c6963655f6f75744f66426f756e647360781b60448201526064016108af565b6060821580156120ff5760405191506000825260208201604052612149565b6040519150601f8416801560200281840101858101878315602002848b0101015b81831015612138578051835260209283019201612120565b5050858452601f01601f1916604052505b50949350505050565b816001600160a01b0316836001600160a01b031614156121c65760405162461bcd60e51b815260206004820152602960248201527f455243313135353a2073657474696e6720617070726f76616c20737461747573604482015268103337b91039b2b63360b91b60648201526084016108af565b6001600160a01b03838116600081815260086020908152604080832094871680845294825291829020805460ff191686151590811790915591519182527f17307eab39ab6107e8899845ad3d59bd9653f200f220920489ca2b5937696c31910160405180910390a3505050565b6119168160405160240161224991815260200190565b60408051601f198184030181529190526020810180516001600160e01b031663f82c50f160e01b179052612985565b6001600160a01b03841661229e5760405162461bcd60e51b81526004016108af90613e85565b3360006122aa85611e5c565b905060006122b785611e5c565b905060008681526007602090815260408083206001600160a01b038c168452909152902054858110156122fc5760405162461bcd60e51b81526004016108af90613eca565b60008781526007602090815260408083206001600160a01b038d8116855292528083208985039055908a1682528120805488929061233b908490613f14565b909155505060408051888152602081018890526001600160a01b03808b16928c821692918816917fc3d58168c5ae7397731d063d5bbf3d657854427343f4c083240f7aacaa2d0f62910160405180910390a46114e5848a8a8a8a8a6129a6565b6000606060008060008661ffff166001600160401b038111156123c0576123c061320b565b6040519080825280601f01601f1916602001820160405280156123ea576020820181803683370190505b50905060008087516020890160008d8df191503d92508683111561240c578692505b828152826000602083013e909890975095505050505050565b8180519060200120600560008761ffff1661ffff168152602001908152602001600020856040516124569190613f95565b9081526040805191829003602090810183206001600160401b0388166000908152915220919091557fe183f33de2837795525b4792ca4cd60535bd77c53b7e7030060bfcf5734d6b0c906124b3908790879087908790879061409e565b60405180910390a15050505050565b60006001600160e01b031982166319abbbbb60e11b1480610b1c57506301ffc9a760e01b6001600160e01b0319831614610b1c565b6001600160a01b0384163b156110845760405163bc197c8160e01b81526001600160a01b0385169063bc197c819061253b90899089908890889088906004016140f0565b6020604051808303816000875af1925050508015612576575060408051601f3d908101601f191682019092526125739181019061412e565b60015b6126235761258261414b565b806308c379a014156125bc5750612597614167565b806125a257506125be565b8060405162461bcd60e51b81526004016108af91906131f8565b505b60405162461bcd60e51b815260206004820152603460248201527f455243313135353a207472616e7366657220746f206e6f6e20455243313135356044820152732932b1b2b4bb32b91034b6b83632b6b2b73a32b960611b60648201526084016108af565b6001600160e01b0319811663bc197c8160e01b14610a635760405162461bcd60e51b81526004016108af906141f0565b336001600160a01b03861681148061267057506126708682610753565b6126d45760405162461bcd60e51b815260206004820152602f60248201527f4f4e4654313135353a2073656e642063616c6c6572206973206e6f74206f776e60448201526e195c881b9bdc88185c1c1c9bdd9959608a1b60648201526084016108af565b611084868484612a61565b60006126ea83612c66565b61ffff80871660009081526002602090815260408083209389168352929052908120549192509061271c908490613f14565b90506000811161276e5760405162461bcd60e51b815260206004820152601a60248201527f4c7a4170703a206d696e4761734c696d6974206e6f742073657400000000000060448201526064016108af565b808210156110845760405162461bcd60e51b815260206004820152601b60248201527f4c7a4170703a20676173206c696d697420697320746f6f206c6f77000000000060448201526064016108af565b61ffff8616600090815260016020526040812080546127dc90613ae0565b80601f016020809104026020016040519081016040528092919081815260200182805461280890613ae0565b80156128555780601f1061282a57610100808354040283529160200191612855565b820191906000526020600020905b81548152906001019060200180831161283857829003601f168201915b505050505090508051600014156128c75760405162461bcd60e51b815260206004820152603060248201527f4c7a4170703a2064657374696e6174696f6e20636861696e206973206e6f742060448201526f61207472757374656420736f7572636560801b60648201526084016108af565b6128d2878751612cc2565b60405162c5803160e81b81526001600160a01b037f0000000000000000000000000000000000000000000000000000000000000000169063c5803100908490612929908b9086908c908c908c908c90600401614238565b6000604051808303818588803b15801561294257600080fd5b505af1158015612956573d6000803e3d6000fd5b505050505050505050505050565b61297f83838360405180602001604052806000815250612d35565b50505050565b80516a636f6e736f6c652e6c6f67602083016000808483855afa5050505050565b6001600160a01b0384163b156110845760405163f23a6e6160e01b81526001600160a01b0385169063f23a6e61906129ea908990899088908890889060040161429f565b6020604051808303816000875af1925050508015612a25575060408051601f3d908101601f19168201909252612a229181019061412e565b60015b612a315761258261414b565b6001600160e01b0319811663f23a6e6160e01b14610a635760405162461bcd60e51b81526004016108af906141f0565b6001600160a01b038316612ac35760405162461bcd60e51b815260206004820152602360248201527f455243313135353a206275726e2066726f6d20746865207a65726f206164647260448201526265737360e81b60648201526084016108af565b8051825114612ae45760405162461bcd60e51b81526004016108af90613e3d565b604080516020810190915260009081905233905b8351811015612bf9576000848281518110612b1557612b15613bc1565b602002602001015190506000848381518110612b3357612b33613bc1565b60209081029190910181015160008481526007835260408082206001600160a01b038c168352909352919091205490915081811015612bc05760405162461bcd60e51b8152602060048201526024808201527f455243313135353a206275726e20616d6f756e7420657863656564732062616c604482015263616e636560e01b60648201526084016108af565b60009283526007602090815260408085206001600160a01b038b1686529091529092209103905580612bf181613bed565b915050612af8565b5060006001600160a01b0316846001600160a01b0316826001600160a01b03167f4a39dc06d4c0dbc64b70af90fd698a233a518aa5d07e595d983b8c0526c8f7fb8686604051612c4a929190613f2c565b60405180910390a460408051602081019091526000905261297f565b6000602282511015612cba5760405162461bcd60e51b815260206004820152601c60248201527f4c7a4170703a20696e76616c69642061646170746572506172616d730000000060448201526064016108af565b506022015190565b61ffff821660009081526003602052604090205480612ce057506127105b80821115612d305760405162461bcd60e51b815260206004820181905260248201527f4c7a4170703a207061796c6f61642073697a6520697320746f6f206c6172676560448201526064016108af565b505050565b6001600160a01b038416612d955760405162461bcd60e51b815260206004820152602160248201527f455243313135353a206d696e7420746f20746865207a65726f206164647265736044820152607360f81b60648201526084016108af565b8151835114612db65760405162461bcd60e51b81526004016108af90613e3d565b3360005b8451811015612e5357838181518110612dd557612dd5613bc1565b602002602001015160076000878481518110612df357612df3613bc1565b602002602001015181526020019081526020016000206000886001600160a01b03166001600160a01b031681526020019081526020016000206000828254612e3b9190613f14565b90915550819050612e4b81613bed565b915050612dba565b50846001600160a01b031660006001600160a01b0316826001600160a01b03167f4a39dc06d4c0dbc64b70af90fd698a233a518aa5d07e595d983b8c0526c8f7fb8787604051612ea4929190613f2c565b60405180910390a4610ba4816000878787876124f7565b828054612ec790613ae0565b90600052602060002090601f016020900481019282612ee95760008555612f2f565b82601f10612f0257805160ff1916838001178555612f2f565b82800160010185558215612f2f579182015b82811115612f2f578251825591602001919060010190612f14565b50612f3b929150612fb3565b5090565b828054612f4b90613ae0565b90600052602060002090601f016020900481019282612f6d5760008555612f2f565b82601f10612f865782800160ff19823516178555612f2f565b82800160010185558215612f2f579182015b82811115612f2f578235825591602001919060010190612f98565b5b80821115612f3b5760008155600101612fb4565b803561ffff81168114612fda57600080fd5b919050565b60008083601f840112612ff157600080fd5b5081356001600160401b0381111561300857600080fd5b60208301915083602082850101111561302057600080fd5b9250929050565b80356001600160401b0381168114612fda57600080fd5b6000806000806000806080878903121561305757600080fd5b61306087612fc8565b955060208701356001600160401b038082111561307c57600080fd5b6130888a838b01612fdf565b909750955085915061309c60408a01613027565b945060608901359150808211156130b257600080fd5b506130bf89828a01612fdf565b979a9699509497509295939492505050565b6001600160a01b038116811461191657600080fd5b8035612fda816130d1565b6000806040838503121561310457600080fd5b823561310f816130d1565b946020939093013593505050565b6001600160e01b03198116811461191657600080fd5b60006020828403121561314557600080fd5b813561127a8161311d565b60006020828403121561316257600080fd5b61127a82612fc8565b6000806040838503121561317e57600080fd5b61310f83612fc8565b60006020828403121561319957600080fd5b5035919050565b60005b838110156131bb5781810151838201526020016131a3565b8381111561297f5750506000910152565b600081518084526131e48160208601602086016131a0565b601f01601f19169290920160200192915050565b60208152600061127a60208301846131cc565b634e487b7160e01b600052604160045260246000fd5b601f8201601f191681016001600160401b03811182821017156132465761324661320b565b6040525050565b60006001600160401b038211156132665761326661320b565b5060051b60200190565b600082601f83011261328157600080fd5b8135602061328e8261324d565b60405161329b8282613221565b83815260059390931b85018201928281019150868411156132bb57600080fd5b8286015b848110156132d657803583529183019183016132bf565b509695505050505050565b60006001600160401b038211156132fa576132fa61320b565b50601f01601f191660200190565b600082601f83011261331957600080fd5b8135613324816132e1565b6040516133318282613221565b82815285602084870101111561334657600080fd5b82602086016020830137600092810160200192909252509392505050565b600080600080600060a0868803121561337c57600080fd5b8535613387816130d1565b94506020860135613397816130d1565b935060408601356001600160401b03808211156133b357600080fd5b6133bf89838a01613270565b945060608801359150808211156133d557600080fd5b6133e189838a01613270565b935060808801359150808211156133f757600080fd5b5061340488828901613308565b9150509295509295909350565b60008060006040848603121561342657600080fd5b61342f84612fc8565b925060208401356001600160401b0381111561344a57600080fd5b61345686828701612fdf565b9497909650939450505050565b600080600080600080600080610100898b03121561348057600080fd5b613489896130e6565b975061349760208a01612fc8565b965060408901356001600160401b03808211156134b357600080fd5b6134bf8c838d01613308565b975060608b01359150808211156134d557600080fd5b6134e18c838d01613270565b965060808b01359150808211156134f757600080fd5b6135038c838d01613270565b955061351160a08c016130e6565b945061351f60c08c016130e6565b935060e08b013591508082111561353557600080fd5b506135428b828c01613308565b9150509295985092959890939650565b600080600080600080600080610100898b03121561356f57600080fd5b883561357a816130d1565b975061358860208a01612fc8565b965060408901356001600160401b03808211156135a457600080fd5b6135b08c838d01613308565b975060608b0135965060808b0135955060a08b013591506135d0826130d1565b90935060c08a0135906135e2826130d1565b90925060e08a0135908082111561353557600080fd5b6000806040838503121561360b57600080fd5b82356001600160401b038082111561362257600080fd5b818501915085601f83011261363657600080fd5b813560206136438261324d565b6040516136508282613221565b83815260059390931b850182019282810191508984111561367057600080fd5b948201945b83861015613697578535613688816130d1565b82529482019490820190613675565b965050860135925050808211156136ad57600080fd5b506136ba85828601613270565b9150509250929050565b600081518084526020808501945080840160005b838110156136f4578151875295820195908201906001016136d8565b509495945050505050565b60208152600061127a60208301846136c4565b60008060006060848603121561372757600080fd5b61373084612fc8565b925060208401356001600160401b0381111561374b57600080fd5b61375786828701613308565b92505061376660408501613027565b90509250925092565b80358015158114612fda57600080fd5b60008060008060008060c0878903121561379857600080fd5b6137a187612fc8565b955060208701356001600160401b03808211156137bd57600080fd5b6137c98a838b01613308565b965060408901359550606089013594506137e560808a0161376f565b935060a08901359150808211156137fb57600080fd5b5061380889828a01613308565b9150509295509295509295565b6000806040838503121561382857600080fd5b61383183612fc8565b915061383f60208401612fc8565b90509250929050565b6000806040838503121561385b57600080fd5b8235613866816130d1565b915061383f6020840161376f565b60008060008060008060c0878903121561388d57600080fd5b61389687612fc8565b955060208701356001600160401b03808211156138b257600080fd5b6138be8a838b01613308565b965060408901359150808211156138d457600080fd5b6138e08a838b01613270565b955060608901359150808211156138f657600080fd5b6139028a838b01613270565b94506137e560808a0161376f565b60006020828403121561392257600080fd5b813561127a816130d1565b60008060008060006080868803121561394557600080fd5b61394e86612fc8565b945061395c60208701612fc8565b93506040860135925060608601356001600160401b0381111561397e57600080fd5b61398a88828901612fdf565b969995985093965092949392505050565b6000806000606084860312156139b057600080fd5b6139b984612fc8565b92506139c760208501612fc8565b9150604084013590509250925092565b600080604083850312156139ea57600080fd5b82356139f5816130d1565b91506020830135613a05816130d1565b809150509250929050565b600060208284031215613a2257600080fd5b61127a8261376f565b600080600080600060a08688031215613a4357600080fd5b8535613a4e816130d1565b94506020860135613a5e816130d1565b9350604086013592506060860135915060808601356001600160401b03811115613a8757600080fd5b61340488828901613308565b60008060008060808587031215613aa957600080fd5b613ab285612fc8565b9350613ac060208601612fc8565b92506040850135613ad0816130d1565b9396929550929360600135925050565b600181811c90821680613af457607f821691505b60208210811415613b1557634e487b7160e01b600052602260045260246000fd5b50919050565b8183823760009101908152919050565b6020808252602f908201527f455243313135353a2063616c6c6572206973206e6f7420746f6b656e206f776e60408201526e195c881b9bdc88185c1c1c9bdd9959608a1b606082015260800190565b81835281816020850137506000828201602090810191909152601f909101601f19169091010190565b61ffff841681526040602082015260006119c1604083018486613b7a565b634e487b7160e01b600052603260045260246000fd5b634e487b7160e01b600052601160045260246000fd5b6000600019821415613c0157613c01613bd7565b5060010190565b600082821015613c1a57613c1a613bd7565b500390565b8284823760609190911b6bffffffffffffffffffffffff19169101908152601401919050565b606081526000613c5860608301866131cc565b8281036020840152613c6a81866136c4565b90508281036040840152613c7e81856136c4565b9695505050505050565b61ffff861681526001600160a01b038516602082015260a060408201819052600090613cb6908301866131cc565b84151560608401528281036080840152613cd081856131cc565b98975050505050505050565b60008060408385031215613cef57600080fd5b505080516020909101519092909150565b600061ffff808816835280871660208401525084604083015260806060830152613d2e608083018486613b7a565b979650505050505050565b61ffff86168152608060208201526000613d57608083018688613b7a565b6001600160401b0394909416604083015250606001529392505050565b600082601f830112613d8557600080fd5b8151613d90816132e1565b604051613d9d8282613221565b828152856020848701011115613db257600080fd5b6119c18360208301602088016131a0565b600060208284031215613dd557600080fd5b81516001600160401b03811115613deb57600080fd5b613df784828501613d74565b949350505050565b61ffff85168152608060208201526000613e1c60808301866131cc565b6001600160401b03851660408401528281036060840152613d2e81856131cc565b60208082526028908201527f455243313135353a2069647320616e6420616d6f756e7473206c656e677468206040820152670dad2e6dac2e8c6d60c31b606082015260800190565b60208082526025908201527f455243313135353a207472616e7366657220746f20746865207a65726f206164604082015264647265737360d81b606082015260800190565b6020808252602a908201527f455243313135353a20696e73756666696369656e742062616c616e636520666f60408201526939103a3930b739b332b960b11b606082015260800190565b60008219821115613f2757613f27613bd7565b500190565b604081526000613f3f60408301856136c4565b82810360208401526119c181856136c4565b60208082526024908201527f4c7a4170703a205f61646170746572506172616d73206d75737420626520656d604082015263383a3c9760e11b606082015260800190565b60008251613fa78184602087016131a0565b9190910192915050565b600082601f830112613fc257600080fd5b81516020613fcf8261324d565b604051613fdc8282613221565b83815260059390931b8501820192828101915086841115613ffc57600080fd5b8286015b848110156132d65780518352918301918301614000565b60008060006060848603121561402c57600080fd5b83516001600160401b038082111561404357600080fd5b61404f87838801613d74565b9450602086015191508082111561406557600080fd5b61407187838801613fb1565b9350604086015191508082111561408757600080fd5b5061409486828701613fb1565b9150509250925092565b61ffff8616815260a0602082015260006140bb60a08301876131cc565b6001600160401b038616604084015282810360608401526140dc81866131cc565b90508281036080840152613cd081856131cc565b6001600160a01b0386811682528516602082015260a06040820181905260009061411c908301866136c4565b82810360608401526140dc81866136c4565b60006020828403121561414057600080fd5b815161127a8161311d565b600060033d11156141645760046000803e5060005160e01c5b90565b600060443d10156141755790565b6040516003193d81016004833e81513d6001600160401b0381602484011181841117156141a457505050505090565b82850191508151818111156141bc5750505050505090565b843d87010160208285010111156141d65750505050505090565b6141e560208286010187613221565b509095945050505050565b60208082526028908201527f455243313135353a204552433131353552656365697665722072656a656374656040820152676420746f6b656e7360c01b606082015260800190565b61ffff8716815260c06020820152600061425560c08301886131cc565b828103604084015261426781886131cc565b6001600160a01b0387811660608601528616608085015283810360a0850152905061429281856131cc565b9998505050505050505050565b6001600160a01b03868116825285166020820152604081018490526060810183905260a060808201819052600090613d2e908301846131cc56fea26469706673582212202fb34bbbd406b5ea93034344bc3ff464f71b15cfb5933cb1b206d184fcbd6d7a64736f6c634300080c0033",
  "linkReferences": {},
  "deployedLinkReferences": {}
}