{
  "_format": "hh-sol-artifact-1",
  "contractName": "ProxyONFT721",
  "sourceName": "contracts/token/onft/extension/ProxyONFT721.sol",
  "abi": [
    {
      "inputs": [
        {
          "internalType": "uint256",
          "name": "_minGasToTransfer",
          "type": "uint256"
        },
        {
          "internalType": "address",
          "name": "_lzEndpoint",
          "type": "address"
        },
        {
          "internalType": "address",
          "name": "_proxyToken",
          "type": "address"
        }
      ],
      "stateMutability": "nonpayable",
      "type": "constructor"
    },
    {
      "anonymous": false,
      "inputs": [
        {
          "indexed": false,
          "internalType": "bytes32",
          "name": "_hashedPayload",
          "type": "bytes32"
        }
      ],
      "name": "CreditCleared",
      "type": "event"
    },
    {
      "anonymous": false,
      "inputs": [
        {
          "indexed": false,
          "internalType": "bytes32",
          "name": "_hashedPayload",
          "type": "bytes32"
        },
        {
          "indexed": false,
          "internalType": "bytes",
          "name": "_payload",
          "type": "bytes"
        }
      ],
      "name": "CreditStored",
      "type": "event"
    },
    {
      "anonymous": false,
      "inputs": [
        {
          "indexed": false,
          "internalType": "uint16",
          "name": "_srcChainId",
          "type": "uint16"
        },
        {
          "indexed": false,
          "internalType": "bytes",
          "name": "_srcAddress",
          "type": "bytes"
        },
        {
          "indexed": false,
          "internalType": "uint64",
          "name": "_nonce",
          "type": "uint64"
        },
        {
          "indexed": false,
          "internalType": "bytes",
          "name": "_payload",
          "type": "bytes"
        },
        {
          "indexed": false,
          "internalType": "bytes",
          "name": "_reason",
          "type": "bytes"
        }
      ],
      "name": "MessageFailed",
      "type": "event"
    },
    {
      "anonymous": false,
      "inputs": [
        {
          "indexed": true,
          "internalType": "address",
          "name": "previousOwner",
          "type": "address"
        },
        {
          "indexed": true,
          "internalType": "address",
          "name": "newOwner",
          "type": "address"
        }
      ],
      "name": "OwnershipTransferred",
      "type": "event"
    },
    {
      "anonymous": false,
      "inputs": [
        {
          "indexed": true,
          "internalType": "uint16",
          "name": "_srcChainId",
          "type": "uint16"
        },
        {
          "indexed": true,
          "internalType": "bytes",
          "name": "_srcAddress",
          "type": "bytes"
        },
        {
          "indexed": true,
          "internalType": "address",
          "name": "_toAddress",
          "type": "address"
        },
        {
          "indexed": false,
          "internalType": "uint256[]",
          "name": "_tokenIds",
          "type": "uint256[]"
        }
      ],
      "name": "ReceiveFromChain",
      "type": "event"
    },
    {
      "anonymous": false,
      "inputs": [
        {
          "indexed": false,
          "internalType": "uint16",
          "name": "_srcChainId",
          "type": "uint16"
        },
        {
          "indexed": false,
          "internalType": "bytes",
          "name": "_srcAddress",
          "type": "bytes"
        },
        {
          "indexed": false,
          "internalType": "uint64",
          "name": "_nonce",
          "type": "uint64"
        },
        {
          "indexed": false,
          "internalType": "bytes32",
          "name": "_payloadHash",
          "type": "bytes32"
        }
      ],
      "name": "RetryMessageSuccess",
      "type": "event"
    },
    {
      "anonymous": false,
      "inputs": [
        {
          "indexed": true,
          "internalType": "uint16",
          "name": "_dstChainId",
          "type": "uint16"
        },
        {
          "indexed": true,
          "internalType": "address",
          "name": "_from",
          "type": "address"
        },
        {
          "indexed": true,
          "internalType": "bytes",
          "name": "_toAddress",
          "type": "bytes"
        },
        {
          "indexed": false,
          "internalType": "uint256[]",
          "name": "_tokenIds",
          "type": "uint256[]"
        }
      ],
      "name": "SendToChain",
      "type": "event"
    },
    {
      "anonymous": false,
      "inputs": [
        {
          "indexed": false,
          "internalType": "uint16",
          "name": "_dstChainId",
          "type": "uint16"
        },
        {
          "indexed": false,
          "internalType": "uint16",
          "name": "_type",
          "type": "uint16"
        },
        {
          "indexed": false,
          "internalType": "uint256",
          "name": "_minDstGas",
          "type": "uint256"
        }
      ],
      "name": "SetMinDstGas",
      "type": "event"
    },
    {
      "anonymous": false,
      "inputs": [
        {
          "indexed": false,
          "internalType": "address",
          "name": "precrime",
          "type": "address"
        }
      ],
      "name": "SetPrecrime",
      "type": "event"
    },
    {
      "anonymous": false,
      "inputs": [
        {
          "indexed": false,
          "internalType": "uint16",
          "name": "_remoteChainId",
          "type": "uint16"
        },
        {
          "indexed": false,
          "internalType": "bytes",
          "name": "_path",
          "type": "bytes"
        }
      ],
      "name": "SetTrustedRemote",
      "type": "event"
    },
    {
      "anonymous": false,
      "inputs": [
        {
          "indexed": false,
          "internalType": "uint16",
          "name": "_remoteChainId",
          "type": "uint16"
        },
        {
          "indexed": false,
          "internalType": "bytes",
          "name": "_remoteAddress",
          "type": "bytes"
        }
      ],
      "name": "SetTrustedRemoteAddress",
      "type": "event"
    },
    {
      "inputs": [],
      "name": "DEFAULT_PAYLOAD_SIZE_LIMIT",
      "outputs": [
        {
          "internalType": "uint256",
          "name": "",
          "type": "uint256"
        }
      ],
      "stateMutability": "view",
      "type": "function"
    },
    {
      "inputs": [],
      "name": "FUNCTION_TYPE_SEND",
      "outputs": [
        {
          "internalType": "uint16",
          "name": "",
          "type": "uint16"
        }
      ],
      "stateMutability": "view",
      "type": "function"
    },
    {
      "inputs": [
        {
          "internalType": "bytes",
          "name": "_payload",
          "type": "bytes"
        }
      ],
      "name": "clearCredits",
      "outputs": [],
      "stateMutability": "nonpayable",
      "type": "function"
    },
    {
      "inputs": [
        {
          "internalType": "uint16",
          "name": "",
          "type": "uint16"
        }
      ],
      "name": "dstChainIdToBatchLimit",
      "outputs": [
        {
          "internalType": "uint256",
          "name": "",
          "type": "uint256"
        }
      ],
      "stateMutability": "view",
      "type": "function"
    },
    {
      "inputs": [
        {
          "internalType": "uint16",
          "name": "",
          "type": "uint16"
        }
      ],
      "name": "dstChainIdToTransferGas",
      "outputs": [
        {
          "internalType": "uint256",
          "name": "",
          "type": "uint256"
        }
      ],
      "stateMutability": "view",
      "type": "function"
    },
    {
      "inputs": [
        {
          "internalType": "uint16",
          "name": "_dstChainId",
          "type": "uint16"
        },
        {
          "internalType": "bytes",
          "name": "_toAddress",
          "type": "bytes"
        },
        {
          "internalType": "uint256[]",
          "name": "_tokenIds",
          "type": "uint256[]"
        },
        {
          "internalType": "bool",
          "name": "_useZro",
          "type": "bool"
        },
        {
          "internalType": "bytes",
          "name": "_adapterParams",
          "type": "bytes"
        }
      ],
      "name": "estimateSendBatchFee",
      "outputs": [
        {
          "internalType": "uint256",
          "name": "nativeFee",
          "type": "uint256"
        },
        {
          "internalType": "uint256",
          "name": "zroFee",
          "type": "uint256"
        }
      ],
      "stateMutability": "view",
      "type": "function"
    },
    {
      "inputs": [
        {
          "internalType": "uint16",
          "name": "_dstChainId",
          "type": "uint16"
        },
        {
          "internalType": "bytes",
          "name": "_toAddress",
          "type": "bytes"
        },
        {
          "internalType": "uint256",
          "name": "_tokenId",
          "type": "uint256"
        },
        {
          "internalType": "bool",
          "name": "_useZro",
          "type": "bool"
        },
        {
          "internalType": "bytes",
          "name": "_adapterParams",
          "type": "bytes"
        }
      ],
      "name": "estimateSendFee",
      "outputs": [
        {
          "internalType": "uint256",
          "name": "nativeFee",
          "type": "uint256"
        },
        {
          "internalType": "uint256",
          "name": "zroFee",
          "type": "uint256"
        }
      ],
      "stateMutability": "view",
      "type": "function"
    },
    {
      "inputs": [
        {
          "internalType": "uint16",
          "name": "",
          "type": "uint16"
        },
        {
          "internalType": "bytes",
          "name": "",
          "type": "bytes"
        },
        {
          "internalType": "uint64",
          "name": "",
          "type": "uint64"
        }
      ],
      "name": "failedMessages",
      "outputs": [
        {
          "internalType": "bytes32",
          "name": "",
          "type": "bytes32"
        }
      ],
      "stateMutability": "view",
      "type": "function"
    },
    {
      "inputs": [
        {
          "internalType": "uint16",
          "name": "_srcChainId",
          "type": "uint16"
        },
        {
          "internalType": "bytes",
          "name": "_srcAddress",
          "type": "bytes"
        }
      ],
      "name": "forceResumeReceive",
      "outputs": [],
      "stateMutability": "nonpayable",
      "type": "function"
    },
    {
      "inputs": [
        {
          "internalType": "uint16",
          "name": "_version",
          "type": "uint16"
        },
        {
          "internalType": "uint16",
          "name": "_chainId",
          "type": "uint16"
        },
        {
          "internalType": "address",
          "name": "",
          "type": "address"
        },
        {
          "internalType": "uint256",
          "name": "_configType",
          "type": "uint256"
        }
      ],
      "name": "getConfig",
      "outputs": [
        {
          "internalType": "bytes",
          "name": "",
          "type": "bytes"
        }
      ],
      "stateMutability": "view",
      "type": "function"
    },
    {
      "inputs": [
        {
          "internalType": "uint16",
          "name": "_remoteChainId",
          "type": "uint16"
        }
      ],
      "name": "getTrustedRemoteAddress",
      "outputs": [
        {
          "internalType": "bytes",
          "name": "",
          "type": "bytes"
        }
      ],
      "stateMutability": "view",
      "type": "function"
    },
    {
      "inputs": [
        {
          "internalType": "uint16",
          "name": "_srcChainId",
          "type": "uint16"
        },
        {
          "internalType": "bytes",
          "name": "_srcAddress",
          "type": "bytes"
        }
      ],
      "name": "isTrustedRemote",
      "outputs": [
        {
          "internalType": "bool",
          "name": "",
          "type": "bool"
        }
      ],
      "stateMutability": "view",
      "type": "function"
    },
    {
      "inputs": [],
      "name": "lzEndpoint",
      "outputs": [
        {
          "internalType": "contract ILayerZeroEndpoint",
          "name": "",
          "type": "address"
        }
      ],
      "stateMutability": "view",
      "type": "function"
    },
    {
      "inputs": [
        {
          "internalType": "uint16",
          "name": "_srcChainId",
          "type": "uint16"
        },
        {
          "internalType": "bytes",
          "name": "_srcAddress",
          "type": "bytes"
        },
        {
          "internalType": "uint64",
          "name": "_nonce",
          "type": "uint64"
        },
        {
          "internalType": "bytes",
          "name": "_payload",
          "type": "bytes"
        }
      ],
      "name": "lzReceive",
      "outputs": [],
      "stateMutability": "nonpayable",
      "type": "function"
    },
    {
      "inputs": [
        {
          "internalType": "uint16",
          "name": "",
          "type": "uint16"
        },
        {
          "internalType": "uint16",
          "name": "",
          "type": "uint16"
        }
      ],
      "name": "minDstGasLookup",
      "outputs": [
        {
          "internalType": "uint256",
          "name": "",
          "type": "uint256"
        }
      ],
      "stateMutability": "view",
      "type": "function"
    },
    {
      "inputs": [],
      "name": "minGasToTransferAndStore",
      "outputs": [
        {
          "internalType": "uint256",
          "name": "",
          "type": "uint256"
        }
      ],
      "stateMutability": "view",
      "type": "function"
    },
    {
      "inputs": [
        {
          "internalType": "uint16",
          "name": "_srcChainId",
          "type": "uint16"
        },
        {
          "internalType": "bytes",
          "name": "_srcAddress",
          "type": "bytes"
        },
        {
          "internalType": "uint64",
          "name": "_nonce",
          "type": "uint64"
        },
        {
          "internalType": "bytes",
          "name": "_payload",
          "type": "bytes"
        }
      ],
      "name": "nonblockingLzReceive",
      "outputs": [],
      "stateMutability": "nonpayable",
      "type": "function"
    },
    {
      "inputs": [
        {
          "internalType": "address",
          "name": "_operator",
          "type": "address"
        },
        {
          "internalType": "address",
          "name": "",
          "type": "address"
        },
        {
          "internalType": "uint256",
          "name": "",
          "type": "uint256"
        },
        {
          "internalType": "bytes",
          "name": "",
          "type": "bytes"
        }
      ],
      "name": "onERC721Received",
      "outputs": [
        {
          "internalType": "bytes4",
          "name": "",
          "type": "bytes4"
        }
      ],
      "stateMutability": "nonpayable",
      "type": "function"
    },
    {
      "inputs": [],
      "name": "owner",
      "outputs": [
        {
          "internalType": "address",
          "name": "",
          "type": "address"
        }
      ],
      "stateMutability": "view",
      "type": "function"
    },
    {
      "inputs": [
        {
          "internalType": "uint16",
          "name": "",
          "type": "uint16"
        }
      ],
      "name": "payloadSizeLimitLookup",
      "outputs": [
        {
          "internalType": "uint256",
          "name": "",
          "type": "uint256"
        }
      ],
      "stateMutability": "view",
      "type": "function"
    },
    {
      "inputs": [],
      "name": "precrime",
      "outputs": [
        {
          "internalType": "address",
          "name": "",
          "type": "address"
        }
      ],
      "stateMutability": "view",
      "type": "function"
    },
    {
      "inputs": [],
      "name": "renounceOwnership",
      "outputs": [],
      "stateMutability": "nonpayable",
      "type": "function"
    },
    {
      "inputs": [
        {
          "internalType": "uint16",
          "name": "_srcChainId",
          "type": "uint16"
        },
        {
          "internalType": "bytes",
          "name": "_srcAddress",
          "type": "bytes"
        },
        {
          "internalType": "uint64",
          "name": "_nonce",
          "type": "uint64"
        },
        {
          "internalType": "bytes",
          "name": "_payload",
          "type": "bytes"
        }
      ],
      "name": "retryMessage",
      "outputs": [],
      "stateMutability": "payable",
      "type": "function"
    },
    {
      "inputs": [
        {
          "internalType": "address",
          "name": "_from",
          "type": "address"
        },
        {
          "internalType": "uint16",
          "name": "_dstChainId",
          "type": "uint16"
        },
        {
          "internalType": "bytes",
          "name": "_toAddress",
          "type": "bytes"
        },
        {
          "internalType": "uint256[]",
          "name": "_tokenIds",
          "type": "uint256[]"
        },
        {
          "internalType": "address payable",
          "name": "_refundAddress",
          "type": "address"
        },
        {
          "internalType": "address",
          "name": "_zroPaymentAddress",
          "type": "address"
        },
        {
          "internalType": "bytes",
          "name": "_adapterParams",
          "type": "bytes"
        }
      ],
      "name": "sendBatchFrom",
      "outputs": [],
      "stateMutability": "payable",
      "type": "function"
    },
    {
      "inputs": [
        {
          "internalType": "address",
          "name": "_from",
          "type": "address"
        },
        {
          "internalType": "uint16",
          "name": "_dstChainId",
          "type": "uint16"
        },
        {
          "internalType": "bytes",
          "name": "_toAddress",
          "type": "bytes"
        },
        {
          "internalType": "uint256",
          "name": "_tokenId",
          "type": "uint256"
        },
        {
          "internalType": "address payable",
          "name": "_refundAddress",
          "type": "address"
        },
        {
          "internalType": "address",
          "name": "_zroPaymentAddress",
          "type": "address"
        },
        {
          "internalType": "bytes",
          "name": "_adapterParams",
          "type": "bytes"
        }
      ],
      "name": "sendFrom",
      "outputs": [],
      "stateMutability": "payable",
      "type": "function"
    },
    {
      "inputs": [
        {
          "internalType": "uint16",
          "name": "_version",
          "type": "uint16"
        },
        {
          "internalType": "uint16",
          "name": "_chainId",
          "type": "uint16"
        },
        {
          "internalType": "uint256",
          "name": "_configType",
          "type": "uint256"
        },
        {
          "internalType": "bytes",
          "name": "_config",
          "type": "bytes"
        }
      ],
      "name": "setConfig",
      "outputs": [],
      "stateMutability": "nonpayable",
      "type": "function"
    },
    {
      "inputs": [
        {
          "internalType": "uint16",
          "name": "_dstChainId",
          "type": "uint16"
        },
        {
          "internalType": "uint256",
          "name": "_dstChainIdToBatchLimit",
          "type": "uint256"
        }
      ],
      "name": "setDstChainIdToBatchLimit",
      "outputs": [],
      "stateMutability": "nonpayable",
      "type": "function"
    },
    {
      "inputs": [
        {
          "internalType": "uint16",
          "name": "_dstChainId",
          "type": "uint16"
        },
        {
          "internalType": "uint256",
          "name": "_dstChainIdToTransferGas",
          "type": "uint256"
        }
      ],
      "name": "setDstChainIdToTransferGas",
      "outputs": [],
      "stateMutability": "nonpayable",
      "type": "function"
    },
    {
      "inputs": [
        {
          "internalType": "uint16",
          "name": "_dstChainId",
          "type": "uint16"
        },
        {
          "internalType": "uint16",
          "name": "_packetType",
          "type": "uint16"
        },
        {
          "internalType": "uint256",
          "name": "_minGas",
          "type": "uint256"
        }
      ],
      "name": "setMinDstGas",
      "outputs": [],
      "stateMutability": "nonpayable",
      "type": "function"
    },
    {
      "inputs": [
        {
          "internalType": "uint256",
          "name": "_minGasToTransferAndStore",
          "type": "uint256"
        }
      ],
      "name": "setMinGasToTransferAndStore",
      "outputs": [],
      "stateMutability": "nonpayable",
      "type": "function"
    },
    {
      "inputs": [
        {
          "internalType": "uint16",
          "name": "_dstChainId",
          "type": "uint16"
        },
        {
          "internalType": "uint256",
          "name": "_size",
          "type": "uint256"
        }
      ],
      "name": "setPayloadSizeLimit",
      "outputs": [],
      "stateMutability": "nonpayable",
      "type": "function"
    },
    {
      "inputs": [
        {
          "internalType": "address",
          "name": "_precrime",
          "type": "address"
        }
      ],
      "name": "setPrecrime",
      "outputs": [],
      "stateMutability": "nonpayable",
      "type": "function"
    },
    {
      "inputs": [
        {
          "internalType": "uint16",
          "name": "_version",
          "type": "uint16"
        }
      ],
      "name": "setReceiveVersion",
      "outputs": [],
      "stateMutability": "nonpayable",
      "type": "function"
    },
    {
      "inputs": [
        {
          "internalType": "uint16",
          "name": "_version",
          "type": "uint16"
        }
      ],
      "name": "setSendVersion",
      "outputs": [],
      "stateMutability": "nonpayable",
      "type": "function"
    },
    {
      "inputs": [
        {
          "internalType": "uint16",
          "name": "_srcChainId",
          "type": "uint16"
        },
        {
          "internalType": "bytes",
          "name": "_path",
          "type": "bytes"
        }
      ],
      "name": "setTrustedRemote",
      "outputs": [],
      "stateMutability": "nonpayable",
      "type": "function"
    },
    {
      "inputs": [
        {
          "internalType": "uint16",
          "name": "_remoteChainId",
          "type": "uint16"
        },
        {
          "internalType": "bytes",
          "name": "_remoteAddress",
          "type": "bytes"
        }
      ],
      "name": "setTrustedRemoteAddress",
      "outputs": [],
      "stateMutability": "nonpayable",
      "type": "function"
    },
    {
      "inputs": [
        {
          "internalType": "bytes32",
          "name": "",
          "type": "bytes32"
        }
      ],
      "name": "storedCredits",
      "outputs": [
        {
          "internalType": "uint16",
          "name": "srcChainId",
          "type": "uint16"
        },
        {
          "internalType": "address",
          "name": "toAddress",
          "type": "address"
        },
        {
          "internalType": "uint256",
          "name": "index",
          "type": "uint256"
        },
        {
          "internalType": "bool",
          "name": "creditsRemain",
          "type": "bool"
        }
      ],
      "stateMutability": "view",
      "type": "function"
    },
    {
      "inputs": [
        {
          "internalType": "bytes4",
          "name": "interfaceId",
          "type": "bytes4"
        }
      ],
      "name": "supportsInterface",
      "outputs": [
        {
          "internalType": "bool",
          "name": "",
          "type": "bool"
        }
      ],
      "stateMutability": "view",
      "type": "function"
    },
    {
      "inputs": [],
      "name": "token",
      "outputs": [
        {
          "internalType": "contract IERC721",
          "name": "",
          "type": "address"
        }
      ],
      "stateMutability": "view",
      "type": "function"
    },
    {
      "inputs": [
        {
          "internalType": "address",
          "name": "newOwner",
          "type": "address"
        }
      ],
      "name": "transferOwnership",
      "outputs": [],
      "stateMutability": "nonpayable",
      "type": "function"
    },
    {
      "inputs": [
        {
          "internalType": "uint16",
          "name": "",
          "type": "uint16"
        }
      ],
      "name": "trustedRemoteLookup",
      "outputs": [
        {
          "internalType": "bytes",
          "name": "",
          "type": "bytes"
        }
      ],
      "stateMutability": "view",
      "type": "function"
    }
  ],
  "bytecode": "0x60c06040523480156200001157600080fd5b5060405162003b8238038062003b82833981016040819052620000349162000318565b82828080620000433362000153565b6001600160a01b03166080525081620000b95760405162461bcd60e51b815260206004820152602d60248201527f4f4e46543732313a206d696e476173546f5472616e73666572416e6453746f7260448201526c065206d757374206265203e203609c1b60648201526084015b60405180910390fd5b50600655620000e56001600160a01b0382166380ac58cd60e01b620001a3602090811b62001acf17901c565b6200013e5760405162461bcd60e51b815260206004820152602260248201527f50726f78794f4e46543732313a20696e76616c69642045524337323120746f6b60448201526132b760f11b6064820152608401620000b0565b6001600160a01b031660a05250620003b19050565b600080546001600160a01b038381166001600160a01b0319831681178455604051919092169283917f8be0079c531659141344cd1fd0a4f28419497f9722a3daafe3b4186f6b6457e09190a35050565b6000620001b083620001cd565b8015620001c45750620001c4838362000205565b90505b92915050565b6000620001e2826301ffc9a760e01b62000205565b8015620001c75750620001fe826001600160e01b031962000205565b1592915050565b604080516001600160e01b0319831660248083019190915282518083039091018152604490910182526020810180516001600160e01b03166301ffc9a760e01b179052905160009190829081906001600160a01b03871690617530906200026e90869062000359565b6000604051808303818686fa925050503d8060008114620002ac576040519150601f19603f3d011682016040523d82523d6000602084013e620002b1565b606091505b5091509150602081511015620002ce5760009350505050620001c7565b818015620002f15750600081806020019051810190620002ef919062000397565b115b9695505050505050565b80516001600160a01b03811681146200031357600080fd5b919050565b6000806000606084860312156200032e57600080fd5b835192506200034060208501620002fb565b91506200035060408501620002fb565b90509250925092565b6000825160005b818110156200037c576020818601810151858301520162000360565b818111156200038c576000828501525b509190910192915050565b600060208284031215620003aa57600080fd5b5051919050565b60805160a0516137656200041d600039600081816108750152818161244a015261275d0152600081816106eb0152818161089a01528181610b1401528181610c2f01528181610da3015281816114be0152818161191901528181611a4f01526126b501526137656000f3fe6080604052600436106102455760003560e01c80638da5cb5b11610139578063c4461834116100b6578063eb8d72b71161007a578063eb8d72b7146107b6578063f2353641146107d6578063f2fde38b146107f6578063f5ecbdbc14610816578063fa25f9b614610836578063fc0c546a1461086357600080fd5b8063c44618341461072d578063cbed8b9c14610743578063d12473a514610763578063d1deba1f14610783578063df2a5b3b1461079657600080fd5b8063a6c3d165116100fd578063a6c3d1651461067e578063ab3ffb931461069e578063af3fb21c146106b1578063b353aaa7146106d9578063baf3292d1461070d57600080fd5b80638da5cb5b146105cc5780638ffa1f2a146105fe578063950c8a741461061e5780639ea5d6b11461063e5780639f38369a1461065e57600080fd5b80633f1f4fa4116101c75780635b8c41e61161018b5780635b8c41e6146104e357806366ad5c8a14610532578063715018a6146105525780637533d788146105675780638cfd8f5c1461059457600080fd5b80633f1f4fa41461043257806342d65a8d1461046d578063482881901461048d5780634ac3f4ff146104a357806351905636146104d057600080fd5b806310ddb1371161020e57806310ddb13714610301578063150b7a021461032157806322a3ecf91461035a5780632a205e3d146103dd5780633d8b38f61461041257600080fd5b80621d35671461024a57806301ffc9a71461026c57806307e0db17146102a15780630b4cad4c146102c15780630df37483146102e1575b600080fd5b34801561025657600080fd5b5061026a6102653660046129ff565b610897565b005b34801561027857600080fd5b5061028c610287366004612a92565b610ac8565b60405190151581526020015b60405180910390f35b3480156102ad57600080fd5b5061026a6102bc366004612abc565b610af3565b3480156102cd57600080fd5b5061026a6102dc366004612ad7565b610b7c565b3480156102ed57600080fd5b5061026a6102fc366004612af0565b610bef565b34801561030d57600080fd5b5061026a61031c366004612abc565b610c0e565b34801561032d57600080fd5b5061034161033c366004612bfd565b610c66565b6040516001600160e01b03199091168152602001610298565b34801561036657600080fd5b506103ae610375366004612ad7565b60096020526000908152604090208054600182015460029092015461ffff821692620100009092046001600160a01b0316919060ff1684565b6040805161ffff90951685526001600160a01b0390931660208501529183015215156060820152608001610298565b3480156103e957600080fd5b506103fd6103f8366004612c78565b610c92565b60408051928352602083019190915201610298565b34801561041e57600080fd5b5061028c61042d366004612d06565b610cb8565b34801561043e57600080fd5b5061045f61044d366004612abc565b60036020526000908152604090205481565b604051908152602001610298565b34801561047957600080fd5b5061026a610488366004612d06565b610d84565b34801561049957600080fd5b5061045f60065481565b3480156104af57600080fd5b5061045f6104be366004612abc565b60076020526000908152604090205481565b61026a6104de366004612d58565b610e0a565b3480156104ef57600080fd5b5061045f6104fe366004612e11565b6005602090815260009384526040808520845180860184018051928152908401958401959095209452929052825290205481565b34801561053e57600080fd5b5061026a61054d3660046129ff565b610e21565b34801561055e57600080fd5b5061026a610efd565b34801561057357600080fd5b50610587610582366004612abc565b610f11565b6040516102989190612ec6565b3480156105a057600080fd5b5061045f6105af366004612ed9565b600260209081526000928352604080842090915290825290205481565b3480156105d857600080fd5b506000546001600160a01b03165b6040516001600160a01b039091168152602001610298565b34801561060a57600080fd5b5061026a610619366004612f0c565b610fab565b34801561062a57600080fd5b506004546105e6906001600160a01b031681565b34801561064a57600080fd5b5061026a610659366004612af0565b6111fa565b34801561066a57600080fd5b50610587610679366004612abc565b61127d565b34801561068a57600080fd5b5061026a610699366004612d06565b611394565b61026a6106ac366004612fc9565b611434565b3480156106bd57600080fd5b506106c6600181565b60405161ffff9091168152602001610298565b3480156106e557600080fd5b506105e67f000000000000000000000000000000000000000000000000000000000000000081565b34801561071957600080fd5b5061026a61072836600461307e565b611443565b34801561073957600080fd5b5061045f61271081565b34801561074f57600080fd5b5061026a61075e36600461309b565b61149f565b34801561076f57600080fd5b5061026a61077e366004612af0565b611534565b61026a6107913660046129ff565b6115b8565b3480156107a257600080fd5b5061026a6107b1366004613109565b6117ce565b3480156107c257600080fd5b5061026a6107d1366004612d06565b611880565b3480156107e257600080fd5b506103fd6107f1366004613145565b6118da565b34801561080257600080fd5b5061026a61081136600461307e565b6119a5565b34801561082257600080fd5b506105876108313660046131be565b611a1e565b34801561084257600080fd5b5061045f610851366004612abc565b60086020526000908152604090205481565b34801561086f57600080fd5b506105e67f000000000000000000000000000000000000000000000000000000000000000081565b337f00000000000000000000000000000000000000000000000000000000000000006001600160a01b0316146109145760405162461bcd60e51b815260206004820152601e60248201527f4c7a4170703a20696e76616c696420656e64706f696e742063616c6c6572000060448201526064015b60405180910390fd5b61ffff8616600090815260016020526040812080546109329061320b565b80601f016020809104026020016040519081016040528092919081815260200182805461095e9061320b565b80156109ab5780601f10610980576101008083540402835291602001916109ab565b820191906000526020600020905b81548152906001019060200180831161098e57829003601f168201915b505050505090508051868690501480156109c6575060008151115b80156109ee5750805160208201206040516109e49088908890613246565b6040518091039020145b610a495760405162461bcd60e51b815260206004820152602660248201527f4c7a4170703a20696e76616c696420736f757263652073656e64696e6720636f6044820152651b9d1c9858dd60d21b606482015260840161090b565b610abf8787878080601f01602080910402602001604051908101604052809392919081815260200183838082843760009201919091525050604080516020601f8a018190048102820181019092528881528a935091508890889081908401838280828437600092019190915250611aeb92505050565b50505050505050565b60006001600160e01b03198216630a85bd0160e11b1480610aed5750610aed82611b64565b92915050565b610afb611b99565b6040516307e0db1760e01b815261ffff821660048201527f00000000000000000000000000000000000000000000000000000000000000006001600160a01b0316906307e0db17906024015b600060405180830381600087803b158015610b6157600080fd5b505af1158015610b75573d6000803e3d6000fd5b5050505050565b610b84611b99565b60008111610bea5760405162461bcd60e51b815260206004820152602d60248201527f4f4e46543732313a206d696e476173546f5472616e73666572416e6453746f7260448201526c065206d757374206265203e203609c1b606482015260840161090b565b600655565b610bf7611b99565b61ffff909116600090815260036020526040902055565b610c16611b99565b6040516310ddb13760e01b815261ffff821660048201527f00000000000000000000000000000000000000000000000000000000000000006001600160a01b0316906310ddb13790602401610b47565b60006001600160a01b0385163014610c8057506000610c8a565b50630a85bd0160e11b5b949350505050565b600080610caa8787610ca388611bf3565b87876118da565b915091509550959350505050565b61ffff831660009081526001602052604081208054829190610cd99061320b565b80601f0160208091040260200160405190810160405280929190818152602001828054610d059061320b565b8015610d525780601f10610d2757610100808354040283529160200191610d52565b820191906000526020600020905b815481529060010190602001808311610d3557829003601f168201915b505050505090508383604051610d69929190613246565b60405180910390208180519060200120149150509392505050565b610d8c611b99565b6040516342d65a8d60e01b81526001600160a01b037f000000000000000000000000000000000000000000000000000000000000000016906342d65a8d90610ddc9086908690869060040161327f565b600060405180830381600087803b158015610df657600080fd5b505af1158015610abf573d6000803e3d6000fd5b610abf878787610e1988611bf3565b878787611c3e565b333014610e7f5760405162461bcd60e51b815260206004820152602660248201527f4e6f6e626c6f636b696e674c7a4170703a2063616c6c6572206d7573742062656044820152650204c7a4170760d41b606482015260840161090b565b610ef58686868080601f01602080910402602001604051908101604052809392919081815260200183838082843760009201919091525050604080516020601f890181900481028201810190925287815289935091508790879081908401838280828437600092019190915250611e2592505050565b505050505050565b610f05611b99565b610f0f6000611f7c565b565b60016020526000908152604090208054610f2a9061320b565b80601f0160208091040260200160405190810160405280929190818152602001828054610f569061320b565b8015610fa35780601f10610f7857610100808354040283529160200191610fa3565b820191906000526020600020905b815481529060010190602001808311610f8657829003601f168201915b505050505081565b80516020808301919091206000818152600990925260409091206002015460ff166110185760405162461bcd60e51b815260206004820152601a60248201527f4f4e46543732313a206e6f20637265646974732073746f726564000000000000604482015260640161090b565b60008280602001905181019061102e91906132e2565b6000848152600960205260408120805460019091015492945090925061106a9161ffff8216916201000090046001600160a01b03169085611fcc565b60008481526009602052604090206001015490915081116110e85760405162461bcd60e51b815260206004820152603260248201527f4f4e46543732313a206e6f7420656e6f7567682067617320746f2070726f636560448201527139b99031b932b234ba103a3930b739b332b960711b606482015260840161090b565b81518114156111605760008381526009602052604080822080546001600160b01b031916815560018101929092556002909101805460ff19169055517fd7be02b8dd0d27bd0517a9cb4d7469ce27df4313821ae5ec1ff69acc594ba233906111539085815260200190565b60405180910390a16111f4565b60408051608081018252600085815260096020818152848320805461ffff80821687526001600160a01b03620100008084048216868a019081529989018b8152600160608b01818152998f90529790965297519851169096026001600160b01b03199091169690951695909517939093178455915191830191909155516002909101805491151560ff199092169190911790555b50505050565b611202611b99565b600081116112665760405162461bcd60e51b815260206004820152602b60248201527f4f4e46543732313a20647374436861696e4964546f42617463684c696d69742060448201526a06d757374206265203e20360ac1b606482015260840161090b565b61ffff909116600090815260076020526040902055565b61ffff81166000908152600160205260408120805460609291906112a09061320b565b80601f01602080910402602001604051908101604052809291908181526020018280546112cc9061320b565b80156113195780601f106112ee57610100808354040283529160200191611319565b820191906000526020600020905b8154815290600101906020018083116112fc57829003601f168201915b505050505090508051600014156113725760405162461bcd60e51b815260206004820152601d60248201527f4c7a4170703a206e6f20747275737465642070617468207265636f7264000000604482015260640161090b565b61138d60006014835161138591906133b2565b83919061201e565b9392505050565b61139c611b99565b8181306040516020016113b1939291906133c9565b60408051601f1981840301815291815261ffff851660009081526001602090815291902082516113e69391929091019061287c565b506113f48361ffff1661212b565b7f8c0400cfe2d1199b1a725c78960bcc2a344d869b80590d0f2bd005db15a572ce8383836040516114279392919061327f565b60405180910390a1505050565b610abf87878787878787611c3e565b61144b611b99565b600480546001600160a01b0319166001600160a01b0383169081179091556040519081527f5db758e995a17ec1ad84bdef7e8c3293a0bd6179bcce400dff5d4c3d87db726b9060200160405180910390a150565b6114a7611b99565b6040516332fb62e760e21b81526001600160a01b037f0000000000000000000000000000000000000000000000000000000000000000169063cbed8b9c906114fb90889088908890889088906004016133ef565b600060405180830381600087803b15801561151557600080fd5b505af1158015611529573d6000803e3d6000fd5b505050505050505050565b61153c611b99565b600081116115a15760405162461bcd60e51b815260206004820152602c60248201527f4f4e46543732313a20647374436861696e4964546f5472616e7366657247617360448201526b0206d757374206265203e20360a41b606482015260840161090b565b61ffff909116600090815260086020526040902055565b61ffff861660009081526005602052604080822090516115db9088908890613246565b90815260408051602092819003830190206001600160401b0387166000908152925290205490508061165b5760405162461bcd60e51b815260206004820152602360248201527f4e6f6e626c6f636b696e674c7a4170703a206e6f2073746f726564206d65737360448201526261676560e81b606482015260840161090b565b80838360405161166c929190613246565b6040518091039020146116cb5760405162461bcd60e51b815260206004820152602160248201527f4e6f6e626c6f636b696e674c7a4170703a20696e76616c6964207061796c6f616044820152601960fa1b606482015260840161090b565b61ffff871660009081526005602052604080822090516116ee9089908990613246565b90815260408051602092819003830181206001600160401b038916600090815290845282902093909355601f88018290048202830182019052868252611786918991899089908190840183828082843760009201919091525050604080516020601f8a018190048102820181019092528881528a935091508890889081908401838280828437600092019190915250611e2592505050565b7fc264d91f3adc5588250e1551f547752ca0cfa8f6b530d243b9f9f4cab10ea8e587878787856040516117bd959493929190613428565b60405180910390a150505050505050565b6117d6611b99565b6000811161181e5760405162461bcd60e51b81526020600482015260156024820152744c7a4170703a20696e76616c6964206d696e47617360581b604482015260640161090b565b61ffff83811660008181526002602090815260408083209487168084529482529182902085905581519283528201929092529081018290527f9d5c7c0b934da8fefa9c7760c98383778a12dfbfc0c3b3106518f43fb9508ac090606001611427565b611888611b99565b61ffff831660009081526001602052604090206118a6908383612900565b507ffa41487ad5d6728f0b19276fa1eddc16558578f5109fc39d2dc33c3230470dab8383836040516114279392919061327f565b600080600086866040516020016118f292919061349e565b60408051601f198184030181529082905263040a7bb160e41b825291506001600160a01b037f000000000000000000000000000000000000000000000000000000000000000016906340a7bb1090611956908b90309086908b908b906004016134c3565b6040805180830381865afa158015611972573d6000803e3d6000fd5b505050506040513d601f19601f820116820180604052508101906119969190613517565b92509250509550959350505050565b6119ad611b99565b6001600160a01b038116611a125760405162461bcd60e51b815260206004820152602660248201527f4f776e61626c653a206e6577206f776e657220697320746865207a65726f206160448201526564647265737360d01b606482015260840161090b565b611a1b81611f7c565b50565b604051633d7b2f6f60e21b815261ffff808616600483015284166024820152306044820152606481018290526060907f00000000000000000000000000000000000000000000000000000000000000006001600160a01b03169063f5ecbdbc90608401600060405180830381865afa158015611a9e573d6000803e3d6000fd5b505050506040513d6000823e601f3d908101601f19168201604052611ac6919081019061353b565b95945050505050565b6000611ada83612170565b801561138d575061138d83836121a3565b600080611b4e5a60966366ad5c8a60e01b89898989604051602401611b13949392919061356f565b60408051601f198184030181529190526020810180516001600160e01b03166001600160e01b03199093169290921790915230929190612290565b9150915081610ef557610ef5868686868561231a565b60006001600160e01b031982166322bac5d960e01b1480610aed57506301ffc9a760e01b6001600160e01b0319831614610aed565b6000546001600160a01b03163314610f0f5760405162461bcd60e51b815260206004820181905260248201527f4f776e61626c653a2063616c6c6572206973206e6f7420746865206f776e6572604482015260640161090b565b60408051600180825281830190925260609160009190602080830190803683370190505090508281600081518110611c2d57611c2d6135ad565b602090810291909101015292915050565b6000845111611c8f5760405162461bcd60e51b815260206004820152601a60248201527f4c7a4170703a20746f6b656e4964735b5d20697320656d707479000000000000604482015260640161090b565b835160011480611cb3575061ffff8616600090815260076020526040902054845111155b611d135760405162461bcd60e51b815260206004820152602b60248201527f4f4e46543732313a2062617463682073697a652065786365656473206473742060448201526a18985d18da081b1a5b5a5d60aa1b606482015260840161090b565b60005b8451811015611d5657611d44888888888581518110611d3757611d376135ad565b60200260200101516123b7565b80611d4e816135c3565b915050611d16565b5060008585604051602001611d6c92919061349e565b6040516020818303038152906040529050611db1876001848851600860008d61ffff1661ffff16815260200190815260200160002054611dac91906135de565b6124ac565b611dbf87828686863461258b565b85604051611dcd91906135fd565b6040518091039020886001600160a01b03168861ffff167fe1b87c47fdeb4f9cbadbca9df3af7aba453bb6e501075d0440d88125b711522a88604051611e139190613619565b60405180910390a45050505050505050565b60008082806020019051810190611e3c91906132e2565b601482015191935091506000611e5488838386611fcc565b90508251811015611f285784516020808701919091206040805160808101825261ffff808d1682526001600160a01b0380881683870190815283850188815260016060860181815260008981526009909a529887902095518654935190941662010000026001600160b01b03199093169390941692909217178355519082015592516002909301805493151560ff199094169390931790925590517f10e0b70d256bccc84b7027506978bd8b68984a870788b93b479def144c839ad790611f1e908390899061362c565b60405180910390a1505b816001600160a01b031687604051611f4091906135fd565b60405180910390208961ffff167f5b821db8a46f8ecbe1941ba2f51cfeea9643268b56631f70d45e2a745d99026586604051611e139190613619565b600080546001600160a01b038381166001600160a01b0319831681178455604051919092169283917f8be0079c531659141344cd1fd0a4f28419497f9722a3daafe3b4186f6b6457e09190a35050565b6000825b8251811015611ac6576006545a1015611fe857611ac6565b61200c8686858481518110611fff57611fff6135ad565b6020026020010151612731565b80612016816135c3565b915050611fd0565b60608161202c81601f613645565b101561206b5760405162461bcd60e51b815260206004820152600e60248201526d736c6963655f6f766572666c6f7760901b604482015260640161090b565b6120758284613645565b845110156120b95760405162461bcd60e51b8152602060048201526011602482015270736c6963655f6f75744f66426f756e647360781b604482015260640161090b565b6060821580156120d85760405191506000825260208201604052612122565b6040519150601f8416801560200281840101858101878315602002848b0101015b818310156121115780518352602092830192016120f9565b5050858452601f01601f1916604052505b50949350505050565b611a1b8160405160240161214191815260200190565b60408051601f198184030181529190526020810180516001600160e01b031663f82c50f160e01b17905261278c565b6000612183826301ffc9a760e01b6121a3565b8015610aed575061219c826001600160e01b03196121a3565b1592915050565b604080516001600160e01b0319831660248083019190915282518083039091018152604490910182526020810180516001600160e01b03166301ffc9a760e01b179052905160009190829081906001600160a01b038716906175309061220a9086906135fd565b6000604051808303818686fa925050503d8060008114612246576040519150601f19603f3d011682016040523d82523d6000602084013e61224b565b606091505b50915091506020815110156122665760009350505050610aed565b8180156122865750600081806020019051810190612284919061365d565b115b9695505050505050565b6000606060008060008661ffff166001600160401b038111156122b5576122b5612b3a565b6040519080825280601f01601f1916602001820160405280156122df576020820181803683370190505b50905060008087516020890160008d8df191503d925086831115612301578692505b828152826000602083013e909890975095505050505050565b8180519060200120600560008761ffff1661ffff1681526020019081526020016000208560405161234b91906135fd565b9081526040805191829003602090810183206001600160401b0388166000908152915220919091557fe183f33de2837795525b4792ca4cd60535bd77c53b7e7030060bfcf5734d6b0c906123a89087908790879087908790613676565b60405180910390a15050505050565b6001600160a01b038416331461241e5760405162461bcd60e51b815260206004820152602660248201527f50726f78794f4e46543732313a206f776e6572206973206e6f742073656e642060448201526531b0b63632b960d11b606482015260840161090b565b604051632142170760e11b81526001600160a01b038581166004830152306024830152604482018390527f000000000000000000000000000000000000000000000000000000000000000016906342842e0e90606401600060405180830381600087803b15801561248e57600080fd5b505af11580156124a2573d6000803e3d6000fd5b5050505050505050565b60006124b7836127ad565b61ffff8087166000908152600260209081526040808320938916835292905290812054919250906124e9908490613645565b90506000811161253b5760405162461bcd60e51b815260206004820152601a60248201527f4c7a4170703a206d696e4761734c696d6974206e6f7420736574000000000000604482015260640161090b565b80821015610ef55760405162461bcd60e51b815260206004820152601b60248201527f4c7a4170703a20676173206c696d697420697320746f6f206c6f770000000000604482015260640161090b565b61ffff8616600090815260016020526040812080546125a99061320b565b80601f01602080910402602001604051908101604052809291908181526020018280546125d59061320b565b80156126225780601f106125f757610100808354040283529160200191612622565b820191906000526020600020905b81548152906001019060200180831161260557829003601f168201915b505050505090508051600014156126945760405162461bcd60e51b815260206004820152603060248201527f4c7a4170703a2064657374696e6174696f6e20636861696e206973206e6f742060448201526f61207472757374656420736f7572636560801b606482015260840161090b565b61269f878751612809565b60405162c5803160e81b81526001600160a01b037f0000000000000000000000000000000000000000000000000000000000000000169063c58031009084906126f6908b9086908c908c908c908c906004016136c8565b6000604051808303818588803b15801561270f57600080fd5b505af1158015612723573d6000803e3d6000fd5b505050505050505050505050565b604051632142170760e11b81523060048201526001600160a01b038381166024830152604482018390527f000000000000000000000000000000000000000000000000000000000000000016906342842e0e90606401610ddc565b80516a636f6e736f6c652e6c6f67602083016000808483855afa5050505050565b60006022825110156128015760405162461bcd60e51b815260206004820152601c60248201527f4c7a4170703a20696e76616c69642061646170746572506172616d7300000000604482015260640161090b565b506022015190565b61ffff82166000908152600360205260409020548061282757506127105b808211156128775760405162461bcd60e51b815260206004820181905260248201527f4c7a4170703a207061796c6f61642073697a6520697320746f6f206c61726765604482015260640161090b565b505050565b8280546128889061320b565b90600052602060002090601f0160209004810192826128aa57600085556128f0565b82601f106128c357805160ff19168380011785556128f0565b828001600101855582156128f0579182015b828111156128f05782518255916020019190600101906128d5565b506128fc929150612974565b5090565b82805461290c9061320b565b90600052602060002090601f01602090048101928261292e57600085556128f0565b82601f106129475782800160ff198235161785556128f0565b828001600101855582156128f0579182015b828111156128f0578235825591602001919060010190612959565b5b808211156128fc5760008155600101612975565b803561ffff8116811461299b57600080fd5b919050565b60008083601f8401126129b257600080fd5b5081356001600160401b038111156129c957600080fd5b6020830191508360208285010111156129e157600080fd5b9250929050565b80356001600160401b038116811461299b57600080fd5b60008060008060008060808789031215612a1857600080fd5b612a2187612989565b955060208701356001600160401b0380821115612a3d57600080fd5b612a498a838b016129a0565b9097509550859150612a5d60408a016129e8565b94506060890135915080821115612a7357600080fd5b50612a8089828a016129a0565b979a9699509497509295939492505050565b600060208284031215612aa457600080fd5b81356001600160e01b03198116811461138d57600080fd5b600060208284031215612ace57600080fd5b61138d82612989565b600060208284031215612ae957600080fd5b5035919050565b60008060408385031215612b0357600080fd5b612b0c83612989565b946020939093013593505050565b6001600160a01b0381168114611a1b57600080fd5b803561299b81612b1a565b634e487b7160e01b600052604160045260246000fd5b604051601f8201601f191681016001600160401b0381118282101715612b7857612b78612b3a565b604052919050565b60006001600160401b03821115612b9957612b99612b3a565b50601f01601f191660200190565b600082601f830112612bb857600080fd5b8135612bcb612bc682612b80565b612b50565b818152846020838601011115612be057600080fd5b816020850160208301376000918101602001919091529392505050565b60008060008060808587031215612c1357600080fd5b8435612c1e81612b1a565b93506020850135612c2e81612b1a565b92506040850135915060608501356001600160401b03811115612c5057600080fd5b612c5c87828801612ba7565b91505092959194509250565b8035801515811461299b57600080fd5b600080600080600060a08688031215612c9057600080fd5b612c9986612989565b945060208601356001600160401b0380821115612cb557600080fd5b612cc189838a01612ba7565b955060408801359450612cd660608901612c68565b93506080880135915080821115612cec57600080fd5b50612cf988828901612ba7565b9150509295509295909350565b600080600060408486031215612d1b57600080fd5b612d2484612989565b925060208401356001600160401b03811115612d3f57600080fd5b612d4b868287016129a0565b9497909650939450505050565b600080600080600080600060e0888a031215612d7357600080fd5b8735612d7e81612b1a565b9650612d8c60208901612989565b955060408801356001600160401b0380821115612da857600080fd5b612db48b838c01612ba7565b965060608a0135955060808a01359150612dcd82612b1a565b90935060a089013590612ddf82612b1a565b90925060c08901359080821115612df557600080fd5b50612e028a828b01612ba7565b91505092959891949750929550565b600080600060608486031215612e2657600080fd5b612e2f84612989565b925060208401356001600160401b03811115612e4a57600080fd5b612e5686828701612ba7565b925050612e65604085016129e8565b90509250925092565b60005b83811015612e89578181015183820152602001612e71565b838111156111f45750506000910152565b60008151808452612eb2816020860160208601612e6e565b601f01601f19169290920160200192915050565b60208152600061138d6020830184612e9a565b60008060408385031215612eec57600080fd5b612ef583612989565b9150612f0360208401612989565b90509250929050565b600060208284031215612f1e57600080fd5b81356001600160401b03811115612f3457600080fd5b610c8a84828501612ba7565b60006001600160401b03821115612f5957612f59612b3a565b5060051b60200190565b600082601f830112612f7457600080fd5b81356020612f84612bc683612f40565b82815260059290921b84018101918181019086841115612fa357600080fd5b8286015b84811015612fbe5780358352918301918301612fa7565b509695505050505050565b600080600080600080600060e0888a031215612fe457600080fd5b8735612fef81612b1a565b9650612ffd60208901612989565b955060408801356001600160401b038082111561301957600080fd5b6130258b838c01612ba7565b965060608a013591508082111561303b57600080fd5b6130478b838c01612f63565b955060808a0135915061305982612b1a565b81945061306860a08b01612b2f565b935060c08a0135915080821115612df557600080fd5b60006020828403121561309057600080fd5b813561138d81612b1a565b6000806000806000608086880312156130b357600080fd5b6130bc86612989565b94506130ca60208701612989565b93506040860135925060608601356001600160401b038111156130ec57600080fd5b6130f8888289016129a0565b969995985093965092949392505050565b60008060006060848603121561311e57600080fd5b61312784612989565b925061313560208501612989565b9150604084013590509250925092565b600080600080600060a0868803121561315d57600080fd5b61316686612989565b945060208601356001600160401b038082111561318257600080fd5b61318e89838a01612ba7565b955060408801359150808211156131a457600080fd5b6131b089838a01612f63565b9450612cd660608901612c68565b600080600080608085870312156131d457600080fd5b6131dd85612989565b93506131eb60208601612989565b925060408501356131fb81612b1a565b9396929550929360600135925050565b600181811c9082168061321f57607f821691505b6020821081141561324057634e487b7160e01b600052602260045260246000fd5b50919050565b8183823760009101908152919050565b81835281816020850137506000828201602090810191909152601f909101601f19169091010190565b61ffff84168152604060208201526000611ac6604083018486613256565b600082601f8301126132ae57600080fd5b81516132bc612bc682612b80565b8181528460208386010111156132d157600080fd5b610c8a826020830160208701612e6e565b600080604083850312156132f557600080fd5b82516001600160401b038082111561330c57600080fd5b6133188683870161329d565b935060209150818501518181111561332f57600080fd5b85019050601f8101861361334257600080fd5b8051613350612bc682612f40565b81815260059190911b8201830190838101908883111561336f57600080fd5b928401925b8284101561338d57835182529284019290840190613374565b80955050505050509250929050565b634e487b7160e01b600052601160045260246000fd5b6000828210156133c4576133c461339c565b500390565b8284823760609190911b6bffffffffffffffffffffffff19169101908152601401919050565b600061ffff80881683528087166020840152508460408301526080606083015261341d608083018486613256565b979650505050505050565b61ffff86168152608060208201526000613446608083018688613256565b6001600160401b0394909416604083015250606001529392505050565b600081518084526020808501945080840160005b8381101561349357815187529582019590820190600101613477565b509495945050505050565b6040815260006134b16040830185612e9a565b8281036020840152611ac68185613463565b61ffff861681526001600160a01b038516602082015260a0604082018190526000906134f190830186612e9a565b8415156060840152828103608084015261350b8185612e9a565b98975050505050505050565b6000806040838503121561352a57600080fd5b505080516020909101519092909150565b60006020828403121561354d57600080fd5b81516001600160401b0381111561356357600080fd5b610c8a8482850161329d565b61ffff8516815260806020820152600061358c6080830186612e9a565b6001600160401b0385166040840152828103606084015261341d8185612e9a565b634e487b7160e01b600052603260045260246000fd5b60006000198214156135d7576135d761339c565b5060010190565b60008160001904831182151516156135f8576135f861339c565b500290565b6000825161360f818460208701612e6e565b9190910192915050565b60208152600061138d6020830184613463565b828152604060208201526000610c8a6040830184612e9a565b600082198211156136585761365861339c565b500190565b60006020828403121561366f57600080fd5b5051919050565b61ffff8616815260a06020820152600061369360a0830187612e9a565b6001600160401b038616604084015282810360608401526136b48186612e9a565b9050828103608084015261350b8185612e9a565b61ffff8716815260c0602082015260006136e560c0830188612e9a565b82810360408401526136f78188612e9a565b6001600160a01b0387811660608601528616608085015283810360a085015290506137228185612e9a565b999850505050505050505056fea26469706673582212201ad32b3787ff4f1f05f3bd5798002da7a85d7afa00bd55c3d2c24b40fecd013864736f6c634300080c0033",
  "linkReferences": {},
  "deployedLinkReferences": {}
}