{
  "_format": "hh-sol-artifact-1",
  "contractName": "MozaicLP",
  "sourceName": "contracts/mContracts/MozaicLP.sol",
  "abi": [
    {
      "inputs": [
        {
          "internalType": "address",
          "name": "_layerZeroEndpoint",
          "type": "address"
        }
      ],
      "stateMutability": "nonpayable",
      "type": "constructor"
    },
    {
      "anonymous": false,
      "inputs": [
        {
          "indexed": true,
          "internalType": "address",
          "name": "owner",
          "type": "address"
        },
        {
          "indexed": true,
          "internalType": "address",
          "name": "spender",
          "type": "address"
        },
        {
          "indexed": false,
          "internalType": "uint256",
          "name": "value",
          "type": "uint256"
        }
      ],
      "name": "Approval",
      "type": "event"
    },
    {
      "anonymous": false,
      "inputs": [
        {
          "indexed": true,
          "internalType": "uint16",
          "name": "_srcChainId",
          "type": "uint16"
        },
        {
          "indexed": false,
          "internalType": "bytes",
          "name": "_srcAddress",
          "type": "bytes"
        },
        {
          "indexed": false,
          "internalType": "uint64",
          "name": "_nonce",
          "type": "uint64"
        },
        {
          "indexed": false,
          "internalType": "bytes",
          "name": "_from",
          "type": "bytes"
        },
        {
          "indexed": true,
          "internalType": "address",
          "name": "_to",
          "type": "address"
        },
        {
          "indexed": false,
          "internalType": "uint256",
          "name": "_amount",
          "type": "uint256"
        },
        {
          "indexed": false,
          "internalType": "bytes",
          "name": "_payload",
          "type": "bytes"
        },
        {
          "indexed": false,
          "internalType": "bytes",
          "name": "_reason",
          "type": "bytes"
        }
      ],
      "name": "CallOFTReceivedFailure",
      "type": "event"
    },
    {
      "anonymous": false,
      "inputs": [
        {
          "indexed": true,
          "internalType": "uint16",
          "name": "_srcChainId",
          "type": "uint16"
        },
        {
          "indexed": false,
          "internalType": "bytes",
          "name": "_srcAddress",
          "type": "bytes"
        },
        {
          "indexed": false,
          "internalType": "uint64",
          "name": "_nonce",
          "type": "uint64"
        },
        {
          "indexed": false,
          "internalType": "bytes32",
          "name": "_hash",
          "type": "bytes32"
        }
      ],
      "name": "CallOFTReceivedSuccess",
      "type": "event"
    },
    {
      "anonymous": false,
      "inputs": [
        {
          "indexed": false,
          "internalType": "uint16",
          "name": "_srcChainId",
          "type": "uint16"
        },
        {
          "indexed": false,
          "internalType": "bytes",
          "name": "_srcAddress",
          "type": "bytes"
        },
        {
          "indexed": false,
          "internalType": "uint64",
          "name": "_nonce",
          "type": "uint64"
        },
        {
          "indexed": false,
          "internalType": "bytes",
          "name": "_payload",
          "type": "bytes"
        },
        {
          "indexed": false,
          "internalType": "bytes",
          "name": "_reason",
          "type": "bytes"
        }
      ],
      "name": "MessageFailed",
      "type": "event"
    },
    {
      "anonymous": false,
      "inputs": [
        {
          "indexed": false,
          "internalType": "address",
          "name": "_address",
          "type": "address"
        }
      ],
      "name": "NonContractAddress",
      "type": "event"
    },
    {
      "anonymous": false,
      "inputs": [
        {
          "indexed": true,
          "internalType": "address",
          "name": "previousOwner",
          "type": "address"
        },
        {
          "indexed": true,
          "internalType": "address",
          "name": "newOwner",
          "type": "address"
        }
      ],
      "name": "OwnershipTransferred",
      "type": "event"
    },
    {
      "anonymous": false,
      "inputs": [
        {
          "indexed": true,
          "internalType": "uint16",
          "name": "_srcChainId",
          "type": "uint16"
        },
        {
          "indexed": true,
          "internalType": "address",
          "name": "_to",
          "type": "address"
        },
        {
          "indexed": false,
          "internalType": "uint256",
          "name": "_amount",
          "type": "uint256"
        }
      ],
      "name": "ReceiveFromChain",
      "type": "event"
    },
    {
      "anonymous": false,
      "inputs": [
        {
          "indexed": false,
          "internalType": "uint16",
          "name": "_srcChainId",
          "type": "uint16"
        },
        {
          "indexed": false,
          "internalType": "bytes",
          "name": "_srcAddress",
          "type": "bytes"
        },
        {
          "indexed": false,
          "internalType": "uint64",
          "name": "_nonce",
          "type": "uint64"
        },
        {
          "indexed": false,
          "internalType": "bytes32",
          "name": "_payloadHash",
          "type": "bytes32"
        }
      ],
      "name": "RetryMessageSuccess",
      "type": "event"
    },
    {
      "anonymous": false,
      "inputs": [
        {
          "indexed": false,
          "internalType": "bytes32",
          "name": "_messageHash",
          "type": "bytes32"
        }
      ],
      "name": "RetryOFTReceivedSuccess",
      "type": "event"
    },
    {
      "anonymous": false,
      "inputs": [
        {
          "indexed": true,
          "internalType": "uint16",
          "name": "_dstChainId",
          "type": "uint16"
        },
        {
          "indexed": true,
          "internalType": "address",
          "name": "_from",
          "type": "address"
        },
        {
          "indexed": false,
          "internalType": "bytes",
          "name": "_toAddress",
          "type": "bytes"
        },
        {
          "indexed": false,
          "internalType": "uint256",
          "name": "_amount",
          "type": "uint256"
        }
      ],
      "name": "SendToChain",
      "type": "event"
    },
    {
      "anonymous": false,
      "inputs": [
        {
          "indexed": false,
          "internalType": "uint16",
          "name": "_dstChainId",
          "type": "uint16"
        },
        {
          "indexed": false,
          "internalType": "uint16",
          "name": "_type",
          "type": "uint16"
        },
        {
          "indexed": false,
          "internalType": "uint256",
          "name": "_minDstGas",
          "type": "uint256"
        }
      ],
      "name": "SetMinDstGas",
      "type": "event"
    },
    {
      "anonymous": false,
      "inputs": [
        {
          "indexed": false,
          "internalType": "address",
          "name": "precrime",
          "type": "address"
        }
      ],
      "name": "SetPrecrime",
      "type": "event"
    },
    {
      "anonymous": false,
      "inputs": [
        {
          "indexed": false,
          "internalType": "uint16",
          "name": "_remoteChainId",
          "type": "uint16"
        },
        {
          "indexed": false,
          "internalType": "bytes",
          "name": "_path",
          "type": "bytes"
        }
      ],
      "name": "SetTrustedRemote",
      "type": "event"
    },
    {
      "anonymous": false,
      "inputs": [
        {
          "indexed": false,
          "internalType": "uint16",
          "name": "_remoteChainId",
          "type": "uint16"
        },
        {
          "indexed": false,
          "internalType": "bytes",
          "name": "_remoteAddress",
          "type": "bytes"
        }
      ],
      "name": "SetTrustedRemoteAddress",
      "type": "event"
    },
    {
      "anonymous": false,
      "inputs": [
        {
          "indexed": false,
          "internalType": "bool",
          "name": "_useCustomAdapterParams",
          "type": "bool"
        }
      ],
      "name": "SetUseCustomAdapterParams",
      "type": "event"
    },
    {
      "anonymous": false,
      "inputs": [
        {
          "indexed": true,
          "internalType": "address",
          "name": "from",
          "type": "address"
        },
        {
          "indexed": true,
          "internalType": "address",
          "name": "to",
          "type": "address"
        },
        {
          "indexed": false,
          "internalType": "uint256",
          "name": "value",
          "type": "uint256"
        }
      ],
      "name": "Transfer",
      "type": "event"
    },
    {
      "inputs": [],
      "name": "DEFAULT_PAYLOAD_SIZE_LIMIT",
      "outputs": [
        {
          "internalType": "uint256",
          "name": "",
          "type": "uint256"
        }
      ],
      "stateMutability": "view",
      "type": "function"
    },
    {
      "inputs": [],
      "name": "NO_EXTRA_GAS",
      "outputs": [
        {
          "internalType": "uint256",
          "name": "",
          "type": "uint256"
        }
      ],
      "stateMutability": "view",
      "type": "function"
    },
    {
      "inputs": [],
      "name": "PT_SEND",
      "outputs": [
        {
          "internalType": "uint16",
          "name": "",
          "type": "uint16"
        }
      ],
      "stateMutability": "view",
      "type": "function"
    },
    {
      "inputs": [],
      "name": "PT_SEND_AND_CALL",
      "outputs": [
        {
          "internalType": "uint16",
          "name": "",
          "type": "uint16"
        }
      ],
      "stateMutability": "view",
      "type": "function"
    },
    {
      "inputs": [
        {
          "internalType": "address",
          "name": "owner",
          "type": "address"
        },
        {
          "internalType": "address",
          "name": "spender",
          "type": "address"
        }
      ],
      "name": "allowance",
      "outputs": [
        {
          "internalType": "uint256",
          "name": "",
          "type": "uint256"
        }
      ],
      "stateMutability": "view",
      "type": "function"
    },
    {
      "inputs": [
        {
          "internalType": "address",
          "name": "spender",
          "type": "address"
        },
        {
          "internalType": "uint256",
          "name": "amount",
          "type": "uint256"
        }
      ],
      "name": "approve",
      "outputs": [
        {
          "internalType": "bool",
          "name": "",
          "type": "bool"
        }
      ],
      "stateMutability": "nonpayable",
      "type": "function"
    },
    {
      "inputs": [
        {
          "internalType": "address",
          "name": "account",
          "type": "address"
        }
      ],
      "name": "balanceOf",
      "outputs": [
        {
          "internalType": "uint256",
          "name": "",
          "type": "uint256"
        }
      ],
      "stateMutability": "view",
      "type": "function"
    },
    {
      "inputs": [],
      "name": "circulatingSupply",
      "outputs": [
        {
          "internalType": "uint256",
          "name": "",
          "type": "uint256"
        }
      ],
      "stateMutability": "view",
      "type": "function"
    },
    {
      "inputs": [],
      "name": "decimals",
      "outputs": [
        {
          "internalType": "uint8",
          "name": "",
          "type": "uint8"
        }
      ],
      "stateMutability": "view",
      "type": "function"
    },
    {
      "inputs": [
        {
          "internalType": "address",
          "name": "spender",
          "type": "address"
        },
        {
          "internalType": "uint256",
          "name": "subtractedValue",
          "type": "uint256"
        }
      ],
      "name": "decreaseAllowance",
      "outputs": [
        {
          "internalType": "bool",
          "name": "",
          "type": "bool"
        }
      ],
      "stateMutability": "nonpayable",
      "type": "function"
    },
    {
      "inputs": [
        {
          "internalType": "uint16",
          "name": "_dstChainId",
          "type": "uint16"
        },
        {
          "internalType": "bytes",
          "name": "_toAddress",
          "type": "bytes"
        },
        {
          "internalType": "uint256",
          "name": "_amount",
          "type": "uint256"
        },
        {
          "internalType": "bytes",
          "name": "_payload",
          "type": "bytes"
        },
        {
          "internalType": "uint64",
          "name": "_dstGasForCall",
          "type": "uint64"
        },
        {
          "internalType": "bool",
          "name": "_useZro",
          "type": "bool"
        },
        {
          "internalType": "bytes",
          "name": "_adapterParams",
          "type": "bytes"
        }
      ],
      "name": "estimateSendAndCallFee",
      "outputs": [
        {
          "internalType": "uint256",
          "name": "nativeFee",
          "type": "uint256"
        },
        {
          "internalType": "uint256",
          "name": "zroFee",
          "type": "uint256"
        }
      ],
      "stateMutability": "view",
      "type": "function"
    },
    {
      "inputs": [
        {
          "internalType": "uint16",
          "name": "_dstChainId",
          "type": "uint16"
        },
        {
          "internalType": "bytes",
          "name": "_toAddress",
          "type": "bytes"
        },
        {
          "internalType": "uint256",
          "name": "_amount",
          "type": "uint256"
        },
        {
          "internalType": "bool",
          "name": "_useZro",
          "type": "bool"
        },
        {
          "internalType": "bytes",
          "name": "_adapterParams",
          "type": "bytes"
        }
      ],
      "name": "estimateSendFee",
      "outputs": [
        {
          "internalType": "uint256",
          "name": "nativeFee",
          "type": "uint256"
        },
        {
          "internalType": "uint256",
          "name": "zroFee",
          "type": "uint256"
        }
      ],
      "stateMutability": "view",
      "type": "function"
    },
    {
      "inputs": [
        {
          "internalType": "uint16",
          "name": "",
          "type": "uint16"
        },
        {
          "internalType": "bytes",
          "name": "",
          "type": "bytes"
        },
        {
          "internalType": "uint64",
          "name": "",
          "type": "uint64"
        }
      ],
      "name": "failedMessages",
      "outputs": [
        {
          "internalType": "bytes32",
          "name": "",
          "type": "bytes32"
        }
      ],
      "stateMutability": "view",
      "type": "function"
    },
    {
      "inputs": [
        {
          "internalType": "uint16",
          "name": "",
          "type": "uint16"
        },
        {
          "internalType": "bytes",
          "name": "",
          "type": "bytes"
        },
        {
          "internalType": "uint64",
          "name": "",
          "type": "uint64"
        }
      ],
      "name": "failedOFTReceivedMessages",
      "outputs": [
        {
          "internalType": "bytes32",
          "name": "",
          "type": "bytes32"
        }
      ],
      "stateMutability": "view",
      "type": "function"
    },
    {
      "inputs": [
        {
          "internalType": "uint16",
          "name": "_srcChainId",
          "type": "uint16"
        },
        {
          "internalType": "bytes",
          "name": "_srcAddress",
          "type": "bytes"
        }
      ],
      "name": "forceResumeReceive",
      "outputs": [],
      "stateMutability": "nonpayable",
      "type": "function"
    },
    {
      "inputs": [
        {
          "internalType": "uint16",
          "name": "_version",
          "type": "uint16"
        },
        {
          "internalType": "uint16",
          "name": "_chainId",
          "type": "uint16"
        },
        {
          "internalType": "address",
          "name": "",
          "type": "address"
        },
        {
          "internalType": "uint256",
          "name": "_configType",
          "type": "uint256"
        }
      ],
      "name": "getConfig",
      "outputs": [
        {
          "internalType": "bytes",
          "name": "",
          "type": "bytes"
        }
      ],
      "stateMutability": "view",
      "type": "function"
    },
    {
      "inputs": [
        {
          "internalType": "uint16",
          "name": "_remoteChainId",
          "type": "uint16"
        }
      ],
      "name": "getTrustedRemoteAddress",
      "outputs": [
        {
          "internalType": "bytes",
          "name": "",
          "type": "bytes"
        }
      ],
      "stateMutability": "view",
      "type": "function"
    },
    {
      "inputs": [
        {
          "internalType": "address",
          "name": "spender",
          "type": "address"
        },
        {
          "internalType": "uint256",
          "name": "addedValue",
          "type": "uint256"
        }
      ],
      "name": "increaseAllowance",
      "outputs": [
        {
          "internalType": "bool",
          "name": "",
          "type": "bool"
        }
      ],
      "stateMutability": "nonpayable",
      "type": "function"
    },
    {
      "inputs": [
        {
          "internalType": "uint16",
          "name": "_srcChainId",
          "type": "uint16"
        },
        {
          "internalType": "bytes",
          "name": "_srcAddress",
          "type": "bytes"
        }
      ],
      "name": "isTrustedRemote",
      "outputs": [
        {
          "internalType": "bool",
          "name": "",
          "type": "bool"
        }
      ],
      "stateMutability": "view",
      "type": "function"
    },
    {
      "inputs": [],
      "name": "lzEndpoint",
      "outputs": [
        {
          "internalType": "contract ILayerZeroEndpoint",
          "name": "",
          "type": "address"
        }
      ],
      "stateMutability": "view",
      "type": "function"
    },
    {
      "inputs": [
        {
          "internalType": "uint16",
          "name": "_srcChainId",
          "type": "uint16"
        },
        {
          "internalType": "bytes",
          "name": "_srcAddress",
          "type": "bytes"
        },
        {
          "internalType": "uint64",
          "name": "_nonce",
          "type": "uint64"
        },
        {
          "internalType": "bytes",
          "name": "_payload",
          "type": "bytes"
        }
      ],
      "name": "lzReceive",
      "outputs": [],
      "stateMutability": "nonpayable",
      "type": "function"
    },
    {
      "inputs": [
        {
          "internalType": "uint16",
          "name": "",
          "type": "uint16"
        },
        {
          "internalType": "uint16",
          "name": "",
          "type": "uint16"
        }
      ],
      "name": "minDstGasLookup",
      "outputs": [
        {
          "internalType": "uint256",
          "name": "",
          "type": "uint256"
        }
      ],
      "stateMutability": "view",
      "type": "function"
    },
    {
      "inputs": [],
      "name": "name",
      "outputs": [
        {
          "internalType": "string",
          "name": "",
          "type": "string"
        }
      ],
      "stateMutability": "view",
      "type": "function"
    },
    {
      "inputs": [
        {
          "internalType": "uint16",
          "name": "_srcChainId",
          "type": "uint16"
        },
        {
          "internalType": "bytes",
          "name": "_srcAddress",
          "type": "bytes"
        },
        {
          "internalType": "uint64",
          "name": "_nonce",
          "type": "uint64"
        },
        {
          "internalType": "bytes",
          "name": "_payload",
          "type": "bytes"
        }
      ],
      "name": "nonblockingLzReceive",
      "outputs": [],
      "stateMutability": "nonpayable",
      "type": "function"
    },
    {
      "inputs": [],
      "name": "owner",
      "outputs": [
        {
          "internalType": "address",
          "name": "",
          "type": "address"
        }
      ],
      "stateMutability": "view",
      "type": "function"
    },
    {
      "inputs": [
        {
          "internalType": "uint16",
          "name": "",
          "type": "uint16"
        }
      ],
      "name": "payloadSizeLimitLookup",
      "outputs": [
        {
          "internalType": "uint256",
          "name": "",
          "type": "uint256"
        }
      ],
      "stateMutability": "view",
      "type": "function"
    },
    {
      "inputs": [],
      "name": "precrime",
      "outputs": [
        {
          "internalType": "address",
          "name": "",
          "type": "address"
        }
      ],
      "stateMutability": "view",
      "type": "function"
    },
    {
      "inputs": [],
      "name": "renounceOwnership",
      "outputs": [],
      "stateMutability": "nonpayable",
      "type": "function"
    },
    {
      "inputs": [
        {
          "internalType": "uint16",
          "name": "_srcChainId",
          "type": "uint16"
        },
        {
          "internalType": "bytes",
          "name": "_srcAddress",
          "type": "bytes"
        },
        {
          "internalType": "uint64",
          "name": "_nonce",
          "type": "uint64"
        },
        {
          "internalType": "bytes",
          "name": "_payload",
          "type": "bytes"
        }
      ],
      "name": "retryMessage",
      "outputs": [],
      "stateMutability": "payable",
      "type": "function"
    },
    {
      "inputs": [
        {
          "internalType": "uint16",
          "name": "_srcChainId",
          "type": "uint16"
        },
        {
          "internalType": "bytes",
          "name": "_srcAddress",
          "type": "bytes"
        },
        {
          "internalType": "uint64",
          "name": "_nonce",
          "type": "uint64"
        },
        {
          "internalType": "bytes",
          "name": "_from",
          "type": "bytes"
        },
        {
          "internalType": "address",
          "name": "_to",
          "type": "address"
        },
        {
          "internalType": "uint256",
          "name": "_amount",
          "type": "uint256"
        },
        {
          "internalType": "bytes",
          "name": "_payload",
          "type": "bytes"
        }
      ],
      "name": "retryOFTReceived",
      "outputs": [],
      "stateMutability": "nonpayable",
      "type": "function"
    },
    {
      "inputs": [
        {
          "internalType": "address",
          "name": "_from",
          "type": "address"
        },
        {
          "internalType": "uint16",
          "name": "_dstChainId",
          "type": "uint16"
        },
        {
          "internalType": "bytes",
          "name": "_toAddress",
          "type": "bytes"
        },
        {
          "internalType": "uint256",
          "name": "_amount",
          "type": "uint256"
        },
        {
          "internalType": "bytes",
          "name": "_payload",
          "type": "bytes"
        },
        {
          "internalType": "uint64",
          "name": "_dstGasForCall",
          "type": "uint64"
        },
        {
          "internalType": "address payable",
          "name": "_refundAddress",
          "type": "address"
        },
        {
          "internalType": "address",
          "name": "_zroPaymentAddress",
          "type": "address"
        },
        {
          "internalType": "bytes",
          "name": "_adapterParams",
          "type": "bytes"
        }
      ],
      "name": "sendAndCall",
      "outputs": [],
      "stateMutability": "payable",
      "type": "function"
    },
    {
      "inputs": [
        {
          "internalType": "address",
          "name": "_from",
          "type": "address"
        },
        {
          "internalType": "uint16",
          "name": "_dstChainId",
          "type": "uint16"
        },
        {
          "internalType": "bytes",
          "name": "_toAddress",
          "type": "bytes"
        },
        {
          "internalType": "uint256",
          "name": "_amount",
          "type": "uint256"
        },
        {
          "internalType": "address payable",
          "name": "_refundAddress",
          "type": "address"
        },
        {
          "internalType": "address",
          "name": "_zroPaymentAddress",
          "type": "address"
        },
        {
          "internalType": "bytes",
          "name": "_adapterParams",
          "type": "bytes"
        }
      ],
      "name": "sendFrom",
      "outputs": [],
      "stateMutability": "payable",
      "type": "function"
    },
    {
      "inputs": [
        {
          "internalType": "uint16",
          "name": "_version",
          "type": "uint16"
        },
        {
          "internalType": "uint16",
          "name": "_chainId",
          "type": "uint16"
        },
        {
          "internalType": "uint256",
          "name": "_configType",
          "type": "uint256"
        },
        {
          "internalType": "bytes",
          "name": "_config",
          "type": "bytes"
        }
      ],
      "name": "setConfig",
      "outputs": [],
      "stateMutability": "nonpayable",
      "type": "function"
    },
    {
      "inputs": [
        {
          "internalType": "uint16",
          "name": "_dstChainId",
          "type": "uint16"
        },
        {
          "internalType": "uint16",
          "name": "_packetType",
          "type": "uint16"
        },
        {
          "internalType": "uint256",
          "name": "_minGas",
          "type": "uint256"
        }
      ],
      "name": "setMinDstGas",
      "outputs": [],
      "stateMutability": "nonpayable",
      "type": "function"
    },
    {
      "inputs": [
        {
          "internalType": "uint16",
          "name": "_dstChainId",
          "type": "uint16"
        },
        {
          "internalType": "uint256",
          "name": "_size",
          "type": "uint256"
        }
      ],
      "name": "setPayloadSizeLimit",
      "outputs": [],
      "stateMutability": "nonpayable",
      "type": "function"
    },
    {
      "inputs": [
        {
          "internalType": "address",
          "name": "_precrime",
          "type": "address"
        }
      ],
      "name": "setPrecrime",
      "outputs": [],
      "stateMutability": "nonpayable",
      "type": "function"
    },
    {
      "inputs": [
        {
          "internalType": "uint16",
          "name": "_version",
          "type": "uint16"
        }
      ],
      "name": "setReceiveVersion",
      "outputs": [],
      "stateMutability": "nonpayable",
      "type": "function"
    },
    {
      "inputs": [
        {
          "internalType": "uint16",
          "name": "_version",
          "type": "uint16"
        }
      ],
      "name": "setSendVersion",
      "outputs": [],
      "stateMutability": "nonpayable",
      "type": "function"
    },
    {
      "inputs": [
        {
          "internalType": "uint16",
          "name": "_srcChainId",
          "type": "uint16"
        },
        {
          "internalType": "bytes",
          "name": "_path",
          "type": "bytes"
        }
      ],
      "name": "setTrustedRemote",
      "outputs": [],
      "stateMutability": "nonpayable",
      "type": "function"
    },
    {
      "inputs": [
        {
          "internalType": "uint16",
          "name": "_remoteChainId",
          "type": "uint16"
        },
        {
          "internalType": "bytes",
          "name": "_remoteAddress",
          "type": "bytes"
        }
      ],
      "name": "setTrustedRemoteAddress",
      "outputs": [],
      "stateMutability": "nonpayable",
      "type": "function"
    },
    {
      "inputs": [
        {
          "internalType": "bool",
          "name": "_useCustomAdapterParams",
          "type": "bool"
        }
      ],
      "name": "setUseCustomAdapterParams",
      "outputs": [],
      "stateMutability": "nonpayable",
      "type": "function"
    },
    {
      "inputs": [
        {
          "internalType": "address",
          "name": "_vault",
          "type": "address"
        }
      ],
      "name": "setValut",
      "outputs": [],
      "stateMutability": "nonpayable",
      "type": "function"
    },
    {
      "inputs": [
        {
          "internalType": "bytes4",
          "name": "interfaceId",
          "type": "bytes4"
        }
      ],
      "name": "supportsInterface",
      "outputs": [
        {
          "internalType": "bool",
          "name": "",
          "type": "bool"
        }
      ],
      "stateMutability": "view",
      "type": "function"
    },
    {
      "inputs": [],
      "name": "symbol",
      "outputs": [
        {
          "internalType": "string",
          "name": "",
          "type": "string"
        }
      ],
      "stateMutability": "view",
      "type": "function"
    },
    {
      "inputs": [],
      "name": "token",
      "outputs": [
        {
          "internalType": "address",
          "name": "",
          "type": "address"
        }
      ],
      "stateMutability": "view",
      "type": "function"
    },
    {
      "inputs": [],
      "name": "totalSupply",
      "outputs": [
        {
          "internalType": "uint256",
          "name": "",
          "type": "uint256"
        }
      ],
      "stateMutability": "view",
      "type": "function"
    },
    {
      "inputs": [
        {
          "internalType": "address",
          "name": "to",
          "type": "address"
        },
        {
          "internalType": "uint256",
          "name": "amount",
          "type": "uint256"
        }
      ],
      "name": "transfer",
      "outputs": [
        {
          "internalType": "bool",
          "name": "",
          "type": "bool"
        }
      ],
      "stateMutability": "nonpayable",
      "type": "function"
    },
    {
      "inputs": [
        {
          "internalType": "address",
          "name": "from",
          "type": "address"
        },
        {
          "internalType": "address",
          "name": "to",
          "type": "address"
        },
        {
          "internalType": "uint256",
          "name": "amount",
          "type": "uint256"
        }
      ],
      "name": "transferFrom",
      "outputs": [
        {
          "internalType": "bool",
          "name": "",
          "type": "bool"
        }
      ],
      "stateMutability": "nonpayable",
      "type": "function"
    },
    {
      "inputs": [
        {
          "internalType": "address",
          "name": "newOwner",
          "type": "address"
        }
      ],
      "name": "transferOwnership",
      "outputs": [],
      "stateMutability": "nonpayable",
      "type": "function"
    },
    {
      "inputs": [
        {
          "internalType": "uint16",
          "name": "",
          "type": "uint16"
        }
      ],
      "name": "trustedRemoteLookup",
      "outputs": [
        {
          "internalType": "bytes",
          "name": "",
          "type": "bytes"
        }
      ],
      "stateMutability": "view",
      "type": "function"
    },
    {
      "inputs": [],
      "name": "useCustomAdapterParams",
      "outputs": [
        {
          "internalType": "bool",
          "name": "",
          "type": "bool"
        }
      ],
      "stateMutability": "view",
      "type": "function"
    },
    {
      "inputs": [],
      "name": "vault",
      "outputs": [
        {
          "internalType": "address",
          "name": "",
          "type": "address"
        }
      ],
      "stateMutability": "view",
      "type": "function"
    }
  ],
  "bytecode": "0x60a06040523480156200001157600080fd5b5060405162004813380380620048138339810160408190526200003491620001e8565b6040518060400160405280601f81526020017f4d6f7a616963204c69717569646974792050726f766964657220546f6b656e008152506040518060400160405280600381526020016204d4c560ec1b81525082828282808080620000a7620000a1620000ee60201b60201c565b620000f2565b6001600160a01b031660805250508251620000cb9150600b90602085019062000142565b508051620000e190600c90602084019062000142565b5050505050505062000257565b3390565b600080546001600160a01b038381166001600160a01b0319831681178455604051919092169283917f8be0079c531659141344cd1fd0a4f28419497f9722a3daafe3b4186f6b6457e09190a35050565b82805462000150906200021a565b90600052602060002090601f016020900481019282620001745760008555620001bf565b82601f106200018f57805160ff1916838001178555620001bf565b82800160010185558215620001bf579182015b82811115620001bf578251825591602001919060010190620001a2565b50620001cd929150620001d1565b5090565b5b80821115620001cd5760008155600101620001d2565b600060208284031215620001fb57600080fd5b81516001600160a01b03811681146200021357600080fd5b9392505050565b600181811c908216806200022f57607f821691505b602082108114156200025157634e487b7160e01b600052602260045260246000fd5b50919050565b608051614561620002b2600039600081816107f8015281816109fb01528181610d2d01528181610ded01528181610e8b01528181611028015281816115e4015281816116ab01528181611e2b0152612a5901526145616000f3fe6080604052600436106102fe5760003560e01c80638da5cb5b11610190578063cfd6528e116100dc578063eab45d9c11610095578063f2fde38b1161006f578063f2fde38b14610985578063f5ecbdbc146109a5578063fbfa77cf146109c5578063fc0c546a146109e557600080fd5b8063eab45d9c1461092b578063eb8d72b71461094b578063ed629c5c1461096b57600080fd5b8063cfd6528e14610890578063d1deba1f146108b0578063dd62ed3e146108c3578063df2a5b3b146108e3578063e6a20ae614610903578063e7f0c59f1461091857600080fd5b8063a6c3d16511610149578063baf3292d11610123578063baf3292d1461081a578063c44618341461083a578063c8598dca14610850578063cbed8b9c1461087057600080fd5b8063a6c3d165146107a6578063a9059cbb146107c6578063b353aaa7146107e657600080fd5b80638da5cb5b146106ea5780639358928b1461071c578063950c8a741461073157806395d89b41146107515780639f38369a14610766578063a457c2d71461078657600080fd5b80633f1f4fa41161024f5780636096cc5811610208578063715018a6116101e2578063715018a61461065d5780637533d788146106725780637e333a07146106925780638cfd8f5c146106b257600080fd5b80636096cc58146105b857806366ad5c8a1461060757806370a082311461062757600080fd5b80633f1f4fa4146104cc57806342d65a8d146104f957806344770515146105195780634c42899a1461052e57806351905636146105565780635b8c41e61461056957600080fd5b806310ddb137116102bc5780632a205e3d116102965780632a205e3d1461043b578063313ce56714610470578063395093511461048c5780633d8b38f6146104ac57600080fd5b806310ddb137146103dc57806318160ddd146103fc57806323b872dd1461041b57600080fd5b80621d35671461030357806301ffc9a71461032557806306fdde031461035a57806307e0db171461037c578063095ea7b31461039c5780630df37483146103bc575b600080fd5b34801561030f57600080fd5b5061032361031e366004613481565b6109f8565b005b34801561033157600080fd5b50610345610340366004613517565b610c29565b60405190151581526020015b60405180910390f35b34801561036657600080fd5b5061036f610c7a565b6040516103519190613599565b34801561038857600080fd5b506103236103973660046135ac565b610d0c565b3480156103a857600080fd5b506103456103b73660046135e9565b610d95565b3480156103c857600080fd5b506103236103d7366004613615565b610dad565b3480156103e857600080fd5b506103236103f73660046135ac565b610dcc565b34801561040857600080fd5b50600a545b604051908152602001610351565b34801561042757600080fd5b50610345610436366004613633565b610e24565b34801561044757600080fd5b5061045b610456366004613684565b610e48565b60408051928352602083019190915201610351565b34801561047c57600080fd5b5060405160128152602001610351565b34801561049857600080fd5b506103456104a73660046135e9565b610f1b565b3480156104b857600080fd5b506103456104c7366004613723565b610f3d565b3480156104d857600080fd5b5061040d6104e73660046135ac565b60036020526000908152604090205481565b34801561050557600080fd5b50610323610514366004613723565b611009565b34801561052557600080fd5b5061040d600081565b34801561053a57600080fd5b50610543600081565b60405161ffff9091168152602001610351565b610323610564366004613777565b61108f565b34801561057557600080fd5b5061040d6105843660046138ad565b6005602090815260009384526040808520845180860184018051928152908401958401959095209452929052825290205481565b3480156105c457600080fd5b5061040d6105d33660046138ad565b6007602090815260009384526040808520845180860184018051928152908401958401959095209452929052825290205481565b34801561061357600080fd5b50610323610622366004613481565b611114565b34801561063357600080fd5b5061040d610642366004613953565b6001600160a01b031660009081526008602052604090205490565b34801561066957600080fd5b506103236111f0565b34801561067e57600080fd5b5061036f61068d3660046135ac565b611204565b34801561069e57600080fd5b506103236106ad366004613953565b61129e565b3480156106be57600080fd5b5061040d6106cd366004613970565b600260209081526000928352604080842090915290825290205481565b3480156106f657600080fd5b506000546001600160a01b03165b6040516001600160a01b039091168152602001610351565b34801561072857600080fd5b5061040d6112c8565b34801561073d57600080fd5b50600454610704906001600160a01b031681565b34801561075d57600080fd5b5061036f6112d8565b34801561077257600080fd5b5061036f6107813660046135ac565b6112e7565b34801561079257600080fd5b506103456107a13660046135e9565b6113fe565b3480156107b257600080fd5b506103236107c1366004613723565b611479565b3480156107d257600080fd5b506103456107e13660046135e9565b611519565b3480156107f257600080fd5b506107047f000000000000000000000000000000000000000000000000000000000000000081565b34801561082657600080fd5b50610323610835366004613953565b611527565b34801561084657600080fd5b5061040d61271081565b34801561085c57600080fd5b5061045b61086b3660046139a9565b611584565b34801561087c57600080fd5b5061032361088b366004613a87565b61168c565b34801561089c57600080fd5b506103236108ab366004613af9565b611716565b6103236108be366004613481565b61195c565b3480156108cf57600080fd5b5061040d6108de366004613bb3565b611b72565b3480156108ef57600080fd5b506103236108fe366004613be1565b611b9d565b34801561090f57600080fd5b50610543600181565b610323610926366004613c11565b611c4f565b34801561093757600080fd5b50610323610946366004613d1a565b611cde565b34801561095757600080fd5b50610323610966366004613723565b611d27565b34801561097757600080fd5b506006546103459060ff1681565b34801561099157600080fd5b506103236109a0366004613953565b611d81565b3480156109b157600080fd5b5061036f6109c0366004613d35565b611dfa565b3480156109d157600080fd5b50600d54610704906001600160a01b031681565b3480156109f157600080fd5b5030610704565b337f00000000000000000000000000000000000000000000000000000000000000006001600160a01b031614610a755760405162461bcd60e51b815260206004820152601e60248201527f4c7a4170703a20696e76616c696420656e64706f696e742063616c6c6572000060448201526064015b60405180910390fd5b61ffff861660009081526001602052604081208054610a9390613d86565b80601f0160208091040260200160405190810160405280929190818152602001828054610abf90613d86565b8015610b0c5780601f10610ae157610100808354040283529160200191610b0c565b820191906000526020600020905b815481529060010190602001808311610aef57829003601f168201915b50505050509050805186869050148015610b27575060008151115b8015610b4f575080516020820120604051610b459088908890613dc1565b6040518091039020145b610baa5760405162461bcd60e51b815260206004820152602660248201527f4c7a4170703a20696e76616c696420736f757263652073656e64696e6720636f6044820152651b9d1c9858dd60d21b6064820152608401610a6c565b610c208787878080601f01602080910402602001604051908101604052809392919081815260200183838082843760009201919091525050604080516020601f8a018190048102820181019092528881528a935091508890889081908401838280828437600092019190915250611eab92505050565b50505050505050565b60006001600160e01b031982161580610c4a57506001600160e01b03198216155b80610c6557506001600160e01b031982166336372b0760e01b145b80610c745750610c7482611f24565b92915050565b6060600b8054610c8990613d86565b80601f0160208091040260200160405190810160405280929190818152602001828054610cb590613d86565b8015610d025780601f10610cd757610100808354040283529160200191610d02565b820191906000526020600020905b815481529060010190602001808311610ce557829003601f168201915b5050505050905090565b610d14611f49565b6040516307e0db1760e01b815261ffff821660048201527f00000000000000000000000000000000000000000000000000000000000000006001600160a01b0316906307e0db17906024015b600060405180830381600087803b158015610d7a57600080fd5b505af1158015610d8e573d6000803e3d6000fd5b5050505050565b600033610da3818585611fa3565b5060019392505050565b610db5611f49565b61ffff909116600090815260036020526040902055565b610dd4611f49565b6040516310ddb13760e01b815261ffff821660048201527f00000000000000000000000000000000000000000000000000000000000000006001600160a01b0316906310ddb13790602401610d60565b600033610e328582856120c7565b610e3d858585612141565b506001949350505050565b600080600080898989604051602001610e649493929190613dfa565b60408051601f198184030181529082905263040a7bb160e41b825291506001600160a01b037f000000000000000000000000000000000000000000000000000000000000000016906340a7bb1090610eca908d90309086908c908c908c90600401613e29565b6040805180830381865afa158015610ee6573d6000803e3d6000fd5b505050506040513d601f19601f82011682018060405250810190610f0a9190613e7f565b925092505097509795505050505050565b600033610da3818585610f2e8383611b72565b610f389190613eb9565b611fa3565b61ffff831660009081526001602052604081208054829190610f5e90613d86565b80601f0160208091040260200160405190810160405280929190818152602001828054610f8a90613d86565b8015610fd75780601f10610fac57610100808354040283529160200191610fd7565b820191906000526020600020905b815481529060010190602001808311610fba57829003601f168201915b505050505090508383604051610fee929190613dc1565b60405180910390208180519060200120149150509392505050565b611011611f49565b6040516342d65a8d60e01b81526001600160a01b037f000000000000000000000000000000000000000000000000000000000000000016906342d65a8d9061106190869086908690600401613ed1565b600060405180830381600087803b15801561107b57600080fd5b505af1158015610c20573d6000803e3d6000fd5b611109898989898080601f01602080910402602001604051908101604052809392919081815260200183838082843760009201919091525050604080516020601f8a018190048102820181019092528881528c93508b92508a918a908a908190840183828082843760009201919091525061230f92505050565b505050505050505050565b3330146111725760405162461bcd60e51b815260206004820152602660248201527f4e6f6e626c6f636b696e674c7a4170703a2063616c6c6572206d7573742062656044820152650204c7a4170760d41b6064820152608401610a6c565b6111e88686868080601f01602080910402602001604051908101604052809392919081815260200183838082843760009201919091525050604080516020601f8901819004810282018101909252878152899350915087908790819084018382808284376000920191909152506123b692505050565b505050505050565b6111f8611f49565b6112026000612445565b565b6001602052600090815260409020805461121d90613d86565b80601f016020809104026020016040519081016040528092919081815260200182805461124990613d86565b80156112965780601f1061126b57610100808354040283529160200191611296565b820191906000526020600020905b81548152906001019060200180831161127957829003601f168201915b505050505081565b6112a6611f49565b600d80546001600160a01b0319166001600160a01b0392909216919091179055565b60006112d3600a5490565b905090565b6060600c8054610c8990613d86565b61ffff811660009081526001602052604081208054606092919061130a90613d86565b80601f016020809104026020016040519081016040528092919081815260200182805461133690613d86565b80156113835780601f1061135857610100808354040283529160200191611383565b820191906000526020600020905b81548152906001019060200180831161136657829003601f168201915b505050505090508051600014156113dc5760405162461bcd60e51b815260206004820152601d60248201527f4c7a4170703a206e6f20747275737465642070617468207265636f72640000006044820152606401610a6c565b6113f76000601483516113ef9190613eef565b839190612495565b9392505050565b6000338161140c8286611b72565b90508381101561146c5760405162461bcd60e51b815260206004820152602560248201527f45524332303a2064656372656173656420616c6c6f77616e63652062656c6f77604482015264207a65726f60d81b6064820152608401610a6c565b610e3d8286868403611fa3565b611481611f49565b81813060405160200161149693929190613f06565b60408051601f1981840301815291815261ffff851660009081526001602090815291902082516114cb939192909101906132ec565b506114d98361ffff166125a2565b7f8c0400cfe2d1199b1a725c78960bcc2a344d869b80590d0f2bd005db15a572ce83838360405161150c93929190613ed1565b60405180910390a1505050565b600033610da3818585612141565b61152f611f49565b600480546001600160a01b0319166001600160a01b0383169081179091556040519081527f5db758e995a17ec1ad84bdef7e8c3293a0bd6179bcce400dff5d4c3d87db726b906020015b60405180910390a150565b6040516001600160601b03193360601b1660208201526000908190819060019060340160408051601f19818403018152908290526115d192918f908f908f908f908f908f90602001613f27565b60405160208183030381529060405290507f00000000000000000000000000000000000000000000000000000000000000006001600160a01b03166340a7bb108e30848a8a8a6040518763ffffffff1660e01b815260040161163896959493929190613e29565b6040805180830381865afa158015611654573d6000803e3d6000fd5b505050506040513d601f19601f820116820180604052508101906116789190613e7f565b92509250509a509a98505050505050505050565b611694611f49565b6040516332fb62e760e21b81526001600160a01b037f0000000000000000000000000000000000000000000000000000000000000000169063cbed8b9c906116e89088908890889088908890600401613f91565b600060405180830381600087803b15801561170257600080fd5b505af1158015611109573d6000803e3d6000fd5b61ffff8a166000908152600760205260408082209051611739908c908c90613dc1565b90815260408051602092819003830190206001600160401b038b16600090815292529020549050806117c35760405162461bcd60e51b815260206004820152602d60248201527f436f6d706f7361626c654f4654436f72653a206e6f206661696c6564206d657360448201526c7361676520746f20726574727960981b6064820152608401610a6c565b60008787878787876040516020016117e096959493929190613fca565b60405160208183030381529060405280519060200120905081811461185f5760405162461bcd60e51b815260206004820152602f60248201527f436f6d706f7361626c654f4654436f72653a206661696c6564206d657373616760448201526e0ca40d0c2e6d040dad2e6dac2e8c6d608b1b6064820152608401610a6c565b61ffff8c16600090815260076020526040908190209051611883908d908d90613dc1565b9081526040805191829003602090810183206001600160401b038d16600090815291529081205563147a7d7160e01b81526001600160a01b0387169063147a7d71906118e3908f908f908f908f908f908f908e908e908e90600401614007565b600060405180830381600087803b1580156118fd57600080fd5b505af1158015611911573d6000803e3d6000fd5b505050507f41ea88d75e53240e2c5ace3a3d7263efe6c8f4fe42c0e3ef269f71daef1001c88160405161194691815260200190565b60405180910390a1505050505050505050505050565b61ffff8616600090815260056020526040808220905161197f9088908890613dc1565b90815260408051602092819003830190206001600160401b038716600090815292529020549050806119ff5760405162461bcd60e51b815260206004820152602360248201527f4e6f6e626c6f636b696e674c7a4170703a206e6f2073746f726564206d65737360448201526261676560e81b6064820152608401610a6c565b808383604051611a10929190613dc1565b604051809103902014611a6f5760405162461bcd60e51b815260206004820152602160248201527f4e6f6e626c6f636b696e674c7a4170703a20696e76616c6964207061796c6f616044820152601960fa1b6064820152608401610a6c565b61ffff87166000908152600560205260408082209051611a929089908990613dc1565b90815260408051602092819003830181206001600160401b038916600090815290845282902093909355601f88018290048202830182019052868252611b2a918991899089908190840183828082843760009201919091525050604080516020601f8a018190048102820181019092528881528a9350915088908890819084018382808284376000920191909152506123b692505050565b7fc264d91f3adc5588250e1551f547752ca0cfa8f6b530d243b9f9f4cab10ea8e58787878785604051611b61959493929190614072565b60405180910390a150505050505050565b6001600160a01b03918216600090815260096020908152604080832093909416825291909152205490565b611ba5611f49565b60008111611bed5760405162461bcd60e51b81526020600482015260156024820152744c7a4170703a20696e76616c6964206d696e47617360581b6044820152606401610a6c565b61ffff83811660008181526002602090815260408083209487168084529482529182902085905581519283528201929092529081018290527f9d5c7c0b934da8fefa9c7760c98383778a12dfbfc0c3b3106518f43fb9508ac09060600161150c565b611cd08c8c8c8c8080601f01602080910402602001604051908101604052809392919081815260200183838082843760009201919091525050604080516020601f8a018190048102820181019092528881528f93508e92508d918d918d918d91908d908d90819084018382808284376000920191909152506125e792505050565b505050505050505050505050565b611ce6611f49565b6006805460ff19168215159081179091556040519081527f1584ad594a70cbe1e6515592e1272a987d922b097ead875069cebe8b40c004a490602001611579565b611d2f611f49565b61ffff83166000908152600160205260409020611d4d908383613370565b507ffa41487ad5d6728f0b19276fa1eddc16558578f5109fc39d2dc33c3230470dab83838360405161150c93929190613ed1565b611d89611f49565b6001600160a01b038116611dee5760405162461bcd60e51b815260206004820152602660248201527f4f776e61626c653a206e6577206f776e657220697320746865207a65726f206160448201526564647265737360d01b6064820152608401610a6c565b611df781612445565b50565b604051633d7b2f6f60e21b815261ffff808616600483015284166024820152306044820152606481018290526060907f00000000000000000000000000000000000000000000000000000000000000006001600160a01b03169063f5ecbdbc90608401600060405180830381865afa158015611e7a573d6000803e3d6000fd5b505050506040513d6000823e601f3d908101601f19168201604052611ea291908101906140fa565b95945050505050565b600080611f0e5a60966366ad5c8a60e01b89898989604051602401611ed3949392919061412e565b60408051601f198184030181529190526020810180516001600160e01b03166001600160e01b031990931692909217909152309291906126c7565b91509150816111e8576111e88686868685612751565b60006001600160e01b0319821663e07f1adb60e01b1480610c745750610c74826127ee565b6000546001600160a01b031633146112025760405162461bcd60e51b815260206004820181905260248201527f4f776e61626c653a2063616c6c6572206973206e6f7420746865206f776e65726044820152606401610a6c565b6001600160a01b0383166120055760405162461bcd60e51b8152602060048201526024808201527f45524332303a20617070726f76652066726f6d20746865207a65726f206164646044820152637265737360e01b6064820152608401610a6c565b6001600160a01b0382166120665760405162461bcd60e51b815260206004820152602260248201527f45524332303a20617070726f766520746f20746865207a65726f206164647265604482015261737360f01b6064820152608401610a6c565b6001600160a01b0383811660008181526009602090815260408083209487168084529482529182902085905590518481527f8c5be1e5ebec7d5bd14f71427d1e84f3dd0314c0f7b2291e5b200ac8c7c3b925910160405180910390a3505050565b60006120d38484611b72565b9050600019811461213b578181101561212e5760405162461bcd60e51b815260206004820152601d60248201527f45524332303a20696e73756666696369656e7420616c6c6f77616e63650000006044820152606401610a6c565b61213b8484848403611fa3565b50505050565b6001600160a01b0383166121a55760405162461bcd60e51b815260206004820152602560248201527f45524332303a207472616e736665722066726f6d20746865207a65726f206164604482015264647265737360d81b6064820152608401610a6c565b6001600160a01b0382166122075760405162461bcd60e51b815260206004820152602360248201527f45524332303a207472616e7366657220746f20746865207a65726f206164647260448201526265737360e81b6064820152608401610a6c565b6001600160a01b0383166000908152600860205260409020548181101561227f5760405162461bcd60e51b815260206004820152602660248201527f45524332303a207472616e7366657220616d6f756e7420657863656564732062604482015265616c616e636560d01b6064820152608401610a6c565b6001600160a01b038085166000908152600860205260408082208585039055918516815290812080548492906122b6908490613eb9565b92505081905550826001600160a01b0316846001600160a01b03167fddf252ad1be2c89b69c2b068fc378daa952ba7f163c4a11628f55a4df523b3ef8460405161230291815260200190565b60405180910390a361213b565b61231d866000836000612828565b600061232b888888886128a2565b905060008087836040516020016123449392919061416c565b604051602081830303815290604052905061236388828787873461292f565b886001600160a01b03168861ffff167f39a4c66499bcf4b56d79f0dde8ed7a9d4925a0df55825206b2b8531e202be0d089856040516123a3929190614199565b60405180910390a3505050505050505050565b602081015161ffff81166123d5576123d085858585612ac7565b610d8e565b61ffff8116600114156123ee576123d085858585612b51565b60405162461bcd60e51b815260206004820152602660248201527f436f6d706f7361626c654f4654436f72653a20756e6b6e6f776e207061636b6560448201526574207479706560d01b6064820152608401610a6c565b600080546001600160a01b038381166001600160a01b0319831681178455604051919092169283917f8be0079c531659141344cd1fd0a4f28419497f9722a3daafe3b4186f6b6457e09190a35050565b6060816124a381601f613eb9565b10156124e25760405162461bcd60e51b815260206004820152600e60248201526d736c6963655f6f766572666c6f7760901b6044820152606401610a6c565b6124ec8284613eb9565b845110156125305760405162461bcd60e51b8152602060048201526011602482015270736c6963655f6f75744f66426f756e647360781b6044820152606401610a6c565b60608215801561254f5760405191506000825260208201604052612599565b6040519150601f8416801560200281840101858101878315602002848b0101015b81831015612588578051835260209283019201612570565b5050858452601f01601f1916604052505b50949350505050565b611df7816040516024016125b891815260200190565b60408051601f198184030181529190526020810180516001600160e01b031663f82c50f160e01b179052612c60565b6125fd89600183876001600160401b0316612828565b600061260b8b8b8b8b6128a2565b604080513360601b6001600160601b03191660208201528151601481830301815260348201909252919250600091612652916001918d9086908d908d908d906054016141bb565b60405160208183030381529060405290506126718b828787873461292f565b8b6001600160a01b03168b61ffff167f39a4c66499bcf4b56d79f0dde8ed7a9d4925a0df55825206b2b8531e202be0d08c856040516126b1929190614199565b60405180910390a3505050505050505050505050565b6000606060008060008661ffff166001600160401b038111156126ec576126ec613840565b6040519080825280601f01601f191660200182016040528015612716576020820181803683370190505b50905060008087516020890160008d8df191503d925086831115612738578692505b828152826000602083013e909890975095505050505050565b8180519060200120600560008761ffff1661ffff168152602001908152602001600020856040516127829190614223565b9081526040805191829003602090810183206001600160401b0388166000908152915220919091557fe183f33de2837795525b4792ca4cd60535bd77c53b7e7030060bfcf5734d6b0c906127df908790879087908790879061423f565b60405180910390a15050505050565b60006001600160e01b03198216630a72677560e11b1480610c7457506301ffc9a760e01b6001600160e01b0319831614610c74565b505050565b60065460ff16156128445761283f84848484612c81565b61213b565b81511561213b5760405162461bcd60e51b815260206004820152602660248201527f4f4654436f72653a205f61646170746572506172616d73206d7573742062652060448201526532b6b83a3c9760d11b6064820152608401610a6c565b600d546000906001600160a01b031633146128ff5760405162461bcd60e51b815260206004820152601c60248201527f6d4c503a2063616c6c6572206973206e6f7420746865207661756c74000000006044820152606401610a6c565b336001600160a01b038616811461291b5761291b8682856120c7565b6129258684612d60565b5090949350505050565b61ffff86166000908152600160205260408120805461294d90613d86565b80601f016020809104026020016040519081016040528092919081815260200182805461297990613d86565b80156129c65780601f1061299b576101008083540402835291602001916129c6565b820191906000526020600020905b8154815290600101906020018083116129a957829003601f168201915b50505050509050805160001415612a385760405162461bcd60e51b815260206004820152603060248201527f4c7a4170703a2064657374696e6174696f6e20636861696e206973206e6f742060448201526f61207472757374656420736f7572636560801b6064820152608401610a6c565b612a43878751612eae565b60405162c5803160e81b81526001600160a01b037f0000000000000000000000000000000000000000000000000000000000000000169063c5803100908490612a9a908b9086908c908c908c908c9060040161429d565b6000604051808303818588803b158015612ab357600080fd5b505af1158015611cd0573d6000803e3d6000fd5b60008082806020019051810190612ade91906142f7565b909350915060009050612af18382612f1c565b9050612afe878284612f81565b9150806001600160a01b03168761ffff167fbf551ec93859b170f9b2141bd9298bf3f64322c6f7beb2543a0cb669834118bf84604051612b4091815260200190565b60405180910390a350505050505050565b600080600080600085806020019051810190612b6d9190614350565b95509550955095509550506000612b8e600086612f1c90919063ffffffff16565b9050612b9b8a8286612f81565b9350806001600160a01b03168a61ffff167fbf551ec93859b170f9b2141bd9298bf3f64322c6f7beb2543a0cb669834118bf86604051612bdd91815260200190565b60405180910390a36001600160a01b0381163b612c3b576040516001600160a01b03821681527f9aedf5fdba8716db3b6705ca00150643309995d4f818a249ed6dde6677e7792d9060200160405180910390a150505050505061213b565b612c548a8a8a89858989896001600160401b0316612fef565b50505050505050505050565b80516a636f6e736f6c652e6c6f67602083016000808483855afa5050505050565b6000612c8c836131b1565b61ffff808716600090815260026020908152604080832093891683529290529081205491925090612cbe908490613eb9565b905060008111612d105760405162461bcd60e51b815260206004820152601a60248201527f4c7a4170703a206d696e4761734c696d6974206e6f74207365740000000000006044820152606401610a6c565b808210156111e85760405162461bcd60e51b815260206004820152601b60248201527f4c7a4170703a20676173206c696d697420697320746f6f206c6f7700000000006044820152606401610a6c565b6001600160a01b038216612dc05760405162461bcd60e51b815260206004820152602160248201527f45524332303a206275726e2066726f6d20746865207a65726f206164647265736044820152607360f81b6064820152608401610a6c565b6001600160a01b03821660009081526008602052604090205481811015612e345760405162461bcd60e51b815260206004820152602260248201527f45524332303a206275726e20616d6f756e7420657863656564732062616c616e604482015261636560f01b6064820152608401610a6c565b6001600160a01b03831660009081526008602052604081208383039055600a8054849290612e63908490613eef565b90915550506040518281526000906001600160a01b038516907fddf252ad1be2c89b69c2b068fc378daa952ba7f163c4a11628f55a4df523b3ef9060200160405180910390a3505050565b61ffff821660009081526003602052604090205480612ecc57506127105b808211156128235760405162461bcd60e51b815260206004820181905260248201527f4c7a4170703a207061796c6f61642073697a6520697320746f6f206c617267656044820152606401610a6c565b6000612f29826014613eb9565b83511015612f715760405162461bcd60e51b8152602060048201526015602482015274746f416464726573735f6f75744f66426f756e647360581b6044820152606401610a6c565b500160200151600160601b900490565b600d546000906001600160a01b03163314612fde5760405162461bcd60e51b815260206004820152601c60248201527f6d4c503a2063616c6c6572206973206e6f7420746865207661756c74000000006044820152606401610a6c565b612fe8838361320d565b5092915050565b60008061305f83609663147a7d7160e01b8d8d8d8d8c8c60405160240161301b96959493929190614408565b60408051601f198184030181529190526020810180516001600160e01b03166001600160e01b0319909316929092179091526001600160a01b038a169291906126c7565b9150915081613133578686868660405160200161307f9493929190614460565b60408051601f19818403018152828252805160209182012061ffff8e166000908152600790925291902090916130b6908c90614223565b9081526040805191829003602090810183206001600160401b038d166000908152915220919091556001600160a01b0387169061ffff8c16907f95c1ad3ef50dd05e668d7b80e9a723079395ac4867a4050552d5d9219e683d7490613126908d908d908d908c908c908a9061449b565b60405180910390a3612c54565b60008787878760405160200161314c9493929190614460565b6040516020818303038152906040528051906020012090508a61ffff167fb8890edbfc1c74692f527444645f95489c3703cc2df42e4a366f5d06fa6cd8848b8b8460405161319c939291906144fd565b60405180910390a25050505050505050505050565b60006022825110156132055760405162461bcd60e51b815260206004820152601c60248201527f4c7a4170703a20696e76616c69642061646170746572506172616d73000000006044820152606401610a6c565b506022015190565b6001600160a01b0382166132635760405162461bcd60e51b815260206004820152601f60248201527f45524332303a206d696e7420746f20746865207a65726f2061646472657373006044820152606401610a6c565b80600a60008282546132759190613eb9565b90915550506001600160a01b038216600090815260086020526040812080548392906132a2908490613eb9565b90915550506040518181526001600160a01b038316906000907fddf252ad1be2c89b69c2b068fc378daa952ba7f163c4a11628f55a4df523b3ef9060200160405180910390a35050565b8280546132f890613d86565b90600052602060002090601f01602090048101928261331a5760008555613360565b82601f1061333357805160ff1916838001178555613360565b82800160010185558215613360579182015b82811115613360578251825591602001919060010190613345565b5061336c9291506133e4565b5090565b82805461337c90613d86565b90600052602060002090601f01602090048101928261339e5760008555613360565b82601f106133b75782800160ff19823516178555613360565b82800160010185558215613360579182015b828111156133605782358255916020019190600101906133c9565b5b8082111561336c57600081556001016133e5565b61ffff81168114611df757600080fd5b8035613414816133f9565b919050565b60008083601f84011261342b57600080fd5b5081356001600160401b0381111561344257600080fd5b60208301915083602082850101111561345a57600080fd5b9250929050565b6001600160401b0381168114611df757600080fd5b803561341481613461565b6000806000806000806080878903121561349a57600080fd5b86356134a5816133f9565b955060208701356001600160401b03808211156134c157600080fd5b6134cd8a838b01613419565b9097509550604089013591506134e282613461565b909350606088013590808211156134f857600080fd5b5061350589828a01613419565b979a9699509497509295939492505050565b60006020828403121561352957600080fd5b81356001600160e01b0319811681146113f757600080fd5b60005b8381101561355c578181015183820152602001613544565b8381111561213b5750506000910152565b60008151808452613585816020860160208601613541565b601f01601f19169290920160200192915050565b6020815260006113f7602083018461356d565b6000602082840312156135be57600080fd5b81356113f7816133f9565b6001600160a01b0381168114611df757600080fd5b8035613414816135c9565b600080604083850312156135fc57600080fd5b8235613607816135c9565b946020939093013593505050565b6000806040838503121561362857600080fd5b8235613607816133f9565b60008060006060848603121561364857600080fd5b8335613653816135c9565b92506020840135613663816135c9565b929592945050506040919091013590565b8035801515811461341457600080fd5b600080600080600080600060a0888a03121561369f57600080fd5b87356136aa816133f9565b965060208801356001600160401b03808211156136c657600080fd5b6136d28b838c01613419565b909850965060408a013595508691506136ed60608b01613674565b945060808a013591508082111561370357600080fd5b506137108a828b01613419565b989b979a50959850939692959293505050565b60008060006040848603121561373857600080fd5b8335613743816133f9565b925060208401356001600160401b0381111561375e57600080fd5b61376a86828701613419565b9497909650939450505050565b600080600080600080600080600060e08a8c03121561379557600080fd5b89356137a0816135c9565b985060208a01356137b0816133f9565b975060408a01356001600160401b03808211156137cc57600080fd5b6137d88d838e01613419565b909950975060608c0135965060808c013591506137f4826135c9565b90945060a08b013590613806826135c9565b90935060c08b0135908082111561381c57600080fd5b506138298c828d01613419565b915080935050809150509295985092959850929598565b634e487b7160e01b600052604160045260246000fd5b604051601f8201601f191681016001600160401b038111828210171561387e5761387e613840565b604052919050565b60006001600160401b0382111561389f5761389f613840565b50601f01601f191660200190565b6000806000606084860312156138c257600080fd5b83356138cd816133f9565b925060208401356001600160401b038111156138e857600080fd5b8401601f810186136138f957600080fd5b803561390c61390782613886565b613856565b81815287602083850101111561392157600080fd5b81602084016020830137600060208383010152809450505050604084013561394881613461565b809150509250925092565b60006020828403121561396557600080fd5b81356113f7816135c9565b6000806040838503121561398357600080fd5b823561398e816133f9565b9150602083013561399e816133f9565b809150509250929050565b60008060008060008060008060008060e08b8d0312156139c857600080fd5b8a356139d3816133f9565b995060208b01356001600160401b03808211156139ef57600080fd5b6139fb8e838f01613419565b909b50995060408d0135985060608d0135915080821115613a1b57600080fd5b613a278e838f01613419565b909850965060808d01359150613a3c82613461565b819550613a4b60a08e01613674565b945060c08d0135915080821115613a6157600080fd5b50613a6e8d828e01613419565b915080935050809150509295989b9194979a5092959850565b600080600080600060808688031215613a9f57600080fd5b8535613aaa816133f9565b94506020860135613aba816133f9565b93506040860135925060608601356001600160401b03811115613adc57600080fd5b613ae888828901613419565b969995985093965092949392505050565b60008060008060008060008060008060e08b8d031215613b1857600080fd5b8a35613b23816133f9565b995060208b01356001600160401b0380821115613b3f57600080fd5b613b4b8e838f01613419565b909b50995060408d01359150613b6082613461565b90975060608c01359080821115613b7657600080fd5b613b828e838f01613419565b9098509650869150613b9660808e016135de565b955060a08d0135945060c08d0135915080821115613a6157600080fd5b60008060408385031215613bc657600080fd5b8235613bd1816135c9565b9150602083013561399e816135c9565b600080600060608486031215613bf657600080fd5b8335613c01816133f9565b92506020840135613663816133f9565b6000806000806000806000806000806000806101208d8f031215613c3457600080fd5b613c3d8d6135de565b9b50613c4b60208e01613409565b9a506001600160401b0360408e01351115613c6557600080fd5b613c758e60408f01358f01613419565b909a50985060608d013597506001600160401b0360808e01351115613c9957600080fd5b613ca98e60808f01358f01613419565b9097509550613cba60a08e01613476565b9450613cc860c08e016135de565b9350613cd660e08e016135de565b92506001600160401b036101008e01351115613cf157600080fd5b613d028e6101008f01358f01613419565b81935080925050509295989b509295989b509295989b565b600060208284031215613d2c57600080fd5b6113f782613674565b60008060008060808587031215613d4b57600080fd5b8435613d56816133f9565b93506020850135613d66816133f9565b92506040850135613d76816135c9565b9396929550929360600135925050565b600181811c90821680613d9a57607f821691505b60208210811415613dbb57634e487b7160e01b600052602260045260246000fd5b50919050565b8183823760009101908152919050565b81835281816020850137506000828201602090810191909152601f909101601f19169091010190565b61ffff85168152606060208201526000613e18606083018587613dd1565b905082604083015295945050505050565b61ffff871681526001600160a01b038616602082015260a060408201819052600090613e579083018761356d565b85151560608401528281036080840152613e72818587613dd1565b9998505050505050505050565b60008060408385031215613e9257600080fd5b505080516020909101519092909150565b634e487b7160e01b600052601160045260246000fd5b60008219821115613ecc57613ecc613ea3565b500190565b61ffff84168152604060208201526000611ea2604083018486613dd1565b600082821015613f0157613f01613ea3565b500390565b8284823760609190911b6001600160601b0319169101908152601401919050565b61ffff8916815260c060208201526000613f4460c083018a61356d565b8281036040840152613f5781898b613dd1565b90508660608401528281036080840152613f72818688613dd1565b9150506001600160401b03831660a08301529998505050505050505050565b600061ffff808816835280871660208401525084604083015260806060830152613fbf608083018486613dd1565b979650505050505050565b608081526000613fde60808301888a613dd1565b6001600160a01b0387166020840152604083018690528281036060840152613e72818587613dd1565b61ffff8a16815260c06020820152600061402560c083018a8c613dd1565b6001600160401b0389166040840152828103606084015261404781888a613dd1565b905085608084015282810360a0840152614062818587613dd1565b9c9b505050505050505050505050565b61ffff86168152608060208201526000614090608083018688613dd1565b6001600160401b0394909416604083015250606001529392505050565b600082601f8301126140be57600080fd5b81516140cc61390782613886565b8181528460208386010111156140e157600080fd5b6140f2826020830160208701613541565b949350505050565b60006020828403121561410c57600080fd5b81516001600160401b0381111561412257600080fd5b6140f2848285016140ad565b61ffff8516815260806020820152600061414b608083018661356d565b6001600160401b03851660408401528281036060840152613fbf818561356d565b61ffff84168152606060208201526000614189606083018561356d565b9050826040830152949350505050565b6040815260006141ac604083018561356d565b90508260208301529392505050565b61ffff8816815260c0602082015260006141d860c083018961356d565b82810360408401526141ea818961356d565b90508660608401528281036080840152614205818688613dd1565b9150506001600160401b03831660a083015298975050505050505050565b60008251614235818460208701613541565b9190910192915050565b61ffff8616815260a06020820152600061425c60a083018761356d565b6001600160401b0386166040840152828103606084015261427d818661356d565b90508281036080840152614291818561356d565b98975050505050505050565b61ffff8716815260c0602082015260006142ba60c083018861356d565b82810360408401526142cc818861356d565b6001600160a01b0387811660608601528616608085015283810360a08501529050613e72818561356d565b60008060006060848603121561430c57600080fd5b8351614317816133f9565b60208501519093506001600160401b0381111561433357600080fd5b61433f868287016140ad565b925050604084015190509250925092565b60008060008060008060c0878903121561436957600080fd5b8651614374816133f9565b60208801519096506001600160401b038082111561439157600080fd5b61439d8a838b016140ad565b965060408901519150808211156143b357600080fd5b6143bf8a838b016140ad565b95506060890151945060808901519150808211156143dc57600080fd5b506143e989828a016140ad565b92505060a08701516143fa81613461565b809150509295509295509295565b61ffff8716815260c06020820152600061442560c083018861356d565b6001600160401b03871660408401528281036060840152614446818761356d565b905084608084015282810360a0840152613e72818561356d565b608081526000614473608083018761356d565b6001600160a01b0386166020840152604083018590528281036060840152613fbf818561356d565b60c0815260006144ae60c083018961356d565b6001600160401b038816602084015282810360408401526144cf818861356d565b905085606084015282810360808401526144e9818661356d565b905082810360a0840152613e72818561356d565b606081526000614510606083018661356d565b6001600160401b03949094166020830152506040015291905056fea2646970667358221220c6544e8c04d3c829984a5fbb64371bd730e95eec9c68a85ffc9677379a49209964736f6c634300080c0033",
  "linkReferences": {},
  "deployedLinkReferences": {}
}