{
  "_format": "hh-sol-artifact-1",
  "contractName": "ProxyONFT1155",
  "sourceName": "contracts/token/onft/extension/ProxyONFT1155.sol",
  "abi": [
    {
      "inputs": [
        {
          "internalType": "address",
          "name": "_lzEndpoint",
          "type": "address"
        },
        {
          "internalType": "address",
          "name": "_proxyToken",
          "type": "address"
        }
      ],
      "stateMutability": "nonpayable",
      "type": "constructor"
    },
    {
      "anonymous": false,
      "inputs": [
        {
          "indexed": false,
          "internalType": "uint16",
          "name": "_srcChainId",
          "type": "uint16"
        },
        {
          "indexed": false,
          "internalType": "bytes",
          "name": "_srcAddress",
          "type": "bytes"
        },
        {
          "indexed": false,
          "internalType": "uint64",
          "name": "_nonce",
          "type": "uint64"
        },
        {
          "indexed": false,
          "internalType": "bytes",
          "name": "_payload",
          "type": "bytes"
        },
        {
          "indexed": false,
          "internalType": "bytes",
          "name": "_reason",
          "type": "bytes"
        }
      ],
      "name": "MessageFailed",
      "type": "event"
    },
    {
      "anonymous": false,
      "inputs": [
        {
          "indexed": true,
          "internalType": "address",
          "name": "previousOwner",
          "type": "address"
        },
        {
          "indexed": true,
          "internalType": "address",
          "name": "newOwner",
          "type": "address"
        }
      ],
      "name": "OwnershipTransferred",
      "type": "event"
    },
    {
      "anonymous": false,
      "inputs": [
        {
          "indexed": true,
          "internalType": "uint16",
          "name": "_srcChainId",
          "type": "uint16"
        },
        {
          "indexed": true,
          "internalType": "bytes",
          "name": "_srcAddress",
          "type": "bytes"
        },
        {
          "indexed": true,
          "internalType": "address",
          "name": "_toAddress",
          "type": "address"
        },
        {
          "indexed": false,
          "internalType": "uint256[]",
          "name": "_tokenIds",
          "type": "uint256[]"
        },
        {
          "indexed": false,
          "internalType": "uint256[]",
          "name": "_amounts",
          "type": "uint256[]"
        }
      ],
      "name": "ReceiveBatchFromChain",
      "type": "event"
    },
    {
      "anonymous": false,
      "inputs": [
        {
          "indexed": true,
          "internalType": "uint16",
          "name": "_srcChainId",
          "type": "uint16"
        },
        {
          "indexed": true,
          "internalType": "bytes",
          "name": "_srcAddress",
          "type": "bytes"
        },
        {
          "indexed": true,
          "internalType": "address",
          "name": "_toAddress",
          "type": "address"
        },
        {
          "indexed": false,
          "internalType": "uint256",
          "name": "_tokenId",
          "type": "uint256"
        },
        {
          "indexed": false,
          "internalType": "uint256",
          "name": "_amount",
          "type": "uint256"
        }
      ],
      "name": "ReceiveFromChain",
      "type": "event"
    },
    {
      "anonymous": false,
      "inputs": [
        {
          "indexed": false,
          "internalType": "uint16",
          "name": "_srcChainId",
          "type": "uint16"
        },
        {
          "indexed": false,
          "internalType": "bytes",
          "name": "_srcAddress",
          "type": "bytes"
        },
        {
          "indexed": false,
          "internalType": "uint64",
          "name": "_nonce",
          "type": "uint64"
        },
        {
          "indexed": false,
          "internalType": "bytes32",
          "name": "_payloadHash",
          "type": "bytes32"
        }
      ],
      "name": "RetryMessageSuccess",
      "type": "event"
    },
    {
      "anonymous": false,
      "inputs": [
        {
          "indexed": true,
          "internalType": "uint16",
          "name": "_dstChainId",
          "type": "uint16"
        },
        {
          "indexed": true,
          "internalType": "address",
          "name": "_from",
          "type": "address"
        },
        {
          "indexed": true,
          "internalType": "bytes",
          "name": "_toAddress",
          "type": "bytes"
        },
        {
          "indexed": false,
          "internalType": "uint256[]",
          "name": "_tokenIds",
          "type": "uint256[]"
        },
        {
          "indexed": false,
          "internalType": "uint256[]",
          "name": "_amounts",
          "type": "uint256[]"
        }
      ],
      "name": "SendBatchToChain",
      "type": "event"
    },
    {
      "anonymous": false,
      "inputs": [
        {
          "indexed": true,
          "internalType": "uint16",
          "name": "_dstChainId",
          "type": "uint16"
        },
        {
          "indexed": true,
          "internalType": "address",
          "name": "_from",
          "type": "address"
        },
        {
          "indexed": true,
          "internalType": "bytes",
          "name": "_toAddress",
          "type": "bytes"
        },
        {
          "indexed": false,
          "internalType": "uint256",
          "name": "_tokenId",
          "type": "uint256"
        },
        {
          "indexed": false,
          "internalType": "uint256",
          "name": "_amount",
          "type": "uint256"
        }
      ],
      "name": "SendToChain",
      "type": "event"
    },
    {
      "anonymous": false,
      "inputs": [
        {
          "indexed": false,
          "internalType": "uint16",
          "name": "_dstChainId",
          "type": "uint16"
        },
        {
          "indexed": false,
          "internalType": "uint16",
          "name": "_type",
          "type": "uint16"
        },
        {
          "indexed": false,
          "internalType": "uint256",
          "name": "_minDstGas",
          "type": "uint256"
        }
      ],
      "name": "SetMinDstGas",
      "type": "event"
    },
    {
      "anonymous": false,
      "inputs": [
        {
          "indexed": false,
          "internalType": "address",
          "name": "precrime",
          "type": "address"
        }
      ],
      "name": "SetPrecrime",
      "type": "event"
    },
    {
      "anonymous": false,
      "inputs": [
        {
          "indexed": false,
          "internalType": "uint16",
          "name": "_remoteChainId",
          "type": "uint16"
        },
        {
          "indexed": false,
          "internalType": "bytes",
          "name": "_path",
          "type": "bytes"
        }
      ],
      "name": "SetTrustedRemote",
      "type": "event"
    },
    {
      "anonymous": false,
      "inputs": [
        {
          "indexed": false,
          "internalType": "uint16",
          "name": "_remoteChainId",
          "type": "uint16"
        },
        {
          "indexed": false,
          "internalType": "bytes",
          "name": "_remoteAddress",
          "type": "bytes"
        }
      ],
      "name": "SetTrustedRemoteAddress",
      "type": "event"
    },
    {
      "anonymous": false,
      "inputs": [
        {
          "indexed": false,
          "internalType": "bool",
          "name": "_useCustomAdapterParams",
          "type": "bool"
        }
      ],
      "name": "SetUseCustomAdapterParams",
      "type": "event"
    },
    {
      "inputs": [],
      "name": "DEFAULT_PAYLOAD_SIZE_LIMIT",
      "outputs": [
        {
          "internalType": "uint256",
          "name": "",
          "type": "uint256"
        }
      ],
      "stateMutability": "view",
      "type": "function"
    },
    {
      "inputs": [],
      "name": "FUNCTION_TYPE_SEND",
      "outputs": [
        {
          "internalType": "uint16",
          "name": "",
          "type": "uint16"
        }
      ],
      "stateMutability": "view",
      "type": "function"
    },
    {
      "inputs": [],
      "name": "FUNCTION_TYPE_SEND_BATCH",
      "outputs": [
        {
          "internalType": "uint16",
          "name": "",
          "type": "uint16"
        }
      ],
      "stateMutability": "view",
      "type": "function"
    },
    {
      "inputs": [],
      "name": "NO_EXTRA_GAS",
      "outputs": [
        {
          "internalType": "uint256",
          "name": "",
          "type": "uint256"
        }
      ],
      "stateMutability": "view",
      "type": "function"
    },
    {
      "inputs": [
        {
          "internalType": "uint16",
          "name": "_dstChainId",
          "type": "uint16"
        },
        {
          "internalType": "bytes",
          "name": "_toAddress",
          "type": "bytes"
        },
        {
          "internalType": "uint256[]",
          "name": "_tokenIds",
          "type": "uint256[]"
        },
        {
          "internalType": "uint256[]",
          "name": "_amounts",
          "type": "uint256[]"
        },
        {
          "internalType": "bool",
          "name": "_useZro",
          "type": "bool"
        },
        {
          "internalType": "bytes",
          "name": "_adapterParams",
          "type": "bytes"
        }
      ],
      "name": "estimateSendBatchFee",
      "outputs": [
        {
          "internalType": "uint256",
          "name": "nativeFee",
          "type": "uint256"
        },
        {
          "internalType": "uint256",
          "name": "zroFee",
          "type": "uint256"
        }
      ],
      "stateMutability": "view",
      "type": "function"
    },
    {
      "inputs": [
        {
          "internalType": "uint16",
          "name": "_dstChainId",
          "type": "uint16"
        },
        {
          "internalType": "bytes",
          "name": "_toAddress",
          "type": "bytes"
        },
        {
          "internalType": "uint256",
          "name": "_tokenId",
          "type": "uint256"
        },
        {
          "internalType": "uint256",
          "name": "_amount",
          "type": "uint256"
        },
        {
          "internalType": "bool",
          "name": "_useZro",
          "type": "bool"
        },
        {
          "internalType": "bytes",
          "name": "_adapterParams",
          "type": "bytes"
        }
      ],
      "name": "estimateSendFee",
      "outputs": [
        {
          "internalType": "uint256",
          "name": "nativeFee",
          "type": "uint256"
        },
        {
          "internalType": "uint256",
          "name": "zroFee",
          "type": "uint256"
        }
      ],
      "stateMutability": "view",
      "type": "function"
    },
    {
      "inputs": [
        {
          "internalType": "uint16",
          "name": "",
          "type": "uint16"
        },
        {
          "internalType": "bytes",
          "name": "",
          "type": "bytes"
        },
        {
          "internalType": "uint64",
          "name": "",
          "type": "uint64"
        }
      ],
      "name": "failedMessages",
      "outputs": [
        {
          "internalType": "bytes32",
          "name": "",
          "type": "bytes32"
        }
      ],
      "stateMutability": "view",
      "type": "function"
    },
    {
      "inputs": [
        {
          "internalType": "uint16",
          "name": "_srcChainId",
          "type": "uint16"
        },
        {
          "internalType": "bytes",
          "name": "_srcAddress",
          "type": "bytes"
        }
      ],
      "name": "forceResumeReceive",
      "outputs": [],
      "stateMutability": "nonpayable",
      "type": "function"
    },
    {
      "inputs": [
        {
          "internalType": "uint16",
          "name": "_version",
          "type": "uint16"
        },
        {
          "internalType": "uint16",
          "name": "_chainId",
          "type": "uint16"
        },
        {
          "internalType": "address",
          "name": "",
          "type": "address"
        },
        {
          "internalType": "uint256",
          "name": "_configType",
          "type": "uint256"
        }
      ],
      "name": "getConfig",
      "outputs": [
        {
          "internalType": "bytes",
          "name": "",
          "type": "bytes"
        }
      ],
      "stateMutability": "view",
      "type": "function"
    },
    {
      "inputs": [
        {
          "internalType": "uint16",
          "name": "_remoteChainId",
          "type": "uint16"
        }
      ],
      "name": "getTrustedRemoteAddress",
      "outputs": [
        {
          "internalType": "bytes",
          "name": "",
          "type": "bytes"
        }
      ],
      "stateMutability": "view",
      "type": "function"
    },
    {
      "inputs": [
        {
          "internalType": "uint16",
          "name": "_srcChainId",
          "type": "uint16"
        },
        {
          "internalType": "bytes",
          "name": "_srcAddress",
          "type": "bytes"
        }
      ],
      "name": "isTrustedRemote",
      "outputs": [
        {
          "internalType": "bool",
          "name": "",
          "type": "bool"
        }
      ],
      "stateMutability": "view",
      "type": "function"
    },
    {
      "inputs": [],
      "name": "lzEndpoint",
      "outputs": [
        {
          "internalType": "contract ILayerZeroEndpoint",
          "name": "",
          "type": "address"
        }
      ],
      "stateMutability": "view",
      "type": "function"
    },
    {
      "inputs": [
        {
          "internalType": "uint16",
          "name": "_srcChainId",
          "type": "uint16"
        },
        {
          "internalType": "bytes",
          "name": "_srcAddress",
          "type": "bytes"
        },
        {
          "internalType": "uint64",
          "name": "_nonce",
          "type": "uint64"
        },
        {
          "internalType": "bytes",
          "name": "_payload",
          "type": "bytes"
        }
      ],
      "name": "lzReceive",
      "outputs": [],
      "stateMutability": "nonpayable",
      "type": "function"
    },
    {
      "inputs": [
        {
          "internalType": "uint16",
          "name": "",
          "type": "uint16"
        },
        {
          "internalType": "uint16",
          "name": "",
          "type": "uint16"
        }
      ],
      "name": "minDstGasLookup",
      "outputs": [
        {
          "internalType": "uint256",
          "name": "",
          "type": "uint256"
        }
      ],
      "stateMutability": "view",
      "type": "function"
    },
    {
      "inputs": [
        {
          "internalType": "uint16",
          "name": "_srcChainId",
          "type": "uint16"
        },
        {
          "internalType": "bytes",
          "name": "_srcAddress",
          "type": "bytes"
        },
        {
          "internalType": "uint64",
          "name": "_nonce",
          "type": "uint64"
        },
        {
          "internalType": "bytes",
          "name": "_payload",
          "type": "bytes"
        }
      ],
      "name": "nonblockingLzReceive",
      "outputs": [],
      "stateMutability": "nonpayable",
      "type": "function"
    },
    {
      "inputs": [
        {
          "internalType": "address",
          "name": "_operator",
          "type": "address"
        },
        {
          "internalType": "address",
          "name": "",
          "type": "address"
        },
        {
          "internalType": "uint256[]",
          "name": "",
          "type": "uint256[]"
        },
        {
          "internalType": "uint256[]",
          "name": "",
          "type": "uint256[]"
        },
        {
          "internalType": "bytes",
          "name": "",
          "type": "bytes"
        }
      ],
      "name": "onERC1155BatchReceived",
      "outputs": [
        {
          "internalType": "bytes4",
          "name": "",
          "type": "bytes4"
        }
      ],
      "stateMutability": "nonpayable",
      "type": "function"
    },
    {
      "inputs": [
        {
          "internalType": "address",
          "name": "_operator",
          "type": "address"
        },
        {
          "internalType": "address",
          "name": "",
          "type": "address"
        },
        {
          "internalType": "uint256",
          "name": "",
          "type": "uint256"
        },
        {
          "internalType": "uint256",
          "name": "",
          "type": "uint256"
        },
        {
          "internalType": "bytes",
          "name": "",
          "type": "bytes"
        }
      ],
      "name": "onERC1155Received",
      "outputs": [
        {
          "internalType": "bytes4",
          "name": "",
          "type": "bytes4"
        }
      ],
      "stateMutability": "nonpayable",
      "type": "function"
    },
    {
      "inputs": [],
      "name": "owner",
      "outputs": [
        {
          "internalType": "address",
          "name": "",
          "type": "address"
        }
      ],
      "stateMutability": "view",
      "type": "function"
    },
    {
      "inputs": [
        {
          "internalType": "uint16",
          "name": "",
          "type": "uint16"
        }
      ],
      "name": "payloadSizeLimitLookup",
      "outputs": [
        {
          "internalType": "uint256",
          "name": "",
          "type": "uint256"
        }
      ],
      "stateMutability": "view",
      "type": "function"
    },
    {
      "inputs": [],
      "name": "precrime",
      "outputs": [
        {
          "internalType": "address",
          "name": "",
          "type": "address"
        }
      ],
      "stateMutability": "view",
      "type": "function"
    },
    {
      "inputs": [],
      "name": "renounceOwnership",
      "outputs": [],
      "stateMutability": "nonpayable",
      "type": "function"
    },
    {
      "inputs": [
        {
          "internalType": "uint16",
          "name": "_srcChainId",
          "type": "uint16"
        },
        {
          "internalType": "bytes",
          "name": "_srcAddress",
          "type": "bytes"
        },
        {
          "internalType": "uint64",
          "name": "_nonce",
          "type": "uint64"
        },
        {
          "internalType": "bytes",
          "name": "_payload",
          "type": "bytes"
        }
      ],
      "name": "retryMessage",
      "outputs": [],
      "stateMutability": "payable",
      "type": "function"
    },
    {
      "inputs": [
        {
          "internalType": "address",
          "name": "_from",
          "type": "address"
        },
        {
          "internalType": "uint16",
          "name": "_dstChainId",
          "type": "uint16"
        },
        {
          "internalType": "bytes",
          "name": "_toAddress",
          "type": "bytes"
        },
        {
          "internalType": "uint256[]",
          "name": "_tokenIds",
          "type": "uint256[]"
        },
        {
          "internalType": "uint256[]",
          "name": "_amounts",
          "type": "uint256[]"
        },
        {
          "internalType": "address payable",
          "name": "_refundAddress",
          "type": "address"
        },
        {
          "internalType": "address",
          "name": "_zroPaymentAddress",
          "type": "address"
        },
        {
          "internalType": "bytes",
          "name": "_adapterParams",
          "type": "bytes"
        }
      ],
      "name": "sendBatchFrom",
      "outputs": [],
      "stateMutability": "payable",
      "type": "function"
    },
    {
      "inputs": [
        {
          "internalType": "address",
          "name": "_from",
          "type": "address"
        },
        {
          "internalType": "uint16",
          "name": "_dstChainId",
          "type": "uint16"
        },
        {
          "internalType": "bytes",
          "name": "_toAddress",
          "type": "bytes"
        },
        {
          "internalType": "uint256",
          "name": "_tokenId",
          "type": "uint256"
        },
        {
          "internalType": "uint256",
          "name": "_amount",
          "type": "uint256"
        },
        {
          "internalType": "address payable",
          "name": "_refundAddress",
          "type": "address"
        },
        {
          "internalType": "address",
          "name": "_zroPaymentAddress",
          "type": "address"
        },
        {
          "internalType": "bytes",
          "name": "_adapterParams",
          "type": "bytes"
        }
      ],
      "name": "sendFrom",
      "outputs": [],
      "stateMutability": "payable",
      "type": "function"
    },
    {
      "inputs": [
        {
          "internalType": "uint16",
          "name": "_version",
          "type": "uint16"
        },
        {
          "internalType": "uint16",
          "name": "_chainId",
          "type": "uint16"
        },
        {
          "internalType": "uint256",
          "name": "_configType",
          "type": "uint256"
        },
        {
          "internalType": "bytes",
          "name": "_config",
          "type": "bytes"
        }
      ],
      "name": "setConfig",
      "outputs": [],
      "stateMutability": "nonpayable",
      "type": "function"
    },
    {
      "inputs": [
        {
          "internalType": "uint16",
          "name": "_dstChainId",
          "type": "uint16"
        },
        {
          "internalType": "uint16",
          "name": "_packetType",
          "type": "uint16"
        },
        {
          "internalType": "uint256",
          "name": "_minGas",
          "type": "uint256"
        }
      ],
      "name": "setMinDstGas",
      "outputs": [],
      "stateMutability": "nonpayable",
      "type": "function"
    },
    {
      "inputs": [
        {
          "internalType": "uint16",
          "name": "_dstChainId",
          "type": "uint16"
        },
        {
          "internalType": "uint256",
          "name": "_size",
          "type": "uint256"
        }
      ],
      "name": "setPayloadSizeLimit",
      "outputs": [],
      "stateMutability": "nonpayable",
      "type": "function"
    },
    {
      "inputs": [
        {
          "internalType": "address",
          "name": "_precrime",
          "type": "address"
        }
      ],
      "name": "setPrecrime",
      "outputs": [],
      "stateMutability": "nonpayable",
      "type": "function"
    },
    {
      "inputs": [
        {
          "internalType": "uint16",
          "name": "_version",
          "type": "uint16"
        }
      ],
      "name": "setReceiveVersion",
      "outputs": [],
      "stateMutability": "nonpayable",
      "type": "function"
    },
    {
      "inputs": [
        {
          "internalType": "uint16",
          "name": "_version",
          "type": "uint16"
        }
      ],
      "name": "setSendVersion",
      "outputs": [],
      "stateMutability": "nonpayable",
      "type": "function"
    },
    {
      "inputs": [
        {
          "internalType": "uint16",
          "name": "_srcChainId",
          "type": "uint16"
        },
        {
          "internalType": "bytes",
          "name": "_path",
          "type": "bytes"
        }
      ],
      "name": "setTrustedRemote",
      "outputs": [],
      "stateMutability": "nonpayable",
      "type": "function"
    },
    {
      "inputs": [
        {
          "internalType": "uint16",
          "name": "_remoteChainId",
          "type": "uint16"
        },
        {
          "internalType": "bytes",
          "name": "_remoteAddress",
          "type": "bytes"
        }
      ],
      "name": "setTrustedRemoteAddress",
      "outputs": [],
      "stateMutability": "nonpayable",
      "type": "function"
    },
    {
      "inputs": [
        {
          "internalType": "bool",
          "name": "_useCustomAdapterParams",
          "type": "bool"
        }
      ],
      "name": "setUseCustomAdapterParams",
      "outputs": [],
      "stateMutability": "nonpayable",
      "type": "function"
    },
    {
      "inputs": [
        {
          "internalType": "bytes4",
          "name": "interfaceId",
          "type": "bytes4"
        }
      ],
      "name": "supportsInterface",
      "outputs": [
        {
          "internalType": "bool",
          "name": "",
          "type": "bool"
        }
      ],
      "stateMutability": "view",
      "type": "function"
    },
    {
      "inputs": [],
      "name": "token",
      "outputs": [
        {
          "internalType": "contract IERC1155",
          "name": "",
          "type": "address"
        }
      ],
      "stateMutability": "view",
      "type": "function"
    },
    {
      "inputs": [
        {
          "internalType": "address",
          "name": "newOwner",
          "type": "address"
        }
      ],
      "name": "transferOwnership",
      "outputs": [],
      "stateMutability": "nonpayable",
      "type": "function"
    },
    {
      "inputs": [
        {
          "internalType": "uint16",
          "name": "",
          "type": "uint16"
        }
      ],
      "name": "trustedRemoteLookup",
      "outputs": [
        {
          "internalType": "bytes",
          "name": "",
          "type": "bytes"
        }
      ],
      "stateMutability": "view",
      "type": "function"
    },
    {
      "inputs": [],
      "name": "useCustomAdapterParams",
      "outputs": [
        {
          "internalType": "bool",
          "name": "",
          "type": "bool"
        }
      ],
      "stateMutability": "view",
      "type": "function"
    }
  ],
  "bytecode": "0x60c06040523480156200001157600080fd5b50604051620037c0380380620037c08339810160408190526200003491620002a9565b8180806200004233620000e4565b6001600160a01b0390811660805262000074925083169050636cdb3d1360e11b62000134602090811b6200168517901c565b620000d15760405162461bcd60e51b8152602060048201526024808201527f50726f78794f4e4654313135353a20696e76616c69642045524331313535207460448201526337b5b2b760e11b606482015260840160405180910390fd5b6001600160a01b031660a0525062000339565b600080546001600160a01b038381166001600160a01b0319831681178455604051919092169283917f8be0079c531659141344cd1fd0a4f28419497f9722a3daafe3b4186f6b6457e09190a35050565b600062000141836200015e565b801562000155575062000155838362000196565b90505b92915050565b600062000173826301ffc9a760e01b62000196565b80156200015857506200018f826001600160e01b031962000196565b1592915050565b604080516001600160e01b0319831660248083019190915282518083039091018152604490910182526020810180516001600160e01b03166301ffc9a760e01b179052905160009190829081906001600160a01b0387169061753090620001ff908690620002e1565b6000604051808303818686fa925050503d80600081146200023d576040519150601f19603f3d011682016040523d82523d6000602084013e62000242565b606091505b50915091506020815110156200025f576000935050505062000158565b8180156200028257506000818060200190518101906200028091906200031f565b115b9695505050505050565b80516001600160a01b0381168114620002a457600080fd5b919050565b60008060408385031215620002bd57600080fd5b620002c8836200028c565b9150620002d8602084016200028c565b90509250929050565b6000825160005b81811015620003045760208186018101518583015201620002e8565b8181111562000314576000828501525b509190910192915050565b6000602082840312156200033257600080fd5b5051919050565b60805160a05161341b620003a56000396000818161076501528181611f9201526122690152600081816105b50152818161078a01528181610a0401528181610aac01528181610bce01528181611021015281816111570152818161160e01526121d6015261341b6000f3fe6080604052600436106102245760003560e01c8063950c8a7411610123578063cbed8b9c116100ab578063ed629c5c1161006f578063ed629c5c146106d9578063f23a6e61146106f3578063f2fde38b14610713578063f5ecbdbc14610733578063fc0c546a1461075357600080fd5b8063cbed8b9c14610646578063d1deba1f14610666578063df2a5b3b14610679578063eab45d9c14610699578063eb8d72b7146106b957600080fd5b8063b2535663116100f2578063b253566314610583578063b353aaa7146105a3578063baf3292d146105d7578063bc197c81146105f7578063c44618341461063057600080fd5b8063950c8a741461050e5780639f38369a1461052e578063a6c3d1651461054e578063af3fb21c1461056e57600080fd5b806344770515116101b1578063715018a611610175578063715018a61461042d5780637533d788146104425780638608e5f81461046f5780638cfd8f5c146104a45780638da5cb5b146104dc57600080fd5b806344770515146103835780634ab4e687146103985780634db8226a146103ab5780635b8c41e6146103be57806366ad5c8a1461040d57600080fd5b806310ddb137116101f857806310ddb137146102c0578063149e3e1f146102e05780633d8b38f6146103085780633f1f4fa41461032857806342d65a8d1461036357600080fd5b80621d35671461022957806301ffc9a71461024b57806307e0db17146102805780630df37483146102a0575b600080fd5b34801561023557600080fd5b50610249610244366004612545565b610787565b005b34801561025757600080fd5b5061026b6102663660046125d8565b6109b8565b60405190151581526020015b60405180910390f35b34801561028c57600080fd5b5061024961029b366004612602565b6109e3565b3480156102ac57600080fd5b506102496102bb36600461261d565b610a6c565b3480156102cc57600080fd5b506102496102db366004612602565b610a8b565b3480156102ec57600080fd5b506102f5600281565b60405161ffff9091168152602001610277565b34801561031457600080fd5b5061026b610323366004612647565b610ae3565b34801561033457600080fd5b50610355610343366004612602565b60036020526000908152604090205481565b604051908152602001610277565b34801561036f57600080fd5b5061024961037e366004612647565b610baf565b34801561038f57600080fd5b50610355600081565b6102496103a6366004612805565b610c35565b6102496103b93660046128f4565b610c4f565b3480156103ca57600080fd5b506103556103d936600461299a565b6005602090815260009384526040808520845180860184018051928152908401958401959095209452929052825290205481565b34801561041957600080fd5b50610249610428366004612545565b610c6f565b34801561043957600080fd5b50610249610d4b565b34801561044e57600080fd5b5061046261045d366004612602565b610d5f565b6040516102779190612a53565b34801561047b57600080fd5b5061048f61048a366004612a76565b610df9565b60408051928352602083019190915201610277565b3480156104b057600080fd5b506103556104bf366004612b0c565b600260209081526000928352604080842090915290825290205481565b3480156104e857600080fd5b506000546001600160a01b03165b6040516001600160a01b039091168152602001610277565b34801561051a57600080fd5b506004546104f6906001600160a01b031681565b34801561053a57600080fd5b50610462610549366004612602565b610e29565b34801561055a57600080fd5b50610249610569366004612647565b610f40565b34801561057a57600080fd5b506102f5600181565b34801561058f57600080fd5b5061048f61059e366004612b3f565b610fe0565b3480156105af57600080fd5b506104f67f000000000000000000000000000000000000000000000000000000000000000081565b3480156105e357600080fd5b506102496105f2366004612bdb565b6110ae565b34801561060357600080fd5b50610617610612366004612bf8565b61110b565b6040516001600160e01b03199091168152602001610277565b34801561063c57600080fd5b5061035561271081565b34801561065257600080fd5b50610249610661366004612ca5565b611138565b610249610674366004612545565b6111cd565b34801561068557600080fd5b50610249610694366004612d13565b6113e3565b3480156106a557600080fd5b506102496106b4366004612d4f565b611495565b3480156106c557600080fd5b506102496106d4366004612647565b6114de565b3480156106e557600080fd5b5060065461026b9060ff1681565b3480156106ff57600080fd5b5061061761070e366004612d6a565b611538565b34801561071f57600080fd5b5061024961072e366004612bdb565b611564565b34801561073f57600080fd5b5061046261074e366004612dd2565b6115dd565b34801561075f57600080fd5b506104f67f000000000000000000000000000000000000000000000000000000000000000081565b337f00000000000000000000000000000000000000000000000000000000000000006001600160a01b0316146108045760405162461bcd60e51b815260206004820152601e60248201527f4c7a4170703a20696e76616c696420656e64706f696e742063616c6c6572000060448201526064015b60405180910390fd5b61ffff86166000908152600160205260408120805461082290612e1f565b80601f016020809104026020016040519081016040528092919081815260200182805461084e90612e1f565b801561089b5780601f106108705761010080835404028352916020019161089b565b820191906000526020600020905b81548152906001019060200180831161087e57829003601f168201915b505050505090508051868690501480156108b6575060008151115b80156108de5750805160208201206040516108d49088908890612e5a565b6040518091039020145b6109395760405162461bcd60e51b815260206004820152602660248201527f4c7a4170703a20696e76616c696420736f757263652073656e64696e6720636f6044820152651b9d1c9858dd60d21b60648201526084016107fb565b6109af8787878080601f01602080910402602001604051908101604052809392919081815260200183838082843760009201919091525050604080516020601f8a018190048102820181019092528881528a9350915088908890819084018382808284376000920191909152506116a192505050565b50505050505050565b60006001600160e01b03198216630271189760e51b14806109dd57506109dd8261171a565b92915050565b6109eb61174f565b6040516307e0db1760e01b815261ffff821660048201527f00000000000000000000000000000000000000000000000000000000000000006001600160a01b0316906307e0db17906024015b600060405180830381600087803b158015610a5157600080fd5b505af1158015610a65573d6000803e3d6000fd5b5050505050565b610a7461174f565b61ffff909116600090815260036020526040902055565b610a9361174f565b6040516310ddb13760e01b815261ffff821660048201527f00000000000000000000000000000000000000000000000000000000000000006001600160a01b0316906310ddb13790602401610a37565b61ffff831660009081526001602052604081208054829190610b0490612e1f565b80601f0160208091040260200160405190810160405280929190818152602001828054610b3090612e1f565b8015610b7d5780601f10610b5257610100808354040283529160200191610b7d565b820191906000526020600020905b815481529060010190602001808311610b6057829003601f168201915b505050505090508383604051610b94929190612e5a565b60405180910390208180519060200120149150509392505050565b610bb761174f565b6040516342d65a8d60e01b81526001600160a01b037f000000000000000000000000000000000000000000000000000000000000000016906342d65a8d90610c0790869086908690600401612e93565b600060405180830381600087803b158015610c2157600080fd5b505af11580156109af573d6000803e3d6000fd5b610c4588888888888888886117a9565b5050505050505050565b610c45888888610c5e89611991565b610c6789611991565b8888886117a9565b333014610ccd5760405162461bcd60e51b815260206004820152602660248201527f4e6f6e626c6f636b696e674c7a4170703a2063616c6c6572206d7573742062656044820152650204c7a4170760d41b60648201526084016107fb565b610d438686868080601f01602080910402602001604051908101604052809392919081815260200183838082843760009201919091525050604080516020601f8901819004810282018101909252878152899350915087908790819084018382808284376000920191909152506119dc92505050565b505050505050565b610d5361174f565b610d5d6000611b2a565b565b60016020526000908152604090208054610d7890612e1f565b80601f0160208091040260200160405190810160405280929190818152602001828054610da490612e1f565b8015610df15780601f10610dc657610100808354040283529160200191610df1565b820191906000526020600020905b815481529060010190602001808311610dd457829003601f168201915b505050505081565b600080610e1a8888610e0a89611991565b610e1389611991565b8888610fe0565b91509150965096945050505050565b61ffff8116600090815260016020526040812080546060929190610e4c90612e1f565b80601f0160208091040260200160405190810160405280929190818152602001828054610e7890612e1f565b8015610ec55780601f10610e9a57610100808354040283529160200191610ec5565b820191906000526020600020905b815481529060010190602001808311610ea857829003601f168201915b50505050509050805160001415610f1e5760405162461bcd60e51b815260206004820152601d60248201527f4c7a4170703a206e6f20747275737465642070617468207265636f726400000060448201526064016107fb565b610f39600060148351610f319190612ec7565b839190611b7a565b9392505050565b610f4861174f565b818130604051602001610f5d93929190612ede565b60408051601f1981840301815291815261ffff85166000908152600160209081529190208251610f92939192909101906123c2565b50610fa08361ffff16611c87565b7f8c0400cfe2d1199b1a725c78960bcc2a344d869b80590d0f2bd005db15a572ce838383604051610fd393929190612e93565b60405180910390a1505050565b6000806000878787604051602001610ffa93929190612f3f565b60408051601f198184030181529082905263040a7bb160e41b825291506001600160a01b037f000000000000000000000000000000000000000000000000000000000000000016906340a7bb109061105e908c90309086908b908b90600401612f78565b6040805180830381865afa15801561107a573d6000803e3d6000fd5b505050506040513d601f19601f8201168201806040525081019061109e9190612fcc565b9250925050965096945050505050565b6110b661174f565b600480546001600160a01b0319166001600160a01b0383169081179091556040519081527f5db758e995a17ec1ad84bdef7e8c3293a0bd6179bcce400dff5d4c3d87db726b906020015b60405180910390a150565b60006001600160a01b03861630146111255750600061112f565b5063bc197c8160e01b5b95945050505050565b61114061174f565b6040516332fb62e760e21b81526001600160a01b037f0000000000000000000000000000000000000000000000000000000000000000169063cbed8b9c906111949088908890889088908890600401612ff0565b600060405180830381600087803b1580156111ae57600080fd5b505af11580156111c2573d6000803e3d6000fd5b505050505050505050565b61ffff861660009081526005602052604080822090516111f09088908890612e5a565b90815260408051602092819003830190206001600160401b038716600090815292529020549050806112705760405162461bcd60e51b815260206004820152602360248201527f4e6f6e626c6f636b696e674c7a4170703a206e6f2073746f726564206d65737360448201526261676560e81b60648201526084016107fb565b808383604051611281929190612e5a565b6040518091039020146112e05760405162461bcd60e51b815260206004820152602160248201527f4e6f6e626c6f636b696e674c7a4170703a20696e76616c6964207061796c6f616044820152601960fa1b60648201526084016107fb565b61ffff871660009081526005602052604080822090516113039089908990612e5a565b90815260408051602092819003830181206001600160401b038916600090815290845282902093909355601f8801829004820283018201905286825261139b918991899089908190840183828082843760009201919091525050604080516020601f8a018190048102820181019092528881528a9350915088908890819084018382808284376000920191909152506119dc92505050565b7fc264d91f3adc5588250e1551f547752ca0cfa8f6b530d243b9f9f4cab10ea8e587878787856040516113d2959493929190613029565b60405180910390a150505050505050565b6113eb61174f565b600081116114335760405162461bcd60e51b81526020600482015260156024820152744c7a4170703a20696e76616c6964206d696e47617360581b60448201526064016107fb565b61ffff83811660008181526002602090815260408083209487168084529482529182902085905581519283528201929092529081018290527f9d5c7c0b934da8fefa9c7760c98383778a12dfbfc0c3b3106518f43fb9508ac090606001610fd3565b61149d61174f565b6006805460ff19168215159081179091556040519081527f1584ad594a70cbe1e6515592e1272a987d922b097ead875069cebe8b40c004a490602001611100565b6114e661174f565b61ffff83166000908152600160205260409020611504908383612446565b507ffa41487ad5d6728f0b19276fa1eddc16558578f5109fc39d2dc33c3230470dab838383604051610fd393929190612e93565b60006001600160a01b03861630146115525750600061112f565b5063f23a6e6160e01b95945050505050565b61156c61174f565b6001600160a01b0381166115d15760405162461bcd60e51b815260206004820152602660248201527f4f776e61626c653a206e6577206f776e657220697320746865207a65726f206160448201526564647265737360d01b60648201526084016107fb565b6115da81611b2a565b50565b604051633d7b2f6f60e21b815261ffff808616600483015284166024820152306044820152606481018290526060907f00000000000000000000000000000000000000000000000000000000000000006001600160a01b03169063f5ecbdbc90608401600060405180830381865afa15801561165d573d6000803e3d6000fd5b505050506040513d6000823e601f3d908101601f1916820160405261112f91908101906130b1565b600061169083611ccc565b8015610f395750610f398383611cff565b6000806117045a60966366ad5c8a60e01b898989896040516024016116c994939291906130e5565b60408051601f198184030181529190526020810180516001600160e01b03166001600160e01b03199093169290921790915230929190611dec565b9150915081610d4357610d438686868685611e76565b60006001600160e01b031982166319abbbbb60e11b14806109dd57506301ffc9a760e01b6001600160e01b03198316146109dd565b6000546001600160a01b03163314610d5d5760405162461bcd60e51b815260206004820181905260248201527f4f776e61626c653a2063616c6c6572206973206e6f7420746865206f776e657260448201526064016107fb565b6117b68888888888611f13565b60008686866040516020016117cd93929190612f3f565b60405160208183030381529060405290508551600114156118d35760065460ff161561180657611801886001846000611fcd565b611825565b8151156118255760405162461bcd60e51b81526004016107fb90613123565b6118338882868686346120ac565b866040516118419190613167565b6040518091039020896001600160a01b03168961ffff167f968b0d61ebcf43e5d76ed87bd2c4ee2f22b4969b9f4ca49e3373c025eddd5eeb8960008151811061188c5761188c613183565b6020026020010151896000815181106118a7576118a7613183565b60200260200101516040516118c6929190918252602082015260400190565b60405180910390a46111c2565b6001865111156111c25760065460ff16156118fb576118f6886002846000611fcd565b61191a565b81511561191a5760405162461bcd60e51b81526004016107fb90613123565b6119288882868686346120ac565b866040516119369190613167565b6040518091039020896001600160a01b03168961ffff167fddd15f7cfbd674ac2096d598f1650367f8a8bd72b4e3abd85591099ea3b57e33898960405161197e929190613199565b60405180910390a4505050505050505050565b604080516001808252818301909252606091600091906020808301908036833701905050905082816000815181106119cb576119cb613183565b602090810291909101015292915050565b6000806000838060200190518101906119f59190613219565b60148301519295509093509150611a0e88828585612252565b825160011415611ab857806001600160a01b031687604051611a309190613167565b60405180910390208961ffff167f1bf64e58d19fc43de4c44b3d1bb1fae313979af831a7a39f3297564294329f0f86600081518110611a7157611a71613183565b602002602001015186600081518110611a8c57611a8c613183565b6020026020010151604051611aab929190918252602082015260400190565b60405180910390a4610c45565b600183511115610c4557806001600160a01b031687604051611ada9190613167565b60405180910390208961ffff167f1ae08edbbcd7baa8d064835de8593ce16b313414525ac89534e349f4da7926e48686604051611b18929190613199565b60405180910390a45050505050505050565b600080546001600160a01b038381166001600160a01b0319831681178455604051919092169283917f8be0079c531659141344cd1fd0a4f28419497f9722a3daafe3b4186f6b6457e09190a35050565b606081611b8881601f6132a0565b1015611bc75760405162461bcd60e51b815260206004820152600e60248201526d736c6963655f6f766572666c6f7760901b60448201526064016107fb565b611bd182846132a0565b84511015611c155760405162461bcd60e51b8152602060048201526011602482015270736c6963655f6f75744f66426f756e647360781b60448201526064016107fb565b606082158015611c345760405191506000825260208201604052611c7e565b6040519150601f8416801560200281840101858101878315602002848b0101015b81831015611c6d578051835260209283019201611c55565b5050858452601f01601f1916604052505b50949350505050565b6115da81604051602401611c9d91815260200190565b60408051601f198184030181529190526020810180516001600160e01b031663f82c50f160e01b1790526122d2565b6000611cdf826301ffc9a760e01b611cff565b80156109dd5750611cf8826001600160e01b0319611cff565b1592915050565b604080516001600160e01b0319831660248083019190915282518083039091018152604490910182526020810180516001600160e01b03166301ffc9a760e01b179052905160009190829081906001600160a01b0387169061753090611d66908690613167565b6000604051808303818686fa925050503d8060008114611da2576040519150601f19603f3d011682016040523d82523d6000602084013e611da7565b606091505b5091509150602081511015611dc257600093505050506109dd565b818015611de25750600081806020019051810190611de091906132b8565b115b9695505050505050565b6000606060008060008661ffff166001600160401b03811115611e1157611e116126b9565b6040519080825280601f01601f191660200182016040528015611e3b576020820181803683370190505b50905060008087516020890160008d8df191503d925086831115611e5d578692505b828152826000602083013e909890975095505050505050565b8180519060200120600560008761ffff1661ffff16815260200190815260200160002085604051611ea79190613167565b9081526040805191829003602090810183206001600160401b0388166000908152915220919091557fe183f33de2837795525b4792ca4cd60535bd77c53b7e7030060bfcf5734d6b0c90611f0490879087908790879087906132d1565b60405180910390a15050505050565b6001600160a01b0385163314611f7b5760405162461bcd60e51b815260206004820152602760248201527f50726f78794f4e4654313135353a206f776e6572206973206e6f742073656e646044820152661031b0b63632b960c91b60648201526084016107fb565b604051631759616b60e11b81526001600160a01b037f00000000000000000000000000000000000000000000000000000000000000001690632eb2c2d690611194908890309087908790600401613323565b6000611fd8836122f3565b61ffff80871660009081526002602090815260408083209389168352929052908120549192509061200a9084906132a0565b90506000811161205c5760405162461bcd60e51b815260206004820152601a60248201527f4c7a4170703a206d696e4761734c696d6974206e6f742073657400000000000060448201526064016107fb565b80821015610d435760405162461bcd60e51b815260206004820152601b60248201527f4c7a4170703a20676173206c696d697420697320746f6f206c6f77000000000060448201526064016107fb565b61ffff8616600090815260016020526040812080546120ca90612e1f565b80601f01602080910402602001604051908101604052809291908181526020018280546120f690612e1f565b80156121435780601f1061211857610100808354040283529160200191612143565b820191906000526020600020905b81548152906001019060200180831161212657829003601f168201915b505050505090508051600014156121b55760405162461bcd60e51b815260206004820152603060248201527f4c7a4170703a2064657374696e6174696f6e20636861696e206973206e6f742060448201526f61207472757374656420736f7572636560801b60648201526084016107fb565b6121c087875161234f565b60405162c5803160e81b81526001600160a01b037f0000000000000000000000000000000000000000000000000000000000000000169063c5803100908490612217908b9086908c908c908c908c9060040161337e565b6000604051808303818588803b15801561223057600080fd5b505af1158015612244573d6000803e3d6000fd5b505050505050505050505050565b604051631759616b60e11b81526001600160a01b037f00000000000000000000000000000000000000000000000000000000000000001690632eb2c2d6906122a4903090879087908790600401613323565b600060405180830381600087803b1580156122be57600080fd5b505af1158015610c45573d6000803e3d6000fd5b80516a636f6e736f6c652e6c6f67602083016000808483855afa5050505050565b60006022825110156123475760405162461bcd60e51b815260206004820152601c60248201527f4c7a4170703a20696e76616c69642061646170746572506172616d730000000060448201526064016107fb565b506022015190565b61ffff82166000908152600360205260409020548061236d57506127105b808211156123bd5760405162461bcd60e51b815260206004820181905260248201527f4c7a4170703a207061796c6f61642073697a6520697320746f6f206c6172676560448201526064016107fb565b505050565b8280546123ce90612e1f565b90600052602060002090601f0160209004810192826123f05760008555612436565b82601f1061240957805160ff1916838001178555612436565b82800160010185558215612436579182015b8281111561243657825182559160200191906001019061241b565b506124429291506124ba565b5090565b82805461245290612e1f565b90600052602060002090601f0160209004810192826124745760008555612436565b82601f1061248d5782800160ff19823516178555612436565b82800160010185558215612436579182015b8281111561243657823582559160200191906001019061249f565b5b8082111561244257600081556001016124bb565b803561ffff811681146124e157600080fd5b919050565b60008083601f8401126124f857600080fd5b5081356001600160401b0381111561250f57600080fd5b60208301915083602082850101111561252757600080fd5b9250929050565b80356001600160401b03811681146124e157600080fd5b6000806000806000806080878903121561255e57600080fd5b612567876124cf565b955060208701356001600160401b038082111561258357600080fd5b61258f8a838b016124e6565b90975095508591506125a360408a0161252e565b945060608901359150808211156125b957600080fd5b506125c689828a016124e6565b979a9699509497509295939492505050565b6000602082840312156125ea57600080fd5b81356001600160e01b031981168114610f3957600080fd5b60006020828403121561261457600080fd5b610f39826124cf565b6000806040838503121561263057600080fd5b612639836124cf565b946020939093013593505050565b60008060006040848603121561265c57600080fd5b612665846124cf565b925060208401356001600160401b0381111561268057600080fd5b61268c868287016124e6565b9497909650939450505050565b6001600160a01b03811681146115da57600080fd5b80356124e181612699565b634e487b7160e01b600052604160045260246000fd5b604051601f8201601f191681016001600160401b03811182821017156126f7576126f76126b9565b604052919050565b60006001600160401b03821115612718576127186126b9565b50601f01601f191660200190565b600082601f83011261273757600080fd5b813561274a612745826126ff565b6126cf565b81815284602083860101111561275f57600080fd5b816020850160208301376000918101602001919091529392505050565b60006001600160401b03821115612795576127956126b9565b5060051b60200190565b600082601f8301126127b057600080fd5b813560206127c06127458361277c565b82815260059290921b840181019181810190868411156127df57600080fd5b8286015b848110156127fa57803583529183019183016127e3565b509695505050505050565b600080600080600080600080610100898b03121561282257600080fd5b61282b896126ae565b975061283960208a016124cf565b965060408901356001600160401b038082111561285557600080fd5b6128618c838d01612726565b975060608b013591508082111561287757600080fd5b6128838c838d0161279f565b965060808b013591508082111561289957600080fd5b6128a58c838d0161279f565b95506128b360a08c016126ae565b94506128c160c08c016126ae565b935060e08b01359150808211156128d757600080fd5b506128e48b828c01612726565b9150509295985092959890939650565b600080600080600080600080610100898b03121561291157600080fd5b883561291c81612699565b975061292a60208a016124cf565b965060408901356001600160401b038082111561294657600080fd5b6129528c838d01612726565b975060608b0135965060808b0135955060a08b0135915061297282612699565b90935060c08a01359061298482612699565b90925060e08a013590808211156128d757600080fd5b6000806000606084860312156129af57600080fd5b6129b8846124cf565b925060208401356001600160401b038111156129d357600080fd5b6129df86828701612726565b9250506129ee6040850161252e565b90509250925092565b60005b83811015612a125781810151838201526020016129fa565b83811115612a21576000848401525b50505050565b60008151808452612a3f8160208601602086016129f7565b601f01601f19169290920160200192915050565b602081526000610f396020830184612a27565b803580151581146124e157600080fd5b60008060008060008060c08789031215612a8f57600080fd5b612a98876124cf565b955060208701356001600160401b0380821115612ab457600080fd5b612ac08a838b01612726565b96506040890135955060608901359450612adc60808a01612a66565b935060a0890135915080821115612af257600080fd5b50612aff89828a01612726565b9150509295509295509295565b60008060408385031215612b1f57600080fd5b612b28836124cf565b9150612b36602084016124cf565b90509250929050565b60008060008060008060c08789031215612b5857600080fd5b612b61876124cf565b955060208701356001600160401b0380821115612b7d57600080fd5b612b898a838b01612726565b96506040890135915080821115612b9f57600080fd5b612bab8a838b0161279f565b95506060890135915080821115612bc157600080fd5b612bcd8a838b0161279f565b9450612adc60808a01612a66565b600060208284031215612bed57600080fd5b8135610f3981612699565b600080600080600060a08688031215612c1057600080fd5b8535612c1b81612699565b94506020860135612c2b81612699565b935060408601356001600160401b0380821115612c4757600080fd5b612c5389838a0161279f565b94506060880135915080821115612c6957600080fd5b612c7589838a0161279f565b93506080880135915080821115612c8b57600080fd5b50612c9888828901612726565b9150509295509295909350565b600080600080600060808688031215612cbd57600080fd5b612cc6866124cf565b9450612cd4602087016124cf565b93506040860135925060608601356001600160401b03811115612cf657600080fd5b612d02888289016124e6565b969995985093965092949392505050565b600080600060608486031215612d2857600080fd5b612d31846124cf565b9250612d3f602085016124cf565b9150604084013590509250925092565b600060208284031215612d6157600080fd5b610f3982612a66565b600080600080600060a08688031215612d8257600080fd5b8535612d8d81612699565b94506020860135612d9d81612699565b9350604086013592506060860135915060808601356001600160401b03811115612dc657600080fd5b612c9888828901612726565b60008060008060808587031215612de857600080fd5b612df1856124cf565b9350612dff602086016124cf565b92506040850135612e0f81612699565b9396929550929360600135925050565b600181811c90821680612e3357607f821691505b60208210811415612e5457634e487b7160e01b600052602260045260246000fd5b50919050565b8183823760009101908152919050565b81835281816020850137506000828201602090810191909152601f909101601f19169091010190565b61ffff8416815260406020820152600061112f604083018486612e6a565b634e487b7160e01b600052601160045260246000fd5b600082821015612ed957612ed9612eb1565b500390565b8284823760609190911b6bffffffffffffffffffffffff19169101908152601401919050565b600081518084526020808501945080840160005b83811015612f3457815187529582019590820190600101612f18565b509495945050505050565b606081526000612f526060830186612a27565b8281036020840152612f648186612f04565b90508281036040840152611de28185612f04565b61ffff861681526001600160a01b038516602082015260a060408201819052600090612fa690830186612a27565b84151560608401528281036080840152612fc08185612a27565b98975050505050505050565b60008060408385031215612fdf57600080fd5b505080516020909101519092909150565b600061ffff80881683528087166020840152508460408301526080606083015261301e608083018486612e6a565b979650505050505050565b61ffff86168152608060208201526000613047608083018688612e6a565b6001600160401b0394909416604083015250606001529392505050565b600082601f83011261307557600080fd5b8151613083612745826126ff565b81815284602083860101111561309857600080fd5b6130a98260208301602087016129f7565b949350505050565b6000602082840312156130c357600080fd5b81516001600160401b038111156130d957600080fd5b6130a984828501613064565b61ffff851681526080602082015260006131026080830186612a27565b6001600160401b0385166040840152828103606084015261301e8185612a27565b60208082526024908201527f4c7a4170703a205f61646170746572506172616d73206d75737420626520656d604082015263383a3c9760e11b606082015260800190565b600082516131798184602087016129f7565b9190910192915050565b634e487b7160e01b600052603260045260246000fd5b6040815260006131ac6040830185612f04565b828103602084015261112f8185612f04565b600082601f8301126131cf57600080fd5b815160206131df6127458361277c565b82815260059290921b840181019181810190868411156131fe57600080fd5b8286015b848110156127fa5780518352918301918301613202565b60008060006060848603121561322e57600080fd5b83516001600160401b038082111561324557600080fd5b61325187838801613064565b9450602086015191508082111561326757600080fd5b613273878388016131be565b9350604086015191508082111561328957600080fd5b50613296868287016131be565b9150509250925092565b600082198211156132b3576132b3612eb1565b500190565b6000602082840312156132ca57600080fd5b5051919050565b61ffff8616815260a0602082015260006132ee60a0830187612a27565b6001600160401b0386166040840152828103606084015261330f8186612a27565b90508281036080840152612fc08185612a27565b6001600160a01b0385811682528416602082015260a06040820181905260009061334f90830185612f04565b82810360608401526133618185612f04565b838103608090940193909352505060008152602001949350505050565b61ffff8716815260c06020820152600061339b60c0830188612a27565b82810360408401526133ad8188612a27565b6001600160a01b0387811660608601528616608085015283810360a085015290506133d88185612a27565b999850505050505050505056fea2646970667358221220919e2248d57d4d87d548629a72f5644356ff9b0d6432c5ddc9e9a0a41aa38d0a64736f6c634300080c0033",
  "linkReferences": {},
  "deployedLinkReferences": {}
}