{
  "_format": "hh-sol-artifact-1",
  "contractName": "ComposableOFT",
  "sourceName": "contracts/token/oft/composable/ComposableOFT.sol",
  "abi": [
    {
      "inputs": [
        {
          "internalType": "string",
          "name": "_name",
          "type": "string"
        },
        {
          "internalType": "string",
          "name": "_symbol",
          "type": "string"
        },
        {
          "internalType": "address",
          "name": "_lzEndpoint",
          "type": "address"
        }
      ],
      "stateMutability": "nonpayable",
      "type": "constructor"
    },
    {
      "anonymous": false,
      "inputs": [
        {
          "indexed": true,
          "internalType": "address",
          "name": "owner",
          "type": "address"
        },
        {
          "indexed": true,
          "internalType": "address",
          "name": "spender",
          "type": "address"
        },
        {
          "indexed": false,
          "internalType": "uint256",
          "name": "value",
          "type": "uint256"
        }
      ],
      "name": "Approval",
      "type": "event"
    },
    {
      "anonymous": false,
      "inputs": [
        {
          "indexed": true,
          "internalType": "uint16",
          "name": "_srcChainId",
          "type": "uint16"
        },
        {
          "indexed": false,
          "internalType": "bytes",
          "name": "_srcAddress",
          "type": "bytes"
        },
        {
          "indexed": false,
          "internalType": "uint64",
          "name": "_nonce",
          "type": "uint64"
        },
        {
          "indexed": false,
          "internalType": "bytes",
          "name": "_from",
          "type": "bytes"
        },
        {
          "indexed": true,
          "internalType": "address",
          "name": "_to",
          "type": "address"
        },
        {
          "indexed": false,
          "internalType": "uint256",
          "name": "_amount",
          "type": "uint256"
        },
        {
          "indexed": false,
          "internalType": "bytes",
          "name": "_payload",
          "type": "bytes"
        },
        {
          "indexed": false,
          "internalType": "bytes",
          "name": "_reason",
          "type": "bytes"
        }
      ],
      "name": "CallOFTReceivedFailure",
      "type": "event"
    },
    {
      "anonymous": false,
      "inputs": [
        {
          "indexed": true,
          "internalType": "uint16",
          "name": "_srcChainId",
          "type": "uint16"
        },
        {
          "indexed": false,
          "internalType": "bytes",
          "name": "_srcAddress",
          "type": "bytes"
        },
        {
          "indexed": false,
          "internalType": "uint64",
          "name": "_nonce",
          "type": "uint64"
        },
        {
          "indexed": false,
          "internalType": "bytes32",
          "name": "_hash",
          "type": "bytes32"
        }
      ],
      "name": "CallOFTReceivedSuccess",
      "type": "event"
    },
    {
      "anonymous": false,
      "inputs": [
        {
          "indexed": false,
          "internalType": "uint16",
          "name": "_srcChainId",
          "type": "uint16"
        },
        {
          "indexed": false,
          "internalType": "bytes",
          "name": "_srcAddress",
          "type": "bytes"
        },
        {
          "indexed": false,
          "internalType": "uint64",
          "name": "_nonce",
          "type": "uint64"
        },
        {
          "indexed": false,
          "internalType": "bytes",
          "name": "_payload",
          "type": "bytes"
        },
        {
          "indexed": false,
          "internalType": "bytes",
          "name": "_reason",
          "type": "bytes"
        }
      ],
      "name": "MessageFailed",
      "type": "event"
    },
    {
      "anonymous": false,
      "inputs": [
        {
          "indexed": false,
          "internalType": "address",
          "name": "_address",
          "type": "address"
        }
      ],
      "name": "NonContractAddress",
      "type": "event"
    },
    {
      "anonymous": false,
      "inputs": [
        {
          "indexed": true,
          "internalType": "address",
          "name": "previousOwner",
          "type": "address"
        },
        {
          "indexed": true,
          "internalType": "address",
          "name": "newOwner",
          "type": "address"
        }
      ],
      "name": "OwnershipTransferred",
      "type": "event"
    },
    {
      "anonymous": false,
      "inputs": [
        {
          "indexed": true,
          "internalType": "uint16",
          "name": "_srcChainId",
          "type": "uint16"
        },
        {
          "indexed": true,
          "internalType": "address",
          "name": "_to",
          "type": "address"
        },
        {
          "indexed": false,
          "internalType": "uint256",
          "name": "_amount",
          "type": "uint256"
        }
      ],
      "name": "ReceiveFromChain",
      "type": "event"
    },
    {
      "anonymous": false,
      "inputs": [
        {
          "indexed": false,
          "internalType": "uint16",
          "name": "_srcChainId",
          "type": "uint16"
        },
        {
          "indexed": false,
          "internalType": "bytes",
          "name": "_srcAddress",
          "type": "bytes"
        },
        {
          "indexed": false,
          "internalType": "uint64",
          "name": "_nonce",
          "type": "uint64"
        },
        {
          "indexed": false,
          "internalType": "bytes32",
          "name": "_payloadHash",
          "type": "bytes32"
        }
      ],
      "name": "RetryMessageSuccess",
      "type": "event"
    },
    {
      "anonymous": false,
      "inputs": [
        {
          "indexed": false,
          "internalType": "bytes32",
          "name": "_messageHash",
          "type": "bytes32"
        }
      ],
      "name": "RetryOFTReceivedSuccess",
      "type": "event"
    },
    {
      "anonymous": false,
      "inputs": [
        {
          "indexed": true,
          "internalType": "uint16",
          "name": "_dstChainId",
          "type": "uint16"
        },
        {
          "indexed": true,
          "internalType": "address",
          "name": "_from",
          "type": "address"
        },
        {
          "indexed": false,
          "internalType": "bytes",
          "name": "_toAddress",
          "type": "bytes"
        },
        {
          "indexed": false,
          "internalType": "uint256",
          "name": "_amount",
          "type": "uint256"
        }
      ],
      "name": "SendToChain",
      "type": "event"
    },
    {
      "anonymous": false,
      "inputs": [
        {
          "indexed": false,
          "internalType": "uint16",
          "name": "_dstChainId",
          "type": "uint16"
        },
        {
          "indexed": false,
          "internalType": "uint16",
          "name": "_type",
          "type": "uint16"
        },
        {
          "indexed": false,
          "internalType": "uint256",
          "name": "_minDstGas",
          "type": "uint256"
        }
      ],
      "name": "SetMinDstGas",
      "type": "event"
    },
    {
      "anonymous": false,
      "inputs": [
        {
          "indexed": false,
          "internalType": "address",
          "name": "precrime",
          "type": "address"
        }
      ],
      "name": "SetPrecrime",
      "type": "event"
    },
    {
      "anonymous": false,
      "inputs": [
        {
          "indexed": false,
          "internalType": "uint16",
          "name": "_remoteChainId",
          "type": "uint16"
        },
        {
          "indexed": false,
          "internalType": "bytes",
          "name": "_path",
          "type": "bytes"
        }
      ],
      "name": "SetTrustedRemote",
      "type": "event"
    },
    {
      "anonymous": false,
      "inputs": [
        {
          "indexed": false,
          "internalType": "uint16",
          "name": "_remoteChainId",
          "type": "uint16"
        },
        {
          "indexed": false,
          "internalType": "bytes",
          "name": "_remoteAddress",
          "type": "bytes"
        }
      ],
      "name": "SetTrustedRemoteAddress",
      "type": "event"
    },
    {
      "anonymous": false,
      "inputs": [
        {
          "indexed": false,
          "internalType": "bool",
          "name": "_useCustomAdapterParams",
          "type": "bool"
        }
      ],
      "name": "SetUseCustomAdapterParams",
      "type": "event"
    },
    {
      "anonymous": false,
      "inputs": [
        {
          "indexed": true,
          "internalType": "address",
          "name": "from",
          "type": "address"
        },
        {
          "indexed": true,
          "internalType": "address",
          "name": "to",
          "type": "address"
        },
        {
          "indexed": false,
          "internalType": "uint256",
          "name": "value",
          "type": "uint256"
        }
      ],
      "name": "Transfer",
      "type": "event"
    },
    {
      "inputs": [],
      "name": "DEFAULT_PAYLOAD_SIZE_LIMIT",
      "outputs": [
        {
          "internalType": "uint256",
          "name": "",
          "type": "uint256"
        }
      ],
      "stateMutability": "view",
      "type": "function"
    },
    {
      "inputs": [],
      "name": "NO_EXTRA_GAS",
      "outputs": [
        {
          "internalType": "uint256",
          "name": "",
          "type": "uint256"
        }
      ],
      "stateMutability": "view",
      "type": "function"
    },
    {
      "inputs": [],
      "name": "PT_SEND",
      "outputs": [
        {
          "internalType": "uint16",
          "name": "",
          "type": "uint16"
        }
      ],
      "stateMutability": "view",
      "type": "function"
    },
    {
      "inputs": [],
      "name": "PT_SEND_AND_CALL",
      "outputs": [
        {
          "internalType": "uint16",
          "name": "",
          "type": "uint16"
        }
      ],
      "stateMutability": "view",
      "type": "function"
    },
    {
      "inputs": [
        {
          "internalType": "address",
          "name": "owner",
          "type": "address"
        },
        {
          "internalType": "address",
          "name": "spender",
          "type": "address"
        }
      ],
      "name": "allowance",
      "outputs": [
        {
          "internalType": "uint256",
          "name": "",
          "type": "uint256"
        }
      ],
      "stateMutability": "view",
      "type": "function"
    },
    {
      "inputs": [
        {
          "internalType": "address",
          "name": "spender",
          "type": "address"
        },
        {
          "internalType": "uint256",
          "name": "amount",
          "type": "uint256"
        }
      ],
      "name": "approve",
      "outputs": [
        {
          "internalType": "bool",
          "name": "",
          "type": "bool"
        }
      ],
      "stateMutability": "nonpayable",
      "type": "function"
    },
    {
      "inputs": [
        {
          "internalType": "address",
          "name": "account",
          "type": "address"
        }
      ],
      "name": "balanceOf",
      "outputs": [
        {
          "internalType": "uint256",
          "name": "",
          "type": "uint256"
        }
      ],
      "stateMutability": "view",
      "type": "function"
    },
    {
      "inputs": [],
      "name": "circulatingSupply",
      "outputs": [
        {
          "internalType": "uint256",
          "name": "",
          "type": "uint256"
        }
      ],
      "stateMutability": "view",
      "type": "function"
    },
    {
      "inputs": [],
      "name": "decimals",
      "outputs": [
        {
          "internalType": "uint8",
          "name": "",
          "type": "uint8"
        }
      ],
      "stateMutability": "view",
      "type": "function"
    },
    {
      "inputs": [
        {
          "internalType": "address",
          "name": "spender",
          "type": "address"
        },
        {
          "internalType": "uint256",
          "name": "subtractedValue",
          "type": "uint256"
        }
      ],
      "name": "decreaseAllowance",
      "outputs": [
        {
          "internalType": "bool",
          "name": "",
          "type": "bool"
        }
      ],
      "stateMutability": "nonpayable",
      "type": "function"
    },
    {
      "inputs": [
        {
          "internalType": "uint16",
          "name": "_dstChainId",
          "type": "uint16"
        },
        {
          "internalType": "bytes",
          "name": "_toAddress",
          "type": "bytes"
        },
        {
          "internalType": "uint256",
          "name": "_amount",
          "type": "uint256"
        },
        {
          "internalType": "bytes",
          "name": "_payload",
          "type": "bytes"
        },
        {
          "internalType": "uint64",
          "name": "_dstGasForCall",
          "type": "uint64"
        },
        {
          "internalType": "bool",
          "name": "_useZro",
          "type": "bool"
        },
        {
          "internalType": "bytes",
          "name": "_adapterParams",
          "type": "bytes"
        }
      ],
      "name": "estimateSendAndCallFee",
      "outputs": [
        {
          "internalType": "uint256",
          "name": "nativeFee",
          "type": "uint256"
        },
        {
          "internalType": "uint256",
          "name": "zroFee",
          "type": "uint256"
        }
      ],
      "stateMutability": "view",
      "type": "function"
    },
    {
      "inputs": [
        {
          "internalType": "uint16",
          "name": "_dstChainId",
          "type": "uint16"
        },
        {
          "internalType": "bytes",
          "name": "_toAddress",
          "type": "bytes"
        },
        {
          "internalType": "uint256",
          "name": "_amount",
          "type": "uint256"
        },
        {
          "internalType": "bool",
          "name": "_useZro",
          "type": "bool"
        },
        {
          "internalType": "bytes",
          "name": "_adapterParams",
          "type": "bytes"
        }
      ],
      "name": "estimateSendFee",
      "outputs": [
        {
          "internalType": "uint256",
          "name": "nativeFee",
          "type": "uint256"
        },
        {
          "internalType": "uint256",
          "name": "zroFee",
          "type": "uint256"
        }
      ],
      "stateMutability": "view",
      "type": "function"
    },
    {
      "inputs": [
        {
          "internalType": "uint16",
          "name": "",
          "type": "uint16"
        },
        {
          "internalType": "bytes",
          "name": "",
          "type": "bytes"
        },
        {
          "internalType": "uint64",
          "name": "",
          "type": "uint64"
        }
      ],
      "name": "failedMessages",
      "outputs": [
        {
          "internalType": "bytes32",
          "name": "",
          "type": "bytes32"
        }
      ],
      "stateMutability": "view",
      "type": "function"
    },
    {
      "inputs": [
        {
          "internalType": "uint16",
          "name": "",
          "type": "uint16"
        },
        {
          "internalType": "bytes",
          "name": "",
          "type": "bytes"
        },
        {
          "internalType": "uint64",
          "name": "",
          "type": "uint64"
        }
      ],
      "name": "failedOFTReceivedMessages",
      "outputs": [
        {
          "internalType": "bytes32",
          "name": "",
          "type": "bytes32"
        }
      ],
      "stateMutability": "view",
      "type": "function"
    },
    {
      "inputs": [
        {
          "internalType": "uint16",
          "name": "_srcChainId",
          "type": "uint16"
        },
        {
          "internalType": "bytes",
          "name": "_srcAddress",
          "type": "bytes"
        }
      ],
      "name": "forceResumeReceive",
      "outputs": [],
      "stateMutability": "nonpayable",
      "type": "function"
    },
    {
      "inputs": [
        {
          "internalType": "uint16",
          "name": "_version",
          "type": "uint16"
        },
        {
          "internalType": "uint16",
          "name": "_chainId",
          "type": "uint16"
        },
        {
          "internalType": "address",
          "name": "",
          "type": "address"
        },
        {
          "internalType": "uint256",
          "name": "_configType",
          "type": "uint256"
        }
      ],
      "name": "getConfig",
      "outputs": [
        {
          "internalType": "bytes",
          "name": "",
          "type": "bytes"
        }
      ],
      "stateMutability": "view",
      "type": "function"
    },
    {
      "inputs": [
        {
          "internalType": "uint16",
          "name": "_remoteChainId",
          "type": "uint16"
        }
      ],
      "name": "getTrustedRemoteAddress",
      "outputs": [
        {
          "internalType": "bytes",
          "name": "",
          "type": "bytes"
        }
      ],
      "stateMutability": "view",
      "type": "function"
    },
    {
      "inputs": [
        {
          "internalType": "address",
          "name": "spender",
          "type": "address"
        },
        {
          "internalType": "uint256",
          "name": "addedValue",
          "type": "uint256"
        }
      ],
      "name": "increaseAllowance",
      "outputs": [
        {
          "internalType": "bool",
          "name": "",
          "type": "bool"
        }
      ],
      "stateMutability": "nonpayable",
      "type": "function"
    },
    {
      "inputs": [
        {
          "internalType": "uint16",
          "name": "_srcChainId",
          "type": "uint16"
        },
        {
          "internalType": "bytes",
          "name": "_srcAddress",
          "type": "bytes"
        }
      ],
      "name": "isTrustedRemote",
      "outputs": [
        {
          "internalType": "bool",
          "name": "",
          "type": "bool"
        }
      ],
      "stateMutability": "view",
      "type": "function"
    },
    {
      "inputs": [],
      "name": "lzEndpoint",
      "outputs": [
        {
          "internalType": "contract ILayerZeroEndpoint",
          "name": "",
          "type": "address"
        }
      ],
      "stateMutability": "view",
      "type": "function"
    },
    {
      "inputs": [
        {
          "internalType": "uint16",
          "name": "_srcChainId",
          "type": "uint16"
        },
        {
          "internalType": "bytes",
          "name": "_srcAddress",
          "type": "bytes"
        },
        {
          "internalType": "uint64",
          "name": "_nonce",
          "type": "uint64"
        },
        {
          "internalType": "bytes",
          "name": "_payload",
          "type": "bytes"
        }
      ],
      "name": "lzReceive",
      "outputs": [],
      "stateMutability": "nonpayable",
      "type": "function"
    },
    {
      "inputs": [
        {
          "internalType": "uint16",
          "name": "",
          "type": "uint16"
        },
        {
          "internalType": "uint16",
          "name": "",
          "type": "uint16"
        }
      ],
      "name": "minDstGasLookup",
      "outputs": [
        {
          "internalType": "uint256",
          "name": "",
          "type": "uint256"
        }
      ],
      "stateMutability": "view",
      "type": "function"
    },
    {
      "inputs": [],
      "name": "name",
      "outputs": [
        {
          "internalType": "string",
          "name": "",
          "type": "string"
        }
      ],
      "stateMutability": "view",
      "type": "function"
    },
    {
      "inputs": [
        {
          "internalType": "uint16",
          "name": "_srcChainId",
          "type": "uint16"
        },
        {
          "internalType": "bytes",
          "name": "_srcAddress",
          "type": "bytes"
        },
        {
          "internalType": "uint64",
          "name": "_nonce",
          "type": "uint64"
        },
        {
          "internalType": "bytes",
          "name": "_payload",
          "type": "bytes"
        }
      ],
      "name": "nonblockingLzReceive",
      "outputs": [],
      "stateMutability": "nonpayable",
      "type": "function"
    },
    {
      "inputs": [],
      "name": "owner",
      "outputs": [
        {
          "internalType": "address",
          "name": "",
          "type": "address"
        }
      ],
      "stateMutability": "view",
      "type": "function"
    },
    {
      "inputs": [
        {
          "internalType": "uint16",
          "name": "",
          "type": "uint16"
        }
      ],
      "name": "payloadSizeLimitLookup",
      "outputs": [
        {
          "internalType": "uint256",
          "name": "",
          "type": "uint256"
        }
      ],
      "stateMutability": "view",
      "type": "function"
    },
    {
      "inputs": [],
      "name": "precrime",
      "outputs": [
        {
          "internalType": "address",
          "name": "",
          "type": "address"
        }
      ],
      "stateMutability": "view",
      "type": "function"
    },
    {
      "inputs": [],
      "name": "renounceOwnership",
      "outputs": [],
      "stateMutability": "nonpayable",
      "type": "function"
    },
    {
      "inputs": [
        {
          "internalType": "uint16",
          "name": "_srcChainId",
          "type": "uint16"
        },
        {
          "internalType": "bytes",
          "name": "_srcAddress",
          "type": "bytes"
        },
        {
          "internalType": "uint64",
          "name": "_nonce",
          "type": "uint64"
        },
        {
          "internalType": "bytes",
          "name": "_payload",
          "type": "bytes"
        }
      ],
      "name": "retryMessage",
      "outputs": [],
      "stateMutability": "payable",
      "type": "function"
    },
    {
      "inputs": [
        {
          "internalType": "uint16",
          "name": "_srcChainId",
          "type": "uint16"
        },
        {
          "internalType": "bytes",
          "name": "_srcAddress",
          "type": "bytes"
        },
        {
          "internalType": "uint64",
          "name": "_nonce",
          "type": "uint64"
        },
        {
          "internalType": "bytes",
          "name": "_from",
          "type": "bytes"
        },
        {
          "internalType": "address",
          "name": "_to",
          "type": "address"
        },
        {
          "internalType": "uint256",
          "name": "_amount",
          "type": "uint256"
        },
        {
          "internalType": "bytes",
          "name": "_payload",
          "type": "bytes"
        }
      ],
      "name": "retryOFTReceived",
      "outputs": [],
      "stateMutability": "nonpayable",
      "type": "function"
    },
    {
      "inputs": [
        {
          "internalType": "address",
          "name": "_from",
          "type": "address"
        },
        {
          "internalType": "uint16",
          "name": "_dstChainId",
          "type": "uint16"
        },
        {
          "internalType": "bytes",
          "name": "_toAddress",
          "type": "bytes"
        },
        {
          "internalType": "uint256",
          "name": "_amount",
          "type": "uint256"
        },
        {
          "internalType": "bytes",
          "name": "_payload",
          "type": "bytes"
        },
        {
          "internalType": "uint64",
          "name": "_dstGasForCall",
          "type": "uint64"
        },
        {
          "internalType": "address payable",
          "name": "_refundAddress",
          "type": "address"
        },
        {
          "internalType": "address",
          "name": "_zroPaymentAddress",
          "type": "address"
        },
        {
          "internalType": "bytes",
          "name": "_adapterParams",
          "type": "bytes"
        }
      ],
      "name": "sendAndCall",
      "outputs": [],
      "stateMutability": "payable",
      "type": "function"
    },
    {
      "inputs": [
        {
          "internalType": "address",
          "name": "_from",
          "type": "address"
        },
        {
          "internalType": "uint16",
          "name": "_dstChainId",
          "type": "uint16"
        },
        {
          "internalType": "bytes",
          "name": "_toAddress",
          "type": "bytes"
        },
        {
          "internalType": "uint256",
          "name": "_amount",
          "type": "uint256"
        },
        {
          "internalType": "address payable",
          "name": "_refundAddress",
          "type": "address"
        },
        {
          "internalType": "address",
          "name": "_zroPaymentAddress",
          "type": "address"
        },
        {
          "internalType": "bytes",
          "name": "_adapterParams",
          "type": "bytes"
        }
      ],
      "name": "sendFrom",
      "outputs": [],
      "stateMutability": "payable",
      "type": "function"
    },
    {
      "inputs": [
        {
          "internalType": "uint16",
          "name": "_version",
          "type": "uint16"
        },
        {
          "internalType": "uint16",
          "name": "_chainId",
          "type": "uint16"
        },
        {
          "internalType": "uint256",
          "name": "_configType",
          "type": "uint256"
        },
        {
          "internalType": "bytes",
          "name": "_config",
          "type": "bytes"
        }
      ],
      "name": "setConfig",
      "outputs": [],
      "stateMutability": "nonpayable",
      "type": "function"
    },
    {
      "inputs": [
        {
          "internalType": "uint16",
          "name": "_dstChainId",
          "type": "uint16"
        },
        {
          "internalType": "uint16",
          "name": "_packetType",
          "type": "uint16"
        },
        {
          "internalType": "uint256",
          "name": "_minGas",
          "type": "uint256"
        }
      ],
      "name": "setMinDstGas",
      "outputs": [],
      "stateMutability": "nonpayable",
      "type": "function"
    },
    {
      "inputs": [
        {
          "internalType": "uint16",
          "name": "_dstChainId",
          "type": "uint16"
        },
        {
          "internalType": "uint256",
          "name": "_size",
          "type": "uint256"
        }
      ],
      "name": "setPayloadSizeLimit",
      "outputs": [],
      "stateMutability": "nonpayable",
      "type": "function"
    },
    {
      "inputs": [
        {
          "internalType": "address",
          "name": "_precrime",
          "type": "address"
        }
      ],
      "name": "setPrecrime",
      "outputs": [],
      "stateMutability": "nonpayable",
      "type": "function"
    },
    {
      "inputs": [
        {
          "internalType": "uint16",
          "name": "_version",
          "type": "uint16"
        }
      ],
      "name": "setReceiveVersion",
      "outputs": [],
      "stateMutability": "nonpayable",
      "type": "function"
    },
    {
      "inputs": [
        {
          "internalType": "uint16",
          "name": "_version",
          "type": "uint16"
        }
      ],
      "name": "setSendVersion",
      "outputs": [],
      "stateMutability": "nonpayable",
      "type": "function"
    },
    {
      "inputs": [
        {
          "internalType": "uint16",
          "name": "_srcChainId",
          "type": "uint16"
        },
        {
          "internalType": "bytes",
          "name": "_path",
          "type": "bytes"
        }
      ],
      "name": "setTrustedRemote",
      "outputs": [],
      "stateMutability": "nonpayable",
      "type": "function"
    },
    {
      "inputs": [
        {
          "internalType": "uint16",
          "name": "_remoteChainId",
          "type": "uint16"
        },
        {
          "internalType": "bytes",
          "name": "_remoteAddress",
          "type": "bytes"
        }
      ],
      "name": "setTrustedRemoteAddress",
      "outputs": [],
      "stateMutability": "nonpayable",
      "type": "function"
    },
    {
      "inputs": [
        {
          "internalType": "bool",
          "name": "_useCustomAdapterParams",
          "type": "bool"
        }
      ],
      "name": "setUseCustomAdapterParams",
      "outputs": [],
      "stateMutability": "nonpayable",
      "type": "function"
    },
    {
      "inputs": [
        {
          "internalType": "bytes4",
          "name": "interfaceId",
          "type": "bytes4"
        }
      ],
      "name": "supportsInterface",
      "outputs": [
        {
          "internalType": "bool",
          "name": "",
          "type": "bool"
        }
      ],
      "stateMutability": "view",
      "type": "function"
    },
    {
      "inputs": [],
      "name": "symbol",
      "outputs": [
        {
          "internalType": "string",
          "name": "",
          "type": "string"
        }
      ],
      "stateMutability": "view",
      "type": "function"
    },
    {
      "inputs": [],
      "name": "token",
      "outputs": [
        {
          "internalType": "address",
          "name": "",
          "type": "address"
        }
      ],
      "stateMutability": "view",
      "type": "function"
    },
    {
      "inputs": [],
      "name": "totalSupply",
      "outputs": [
        {
          "internalType": "uint256",
          "name": "",
          "type": "uint256"
        }
      ],
      "stateMutability": "view",
      "type": "function"
    },
    {
      "inputs": [
        {
          "internalType": "address",
          "name": "to",
          "type": "address"
        },
        {
          "internalType": "uint256",
          "name": "amount",
          "type": "uint256"
        }
      ],
      "name": "transfer",
      "outputs": [
        {
          "internalType": "bool",
          "name": "",
          "type": "bool"
        }
      ],
      "stateMutability": "nonpayable",
      "type": "function"
    },
    {
      "inputs": [
        {
          "internalType": "address",
          "name": "from",
          "type": "address"
        },
        {
          "internalType": "address",
          "name": "to",
          "type": "address"
        },
        {
          "internalType": "uint256",
          "name": "amount",
          "type": "uint256"
        }
      ],
      "name": "transferFrom",
      "outputs": [
        {
          "internalType": "bool",
          "name": "",
          "type": "bool"
        }
      ],
      "stateMutability": "nonpayable",
      "type": "function"
    },
    {
      "inputs": [
        {
          "internalType": "address",
          "name": "newOwner",
          "type": "address"
        }
      ],
      "name": "transferOwnership",
      "outputs": [],
      "stateMutability": "nonpayable",
      "type": "function"
    },
    {
      "inputs": [
        {
          "internalType": "uint16",
          "name": "",
          "type": "uint16"
        }
      ],
      "name": "trustedRemoteLookup",
      "outputs": [
        {
          "internalType": "bytes",
          "name": "",
          "type": "bytes"
        }
      ],
      "stateMutability": "view",
      "type": "function"
    },
    {
      "inputs": [],
      "name": "useCustomAdapterParams",
      "outputs": [
        {
          "internalType": "bool",
          "name": "",
          "type": "bool"
        }
      ],
      "stateMutability": "view",
      "type": "function"
    }
  ],
  "bytecode": "0x60a06040523480156200001157600080fd5b506040516200477e3803806200477e83398101604081905262000034916200024e565b82828280808062000045336200008b565b6001600160a01b031660805250508251620000699150600b906020850190620000db565b5080516200007f90600c906020840190620000db565b50505050505062000318565b600080546001600160a01b038381166001600160a01b0319831681178455604051919092169283917f8be0079c531659141344cd1fd0a4f28419497f9722a3daafe3b4186f6b6457e09190a35050565b828054620000e990620002db565b90600052602060002090601f0160209004810192826200010d576000855562000158565b82601f106200012857805160ff191683800117855562000158565b8280016001018555821562000158579182015b82811115620001585782518255916020019190600101906200013b565b50620001669291506200016a565b5090565b5b808211156200016657600081556001016200016b565b634e487b7160e01b600052604160045260246000fd5b600082601f830112620001a957600080fd5b81516001600160401b0380821115620001c657620001c662000181565b604051601f8301601f19908116603f01168101908282118183101715620001f157620001f162000181565b816040528381526020925086838588010111156200020e57600080fd5b600091505b8382101562000232578582018301518183018401529082019062000213565b83821115620002445760008385830101525b9695505050505050565b6000806000606084860312156200026457600080fd5b83516001600160401b03808211156200027c57600080fd5b6200028a8783880162000197565b94506020860151915080821115620002a157600080fd5b50620002b08682870162000197565b604086015190935090506001600160a01b0381168114620002d057600080fd5b809150509250925092565b600181811c90821680620002f057607f821691505b602082108114156200031257634e487b7160e01b600052602260045260246000fd5b50919050565b60805161440b62000373600039600081816107a20152818161098501528181610cb701528181610d7701528181610e1501528181610fb2015281816115440152818161160b01528181611d8b015261295e015261440b6000f3fe6080604052600436106102c85760003560e01c80638da5cb5b11610175578063cbed8b9c116100dc578063e7f0c59f11610095578063ed629c5c1161006f578063ed629c5c14610915578063f2fde38b1461092f578063f5ecbdbc1461094f578063fc0c546a1461096f57600080fd5b8063e7f0c59f146108c2578063eab45d9c146108d5578063eb8d72b7146108f557600080fd5b8063cbed8b9c1461081a578063cfd6528e1461083a578063d1deba1f1461085a578063dd62ed3e1461086d578063df2a5b3b1461088d578063e6a20ae6146108ad57600080fd5b8063a6c3d1651161012e578063a6c3d16514610750578063a9059cbb14610770578063b353aaa714610790578063baf3292d146107c4578063c4461834146107e4578063c8598dca146107fa57600080fd5b80638da5cb5b146106945780639358928b146106c6578063950c8a74146106db57806395d89b41146106fb5780639f38369a14610710578063a457c2d71461073057600080fd5b80633d8b38f6116102345780635b8c41e6116101ed57806370a08231116101c757806370a08231146105f1578063715018a6146106275780637533d7881461063c5780638cfd8f5c1461065c57600080fd5b80635b8c41e6146105335780636096cc581461058257806366ad5c8a146105d157600080fd5b80633d8b38f6146104765780633f1f4fa41461049657806342d65a8d146104c357806344770515146104e35780634c42899a146104f8578063519056361461052057600080fd5b806310ddb1371161028657806310ddb137146103a657806318160ddd146103c657806323b872dd146103e55780632a205e3d14610405578063313ce5671461043a578063395093511461045657600080fd5b80621d3567146102cd57806301ffc9a7146102ef57806306fdde031461032457806307e0db1714610346578063095ea7b3146103665780630df3748314610386575b600080fd5b3480156102d957600080fd5b506102ed6102e836600461332b565b610982565b005b3480156102fb57600080fd5b5061030f61030a3660046133c1565b610bb3565b60405190151581526020015b60405180910390f35b34801561033057600080fd5b50610339610c04565b60405161031b9190613443565b34801561035257600080fd5b506102ed610361366004613456565b610c96565b34801561037257600080fd5b5061030f610381366004613493565b610d1f565b34801561039257600080fd5b506102ed6103a13660046134bf565b610d37565b3480156103b257600080fd5b506102ed6103c1366004613456565b610d56565b3480156103d257600080fd5b50600a545b60405190815260200161031b565b3480156103f157600080fd5b5061030f6104003660046134dd565b610dae565b34801561041157600080fd5b5061042561042036600461352e565b610dd2565b6040805192835260208301919091520161031b565b34801561044657600080fd5b506040516012815260200161031b565b34801561046257600080fd5b5061030f610471366004613493565b610ea5565b34801561048257600080fd5b5061030f6104913660046135cd565b610ec7565b3480156104a257600080fd5b506103d76104b1366004613456565b60036020526000908152604090205481565b3480156104cf57600080fd5b506102ed6104de3660046135cd565b610f93565b3480156104ef57600080fd5b506103d7600081565b34801561050457600080fd5b5061050d600081565b60405161ffff909116815260200161031b565b6102ed61052e366004613621565b611019565b34801561053f57600080fd5b506103d761054e366004613757565b6005602090815260009384526040808520845180860184018051928152908401958401959095209452929052825290205481565b34801561058e57600080fd5b506103d761059d366004613757565b6007602090815260009384526040808520845180860184018051928152908401958401959095209452929052825290205481565b3480156105dd57600080fd5b506102ed6105ec36600461332b565b61109e565b3480156105fd57600080fd5b506103d761060c3660046137fd565b6001600160a01b031660009081526008602052604090205490565b34801561063357600080fd5b506102ed61117a565b34801561064857600080fd5b50610339610657366004613456565b61118e565b34801561066857600080fd5b506103d761067736600461381a565b600260209081526000928352604080842090915290825290205481565b3480156106a057600080fd5b506000546001600160a01b03165b6040516001600160a01b03909116815260200161031b565b3480156106d257600080fd5b506103d7611228565b3480156106e757600080fd5b506004546106ae906001600160a01b031681565b34801561070757600080fd5b50610339611238565b34801561071c57600080fd5b5061033961072b366004613456565b611247565b34801561073c57600080fd5b5061030f61074b366004613493565b61135e565b34801561075c57600080fd5b506102ed61076b3660046135cd565b6113d9565b34801561077c57600080fd5b5061030f61078b366004613493565b611479565b34801561079c57600080fd5b506106ae7f000000000000000000000000000000000000000000000000000000000000000081565b3480156107d057600080fd5b506102ed6107df3660046137fd565b611487565b3480156107f057600080fd5b506103d761271081565b34801561080657600080fd5b50610425610815366004613853565b6114e4565b34801561082657600080fd5b506102ed610835366004613931565b6115ec565b34801561084657600080fd5b506102ed6108553660046139a3565b611676565b6102ed61086836600461332b565b6118bc565b34801561087957600080fd5b506103d7610888366004613a5d565b611ad2565b34801561089957600080fd5b506102ed6108a8366004613a8b565b611afd565b3480156108b957600080fd5b5061050d600181565b6102ed6108d0366004613abb565b611baf565b3480156108e157600080fd5b506102ed6108f0366004613bc4565b611c3e565b34801561090157600080fd5b506102ed6109103660046135cd565b611c87565b34801561092157600080fd5b5060065461030f9060ff1681565b34801561093b57600080fd5b506102ed61094a3660046137fd565b611ce1565b34801561095b57600080fd5b5061033961096a366004613bdf565b611d5a565b34801561097b57600080fd5b50306106ae565b337f00000000000000000000000000000000000000000000000000000000000000006001600160a01b0316146109ff5760405162461bcd60e51b815260206004820152601e60248201527f4c7a4170703a20696e76616c696420656e64706f696e742063616c6c6572000060448201526064015b60405180910390fd5b61ffff861660009081526001602052604081208054610a1d90613c30565b80601f0160208091040260200160405190810160405280929190818152602001828054610a4990613c30565b8015610a965780601f10610a6b57610100808354040283529160200191610a96565b820191906000526020600020905b815481529060010190602001808311610a7957829003601f168201915b50505050509050805186869050148015610ab1575060008151115b8015610ad9575080516020820120604051610acf9088908890613c6b565b6040518091039020145b610b345760405162461bcd60e51b815260206004820152602660248201527f4c7a4170703a20696e76616c696420736f757263652073656e64696e6720636f6044820152651b9d1c9858dd60d21b60648201526084016109f6565b610baa8787878080601f01602080910402602001604051908101604052809392919081815260200183838082843760009201919091525050604080516020601f8a018190048102820181019092528881528a935091508890889081908401838280828437600092019190915250611e0b92505050565b50505050505050565b60006001600160e01b031982161580610bd457506001600160e01b03198216155b80610bef57506001600160e01b031982166336372b0760e01b145b80610bfe5750610bfe82611e84565b92915050565b6060600b8054610c1390613c30565b80601f0160208091040260200160405190810160405280929190818152602001828054610c3f90613c30565b8015610c8c5780601f10610c6157610100808354040283529160200191610c8c565b820191906000526020600020905b815481529060010190602001808311610c6f57829003601f168201915b5050505050905090565b610c9e611ea9565b6040516307e0db1760e01b815261ffff821660048201527f00000000000000000000000000000000000000000000000000000000000000006001600160a01b0316906307e0db17906024015b600060405180830381600087803b158015610d0457600080fd5b505af1158015610d18573d6000803e3d6000fd5b5050505050565b600033610d2d818585611f03565b5060019392505050565b610d3f611ea9565b61ffff909116600090815260036020526040902055565b610d5e611ea9565b6040516310ddb13760e01b815261ffff821660048201527f00000000000000000000000000000000000000000000000000000000000000006001600160a01b0316906310ddb13790602401610cea565b600033610dbc858285612027565b610dc78585856120a1565b506001949350505050565b600080600080898989604051602001610dee9493929190613ca4565b60408051601f198184030181529082905263040a7bb160e41b825291506001600160a01b037f000000000000000000000000000000000000000000000000000000000000000016906340a7bb1090610e54908d90309086908c908c908c90600401613cd3565b6040805180830381865afa158015610e70573d6000803e3d6000fd5b505050506040513d601f19601f82011682018060405250810190610e949190613d29565b925092505097509795505050505050565b600033610d2d818585610eb88383611ad2565b610ec29190613d63565b611f03565b61ffff831660009081526001602052604081208054829190610ee890613c30565b80601f0160208091040260200160405190810160405280929190818152602001828054610f1490613c30565b8015610f615780601f10610f3657610100808354040283529160200191610f61565b820191906000526020600020905b815481529060010190602001808311610f4457829003601f168201915b505050505090508383604051610f78929190613c6b565b60405180910390208180519060200120149150509392505050565b610f9b611ea9565b6040516342d65a8d60e01b81526001600160a01b037f000000000000000000000000000000000000000000000000000000000000000016906342d65a8d90610feb90869086908690600401613d7b565b600060405180830381600087803b15801561100557600080fd5b505af1158015610baa573d6000803e3d6000fd5b611093898989898080601f01602080910402602001604051908101604052809392919081815260200183838082843760009201919091525050604080516020601f8a018190048102820181019092528881528c93508b92508a918a908a908190840183828082843760009201919091525061226f92505050565b505050505050505050565b3330146110fc5760405162461bcd60e51b815260206004820152602660248201527f4e6f6e626c6f636b696e674c7a4170703a2063616c6c6572206d7573742062656044820152650204c7a4170760d41b60648201526084016109f6565b6111728686868080601f01602080910402602001604051908101604052809392919081815260200183838082843760009201919091525050604080516020601f89018190048102820181019092528781528993509150879087908190840183828082843760009201919091525061231692505050565b505050505050565b611182611ea9565b61118c60006123a5565b565b600160205260009081526040902080546111a790613c30565b80601f01602080910402602001604051908101604052809291908181526020018280546111d390613c30565b80156112205780601f106111f557610100808354040283529160200191611220565b820191906000526020600020905b81548152906001019060200180831161120357829003601f168201915b505050505081565b6000611233600a5490565b905090565b6060600c8054610c1390613c30565b61ffff811660009081526001602052604081208054606092919061126a90613c30565b80601f016020809104026020016040519081016040528092919081815260200182805461129690613c30565b80156112e35780601f106112b8576101008083540402835291602001916112e3565b820191906000526020600020905b8154815290600101906020018083116112c657829003601f168201915b5050505050905080516000141561133c5760405162461bcd60e51b815260206004820152601d60248201527f4c7a4170703a206e6f20747275737465642070617468207265636f726400000060448201526064016109f6565b61135760006014835161134f9190613d99565b8391906123f5565b9392505050565b6000338161136c8286611ad2565b9050838110156113cc5760405162461bcd60e51b815260206004820152602560248201527f45524332303a2064656372656173656420616c6c6f77616e63652062656c6f77604482015264207a65726f60d81b60648201526084016109f6565b610dc78286868403611f03565b6113e1611ea9565b8181306040516020016113f693929190613db0565b60408051601f1981840301815291815261ffff8516600090815260016020908152919020825161142b93919290910190613196565b506114398361ffff16612502565b7f8c0400cfe2d1199b1a725c78960bcc2a344d869b80590d0f2bd005db15a572ce83838360405161146c93929190613d7b565b60405180910390a1505050565b600033610d2d8185856120a1565b61148f611ea9565b600480546001600160a01b0319166001600160a01b0383169081179091556040519081527f5db758e995a17ec1ad84bdef7e8c3293a0bd6179bcce400dff5d4c3d87db726b906020015b60405180910390a150565b6040516001600160601b03193360601b1660208201526000908190819060019060340160408051601f198184030181529082905261153192918f908f908f908f908f908f90602001613dd1565b60405160208183030381529060405290507f00000000000000000000000000000000000000000000000000000000000000006001600160a01b03166340a7bb108e30848a8a8a6040518763ffffffff1660e01b815260040161159896959493929190613cd3565b6040805180830381865afa1580156115b4573d6000803e3d6000fd5b505050506040513d601f19601f820116820180604052508101906115d89190613d29565b92509250509a509a98505050505050505050565b6115f4611ea9565b6040516332fb62e760e21b81526001600160a01b037f0000000000000000000000000000000000000000000000000000000000000000169063cbed8b9c906116489088908890889088908890600401613e3b565b600060405180830381600087803b15801561166257600080fd5b505af1158015611093573d6000803e3d6000fd5b61ffff8a166000908152600760205260408082209051611699908c908c90613c6b565b90815260408051602092819003830190206001600160401b038b16600090815292529020549050806117235760405162461bcd60e51b815260206004820152602d60248201527f436f6d706f7361626c654f4654436f72653a206e6f206661696c6564206d657360448201526c7361676520746f20726574727960981b60648201526084016109f6565b600087878787878760405160200161174096959493929190613e74565b6040516020818303038152906040528051906020012090508181146117bf5760405162461bcd60e51b815260206004820152602f60248201527f436f6d706f7361626c654f4654436f72653a206661696c6564206d657373616760448201526e0ca40d0c2e6d040dad2e6dac2e8c6d608b1b60648201526084016109f6565b61ffff8c166000908152600760205260409081902090516117e3908d908d90613c6b565b9081526040805191829003602090810183206001600160401b038d16600090815291529081205563147a7d7160e01b81526001600160a01b0387169063147a7d7190611843908f908f908f908f908f908f908e908e908e90600401613eb1565b600060405180830381600087803b15801561185d57600080fd5b505af1158015611871573d6000803e3d6000fd5b505050507f41ea88d75e53240e2c5ace3a3d7263efe6c8f4fe42c0e3ef269f71daef1001c8816040516118a691815260200190565b60405180910390a1505050505050505050505050565b61ffff861660009081526005602052604080822090516118df9088908890613c6b565b90815260408051602092819003830190206001600160401b0387166000908152925290205490508061195f5760405162461bcd60e51b815260206004820152602360248201527f4e6f6e626c6f636b696e674c7a4170703a206e6f2073746f726564206d65737360448201526261676560e81b60648201526084016109f6565b808383604051611970929190613c6b565b6040518091039020146119cf5760405162461bcd60e51b815260206004820152602160248201527f4e6f6e626c6f636b696e674c7a4170703a20696e76616c6964207061796c6f616044820152601960fa1b60648201526084016109f6565b61ffff871660009081526005602052604080822090516119f29089908990613c6b565b90815260408051602092819003830181206001600160401b038916600090815290845282902093909355601f88018290048202830182019052868252611a8a918991899089908190840183828082843760009201919091525050604080516020601f8a018190048102820181019092528881528a93509150889088908190840183828082843760009201919091525061231692505050565b7fc264d91f3adc5588250e1551f547752ca0cfa8f6b530d243b9f9f4cab10ea8e58787878785604051611ac1959493929190613f1c565b60405180910390a150505050505050565b6001600160a01b03918216600090815260096020908152604080832093909416825291909152205490565b611b05611ea9565b60008111611b4d5760405162461bcd60e51b81526020600482015260156024820152744c7a4170703a20696e76616c6964206d696e47617360581b60448201526064016109f6565b61ffff83811660008181526002602090815260408083209487168084529482529182902085905581519283528201929092529081018290527f9d5c7c0b934da8fefa9c7760c98383778a12dfbfc0c3b3106518f43fb9508ac09060600161146c565b611c308c8c8c8c8080601f01602080910402602001604051908101604052809392919081815260200183838082843760009201919091525050604080516020601f8a018190048102820181019092528881528f93508e92508d918d918d918d91908d908d908190840183828082843760009201919091525061254792505050565b505050505050505050505050565b611c46611ea9565b6006805460ff19168215159081179091556040519081527f1584ad594a70cbe1e6515592e1272a987d922b097ead875069cebe8b40c004a4906020016114d9565b611c8f611ea9565b61ffff83166000908152600160205260409020611cad90838361321a565b507ffa41487ad5d6728f0b19276fa1eddc16558578f5109fc39d2dc33c3230470dab83838360405161146c93929190613d7b565b611ce9611ea9565b6001600160a01b038116611d4e5760405162461bcd60e51b815260206004820152602660248201527f4f776e61626c653a206e6577206f776e657220697320746865207a65726f206160448201526564647265737360d01b60648201526084016109f6565b611d57816123a5565b50565b604051633d7b2f6f60e21b815261ffff808616600483015284166024820152306044820152606481018290526060907f00000000000000000000000000000000000000000000000000000000000000006001600160a01b03169063f5ecbdbc90608401600060405180830381865afa158015611dda573d6000803e3d6000fd5b505050506040513d6000823e601f3d908101601f19168201604052611e029190810190613fa4565b95945050505050565b600080611e6e5a60966366ad5c8a60e01b89898989604051602401611e339493929190613fd8565b60408051601f198184030181529190526020810180516001600160e01b03166001600160e01b03199093169290921790915230929190612627565b91509150816111725761117286868686856126b1565b60006001600160e01b0319821663e07f1adb60e01b1480610bfe5750610bfe8261274e565b6000546001600160a01b0316331461118c5760405162461bcd60e51b815260206004820181905260248201527f4f776e61626c653a2063616c6c6572206973206e6f7420746865206f776e657260448201526064016109f6565b6001600160a01b038316611f655760405162461bcd60e51b8152602060048201526024808201527f45524332303a20617070726f76652066726f6d20746865207a65726f206164646044820152637265737360e01b60648201526084016109f6565b6001600160a01b038216611fc65760405162461bcd60e51b815260206004820152602260248201527f45524332303a20617070726f766520746f20746865207a65726f206164647265604482015261737360f01b60648201526084016109f6565b6001600160a01b0383811660008181526009602090815260408083209487168084529482529182902085905590518481527f8c5be1e5ebec7d5bd14f71427d1e84f3dd0314c0f7b2291e5b200ac8c7c3b925910160405180910390a3505050565b60006120338484611ad2565b9050600019811461209b578181101561208e5760405162461bcd60e51b815260206004820152601d60248201527f45524332303a20696e73756666696369656e7420616c6c6f77616e636500000060448201526064016109f6565b61209b8484848403611f03565b50505050565b6001600160a01b0383166121055760405162461bcd60e51b815260206004820152602560248201527f45524332303a207472616e736665722066726f6d20746865207a65726f206164604482015264647265737360d81b60648201526084016109f6565b6001600160a01b0382166121675760405162461bcd60e51b815260206004820152602360248201527f45524332303a207472616e7366657220746f20746865207a65726f206164647260448201526265737360e81b60648201526084016109f6565b6001600160a01b038316600090815260086020526040902054818110156121df5760405162461bcd60e51b815260206004820152602660248201527f45524332303a207472616e7366657220616d6f756e7420657863656564732062604482015265616c616e636560d01b60648201526084016109f6565b6001600160a01b03808516600090815260086020526040808220858503905591851681529081208054849290612216908490613d63565b92505081905550826001600160a01b0316846001600160a01b03167fddf252ad1be2c89b69c2b068fc378daa952ba7f163c4a11628f55a4df523b3ef8460405161226291815260200190565b60405180910390a361209b565b61227d866000836000612788565b600061228b88888888612802565b905060008087836040516020016122a493929190614016565b60405160208183030381529060405290506122c3888287878734612834565b886001600160a01b03168861ffff167f39a4c66499bcf4b56d79f0dde8ed7a9d4925a0df55825206b2b8531e202be0d08985604051612303929190614043565b60405180910390a3505050505050505050565b602081015161ffff811661233557612330858585856129cc565b610d18565b61ffff81166001141561234e5761233085858585612a56565b60405162461bcd60e51b815260206004820152602660248201527f436f6d706f7361626c654f4654436f72653a20756e6b6e6f776e207061636b6560448201526574207479706560d01b60648201526084016109f6565b600080546001600160a01b038381166001600160a01b0319831681178455604051919092169283917f8be0079c531659141344cd1fd0a4f28419497f9722a3daafe3b4186f6b6457e09190a35050565b60608161240381601f613d63565b10156124425760405162461bcd60e51b815260206004820152600e60248201526d736c6963655f6f766572666c6f7760901b60448201526064016109f6565b61244c8284613d63565b845110156124905760405162461bcd60e51b8152602060048201526011602482015270736c6963655f6f75744f66426f756e647360781b60448201526064016109f6565b6060821580156124af57604051915060008252602082016040526124f9565b6040519150601f8416801560200281840101858101878315602002848b0101015b818310156124e85780518352602092830192016124d0565b5050858452601f01601f1916604052505b50949350505050565b611d578160405160240161251891815260200190565b60408051601f198184030181529190526020810180516001600160e01b031663f82c50f160e01b179052612b65565b61255d89600183876001600160401b0316612788565b600061256b8b8b8b8b612802565b604080513360601b6001600160601b031916602082015281516014818303018152603482019092529192506000916125b2916001918d9086908d908d908d90605401614065565b60405160208183030381529060405290506125d18b8287878734612834565b8b6001600160a01b03168b61ffff167f39a4c66499bcf4b56d79f0dde8ed7a9d4925a0df55825206b2b8531e202be0d08c85604051612611929190614043565b60405180910390a3505050505050505050505050565b6000606060008060008661ffff166001600160401b0381111561264c5761264c6136ea565b6040519080825280601f01601f191660200182016040528015612676576020820181803683370190505b50905060008087516020890160008d8df191503d925086831115612698578692505b828152826000602083013e909890975095505050505050565b8180519060200120600560008761ffff1661ffff168152602001908152602001600020856040516126e291906140cd565b9081526040805191829003602090810183206001600160401b0388166000908152915220919091557fe183f33de2837795525b4792ca4cd60535bd77c53b7e7030060bfcf5734d6b0c9061273f90879087908790879087906140e9565b60405180910390a15050505050565b60006001600160e01b03198216630a72677560e11b1480610bfe57506301ffc9a760e01b6001600160e01b0319831614610bfe565b505050565b60065460ff16156127a45761279f84848484612b86565b61209b565b81511561209b5760405162461bcd60e51b815260206004820152602660248201527f4f4654436f72653a205f61646170746572506172616d73206d7573742062652060448201526532b6b83a3c9760d11b60648201526084016109f6565b6000336001600160a01b038616811461282057612820868285612027565b61282a8684612c65565b5090949350505050565b61ffff86166000908152600160205260408120805461285290613c30565b80601f016020809104026020016040519081016040528092919081815260200182805461287e90613c30565b80156128cb5780601f106128a0576101008083540402835291602001916128cb565b820191906000526020600020905b8154815290600101906020018083116128ae57829003601f168201915b5050505050905080516000141561293d5760405162461bcd60e51b815260206004820152603060248201527f4c7a4170703a2064657374696e6174696f6e20636861696e206973206e6f742060448201526f61207472757374656420736f7572636560801b60648201526084016109f6565b612948878751612db3565b60405162c5803160e81b81526001600160a01b037f0000000000000000000000000000000000000000000000000000000000000000169063c580310090849061299f908b9086908c908c908c908c90600401614147565b6000604051808303818588803b1580156129b857600080fd5b505af1158015611c30573d6000803e3d6000fd5b600080828060200190518101906129e391906141a1565b9093509150600090506129f68382612e21565b9050612a03878284612e86565b9150806001600160a01b03168761ffff167fbf551ec93859b170f9b2141bd9298bf3f64322c6f7beb2543a0cb669834118bf84604051612a4591815260200190565b60405180910390a350505050505050565b600080600080600085806020019051810190612a7291906141fa565b95509550955095509550506000612a93600086612e2190919063ffffffff16565b9050612aa08a8286612e86565b9350806001600160a01b03168a61ffff167fbf551ec93859b170f9b2141bd9298bf3f64322c6f7beb2543a0cb669834118bf86604051612ae291815260200190565b60405180910390a36001600160a01b0381163b612b40576040516001600160a01b03821681527f9aedf5fdba8716db3b6705ca00150643309995d4f818a249ed6dde6677e7792d9060200160405180910390a150505050505061209b565b612b598a8a8a89858989896001600160401b0316612e99565b50505050505050505050565b80516a636f6e736f6c652e6c6f67602083016000808483855afa5050505050565b6000612b918361305b565b61ffff808716600090815260026020908152604080832093891683529290529081205491925090612bc3908490613d63565b905060008111612c155760405162461bcd60e51b815260206004820152601a60248201527f4c7a4170703a206d696e4761734c696d6974206e6f742073657400000000000060448201526064016109f6565b808210156111725760405162461bcd60e51b815260206004820152601b60248201527f4c7a4170703a20676173206c696d697420697320746f6f206c6f77000000000060448201526064016109f6565b6001600160a01b038216612cc55760405162461bcd60e51b815260206004820152602160248201527f45524332303a206275726e2066726f6d20746865207a65726f206164647265736044820152607360f81b60648201526084016109f6565b6001600160a01b03821660009081526008602052604090205481811015612d395760405162461bcd60e51b815260206004820152602260248201527f45524332303a206275726e20616d6f756e7420657863656564732062616c616e604482015261636560f01b60648201526084016109f6565b6001600160a01b03831660009081526008602052604081208383039055600a8054849290612d68908490613d99565b90915550506040518281526000906001600160a01b038516907fddf252ad1be2c89b69c2b068fc378daa952ba7f163c4a11628f55a4df523b3ef9060200160405180910390a3505050565b61ffff821660009081526003602052604090205480612dd157506127105b808211156127835760405162461bcd60e51b815260206004820181905260248201527f4c7a4170703a207061796c6f61642073697a6520697320746f6f206c6172676560448201526064016109f6565b6000612e2e826014613d63565b83511015612e765760405162461bcd60e51b8152602060048201526015602482015274746f416464726573735f6f75744f66426f756e647360581b60448201526064016109f6565b500160200151600160601b900490565b6000612e9283836130b7565b5092915050565b600080612f0983609663147a7d7160e01b8d8d8d8d8c8c604051602401612ec5969594939291906142b2565b60408051601f198184030181529190526020810180516001600160e01b03166001600160e01b0319909316929092179091526001600160a01b038a16929190612627565b9150915081612fdd5786868686604051602001612f29949392919061430a565b60408051601f19818403018152828252805160209182012061ffff8e16600090815260079092529190209091612f60908c906140cd565b9081526040805191829003602090810183206001600160401b038d166000908152915220919091556001600160a01b0387169061ffff8c16907f95c1ad3ef50dd05e668d7b80e9a723079395ac4867a4050552d5d9219e683d7490612fd0908d908d908d908c908c908a90614345565b60405180910390a3612b59565b600087878787604051602001612ff6949392919061430a565b6040516020818303038152906040528051906020012090508a61ffff167fb8890edbfc1c74692f527444645f95489c3703cc2df42e4a366f5d06fa6cd8848b8b84604051613046939291906143a7565b60405180910390a25050505050505050505050565b60006022825110156130af5760405162461bcd60e51b815260206004820152601c60248201527f4c7a4170703a20696e76616c69642061646170746572506172616d730000000060448201526064016109f6565b506022015190565b6001600160a01b03821661310d5760405162461bcd60e51b815260206004820152601f60248201527f45524332303a206d696e7420746f20746865207a65726f20616464726573730060448201526064016109f6565b80600a600082825461311f9190613d63565b90915550506001600160a01b0382166000908152600860205260408120805483929061314c908490613d63565b90915550506040518181526001600160a01b038316906000907fddf252ad1be2c89b69c2b068fc378daa952ba7f163c4a11628f55a4df523b3ef9060200160405180910390a35050565b8280546131a290613c30565b90600052602060002090601f0160209004810192826131c4576000855561320a565b82601f106131dd57805160ff191683800117855561320a565b8280016001018555821561320a579182015b8281111561320a5782518255916020019190600101906131ef565b5061321692915061328e565b5090565b82805461322690613c30565b90600052602060002090601f016020900481019282613248576000855561320a565b82601f106132615782800160ff1982351617855561320a565b8280016001018555821561320a579182015b8281111561320a578235825591602001919060010190613273565b5b80821115613216576000815560010161328f565b61ffff81168114611d5757600080fd5b80356132be816132a3565b919050565b60008083601f8401126132d557600080fd5b5081356001600160401b038111156132ec57600080fd5b60208301915083602082850101111561330457600080fd5b9250929050565b6001600160401b0381168114611d5757600080fd5b80356132be8161330b565b6000806000806000806080878903121561334457600080fd5b863561334f816132a3565b955060208701356001600160401b038082111561336b57600080fd5b6133778a838b016132c3565b90975095506040890135915061338c8261330b565b909350606088013590808211156133a257600080fd5b506133af89828a016132c3565b979a9699509497509295939492505050565b6000602082840312156133d357600080fd5b81356001600160e01b03198116811461135757600080fd5b60005b838110156134065781810151838201526020016133ee565b8381111561209b5750506000910152565b6000815180845261342f8160208601602086016133eb565b601f01601f19169290920160200192915050565b6020815260006113576020830184613417565b60006020828403121561346857600080fd5b8135611357816132a3565b6001600160a01b0381168114611d5757600080fd5b80356132be81613473565b600080604083850312156134a657600080fd5b82356134b181613473565b946020939093013593505050565b600080604083850312156134d257600080fd5b82356134b1816132a3565b6000806000606084860312156134f257600080fd5b83356134fd81613473565b9250602084013561350d81613473565b929592945050506040919091013590565b803580151581146132be57600080fd5b600080600080600080600060a0888a03121561354957600080fd5b8735613554816132a3565b965060208801356001600160401b038082111561357057600080fd5b61357c8b838c016132c3565b909850965060408a0135955086915061359760608b0161351e565b945060808a01359150808211156135ad57600080fd5b506135ba8a828b016132c3565b989b979a50959850939692959293505050565b6000806000604084860312156135e257600080fd5b83356135ed816132a3565b925060208401356001600160401b0381111561360857600080fd5b613614868287016132c3565b9497909650939450505050565b600080600080600080600080600060e08a8c03121561363f57600080fd5b893561364a81613473565b985060208a013561365a816132a3565b975060408a01356001600160401b038082111561367657600080fd5b6136828d838e016132c3565b909950975060608c0135965060808c0135915061369e82613473565b90945060a08b0135906136b082613473565b90935060c08b013590808211156136c657600080fd5b506136d38c828d016132c3565b915080935050809150509295985092959850929598565b634e487b7160e01b600052604160045260246000fd5b604051601f8201601f191681016001600160401b0381118282101715613728576137286136ea565b604052919050565b60006001600160401b03821115613749576137496136ea565b50601f01601f191660200190565b60008060006060848603121561376c57600080fd5b8335613777816132a3565b925060208401356001600160401b0381111561379257600080fd5b8401601f810186136137a357600080fd5b80356137b66137b182613730565b613700565b8181528760208385010111156137cb57600080fd5b8160208401602083013760006020838301015280945050505060408401356137f28161330b565b809150509250925092565b60006020828403121561380f57600080fd5b813561135781613473565b6000806040838503121561382d57600080fd5b8235613838816132a3565b91506020830135613848816132a3565b809150509250929050565b60008060008060008060008060008060e08b8d03121561387257600080fd5b8a3561387d816132a3565b995060208b01356001600160401b038082111561389957600080fd5b6138a58e838f016132c3565b909b50995060408d0135985060608d01359150808211156138c557600080fd5b6138d18e838f016132c3565b909850965060808d013591506138e68261330b565b8195506138f560a08e0161351e565b945060c08d013591508082111561390b57600080fd5b506139188d828e016132c3565b915080935050809150509295989b9194979a5092959850565b60008060008060006080868803121561394957600080fd5b8535613954816132a3565b94506020860135613964816132a3565b93506040860135925060608601356001600160401b0381111561398657600080fd5b613992888289016132c3565b969995985093965092949392505050565b60008060008060008060008060008060e08b8d0312156139c257600080fd5b8a356139cd816132a3565b995060208b01356001600160401b03808211156139e957600080fd5b6139f58e838f016132c3565b909b50995060408d01359150613a0a8261330b565b90975060608c01359080821115613a2057600080fd5b613a2c8e838f016132c3565b9098509650869150613a4060808e01613488565b955060a08d0135945060c08d013591508082111561390b57600080fd5b60008060408385031215613a7057600080fd5b8235613a7b81613473565b9150602083013561384881613473565b600080600060608486031215613aa057600080fd5b8335613aab816132a3565b9250602084013561350d816132a3565b6000806000806000806000806000806000806101208d8f031215613ade57600080fd5b613ae78d613488565b9b50613af560208e016132b3565b9a506001600160401b0360408e01351115613b0f57600080fd5b613b1f8e60408f01358f016132c3565b909a50985060608d013597506001600160401b0360808e01351115613b4357600080fd5b613b538e60808f01358f016132c3565b9097509550613b6460a08e01613320565b9450613b7260c08e01613488565b9350613b8060e08e01613488565b92506001600160401b036101008e01351115613b9b57600080fd5b613bac8e6101008f01358f016132c3565b81935080925050509295989b509295989b509295989b565b600060208284031215613bd657600080fd5b6113578261351e565b60008060008060808587031215613bf557600080fd5b8435613c00816132a3565b93506020850135613c10816132a3565b92506040850135613c2081613473565b9396929550929360600135925050565b600181811c90821680613c4457607f821691505b60208210811415613c6557634e487b7160e01b600052602260045260246000fd5b50919050565b8183823760009101908152919050565b81835281816020850137506000828201602090810191909152601f909101601f19169091010190565b61ffff85168152606060208201526000613cc2606083018587613c7b565b905082604083015295945050505050565b61ffff871681526001600160a01b038616602082015260a060408201819052600090613d0190830187613417565b85151560608401528281036080840152613d1c818587613c7b565b9998505050505050505050565b60008060408385031215613d3c57600080fd5b505080516020909101519092909150565b634e487b7160e01b600052601160045260246000fd5b60008219821115613d7657613d76613d4d565b500190565b61ffff84168152604060208201526000611e02604083018486613c7b565b600082821015613dab57613dab613d4d565b500390565b8284823760609190911b6001600160601b0319169101908152601401919050565b61ffff8916815260c060208201526000613dee60c083018a613417565b8281036040840152613e0181898b613c7b565b90508660608401528281036080840152613e1c818688613c7b565b9150506001600160401b03831660a08301529998505050505050505050565b600061ffff808816835280871660208401525084604083015260806060830152613e69608083018486613c7b565b979650505050505050565b608081526000613e8860808301888a613c7b565b6001600160a01b0387166020840152604083018690528281036060840152613d1c818587613c7b565b61ffff8a16815260c060208201526000613ecf60c083018a8c613c7b565b6001600160401b03891660408401528281036060840152613ef181888a613c7b565b905085608084015282810360a0840152613f0c818587613c7b565b9c9b505050505050505050505050565b61ffff86168152608060208201526000613f3a608083018688613c7b565b6001600160401b0394909416604083015250606001529392505050565b600082601f830112613f6857600080fd5b8151613f766137b182613730565b818152846020838601011115613f8b57600080fd5b613f9c8260208301602087016133eb565b949350505050565b600060208284031215613fb657600080fd5b81516001600160401b03811115613fcc57600080fd5b613f9c84828501613f57565b61ffff85168152608060208201526000613ff56080830186613417565b6001600160401b03851660408401528281036060840152613e698185613417565b61ffff841681526060602082015260006140336060830185613417565b9050826040830152949350505050565b6040815260006140566040830185613417565b90508260208301529392505050565b61ffff8816815260c06020820152600061408260c0830189613417565b82810360408401526140948189613417565b905086606084015282810360808401526140af818688613c7b565b9150506001600160401b03831660a083015298975050505050505050565b600082516140df8184602087016133eb565b9190910192915050565b61ffff8616815260a06020820152600061410660a0830187613417565b6001600160401b038616604084015282810360608401526141278186613417565b9050828103608084015261413b8185613417565b98975050505050505050565b61ffff8716815260c06020820152600061416460c0830188613417565b82810360408401526141768188613417565b6001600160a01b0387811660608601528616608085015283810360a08501529050613d1c8185613417565b6000806000606084860312156141b657600080fd5b83516141c1816132a3565b60208501519093506001600160401b038111156141dd57600080fd5b6141e986828701613f57565b925050604084015190509250925092565b60008060008060008060c0878903121561421357600080fd5b865161421e816132a3565b60208801519096506001600160401b038082111561423b57600080fd5b6142478a838b01613f57565b9650604089015191508082111561425d57600080fd5b6142698a838b01613f57565b955060608901519450608089015191508082111561428657600080fd5b5061429389828a01613f57565b92505060a08701516142a48161330b565b809150509295509295509295565b61ffff8716815260c0602082015260006142cf60c0830188613417565b6001600160401b038716604084015282810360608401526142f08187613417565b905084608084015282810360a0840152613d1c8185613417565b60808152600061431d6080830187613417565b6001600160a01b0386166020840152604083018590528281036060840152613e698185613417565b60c08152600061435860c0830189613417565b6001600160401b038816602084015282810360408401526143798188613417565b905085606084015282810360808401526143938186613417565b905082810360a0840152613d1c8185613417565b6060815260006143ba6060830186613417565b6001600160401b03949094166020830152506040015291905056fea2646970667358221220dbcd50ae4028aae1bd3728b336098ba0808c49cc1051e18695839189559933fc64736f6c634300080c0033",
  "linkReferences": {},
  "deployedLinkReferences": {}
}