{
  "_format": "hh-sol-artifact-1",
  "contractName": "ONFT721Mock",
  "sourceName": "contracts/mocks/ONFT721Mock.sol",
  "abi": [
    {
      "inputs": [
        {
          "internalType": "string",
          "name": "_name",
          "type": "string"
        },
        {
          "internalType": "string",
          "name": "_symbol",
          "type": "string"
        },
        {
          "internalType": "uint256",
          "name": "_minGasToStore",
          "type": "uint256"
        },
        {
          "internalType": "address",
          "name": "_layerZeroEndpoint",
          "type": "address"
        }
      ],
      "stateMutability": "nonpayable",
      "type": "constructor"
    },
    {
      "anonymous": false,
      "inputs": [
        {
          "indexed": true,
          "internalType": "address",
          "name": "owner",
          "type": "address"
        },
        {
          "indexed": true,
          "internalType": "address",
          "name": "approved",
          "type": "address"
        },
        {
          "indexed": true,
          "internalType": "uint256",
          "name": "tokenId",
          "type": "uint256"
        }
      ],
      "name": "Approval",
      "type": "event"
    },
    {
      "anonymous": false,
      "inputs": [
        {
          "indexed": true,
          "internalType": "address",
          "name": "owner",
          "type": "address"
        },
        {
          "indexed": true,
          "internalType": "address",
          "name": "operator",
          "type": "address"
        },
        {
          "indexed": false,
          "internalType": "bool",
          "name": "approved",
          "type": "bool"
        }
      ],
      "name": "ApprovalForAll",
      "type": "event"
    },
    {
      "anonymous": false,
      "inputs": [
        {
          "indexed": false,
          "internalType": "bytes32",
          "name": "_hashedPayload",
          "type": "bytes32"
        }
      ],
      "name": "CreditCleared",
      "type": "event"
    },
    {
      "anonymous": false,
      "inputs": [
        {
          "indexed": false,
          "internalType": "bytes32",
          "name": "_hashedPayload",
          "type": "bytes32"
        },
        {
          "indexed": false,
          "internalType": "bytes",
          "name": "_payload",
          "type": "bytes"
        }
      ],
      "name": "CreditStored",
      "type": "event"
    },
    {
      "anonymous": false,
      "inputs": [
        {
          "indexed": false,
          "internalType": "uint16",
          "name": "_srcChainId",
          "type": "uint16"
        },
        {
          "indexed": false,
          "internalType": "bytes",
          "name": "_srcAddress",
          "type": "bytes"
        },
        {
          "indexed": false,
          "internalType": "uint64",
          "name": "_nonce",
          "type": "uint64"
        },
        {
          "indexed": false,
          "internalType": "bytes",
          "name": "_payload",
          "type": "bytes"
        },
        {
          "indexed": false,
          "internalType": "bytes",
          "name": "_reason",
          "type": "bytes"
        }
      ],
      "name": "MessageFailed",
      "type": "event"
    },
    {
      "anonymous": false,
      "inputs": [
        {
          "indexed": true,
          "internalType": "address",
          "name": "previousOwner",
          "type": "address"
        },
        {
          "indexed": true,
          "internalType": "address",
          "name": "newOwner",
          "type": "address"
        }
      ],
      "name": "OwnershipTransferred",
      "type": "event"
    },
    {
      "anonymous": false,
      "inputs": [
        {
          "indexed": true,
          "internalType": "uint16",
          "name": "_srcChainId",
          "type": "uint16"
        },
        {
          "indexed": true,
          "internalType": "bytes",
          "name": "_srcAddress",
          "type": "bytes"
        },
        {
          "indexed": true,
          "internalType": "address",
          "name": "_toAddress",
          "type": "address"
        },
        {
          "indexed": false,
          "internalType": "uint256[]",
          "name": "_tokenIds",
          "type": "uint256[]"
        }
      ],
      "name": "ReceiveFromChain",
      "type": "event"
    },
    {
      "anonymous": false,
      "inputs": [
        {
          "indexed": false,
          "internalType": "uint16",
          "name": "_srcChainId",
          "type": "uint16"
        },
        {
          "indexed": false,
          "internalType": "bytes",
          "name": "_srcAddress",
          "type": "bytes"
        },
        {
          "indexed": false,
          "internalType": "uint64",
          "name": "_nonce",
          "type": "uint64"
        },
        {
          "indexed": false,
          "internalType": "bytes32",
          "name": "_payloadHash",
          "type": "bytes32"
        }
      ],
      "name": "RetryMessageSuccess",
      "type": "event"
    },
    {
      "anonymous": false,
      "inputs": [
        {
          "indexed": true,
          "internalType": "uint16",
          "name": "_dstChainId",
          "type": "uint16"
        },
        {
          "indexed": true,
          "internalType": "address",
          "name": "_from",
          "type": "address"
        },
        {
          "indexed": true,
          "internalType": "bytes",
          "name": "_toAddress",
          "type": "bytes"
        },
        {
          "indexed": false,
          "internalType": "uint256[]",
          "name": "_tokenIds",
          "type": "uint256[]"
        }
      ],
      "name": "SendToChain",
      "type": "event"
    },
    {
      "anonymous": false,
      "inputs": [
        {
          "indexed": false,
          "internalType": "uint16",
          "name": "_dstChainId",
          "type": "uint16"
        },
        {
          "indexed": false,
          "internalType": "uint16",
          "name": "_type",
          "type": "uint16"
        },
        {
          "indexed": false,
          "internalType": "uint256",
          "name": "_minDstGas",
          "type": "uint256"
        }
      ],
      "name": "SetMinDstGas",
      "type": "event"
    },
    {
      "anonymous": false,
      "inputs": [
        {
          "indexed": false,
          "internalType": "address",
          "name": "precrime",
          "type": "address"
        }
      ],
      "name": "SetPrecrime",
      "type": "event"
    },
    {
      "anonymous": false,
      "inputs": [
        {
          "indexed": false,
          "internalType": "uint16",
          "name": "_remoteChainId",
          "type": "uint16"
        },
        {
          "indexed": false,
          "internalType": "bytes",
          "name": "_path",
          "type": "bytes"
        }
      ],
      "name": "SetTrustedRemote",
      "type": "event"
    },
    {
      "anonymous": false,
      "inputs": [
        {
          "indexed": false,
          "internalType": "uint16",
          "name": "_remoteChainId",
          "type": "uint16"
        },
        {
          "indexed": false,
          "internalType": "bytes",
          "name": "_remoteAddress",
          "type": "bytes"
        }
      ],
      "name": "SetTrustedRemoteAddress",
      "type": "event"
    },
    {
      "anonymous": false,
      "inputs": [
        {
          "indexed": true,
          "internalType": "address",
          "name": "from",
          "type": "address"
        },
        {
          "indexed": true,
          "internalType": "address",
          "name": "to",
          "type": "address"
        },
        {
          "indexed": true,
          "internalType": "uint256",
          "name": "tokenId",
          "type": "uint256"
        }
      ],
      "name": "Transfer",
      "type": "event"
    },
    {
      "inputs": [],
      "name": "DEFAULT_PAYLOAD_SIZE_LIMIT",
      "outputs": [
        {
          "internalType": "uint256",
          "name": "",
          "type": "uint256"
        }
      ],
      "stateMutability": "view",
      "type": "function"
    },
    {
      "inputs": [],
      "name": "FUNCTION_TYPE_SEND",
      "outputs": [
        {
          "internalType": "uint16",
          "name": "",
          "type": "uint16"
        }
      ],
      "stateMutability": "view",
      "type": "function"
    },
    {
      "inputs": [
        {
          "internalType": "address",
          "name": "to",
          "type": "address"
        },
        {
          "internalType": "uint256",
          "name": "tokenId",
          "type": "uint256"
        }
      ],
      "name": "approve",
      "outputs": [],
      "stateMutability": "nonpayable",
      "type": "function"
    },
    {
      "inputs": [
        {
          "internalType": "address",
          "name": "owner",
          "type": "address"
        }
      ],
      "name": "balanceOf",
      "outputs": [
        {
          "internalType": "uint256",
          "name": "",
          "type": "uint256"
        }
      ],
      "stateMutability": "view",
      "type": "function"
    },
    {
      "inputs": [
        {
          "internalType": "bytes",
          "name": "_payload",
          "type": "bytes"
        }
      ],
      "name": "clearCredits",
      "outputs": [],
      "stateMutability": "nonpayable",
      "type": "function"
    },
    {
      "inputs": [
        {
          "internalType": "uint16",
          "name": "",
          "type": "uint16"
        }
      ],
      "name": "dstChainIdToBatchLimit",
      "outputs": [
        {
          "internalType": "uint256",
          "name": "",
          "type": "uint256"
        }
      ],
      "stateMutability": "view",
      "type": "function"
    },
    {
      "inputs": [
        {
          "internalType": "uint16",
          "name": "",
          "type": "uint16"
        }
      ],
      "name": "dstChainIdToTransferGas",
      "outputs": [
        {
          "internalType": "uint256",
          "name": "",
          "type": "uint256"
        }
      ],
      "stateMutability": "view",
      "type": "function"
    },
    {
      "inputs": [
        {
          "internalType": "uint16",
          "name": "_dstChainId",
          "type": "uint16"
        },
        {
          "internalType": "bytes",
          "name": "_toAddress",
          "type": "bytes"
        },
        {
          "internalType": "uint256[]",
          "name": "_tokenIds",
          "type": "uint256[]"
        },
        {
          "internalType": "bool",
          "name": "_useZro",
          "type": "bool"
        },
        {
          "internalType": "bytes",
          "name": "_adapterParams",
          "type": "bytes"
        }
      ],
      "name": "estimateSendBatchFee",
      "outputs": [
        {
          "internalType": "uint256",
          "name": "nativeFee",
          "type": "uint256"
        },
        {
          "internalType": "uint256",
          "name": "zroFee",
          "type": "uint256"
        }
      ],
      "stateMutability": "view",
      "type": "function"
    },
    {
      "inputs": [
        {
          "internalType": "uint16",
          "name": "_dstChainId",
          "type": "uint16"
        },
        {
          "internalType": "bytes",
          "name": "_toAddress",
          "type": "bytes"
        },
        {
          "internalType": "uint256",
          "name": "_tokenId",
          "type": "uint256"
        },
        {
          "internalType": "bool",
          "name": "_useZro",
          "type": "bool"
        },
        {
          "internalType": "bytes",
          "name": "_adapterParams",
          "type": "bytes"
        }
      ],
      "name": "estimateSendFee",
      "outputs": [
        {
          "internalType": "uint256",
          "name": "nativeFee",
          "type": "uint256"
        },
        {
          "internalType": "uint256",
          "name": "zroFee",
          "type": "uint256"
        }
      ],
      "stateMutability": "view",
      "type": "function"
    },
    {
      "inputs": [
        {
          "internalType": "uint16",
          "name": "",
          "type": "uint16"
        },
        {
          "internalType": "bytes",
          "name": "",
          "type": "bytes"
        },
        {
          "internalType": "uint64",
          "name": "",
          "type": "uint64"
        }
      ],
      "name": "failedMessages",
      "outputs": [
        {
          "internalType": "bytes32",
          "name": "",
          "type": "bytes32"
        }
      ],
      "stateMutability": "view",
      "type": "function"
    },
    {
      "inputs": [
        {
          "internalType": "uint16",
          "name": "_srcChainId",
          "type": "uint16"
        },
        {
          "internalType": "bytes",
          "name": "_srcAddress",
          "type": "bytes"
        }
      ],
      "name": "forceResumeReceive",
      "outputs": [],
      "stateMutability": "nonpayable",
      "type": "function"
    },
    {
      "inputs": [
        {
          "internalType": "uint256",
          "name": "tokenId",
          "type": "uint256"
        }
      ],
      "name": "getApproved",
      "outputs": [
        {
          "internalType": "address",
          "name": "",
          "type": "address"
        }
      ],
      "stateMutability": "view",
      "type": "function"
    },
    {
      "inputs": [
        {
          "internalType": "uint16",
          "name": "_version",
          "type": "uint16"
        },
        {
          "internalType": "uint16",
          "name": "_chainId",
          "type": "uint16"
        },
        {
          "internalType": "address",
          "name": "",
          "type": "address"
        },
        {
          "internalType": "uint256",
          "name": "_configType",
          "type": "uint256"
        }
      ],
      "name": "getConfig",
      "outputs": [
        {
          "internalType": "bytes",
          "name": "",
          "type": "bytes"
        }
      ],
      "stateMutability": "view",
      "type": "function"
    },
    {
      "inputs": [
        {
          "internalType": "uint16",
          "name": "_remoteChainId",
          "type": "uint16"
        }
      ],
      "name": "getTrustedRemoteAddress",
      "outputs": [
        {
          "internalType": "bytes",
          "name": "",
          "type": "bytes"
        }
      ],
      "stateMutability": "view",
      "type": "function"
    },
    {
      "inputs": [
        {
          "internalType": "address",
          "name": "owner",
          "type": "address"
        },
        {
          "internalType": "address",
          "name": "operator",
          "type": "address"
        }
      ],
      "name": "isApprovedForAll",
      "outputs": [
        {
          "internalType": "bool",
          "name": "",
          "type": "bool"
        }
      ],
      "stateMutability": "view",
      "type": "function"
    },
    {
      "inputs": [
        {
          "internalType": "uint16",
          "name": "_srcChainId",
          "type": "uint16"
        },
        {
          "internalType": "bytes",
          "name": "_srcAddress",
          "type": "bytes"
        }
      ],
      "name": "isTrustedRemote",
      "outputs": [
        {
          "internalType": "bool",
          "name": "",
          "type": "bool"
        }
      ],
      "stateMutability": "view",
      "type": "function"
    },
    {
      "inputs": [],
      "name": "lzEndpoint",
      "outputs": [
        {
          "internalType": "contract ILayerZeroEndpoint",
          "name": "",
          "type": "address"
        }
      ],
      "stateMutability": "view",
      "type": "function"
    },
    {
      "inputs": [
        {
          "internalType": "uint16",
          "name": "_srcChainId",
          "type": "uint16"
        },
        {
          "internalType": "bytes",
          "name": "_srcAddress",
          "type": "bytes"
        },
        {
          "internalType": "uint64",
          "name": "_nonce",
          "type": "uint64"
        },
        {
          "internalType": "bytes",
          "name": "_payload",
          "type": "bytes"
        }
      ],
      "name": "lzReceive",
      "outputs": [],
      "stateMutability": "nonpayable",
      "type": "function"
    },
    {
      "inputs": [
        {
          "internalType": "uint16",
          "name": "",
          "type": "uint16"
        },
        {
          "internalType": "uint16",
          "name": "",
          "type": "uint16"
        }
      ],
      "name": "minDstGasLookup",
      "outputs": [
        {
          "internalType": "uint256",
          "name": "",
          "type": "uint256"
        }
      ],
      "stateMutability": "view",
      "type": "function"
    },
    {
      "inputs": [],
      "name": "minGasToTransferAndStore",
      "outputs": [
        {
          "internalType": "uint256",
          "name": "",
          "type": "uint256"
        }
      ],
      "stateMutability": "view",
      "type": "function"
    },
    {
      "inputs": [
        {
          "internalType": "address",
          "name": "_tokenOwner",
          "type": "address"
        },
        {
          "internalType": "uint256",
          "name": "_newId",
          "type": "uint256"
        }
      ],
      "name": "mint",
      "outputs": [],
      "stateMutability": "payable",
      "type": "function"
    },
    {
      "inputs": [],
      "name": "name",
      "outputs": [
        {
          "internalType": "string",
          "name": "",
          "type": "string"
        }
      ],
      "stateMutability": "view",
      "type": "function"
    },
    {
      "inputs": [
        {
          "internalType": "uint16",
          "name": "_srcChainId",
          "type": "uint16"
        },
        {
          "internalType": "bytes",
          "name": "_srcAddress",
          "type": "bytes"
        },
        {
          "internalType": "uint64",
          "name": "_nonce",
          "type": "uint64"
        },
        {
          "internalType": "bytes",
          "name": "_payload",
          "type": "bytes"
        }
      ],
      "name": "nonblockingLzReceive",
      "outputs": [],
      "stateMutability": "nonpayable",
      "type": "function"
    },
    {
      "inputs": [],
      "name": "owner",
      "outputs": [
        {
          "internalType": "address",
          "name": "",
          "type": "address"
        }
      ],
      "stateMutability": "view",
      "type": "function"
    },
    {
      "inputs": [
        {
          "internalType": "uint256",
          "name": "tokenId",
          "type": "uint256"
        }
      ],
      "name": "ownerOf",
      "outputs": [
        {
          "internalType": "address",
          "name": "",
          "type": "address"
        }
      ],
      "stateMutability": "view",
      "type": "function"
    },
    {
      "inputs": [
        {
          "internalType": "uint16",
          "name": "",
          "type": "uint16"
        }
      ],
      "name": "payloadSizeLimitLookup",
      "outputs": [
        {
          "internalType": "uint256",
          "name": "",
          "type": "uint256"
        }
      ],
      "stateMutability": "view",
      "type": "function"
    },
    {
      "inputs": [],
      "name": "precrime",
      "outputs": [
        {
          "internalType": "address",
          "name": "",
          "type": "address"
        }
      ],
      "stateMutability": "view",
      "type": "function"
    },
    {
      "inputs": [],
      "name": "renounceOwnership",
      "outputs": [],
      "stateMutability": "nonpayable",
      "type": "function"
    },
    {
      "inputs": [
        {
          "internalType": "uint16",
          "name": "_srcChainId",
          "type": "uint16"
        },
        {
          "internalType": "bytes",
          "name": "_srcAddress",
          "type": "bytes"
        },
        {
          "internalType": "uint64",
          "name": "_nonce",
          "type": "uint64"
        },
        {
          "internalType": "bytes",
          "name": "_payload",
          "type": "bytes"
        }
      ],
      "name": "retryMessage",
      "outputs": [],
      "stateMutability": "payable",
      "type": "function"
    },
    {
      "inputs": [
        {
          "internalType": "address",
          "name": "from",
          "type": "address"
        },
        {
          "internalType": "address",
          "name": "to",
          "type": "address"
        },
        {
          "internalType": "uint256",
          "name": "tokenId",
          "type": "uint256"
        }
      ],
      "name": "safeTransferFrom",
      "outputs": [],
      "stateMutability": "nonpayable",
      "type": "function"
    },
    {
      "inputs": [
        {
          "internalType": "address",
          "name": "from",
          "type": "address"
        },
        {
          "internalType": "address",
          "name": "to",
          "type": "address"
        },
        {
          "internalType": "uint256",
          "name": "tokenId",
          "type": "uint256"
        },
        {
          "internalType": "bytes",
          "name": "data",
          "type": "bytes"
        }
      ],
      "name": "safeTransferFrom",
      "outputs": [],
      "stateMutability": "nonpayable",
      "type": "function"
    },
    {
      "inputs": [
        {
          "internalType": "address",
          "name": "_from",
          "type": "address"
        },
        {
          "internalType": "uint16",
          "name": "_dstChainId",
          "type": "uint16"
        },
        {
          "internalType": "bytes",
          "name": "_toAddress",
          "type": "bytes"
        },
        {
          "internalType": "uint256[]",
          "name": "_tokenIds",
          "type": "uint256[]"
        },
        {
          "internalType": "address payable",
          "name": "_refundAddress",
          "type": "address"
        },
        {
          "internalType": "address",
          "name": "_zroPaymentAddress",
          "type": "address"
        },
        {
          "internalType": "bytes",
          "name": "_adapterParams",
          "type": "bytes"
        }
      ],
      "name": "sendBatchFrom",
      "outputs": [],
      "stateMutability": "payable",
      "type": "function"
    },
    {
      "inputs": [
        {
          "internalType": "address",
          "name": "_from",
          "type": "address"
        },
        {
          "internalType": "uint16",
          "name": "_dstChainId",
          "type": "uint16"
        },
        {
          "internalType": "bytes",
          "name": "_toAddress",
          "type": "bytes"
        },
        {
          "internalType": "uint256",
          "name": "_tokenId",
          "type": "uint256"
        },
        {
          "internalType": "address payable",
          "name": "_refundAddress",
          "type": "address"
        },
        {
          "internalType": "address",
          "name": "_zroPaymentAddress",
          "type": "address"
        },
        {
          "internalType": "bytes",
          "name": "_adapterParams",
          "type": "bytes"
        }
      ],
      "name": "sendFrom",
      "outputs": [],
      "stateMutability": "payable",
      "type": "function"
    },
    {
      "inputs": [
        {
          "internalType": "address",
          "name": "operator",
          "type": "address"
        },
        {
          "internalType": "bool",
          "name": "approved",
          "type": "bool"
        }
      ],
      "name": "setApprovalForAll",
      "outputs": [],
      "stateMutability": "nonpayable",
      "type": "function"
    },
    {
      "inputs": [
        {
          "internalType": "uint16",
          "name": "_version",
          "type": "uint16"
        },
        {
          "internalType": "uint16",
          "name": "_chainId",
          "type": "uint16"
        },
        {
          "internalType": "uint256",
          "name": "_configType",
          "type": "uint256"
        },
        {
          "internalType": "bytes",
          "name": "_config",
          "type": "bytes"
        }
      ],
      "name": "setConfig",
      "outputs": [],
      "stateMutability": "nonpayable",
      "type": "function"
    },
    {
      "inputs": [
        {
          "internalType": "uint16",
          "name": "_dstChainId",
          "type": "uint16"
        },
        {
          "internalType": "uint256",
          "name": "_dstChainIdToBatchLimit",
          "type": "uint256"
        }
      ],
      "name": "setDstChainIdToBatchLimit",
      "outputs": [],
      "stateMutability": "nonpayable",
      "type": "function"
    },
    {
      "inputs": [
        {
          "internalType": "uint16",
          "name": "_dstChainId",
          "type": "uint16"
        },
        {
          "internalType": "uint256",
          "name": "_dstChainIdToTransferGas",
          "type": "uint256"
        }
      ],
      "name": "setDstChainIdToTransferGas",
      "outputs": [],
      "stateMutability": "nonpayable",
      "type": "function"
    },
    {
      "inputs": [
        {
          "internalType": "uint16",
          "name": "_dstChainId",
          "type": "uint16"
        },
        {
          "internalType": "uint16",
          "name": "_packetType",
          "type": "uint16"
        },
        {
          "internalType": "uint256",
          "name": "_minGas",
          "type": "uint256"
        }
      ],
      "name": "setMinDstGas",
      "outputs": [],
      "stateMutability": "nonpayable",
      "type": "function"
    },
    {
      "inputs": [
        {
          "internalType": "uint256",
          "name": "_minGasToTransferAndStore",
          "type": "uint256"
        }
      ],
      "name": "setMinGasToTransferAndStore",
      "outputs": [],
      "stateMutability": "nonpayable",
      "type": "function"
    },
    {
      "inputs": [
        {
          "internalType": "uint16",
          "name": "_dstChainId",
          "type": "uint16"
        },
        {
          "internalType": "uint256",
          "name": "_size",
          "type": "uint256"
        }
      ],
      "name": "setPayloadSizeLimit",
      "outputs": [],
      "stateMutability": "nonpayable",
      "type": "function"
    },
    {
      "inputs": [
        {
          "internalType": "address",
          "name": "_precrime",
          "type": "address"
        }
      ],
      "name": "setPrecrime",
      "outputs": [],
      "stateMutability": "nonpayable",
      "type": "function"
    },
    {
      "inputs": [
        {
          "internalType": "uint16",
          "name": "_version",
          "type": "uint16"
        }
      ],
      "name": "setReceiveVersion",
      "outputs": [],
      "stateMutability": "nonpayable",
      "type": "function"
    },
    {
      "inputs": [
        {
          "internalType": "uint16",
          "name": "_version",
          "type": "uint16"
        }
      ],
      "name": "setSendVersion",
      "outputs": [],
      "stateMutability": "nonpayable",
      "type": "function"
    },
    {
      "inputs": [
        {
          "internalType": "uint16",
          "name": "_srcChainId",
          "type": "uint16"
        },
        {
          "internalType": "bytes",
          "name": "_path",
          "type": "bytes"
        }
      ],
      "name": "setTrustedRemote",
      "outputs": [],
      "stateMutability": "nonpayable",
      "type": "function"
    },
    {
      "inputs": [
        {
          "internalType": "uint16",
          "name": "_remoteChainId",
          "type": "uint16"
        },
        {
          "internalType": "bytes",
          "name": "_remoteAddress",
          "type": "bytes"
        }
      ],
      "name": "setTrustedRemoteAddress",
      "outputs": [],
      "stateMutability": "nonpayable",
      "type": "function"
    },
    {
      "inputs": [
        {
          "internalType": "bytes32",
          "name": "",
          "type": "bytes32"
        }
      ],
      "name": "storedCredits",
      "outputs": [
        {
          "internalType": "uint16",
          "name": "srcChainId",
          "type": "uint16"
        },
        {
          "internalType": "address",
          "name": "toAddress",
          "type": "address"
        },
        {
          "internalType": "uint256",
          "name": "index",
          "type": "uint256"
        },
        {
          "internalType": "bool",
          "name": "creditsRemain",
          "type": "bool"
        }
      ],
      "stateMutability": "view",
      "type": "function"
    },
    {
      "inputs": [
        {
          "internalType": "bytes4",
          "name": "interfaceId",
          "type": "bytes4"
        }
      ],
      "name": "supportsInterface",
      "outputs": [
        {
          "internalType": "bool",
          "name": "",
          "type": "bool"
        }
      ],
      "stateMutability": "view",
      "type": "function"
    },
    {
      "inputs": [],
      "name": "symbol",
      "outputs": [
        {
          "internalType": "string",
          "name": "",
          "type": "string"
        }
      ],
      "stateMutability": "view",
      "type": "function"
    },
    {
      "inputs": [
        {
          "internalType": "uint256",
          "name": "tokenId",
          "type": "uint256"
        }
      ],
      "name": "tokenURI",
      "outputs": [
        {
          "internalType": "string",
          "name": "",
          "type": "string"
        }
      ],
      "stateMutability": "view",
      "type": "function"
    },
    {
      "inputs": [
        {
          "internalType": "address",
          "name": "from",
          "type": "address"
        },
        {
          "internalType": "address",
          "name": "to",
          "type": "address"
        },
        {
          "internalType": "uint256",
          "name": "tokenId",
          "type": "uint256"
        }
      ],
      "name": "transferFrom",
      "outputs": [],
      "stateMutability": "nonpayable",
      "type": "function"
    },
    {
      "inputs": [
        {
          "internalType": "address",
          "name": "newOwner",
          "type": "address"
        }
      ],
      "name": "transferOwnership",
      "outputs": [],
      "stateMutability": "nonpayable",
      "type": "function"
    },
    {
      "inputs": [
        {
          "internalType": "uint16",
          "name": "",
          "type": "uint16"
        }
      ],
      "name": "trustedRemoteLookup",
      "outputs": [
        {
          "internalType": "bytes",
          "name": "",
          "type": "bytes"
        }
      ],
      "stateMutability": "view",
      "type": "function"
    }
  ],
  "bytecode": "0x60a06040523480156200001157600080fd5b506040516200499c3803806200499c8339810160408190526200003491620002c1565b838383838383838380806200004933620000fe565b6001600160a01b03166080525081620000be5760405162461bcd60e51b815260206004820152602d60248201527f4f4e46543732313a206d696e476173546f5472616e73666572416e6453746f7260448201526c065206d757374206265203e203609c1b606482015260840160405180910390fd5b506006558151620000d790600a9060208501906200014e565b508051620000ed90600b9060208401906200014e565b505050505050505050505062000393565b600080546001600160a01b038381166001600160a01b0319831681178455604051919092169283917f8be0079c531659141344cd1fd0a4f28419497f9722a3daafe3b4186f6b6457e09190a35050565b8280546200015c9062000356565b90600052602060002090601f016020900481019282620001805760008555620001cb565b82601f106200019b57805160ff1916838001178555620001cb565b82800160010185558215620001cb579182015b82811115620001cb578251825591602001919060010190620001ae565b50620001d9929150620001dd565b5090565b5b80821115620001d95760008155600101620001de565b634e487b7160e01b600052604160045260246000fd5b600082601f8301126200021c57600080fd5b81516001600160401b0380821115620002395762000239620001f4565b604051601f8301601f19908116603f01168101908282118183101715620002645762000264620001f4565b816040528381526020925086838588010111156200028157600080fd5b600091505b83821015620002a5578582018301518183018401529082019062000286565b83821115620002b75760008385830101525b9695505050505050565b60008060008060808587031215620002d857600080fd5b84516001600160401b0380821115620002f057600080fd5b620002fe888389016200020a565b955060208701519150808211156200031557600080fd5b5062000324878288016200020a565b60408701516060880151919550935090506001600160a01b03811681146200034b57600080fd5b939692955090935050565b600181811c908216806200036b57607f821691505b602082108114156200038d57634e487b7160e01b600052602260045260246000fd5b50919050565b6080516145b5620003e76000396000818161088c01528181610a9001528181610d9401528181610fec0152818161118f01528181611a4f01528181611eaa01528181611fe0015261307501526145b56000f3fe6080604052600436106102fe5760003560e01c80638cfd8f5c11610190578063baf3292d116100dc578063df2a5b3b11610095578063f23536411161006f578063f235364114610a00578063f2fde38b14610a20578063f5ecbdbc14610a40578063fa25f9b614610a6057600080fd5b8063df2a5b3b14610977578063e985e9c514610997578063eb8d72b7146109e057600080fd5b8063baf3292d146108ce578063c4461834146108ee578063c87b56dd14610904578063cbed8b9c14610924578063d12473a514610944578063d1deba1f1461096457600080fd5b80639f38369a11610149578063ab3ffb9311610123578063ab3ffb931461083f578063af3fb21c14610852578063b353aaa71461087a578063b88d4fde146108ae57600080fd5b80639f38369a146107df578063a22cb465146107ff578063a6c3d1651461081f57600080fd5b80638cfd8f5c146107145780638da5cb5b1461074c5780638ffa1f2a1461076a578063950c8a741461078a57806395d89b41146107aa5780639ea5d6b1146107bf57600080fd5b80633f1f4fa41161024f578063519056361161020857806366ad5c8a116101e257806366ad5c8a1461069f57806370a08231146106bf578063715018a6146106df5780637533d788146106f457600080fd5b8063519056361461061d5780635b8c41e6146106305780636352211e1461067f57600080fd5b80633f1f4fa41461054c57806340c10f191461058757806342842e0e1461059a57806342d65a8d146105ba57806348288190146105da5780634ac3f4ff146105f057600080fd5b80630b4cad4c116102bc57806322a3ecf91161029657806322a3ecf91461045457806323b872dd146104d75780632a205e3d146104f75780633d8b38f61461052c57600080fd5b80630b4cad4c146103f45780630df374831461041457806310ddb1371461043457600080fd5b80621d35671461030357806301ffc9a71461032557806306fdde031461035a57806307e0db171461037c578063081812fc1461039c578063095ea7b3146103d4575b600080fd5b34801561030f57600080fd5b5061032361031e36600461362b565b610a8d565b005b34801561033157600080fd5b506103456103403660046136d4565b610cbe565b60405190151581526020015b60405180910390f35b34801561036657600080fd5b5061036f610ce1565b6040516103519190613749565b34801561038857600080fd5b5061032361039736600461375c565b610d73565b3480156103a857600080fd5b506103bc6103b7366004613777565b610dfc565b6040516001600160a01b039091168152602001610351565b3480156103e057600080fd5b506103236103ef3660046137b0565b610e23565b34801561040057600080fd5b5061032361040f366004613777565b610f39565b34801561042057600080fd5b5061032361042f3660046137dc565b610fac565b34801561044057600080fd5b5061032361044f36600461375c565b610fcb565b34801561046057600080fd5b506104a861046f366004613777565b60096020526000908152604090208054600182015460029092015461ffff821692620100009092046001600160a01b0316919060ff1684565b6040805161ffff90951685526001600160a01b0390931660208501529183015215156060820152608001610351565b3480156104e357600080fd5b506103236104f23660046137f8565b611023565b34801561050357600080fd5b5061051761051236600461390c565b611055565b60408051928352602083019190915201610351565b34801561053857600080fd5b5061034561054736600461399a565b61107b565b34801561055857600080fd5b5061057961056736600461375c565b60036020526000908152604090205481565b604051908152602001610351565b6103236105953660046137b0565b611147565b3480156105a657600080fd5b506103236105b53660046137f8565b611155565b3480156105c657600080fd5b506103236105d536600461399a565b611170565b3480156105e657600080fd5b5061057960065481565b3480156105fc57600080fd5b5061057961060b36600461375c565b60076020526000908152604090205481565b61032361062b3660046139ec565b6111f6565b34801561063c57600080fd5b5061057961064b366004613aa5565b6005602090815260009384526040808520845180860184018051928152908401958401959095209452929052825290205481565b34801561068b57600080fd5b506103bc61069a366004613777565b61120d565b3480156106ab57600080fd5b506103236106ba36600461362b565b61126d565b3480156106cb57600080fd5b506105796106da366004613b02565b611349565b3480156106eb57600080fd5b506103236113cf565b34801561070057600080fd5b5061036f61070f36600461375c565b6113e3565b34801561072057600080fd5b5061057961072f366004613b1f565b600260209081526000928352604080842090915290825290205481565b34801561075857600080fd5b506000546001600160a01b03166103bc565b34801561077657600080fd5b50610323610785366004613b52565b61147d565b34801561079657600080fd5b506004546103bc906001600160a01b031681565b3480156107b657600080fd5b5061036f6116cc565b3480156107cb57600080fd5b506103236107da3660046137dc565b6116db565b3480156107eb57600080fd5b5061036f6107fa36600461375c565b61175e565b34801561080b57600080fd5b5061032361081a366004613b86565b611875565b34801561082b57600080fd5b5061032361083a36600461399a565b611880565b61032361084d366004613c3b565b611920565b34801561085e57600080fd5b50610867600181565b60405161ffff9091168152602001610351565b34801561088657600080fd5b506103bc7f000000000000000000000000000000000000000000000000000000000000000081565b3480156108ba57600080fd5b506103236108c9366004613cf0565b61192f565b3480156108da57600080fd5b506103236108e9366004613b02565b611961565b3480156108fa57600080fd5b5061057961271081565b34801561091057600080fd5b5061036f61091f366004613777565b6119bd565b34801561093057600080fd5b5061032361093f366004613d5b565b611a30565b34801561095057600080fd5b5061032361095f3660046137dc565b611ac5565b61032361097236600461362b565b611b49565b34801561098357600080fd5b50610323610992366004613dc9565b611d5f565b3480156109a357600080fd5b506103456109b2366004613e05565b6001600160a01b039182166000908152600f6020908152604080832093909416825291909152205460ff1690565b3480156109ec57600080fd5b506103236109fb36600461399a565b611e11565b348015610a0c57600080fd5b50610517610a1b366004613e3e565b611e6b565b348015610a2c57600080fd5b50610323610a3b366004613b02565b611f36565b348015610a4c57600080fd5b5061036f610a5b366004613eb7565b611faf565b348015610a6c57600080fd5b50610579610a7b36600461375c565b60086020526000908152604090205481565b337f00000000000000000000000000000000000000000000000000000000000000006001600160a01b031614610b0a5760405162461bcd60e51b815260206004820152601e60248201527f4c7a4170703a20696e76616c696420656e64706f696e742063616c6c6572000060448201526064015b60405180910390fd5b61ffff861660009081526001602052604081208054610b2890613f04565b80601f0160208091040260200160405190810160405280929190818152602001828054610b5490613f04565b8015610ba15780601f10610b7657610100808354040283529160200191610ba1565b820191906000526020600020905b815481529060010190602001808311610b8457829003601f168201915b50505050509050805186869050148015610bbc575060008151115b8015610be4575080516020820120604051610bda9088908890613f3f565b6040518091039020145b610c3f5760405162461bcd60e51b815260206004820152602660248201527f4c7a4170703a20696e76616c696420736f757263652073656e64696e6720636f6044820152651b9d1c9858dd60d21b6064820152608401610b01565b610cb58787878080601f01602080910402602001604051908101604052809392919081815260200183838082843760009201919091525050604080516020601f8a018190048102820181019092528881528a93509150889088908190840183828082843760009201919091525061206292505050565b50505050505050565b60006001600160e01b031982161580610cdb5750610cdb826120db565b92915050565b6060600a8054610cf090613f04565b80601f0160208091040260200160405190810160405280929190818152602001828054610d1c90613f04565b8015610d695780601f10610d3e57610100808354040283529160200191610d69565b820191906000526020600020905b815481529060010190602001808311610d4c57829003601f168201915b5050505050905090565b610d7b61211b565b6040516307e0db1760e01b815261ffff821660048201527f00000000000000000000000000000000000000000000000000000000000000006001600160a01b0316906307e0db17906024015b600060405180830381600087803b158015610de157600080fd5b505af1158015610df5573d6000803e3d6000fd5b5050505050565b6000610e0782612175565b506000908152600e60205260409020546001600160a01b031690565b6000610e2e8261120d565b9050806001600160a01b0316836001600160a01b03161415610e9c5760405162461bcd60e51b815260206004820152602160248201527f4552433732313a20617070726f76616c20746f2063757272656e74206f776e656044820152603960f91b6064820152608401610b01565b336001600160a01b0382161480610eb85750610eb881336109b2565b610f2a5760405162461bcd60e51b815260206004820152603e60248201527f4552433732313a20617070726f76652063616c6c6572206973206e6f7420746f60448201527f6b656e206f776e6572206e6f7220617070726f76656420666f7220616c6c00006064820152608401610b01565b610f3483836121d4565b505050565b610f4161211b565b60008111610fa75760405162461bcd60e51b815260206004820152602d60248201527f4f4e46543732313a206d696e476173546f5472616e73666572416e6453746f7260448201526c065206d757374206265203e203609c1b6064820152608401610b01565b600655565b610fb461211b565b61ffff909116600090815260036020526040902055565b610fd361211b565b6040516310ddb13760e01b815261ffff821660048201527f00000000000000000000000000000000000000000000000000000000000000006001600160a01b0316906310ddb13790602401610dc7565b61102e335b82612242565b61104a5760405162461bcd60e51b8152600401610b0190613f4f565b610f348383836122c0565b60008061106d87876110668861245c565b8787611e6b565b915091509550959350505050565b61ffff83166000908152600160205260408120805482919061109c90613f04565b80601f01602080910402602001604051908101604052809291908181526020018280546110c890613f04565b80156111155780601f106110ea57610100808354040283529160200191611115565b820191906000526020600020905b8154815290600101906020018083116110f857829003601f168201915b50505050509050838360405161112c929190613f3f565b60405180910390208180519060200120149150509392505050565b61115182826124a7565b5050565b610f348383836040518060200160405280600081525061192f565b61117861211b565b6040516342d65a8d60e01b81526001600160a01b037f000000000000000000000000000000000000000000000000000000000000000016906342d65a8d906111c890869086908690600401613fc6565b600060405180830381600087803b1580156111e257600080fd5b505af1158015610cb5573d6000803e3d6000fd5b610cb58787876112058861245c565b8787876124c1565b6000818152600c60205260408120546001600160a01b031680610cdb5760405162461bcd60e51b8152602060048201526018602482015277115490cdcc8c4e881a5b9d985b1a59081d1bdad95b88125160421b6044820152606401610b01565b3330146112cb5760405162461bcd60e51b815260206004820152602660248201527f4e6f6e626c6f636b696e674c7a4170703a2063616c6c6572206d7573742062656044820152650204c7a4170760d41b6064820152608401610b01565b6113418686868080601f01602080910402602001604051908101604052809392919081815260200183838082843760009201919091525050604080516020601f8901819004810282018101909252878152899350915087908790819084018382808284376000920191909152506126a892505050565b505050505050565b60006001600160a01b0382166113b35760405162461bcd60e51b815260206004820152602960248201527f4552433732313a2061646472657373207a65726f206973206e6f7420612076616044820152683634b21037bbb732b960b91b6064820152608401610b01565b506001600160a01b03166000908152600d602052604090205490565b6113d761211b565b6113e160006127ff565b565b600160205260009081526040902080546113fc90613f04565b80601f016020809104026020016040519081016040528092919081815260200182805461142890613f04565b80156114755780601f1061144a57610100808354040283529160200191611475565b820191906000526020600020905b81548152906001019060200180831161145857829003601f168201915b505050505081565b80516020808301919091206000818152600990925260409091206002015460ff166114ea5760405162461bcd60e51b815260206004820152601a60248201527f4f4e46543732313a206e6f20637265646974732073746f7265640000000000006044820152606401610b01565b6000828060200190518101906115009190614029565b6000848152600960205260408120805460019091015492945090925061153c9161ffff8216916201000090046001600160a01b0316908561284f565b60008481526009602052604090206001015490915081116115ba5760405162461bcd60e51b815260206004820152603260248201527f4f4e46543732313a206e6f7420656e6f7567682067617320746f2070726f636560448201527139b99031b932b234ba103a3930b739b332b960711b6064820152608401610b01565b81518114156116325760008381526009602052604080822080546001600160b01b031916815560018101929092556002909101805460ff19169055517fd7be02b8dd0d27bd0517a9cb4d7469ce27df4313821ae5ec1ff69acc594ba233906116259085815260200190565b60405180910390a16116c6565b60408051608081018252600085815260096020818152848320805461ffff80821687526001600160a01b03620100008084048216868a019081529989018b8152600160608b01818152998f90529790965297519851169096026001600160b01b03199091169690951695909517939093178455915191830191909155516002909101805491151560ff199092169190911790555b50505050565b6060600b8054610cf090613f04565b6116e361211b565b600081116117475760405162461bcd60e51b815260206004820152602b60248201527f4f4e46543732313a20647374436861696e4964546f42617463684c696d69742060448201526a06d757374206265203e20360ac1b6064820152608401610b01565b61ffff909116600090815260076020526040902055565b61ffff811660009081526001602052604081208054606092919061178190613f04565b80601f01602080910402602001604051908101604052809291908181526020018280546117ad90613f04565b80156117fa5780601f106117cf576101008083540402835291602001916117fa565b820191906000526020600020905b8154815290600101906020018083116117dd57829003601f168201915b505050505090508051600014156118535760405162461bcd60e51b815260206004820152601d60248201527f4c7a4170703a206e6f20747275737465642070617468207265636f72640000006044820152606401610b01565b61186e60006014835161186691906140f9565b8391906128a1565b9392505050565b6111513383836129ae565b61188861211b565b81813060405160200161189d93929190614110565b60408051601f1981840301815291815261ffff851660009081526001602090815291902082516118d2939192909101906134a8565b506118e08361ffff16612a7d565b7f8c0400cfe2d1199b1a725c78960bcc2a344d869b80590d0f2bd005db15a572ce83838360405161191393929190613fc6565b60405180910390a1505050565b610cb5878787878787876124c1565b6119393383612242565b6119555760405162461bcd60e51b8152600401610b0190613f4f565b6116c684848484612ac2565b61196961211b565b600480546001600160a01b0319166001600160a01b0383169081179091556040519081527f5db758e995a17ec1ad84bdef7e8c3293a0bd6179bcce400dff5d4c3d87db726b9060200160405180910390a150565b60606119c882612175565b60006119df60408051602081019091526000815290565b905060008151116119ff576040518060200160405280600081525061186e565b80611a0984612af5565b604051602001611a1a929190614136565b6040516020818303038152906040529392505050565b611a3861211b565b6040516332fb62e760e21b81526001600160a01b037f0000000000000000000000000000000000000000000000000000000000000000169063cbed8b9c90611a8c9088908890889088908890600401614165565b600060405180830381600087803b158015611aa657600080fd5b505af1158015611aba573d6000803e3d6000fd5b505050505050505050565b611acd61211b565b60008111611b325760405162461bcd60e51b815260206004820152602c60248201527f4f4e46543732313a20647374436861696e4964546f5472616e7366657247617360448201526b0206d757374206265203e20360a41b6064820152608401610b01565b61ffff909116600090815260086020526040902055565b61ffff86166000908152600560205260408082209051611b6c9088908890613f3f565b90815260408051602092819003830190206001600160401b03871660009081529252902054905080611bec5760405162461bcd60e51b815260206004820152602360248201527f4e6f6e626c6f636b696e674c7a4170703a206e6f2073746f726564206d65737360448201526261676560e81b6064820152608401610b01565b808383604051611bfd929190613f3f565b604051809103902014611c5c5760405162461bcd60e51b815260206004820152602160248201527f4e6f6e626c6f636b696e674c7a4170703a20696e76616c6964207061796c6f616044820152601960fa1b6064820152608401610b01565b61ffff87166000908152600560205260408082209051611c7f9089908990613f3f565b90815260408051602092819003830181206001600160401b038916600090815290845282902093909355601f88018290048202830182019052868252611d17918991899089908190840183828082843760009201919091525050604080516020601f8a018190048102820181019092528881528a9350915088908890819084018382808284376000920191909152506126a892505050565b7fc264d91f3adc5588250e1551f547752ca0cfa8f6b530d243b9f9f4cab10ea8e58787878785604051611d4e95949392919061419e565b60405180910390a150505050505050565b611d6761211b565b60008111611daf5760405162461bcd60e51b81526020600482015260156024820152744c7a4170703a20696e76616c6964206d696e47617360581b6044820152606401610b01565b61ffff83811660008181526002602090815260408083209487168084529482529182902085905581519283528201929092529081018290527f9d5c7c0b934da8fefa9c7760c98383778a12dfbfc0c3b3106518f43fb9508ac090606001611913565b611e1961211b565b61ffff83166000908152600160205260409020611e3790838361352c565b507ffa41487ad5d6728f0b19276fa1eddc16558578f5109fc39d2dc33c3230470dab83838360405161191393929190613fc6565b60008060008686604051602001611e83929190614214565b60408051601f198184030181529082905263040a7bb160e41b825291506001600160a01b037f000000000000000000000000000000000000000000000000000000000000000016906340a7bb1090611ee7908b90309086908b908b90600401614242565b6040805180830381865afa158015611f03573d6000803e3d6000fd5b505050506040513d601f19601f82011682018060405250810190611f279190614296565b92509250509550959350505050565b611f3e61211b565b6001600160a01b038116611fa35760405162461bcd60e51b815260206004820152602660248201527f4f776e61626c653a206e6577206f776e657220697320746865207a65726f206160448201526564647265737360d01b6064820152608401610b01565b611fac816127ff565b50565b604051633d7b2f6f60e21b815261ffff808616600483015284166024820152306044820152606481018290526060907f00000000000000000000000000000000000000000000000000000000000000006001600160a01b03169063f5ecbdbc90608401600060405180830381865afa15801561202f573d6000803e3d6000fd5b505050506040513d6000823e601f3d908101601f1916820160405261205791908101906142ba565b90505b949350505050565b6000806120c55a60966366ad5c8a60e01b8989898960405160240161208a94939291906142ee565b60408051601f198184030181529190526020810180516001600160e01b03166001600160e01b03199093169290921790915230929190612bf2565b9150915081611341576113418686868685612c7c565b60006001600160e01b031982166380ac58cd60e01b148061210c57506001600160e01b03198216635b5e139f60e01b145b80610cdb5750610cdb82612d19565b6000546001600160a01b031633146113e15760405162461bcd60e51b815260206004820181905260248201527f4f776e61626c653a2063616c6c6572206973206e6f7420746865206f776e65726044820152606401610b01565b6000818152600c60205260409020546001600160a01b0316611fac5760405162461bcd60e51b8152602060048201526018602482015277115490cdcc8c4e881a5b9d985b1a59081d1bdad95b88125160421b6044820152606401610b01565b6000818152600e6020526040902080546001600160a01b0319166001600160a01b03841690811790915581906122098261120d565b6001600160a01b03167f8c5be1e5ebec7d5bd14f71427d1e84f3dd0314c0f7b2291e5b200ac8c7c3b92560405160405180910390a45050565b60008061224e8361120d565b9050806001600160a01b0316846001600160a01b0316148061229557506001600160a01b038082166000908152600f602090815260408083209388168352929052205460ff165b8061205a5750836001600160a01b03166122ae84610dfc565b6001600160a01b031614949350505050565b826001600160a01b03166122d38261120d565b6001600160a01b0316146123375760405162461bcd60e51b815260206004820152602560248201527f4552433732313a207472616e736665722066726f6d20696e636f72726563742060448201526437bbb732b960d91b6064820152608401610b01565b6001600160a01b0382166123995760405162461bcd60e51b8152602060048201526024808201527f4552433732313a207472616e7366657220746f20746865207a65726f206164646044820152637265737360e01b6064820152608401610b01565b6123a46000826121d4565b6001600160a01b0383166000908152600d602052604081208054600192906123cd9084906140f9565b90915550506001600160a01b0382166000908152600d602052604081208054600192906123fb90849061432c565b90915550506000818152600c602052604080822080546001600160a01b0319166001600160a01b0386811691821790925591518493918716917fddf252ad1be2c89b69c2b068fc378daa952ba7f163c4a11628f55a4df523b3ef91a4505050565b6040805160018082528183019092526060916000919060208083019080368337019050509050828160008151811061249657612496614344565b602090810291909101015292915050565b611151828260405180602001604052806000815250612d4e565b60008451116125125760405162461bcd60e51b815260206004820152601a60248201527f4c7a4170703a20746f6b656e4964735b5d20697320656d7074790000000000006044820152606401610b01565b835160011480612536575061ffff8616600090815260076020526040902054845111155b6125965760405162461bcd60e51b815260206004820152602b60248201527f4f4e46543732313a2062617463682073697a652065786365656473206473742060448201526a18985d18da081b1a5b5a5d60aa1b6064820152608401610b01565b60005b84518110156125d9576125c78888888885815181106125ba576125ba614344565b6020026020010151612d81565b806125d18161435a565b915050612599565b50600085856040516020016125ef929190614214565b6040516020818303038152906040529050612634876001848851600860008d61ffff1661ffff1681526020019081526020016000205461262f9190614375565b612e6c565b612642878286868634612f4b565b856040516126509190614394565b6040518091039020886001600160a01b03168861ffff167fe1b87c47fdeb4f9cbadbca9df3af7aba453bb6e501075d0440d88125b711522a8860405161269691906143b0565b60405180910390a45050505050505050565b600080828060200190518101906126bf9190614029565b6014820151919350915060006126d78883838661284f565b905082518110156127ab5784516020808701919091206040805160808101825261ffff808d1682526001600160a01b0380881683870190815283850188815260016060860181815260008981526009909a529887902095518654935190941662010000026001600160b01b03199093169390941692909217178355519082015592516002909301805493151560ff199094169390931790925590517f10e0b70d256bccc84b7027506978bd8b68984a870788b93b479def144c839ad7906127a190839089906143c3565b60405180910390a1505b816001600160a01b0316876040516127c39190614394565b60405180910390208961ffff167f5b821db8a46f8ecbe1941ba2f51cfeea9643268b56631f70d45e2a745d9902658660405161269691906143b0565b600080546001600160a01b038381166001600160a01b0319831681178455604051919092169283917f8be0079c531659141344cd1fd0a4f28419497f9722a3daafe3b4186f6b6457e09190a35050565b6000825b8251811015612057576006545a101561286b57612057565b61288f868685848151811061288257612882614344565b60200260200101516130f1565b806128998161435a565b915050612853565b6060816128af81601f61432c565b10156128ee5760405162461bcd60e51b815260206004820152600e60248201526d736c6963655f6f766572666c6f7760901b6044820152606401610b01565b6128f8828461432c565b8451101561293c5760405162461bcd60e51b8152602060048201526011602482015270736c6963655f6f75744f66426f756e647360781b6044820152606401610b01565b60608215801561295b57604051915060008252602082016040526129a5565b6040519150601f8416801560200281840101858101878315602002848b0101015b8183101561299457805183526020928301920161297c565b5050858452601f01601f1916604052505b50949350505050565b816001600160a01b0316836001600160a01b03161415612a105760405162461bcd60e51b815260206004820152601960248201527f4552433732313a20617070726f766520746f2063616c6c6572000000000000006044820152606401610b01565b6001600160a01b038381166000818152600f6020908152604080832094871680845294825291829020805460ff191686151590811790915591519182527f17307eab39ab6107e8899845ad3d59bd9653f200f220920489ca2b5937696c31910160405180910390a3505050565b611fac81604051602401612a9391815260200190565b60408051601f198184030181529190526020810180516001600160e01b031663f82c50f160e01b179052613180565b612acd8484846122c0565b612ad9848484846131a1565b6116c65760405162461bcd60e51b8152600401610b01906143dc565b606081612b195750506040805180820190915260018152600360fc1b602082015290565b8160005b8115612b435780612b2d8161435a565b9150612b3c9050600a83614444565b9150612b1d565b6000816001600160401b03811115612b5d57612b5d613839565b6040519080825280601f01601f191660200182016040528015612b87576020820181803683370190505b5090505b841561205a57612b9c6001836140f9565b9150612ba9600a86614458565b612bb490603061432c565b60f81b818381518110612bc957612bc9614344565b60200101906001600160f81b031916908160001a905350612beb600a86614444565b9450612b8b565b6000606060008060008661ffff166001600160401b03811115612c1757612c17613839565b6040519080825280601f01601f191660200182016040528015612c41576020820181803683370190505b50905060008087516020890160008d8df191503d925086831115612c63578692505b828152826000602083013e909890975095505050505050565b8180519060200120600560008761ffff1661ffff16815260200190815260200160002085604051612cad9190614394565b9081526040805191829003602090810183206001600160401b0388166000908152915220919091557fe183f33de2837795525b4792ca4cd60535bd77c53b7e7030060bfcf5734d6b0c90612d0a908790879087908790879061446c565b60405180910390a15050505050565b60006001600160e01b031982166322bac5d960e01b1480610cdb57506301ffc9a760e01b6001600160e01b0319831614610cdb565b612d58838361329c565b612d6560008484846131a1565b610f345760405162461bcd60e51b8152600401610b01906143dc565b612d8a33611028565b612ded5760405162461bcd60e51b815260206004820152602e60248201527f4f4e46543732313a2073656e642063616c6c6572206973206e6f74206f776e6560448201526d1c881b9bdc88185c1c1c9bdd995960921b6064820152608401610b01565b836001600160a01b0316612e008261120d565b6001600160a01b031614612e615760405162461bcd60e51b815260206004820152602260248201527f4f4e46543732313a2073656e642066726f6d20696e636f7272656374206f776e60448201526132b960f11b6064820152608401610b01565b6116c68430836122c0565b6000612e77836133de565b61ffff808716600090815260026020908152604080832093891683529290529081205491925090612ea990849061432c565b905060008111612efb5760405162461bcd60e51b815260206004820152601a60248201527f4c7a4170703a206d696e4761734c696d6974206e6f74207365740000000000006044820152606401610b01565b808210156113415760405162461bcd60e51b815260206004820152601b60248201527f4c7a4170703a20676173206c696d697420697320746f6f206c6f7700000000006044820152606401610b01565b61ffff861660009081526001602052604081208054612f6990613f04565b80601f0160208091040260200160405190810160405280929190818152602001828054612f9590613f04565b8015612fe25780601f10612fb757610100808354040283529160200191612fe2565b820191906000526020600020905b815481529060010190602001808311612fc557829003601f168201915b505050505090508051600014156130545760405162461bcd60e51b815260206004820152603060248201527f4c7a4170703a2064657374696e6174696f6e20636861696e206973206e6f742060448201526f61207472757374656420736f7572636560801b6064820152608401610b01565b61305f87875161343a565b60405162c5803160e81b81526001600160a01b037f0000000000000000000000000000000000000000000000000000000000000000169063c58031009084906130b6908b9086908c908c908c908c906004016144be565b6000604051808303818588803b1580156130cf57600080fd5b505af11580156130e3573d6000803e3d6000fd5b505050505050505050505050565b6000818152600c60205260409020546001600160a01b0316158061314657506000818152600c60205260409020546001600160a01b03161515801561314657503061313b8261120d565b6001600160a01b0316145b61314f57600080fd5b6000818152600c60205260409020546001600160a01b031661317557610f3482826124a7565b610f343083836122c0565b80516a636f6e736f6c652e6c6f67602083016000808483855afa5050505050565b60006001600160a01b0384163b1561329457604051630a85bd0160e11b81526001600160a01b0385169063150b7a02906131e5903390899088908890600401614525565b6020604051808303816000875af1925050508015613220575060408051601f3d908101601f1916820190925261321d91810190614562565b60015b61327a573d80801561324e576040519150601f19603f3d011682016040523d82523d6000602084013e613253565b606091505b5080516132725760405162461bcd60e51b8152600401610b01906143dc565b805181602001fd5b6001600160e01b031916630a85bd0160e11b14905061205a565b50600161205a565b6001600160a01b0382166132f25760405162461bcd60e51b815260206004820181905260248201527f4552433732313a206d696e7420746f20746865207a65726f20616464726573736044820152606401610b01565b6000818152600c60205260409020546001600160a01b0316156133575760405162461bcd60e51b815260206004820152601c60248201527f4552433732313a20746f6b656e20616c7265616479206d696e746564000000006044820152606401610b01565b6001600160a01b0382166000908152600d6020526040812080546001929061338090849061432c565b90915550506000818152600c602052604080822080546001600160a01b0319166001600160a01b03861690811790915590518392907fddf252ad1be2c89b69c2b068fc378daa952ba7f163c4a11628f55a4df523b3ef908290a45050565b60006022825110156134325760405162461bcd60e51b815260206004820152601c60248201527f4c7a4170703a20696e76616c69642061646170746572506172616d73000000006044820152606401610b01565b506022015190565b61ffff82166000908152600360205260409020548061345857506127105b80821115610f345760405162461bcd60e51b815260206004820181905260248201527f4c7a4170703a207061796c6f61642073697a6520697320746f6f206c617267656044820152606401610b01565b8280546134b490613f04565b90600052602060002090601f0160209004810192826134d6576000855561351c565b82601f106134ef57805160ff191683800117855561351c565b8280016001018555821561351c579182015b8281111561351c578251825591602001919060010190613501565b506135289291506135a0565b5090565b82805461353890613f04565b90600052602060002090601f01602090048101928261355a576000855561351c565b82601f106135735782800160ff1982351617855561351c565b8280016001018555821561351c579182015b8281111561351c578235825591602001919060010190613585565b5b8082111561352857600081556001016135a1565b803561ffff811681146135c757600080fd5b919050565b60008083601f8401126135de57600080fd5b5081356001600160401b038111156135f557600080fd5b60208301915083602082850101111561360d57600080fd5b9250929050565b80356001600160401b03811681146135c757600080fd5b6000806000806000806080878903121561364457600080fd5b61364d876135b5565b955060208701356001600160401b038082111561366957600080fd5b6136758a838b016135cc565b909750955085915061368960408a01613614565b9450606089013591508082111561369f57600080fd5b506136ac89828a016135cc565b979a9699509497509295939492505050565b6001600160e01b031981168114611fac57600080fd5b6000602082840312156136e657600080fd5b813561186e816136be565b60005b8381101561370c5781810151838201526020016136f4565b838111156116c65750506000910152565b600081518084526137358160208601602086016136f1565b601f01601f19169290920160200192915050565b60208152600061186e602083018461371d565b60006020828403121561376e57600080fd5b61186e826135b5565b60006020828403121561378957600080fd5b5035919050565b6001600160a01b0381168114611fac57600080fd5b80356135c781613790565b600080604083850312156137c357600080fd5b82356137ce81613790565b946020939093013593505050565b600080604083850312156137ef57600080fd5b6137ce836135b5565b60008060006060848603121561380d57600080fd5b833561381881613790565b9250602084013561382881613790565b929592945050506040919091013590565b634e487b7160e01b600052604160045260246000fd5b604051601f8201601f191681016001600160401b038111828210171561387757613877613839565b604052919050565b60006001600160401b0382111561389857613898613839565b50601f01601f191660200190565b600082601f8301126138b757600080fd5b81356138ca6138c58261387f565b61384f565b8181528460208386010111156138df57600080fd5b816020850160208301376000918101602001919091529392505050565b803580151581146135c757600080fd5b600080600080600060a0868803121561392457600080fd5b61392d866135b5565b945060208601356001600160401b038082111561394957600080fd5b61395589838a016138a6565b95506040880135945061396a606089016138fc565b9350608088013591508082111561398057600080fd5b5061398d888289016138a6565b9150509295509295909350565b6000806000604084860312156139af57600080fd5b6139b8846135b5565b925060208401356001600160401b038111156139d357600080fd5b6139df868287016135cc565b9497909650939450505050565b600080600080600080600060e0888a031215613a0757600080fd5b8735613a1281613790565b9650613a20602089016135b5565b955060408801356001600160401b0380821115613a3c57600080fd5b613a488b838c016138a6565b965060608a0135955060808a01359150613a6182613790565b90935060a089013590613a7382613790565b90925060c08901359080821115613a8957600080fd5b50613a968a828b016138a6565b91505092959891949750929550565b600080600060608486031215613aba57600080fd5b613ac3846135b5565b925060208401356001600160401b03811115613ade57600080fd5b613aea868287016138a6565b925050613af960408501613614565b90509250925092565b600060208284031215613b1457600080fd5b813561186e81613790565b60008060408385031215613b3257600080fd5b613b3b836135b5565b9150613b49602084016135b5565b90509250929050565b600060208284031215613b6457600080fd5b81356001600160401b03811115613b7a57600080fd5b61205a848285016138a6565b60008060408385031215613b9957600080fd5b8235613ba481613790565b9150613b49602084016138fc565b60006001600160401b03821115613bcb57613bcb613839565b5060051b60200190565b600082601f830112613be657600080fd5b81356020613bf66138c583613bb2565b82815260059290921b84018101918181019086841115613c1557600080fd5b8286015b84811015613c305780358352918301918301613c19565b509695505050505050565b600080600080600080600060e0888a031215613c5657600080fd5b8735613c6181613790565b9650613c6f602089016135b5565b955060408801356001600160401b0380821115613c8b57600080fd5b613c978b838c016138a6565b965060608a0135915080821115613cad57600080fd5b613cb98b838c01613bd5565b955060808a01359150613ccb82613790565b819450613cda60a08b016137a5565b935060c08a0135915080821115613a8957600080fd5b60008060008060808587031215613d0657600080fd5b8435613d1181613790565b93506020850135613d2181613790565b92506040850135915060608501356001600160401b03811115613d4357600080fd5b613d4f878288016138a6565b91505092959194509250565b600080600080600060808688031215613d7357600080fd5b613d7c866135b5565b9450613d8a602087016135b5565b93506040860135925060608601356001600160401b03811115613dac57600080fd5b613db8888289016135cc565b969995985093965092949392505050565b600080600060608486031215613dde57600080fd5b613de7846135b5565b9250613df5602085016135b5565b9150604084013590509250925092565b60008060408385031215613e1857600080fd5b8235613e2381613790565b91506020830135613e3381613790565b809150509250929050565b600080600080600060a08688031215613e5657600080fd5b613e5f866135b5565b945060208601356001600160401b0380821115613e7b57600080fd5b613e8789838a016138a6565b95506040880135915080821115613e9d57600080fd5b613ea989838a01613bd5565b945061396a606089016138fc565b60008060008060808587031215613ecd57600080fd5b613ed6856135b5565b9350613ee4602086016135b5565b92506040850135613ef481613790565b9396929550929360600135925050565b600181811c90821680613f1857607f821691505b60208210811415613f3957634e487b7160e01b600052602260045260246000fd5b50919050565b8183823760009101908152919050565b6020808252602e908201527f4552433732313a2063616c6c6572206973206e6f7420746f6b656e206f776e6560408201526d1c881b9bdc88185c1c1c9bdd995960921b606082015260800190565b81835281816020850137506000828201602090810191909152601f909101601f19169091010190565b61ffff84168152604060208201526000612057604083018486613f9d565b600082601f830112613ff557600080fd5b81516140036138c58261387f565b81815284602083860101111561401857600080fd5b61205a8260208301602087016136f1565b6000806040838503121561403c57600080fd5b82516001600160401b038082111561405357600080fd5b61405f86838701613fe4565b935060209150818501518181111561407657600080fd5b85019050601f8101861361408957600080fd5b80516140976138c582613bb2565b81815260059190911b820183019083810190888311156140b657600080fd5b928401925b828410156140d4578351825292840192908401906140bb565b80955050505050509250929050565b634e487b7160e01b600052601160045260246000fd5b60008282101561410b5761410b6140e3565b500390565b8284823760609190911b6bffffffffffffffffffffffff19169101908152601401919050565b600083516141488184602088016136f1565b83519083019061415c8183602088016136f1565b01949350505050565b600061ffff808816835280871660208401525084604083015260806060830152614193608083018486613f9d565b979650505050505050565b61ffff861681526080602082015260006141bc608083018688613f9d565b6001600160401b0394909416604083015250606001529392505050565b600081518084526020808501945080840160005b83811015614209578151875295820195908201906001016141ed565b509495945050505050565b604081526000614227604083018561371d565b828103602084015261423981856141d9565b95945050505050565b61ffff861681526001600160a01b038516602082015260a0604082018190526000906142709083018661371d565b8415156060840152828103608084015261428a818561371d565b98975050505050505050565b600080604083850312156142a957600080fd5b505080516020909101519092909150565b6000602082840312156142cc57600080fd5b81516001600160401b038111156142e257600080fd5b61205a84828501613fe4565b61ffff8516815260806020820152600061430b608083018661371d565b6001600160401b03851660408401528281036060840152614193818561371d565b6000821982111561433f5761433f6140e3565b500190565b634e487b7160e01b600052603260045260246000fd5b600060001982141561436e5761436e6140e3565b5060010190565b600081600019048311821515161561438f5761438f6140e3565b500290565b600082516143a68184602087016136f1565b9190910192915050565b60208152600061186e60208301846141d9565b82815260406020820152600061205a604083018461371d565b60208082526032908201527f4552433732313a207472616e7366657220746f206e6f6e20455243373231526560408201527131b2b4bb32b91034b6b83632b6b2b73a32b960711b606082015260800190565b634e487b7160e01b600052601260045260246000fd5b6000826144535761445361442e565b500490565b6000826144675761446761442e565b500690565b61ffff8616815260a06020820152600061448960a083018761371d565b6001600160401b038616604084015282810360608401526144aa818661371d565b9050828103608084015261428a818561371d565b61ffff8716815260c0602082015260006144db60c083018861371d565b82810360408401526144ed818861371d565b6001600160a01b0387811660608601528616608085015283810360a08501529050614518818561371d565b9998505050505050505050565b6001600160a01b03858116825284166020820152604081018390526080606082018190526000906145589083018461371d565b9695505050505050565b60006020828403121561457457600080fd5b815161186e816136be56fea2646970667358221220ed9e219967b80b7c56398ae4fbb664bc7b1d443e99a6a03b84e99426587b1b1464736f6c634300080c0033",
  "linkReferences": {},
  "deployedLinkReferences": {}
}