{
  "_format": "hh-sol-artifact-1",
  "contractName": "Relayer",
  "sourceName": "contracts/mContracts/lzContracts/Relayer.sol",
  "abi": [
    {
      "anonymous": false,
      "inputs": [
        {
          "indexed": false,
          "internalType": "address",
          "name": "addr",
          "type": "address"
        },
        {
          "indexed": false,
          "internalType": "bool",
          "name": "approved",
          "type": "bool"
        }
      ],
      "name": "ApproveAddress",
      "type": "event"
    },
    {
      "anonymous": false,
      "inputs": [
        {
          "indexed": false,
          "internalType": "uint8",
          "name": "version",
          "type": "uint8"
        }
      ],
      "name": "Initialized",
      "type": "event"
    },
    {
      "anonymous": false,
      "inputs": [
        {
          "indexed": true,
          "internalType": "address",
          "name": "previousOwner",
          "type": "address"
        },
        {
          "indexed": true,
          "internalType": "address",
          "name": "newOwner",
          "type": "address"
        }
      ],
      "name": "OwnershipTransferred",
      "type": "event"
    },
    {
      "anonymous": false,
      "inputs": [
        {
          "indexed": false,
          "internalType": "address",
          "name": "to",
          "type": "address"
        },
        {
          "indexed": false,
          "internalType": "uint256",
          "name": "amount",
          "type": "uint256"
        }
      ],
      "name": "Withdraw",
      "type": "event"
    },
    {
      "anonymous": false,
      "inputs": [
        {
          "indexed": false,
          "internalType": "address",
          "name": "token",
          "type": "address"
        },
        {
          "indexed": false,
          "internalType": "address",
          "name": "to",
          "type": "address"
        },
        {
          "indexed": false,
          "internalType": "uint256",
          "name": "amount",
          "type": "uint256"
        }
      ],
      "name": "WithdrawTokens",
      "type": "event"
    },
    {
      "inputs": [
        {
          "internalType": "address",
          "name": "",
          "type": "address"
        }
      ],
      "name": "approvedAddresses",
      "outputs": [
        {
          "internalType": "bool",
          "name": "",
          "type": "bool"
        }
      ],
      "stateMutability": "view",
      "type": "function"
    },
    {
      "inputs": [
        {
          "internalType": "uint16",
          "name": "",
          "type": "uint16"
        },
        {
          "internalType": "uint16",
          "name": "",
          "type": "uint16"
        }
      ],
      "name": "dstConfigLookup",
      "outputs": [
        {
          "internalType": "uint128",
          "name": "dstNativeAmtCap",
          "type": "uint128"
        },
        {
          "internalType": "uint64",
          "name": "baseGas",
          "type": "uint64"
        },
        {
          "internalType": "uint64",
          "name": "gasPerByte",
          "type": "uint64"
        }
      ],
      "stateMutability": "view",
      "type": "function"
    },
    {
      "inputs": [
        {
          "internalType": "uint16",
          "name": "",
          "type": "uint16"
        }
      ],
      "name": "dstPriceLookup",
      "outputs": [
        {
          "internalType": "uint128",
          "name": "dstPriceRatio",
          "type": "uint128"
        },
        {
          "internalType": "uint128",
          "name": "dstGasPriceInWei",
          "type": "uint128"
        }
      ],
      "stateMutability": "view",
      "type": "function"
    },
    {
      "inputs": [
        {
          "internalType": "uint16",
          "name": "_dstChainId",
          "type": "uint16"
        },
        {
          "internalType": "uint16",
          "name": "_outboundProofType",
          "type": "uint16"
        },
        {
          "internalType": "address",
          "name": "_userApplication",
          "type": "address"
        },
        {
          "internalType": "uint256",
          "name": "payloadSize",
          "type": "uint256"
        },
        {
          "internalType": "bytes",
          "name": "_adapterParams",
          "type": "bytes"
        }
      ],
      "name": "getPrice",
      "outputs": [
        {
          "internalType": "uint256",
          "name": "",
          "type": "uint256"
        }
      ],
      "stateMutability": "view",
      "type": "function"
    },
    {
      "inputs": [
        {
          "internalType": "address",
          "name": "_uln",
          "type": "address"
        }
      ],
      "name": "initialize",
      "outputs": [],
      "stateMutability": "nonpayable",
      "type": "function"
    },
    {
      "inputs": [
        {
          "internalType": "address",
          "name": "_relayerAddress",
          "type": "address"
        }
      ],
      "name": "isApproved",
      "outputs": [
        {
          "internalType": "bool",
          "name": "",
          "type": "bool"
        }
      ],
      "stateMutability": "view",
      "type": "function"
    },
    {
      "inputs": [
        {
          "internalType": "uint16",
          "name": "_dstChainId",
          "type": "uint16"
        },
        {
          "internalType": "uint16",
          "name": "_outboundProofType",
          "type": "uint16"
        },
        {
          "internalType": "bytes",
          "name": "_adapterParams",
          "type": "bytes"
        }
      ],
      "name": "notifyRelayer",
      "outputs": [],
      "stateMutability": "nonpayable",
      "type": "function"
    },
    {
      "inputs": [],
      "name": "owner",
      "outputs": [
        {
          "internalType": "address",
          "name": "",
          "type": "address"
        }
      ],
      "stateMutability": "view",
      "type": "function"
    },
    {
      "inputs": [],
      "name": "renounceOwnership",
      "outputs": [],
      "stateMutability": "nonpayable",
      "type": "function"
    },
    {
      "inputs": [
        {
          "internalType": "address",
          "name": "_relayerAddress",
          "type": "address"
        },
        {
          "internalType": "bool",
          "name": "_approve",
          "type": "bool"
        }
      ],
      "name": "setApprovedAddress",
      "outputs": [],
      "stateMutability": "nonpayable",
      "type": "function"
    },
    {
      "inputs": [
        {
          "internalType": "uint16",
          "name": "_chainId",
          "type": "uint16"
        },
        {
          "internalType": "uint16",
          "name": "_outboundProofType",
          "type": "uint16"
        },
        {
          "internalType": "uint128",
          "name": "_dstNativeAmtCap",
          "type": "uint128"
        },
        {
          "internalType": "uint64",
          "name": "_baseGas",
          "type": "uint64"
        },
        {
          "internalType": "uint64",
          "name": "_gasPerByte",
          "type": "uint64"
        }
      ],
      "name": "setDstConfig",
      "outputs": [],
      "stateMutability": "nonpayable",
      "type": "function"
    },
    {
      "inputs": [
        {
          "internalType": "uint16",
          "name": "_chainId",
          "type": "uint16"
        },
        {
          "internalType": "uint128",
          "name": "_dstPriceRatio",
          "type": "uint128"
        },
        {
          "internalType": "uint128",
          "name": "_dstGasPriceInWei",
          "type": "uint128"
        }
      ],
      "name": "setDstPrice",
      "outputs": [],
      "stateMutability": "nonpayable",
      "type": "function"
    },
    {
      "inputs": [
        {
          "internalType": "address",
          "name": "newOwner",
          "type": "address"
        }
      ],
      "name": "transferOwnership",
      "outputs": [],
      "stateMutability": "nonpayable",
      "type": "function"
    },
    {
      "inputs": [],
      "name": "uln",
      "outputs": [
        {
          "internalType": "contract ILayerZeroUltraLightNodeV1",
          "name": "",
          "type": "address"
        }
      ],
      "stateMutability": "view",
      "type": "function"
    },
    {
      "inputs": [
        {
          "internalType": "uint16",
          "name": "_srcChainId",
          "type": "uint16"
        },
        {
          "internalType": "address",
          "name": "_dstAddress",
          "type": "address"
        },
        {
          "internalType": "uint256",
          "name": "_gasLimit",
          "type": "uint256"
        },
        {
          "internalType": "bytes32",
          "name": "_blockHash",
          "type": "bytes32"
        },
        {
          "internalType": "bytes",
          "name": "_transactionProof",
          "type": "bytes"
        }
      ],
      "name": "validateTransactionProofV1",
      "outputs": [],
      "stateMutability": "nonpayable",
      "type": "function"
    },
    {
      "inputs": [
        {
          "internalType": "uint16",
          "name": "_srcChainId",
          "type": "uint16"
        },
        {
          "internalType": "address",
          "name": "_dstAddress",
          "type": "address"
        },
        {
          "internalType": "uint256",
          "name": "_gasLimit",
          "type": "uint256"
        },
        {
          "internalType": "bytes32",
          "name": "_blockHash",
          "type": "bytes32"
        },
        {
          "internalType": "bytes",
          "name": "_transactionProof",
          "type": "bytes"
        },
        {
          "internalType": "address payable",
          "name": "_to",
          "type": "address"
        }
      ],
      "name": "validateTransactionProofV2",
      "outputs": [],
      "stateMutability": "payable",
      "type": "function"
    },
    {
      "inputs": [
        {
          "internalType": "address payable",
          "name": "_to",
          "type": "address"
        },
        {
          "internalType": "uint256",
          "name": "_amount",
          "type": "uint256"
        }
      ],
      "name": "withdrawQuotedFromULN",
      "outputs": [],
      "stateMutability": "nonpayable",
      "type": "function"
    }
  ],
  "bytecode": "0x608060405234801561001057600080fd5b506001600055611567806100256000396000f3fe6080604052600436106100fe5760003560e01c80638da5cb5b11610095578063e54a221511610064578063e54a221514610355578063ea4fa6bf14610383578063f136a874146103a3578063f2fde38b146103d3578063fdf69784146103f357600080fd5b80638da5cb5b146102d7578063ac16d6ac146102f5578063b8f8bad414610315578063c4d66de81461033557600080fd5b8063673448dd116100d1578063673448dd146101f95780636c473aff14610229578063715018a614610261578063765a8a541461027657600080fd5b806323161ff8146101035780633a5fb82a146101965780633f103487146101b9578063575765e2146101d9575b600080fd5b34801561010f57600080fd5b5061016161011e36600461101b565b60686020908152600092835260408084209091529082529020546001600160801b0381169067ffffffffffffffff600160801b8204811691600160c01b90041683565b604080516001600160801b03909416845267ffffffffffffffff92831660208501529116908201526060015b60405180910390f35b3480156101a257600080fd5b506101b76101b1366004611097565b50505050565b005b3480156101c557600080fd5b506101b76101d4366004611127565b610406565b3480156101e557600080fd5b506101b76101f43660046111a1565b6104e6565b34801561020557600080fd5b506102196102143660046111df565b610551565b604051901515815260200161018d565b34801561023557600080fd5b50606654610249906001600160a01b031681565b6040516001600160a01b03909116815260200161018d565b34801561026d57600080fd5b506101b761056f565b34801561028257600080fd5b506102b76102913660046111fc565b6067602052600090815260409020546001600160801b0380821691600160801b90041682565b604080516001600160801b0393841681529290911660208301520161018d565b3480156102e357600080fd5b506034546001600160a01b0316610249565b34801561030157600080fd5b506101b7610310366004611217565b610583565b34801561032157600080fd5b506101b7610330366004611291565b61069a565b34801561034157600080fd5b506101b76103503660046111df565b61072b565b34801561036157600080fd5b506103756103703660046112d4565b6108dc565b60405190815260200161018d565b34801561038f57600080fd5b506101b761039e366004611337565b610949565b3480156103af57600080fd5b506102196103be3660046111df565b60696020526000908152604090205460ff1681565b3480156103df57600080fd5b506101b76103ee3660046111df565b610a07565b6101b7610401366004611363565b610a80565b336104196034546001600160a01b031690565b6001600160a01b0316146104555761043033610551565b6104555760405162461bcd60e51b815260040161044c906113f1565b60405180910390fd5b604080516060810182526001600160801b03948516815267ffffffffffffffff938416602080830191825293851682840190815261ffff988916600090815260688652848120989099168952969093529520945185549151945193166001600160c01b031990911617600160801b93821693909302929092176001600160c01b0316600160c01b9190921602179055565b6104ee610c39565b6001600160a01b038216600081815260696020908152604091829020805460ff19168515159081179091558251938452908301527fb10786d0bfa68fb1aa29552d9203e5f545f7c073ff0784da1de1d800986f1023910160405180910390a15050565b6001600160a01b031660009081526069602052604090205460ff1690565b610577610c39565b6105816000610c93565b565b336105966034546001600160a01b031690565b6001600160a01b0316146105c9576105ad33610551565b6105c95760405162461bcd60e51b815260040161044c906113f1565b6002600054141561061c5760405162461bcd60e51b815260206004820152601f60248201527f5265656e7472616e637947756172643a207265656e7472616e742063616c6c00604482015260640161044c565b6002600055606654604051635c01153160e01b81526001600160a01b0390911690635c0115319061065b90899089908990899089908990600401611420565b600060405180830381600087803b15801561067557600080fd5b505af1158015610689573d6000803e3d6000fd5b505060016000555050505050505050565b336106ad6034546001600160a01b031690565b6001600160a01b0316146106e0576106c433610551565b6106e05760405162461bcd60e51b815260040161044c906113f1565b6040805180820182526001600160801b039384168152918316602080840191825261ffff909516600090815260679095529320905192518216600160801b0292909116919091179055565b60006107557fb53127684a568b3173ae13b9f8a6016e243e63b6e8ee1178d6a717850b5d61035490565b90506001600160a01b038116610794576001600160a01b037fb53127684a568b3173ae13b9f8a6016e243e63b6e8ee1178d6a717850b5d6103556107a9565b336001600160a01b038216146107a957600080fd5b600154610100900460ff16158080156107c657506001805460ff16105b806107df5750303b1580156107df57506001805460ff16145b6108425760405162461bcd60e51b815260206004820152602e60248201527f496e697469616c697a61626c653a20636f6e747261637420697320616c72656160448201526d191e481a5b9a5d1a585b1a5e995960921b606482015260840161044c565b6001805460ff1916811790558015610864576001805461ff0019166101001790555b61086c610ce5565b606680546001600160a01b0319166001600160a01b0385161790556108923060016104e6565b80156108d7576001805461ff00191681556040519081527f7f26b83ff96e1f2b6a682f133852f6798a09c465da95921460cefb38474024989060200160405180910390a15b505050565b600080600061092389898988888080601f016020809104026020016040519081016040528093929190818152602001838380828437600092019190915250610d1492505050565b909250905061093c6109358783610fa9565b8390610fbc565b9998505050505050505050565b3361095c6034546001600160a01b031690565b6001600160a01b03161461098f5761097333610551565b61098f5760405162461bcd60e51b815260040161044c906113f1565b60665460405163116083bb60e11b815260026004820152600060248201526001600160a01b03848116604483015260648201849052909116906322c1077690608401600060405180830381600087803b1580156109eb57600080fd5b505af11580156109ff573d6000803e3d6000fd5b505050505050565b610a0f610c39565b6001600160a01b038116610a745760405162461bcd60e51b815260206004820152602660248201527f4f776e61626c653a206e6577206f776e657220697320746865207a65726f206160448201526564647265737360d01b606482015260840161044c565b610a7d81610c93565b50565b33610a936034546001600160a01b031690565b6001600160a01b031614610ac657610aaa33610551565b610ac65760405162461bcd60e51b815260040161044c906113f1565b60026000541415610b195760405162461bcd60e51b815260206004820152601f60248201527f5265656e7472616e637947756172643a207265656e7472616e742063616c6c00604482015260640161044c565b600260009081556040516001600160a01b0383169034908381818185875af1925050503d8060008114610b68576040519150601f19603f3d011682016040523d82523d6000602084013e610b6d565b606091505b5050905080610bbe5760405162461bcd60e51b815260206004820152601d60248201527f52656c617965723a206661696c656420746f2073656e64206574686572000000604482015260640161044c565b606654604051635c01153160e01b81526001600160a01b0390911690635c01153190610bf8908b908b908b908b908b908b90600401611420565b600060405180830381600087803b158015610c1257600080fd5b505af1158015610c26573d6000803e3d6000fd5b5050600160005550505050505050505050565b6034546001600160a01b031633146105815760405162461bcd60e51b815260206004820181905260248201527f4f776e61626c653a2063616c6c6572206973206e6f7420746865206f776e6572604482015260640161044c565b603480546001600160a01b038381166001600160a01b0319831681179093556040519116919082907f8be0079c531659141344cd1fd0a4f28419497f9722a3daafe3b4186f6b6457e090600090a35050565b600154610100900460ff16610d0c5760405162461bcd60e51b815260040161044c90611477565b610581610fc8565b600080825160221480610d28575060428351115b610d835760405162461bcd60e51b815260206004820152602660248201527f52656c617965723a2077726f6e67205f61646170746572506172616d65746572604482015265732073697a6560d01b606482015260840161044c565b6002830151602284015180610dd15760405162461bcd60e51b815260206004820152601460248201527352656c617965723a2067617320746f6f206c6f7760601b604482015260640161044c565b8161ffff1660011480610de857508161ffff166002145b610e345760405162461bcd60e51b815260206004820152601b60248201527f52656c617965723a20756e737570706f72746564207478547970650000000000604482015260640161044c565b61ffff8881166000908152606760209081526040808320606883528184208c8616855290925282209092909190851660021415610ed857604288015182546001600160801b0316811115610eca5760405162461bcd60e51b815260206004820152601f60248201527f52656c617965723a206473744e6174697665416d7420746f6f206c6172676500604482015260640161044c565b610ed48282610fbc565b9150505b8154600090610f1490610efc90600160801b900467ffffffffffffffff1687610fbc565b8554600160801b90046001600160801b031690610fa9565b9050610f208282610fbc565b8454909250610f4a906402540be40090610f449085906001600160801b0316610fa9565b90610ff8565b84548454919950610f98916402540be40091610f44916001600160801b0380831692610f9292600160801b90910490911690600160c01b900467ffffffffffffffff16610fa9565b90610fa9565b965050505050505094509492505050565b6000610fb582846114d8565b9392505050565b6000610fb582846114f7565b600154610100900460ff16610fef5760405162461bcd60e51b815260040161044c90611477565b61058133610c93565b6000610fb5828461150f565b803561ffff8116811461101657600080fd5b919050565b6000806040838503121561102e57600080fd5b61103783611004565b915061104560208401611004565b90509250929050565b60008083601f84011261106057600080fd5b50813567ffffffffffffffff81111561107857600080fd5b60208301915083602082850101111561109057600080fd5b9250929050565b600080600080606085870312156110ad57600080fd5b6110b685611004565b93506110c460208601611004565b9250604085013567ffffffffffffffff8111156110e057600080fd5b6110ec8782880161104e565b95989497509550505050565b80356001600160801b038116811461101657600080fd5b803567ffffffffffffffff8116811461101657600080fd5b600080600080600060a0868803121561113f57600080fd5b61114886611004565b945061115660208701611004565b9350611164604087016110f8565b92506111726060870161110f565b91506111806080870161110f565b90509295509295909350565b6001600160a01b0381168114610a7d57600080fd5b600080604083850312156111b457600080fd5b82356111bf8161118c565b9150602083013580151581146111d457600080fd5b809150509250929050565b6000602082840312156111f157600080fd5b8135610fb58161118c565b60006020828403121561120e57600080fd5b610fb582611004565b60008060008060008060a0878903121561123057600080fd5b61123987611004565b955060208701356112498161118c565b94506040870135935060608701359250608087013567ffffffffffffffff81111561127357600080fd5b61127f89828a0161104e565b979a9699509497509295939492505050565b6000806000606084860312156112a657600080fd5b6112af84611004565b92506112bd602085016110f8565b91506112cb604085016110f8565b90509250925092565b60008060008060008060a087890312156112ed57600080fd5b6112f687611004565b955061130460208801611004565b945060408701356113148161118c565b935060608701359250608087013567ffffffffffffffff81111561127357600080fd5b6000806040838503121561134a57600080fd5b82356113558161118c565b946020939093013593505050565b600080600080600080600060c0888a03121561137e57600080fd5b61138788611004565b965060208801356113978161118c565b95506040880135945060608801359350608088013567ffffffffffffffff8111156113c157600080fd5b6113cd8a828b0161104e565b90945092505060a08801356113e18161118c565b8091505092959891949750929550565b60208082526015908201527414995b185e595c8e881b9bdd08185c1c1c9bdd9959605a1b604082015260600190565b61ffff8716815260018060a01b038616602082015284604082015283606082015260a060808201528160a0820152818360c0830137600081830160c090810191909152601f909201601f1916010195945050505050565b6020808252602b908201527f496e697469616c697a61626c653a20636f6e7472616374206973206e6f74206960408201526a6e697469616c697a696e6760a81b606082015260800190565b634e487b7160e01b600052601160045260246000fd5b60008160001904831182151516156114f2576114f26114c2565b500290565b6000821982111561150a5761150a6114c2565b500190565b60008261152c57634e487b7160e01b600052601260045260246000fd5b50049056fea2646970667358221220211c67d497d3020dc47905fb6700d979a91e7288439081f53298b9f2f729934064736f6c634300080c0033",
  "linkReferences": {},
  "deployedLinkReferences": {}
}