{
  "_format": "hh-sol-artifact-1",
  "contractName": "TreasuryV2",
  "sourceName": "contracts/mContracts/lzContracts/TreasuryV2.sol",
  "abi": [
    {
      "inputs": [
        {
          "internalType": "address",
          "name": "_ulnv2",
          "type": "address"
        }
      ],
      "stateMutability": "nonpayable",
      "type": "constructor"
    },
    {
      "anonymous": false,
      "inputs": [
        {
          "indexed": false,
          "internalType": "bool",
          "name": "feeEnabled",
          "type": "bool"
        }
      ],
      "name": "FeeEnabled",
      "type": "event"
    },
    {
      "anonymous": false,
      "inputs": [
        {
          "indexed": false,
          "internalType": "uint256",
          "name": "bp",
          "type": "uint256"
        }
      ],
      "name": "NativeBP",
      "type": "event"
    },
    {
      "anonymous": false,
      "inputs": [
        {
          "indexed": true,
          "internalType": "address",
          "name": "previousOwner",
          "type": "address"
        },
        {
          "indexed": true,
          "internalType": "address",
          "name": "newOwner",
          "type": "address"
        }
      ],
      "name": "OwnershipTransferred",
      "type": "event"
    },
    {
      "anonymous": false,
      "inputs": [
        {
          "indexed": false,
          "internalType": "bool",
          "name": "zroEnabled",
          "type": "bool"
        }
      ],
      "name": "ZroEnabled",
      "type": "event"
    },
    {
      "anonymous": false,
      "inputs": [
        {
          "indexed": false,
          "internalType": "uint256",
          "name": "zroFee",
          "type": "uint256"
        }
      ],
      "name": "ZroFee",
      "type": "event"
    },
    {
      "inputs": [],
      "name": "feeEnabled",
      "outputs": [
        {
          "internalType": "bool",
          "name": "",
          "type": "bool"
        }
      ],
      "stateMutability": "view",
      "type": "function"
    },
    {
      "inputs": [
        {
          "internalType": "bool",
          "name": "payInZro",
          "type": "bool"
        },
        {
          "internalType": "uint256",
          "name": "relayerFee",
          "type": "uint256"
        },
        {
          "internalType": "uint256",
          "name": "oracleFee",
          "type": "uint256"
        }
      ],
      "name": "getFees",
      "outputs": [
        {
          "internalType": "uint256",
          "name": "",
          "type": "uint256"
        }
      ],
      "stateMutability": "view",
      "type": "function"
    },
    {
      "inputs": [],
      "name": "nativeBP",
      "outputs": [
        {
          "internalType": "uint256",
          "name": "",
          "type": "uint256"
        }
      ],
      "stateMutability": "view",
      "type": "function"
    },
    {
      "inputs": [],
      "name": "owner",
      "outputs": [
        {
          "internalType": "address",
          "name": "",
          "type": "address"
        }
      ],
      "stateMutability": "view",
      "type": "function"
    },
    {
      "inputs": [],
      "name": "renounceOwnership",
      "outputs": [],
      "stateMutability": "nonpayable",
      "type": "function"
    },
    {
      "inputs": [
        {
          "internalType": "bool",
          "name": "_feeEnabled",
          "type": "bool"
        }
      ],
      "name": "setFeeEnabled",
      "outputs": [],
      "stateMutability": "nonpayable",
      "type": "function"
    },
    {
      "inputs": [
        {
          "internalType": "uint256",
          "name": "_nativeBP",
          "type": "uint256"
        }
      ],
      "name": "setNativeBP",
      "outputs": [],
      "stateMutability": "nonpayable",
      "type": "function"
    },
    {
      "inputs": [
        {
          "internalType": "bool",
          "name": "_zroEnabled",
          "type": "bool"
        }
      ],
      "name": "setZroEnabled",
      "outputs": [],
      "stateMutability": "nonpayable",
      "type": "function"
    },
    {
      "inputs": [
        {
          "internalType": "uint256",
          "name": "_zroFee",
          "type": "uint256"
        }
      ],
      "name": "setZroFee",
      "outputs": [],
      "stateMutability": "nonpayable",
      "type": "function"
    },
    {
      "inputs": [
        {
          "internalType": "address",
          "name": "newOwner",
          "type": "address"
        }
      ],
      "name": "transferOwnership",
      "outputs": [],
      "stateMutability": "nonpayable",
      "type": "function"
    },
    {
      "inputs": [],
      "name": "uln",
      "outputs": [
        {
          "internalType": "contract ILayerZeroUltraLightNodeV2",
          "name": "",
          "type": "address"
        }
      ],
      "stateMutability": "view",
      "type": "function"
    },
    {
      "inputs": [
        {
          "internalType": "address payable",
          "name": "_to",
          "type": "address"
        },
        {
          "internalType": "uint256",
          "name": "_amount",
          "type": "uint256"
        }
      ],
      "name": "withdrawNativeFromULN",
      "outputs": [],
      "stateMutability": "nonpayable",
      "type": "function"
    },
    {
      "inputs": [
        {
          "internalType": "address",
          "name": "_to",
          "type": "address"
        },
        {
          "internalType": "uint256",
          "name": "_amount",
          "type": "uint256"
        }
      ],
      "name": "withdrawZROFromULN",
      "outputs": [],
      "stateMutability": "nonpayable",
      "type": "function"
    },
    {
      "inputs": [],
      "name": "zroEnabled",
      "outputs": [
        {
          "internalType": "bool",
          "name": "",
          "type": "bool"
        }
      ],
      "stateMutability": "view",
      "type": "function"
    },
    {
      "inputs": [],
      "name": "zroFee",
      "outputs": [
        {
          "internalType": "uint256",
          "name": "",
          "type": "uint256"
        }
      ],
      "stateMutability": "view",
      "type": "function"
    }
  ],
  "bytecode": "0x608060405234801561001057600080fd5b5060405161089338038061089383398101604081905261002f916100b5565b61003833610065565b600380546001600160a01b03909216620100000262010000600160b01b03199092169190911790556100e5565b600080546001600160a01b038381166001600160a01b0319831681178455604051919092169283917f8be0079c531659141344cd1fd0a4f28419497f9722a3daafe3b4186f6b6457e09190a35050565b6000602082840312156100c757600080fd5b81516001600160a01b03811681146100de57600080fd5b9392505050565b61079f806100f46000396000f3fe608060405234801561001057600080fd5b50600436106100f55760003560e01c80638da5cb5b11610097578063baead4cc11610066578063baead4cc146101e7578063d684b253146101fa578063d935d1231461020d578063f2fde38b1461021f57600080fd5b80638da5cb5b146101a757806396a141a0146101b8578063a771ebc7146101c1578063af406aa5146101de57600080fd5b80636c473aff116100d35780636c473aff14610148578063715018a6146101795780637ba20ccf146101815780638c6163971461019457600080fd5b80630db474fa146100fa5780633c5ac8f71461010f5780635cbbbd7514610122575b600080fd5b61010d610108366004610635565b610232565b005b61010d61011d366004610665565b610282565b610135610130366004610691565b6102fc565b6040519081526020015b60405180910390f35b600354610161906201000090046001600160a01b031681565b6040516001600160a01b03909116815260200161013f565b61010d6103b2565b61010d61018f3660046106c4565b6103c6565b61010d6101a2366004610665565b610403565b6000546001600160a01b0316610161565b61013560015481565b6003546101ce9060ff1681565b604051901515815260200161013f565b61013560025481565b61010d6101f53660046106c4565b61044b565b61010d610208366004610635565b610488565b6003546101ce90610100900460ff1681565b61010d61022d3660046106dd565b6104d9565b61023a610552565b6003805460ff19168215159081179091556040519081527fe97fa32ceb811a18d1b14115b17ae0034db328b2e2ca987d9922cbf47b03fad6906020015b60405180910390a150565b61028a610552565b6003546040516303d8c5ef60e11b81526001600160a01b0384811660048301526024820184905262010000909204909116906307b18bde906044015b600060405180830381600087803b1580156102e057600080fd5b505af11580156102f4573d6000803e3d6000fd5b505050505050565b60035460009060ff16156103a757831561037557600354610100900460ff1661036c5760405162461bcd60e51b815260206004820152601d60248201527f4c617965725a65726f3a205a524f206973206e6f7420656e61626c656400000060448201526064015b60405180910390fd5b506002546103ab565b6103a061271061039a60015461039486886105ac90919063ffffffff16565b906105b8565b906105c4565b90506103ab565b5060005b9392505050565b6103ba610552565b6103c460006105d0565b565b6103ce610552565b60028190556040518181527f804d99c2291bc4a6be11ff016f65cfc644f8d488ef55a5318d0217a1fdc4e9fd90602001610277565b61040b610552565b600354604051638525b71160e01b81526001600160a01b038481166004830152602482018490526201000090920490911690638525b711906044016102c6565b610453610552565b60018190556040518181527ff2a316ed322d32481373e7ed416bc6c1ec2afcfa3bf2f1df9eb4300e1a9620e390602001610277565b610490610552565b600380548215156101000261ff00199091161790556040517f279d3ec34d7b325d10d4b9d6c63464877a6fe6ac3997f7508bdb3b9d2d5050b39061027790831515815260200190565b6104e1610552565b6001600160a01b0381166105465760405162461bcd60e51b815260206004820152602660248201527f4f776e61626c653a206e6577206f776e657220697320746865207a65726f206160448201526564647265737360d01b6064820152608401610363565b61054f816105d0565b50565b6000546001600160a01b031633146103c45760405162461bcd60e51b815260206004820181905260248201527f4f776e61626c653a2063616c6c6572206973206e6f7420746865206f776e65726044820152606401610363565b60006103ab8284610710565b60006103ab8284610728565b60006103ab8284610747565b600080546001600160a01b038381166001600160a01b0319831681178455604051919092169283917f8be0079c531659141344cd1fd0a4f28419497f9722a3daafe3b4186f6b6457e09190a35050565b8035801515811461063057600080fd5b919050565b60006020828403121561064757600080fd5b6103ab82610620565b6001600160a01b038116811461054f57600080fd5b6000806040838503121561067857600080fd5b823561068381610650565b946020939093013593505050565b6000806000606084860312156106a657600080fd5b6106af84610620565b95602085013595506040909401359392505050565b6000602082840312156106d657600080fd5b5035919050565b6000602082840312156106ef57600080fd5b81356103ab81610650565b634e487b7160e01b600052601160045260246000fd5b60008219821115610723576107236106fa565b500190565b6000816000190483118215151615610742576107426106fa565b500290565b60008261076457634e487b7160e01b600052601260045260246000fd5b50049056fea2646970667358221220b72a29a917fedaa3d05cdd69034fc7f7584ac913510e0b7fccc863acbcbea21664736f6c634300080c0033",
  "linkReferences": {},
  "deployedLinkReferences": {}
}