{
  "_format": "hh-sol-artifact-1",
  "contractName": "PausableOFT",
  "sourceName": "contracts/token/oft/extension/PausableOFT.sol",
  "abi": [
    {
      "inputs": [
        {
          "internalType": "string",
          "name": "_name",
          "type": "string"
        },
        {
          "internalType": "string",
          "name": "_symbol",
          "type": "string"
        },
        {
          "internalType": "address",
          "name": "_lzEndpoint",
          "type": "address"
        }
      ],
      "stateMutability": "nonpayable",
      "type": "constructor"
    },
    {
      "anonymous": false,
      "inputs": [
        {
          "indexed": true,
          "internalType": "address",
          "name": "owner",
          "type": "address"
        },
        {
          "indexed": true,
          "internalType": "address",
          "name": "spender",
          "type": "address"
        },
        {
          "indexed": false,
          "internalType": "uint256",
          "name": "value",
          "type": "uint256"
        }
      ],
      "name": "Approval",
      "type": "event"
    },
    {
      "anonymous": false,
      "inputs": [
        {
          "indexed": false,
          "internalType": "uint16",
          "name": "_srcChainId",
          "type": "uint16"
        },
        {
          "indexed": false,
          "internalType": "bytes",
          "name": "_srcAddress",
          "type": "bytes"
        },
        {
          "indexed": false,
          "internalType": "uint64",
          "name": "_nonce",
          "type": "uint64"
        },
        {
          "indexed": false,
          "internalType": "bytes",
          "name": "_payload",
          "type": "bytes"
        },
        {
          "indexed": false,
          "internalType": "bytes",
          "name": "_reason",
          "type": "bytes"
        }
      ],
      "name": "MessageFailed",
      "type": "event"
    },
    {
      "anonymous": false,
      "inputs": [
        {
          "indexed": true,
          "internalType": "address",
          "name": "previousOwner",
          "type": "address"
        },
        {
          "indexed": true,
          "internalType": "address",
          "name": "newOwner",
          "type": "address"
        }
      ],
      "name": "OwnershipTransferred",
      "type": "event"
    },
    {
      "anonymous": false,
      "inputs": [
        {
          "indexed": false,
          "internalType": "address",
          "name": "account",
          "type": "address"
        }
      ],
      "name": "Paused",
      "type": "event"
    },
    {
      "anonymous": false,
      "inputs": [
        {
          "indexed": true,
          "internalType": "uint16",
          "name": "_srcChainId",
          "type": "uint16"
        },
        {
          "indexed": true,
          "internalType": "address",
          "name": "_to",
          "type": "address"
        },
        {
          "indexed": false,
          "internalType": "uint256",
          "name": "_amount",
          "type": "uint256"
        }
      ],
      "name": "ReceiveFromChain",
      "type": "event"
    },
    {
      "anonymous": false,
      "inputs": [
        {
          "indexed": false,
          "internalType": "uint16",
          "name": "_srcChainId",
          "type": "uint16"
        },
        {
          "indexed": false,
          "internalType": "bytes",
          "name": "_srcAddress",
          "type": "bytes"
        },
        {
          "indexed": false,
          "internalType": "uint64",
          "name": "_nonce",
          "type": "uint64"
        },
        {
          "indexed": false,
          "internalType": "bytes32",
          "name": "_payloadHash",
          "type": "bytes32"
        }
      ],
      "name": "RetryMessageSuccess",
      "type": "event"
    },
    {
      "anonymous": false,
      "inputs": [
        {
          "indexed": true,
          "internalType": "uint16",
          "name": "_dstChainId",
          "type": "uint16"
        },
        {
          "indexed": true,
          "internalType": "address",
          "name": "_from",
          "type": "address"
        },
        {
          "indexed": false,
          "internalType": "bytes",
          "name": "_toAddress",
          "type": "bytes"
        },
        {
          "indexed": false,
          "internalType": "uint256",
          "name": "_amount",
          "type": "uint256"
        }
      ],
      "name": "SendToChain",
      "type": "event"
    },
    {
      "anonymous": false,
      "inputs": [
        {
          "indexed": false,
          "internalType": "uint16",
          "name": "_dstChainId",
          "type": "uint16"
        },
        {
          "indexed": false,
          "internalType": "uint16",
          "name": "_type",
          "type": "uint16"
        },
        {
          "indexed": false,
          "internalType": "uint256",
          "name": "_minDstGas",
          "type": "uint256"
        }
      ],
      "name": "SetMinDstGas",
      "type": "event"
    },
    {
      "anonymous": false,
      "inputs": [
        {
          "indexed": false,
          "internalType": "address",
          "name": "precrime",
          "type": "address"
        }
      ],
      "name": "SetPrecrime",
      "type": "event"
    },
    {
      "anonymous": false,
      "inputs": [
        {
          "indexed": false,
          "internalType": "uint16",
          "name": "_remoteChainId",
          "type": "uint16"
        },
        {
          "indexed": false,
          "internalType": "bytes",
          "name": "_path",
          "type": "bytes"
        }
      ],
      "name": "SetTrustedRemote",
      "type": "event"
    },
    {
      "anonymous": false,
      "inputs": [
        {
          "indexed": false,
          "internalType": "uint16",
          "name": "_remoteChainId",
          "type": "uint16"
        },
        {
          "indexed": false,
          "internalType": "bytes",
          "name": "_remoteAddress",
          "type": "bytes"
        }
      ],
      "name": "SetTrustedRemoteAddress",
      "type": "event"
    },
    {
      "anonymous": false,
      "inputs": [
        {
          "indexed": false,
          "internalType": "bool",
          "name": "_useCustomAdapterParams",
          "type": "bool"
        }
      ],
      "name": "SetUseCustomAdapterParams",
      "type": "event"
    },
    {
      "anonymous": false,
      "inputs": [
        {
          "indexed": true,
          "internalType": "address",
          "name": "from",
          "type": "address"
        },
        {
          "indexed": true,
          "internalType": "address",
          "name": "to",
          "type": "address"
        },
        {
          "indexed": false,
          "internalType": "uint256",
          "name": "value",
          "type": "uint256"
        }
      ],
      "name": "Transfer",
      "type": "event"
    },
    {
      "anonymous": false,
      "inputs": [
        {
          "indexed": false,
          "internalType": "address",
          "name": "account",
          "type": "address"
        }
      ],
      "name": "Unpaused",
      "type": "event"
    },
    {
      "inputs": [],
      "name": "DEFAULT_PAYLOAD_SIZE_LIMIT",
      "outputs": [
        {
          "internalType": "uint256",
          "name": "",
          "type": "uint256"
        }
      ],
      "stateMutability": "view",
      "type": "function"
    },
    {
      "inputs": [],
      "name": "NO_EXTRA_GAS",
      "outputs": [
        {
          "internalType": "uint256",
          "name": "",
          "type": "uint256"
        }
      ],
      "stateMutability": "view",
      "type": "function"
    },
    {
      "inputs": [],
      "name": "PT_SEND",
      "outputs": [
        {
          "internalType": "uint16",
          "name": "",
          "type": "uint16"
        }
      ],
      "stateMutability": "view",
      "type": "function"
    },
    {
      "inputs": [
        {
          "internalType": "address",
          "name": "owner",
          "type": "address"
        },
        {
          "internalType": "address",
          "name": "spender",
          "type": "address"
        }
      ],
      "name": "allowance",
      "outputs": [
        {
          "internalType": "uint256",
          "name": "",
          "type": "uint256"
        }
      ],
      "stateMutability": "view",
      "type": "function"
    },
    {
      "inputs": [
        {
          "internalType": "address",
          "name": "spender",
          "type": "address"
        },
        {
          "internalType": "uint256",
          "name": "amount",
          "type": "uint256"
        }
      ],
      "name": "approve",
      "outputs": [
        {
          "internalType": "bool",
          "name": "",
          "type": "bool"
        }
      ],
      "stateMutability": "nonpayable",
      "type": "function"
    },
    {
      "inputs": [
        {
          "internalType": "address",
          "name": "account",
          "type": "address"
        }
      ],
      "name": "balanceOf",
      "outputs": [
        {
          "internalType": "uint256",
          "name": "",
          "type": "uint256"
        }
      ],
      "stateMutability": "view",
      "type": "function"
    },
    {
      "inputs": [],
      "name": "circulatingSupply",
      "outputs": [
        {
          "internalType": "uint256",
          "name": "",
          "type": "uint256"
        }
      ],
      "stateMutability": "view",
      "type": "function"
    },
    {
      "inputs": [],
      "name": "decimals",
      "outputs": [
        {
          "internalType": "uint8",
          "name": "",
          "type": "uint8"
        }
      ],
      "stateMutability": "view",
      "type": "function"
    },
    {
      "inputs": [
        {
          "internalType": "address",
          "name": "spender",
          "type": "address"
        },
        {
          "internalType": "uint256",
          "name": "subtractedValue",
          "type": "uint256"
        }
      ],
      "name": "decreaseAllowance",
      "outputs": [
        {
          "internalType": "bool",
          "name": "",
          "type": "bool"
        }
      ],
      "stateMutability": "nonpayable",
      "type": "function"
    },
    {
      "inputs": [
        {
          "internalType": "uint16",
          "name": "_dstChainId",
          "type": "uint16"
        },
        {
          "internalType": "bytes",
          "name": "_toAddress",
          "type": "bytes"
        },
        {
          "internalType": "uint256",
          "name": "_amount",
          "type": "uint256"
        },
        {
          "internalType": "bool",
          "name": "_useZro",
          "type": "bool"
        },
        {
          "internalType": "bytes",
          "name": "_adapterParams",
          "type": "bytes"
        }
      ],
      "name": "estimateSendFee",
      "outputs": [
        {
          "internalType": "uint256",
          "name": "nativeFee",
          "type": "uint256"
        },
        {
          "internalType": "uint256",
          "name": "zroFee",
          "type": "uint256"
        }
      ],
      "stateMutability": "view",
      "type": "function"
    },
    {
      "inputs": [
        {
          "internalType": "uint16",
          "name": "",
          "type": "uint16"
        },
        {
          "internalType": "bytes",
          "name": "",
          "type": "bytes"
        },
        {
          "internalType": "uint64",
          "name": "",
          "type": "uint64"
        }
      ],
      "name": "failedMessages",
      "outputs": [
        {
          "internalType": "bytes32",
          "name": "",
          "type": "bytes32"
        }
      ],
      "stateMutability": "view",
      "type": "function"
    },
    {
      "inputs": [
        {
          "internalType": "uint16",
          "name": "_srcChainId",
          "type": "uint16"
        },
        {
          "internalType": "bytes",
          "name": "_srcAddress",
          "type": "bytes"
        }
      ],
      "name": "forceResumeReceive",
      "outputs": [],
      "stateMutability": "nonpayable",
      "type": "function"
    },
    {
      "inputs": [
        {
          "internalType": "uint16",
          "name": "_version",
          "type": "uint16"
        },
        {
          "internalType": "uint16",
          "name": "_chainId",
          "type": "uint16"
        },
        {
          "internalType": "address",
          "name": "",
          "type": "address"
        },
        {
          "internalType": "uint256",
          "name": "_configType",
          "type": "uint256"
        }
      ],
      "name": "getConfig",
      "outputs": [
        {
          "internalType": "bytes",
          "name": "",
          "type": "bytes"
        }
      ],
      "stateMutability": "view",
      "type": "function"
    },
    {
      "inputs": [
        {
          "internalType": "uint16",
          "name": "_remoteChainId",
          "type": "uint16"
        }
      ],
      "name": "getTrustedRemoteAddress",
      "outputs": [
        {
          "internalType": "bytes",
          "name": "",
          "type": "bytes"
        }
      ],
      "stateMutability": "view",
      "type": "function"
    },
    {
      "inputs": [
        {
          "internalType": "address",
          "name": "spender",
          "type": "address"
        },
        {
          "internalType": "uint256",
          "name": "addedValue",
          "type": "uint256"
        }
      ],
      "name": "increaseAllowance",
      "outputs": [
        {
          "internalType": "bool",
          "name": "",
          "type": "bool"
        }
      ],
      "stateMutability": "nonpayable",
      "type": "function"
    },
    {
      "inputs": [
        {
          "internalType": "uint16",
          "name": "_srcChainId",
          "type": "uint16"
        },
        {
          "internalType": "bytes",
          "name": "_srcAddress",
          "type": "bytes"
        }
      ],
      "name": "isTrustedRemote",
      "outputs": [
        {
          "internalType": "bool",
          "name": "",
          "type": "bool"
        }
      ],
      "stateMutability": "view",
      "type": "function"
    },
    {
      "inputs": [],
      "name": "lzEndpoint",
      "outputs": [
        {
          "internalType": "contract ILayerZeroEndpoint",
          "name": "",
          "type": "address"
        }
      ],
      "stateMutability": "view",
      "type": "function"
    },
    {
      "inputs": [
        {
          "internalType": "uint16",
          "name": "_srcChainId",
          "type": "uint16"
        },
        {
          "internalType": "bytes",
          "name": "_srcAddress",
          "type": "bytes"
        },
        {
          "internalType": "uint64",
          "name": "_nonce",
          "type": "uint64"
        },
        {
          "internalType": "bytes",
          "name": "_payload",
          "type": "bytes"
        }
      ],
      "name": "lzReceive",
      "outputs": [],
      "stateMutability": "nonpayable",
      "type": "function"
    },
    {
      "inputs": [
        {
          "internalType": "uint16",
          "name": "",
          "type": "uint16"
        },
        {
          "internalType": "uint16",
          "name": "",
          "type": "uint16"
        }
      ],
      "name": "minDstGasLookup",
      "outputs": [
        {
          "internalType": "uint256",
          "name": "",
          "type": "uint256"
        }
      ],
      "stateMutability": "view",
      "type": "function"
    },
    {
      "inputs": [],
      "name": "name",
      "outputs": [
        {
          "internalType": "string",
          "name": "",
          "type": "string"
        }
      ],
      "stateMutability": "view",
      "type": "function"
    },
    {
      "inputs": [
        {
          "internalType": "uint16",
          "name": "_srcChainId",
          "type": "uint16"
        },
        {
          "internalType": "bytes",
          "name": "_srcAddress",
          "type": "bytes"
        },
        {
          "internalType": "uint64",
          "name": "_nonce",
          "type": "uint64"
        },
        {
          "internalType": "bytes",
          "name": "_payload",
          "type": "bytes"
        }
      ],
      "name": "nonblockingLzReceive",
      "outputs": [],
      "stateMutability": "nonpayable",
      "type": "function"
    },
    {
      "inputs": [],
      "name": "owner",
      "outputs": [
        {
          "internalType": "address",
          "name": "",
          "type": "address"
        }
      ],
      "stateMutability": "view",
      "type": "function"
    },
    {
      "inputs": [
        {
          "internalType": "bool",
          "name": "pause",
          "type": "bool"
        }
      ],
      "name": "pauseSendTokens",
      "outputs": [],
      "stateMutability": "nonpayable",
      "type": "function"
    },
    {
      "inputs": [],
      "name": "paused",
      "outputs": [
        {
          "internalType": "bool",
          "name": "",
          "type": "bool"
        }
      ],
      "stateMutability": "view",
      "type": "function"
    },
    {
      "inputs": [
        {
          "internalType": "uint16",
          "name": "",
          "type": "uint16"
        }
      ],
      "name": "payloadSizeLimitLookup",
      "outputs": [
        {
          "internalType": "uint256",
          "name": "",
          "type": "uint256"
        }
      ],
      "stateMutability": "view",
      "type": "function"
    },
    {
      "inputs": [],
      "name": "precrime",
      "outputs": [
        {
          "internalType": "address",
          "name": "",
          "type": "address"
        }
      ],
      "stateMutability": "view",
      "type": "function"
    },
    {
      "inputs": [],
      "name": "renounceOwnership",
      "outputs": [],
      "stateMutability": "nonpayable",
      "type": "function"
    },
    {
      "inputs": [
        {
          "internalType": "uint16",
          "name": "_srcChainId",
          "type": "uint16"
        },
        {
          "internalType": "bytes",
          "name": "_srcAddress",
          "type": "bytes"
        },
        {
          "internalType": "uint64",
          "name": "_nonce",
          "type": "uint64"
        },
        {
          "internalType": "bytes",
          "name": "_payload",
          "type": "bytes"
        }
      ],
      "name": "retryMessage",
      "outputs": [],
      "stateMutability": "payable",
      "type": "function"
    },
    {
      "inputs": [
        {
          "internalType": "address",
          "name": "_from",
          "type": "address"
        },
        {
          "internalType": "uint16",
          "name": "_dstChainId",
          "type": "uint16"
        },
        {
          "internalType": "bytes",
          "name": "_toAddress",
          "type": "bytes"
        },
        {
          "internalType": "uint256",
          "name": "_amount",
          "type": "uint256"
        },
        {
          "internalType": "address payable",
          "name": "_refundAddress",
          "type": "address"
        },
        {
          "internalType": "address",
          "name": "_zroPaymentAddress",
          "type": "address"
        },
        {
          "internalType": "bytes",
          "name": "_adapterParams",
          "type": "bytes"
        }
      ],
      "name": "sendFrom",
      "outputs": [],
      "stateMutability": "payable",
      "type": "function"
    },
    {
      "inputs": [
        {
          "internalType": "uint16",
          "name": "_version",
          "type": "uint16"
        },
        {
          "internalType": "uint16",
          "name": "_chainId",
          "type": "uint16"
        },
        {
          "internalType": "uint256",
          "name": "_configType",
          "type": "uint256"
        },
        {
          "internalType": "bytes",
          "name": "_config",
          "type": "bytes"
        }
      ],
      "name": "setConfig",
      "outputs": [],
      "stateMutability": "nonpayable",
      "type": "function"
    },
    {
      "inputs": [
        {
          "internalType": "uint16",
          "name": "_dstChainId",
          "type": "uint16"
        },
        {
          "internalType": "uint16",
          "name": "_packetType",
          "type": "uint16"
        },
        {
          "internalType": "uint256",
          "name": "_minGas",
          "type": "uint256"
        }
      ],
      "name": "setMinDstGas",
      "outputs": [],
      "stateMutability": "nonpayable",
      "type": "function"
    },
    {
      "inputs": [
        {
          "internalType": "uint16",
          "name": "_dstChainId",
          "type": "uint16"
        },
        {
          "internalType": "uint256",
          "name": "_size",
          "type": "uint256"
        }
      ],
      "name": "setPayloadSizeLimit",
      "outputs": [],
      "stateMutability": "nonpayable",
      "type": "function"
    },
    {
      "inputs": [
        {
          "internalType": "address",
          "name": "_precrime",
          "type": "address"
        }
      ],
      "name": "setPrecrime",
      "outputs": [],
      "stateMutability": "nonpayable",
      "type": "function"
    },
    {
      "inputs": [
        {
          "internalType": "uint16",
          "name": "_version",
          "type": "uint16"
        }
      ],
      "name": "setReceiveVersion",
      "outputs": [],
      "stateMutability": "nonpayable",
      "type": "function"
    },
    {
      "inputs": [
        {
          "internalType": "uint16",
          "name": "_version",
          "type": "uint16"
        }
      ],
      "name": "setSendVersion",
      "outputs": [],
      "stateMutability": "nonpayable",
      "type": "function"
    },
    {
      "inputs": [
        {
          "internalType": "uint16",
          "name": "_srcChainId",
          "type": "uint16"
        },
        {
          "internalType": "bytes",
          "name": "_path",
          "type": "bytes"
        }
      ],
      "name": "setTrustedRemote",
      "outputs": [],
      "stateMutability": "nonpayable",
      "type": "function"
    },
    {
      "inputs": [
        {
          "internalType": "uint16",
          "name": "_remoteChainId",
          "type": "uint16"
        },
        {
          "internalType": "bytes",
          "name": "_remoteAddress",
          "type": "bytes"
        }
      ],
      "name": "setTrustedRemoteAddress",
      "outputs": [],
      "stateMutability": "nonpayable",
      "type": "function"
    },
    {
      "inputs": [
        {
          "internalType": "bool",
          "name": "_useCustomAdapterParams",
          "type": "bool"
        }
      ],
      "name": "setUseCustomAdapterParams",
      "outputs": [],
      "stateMutability": "nonpayable",
      "type": "function"
    },
    {
      "inputs": [
        {
          "internalType": "bytes4",
          "name": "interfaceId",
          "type": "bytes4"
        }
      ],
      "name": "supportsInterface",
      "outputs": [
        {
          "internalType": "bool",
          "name": "",
          "type": "bool"
        }
      ],
      "stateMutability": "view",
      "type": "function"
    },
    {
      "inputs": [],
      "name": "symbol",
      "outputs": [
        {
          "internalType": "string",
          "name": "",
          "type": "string"
        }
      ],
      "stateMutability": "view",
      "type": "function"
    },
    {
      "inputs": [],
      "name": "token",
      "outputs": [
        {
          "internalType": "address",
          "name": "",
          "type": "address"
        }
      ],
      "stateMutability": "view",
      "type": "function"
    },
    {
      "inputs": [],
      "name": "totalSupply",
      "outputs": [
        {
          "internalType": "uint256",
          "name": "",
          "type": "uint256"
        }
      ],
      "stateMutability": "view",
      "type": "function"
    },
    {
      "inputs": [
        {
          "internalType": "address",
          "name": "to",
          "type": "address"
        },
        {
          "internalType": "uint256",
          "name": "amount",
          "type": "uint256"
        }
      ],
      "name": "transfer",
      "outputs": [
        {
          "internalType": "bool",
          "name": "",
          "type": "bool"
        }
      ],
      "stateMutability": "nonpayable",
      "type": "function"
    },
    {
      "inputs": [
        {
          "internalType": "address",
          "name": "from",
          "type": "address"
        },
        {
          "internalType": "address",
          "name": "to",
          "type": "address"
        },
        {
          "internalType": "uint256",
          "name": "amount",
          "type": "uint256"
        }
      ],
      "name": "transferFrom",
      "outputs": [
        {
          "internalType": "bool",
          "name": "",
          "type": "bool"
        }
      ],
      "stateMutability": "nonpayable",
      "type": "function"
    },
    {
      "inputs": [
        {
          "internalType": "address",
          "name": "newOwner",
          "type": "address"
        }
      ],
      "name": "transferOwnership",
      "outputs": [],
      "stateMutability": "nonpayable",
      "type": "function"
    },
    {
      "inputs": [
        {
          "internalType": "uint16",
          "name": "",
          "type": "uint16"
        }
      ],
      "name": "trustedRemoteLookup",
      "outputs": [
        {
          "internalType": "bytes",
          "name": "",
          "type": "bytes"
        }
      ],
      "stateMutability": "view",
      "type": "function"
    },
    {
      "inputs": [],
      "name": "useCustomAdapterParams",
      "outputs": [
        {
          "internalType": "bool",
          "name": "",
          "type": "bool"
        }
      ],
      "stateMutability": "view",
      "type": "function"
    }
  ],
  "bytecode": "0x60a06040523480156200001157600080fd5b5060405162003a2238038062003a2283398101604081905262000034916200025d565b828282828282808062000047336200009a565b6001600160a01b0316608052505081516200006a90600a906020850190620000ea565b5080516200008090600b906020840190620000ea565b5050600c805460ff19169055506200032795505050505050565b600080546001600160a01b038381166001600160a01b0319831681178455604051919092169283917f8be0079c531659141344cd1fd0a4f28419497f9722a3daafe3b4186f6b6457e09190a35050565b828054620000f890620002ea565b90600052602060002090601f0160209004810192826200011c576000855562000167565b82601f106200013757805160ff191683800117855562000167565b8280016001018555821562000167579182015b82811115620001675782518255916020019190600101906200014a565b506200017592915062000179565b5090565b5b808211156200017557600081556001016200017a565b634e487b7160e01b600052604160045260246000fd5b600082601f830112620001b857600080fd5b81516001600160401b0380821115620001d557620001d562000190565b604051601f8301601f19908116603f0116810190828211818310171562000200576200020062000190565b816040528381526020925086838588010111156200021d57600080fd5b600091505b8382101562000241578582018301518183018401529082019062000222565b83821115620002535760008385830101525b9695505050505050565b6000806000606084860312156200027357600080fd5b83516001600160401b03808211156200028b57600080fd5b6200029987838801620001a6565b94506020860151915080821115620002b057600080fd5b50620002bf86828701620001a6565b604086015190935090506001600160a01b0381168114620002df57600080fd5b809150509250925092565b600181811c90821680620002ff57607f821691505b602082108114156200032157634e487b7160e01b600052602260045260246000fd5b50919050565b6080516136a76200037b6000396000818161072a015281816108c501528181610be401528181610ca401528181610d4201528181610edf01528181611430015281816118f8015261241101526136a76000f3fe6080604052600436106102875760003560e01c80637533d7881161015a578063c4461834116100c1578063eb8d72b71161007a578063eb8d72b714610815578063ed629c5c14610835578063f18789221461084f578063f2fde38b1461086f578063f5ecbdbc1461088f578063fc0c546a146108af57600080fd5b8063c44618341461076c578063cbed8b9c14610782578063d1deba1f146107a2578063dd62ed3e146107b5578063df2a5b3b146107d5578063eab45d9c146107f557600080fd5b80639f38369a116101135780639f38369a14610698578063a457c2d7146106b8578063a6c3d165146106d8578063a9059cbb146106f8578063b353aaa714610718578063baf3292d1461074c57600080fd5b80637533d788146105c45780638cfd8f5c146105e45780638da5cb5b1461061c5780639358928b1461064e578063950c8a741461066357806395d89b411461068357600080fd5b806339509351116101fe57806351905636116101b757806351905636146104df5780635b8c41e6146104f25780635c975abb1461054157806366ad5c8a1461055957806370a0823114610579578063715018a6146105af57600080fd5b806339509351146104155780633d8b38f6146104355780633f1f4fa41461045557806342d65a8d1461048257806344770515146104a25780634c42899a146104b757600080fd5b80630df37483116102505780630df374831461034557806310ddb1371461036557806318160ddd1461038557806323b872dd146103a45780632a205e3d146103c4578063313ce567146103f957600080fd5b80621d35671461028c57806301ffc9a7146102ae57806306fdde03146102e357806307e0db1714610305578063095ea7b314610325575b600080fd5b34801561029857600080fd5b506102ac6102a7366004612bc8565b6108c2565b005b3480156102ba57600080fd5b506102ce6102c9366004612c5d565b610af3565b60405190151581526020015b60405180910390f35b3480156102ef57600080fd5b506102f8610b31565b6040516102da9190612cdf565b34801561031157600080fd5b506102ac610320366004612cf2565b610bc3565b34801561033157600080fd5b506102ce610340366004612d24565b610c4c565b34801561035157600080fd5b506102ac610360366004612d50565b610c64565b34801561037157600080fd5b506102ac610380366004612cf2565b610c83565b34801561039157600080fd5b506009545b6040519081526020016102da565b3480156103b057600080fd5b506102ce6103bf366004612d6e565b610cdb565b3480156103d057600080fd5b506103e46103df366004612dbf565b610cff565b604080519283526020830191909152016102da565b34801561040557600080fd5b50604051601281526020016102da565b34801561042157600080fd5b506102ce610430366004612d24565b610dd2565b34801561044157600080fd5b506102ce610450366004612e5e565b610df4565b34801561046157600080fd5b50610396610470366004612cf2565b60036020526000908152604090205481565b34801561048e57600080fd5b506102ac61049d366004612e5e565b610ec0565b3480156104ae57600080fd5b50610396600081565b3480156104c357600080fd5b506104cc600081565b60405161ffff90911681526020016102da565b6102ac6104ed366004612eb2565b610f46565b3480156104fe57600080fd5b5061039661050d366004612fe8565b6005602090815260009384526040808520845180860184018051928152908401958401959095209452929052825290205481565b34801561054d57600080fd5b50600c5460ff166102ce565b34801561056557600080fd5b506102ac610574366004612bc8565b610fcb565b34801561058557600080fd5b5061039661059436600461308a565b6001600160a01b031660009081526007602052604090205490565b3480156105bb57600080fd5b506102ac6110a7565b3480156105d057600080fd5b506102f86105df366004612cf2565b6110bb565b3480156105f057600080fd5b506103966105ff3660046130a7565b600260209081526000928352604080842090915290825290205481565b34801561062857600080fd5b506000546001600160a01b03165b6040516001600160a01b0390911681526020016102da565b34801561065a57600080fd5b50610396611155565b34801561066f57600080fd5b50600454610636906001600160a01b031681565b34801561068f57600080fd5b506102f8611165565b3480156106a457600080fd5b506102f86106b3366004612cf2565b611174565b3480156106c457600080fd5b506102ce6106d3366004612d24565b61128b565b3480156106e457600080fd5b506102ac6106f3366004612e5e565b611306565b34801561070457600080fd5b506102ce610713366004612d24565b6113a6565b34801561072457600080fd5b506106367f000000000000000000000000000000000000000000000000000000000000000081565b34801561075857600080fd5b506102ac61076736600461308a565b6113b4565b34801561077857600080fd5b5061039661271081565b34801561078e57600080fd5b506102ac61079d3660046130e0565b611411565b6102ac6107b0366004612bc8565b61149b565b3480156107c157600080fd5b506103966107d0366004613152565b6116b1565b3480156107e157600080fd5b506102ac6107f0366004613180565b6116dc565b34801561080157600080fd5b506102ac6108103660046131b0565b61178e565b34801561082157600080fd5b506102ac610830366004612e5e565b6117d7565b34801561084157600080fd5b506006546102ce9060ff1681565b34801561085b57600080fd5b506102ac61086a3660046131b0565b611831565b34801561087b57600080fd5b506102ac61088a36600461308a565b611851565b34801561089b57600080fd5b506102f86108aa3660046131cb565b6118c7565b3480156108bb57600080fd5b5030610636565b337f00000000000000000000000000000000000000000000000000000000000000006001600160a01b03161461093f5760405162461bcd60e51b815260206004820152601e60248201527f4c7a4170703a20696e76616c696420656e64706f696e742063616c6c6572000060448201526064015b60405180910390fd5b61ffff86166000908152600160205260408120805461095d9061321c565b80601f01602080910402602001604051908101604052809291908181526020018280546109899061321c565b80156109d65780601f106109ab576101008083540402835291602001916109d6565b820191906000526020600020905b8154815290600101906020018083116109b957829003601f168201915b505050505090508051868690501480156109f1575060008151115b8015610a19575080516020820120604051610a0f9088908890613257565b6040518091039020145b610a745760405162461bcd60e51b815260206004820152602660248201527f4c7a4170703a20696e76616c696420736f757263652073656e64696e6720636f6044820152651b9d1c9858dd60d21b6064820152608401610936565b610aea8787878080601f01602080910402602001604051908101604052809392919081815260200183838082843760009201919091525050604080516020601f8a018190048102820181019092528881528a93509150889088908190840183828082843760009201919091525061197892505050565b50505050505050565b60006001600160e01b031982161580610b1c57506001600160e01b031982166336372b0760e01b145b80610b2b5750610b2b826119f1565b92915050565b6060600a8054610b409061321c565b80601f0160208091040260200160405190810160405280929190818152602001828054610b6c9061321c565b8015610bb95780601f10610b8e57610100808354040283529160200191610bb9565b820191906000526020600020905b815481529060010190602001808311610b9c57829003601f168201915b5050505050905090565b610bcb611a26565b6040516307e0db1760e01b815261ffff821660048201527f00000000000000000000000000000000000000000000000000000000000000006001600160a01b0316906307e0db17906024015b600060405180830381600087803b158015610c3157600080fd5b505af1158015610c45573d6000803e3d6000fd5b5050505050565b600033610c5a818585611a80565b5060019392505050565b610c6c611a26565b61ffff909116600090815260036020526040902055565b610c8b611a26565b6040516310ddb13760e01b815261ffff821660048201527f00000000000000000000000000000000000000000000000000000000000000006001600160a01b0316906310ddb13790602401610c17565b600033610ce9858285611ba4565b610cf4858585611c1e565b506001949350505050565b600080600080898989604051602001610d1b9493929190613290565b60408051601f198184030181529082905263040a7bb160e41b825291506001600160a01b037f000000000000000000000000000000000000000000000000000000000000000016906340a7bb1090610d81908d90309086908c908c908c906004016132bf565b6040805180830381865afa158015610d9d573d6000803e3d6000fd5b505050506040513d601f19601f82011682018060405250810190610dc19190613315565b925092505097509795505050505050565b600033610c5a818585610de583836116b1565b610def919061334f565b611a80565b61ffff831660009081526001602052604081208054829190610e159061321c565b80601f0160208091040260200160405190810160405280929190818152602001828054610e419061321c565b8015610e8e5780601f10610e6357610100808354040283529160200191610e8e565b820191906000526020600020905b815481529060010190602001808311610e7157829003601f168201915b505050505090508383604051610ea5929190613257565b60405180910390208180519060200120149150509392505050565b610ec8611a26565b6040516342d65a8d60e01b81526001600160a01b037f000000000000000000000000000000000000000000000000000000000000000016906342d65a8d90610f1890869086908690600401613367565b600060405180830381600087803b158015610f3257600080fd5b505af1158015610aea573d6000803e3d6000fd5b610fc0898989898080601f01602080910402602001604051908101604052809392919081815260200183838082843760009201919091525050604080516020601f8a018190048102820181019092528881528c93508b92508a918a908a9081908401838280828437600092019190915250611dec92505050565b505050505050505050565b3330146110295760405162461bcd60e51b815260206004820152602660248201527f4e6f6e626c6f636b696e674c7a4170703a2063616c6c6572206d7573742062656044820152650204c7a4170760d41b6064820152608401610936565b61109f8686868080601f01602080910402602001604051908101604052809392919081815260200183838082843760009201919091525050604080516020601f890181900481028201810190925287815289935091508790879081908401838280828437600092019190915250611e9392505050565b505050505050565b6110af611a26565b6110b96000611efa565b565b600160205260009081526040902080546110d49061321c565b80601f01602080910402602001604051908101604052809291908181526020018280546111009061321c565b801561114d5780601f106111225761010080835404028352916020019161114d565b820191906000526020600020905b81548152906001019060200180831161113057829003601f168201915b505050505081565b600061116060095490565b905090565b6060600b8054610b409061321c565b61ffff81166000908152600160205260408120805460609291906111979061321c565b80601f01602080910402602001604051908101604052809291908181526020018280546111c39061321c565b80156112105780601f106111e557610100808354040283529160200191611210565b820191906000526020600020905b8154815290600101906020018083116111f357829003601f168201915b505050505090508051600014156112695760405162461bcd60e51b815260206004820152601d60248201527f4c7a4170703a206e6f20747275737465642070617468207265636f72640000006044820152606401610936565b61128460006014835161127c9190613385565b839190611f4a565b9392505050565b6000338161129982866116b1565b9050838110156112f95760405162461bcd60e51b815260206004820152602560248201527f45524332303a2064656372656173656420616c6c6f77616e63652062656c6f77604482015264207a65726f60d81b6064820152608401610936565b610cf48286868403611a80565b61130e611a26565b8181306040516020016113239392919061339c565b60408051601f1981840301815291815261ffff8516600090815260016020908152919020825161135893919290910190612a47565b506113668361ffff16612057565b7f8c0400cfe2d1199b1a725c78960bcc2a344d869b80590d0f2bd005db15a572ce83838360405161139993929190613367565b60405180910390a1505050565b600033610c5a818585611c1e565b6113bc611a26565b600480546001600160a01b0319166001600160a01b0383169081179091556040519081527f5db758e995a17ec1ad84bdef7e8c3293a0bd6179bcce400dff5d4c3d87db726b906020015b60405180910390a150565b611419611a26565b6040516332fb62e760e21b81526001600160a01b037f0000000000000000000000000000000000000000000000000000000000000000169063cbed8b9c9061146d90889088908890889088906004016133c2565b600060405180830381600087803b15801561148757600080fd5b505af1158015610fc0573d6000803e3d6000fd5b61ffff861660009081526005602052604080822090516114be9088908890613257565b90815260408051602092819003830190206001600160401b0387166000908152925290205490508061153e5760405162461bcd60e51b815260206004820152602360248201527f4e6f6e626c6f636b696e674c7a4170703a206e6f2073746f726564206d65737360448201526261676560e81b6064820152608401610936565b80838360405161154f929190613257565b6040518091039020146115ae5760405162461bcd60e51b815260206004820152602160248201527f4e6f6e626c6f636b696e674c7a4170703a20696e76616c6964207061796c6f616044820152601960fa1b6064820152608401610936565b61ffff871660009081526005602052604080822090516115d19089908990613257565b90815260408051602092819003830181206001600160401b038916600090815290845282902093909355601f88018290048202830182019052868252611669918991899089908190840183828082843760009201919091525050604080516020601f8a018190048102820181019092528881528a935091508890889081908401838280828437600092019190915250611e9392505050565b7fc264d91f3adc5588250e1551f547752ca0cfa8f6b530d243b9f9f4cab10ea8e587878787856040516116a09594939291906133fb565b60405180910390a150505050505050565b6001600160a01b03918216600090815260086020908152604080832093909416825291909152205490565b6116e4611a26565b6000811161172c5760405162461bcd60e51b81526020600482015260156024820152744c7a4170703a20696e76616c6964206d696e47617360581b6044820152606401610936565b61ffff83811660008181526002602090815260408083209487168084529482529182902085905581519283528201929092529081018290527f9d5c7c0b934da8fefa9c7760c98383778a12dfbfc0c3b3106518f43fb9508ac090606001611399565b611796611a26565b6006805460ff19168215159081179091556040519081527f1584ad594a70cbe1e6515592e1272a987d922b097ead875069cebe8b40c004a490602001611406565b6117df611a26565b61ffff831660009081526001602052604090206117fd908383612acb565b507ffa41487ad5d6728f0b19276fa1eddc16558578f5109fc39d2dc33c3230470dab83838360405161139993929190613367565b611839611a26565b806118495761184661209c565b50565b6118466120ee565b611859611a26565b6001600160a01b0381166118be5760405162461bcd60e51b815260206004820152602660248201527f4f776e61626c653a206e6577206f776e657220697320746865207a65726f206160448201526564647265737360d01b6064820152608401610936565b61184681611efa565b604051633d7b2f6f60e21b815261ffff808616600483015284166024820152306044820152606481018290526060907f00000000000000000000000000000000000000000000000000000000000000006001600160a01b03169063f5ecbdbc90608401600060405180830381865afa158015611947573d6000803e3d6000fd5b505050506040513d6000823e601f3d908101601f1916820160405261196f9190810190613483565b95945050505050565b6000806119db5a60966366ad5c8a60e01b898989896040516024016119a094939291906134b7565b60408051601f198184030181529190526020810180516001600160e01b03166001600160e01b0319909316929092179091523092919061212b565b915091508161109f5761109f86868686856121b5565b60006001600160e01b03198216630a72677560e11b1480610b2b57506301ffc9a760e01b6001600160e01b0319831614610b2b565b6000546001600160a01b031633146110b95760405162461bcd60e51b815260206004820181905260248201527f4f776e61626c653a2063616c6c6572206973206e6f7420746865206f776e65726044820152606401610936565b6001600160a01b038316611ae25760405162461bcd60e51b8152602060048201526024808201527f45524332303a20617070726f76652066726f6d20746865207a65726f206164646044820152637265737360e01b6064820152608401610936565b6001600160a01b038216611b435760405162461bcd60e51b815260206004820152602260248201527f45524332303a20617070726f766520746f20746865207a65726f206164647265604482015261737360f01b6064820152608401610936565b6001600160a01b0383811660008181526008602090815260408083209487168084529482529182902085905590518481527f8c5be1e5ebec7d5bd14f71427d1e84f3dd0314c0f7b2291e5b200ac8c7c3b925910160405180910390a3505050565b6000611bb084846116b1565b90506000198114611c185781811015611c0b5760405162461bcd60e51b815260206004820152601d60248201527f45524332303a20696e73756666696369656e7420616c6c6f77616e63650000006044820152606401610936565b611c188484848403611a80565b50505050565b6001600160a01b038316611c825760405162461bcd60e51b815260206004820152602560248201527f45524332303a207472616e736665722066726f6d20746865207a65726f206164604482015264647265737360d81b6064820152608401610936565b6001600160a01b038216611ce45760405162461bcd60e51b815260206004820152602360248201527f45524332303a207472616e7366657220746f20746865207a65726f206164647260448201526265737360e81b6064820152608401610936565b6001600160a01b03831660009081526007602052604090205481811015611d5c5760405162461bcd60e51b815260206004820152602660248201527f45524332303a207472616e7366657220616d6f756e7420657863656564732062604482015265616c616e636560d01b6064820152608401610936565b6001600160a01b03808516600090815260076020526040808220858503905591851681529081208054849290611d9390849061334f565b92505081905550826001600160a01b0316846001600160a01b03167fddf252ad1be2c89b69c2b068fc378daa952ba7f163c4a11628f55a4df523b3ef84604051611ddf91815260200190565b60405180910390a3611c18565b611dfa866000836000612257565b6000611e08888888886122d1565b90506000808783604051602001611e21939291906134f5565b6040516020818303038152906040529050611e408882878787346122e7565b886001600160a01b03168861ffff167f39a4c66499bcf4b56d79f0dde8ed7a9d4925a0df55825206b2b8531e202be0d08985604051611e80929190613522565b60405180910390a3505050505050505050565b602081015161ffff8116611eb257611ead8585858561248d565b610c45565b60405162461bcd60e51b815260206004820152601c60248201527f4f4654436f72653a20756e6b6e6f776e207061636b65742074797065000000006044820152606401610936565b600080546001600160a01b038381166001600160a01b0319831681178455604051919092169283917f8be0079c531659141344cd1fd0a4f28419497f9722a3daafe3b4186f6b6457e09190a35050565b606081611f5881601f61334f565b1015611f975760405162461bcd60e51b815260206004820152600e60248201526d736c6963655f6f766572666c6f7760901b6044820152606401610936565b611fa1828461334f565b84511015611fe55760405162461bcd60e51b8152602060048201526011602482015270736c6963655f6f75744f66426f756e647360781b6044820152606401610936565b606082158015612004576040519150600082526020820160405261204e565b6040519150601f8416801560200281840101858101878315602002848b0101015b8183101561203d578051835260209283019201612025565b5050858452601f01601f1916604052505b50949350505050565b6118468160405160240161206d91815260200190565b60408051601f198184030181529190526020810180516001600160e01b031663f82c50f160e01b179052612517565b6120a4612538565b600c805460ff191690557f5db9ee0a495bf2e6ff9c91a7834c1ba4fdd244a5e8aa4e537bd38aeae4b073aa335b6040516001600160a01b03909116815260200160405180910390a1565b6120f6612581565b600c805460ff191660011790557f62e78cea01bee320cd4e420270b5ea74000d11b0c9f74754ebdbfc544b05a2586120d13390565b6000606060008060008661ffff166001600160401b0381111561215057612150612f7b565b6040519080825280601f01601f19166020018201604052801561217a576020820181803683370190505b50905060008087516020890160008d8df191503d92508683111561219c578692505b828152826000602083013e909890975095505050505050565b8180519060200120600560008761ffff1661ffff168152602001908152602001600020856040516121e69190613544565b9081526040805191829003602090810183206001600160401b0388166000908152915220919091557fe183f33de2837795525b4792ca4cd60535bd77c53b7e7030060bfcf5734d6b0c906122439087908790879087908790613560565b60405180910390a15050505050565b505050565b60065460ff16156122735761226e848484846125c7565b611c18565b815115611c185760405162461bcd60e51b815260206004820152602660248201527f4f4654436f72653a205f61646170746572506172616d73206d7573742062652060448201526532b6b83a3c9760d11b6064820152608401610936565b60006122db612581565b61196f858585856126a6565b61ffff8616600090815260016020526040812080546123059061321c565b80601f01602080910402602001604051908101604052809291908181526020018280546123319061321c565b801561237e5780601f106123535761010080835404028352916020019161237e565b820191906000526020600020905b81548152906001019060200180831161236157829003601f168201915b505050505090508051600014156123f05760405162461bcd60e51b815260206004820152603060248201527f4c7a4170703a2064657374696e6174696f6e20636861696e206973206e6f742060448201526f61207472757374656420736f7572636560801b6064820152608401610936565b6123fb8787516126d8565b60405162c5803160e81b81526001600160a01b037f0000000000000000000000000000000000000000000000000000000000000000169063c5803100908490612452908b9086908c908c908c908c906004016135be565b6000604051808303818588803b15801561246b57600080fd5b505af115801561247f573d6000803e3d6000fd5b505050505050505050505050565b600080828060200190518101906124a49190613618565b9093509150600090506124b78382612746565b90506124c48782846127ab565b9150806001600160a01b03168761ffff167fbf551ec93859b170f9b2141bd9298bf3f64322c6f7beb2543a0cb669834118bf8460405161250691815260200190565b60405180910390a350505050505050565b80516a636f6e736f6c652e6c6f67602083016000808483855afa5050505050565b600c5460ff166110b95760405162461bcd60e51b815260206004820152601460248201527314185d5cd8589b194e881b9bdd081c185d5cd95960621b6044820152606401610936565b600c5460ff16156110b95760405162461bcd60e51b815260206004820152601060248201526f14185d5cd8589b194e881c185d5cd95960821b6044820152606401610936565b60006125d2836127be565b61ffff80871660009081526002602090815260408083209389168352929052908120549192509061260490849061334f565b9050600081116126565760405162461bcd60e51b815260206004820152601a60248201527f4c7a4170703a206d696e4761734c696d6974206e6f74207365740000000000006044820152606401610936565b8082101561109f5760405162461bcd60e51b815260206004820152601b60248201527f4c7a4170703a20676173206c696d697420697320746f6f206c6f7700000000006044820152606401610936565b6000336001600160a01b03861681146126c4576126c4868285611ba4565b6126ce868461281a565b5090949350505050565b61ffff8216600090815260036020526040902054806126f657506127105b808211156122525760405162461bcd60e51b815260206004820181905260248201527f4c7a4170703a207061796c6f61642073697a6520697320746f6f206c617267656044820152606401610936565b600061275382601461334f565b8351101561279b5760405162461bcd60e51b8152602060048201526015602482015274746f416464726573735f6f75744f66426f756e647360581b6044820152606401610936565b500160200151600160601b900490565b60006127b78383612968565b5092915050565b60006022825110156128125760405162461bcd60e51b815260206004820152601c60248201527f4c7a4170703a20696e76616c69642061646170746572506172616d73000000006044820152606401610936565b506022015190565b6001600160a01b03821661287a5760405162461bcd60e51b815260206004820152602160248201527f45524332303a206275726e2066726f6d20746865207a65726f206164647265736044820152607360f81b6064820152608401610936565b6001600160a01b038216600090815260076020526040902054818110156128ee5760405162461bcd60e51b815260206004820152602260248201527f45524332303a206275726e20616d6f756e7420657863656564732062616c616e604482015261636560f01b6064820152608401610936565b6001600160a01b038316600090815260076020526040812083830390556009805484929061291d908490613385565b90915550506040518281526000906001600160a01b038516907fddf252ad1be2c89b69c2b068fc378daa952ba7f163c4a11628f55a4df523b3ef9060200160405180910390a3505050565b6001600160a01b0382166129be5760405162461bcd60e51b815260206004820152601f60248201527f45524332303a206d696e7420746f20746865207a65726f2061646472657373006044820152606401610936565b80600960008282546129d0919061334f565b90915550506001600160a01b038216600090815260076020526040812080548392906129fd90849061334f565b90915550506040518181526001600160a01b038316906000907fddf252ad1be2c89b69c2b068fc378daa952ba7f163c4a11628f55a4df523b3ef9060200160405180910390a35050565b828054612a539061321c565b90600052602060002090601f016020900481019282612a755760008555612abb565b82601f10612a8e57805160ff1916838001178555612abb565b82800160010185558215612abb579182015b82811115612abb578251825591602001919060010190612aa0565b50612ac7929150612b3f565b5090565b828054612ad79061321c565b90600052602060002090601f016020900481019282612af95760008555612abb565b82601f10612b125782800160ff19823516178555612abb565b82800160010185558215612abb579182015b82811115612abb578235825591602001919060010190612b24565b5b80821115612ac75760008155600101612b40565b61ffff8116811461184657600080fd5b60008083601f840112612b7657600080fd5b5081356001600160401b03811115612b8d57600080fd5b602083019150836020828501011115612ba557600080fd5b9250929050565b80356001600160401b0381168114612bc357600080fd5b919050565b60008060008060008060808789031215612be157600080fd5b8635612bec81612b54565b955060208701356001600160401b0380821115612c0857600080fd5b612c148a838b01612b64565b9097509550859150612c2860408a01612bac565b94506060890135915080821115612c3e57600080fd5b50612c4b89828a01612b64565b979a9699509497509295939492505050565b600060208284031215612c6f57600080fd5b81356001600160e01b03198116811461128457600080fd5b60005b83811015612ca2578181015183820152602001612c8a565b83811115611c185750506000910152565b60008151808452612ccb816020860160208601612c87565b601f01601f19169290920160200192915050565b6020815260006112846020830184612cb3565b600060208284031215612d0457600080fd5b813561128481612b54565b6001600160a01b038116811461184657600080fd5b60008060408385031215612d3757600080fd5b8235612d4281612d0f565b946020939093013593505050565b60008060408385031215612d6357600080fd5b8235612d4281612b54565b600080600060608486031215612d8357600080fd5b8335612d8e81612d0f565b92506020840135612d9e81612d0f565b929592945050506040919091013590565b80358015158114612bc357600080fd5b600080600080600080600060a0888a031215612dda57600080fd5b8735612de581612b54565b965060208801356001600160401b0380821115612e0157600080fd5b612e0d8b838c01612b64565b909850965060408a01359550869150612e2860608b01612daf565b945060808a0135915080821115612e3e57600080fd5b50612e4b8a828b01612b64565b989b979a50959850939692959293505050565b600080600060408486031215612e7357600080fd5b8335612e7e81612b54565b925060208401356001600160401b03811115612e9957600080fd5b612ea586828701612b64565b9497909650939450505050565b600080600080600080600080600060e08a8c031215612ed057600080fd5b8935612edb81612d0f565b985060208a0135612eeb81612b54565b975060408a01356001600160401b0380821115612f0757600080fd5b612f138d838e01612b64565b909950975060608c0135965060808c01359150612f2f82612d0f565b90945060a08b013590612f4182612d0f565b90935060c08b01359080821115612f5757600080fd5b50612f648c828d01612b64565b915080935050809150509295985092959850929598565b634e487b7160e01b600052604160045260246000fd5b604051601f8201601f191681016001600160401b0381118282101715612fb957612fb9612f7b565b604052919050565b60006001600160401b03821115612fda57612fda612f7b565b50601f01601f191660200190565b600080600060608486031215612ffd57600080fd5b833561300881612b54565b925060208401356001600160401b0381111561302357600080fd5b8401601f8101861361303457600080fd5b803561304761304282612fc1565b612f91565b81815287602083850101111561305c57600080fd5b8160208401602083013760006020838301015280945050505061308160408501612bac565b90509250925092565b60006020828403121561309c57600080fd5b813561128481612d0f565b600080604083850312156130ba57600080fd5b82356130c581612b54565b915060208301356130d581612b54565b809150509250929050565b6000806000806000608086880312156130f857600080fd5b853561310381612b54565b9450602086013561311381612b54565b93506040860135925060608601356001600160401b0381111561313557600080fd5b61314188828901612b64565b969995985093965092949392505050565b6000806040838503121561316557600080fd5b823561317081612d0f565b915060208301356130d581612d0f565b60008060006060848603121561319557600080fd5b83356131a081612b54565b92506020840135612d9e81612b54565b6000602082840312156131c257600080fd5b61128482612daf565b600080600080608085870312156131e157600080fd5b84356131ec81612b54565b935060208501356131fc81612b54565b9250604085013561320c81612d0f565b9396929550929360600135925050565b600181811c9082168061323057607f821691505b6020821081141561325157634e487b7160e01b600052602260045260246000fd5b50919050565b8183823760009101908152919050565b81835281816020850137506000828201602090810191909152601f909101601f19169091010190565b61ffff851681526060602082015260006132ae606083018587613267565b905082604083015295945050505050565b61ffff871681526001600160a01b038616602082015260a0604082018190526000906132ed90830187612cb3565b85151560608401528281036080840152613308818587613267565b9998505050505050505050565b6000806040838503121561332857600080fd5b505080516020909101519092909150565b634e487b7160e01b600052601160045260246000fd5b6000821982111561336257613362613339565b500190565b61ffff8416815260406020820152600061196f604083018486613267565b60008282101561339757613397613339565b500390565b8284823760609190911b6bffffffffffffffffffffffff19169101908152601401919050565b600061ffff8088168352808716602084015250846040830152608060608301526133f0608083018486613267565b979650505050505050565b61ffff86168152608060208201526000613419608083018688613267565b6001600160401b0394909416604083015250606001529392505050565b600082601f83011261344757600080fd5b815161345561304282612fc1565b81815284602083860101111561346a57600080fd5b61347b826020830160208701612c87565b949350505050565b60006020828403121561349557600080fd5b81516001600160401b038111156134ab57600080fd5b61347b84828501613436565b61ffff851681526080602082015260006134d46080830186612cb3565b6001600160401b038516604084015282810360608401526133f08185612cb3565b61ffff841681526060602082015260006135126060830185612cb3565b9050826040830152949350505050565b6040815260006135356040830185612cb3565b90508260208301529392505050565b60008251613556818460208701612c87565b9190910192915050565b61ffff8616815260a06020820152600061357d60a0830187612cb3565b6001600160401b0386166040840152828103606084015261359e8186612cb3565b905082810360808401526135b28185612cb3565b98975050505050505050565b61ffff8716815260c0602082015260006135db60c0830188612cb3565b82810360408401526135ed8188612cb3565b6001600160a01b0387811660608601528616608085015283810360a085015290506133088185612cb3565b60008060006060848603121561362d57600080fd5b835161363881612b54565b60208501519093506001600160401b0381111561365457600080fd5b61366086828701613436565b92505060408401519050925092509256fea26469706673582212209c018b6f316be59b4b2d593c065bb89be8f85f8ddb0db1a991e3faa9e96fa3a964736f6c634300080c0033",
  "linkReferences": {},
  "deployedLinkReferences": {}
}