{
  "address": "0x9fE46736679d2D9a65F0992F2272dE9f3c7fa6e0",
  "abi": [
    {
      "inputs": [
        {
          "internalType": "address",
          "name": "_endpoint",
          "type": "address"
        }
      ],
      "stateMutability": "nonpayable",
      "type": "constructor"
    },
    {
      "inputs": [],
      "name": "endpoint",
      "outputs": [
        {
          "internalType": "contract ILayerZeroEndpoint",
          "name": "",
          "type": "address"
        }
      ],
      "stateMutability": "view",
      "type": "function"
    },
    {
      "inputs": [
        {
          "internalType": "uint16",
          "name": "_chainId",
          "type": "uint16"
        },
        {
          "internalType": "address",
          "name": "_ua",
          "type": "address"
        },
        {
          "internalType": "bytes",
          "name": "_path",
          "type": "bytes"
        }
      ],
      "name": "increment",
      "outputs": [
        {
          "internalType": "uint64",
          "name": "",
          "type": "uint64"
        }
      ],
      "stateMutability": "nonpayable",
      "type": "function"
    },
    {
      "inputs": [
        {
          "internalType": "uint16",
          "name": "",
          "type": "uint16"
        },
        {
          "internalType": "bytes",
          "name": "",
          "type": "bytes"
        }
      ],
      "name": "outboundNonce",
      "outputs": [
        {
          "internalType": "uint64",
          "name": "",
          "type": "uint64"
        }
      ],
      "stateMutability": "view",
      "type": "function"
    }
  ],
  "transactionHash": "0xad6606e2ed0bf787a80ad1aa33dfc61eab4742521e161c5fdc9e63b141df983f",
  "args": [
    "0x5FbDB2315678afecb367f032d93F642f64180aa3"
  ],
  "numDeployments": 1,
  "solcInputHash": "d284bff40c69b40c79fc3eca88aacdd2",
  "bytecode": "0x60a060405234801561001057600080fd5b5060405161053f38038061053f83398101604081905261002f91610040565b6001600160a01b0316608052610070565b60006020828403121561005257600080fd5b81516001600160a01b038116811461006957600080fd5b9392505050565b6080516104ae61009160003960008181604b015261011d01526104ae6000f3fe608060405234801561001057600080fd5b50600436106100415760003560e01c80635e280f11146100465780636fe7b6731461008a578063c533338f146100b6575b600080fd5b61006d7f000000000000000000000000000000000000000000000000000000000000000081565b6040516001600160a01b0390911681526020015b60405180910390f35b61009d6100983660046102a6565b6100f9565b60405167ffffffffffffffff9091168152602001610081565b61009d6100c436600461034c565b6000602081815292815260409020815180830184018051928152908401929093019190912091525467ffffffffffffffff1681565b604051639c729da160e01b81526001600160a01b03848116600483015260009133917f00000000000000000000000000000000000000000000000000000000000000001690639c729da190602401602060405180830381865afa158015610164573d6000803e3d6000fd5b505050506040513d601f19601f82011682018060405250810190610188919061040e565b6001600160a01b0316146101fd5760405162461bcd60e51b815260206004820152603260248201527f4e6f6e6365436f6e74726163743a206d73672e73656e646572206973206e6f746044820152712076616c69642073656e646c69627261727960701b606482015260840160405180910390fd5b61ffff85166000908152602081905260409081902090516102219085908590610432565b90815260405190819003602001902080546000906102489067ffffffffffffffff16610442565b91906101000a81548167ffffffffffffffff021916908367ffffffffffffffff16021790559050949350505050565b803561ffff8116811461028957600080fd5b919050565b6001600160a01b03811681146102a357600080fd5b50565b600080600080606085870312156102bc57600080fd5b6102c585610277565b935060208501356102d58161028e565b9250604085013567ffffffffffffffff808211156102f257600080fd5b818701915087601f83011261030657600080fd5b81358181111561031557600080fd5b88602082850101111561032757600080fd5b95989497505060200194505050565b634e487b7160e01b600052604160045260246000fd5b6000806040838503121561035f57600080fd5b61036883610277565b9150602083013567ffffffffffffffff8082111561038557600080fd5b818501915085601f83011261039957600080fd5b8135818111156103ab576103ab610336565b604051601f8201601f19908116603f011681019083821181831017156103d3576103d3610336565b816040528281528860208487010111156103ec57600080fd5b8260208601602083013760006020848301015280955050505050509250929050565b60006020828403121561042057600080fd5b815161042b8161028e565b9392505050565b8183823760009101908152919050565b600067ffffffffffffffff8083168181141561046e57634e487b7160e01b600052601160045260246000fd5b600101939250505056fea2646970667358221220b8bb3c3461c587d5a91693cfed9676235e04c8d8d7ef7d0c557201102c60a21964736f6c634300080c0033",
  "devdoc": {
    "kind": "dev",
    "methods": {},
    "version": 1
  },
  "userdoc": {
    "kind": "user",
    "methods": {},
    "version": 1
  },
  "storageLayout": {
    "storage": [
      {
        "astId": 14268,
        "contract": "contracts/mContracts/lzContracts/NonceContract.sol:NonceContract",
        "label": "outboundNonce",
        "offset": 0,
        "slot": "0",
        "type": "t_mapping(t_uint16,t_mapping(t_bytes_memory_ptr,t_uint64))"
      }
    ],
    "types": {
      "t_bytes_memory_ptr": {
        "encoding": "bytes",
        "label": "bytes",
        "numberOfBytes": "32"
      },
      "t_mapping(t_bytes_memory_ptr,t_uint64)": {
        "encoding": "mapping",
        "key": "t_bytes_memory_ptr",
        "label": "mapping(bytes => uint64)",
        "numberOfBytes": "32",
        "value": "t_uint64"
      },
      "t_mapping(t_uint16,t_mapping(t_bytes_memory_ptr,t_uint64))": {
        "encoding": "mapping",
        "key": "t_uint16",
        "label": "mapping(uint16 => mapping(bytes => uint64))",
        "numberOfBytes": "32",
        "value": "t_mapping(t_bytes_memory_ptr,t_uint64)"
      },
      "t_uint16": {
        "encoding": "inplace",
        "label": "uint16",
        "numberOfBytes": "2"
      },
      "t_uint64": {
        "encoding": "inplace",
        "label": "uint64",
        "numberOfBytes": "8"
      }
    }
  }
}