{
  "address": "0x8A791620dd6260079BF849Dc5567aDC3F2FdC318",
  "abi": [
    {
      "inputs": [
        {
          "internalType": "address",
          "name": "_lzEndpoint",
          "type": "address"
        }
      ],
      "stateMutability": "nonpayable",
      "type": "constructor"
    },
    {
      "anonymous": false,
      "inputs": [
        {
          "indexed": false,
          "internalType": "uint16",
          "name": "_srcChainId",
          "type": "uint16"
        },
        {
          "indexed": false,
          "internalType": "bytes",
          "name": "_srcAddress",
          "type": "bytes"
        },
        {
          "indexed": false,
          "internalType": "uint64",
          "name": "_nonce",
          "type": "uint64"
        },
        {
          "indexed": false,
          "internalType": "bytes",
          "name": "_payload",
          "type": "bytes"
        },
        {
          "indexed": false,
          "internalType": "bytes",
          "name": "_reason",
          "type": "bytes"
        }
      ],
      "name": "MessageFailed",
      "type": "event"
    },
    {
      "anonymous": false,
      "inputs": [
        {
          "indexed": true,
          "internalType": "address",
          "name": "previousOwner",
          "type": "address"
        },
        {
          "indexed": true,
          "internalType": "address",
          "name": "newOwner",
          "type": "address"
        }
      ],
      "name": "OwnershipTransferred",
      "type": "event"
    },
    {
      "anonymous": false,
      "inputs": [
        {
          "indexed": false,
          "internalType": "uint16",
          "name": "_srcChainId",
          "type": "uint16"
        },
        {
          "indexed": false,
          "internalType": "bytes",
          "name": "_srcAddress",
          "type": "bytes"
        },
        {
          "indexed": false,
          "internalType": "uint64",
          "name": "_nonce",
          "type": "uint64"
        },
        {
          "indexed": false,
          "internalType": "bytes32",
          "name": "_payloadHash",
          "type": "bytes32"
        }
      ],
      "name": "RetryMessageSuccess",
      "type": "event"
    },
    {
      "anonymous": false,
      "inputs": [
        {
          "indexed": false,
          "internalType": "uint16",
          "name": "_dstChainId",
          "type": "uint16"
        },
        {
          "indexed": false,
          "internalType": "uint16",
          "name": "_type",
          "type": "uint16"
        },
        {
          "indexed": false,
          "internalType": "uint256",
          "name": "_minDstGas",
          "type": "uint256"
        }
      ],
      "name": "SetMinDstGas",
      "type": "event"
    },
    {
      "anonymous": false,
      "inputs": [
        {
          "indexed": false,
          "internalType": "address",
          "name": "precrime",
          "type": "address"
        }
      ],
      "name": "SetPrecrime",
      "type": "event"
    },
    {
      "anonymous": false,
      "inputs": [
        {
          "indexed": false,
          "internalType": "uint16",
          "name": "_remoteChainId",
          "type": "uint16"
        },
        {
          "indexed": false,
          "internalType": "bytes",
          "name": "_path",
          "type": "bytes"
        }
      ],
      "name": "SetTrustedRemote",
      "type": "event"
    },
    {
      "anonymous": false,
      "inputs": [
        {
          "indexed": false,
          "internalType": "uint16",
          "name": "_remoteChainId",
          "type": "uint16"
        },
        {
          "indexed": false,
          "internalType": "bytes",
          "name": "_remoteAddress",
          "type": "bytes"
        }
      ],
      "name": "SetTrustedRemoteAddress",
      "type": "event"
    },
    {
      "inputs": [],
      "name": "DEFAULT_PAYLOAD_SIZE_LIMIT",
      "outputs": [
        {
          "internalType": "uint256",
          "name": "",
          "type": "uint256"
        }
      ],
      "stateMutability": "view",
      "type": "function"
    },
    {
      "inputs": [],
      "name": "PAYLOAD",
      "outputs": [
        {
          "internalType": "bytes",
          "name": "",
          "type": "bytes"
        }
      ],
      "stateMutability": "view",
      "type": "function"
    },
    {
      "inputs": [],
      "name": "counter",
      "outputs": [
        {
          "internalType": "uint256",
          "name": "",
          "type": "uint256"
        }
      ],
      "stateMutability": "view",
      "type": "function"
    },
    {
      "inputs": [
        {
          "internalType": "uint16",
          "name": "_dstChainId",
          "type": "uint16"
        },
        {
          "internalType": "bool",
          "name": "_useZro",
          "type": "bool"
        },
        {
          "internalType": "bytes",
          "name": "_adapterParams",
          "type": "bytes"
        }
      ],
      "name": "estimateFee",
      "outputs": [
        {
          "internalType": "uint256",
          "name": "nativeFee",
          "type": "uint256"
        },
        {
          "internalType": "uint256",
          "name": "zroFee",
          "type": "uint256"
        }
      ],
      "stateMutability": "view",
      "type": "function"
    },
    {
      "inputs": [
        {
          "internalType": "uint16",
          "name": "",
          "type": "uint16"
        },
        {
          "internalType": "bytes",
          "name": "",
          "type": "bytes"
        },
        {
          "internalType": "uint64",
          "name": "",
          "type": "uint64"
        }
      ],
      "name": "failedMessages",
      "outputs": [
        {
          "internalType": "bytes32",
          "name": "",
          "type": "bytes32"
        }
      ],
      "stateMutability": "view",
      "type": "function"
    },
    {
      "inputs": [
        {
          "internalType": "uint16",
          "name": "_srcChainId",
          "type": "uint16"
        },
        {
          "internalType": "bytes",
          "name": "_srcAddress",
          "type": "bytes"
        }
      ],
      "name": "forceResumeReceive",
      "outputs": [],
      "stateMutability": "nonpayable",
      "type": "function"
    },
    {
      "inputs": [
        {
          "internalType": "uint16",
          "name": "_version",
          "type": "uint16"
        },
        {
          "internalType": "uint16",
          "name": "_chainId",
          "type": "uint16"
        },
        {
          "internalType": "address",
          "name": "",
          "type": "address"
        },
        {
          "internalType": "uint256",
          "name": "_configType",
          "type": "uint256"
        }
      ],
      "name": "getConfig",
      "outputs": [
        {
          "internalType": "bytes",
          "name": "",
          "type": "bytes"
        }
      ],
      "stateMutability": "view",
      "type": "function"
    },
    {
      "inputs": [
        {
          "internalType": "uint16",
          "name": "remoteChainId",
          "type": "uint16"
        }
      ],
      "name": "getOracle",
      "outputs": [
        {
          "internalType": "address",
          "name": "_oracle",
          "type": "address"
        }
      ],
      "stateMutability": "view",
      "type": "function"
    },
    {
      "inputs": [
        {
          "internalType": "uint16",
          "name": "_remoteChainId",
          "type": "uint16"
        }
      ],
      "name": "getTrustedRemoteAddress",
      "outputs": [
        {
          "internalType": "bytes",
          "name": "",
          "type": "bytes"
        }
      ],
      "stateMutability": "view",
      "type": "function"
    },
    {
      "inputs": [
        {
          "internalType": "uint16",
          "name": "_dstChainId",
          "type": "uint16"
        }
      ],
      "name": "incrementCounter",
      "outputs": [],
      "stateMutability": "payable",
      "type": "function"
    },
    {
      "inputs": [
        {
          "internalType": "uint16",
          "name": "_srcChainId",
          "type": "uint16"
        },
        {
          "internalType": "bytes",
          "name": "_srcAddress",
          "type": "bytes"
        }
      ],
      "name": "isTrustedRemote",
      "outputs": [
        {
          "internalType": "bool",
          "name": "",
          "type": "bool"
        }
      ],
      "stateMutability": "view",
      "type": "function"
    },
    {
      "inputs": [],
      "name": "lzEndpoint",
      "outputs": [
        {
          "internalType": "contract ILayerZeroEndpoint",
          "name": "",
          "type": "address"
        }
      ],
      "stateMutability": "view",
      "type": "function"
    },
    {
      "inputs": [
        {
          "internalType": "uint16",
          "name": "_srcChainId",
          "type": "uint16"
        },
        {
          "internalType": "bytes",
          "name": "_srcAddress",
          "type": "bytes"
        },
        {
          "internalType": "uint64",
          "name": "_nonce",
          "type": "uint64"
        },
        {
          "internalType": "bytes",
          "name": "_payload",
          "type": "bytes"
        }
      ],
      "name": "lzReceive",
      "outputs": [],
      "stateMutability": "nonpayable",
      "type": "function"
    },
    {
      "inputs": [
        {
          "internalType": "uint16",
          "name": "",
          "type": "uint16"
        },
        {
          "internalType": "uint16",
          "name": "",
          "type": "uint16"
        }
      ],
      "name": "minDstGasLookup",
      "outputs": [
        {
          "internalType": "uint256",
          "name": "",
          "type": "uint256"
        }
      ],
      "stateMutability": "view",
      "type": "function"
    },
    {
      "inputs": [
        {
          "internalType": "uint16",
          "name": "_srcChainId",
          "type": "uint16"
        },
        {
          "internalType": "bytes",
          "name": "_srcAddress",
          "type": "bytes"
        },
        {
          "internalType": "uint64",
          "name": "_nonce",
          "type": "uint64"
        },
        {
          "internalType": "bytes",
          "name": "_payload",
          "type": "bytes"
        }
      ],
      "name": "nonblockingLzReceive",
      "outputs": [],
      "stateMutability": "nonpayable",
      "type": "function"
    },
    {
      "inputs": [],
      "name": "owner",
      "outputs": [
        {
          "internalType": "address",
          "name": "",
          "type": "address"
        }
      ],
      "stateMutability": "view",
      "type": "function"
    },
    {
      "inputs": [
        {
          "internalType": "uint16",
          "name": "",
          "type": "uint16"
        }
      ],
      "name": "payloadSizeLimitLookup",
      "outputs": [
        {
          "internalType": "uint256",
          "name": "",
          "type": "uint256"
        }
      ],
      "stateMutability": "view",
      "type": "function"
    },
    {
      "inputs": [],
      "name": "precrime",
      "outputs": [
        {
          "internalType": "address",
          "name": "",
          "type": "address"
        }
      ],
      "stateMutability": "view",
      "type": "function"
    },
    {
      "inputs": [],
      "name": "renounceOwnership",
      "outputs": [],
      "stateMutability": "nonpayable",
      "type": "function"
    },
    {
      "inputs": [
        {
          "internalType": "uint16",
          "name": "_srcChainId",
          "type": "uint16"
        },
        {
          "internalType": "bytes",
          "name": "_srcAddress",
          "type": "bytes"
        },
        {
          "internalType": "uint64",
          "name": "_nonce",
          "type": "uint64"
        },
        {
          "internalType": "bytes",
          "name": "_payload",
          "type": "bytes"
        }
      ],
      "name": "retryMessage",
      "outputs": [],
      "stateMutability": "payable",
      "type": "function"
    },
    {
      "inputs": [
        {
          "internalType": "uint16",
          "name": "_version",
          "type": "uint16"
        },
        {
          "internalType": "uint16",
          "name": "_chainId",
          "type": "uint16"
        },
        {
          "internalType": "uint256",
          "name": "_configType",
          "type": "uint256"
        },
        {
          "internalType": "bytes",
          "name": "_config",
          "type": "bytes"
        }
      ],
      "name": "setConfig",
      "outputs": [],
      "stateMutability": "nonpayable",
      "type": "function"
    },
    {
      "inputs": [
        {
          "internalType": "uint16",
          "name": "_dstChainId",
          "type": "uint16"
        },
        {
          "internalType": "uint16",
          "name": "_packetType",
          "type": "uint16"
        },
        {
          "internalType": "uint256",
          "name": "_minGas",
          "type": "uint256"
        }
      ],
      "name": "setMinDstGas",
      "outputs": [],
      "stateMutability": "nonpayable",
      "type": "function"
    },
    {
      "inputs": [
        {
          "internalType": "uint16",
          "name": "dstChainId",
          "type": "uint16"
        },
        {
          "internalType": "address",
          "name": "oracle",
          "type": "address"
        }
      ],
      "name": "setOracle",
      "outputs": [],
      "stateMutability": "nonpayable",
      "type": "function"
    },
    {
      "inputs": [
        {
          "internalType": "uint16",
          "name": "_dstChainId",
          "type": "uint16"
        },
        {
          "internalType": "uint256",
          "name": "_size",
          "type": "uint256"
        }
      ],
      "name": "setPayloadSizeLimit",
      "outputs": [],
      "stateMutability": "nonpayable",
      "type": "function"
    },
    {
      "inputs": [
        {
          "internalType": "address",
          "name": "_precrime",
          "type": "address"
        }
      ],
      "name": "setPrecrime",
      "outputs": [],
      "stateMutability": "nonpayable",
      "type": "function"
    },
    {
      "inputs": [
        {
          "internalType": "uint16",
          "name": "_version",
          "type": "uint16"
        }
      ],
      "name": "setReceiveVersion",
      "outputs": [],
      "stateMutability": "nonpayable",
      "type": "function"
    },
    {
      "inputs": [
        {
          "internalType": "uint16",
          "name": "_version",
          "type": "uint16"
        }
      ],
      "name": "setSendVersion",
      "outputs": [],
      "stateMutability": "nonpayable",
      "type": "function"
    },
    {
      "inputs": [
        {
          "internalType": "uint16",
          "name": "_srcChainId",
          "type": "uint16"
        },
        {
          "internalType": "bytes",
          "name": "_path",
          "type": "bytes"
        }
      ],
      "name": "setTrustedRemote",
      "outputs": [],
      "stateMutability": "nonpayable",
      "type": "function"
    },
    {
      "inputs": [
        {
          "internalType": "uint16",
          "name": "_remoteChainId",
          "type": "uint16"
        },
        {
          "internalType": "bytes",
          "name": "_remoteAddress",
          "type": "bytes"
        }
      ],
      "name": "setTrustedRemoteAddress",
      "outputs": [],
      "stateMutability": "nonpayable",
      "type": "function"
    },
    {
      "inputs": [
        {
          "internalType": "address",
          "name": "newOwner",
          "type": "address"
        }
      ],
      "name": "transferOwnership",
      "outputs": [],
      "stateMutability": "nonpayable",
      "type": "function"
    },
    {
      "inputs": [
        {
          "internalType": "uint16",
          "name": "",
          "type": "uint16"
        }
      ],
      "name": "trustedRemoteLookup",
      "outputs": [
        {
          "internalType": "bytes",
          "name": "",
          "type": "bytes"
        }
      ],
      "stateMutability": "view",
      "type": "function"
    }
  ],
  "transactionHash": "0x83a18ce0d189f08646fe6c485da9f9cf08f1402dadaf578dece621ec64298566",
  "args": [
    "0x5FbDB2315678afecb367f032d93F642f64180aa3"
  ],
  "numDeployments": 1,
  "solcInputHash": "d284bff40c69b40c79fc3eca88aacdd2",
  "bytecode": "0x60a06040523480156200001157600080fd5b50604051620027a9380380620027a98339810160408190526200003491620000a6565b8080620000413362000056565b6001600160a01b031660805250620000d89050565b600080546001600160a01b038381166001600160a01b0319831681178455604051919092169283917f8be0079c531659141344cd1fd0a4f28419497f9722a3daafe3b4186f6b6457e09190a35050565b600060208284031215620000b957600080fd5b81516001600160a01b0381168114620000d157600080fd5b9392505050565b60805161266f6200013a600039600081816104f70152818161065a015281816108a90152818161095101528181610a7301528181610afa01528181610fb301528181611274015281816113d0015281816115cb01526118b6015261266f6000f3fe6080604052600436106101d75760003560e01c80638da5cb5b11610102578063cbed8b9c11610095578063e2f2882411610064578063e2f28824146105d7578063eb8d72b7146105f7578063f2fde38b14610617578063f5ecbdbc1461063757600080fd5b8063cbed8b9c1461054f578063d1deba1f1461056f578063d46fb18814610582578063df2a5b3b146105b757600080fd5b8063a6c3d165116100d1578063a6c3d165146104c5578063b353aaa7146104e5578063baf3292d14610519578063c44618341461053957600080fd5b80638da5cb5b14610440578063950c8a74146104725780639917565c146104925780639f38369a146104a557600080fd5b806342d65a8d1161017a57806366ad5c8a1161014957806366ad5c8a146103b3578063715018a6146103d35780637533d788146103e85780638cfd8f5c1461040857600080fd5b806342d65a8d1461030e578063492e527e1461032e5780635b8c41e61461034e57806361bc221a1461039d57600080fd5b806310ddb137116101b657806310ddb1371461023e578063268e878d1461025e5780633d8b38f6146102a35780633f1f4fa4146102d357600080fd5b80621d3567146101dc57806307e0db17146101fe5780630df374831461021e575b600080fd5b3480156101e857600080fd5b506101fc6101f7366004611dc0565b610657565b005b34801561020a57600080fd5b506101fc610219366004611e55565b610888565b34801561022a57600080fd5b506101fc610239366004611e72565b610911565b34801561024a57600080fd5b506101fc610259366004611e55565b610930565b34801561026a57600080fd5b5061028d604051806040016040528060048152602001624080c160e21b81525081565b60405161029a9190611efa565b60405180910390f35b3480156102af57600080fd5b506102c36102be366004611f0d565b610988565b604051901515815260200161029a565b3480156102df57600080fd5b506103006102ee366004611e55565b60036020526000908152604090205481565b60405190815260200161029a565b34801561031a57600080fd5b506101fc610329366004611f0d565b610a54565b34801561033a57600080fd5b506101fc610349366004611f78565b610ada565b34801561035a57600080fd5b5061030061036936600461201a565b6005602090815260009384526040808520845180860184018051928152908401958401959095209452929052825290205481565b3480156103a957600080fd5b5061030060065481565b3480156103bf57600080fd5b506101fc6103ce366004611dc0565b610bbb565b3480156103df57600080fd5b506101fc610c97565b3480156103f457600080fd5b5061028d610403366004611e55565b610cab565b34801561041457600080fd5b506103006104233660046120bc565b600260209081526000928352604080842090915290825290205481565b34801561044c57600080fd5b506000546001600160a01b03165b6040516001600160a01b03909116815260200161029a565b34801561047e57600080fd5b5060045461045a906001600160a01b031681565b6101fc6104a0366004611e55565b610d45565b3480156104b157600080fd5b5061028d6104c0366004611e55565b610d81565b3480156104d157600080fd5b506101fc6104e0366004611f0d565b610e98565b3480156104f157600080fd5b5061045a7f000000000000000000000000000000000000000000000000000000000000000081565b34801561052557600080fd5b506101fc6105343660046120f5565b610f38565b34801561054557600080fd5b5061030061271081565b34801561055b57600080fd5b506101fc61056a366004612110565b610f94565b6101fc61057d366004611dc0565b611029565b34801561058e57600080fd5b506105a261059d366004612182565b61123f565b6040805192835260208301919091520161029a565b3480156105c357600080fd5b506101fc6105d23660046121eb565b6112fc565b3480156105e357600080fd5b5061045a6105f2366004611e55565b6113ae565b34801561060357600080fd5b506101fc610612366004611f0d565b6114ca565b34801561062357600080fd5b506101fc6106323660046120f5565b611524565b34801561064357600080fd5b5061028d61065236600461222c565b61159a565b337f00000000000000000000000000000000000000000000000000000000000000006001600160a01b0316146106d45760405162461bcd60e51b815260206004820152601e60248201527f4c7a4170703a20696e76616c696420656e64706f696e742063616c6c6572000060448201526064015b60405180910390fd5b61ffff8616600090815260016020526040812080546106f29061227b565b80601f016020809104026020016040519081016040528092919081815260200182805461071e9061227b565b801561076b5780601f106107405761010080835404028352916020019161076b565b820191906000526020600020905b81548152906001019060200180831161074e57829003601f168201915b50505050509050805186869050148015610786575060008151115b80156107ae5750805160208201206040516107a490889088906122b6565b6040518091039020145b6108095760405162461bcd60e51b815260206004820152602660248201527f4c7a4170703a20696e76616c696420736f757263652073656e64696e6720636f6044820152651b9d1c9858dd60d21b60648201526084016106cb565b61087f8787878080601f01602080910402602001604051908101604052809392919081815260200183838082843760009201919091525050604080516020601f8a018190048102820181019092528881528a93509150889088908190840183828082843760009201919091525061164b92505050565b50505050505050565b6108906116c4565b6040516307e0db1760e01b815261ffff821660048201527f00000000000000000000000000000000000000000000000000000000000000006001600160a01b0316906307e0db17906024015b600060405180830381600087803b1580156108f657600080fd5b505af115801561090a573d6000803e3d6000fd5b5050505050565b6109196116c4565b61ffff909116600090815260036020526040902055565b6109386116c4565b6040516310ddb13760e01b815261ffff821660048201527f00000000000000000000000000000000000000000000000000000000000000006001600160a01b0316906310ddb137906024016108dc565b61ffff8316600090815260016020526040812080548291906109a99061227b565b80601f01602080910402602001604051908101604052809291908181526020018280546109d59061227b565b8015610a225780601f106109f757610100808354040283529160200191610a22565b820191906000526020600020905b815481529060010190602001808311610a0557829003601f168201915b505050505090508383604051610a399291906122b6565b60405180910390208180519060200120149150509392505050565b610a5c6116c4565b6040516342d65a8d60e01b81526001600160a01b037f000000000000000000000000000000000000000000000000000000000000000016906342d65a8d90610aac908690869086906004016122ef565b600060405180830381600087803b158015610ac657600080fd5b505af115801561087f573d6000803e3d6000fd5b610ae26116c4565b6040516304b2b47b60e11b81523060048201526006907f00000000000000000000000000000000000000000000000000000000000000006001600160a01b03169063cbed8b9c90829063096568f690602401602060405180830381865afa158015610b51573d6000803e3d6000fd5b505050506040513d601f19601f82011682018060405250810190610b75919061230d565b604080516001600160a01b038716602082015287918691016040516020818303038152906040526040518563ffffffff1660e01b8152600401610aac949392919061232a565b333014610c195760405162461bcd60e51b815260206004820152602660248201527f4e6f6e626c6f636b696e674c7a4170703a2063616c6c6572206d7573742062656044820152650204c7a4170760d41b60648201526084016106cb565b610c8f8686868080601f01602080910402602001604051908101604052809392919081815260200183838082843760009201919091525050604080516020601f89018190048102820181019092528781528993509150879087908190840183828082843760009201919091525061171e92505050565b505050505050565b610c9f6116c4565b610ca9600061173c565b565b60016020526000908152604090208054610cc49061227b565b80601f0160208091040260200160405190810160405280929190818152602001828054610cf09061227b565b8015610d3d5780601f10610d1257610100808354040283529160200191610d3d565b820191906000526020600020905b815481529060010190602001808311610d2057829003601f168201915b505050505081565b610d7e81604051806040016040528060048152602001624080c160e21b815250336000604051806020016040528060008152503461178c565b50565b61ffff8116600090815260016020526040812080546060929190610da49061227b565b80601f0160208091040260200160405190810160405280929190818152602001828054610dd09061227b565b8015610e1d5780601f10610df257610100808354040283529160200191610e1d565b820191906000526020600020905b815481529060010190602001808311610e0057829003601f168201915b50505050509050805160001415610e765760405162461bcd60e51b815260206004820152601d60248201527f4c7a4170703a206e6f20747275737465642070617468207265636f726400000060448201526064016106cb565b610e91600060148351610e899190612377565b839190611932565b9392505050565b610ea06116c4565b818130604051602001610eb59392919061238e565b60408051601f1981840301815291815261ffff85166000908152600160209081529190208251610eea93919290910190611c3f565b50610ef88361ffff16611a3f565b7f8c0400cfe2d1199b1a725c78960bcc2a344d869b80590d0f2bd005db15a572ce838383604051610f2b939291906122ef565b60405180910390a1505050565b610f406116c4565b600480546001600160a01b0319166001600160a01b0383169081179091556040519081527f5db758e995a17ec1ad84bdef7e8c3293a0bd6179bcce400dff5d4c3d87db726b9060200160405180910390a150565b610f9c6116c4565b6040516332fb62e760e21b81526001600160a01b037f0000000000000000000000000000000000000000000000000000000000000000169063cbed8b9c90610ff090889088908890889088906004016123b4565b600060405180830381600087803b15801561100a57600080fd5b505af115801561101e573d6000803e3d6000fd5b505050505050505050565b61ffff8616600090815260056020526040808220905161104c90889088906122b6565b90815260408051602092819003830190206001600160401b038716600090815292529020549050806110cc5760405162461bcd60e51b815260206004820152602360248201527f4e6f6e626c6f636b696e674c7a4170703a206e6f2073746f726564206d65737360448201526261676560e81b60648201526084016106cb565b8083836040516110dd9291906122b6565b60405180910390201461113c5760405162461bcd60e51b815260206004820152602160248201527f4e6f6e626c6f636b696e674c7a4170703a20696e76616c6964207061796c6f616044820152601960fa1b60648201526084016106cb565b61ffff8716600090815260056020526040808220905161115f90899089906122b6565b90815260408051602092819003830181206001600160401b038916600090815290845282902093909355601f880182900482028301820190528682526111f7918991899089908190840183828082843760009201919091525050604080516020601f8a018190048102820181019092528881528a93509150889088908190840183828082843760009201919091525061171e92505050565b7fc264d91f3adc5588250e1551f547752ca0cfa8f6b530d243b9f9f4cab10ea8e5878787878560405161122e9594939291906123ed565b60405180910390a150505050505050565b6040805180820182526004808252624080c160e21b6020830152915163040a7bb160e41b815260009283926001600160a01b037f000000000000000000000000000000000000000000000000000000000000000016926340a7bb10926112af928b9230928c918c918c9101612428565b6040805180830381865afa1580156112cb573d6000803e3d6000fd5b505050506040513d601f19601f820116820180604052508101906112ef919061247e565b9150915094509492505050565b6113046116c4565b6000811161134c5760405162461bcd60e51b81526020600482015260156024820152744c7a4170703a20696e76616c6964206d696e47617360581b60448201526064016106cb565b61ffff83811660008181526002602090815260408083209487168084529482529182902085905581519283528201929092529081018290527f9d5c7c0b934da8fefa9c7760c98383778a12dfbfc0c3b3106518f43fb9508ac090606001610f2b565b6040516304b2b47b60e11b815230600482015260009081906001600160a01b037f0000000000000000000000000000000000000000000000000000000000000000169063f5ecbdbc90829063096568f690602401602060405180830381865afa15801561141f573d6000803e3d6000fd5b505050506040513d601f19601f82011682018060405250810190611443919061230d565b6040516001600160e01b031960e084901b16815261ffff9182166004820152908616602482015230604482015260066064820152608401600060405180830381865afa158015611497573d6000803e3d6000fd5b505050506040513d6000823e601f3d908101601f191682016040526114bf91908101906124a2565b602001519392505050565b6114d26116c4565b61ffff831660009081526001602052604090206114f0908383611cc3565b507ffa41487ad5d6728f0b19276fa1eddc16558578f5109fc39d2dc33c3230470dab838383604051610f2b939291906122ef565b61152c6116c4565b6001600160a01b0381166115915760405162461bcd60e51b815260206004820152602660248201527f4f776e61626c653a206e6577206f776e657220697320746865207a65726f206160448201526564647265737360d01b60648201526084016106cb565b610d7e8161173c565b604051633d7b2f6f60e21b815261ffff808616600483015284166024820152306044820152606481018290526060907f00000000000000000000000000000000000000000000000000000000000000006001600160a01b03169063f5ecbdbc90608401600060405180830381865afa15801561161a573d6000803e3d6000fd5b505050506040513d6000823e601f3d908101601f1916820160405261164291908101906124a2565b95945050505050565b6000806116ae5a60966366ad5c8a60e01b89898989604051602401611673949392919061250f565b60408051601f198184030181529190526020810180516001600160e01b03166001600160e01b03199093169290921790915230929190611a84565b9150915081610c8f57610c8f8686868685611b0e565b6000546001600160a01b03163314610ca95760405162461bcd60e51b815260206004820181905260248201527f4f776e61626c653a2063616c6c6572206973206e6f7420746865206f776e657260448201526064016106cb565b600160066000828254611731919061254d565b909155505050505050565b600080546001600160a01b038381166001600160a01b0319831681178455604051919092169283917f8be0079c531659141344cd1fd0a4f28419497f9722a3daafe3b4186f6b6457e09190a35050565b61ffff8616600090815260016020526040812080546117aa9061227b565b80601f01602080910402602001604051908101604052809291908181526020018280546117d69061227b565b80156118235780601f106117f857610100808354040283529160200191611823565b820191906000526020600020905b81548152906001019060200180831161180657829003601f168201915b505050505090508051600014156118955760405162461bcd60e51b815260206004820152603060248201527f4c7a4170703a2064657374696e6174696f6e20636861696e206973206e6f742060448201526f61207472757374656420736f7572636560801b60648201526084016106cb565b6118a0878751611bab565b60405162c5803160e81b81526001600160a01b037f0000000000000000000000000000000000000000000000000000000000000000169063c58031009084906118f7908b9086908c908c908c908c90600401612565565b6000604051808303818588803b15801561191057600080fd5b505af1158015611924573d6000803e3d6000fd5b505050505050505050505050565b60608161194081601f61254d565b101561197f5760405162461bcd60e51b815260206004820152600e60248201526d736c6963655f6f766572666c6f7760901b60448201526064016106cb565b611989828461254d565b845110156119cd5760405162461bcd60e51b8152602060048201526011602482015270736c6963655f6f75744f66426f756e647360781b60448201526064016106cb565b6060821580156119ec5760405191506000825260208201604052611a36565b6040519150601f8416801560200281840101858101878315602002848b0101015b81831015611a25578051835260209283019201611a0d565b5050858452601f01601f1916604052505b50949350505050565b610d7e81604051602401611a5591815260200190565b60408051601f198184030181529190526020810180516001600160e01b031663f82c50f160e01b179052611c1e565b6000606060008060008661ffff166001600160401b03811115611aa957611aa9611fad565b6040519080825280601f01601f191660200182016040528015611ad3576020820181803683370190505b50905060008087516020890160008d8df191503d925086831115611af5578692505b828152826000602083013e909890975095505050505050565b8180519060200120600560008761ffff1661ffff16815260200190815260200160002085604051611b3f91906125bf565b9081526040805191829003602090810183206001600160401b0388166000908152915220919091557fe183f33de2837795525b4792ca4cd60535bd77c53b7e7030060bfcf5734d6b0c90611b9c90879087908790879087906125db565b60405180910390a15050505050565b61ffff821660009081526003602052604090205480611bc957506127105b80821115611c195760405162461bcd60e51b815260206004820181905260248201527f4c7a4170703a207061796c6f61642073697a6520697320746f6f206c6172676560448201526064016106cb565b505050565b80516a636f6e736f6c652e6c6f67602083016000808483855afa5050505050565b828054611c4b9061227b565b90600052602060002090601f016020900481019282611c6d5760008555611cb3565b82601f10611c8657805160ff1916838001178555611cb3565b82800160010185558215611cb3579182015b82811115611cb3578251825591602001919060010190611c98565b50611cbf929150611d37565b5090565b828054611ccf9061227b565b90600052602060002090601f016020900481019282611cf15760008555611cb3565b82601f10611d0a5782800160ff19823516178555611cb3565b82800160010185558215611cb3579182015b82811115611cb3578235825591602001919060010190611d1c565b5b80821115611cbf5760008155600101611d38565b61ffff81168114610d7e57600080fd5b60008083601f840112611d6e57600080fd5b5081356001600160401b03811115611d8557600080fd5b602083019150836020828501011115611d9d57600080fd5b9250929050565b80356001600160401b0381168114611dbb57600080fd5b919050565b60008060008060008060808789031215611dd957600080fd5b8635611de481611d4c565b955060208701356001600160401b0380821115611e0057600080fd5b611e0c8a838b01611d5c565b9097509550859150611e2060408a01611da4565b94506060890135915080821115611e3657600080fd5b50611e4389828a01611d5c565b979a9699509497509295939492505050565b600060208284031215611e6757600080fd5b8135610e9181611d4c565b60008060408385031215611e8557600080fd5b8235611e9081611d4c565b946020939093013593505050565b60005b83811015611eb9578181015183820152602001611ea1565b83811115611ec8576000848401525b50505050565b60008151808452611ee6816020860160208601611e9e565b601f01601f19169290920160200192915050565b602081526000610e916020830184611ece565b600080600060408486031215611f2257600080fd5b8335611f2d81611d4c565b925060208401356001600160401b03811115611f4857600080fd5b611f5486828701611d5c565b9497909650939450505050565b80356001600160a01b0381168114611dbb57600080fd5b60008060408385031215611f8b57600080fd5b8235611f9681611d4c565b9150611fa460208401611f61565b90509250929050565b634e487b7160e01b600052604160045260246000fd5b604051601f8201601f191681016001600160401b0381118282101715611feb57611feb611fad565b604052919050565b60006001600160401b0382111561200c5761200c611fad565b50601f01601f191660200190565b60008060006060848603121561202f57600080fd5b833561203a81611d4c565b925060208401356001600160401b0381111561205557600080fd5b8401601f8101861361206657600080fd5b803561207961207482611ff3565b611fc3565b81815287602083850101111561208e57600080fd5b816020840160208301376000602083830101528094505050506120b360408501611da4565b90509250925092565b600080604083850312156120cf57600080fd5b82356120da81611d4c565b915060208301356120ea81611d4c565b809150509250929050565b60006020828403121561210757600080fd5b610e9182611f61565b60008060008060006080868803121561212857600080fd5b853561213381611d4c565b9450602086013561214381611d4c565b93506040860135925060608601356001600160401b0381111561216557600080fd5b61217188828901611d5c565b969995985093965092949392505050565b6000806000806060858703121561219857600080fd5b84356121a381611d4c565b9350602085013580151581146121b857600080fd5b925060408501356001600160401b038111156121d357600080fd5b6121df87828801611d5c565b95989497509550505050565b60008060006060848603121561220057600080fd5b833561220b81611d4c565b9250602084013561221b81611d4c565b929592945050506040919091013590565b6000806000806080858703121561224257600080fd5b843561224d81611d4c565b9350602085013561225d81611d4c565b925061226b60408601611f61565b9396929550929360600135925050565b600181811c9082168061228f57607f821691505b602082108114156122b057634e487b7160e01b600052602260045260246000fd5b50919050565b8183823760009101908152919050565b81835281816020850137506000828201602090810191909152601f909101601f19169091010190565b61ffff841681526040602082015260006116426040830184866122c6565b60006020828403121561231f57600080fd5b8151610e9181611d4c565b600061ffff8087168352808616602084015250836040830152608060608301526123576080830184611ece565b9695505050505050565b634e487b7160e01b600052601160045260246000fd5b60008282101561238957612389612361565b500390565b8284823760609190911b6bffffffffffffffffffffffff19169101908152601401919050565b600061ffff8088168352808716602084015250846040830152608060608301526123e26080830184866122c6565b979650505050505050565b61ffff8616815260806020820152600061240b6080830186886122c6565b6001600160401b0394909416604083015250606001529392505050565b61ffff871681526001600160a01b038616602082015260a06040820181905260009061245690830187611ece565b851515606084015282810360808401526124718185876122c6565b9998505050505050505050565b6000806040838503121561249157600080fd5b505080516020909101519092909150565b6000602082840312156124b457600080fd5b81516001600160401b038111156124ca57600080fd5b8201601f810184136124db57600080fd5b80516124e961207482611ff3565b8181528560208385010111156124fe57600080fd5b611642826020830160208601611e9e565b61ffff8516815260806020820152600061252c6080830186611ece565b6001600160401b038516604084015282810360608401526123e28185611ece565b6000821982111561256057612560612361565b500190565b61ffff8716815260c06020820152600061258260c0830188611ece565b82810360408401526125948188611ece565b6001600160a01b0387811660608601528616608085015283810360a085015290506124718185611ece565b600082516125d1818460208701611e9e565b9190910192915050565b61ffff8616815260a0602082015260006125f860a0830187611ece565b6001600160401b038616604084015282810360608401526126198186611ece565b9050828103608084015261262d8185611ece565b9897505050505050505056fea2646970667358221220365ccfb293c205848196f15e94ef6a2b4158947ef079a197e7e7a29737deecb564736f6c634300080c0033",
  "devdoc": {
    "kind": "dev",
    "methods": {
      "owner()": {
        "details": "Returns the address of the current owner."
      },
      "renounceOwnership()": {
        "details": "Leaves the contract without owner. It will not be possible to call `onlyOwner` functions anymore. Can only be called by the current owner. NOTE: Renouncing ownership will leave the contract without an owner, thereby removing any functionality that is only available to the owner."
      },
      "transferOwnership(address)": {
        "details": "Transfers ownership of the contract to a new account (`newOwner`). Can only be called by the current owner."
      }
    },
    "title": "A LayerZero example sending a cross chain message from a source chain to a destination chain to increment a counter",
    "version": 1
  },
  "userdoc": {
    "kind": "user",
    "methods": {},
    "version": 1
  },
  "storageLayout": {
    "storage": [
      {
        "astId": 2624,
        "contract": "contracts/examples/OmniCounter.sol:OmniCounter",
        "label": "_owner",
        "offset": 0,
        "slot": "0",
        "type": "t_address"
      },
      {
        "astId": 12159,
        "contract": "contracts/examples/OmniCounter.sol:OmniCounter",
        "label": "trustedRemoteLookup",
        "offset": 0,
        "slot": "1",
        "type": "t_mapping(t_uint16,t_bytes_storage)"
      },
      {
        "astId": 12165,
        "contract": "contracts/examples/OmniCounter.sol:OmniCounter",
        "label": "minDstGasLookup",
        "offset": 0,
        "slot": "2",
        "type": "t_mapping(t_uint16,t_mapping(t_uint16,t_uint256))"
      },
      {
        "astId": 12169,
        "contract": "contracts/examples/OmniCounter.sol:OmniCounter",
        "label": "payloadSizeLimitLookup",
        "offset": 0,
        "slot": "3",
        "type": "t_mapping(t_uint16,t_uint256)"
      },
      {
        "astId": 12171,
        "contract": "contracts/examples/OmniCounter.sol:OmniCounter",
        "label": "precrime",
        "offset": 0,
        "slot": "4",
        "type": "t_address"
      },
      {
        "astId": 12717,
        "contract": "contracts/examples/OmniCounter.sol:OmniCounter",
        "label": "failedMessages",
        "offset": 0,
        "slot": "5",
        "type": "t_mapping(t_uint16,t_mapping(t_bytes_memory_ptr,t_mapping(t_uint64,t_bytes32)))"
      },
      {
        "astId": 10498,
        "contract": "contracts/examples/OmniCounter.sol:OmniCounter",
        "label": "counter",
        "offset": 0,
        "slot": "6",
        "type": "t_uint256"
      }
    ],
    "types": {
      "t_address": {
        "encoding": "inplace",
        "label": "address",
        "numberOfBytes": "20"
      },
      "t_bytes32": {
        "encoding": "inplace",
        "label": "bytes32",
        "numberOfBytes": "32"
      },
      "t_bytes_memory_ptr": {
        "encoding": "bytes",
        "label": "bytes",
        "numberOfBytes": "32"
      },
      "t_bytes_storage": {
        "encoding": "bytes",
        "label": "bytes",
        "numberOfBytes": "32"
      },
      "t_mapping(t_bytes_memory_ptr,t_mapping(t_uint64,t_bytes32))": {
        "encoding": "mapping",
        "key": "t_bytes_memory_ptr",
        "label": "mapping(bytes => mapping(uint64 => bytes32))",
        "numberOfBytes": "32",
        "value": "t_mapping(t_uint64,t_bytes32)"
      },
      "t_mapping(t_uint16,t_bytes_storage)": {
        "encoding": "mapping",
        "key": "t_uint16",
        "label": "mapping(uint16 => bytes)",
        "numberOfBytes": "32",
        "value": "t_bytes_storage"
      },
      "t_mapping(t_uint16,t_mapping(t_bytes_memory_ptr,t_mapping(t_uint64,t_bytes32)))": {
        "encoding": "mapping",
        "key": "t_uint16",
        "label": "mapping(uint16 => mapping(bytes => mapping(uint64 => bytes32)))",
        "numberOfBytes": "32",
        "value": "t_mapping(t_bytes_memory_ptr,t_mapping(t_uint64,t_bytes32))"
      },
      "t_mapping(t_uint16,t_mapping(t_uint16,t_uint256))": {
        "encoding": "mapping",
        "key": "t_uint16",
        "label": "mapping(uint16 => mapping(uint16 => uint256))",
        "numberOfBytes": "32",
        "value": "t_mapping(t_uint16,t_uint256)"
      },
      "t_mapping(t_uint16,t_uint256)": {
        "encoding": "mapping",
        "key": "t_uint16",
        "label": "mapping(uint16 => uint256)",
        "numberOfBytes": "32",
        "value": "t_uint256"
      },
      "t_mapping(t_uint64,t_bytes32)": {
        "encoding": "mapping",
        "key": "t_uint64",
        "label": "mapping(uint64 => bytes32)",
        "numberOfBytes": "32",
        "value": "t_bytes32"
      },
      "t_uint16": {
        "encoding": "inplace",
        "label": "uint16",
        "numberOfBytes": "2"
      },
      "t_uint256": {
        "encoding": "inplace",
        "label": "uint256",
        "numberOfBytes": "32"
      },
      "t_uint64": {
        "encoding": "inplace",
        "label": "uint64",
        "numberOfBytes": "8"
      }
    }
  }
}