{
  "_format": "hh-sol-artifact-1",
  "contractName": "BasedOFT",
  "sourceName": "contracts/token/oft/extension/BasedOFT.sol",
  "abi": [
    {
      "inputs": [
        {
          "internalType": "string",
          "name": "_name",
          "type": "string"
        },
        {
          "internalType": "string",
          "name": "_symbol",
          "type": "string"
        },
        {
          "internalType": "address",
          "name": "_lzEndpoint",
          "type": "address"
        }
      ],
      "stateMutability": "nonpayable",
      "type": "constructor"
    },
    {
      "anonymous": false,
      "inputs": [
        {
          "indexed": true,
          "internalType": "address",
          "name": "owner",
          "type": "address"
        },
        {
          "indexed": true,
          "internalType": "address",
          "name": "spender",
          "type": "address"
        },
        {
          "indexed": false,
          "internalType": "uint256",
          "name": "value",
          "type": "uint256"
        }
      ],
      "name": "Approval",
      "type": "event"
    },
    {
      "anonymous": false,
      "inputs": [
        {
          "indexed": false,
          "internalType": "uint16",
          "name": "_srcChainId",
          "type": "uint16"
        },
        {
          "indexed": false,
          "internalType": "bytes",
          "name": "_srcAddress",
          "type": "bytes"
        },
        {
          "indexed": false,
          "internalType": "uint64",
          "name": "_nonce",
          "type": "uint64"
        },
        {
          "indexed": false,
          "internalType": "bytes",
          "name": "_payload",
          "type": "bytes"
        },
        {
          "indexed": false,
          "internalType": "bytes",
          "name": "_reason",
          "type": "bytes"
        }
      ],
      "name": "MessageFailed",
      "type": "event"
    },
    {
      "anonymous": false,
      "inputs": [
        {
          "indexed": true,
          "internalType": "address",
          "name": "previousOwner",
          "type": "address"
        },
        {
          "indexed": true,
          "internalType": "address",
          "name": "newOwner",
          "type": "address"
        }
      ],
      "name": "OwnershipTransferred",
      "type": "event"
    },
    {
      "anonymous": false,
      "inputs": [
        {
          "indexed": true,
          "internalType": "uint16",
          "name": "_srcChainId",
          "type": "uint16"
        },
        {
          "indexed": true,
          "internalType": "address",
          "name": "_to",
          "type": "address"
        },
        {
          "indexed": false,
          "internalType": "uint256",
          "name": "_amount",
          "type": "uint256"
        }
      ],
      "name": "ReceiveFromChain",
      "type": "event"
    },
    {
      "anonymous": false,
      "inputs": [
        {
          "indexed": false,
          "internalType": "uint16",
          "name": "_srcChainId",
          "type": "uint16"
        },
        {
          "indexed": false,
          "internalType": "bytes",
          "name": "_srcAddress",
          "type": "bytes"
        },
        {
          "indexed": false,
          "internalType": "uint64",
          "name": "_nonce",
          "type": "uint64"
        },
        {
          "indexed": false,
          "internalType": "bytes32",
          "name": "_payloadHash",
          "type": "bytes32"
        }
      ],
      "name": "RetryMessageSuccess",
      "type": "event"
    },
    {
      "anonymous": false,
      "inputs": [
        {
          "indexed": true,
          "internalType": "uint16",
          "name": "_dstChainId",
          "type": "uint16"
        },
        {
          "indexed": true,
          "internalType": "address",
          "name": "_from",
          "type": "address"
        },
        {
          "indexed": false,
          "internalType": "bytes",
          "name": "_toAddress",
          "type": "bytes"
        },
        {
          "indexed": false,
          "internalType": "uint256",
          "name": "_amount",
          "type": "uint256"
        }
      ],
      "name": "SendToChain",
      "type": "event"
    },
    {
      "anonymous": false,
      "inputs": [
        {
          "indexed": false,
          "internalType": "uint16",
          "name": "_dstChainId",
          "type": "uint16"
        },
        {
          "indexed": false,
          "internalType": "uint16",
          "name": "_type",
          "type": "uint16"
        },
        {
          "indexed": false,
          "internalType": "uint256",
          "name": "_minDstGas",
          "type": "uint256"
        }
      ],
      "name": "SetMinDstGas",
      "type": "event"
    },
    {
      "anonymous": false,
      "inputs": [
        {
          "indexed": false,
          "internalType": "address",
          "name": "precrime",
          "type": "address"
        }
      ],
      "name": "SetPrecrime",
      "type": "event"
    },
    {
      "anonymous": false,
      "inputs": [
        {
          "indexed": false,
          "internalType": "uint16",
          "name": "_remoteChainId",
          "type": "uint16"
        },
        {
          "indexed": false,
          "internalType": "bytes",
          "name": "_path",
          "type": "bytes"
        }
      ],
      "name": "SetTrustedRemote",
      "type": "event"
    },
    {
      "anonymous": false,
      "inputs": [
        {
          "indexed": false,
          "internalType": "uint16",
          "name": "_remoteChainId",
          "type": "uint16"
        },
        {
          "indexed": false,
          "internalType": "bytes",
          "name": "_remoteAddress",
          "type": "bytes"
        }
      ],
      "name": "SetTrustedRemoteAddress",
      "type": "event"
    },
    {
      "anonymous": false,
      "inputs": [
        {
          "indexed": false,
          "internalType": "bool",
          "name": "_useCustomAdapterParams",
          "type": "bool"
        }
      ],
      "name": "SetUseCustomAdapterParams",
      "type": "event"
    },
    {
      "anonymous": false,
      "inputs": [
        {
          "indexed": true,
          "internalType": "address",
          "name": "from",
          "type": "address"
        },
        {
          "indexed": true,
          "internalType": "address",
          "name": "to",
          "type": "address"
        },
        {
          "indexed": false,
          "internalType": "uint256",
          "name": "value",
          "type": "uint256"
        }
      ],
      "name": "Transfer",
      "type": "event"
    },
    {
      "inputs": [],
      "name": "DEFAULT_PAYLOAD_SIZE_LIMIT",
      "outputs": [
        {
          "internalType": "uint256",
          "name": "",
          "type": "uint256"
        }
      ],
      "stateMutability": "view",
      "type": "function"
    },
    {
      "inputs": [],
      "name": "NO_EXTRA_GAS",
      "outputs": [
        {
          "internalType": "uint256",
          "name": "",
          "type": "uint256"
        }
      ],
      "stateMutability": "view",
      "type": "function"
    },
    {
      "inputs": [],
      "name": "PT_SEND",
      "outputs": [
        {
          "internalType": "uint16",
          "name": "",
          "type": "uint16"
        }
      ],
      "stateMutability": "view",
      "type": "function"
    },
    {
      "inputs": [
        {
          "internalType": "address",
          "name": "owner",
          "type": "address"
        },
        {
          "internalType": "address",
          "name": "spender",
          "type": "address"
        }
      ],
      "name": "allowance",
      "outputs": [
        {
          "internalType": "uint256",
          "name": "",
          "type": "uint256"
        }
      ],
      "stateMutability": "view",
      "type": "function"
    },
    {
      "inputs": [
        {
          "internalType": "address",
          "name": "spender",
          "type": "address"
        },
        {
          "internalType": "uint256",
          "name": "amount",
          "type": "uint256"
        }
      ],
      "name": "approve",
      "outputs": [
        {
          "internalType": "bool",
          "name": "",
          "type": "bool"
        }
      ],
      "stateMutability": "nonpayable",
      "type": "function"
    },
    {
      "inputs": [
        {
          "internalType": "address",
          "name": "account",
          "type": "address"
        }
      ],
      "name": "balanceOf",
      "outputs": [
        {
          "internalType": "uint256",
          "name": "",
          "type": "uint256"
        }
      ],
      "stateMutability": "view",
      "type": "function"
    },
    {
      "inputs": [],
      "name": "circulatingSupply",
      "outputs": [
        {
          "internalType": "uint256",
          "name": "",
          "type": "uint256"
        }
      ],
      "stateMutability": "view",
      "type": "function"
    },
    {
      "inputs": [],
      "name": "decimals",
      "outputs": [
        {
          "internalType": "uint8",
          "name": "",
          "type": "uint8"
        }
      ],
      "stateMutability": "view",
      "type": "function"
    },
    {
      "inputs": [
        {
          "internalType": "address",
          "name": "spender",
          "type": "address"
        },
        {
          "internalType": "uint256",
          "name": "subtractedValue",
          "type": "uint256"
        }
      ],
      "name": "decreaseAllowance",
      "outputs": [
        {
          "internalType": "bool",
          "name": "",
          "type": "bool"
        }
      ],
      "stateMutability": "nonpayable",
      "type": "function"
    },
    {
      "inputs": [
        {
          "internalType": "uint16",
          "name": "_dstChainId",
          "type": "uint16"
        },
        {
          "internalType": "bytes",
          "name": "_toAddress",
          "type": "bytes"
        },
        {
          "internalType": "uint256",
          "name": "_amount",
          "type": "uint256"
        },
        {
          "internalType": "bool",
          "name": "_useZro",
          "type": "bool"
        },
        {
          "internalType": "bytes",
          "name": "_adapterParams",
          "type": "bytes"
        }
      ],
      "name": "estimateSendFee",
      "outputs": [
        {
          "internalType": "uint256",
          "name": "nativeFee",
          "type": "uint256"
        },
        {
          "internalType": "uint256",
          "name": "zroFee",
          "type": "uint256"
        }
      ],
      "stateMutability": "view",
      "type": "function"
    },
    {
      "inputs": [
        {
          "internalType": "uint16",
          "name": "",
          "type": "uint16"
        },
        {
          "internalType": "bytes",
          "name": "",
          "type": "bytes"
        },
        {
          "internalType": "uint64",
          "name": "",
          "type": "uint64"
        }
      ],
      "name": "failedMessages",
      "outputs": [
        {
          "internalType": "bytes32",
          "name": "",
          "type": "bytes32"
        }
      ],
      "stateMutability": "view",
      "type": "function"
    },
    {
      "inputs": [
        {
          "internalType": "uint16",
          "name": "_srcChainId",
          "type": "uint16"
        },
        {
          "internalType": "bytes",
          "name": "_srcAddress",
          "type": "bytes"
        }
      ],
      "name": "forceResumeReceive",
      "outputs": [],
      "stateMutability": "nonpayable",
      "type": "function"
    },
    {
      "inputs": [
        {
          "internalType": "uint16",
          "name": "_version",
          "type": "uint16"
        },
        {
          "internalType": "uint16",
          "name": "_chainId",
          "type": "uint16"
        },
        {
          "internalType": "address",
          "name": "",
          "type": "address"
        },
        {
          "internalType": "uint256",
          "name": "_configType",
          "type": "uint256"
        }
      ],
      "name": "getConfig",
      "outputs": [
        {
          "internalType": "bytes",
          "name": "",
          "type": "bytes"
        }
      ],
      "stateMutability": "view",
      "type": "function"
    },
    {
      "inputs": [
        {
          "internalType": "uint16",
          "name": "_remoteChainId",
          "type": "uint16"
        }
      ],
      "name": "getTrustedRemoteAddress",
      "outputs": [
        {
          "internalType": "bytes",
          "name": "",
          "type": "bytes"
        }
      ],
      "stateMutability": "view",
      "type": "function"
    },
    {
      "inputs": [
        {
          "internalType": "address",
          "name": "spender",
          "type": "address"
        },
        {
          "internalType": "uint256",
          "name": "addedValue",
          "type": "uint256"
        }
      ],
      "name": "increaseAllowance",
      "outputs": [
        {
          "internalType": "bool",
          "name": "",
          "type": "bool"
        }
      ],
      "stateMutability": "nonpayable",
      "type": "function"
    },
    {
      "inputs": [
        {
          "internalType": "uint16",
          "name": "_srcChainId",
          "type": "uint16"
        },
        {
          "internalType": "bytes",
          "name": "_srcAddress",
          "type": "bytes"
        }
      ],
      "name": "isTrustedRemote",
      "outputs": [
        {
          "internalType": "bool",
          "name": "",
          "type": "bool"
        }
      ],
      "stateMutability": "view",
      "type": "function"
    },
    {
      "inputs": [],
      "name": "lzEndpoint",
      "outputs": [
        {
          "internalType": "contract ILayerZeroEndpoint",
          "name": "",
          "type": "address"
        }
      ],
      "stateMutability": "view",
      "type": "function"
    },
    {
      "inputs": [
        {
          "internalType": "uint16",
          "name": "_srcChainId",
          "type": "uint16"
        },
        {
          "internalType": "bytes",
          "name": "_srcAddress",
          "type": "bytes"
        },
        {
          "internalType": "uint64",
          "name": "_nonce",
          "type": "uint64"
        },
        {
          "internalType": "bytes",
          "name": "_payload",
          "type": "bytes"
        }
      ],
      "name": "lzReceive",
      "outputs": [],
      "stateMutability": "nonpayable",
      "type": "function"
    },
    {
      "inputs": [
        {
          "internalType": "uint16",
          "name": "",
          "type": "uint16"
        },
        {
          "internalType": "uint16",
          "name": "",
          "type": "uint16"
        }
      ],
      "name": "minDstGasLookup",
      "outputs": [
        {
          "internalType": "uint256",
          "name": "",
          "type": "uint256"
        }
      ],
      "stateMutability": "view",
      "type": "function"
    },
    {
      "inputs": [],
      "name": "name",
      "outputs": [
        {
          "internalType": "string",
          "name": "",
          "type": "string"
        }
      ],
      "stateMutability": "view",
      "type": "function"
    },
    {
      "inputs": [
        {
          "internalType": "uint16",
          "name": "_srcChainId",
          "type": "uint16"
        },
        {
          "internalType": "bytes",
          "name": "_srcAddress",
          "type": "bytes"
        },
        {
          "internalType": "uint64",
          "name": "_nonce",
          "type": "uint64"
        },
        {
          "internalType": "bytes",
          "name": "_payload",
          "type": "bytes"
        }
      ],
      "name": "nonblockingLzReceive",
      "outputs": [],
      "stateMutability": "nonpayable",
      "type": "function"
    },
    {
      "inputs": [],
      "name": "owner",
      "outputs": [
        {
          "internalType": "address",
          "name": "",
          "type": "address"
        }
      ],
      "stateMutability": "view",
      "type": "function"
    },
    {
      "inputs": [
        {
          "internalType": "uint16",
          "name": "",
          "type": "uint16"
        }
      ],
      "name": "payloadSizeLimitLookup",
      "outputs": [
        {
          "internalType": "uint256",
          "name": "",
          "type": "uint256"
        }
      ],
      "stateMutability": "view",
      "type": "function"
    },
    {
      "inputs": [],
      "name": "precrime",
      "outputs": [
        {
          "internalType": "address",
          "name": "",
          "type": "address"
        }
      ],
      "stateMutability": "view",
      "type": "function"
    },
    {
      "inputs": [],
      "name": "renounceOwnership",
      "outputs": [],
      "stateMutability": "nonpayable",
      "type": "function"
    },
    {
      "inputs": [
        {
          "internalType": "uint16",
          "name": "_srcChainId",
          "type": "uint16"
        },
        {
          "internalType": "bytes",
          "name": "_srcAddress",
          "type": "bytes"
        },
        {
          "internalType": "uint64",
          "name": "_nonce",
          "type": "uint64"
        },
        {
          "internalType": "bytes",
          "name": "_payload",
          "type": "bytes"
        }
      ],
      "name": "retryMessage",
      "outputs": [],
      "stateMutability": "payable",
      "type": "function"
    },
    {
      "inputs": [
        {
          "internalType": "address",
          "name": "_from",
          "type": "address"
        },
        {
          "internalType": "uint16",
          "name": "_dstChainId",
          "type": "uint16"
        },
        {
          "internalType": "bytes",
          "name": "_toAddress",
          "type": "bytes"
        },
        {
          "internalType": "uint256",
          "name": "_amount",
          "type": "uint256"
        },
        {
          "internalType": "address payable",
          "name": "_refundAddress",
          "type": "address"
        },
        {
          "internalType": "address",
          "name": "_zroPaymentAddress",
          "type": "address"
        },
        {
          "internalType": "bytes",
          "name": "_adapterParams",
          "type": "bytes"
        }
      ],
      "name": "sendFrom",
      "outputs": [],
      "stateMutability": "payable",
      "type": "function"
    },
    {
      "inputs": [
        {
          "internalType": "uint16",
          "name": "_version",
          "type": "uint16"
        },
        {
          "internalType": "uint16",
          "name": "_chainId",
          "type": "uint16"
        },
        {
          "internalType": "uint256",
          "name": "_configType",
          "type": "uint256"
        },
        {
          "internalType": "bytes",
          "name": "_config",
          "type": "bytes"
        }
      ],
      "name": "setConfig",
      "outputs": [],
      "stateMutability": "nonpayable",
      "type": "function"
    },
    {
      "inputs": [
        {
          "internalType": "uint16",
          "name": "_dstChainId",
          "type": "uint16"
        },
        {
          "internalType": "uint16",
          "name": "_packetType",
          "type": "uint16"
        },
        {
          "internalType": "uint256",
          "name": "_minGas",
          "type": "uint256"
        }
      ],
      "name": "setMinDstGas",
      "outputs": [],
      "stateMutability": "nonpayable",
      "type": "function"
    },
    {
      "inputs": [
        {
          "internalType": "uint16",
          "name": "_dstChainId",
          "type": "uint16"
        },
        {
          "internalType": "uint256",
          "name": "_size",
          "type": "uint256"
        }
      ],
      "name": "setPayloadSizeLimit",
      "outputs": [],
      "stateMutability": "nonpayable",
      "type": "function"
    },
    {
      "inputs": [
        {
          "internalType": "address",
          "name": "_precrime",
          "type": "address"
        }
      ],
      "name": "setPrecrime",
      "outputs": [],
      "stateMutability": "nonpayable",
      "type": "function"
    },
    {
      "inputs": [
        {
          "internalType": "uint16",
          "name": "_version",
          "type": "uint16"
        }
      ],
      "name": "setReceiveVersion",
      "outputs": [],
      "stateMutability": "nonpayable",
      "type": "function"
    },
    {
      "inputs": [
        {
          "internalType": "uint16",
          "name": "_version",
          "type": "uint16"
        }
      ],
      "name": "setSendVersion",
      "outputs": [],
      "stateMutability": "nonpayable",
      "type": "function"
    },
    {
      "inputs": [
        {
          "internalType": "uint16",
          "name": "_srcChainId",
          "type": "uint16"
        },
        {
          "internalType": "bytes",
          "name": "_path",
          "type": "bytes"
        }
      ],
      "name": "setTrustedRemote",
      "outputs": [],
      "stateMutability": "nonpayable",
      "type": "function"
    },
    {
      "inputs": [
        {
          "internalType": "uint16",
          "name": "_remoteChainId",
          "type": "uint16"
        },
        {
          "internalType": "bytes",
          "name": "_remoteAddress",
          "type": "bytes"
        }
      ],
      "name": "setTrustedRemoteAddress",
      "outputs": [],
      "stateMutability": "nonpayable",
      "type": "function"
    },
    {
      "inputs": [
        {
          "internalType": "bool",
          "name": "_useCustomAdapterParams",
          "type": "bool"
        }
      ],
      "name": "setUseCustomAdapterParams",
      "outputs": [],
      "stateMutability": "nonpayable",
      "type": "function"
    },
    {
      "inputs": [
        {
          "internalType": "bytes4",
          "name": "interfaceId",
          "type": "bytes4"
        }
      ],
      "name": "supportsInterface",
      "outputs": [
        {
          "internalType": "bool",
          "name": "",
          "type": "bool"
        }
      ],
      "stateMutability": "view",
      "type": "function"
    },
    {
      "inputs": [],
      "name": "symbol",
      "outputs": [
        {
          "internalType": "string",
          "name": "",
          "type": "string"
        }
      ],
      "stateMutability": "view",
      "type": "function"
    },
    {
      "inputs": [],
      "name": "token",
      "outputs": [
        {
          "internalType": "address",
          "name": "",
          "type": "address"
        }
      ],
      "stateMutability": "view",
      "type": "function"
    },
    {
      "inputs": [],
      "name": "totalSupply",
      "outputs": [
        {
          "internalType": "uint256",
          "name": "",
          "type": "uint256"
        }
      ],
      "stateMutability": "view",
      "type": "function"
    },
    {
      "inputs": [
        {
          "internalType": "address",
          "name": "to",
          "type": "address"
        },
        {
          "internalType": "uint256",
          "name": "amount",
          "type": "uint256"
        }
      ],
      "name": "transfer",
      "outputs": [
        {
          "internalType": "bool",
          "name": "",
          "type": "bool"
        }
      ],
      "stateMutability": "nonpayable",
      "type": "function"
    },
    {
      "inputs": [
        {
          "internalType": "address",
          "name": "from",
          "type": "address"
        },
        {
          "internalType": "address",
          "name": "to",
          "type": "address"
        },
        {
          "internalType": "uint256",
          "name": "amount",
          "type": "uint256"
        }
      ],
      "name": "transferFrom",
      "outputs": [
        {
          "internalType": "bool",
          "name": "",
          "type": "bool"
        }
      ],
      "stateMutability": "nonpayable",
      "type": "function"
    },
    {
      "inputs": [
        {
          "internalType": "address",
          "name": "newOwner",
          "type": "address"
        }
      ],
      "name": "transferOwnership",
      "outputs": [],
      "stateMutability": "nonpayable",
      "type": "function"
    },
    {
      "inputs": [
        {
          "internalType": "uint16",
          "name": "",
          "type": "uint16"
        }
      ],
      "name": "trustedRemoteLookup",
      "outputs": [
        {
          "internalType": "bytes",
          "name": "",
          "type": "bytes"
        }
      ],
      "stateMutability": "view",
      "type": "function"
    },
    {
      "inputs": [],
      "name": "useCustomAdapterParams",
      "outputs": [
        {
          "internalType": "bool",
          "name": "",
          "type": "bool"
        }
      ],
      "stateMutability": "view",
      "type": "function"
    }
  ],
  "bytecode": "0x60a06040523480156200001157600080fd5b506040516200364e3803806200364e833981016040819052620000349162000252565b828282828282808062000047336200008f565b6001600160a01b0316608052505081516200006a90600a906020850190620000df565b5080516200008090600b906020840190620000df565b5050505050505050506200031c565b600080546001600160a01b038381166001600160a01b0319831681178455604051919092169283917f8be0079c531659141344cd1fd0a4f28419497f9722a3daafe3b4186f6b6457e09190a35050565b828054620000ed90620002df565b90600052602060002090601f0160209004810192826200011157600085556200015c565b82601f106200012c57805160ff19168380011785556200015c565b828001600101855582156200015c579182015b828111156200015c5782518255916020019190600101906200013f565b506200016a9291506200016e565b5090565b5b808211156200016a57600081556001016200016f565b634e487b7160e01b600052604160045260246000fd5b600082601f830112620001ad57600080fd5b81516001600160401b0380821115620001ca57620001ca62000185565b604051601f8301601f19908116603f01168101908282118183101715620001f557620001f562000185565b816040528381526020925086838588010111156200021257600080fd5b600091505b8382101562000236578582018301518183018401529082019062000217565b83821115620002485760008385830101525b9695505050505050565b6000806000606084860312156200026857600080fd5b83516001600160401b03808211156200028057600080fd5b6200028e878388016200019b565b94506020860151915080821115620002a557600080fd5b50620002b4868287016200019b565b604086015190935090506001600160a01b0381168114620002d457600080fd5b809150509250925092565b600181811c90821680620002f457607f821691505b602082108114156200031657634e487b7160e01b600052602260045260246000fd5b50919050565b6080516132de620003706000396000818161070d0152818161088801528181610ba701528181610c6701528181610d0501528181610ea2015281816113e30152818161188e015261233501526132de6000f3fe6080604052600436106102715760003560e01c80637533d7881161014f578063baf3292d116100c1578063eab45d9c1161007a578063eab45d9c146107d8578063eb8d72b7146107f8578063ed629c5c14610818578063f2fde38b14610832578063f5ecbdbc14610852578063fc0c546a1461087257600080fd5b8063baf3292d1461072f578063c44618341461074f578063cbed8b9c14610765578063d1deba1f14610785578063dd62ed3e14610798578063df2a5b3b146107b857600080fd5b806395d89b411161011357806395d89b41146106665780639f38369a1461067b578063a457c2d71461069b578063a6c3d165146106bb578063a9059cbb146106db578063b353aaa7146106fb57600080fd5b80637533d788146105965780638cfd8f5c146105b65780638da5cb5b146105ee5780639358928b14610620578063950c8a741461064657600080fd5b806339509351116101e85780634c42899a116101ac5780634c42899a146104a157806351905636146104c95780635b8c41e6146104dc57806366ad5c8a1461052b57806370a082311461054b578063715018a61461058157600080fd5b806339509351146103ff5780633d8b38f61461041f5780633f1f4fa41461043f57806342d65a8d1461046c578063447705151461048c57600080fd5b80630df374831161023a5780630df374831461032f57806310ddb1371461034f57806318160ddd1461036f57806323b872dd1461038e5780632a205e3d146103ae578063313ce567146103e357600080fd5b80621d35671461027657806301ffc9a71461029857806306fdde03146102cd57806307e0db17146102ef578063095ea7b31461030f575b600080fd5b34801561028257600080fd5b506102966102913660046127ff565b610885565b005b3480156102a457600080fd5b506102b86102b3366004612894565b610ab6565b60405190151581526020015b60405180910390f35b3480156102d957600080fd5b506102e2610af4565b6040516102c49190612916565b3480156102fb57600080fd5b5061029661030a366004612929565b610b86565b34801561031b57600080fd5b506102b861032a36600461295b565b610c0f565b34801561033b57600080fd5b5061029661034a366004612987565b610c27565b34801561035b57600080fd5b5061029661036a366004612929565b610c46565b34801561037b57600080fd5b506009545b6040519081526020016102c4565b34801561039a57600080fd5b506102b86103a93660046129a5565b610c9e565b3480156103ba57600080fd5b506103ce6103c93660046129f6565b610cc2565b604080519283526020830191909152016102c4565b3480156103ef57600080fd5b50604051601281526020016102c4565b34801561040b57600080fd5b506102b861041a36600461295b565b610d95565b34801561042b57600080fd5b506102b861043a366004612a95565b610db7565b34801561044b57600080fd5b5061038061045a366004612929565b60036020526000908152604090205481565b34801561047857600080fd5b50610296610487366004612a95565b610e83565b34801561049857600080fd5b50610380600081565b3480156104ad57600080fd5b506104b6600081565b60405161ffff90911681526020016102c4565b6102966104d7366004612ae9565b610f09565b3480156104e857600080fd5b506103806104f7366004612c1f565b6005602090815260009384526040808520845180860184018051928152908401958401959095209452929052825290205481565b34801561053757600080fd5b506102966105463660046127ff565b610f8e565b34801561055757600080fd5b50610380610566366004612cc1565b6001600160a01b031660009081526007602052604090205490565b34801561058d57600080fd5b5061029661106a565b3480156105a257600080fd5b506102e26105b1366004612929565b61107e565b3480156105c257600080fd5b506103806105d1366004612cde565b600260209081526000928352604080842090915290825290205481565b3480156105fa57600080fd5b506000546001600160a01b03165b6040516001600160a01b0390911681526020016102c4565b34801561062c57600080fd5b503060009081526007602052604090205460095403610380565b34801561065257600080fd5b50600454610608906001600160a01b031681565b34801561067257600080fd5b506102e2611118565b34801561068757600080fd5b506102e2610696366004612929565b611127565b3480156106a757600080fd5b506102b86106b636600461295b565b61123e565b3480156106c757600080fd5b506102966106d6366004612a95565b6112b9565b3480156106e757600080fd5b506102b86106f636600461295b565b611359565b34801561070757600080fd5b506106087f000000000000000000000000000000000000000000000000000000000000000081565b34801561073b57600080fd5b5061029661074a366004612cc1565b611367565b34801561075b57600080fd5b5061038061271081565b34801561077157600080fd5b50610296610780366004612d17565b6113c4565b6102966107933660046127ff565b61144e565b3480156107a457600080fd5b506103806107b3366004612d89565b611664565b3480156107c457600080fd5b506102966107d3366004612db7565b61168f565b3480156107e457600080fd5b506102966107f3366004612de7565b611741565b34801561080457600080fd5b50610296610813366004612a95565b61178a565b34801561082457600080fd5b506006546102b89060ff1681565b34801561083e57600080fd5b5061029661084d366004612cc1565b6117e4565b34801561085e57600080fd5b506102e261086d366004612e02565b61185d565b34801561087e57600080fd5b5030610608565b337f00000000000000000000000000000000000000000000000000000000000000006001600160a01b0316146109025760405162461bcd60e51b815260206004820152601e60248201527f4c7a4170703a20696e76616c696420656e64706f696e742063616c6c6572000060448201526064015b60405180910390fd5b61ffff86166000908152600160205260408120805461092090612e53565b80601f016020809104026020016040519081016040528092919081815260200182805461094c90612e53565b80156109995780601f1061096e57610100808354040283529160200191610999565b820191906000526020600020905b81548152906001019060200180831161097c57829003601f168201915b505050505090508051868690501480156109b4575060008151115b80156109dc5750805160208201206040516109d29088908890612e8e565b6040518091039020145b610a375760405162461bcd60e51b815260206004820152602660248201527f4c7a4170703a20696e76616c696420736f757263652073656e64696e6720636f6044820152651b9d1c9858dd60d21b60648201526084016108f9565b610aad8787878080601f01602080910402602001604051908101604052809392919081815260200183838082843760009201919091525050604080516020601f8a018190048102820181019092528881528a93509150889088908190840183828082843760009201919091525061190e92505050565b50505050505050565b60006001600160e01b031982161580610adf57506001600160e01b031982166336372b0760e01b145b80610aee5750610aee82611987565b92915050565b6060600a8054610b0390612e53565b80601f0160208091040260200160405190810160405280929190818152602001828054610b2f90612e53565b8015610b7c5780601f10610b5157610100808354040283529160200191610b7c565b820191906000526020600020905b815481529060010190602001808311610b5f57829003601f168201915b5050505050905090565b610b8e6119bc565b6040516307e0db1760e01b815261ffff821660048201527f00000000000000000000000000000000000000000000000000000000000000006001600160a01b0316906307e0db17906024015b600060405180830381600087803b158015610bf457600080fd5b505af1158015610c08573d6000803e3d6000fd5b5050505050565b600033610c1d818585611a16565b5060019392505050565b610c2f6119bc565b61ffff909116600090815260036020526040902055565b610c4e6119bc565b6040516310ddb13760e01b815261ffff821660048201527f00000000000000000000000000000000000000000000000000000000000000006001600160a01b0316906310ddb13790602401610bda565b600033610cac858285611b3a565b610cb7858585611bb4565b506001949350505050565b600080600080898989604051602001610cde9493929190612ec7565b60408051601f198184030181529082905263040a7bb160e41b825291506001600160a01b037f000000000000000000000000000000000000000000000000000000000000000016906340a7bb1090610d44908d90309086908c908c908c90600401612ef6565b6040805180830381865afa158015610d60573d6000803e3d6000fd5b505050506040513d601f19601f82011682018060405250810190610d849190612f4c565b925092505097509795505050505050565b600033610c1d818585610da88383611664565b610db29190612f86565b611a16565b61ffff831660009081526001602052604081208054829190610dd890612e53565b80601f0160208091040260200160405190810160405280929190818152602001828054610e0490612e53565b8015610e515780601f10610e2657610100808354040283529160200191610e51565b820191906000526020600020905b815481529060010190602001808311610e3457829003601f168201915b505050505090508383604051610e68929190612e8e565b60405180910390208180519060200120149150509392505050565b610e8b6119bc565b6040516342d65a8d60e01b81526001600160a01b037f000000000000000000000000000000000000000000000000000000000000000016906342d65a8d90610edb90869086908690600401612f9e565b600060405180830381600087803b158015610ef557600080fd5b505af1158015610aad573d6000803e3d6000fd5b610f83898989898080601f01602080910402602001604051908101604052809392919081815260200183838082843760009201919091525050604080516020601f8a018190048102820181019092528881528c93508b92508a918a908a9081908401838280828437600092019190915250611d8292505050565b505050505050505050565b333014610fec5760405162461bcd60e51b815260206004820152602660248201527f4e6f6e626c6f636b696e674c7a4170703a2063616c6c6572206d7573742062656044820152650204c7a4170760d41b60648201526084016108f9565b6110628686868080601f01602080910402602001604051908101604052809392919081815260200183838082843760009201919091525050604080516020601f890181900481028201810190925287815289935091508790879081908401838280828437600092019190915250611e2992505050565b505050505050565b6110726119bc565b61107c6000611e90565b565b6001602052600090815260409020805461109790612e53565b80601f01602080910402602001604051908101604052809291908181526020018280546110c390612e53565b80156111105780601f106110e557610100808354040283529160200191611110565b820191906000526020600020905b8154815290600101906020018083116110f357829003601f168201915b505050505081565b6060600b8054610b0390612e53565b61ffff811660009081526001602052604081208054606092919061114a90612e53565b80601f016020809104026020016040519081016040528092919081815260200182805461117690612e53565b80156111c35780601f10611198576101008083540402835291602001916111c3565b820191906000526020600020905b8154815290600101906020018083116111a657829003601f168201915b5050505050905080516000141561121c5760405162461bcd60e51b815260206004820152601d60248201527f4c7a4170703a206e6f20747275737465642070617468207265636f726400000060448201526064016108f9565b61123760006014835161122f9190612fbc565b839190611ee0565b9392505050565b6000338161124c8286611664565b9050838110156112ac5760405162461bcd60e51b815260206004820152602560248201527f45524332303a2064656372656173656420616c6c6f77616e63652062656c6f77604482015264207a65726f60d81b60648201526084016108f9565b610cb78286868403611a16565b6112c16119bc565b8181306040516020016112d693929190612fd3565b60408051601f1981840301815291815261ffff8516600090815260016020908152919020825161130b9391929091019061267e565b506113198361ffff16611fed565b7f8c0400cfe2d1199b1a725c78960bcc2a344d869b80590d0f2bd005db15a572ce83838360405161134c93929190612f9e565b60405180910390a1505050565b600033610c1d818585611bb4565b61136f6119bc565b600480546001600160a01b0319166001600160a01b0383169081179091556040519081527f5db758e995a17ec1ad84bdef7e8c3293a0bd6179bcce400dff5d4c3d87db726b906020015b60405180910390a150565b6113cc6119bc565b6040516332fb62e760e21b81526001600160a01b037f0000000000000000000000000000000000000000000000000000000000000000169063cbed8b9c906114209088908890889088908890600401612ff9565b600060405180830381600087803b15801561143a57600080fd5b505af1158015610f83573d6000803e3d6000fd5b61ffff861660009081526005602052604080822090516114719088908890612e8e565b90815260408051602092819003830190206001600160401b038716600090815292529020549050806114f15760405162461bcd60e51b815260206004820152602360248201527f4e6f6e626c6f636b696e674c7a4170703a206e6f2073746f726564206d65737360448201526261676560e81b60648201526084016108f9565b808383604051611502929190612e8e565b6040518091039020146115615760405162461bcd60e51b815260206004820152602160248201527f4e6f6e626c6f636b696e674c7a4170703a20696e76616c6964207061796c6f616044820152601960fa1b60648201526084016108f9565b61ffff871660009081526005602052604080822090516115849089908990612e8e565b90815260408051602092819003830181206001600160401b038916600090815290845282902093909355601f8801829004820283018201905286825261161c918991899089908190840183828082843760009201919091525050604080516020601f8a018190048102820181019092528881528a935091508890889081908401838280828437600092019190915250611e2992505050565b7fc264d91f3adc5588250e1551f547752ca0cfa8f6b530d243b9f9f4cab10ea8e58787878785604051611653959493929190613032565b60405180910390a150505050505050565b6001600160a01b03918216600090815260086020908152604080832093909416825291909152205490565b6116976119bc565b600081116116df5760405162461bcd60e51b81526020600482015260156024820152744c7a4170703a20696e76616c6964206d696e47617360581b60448201526064016108f9565b61ffff83811660008181526002602090815260408083209487168084529482529182902085905581519283528201929092529081018290527f9d5c7c0b934da8fefa9c7760c98383778a12dfbfc0c3b3106518f43fb9508ac09060600161134c565b6117496119bc565b6006805460ff19168215159081179091556040519081527f1584ad594a70cbe1e6515592e1272a987d922b097ead875069cebe8b40c004a4906020016113b9565b6117926119bc565b61ffff831660009081526001602052604090206117b0908383612702565b507ffa41487ad5d6728f0b19276fa1eddc16558578f5109fc39d2dc33c3230470dab83838360405161134c93929190612f9e565b6117ec6119bc565b6001600160a01b0381166118515760405162461bcd60e51b815260206004820152602660248201527f4f776e61626c653a206e6577206f776e657220697320746865207a65726f206160448201526564647265737360d01b60648201526084016108f9565b61185a81611e90565b50565b604051633d7b2f6f60e21b815261ffff808616600483015284166024820152306044820152606481018290526060907f00000000000000000000000000000000000000000000000000000000000000006001600160a01b03169063f5ecbdbc90608401600060405180830381865afa1580156118dd573d6000803e3d6000fd5b505050506040513d6000823e601f3d908101601f1916820160405261190591908101906130ba565b95945050505050565b6000806119715a60966366ad5c8a60e01b8989898960405160240161193694939291906130ee565b60408051601f198184030181529190526020810180516001600160e01b03166001600160e01b03199093169290921790915230929190612032565b91509150816110625761106286868686856120bc565b60006001600160e01b03198216630a72677560e11b1480610aee57506301ffc9a760e01b6001600160e01b0319831614610aee565b6000546001600160a01b0316331461107c5760405162461bcd60e51b815260206004820181905260248201527f4f776e61626c653a2063616c6c6572206973206e6f7420746865206f776e657260448201526064016108f9565b6001600160a01b038316611a785760405162461bcd60e51b8152602060048201526024808201527f45524332303a20617070726f76652066726f6d20746865207a65726f206164646044820152637265737360e01b60648201526084016108f9565b6001600160a01b038216611ad95760405162461bcd60e51b815260206004820152602260248201527f45524332303a20617070726f766520746f20746865207a65726f206164647265604482015261737360f01b60648201526084016108f9565b6001600160a01b0383811660008181526008602090815260408083209487168084529482529182902085905590518481527f8c5be1e5ebec7d5bd14f71427d1e84f3dd0314c0f7b2291e5b200ac8c7c3b925910160405180910390a3505050565b6000611b468484611664565b90506000198114611bae5781811015611ba15760405162461bcd60e51b815260206004820152601d60248201527f45524332303a20696e73756666696369656e7420616c6c6f77616e636500000060448201526064016108f9565b611bae8484848403611a16565b50505050565b6001600160a01b038316611c185760405162461bcd60e51b815260206004820152602560248201527f45524332303a207472616e736665722066726f6d20746865207a65726f206164604482015264647265737360d81b60648201526084016108f9565b6001600160a01b038216611c7a5760405162461bcd60e51b815260206004820152602360248201527f45524332303a207472616e7366657220746f20746865207a65726f206164647260448201526265737360e81b60648201526084016108f9565b6001600160a01b03831660009081526007602052604090205481811015611cf25760405162461bcd60e51b815260206004820152602660248201527f45524332303a207472616e7366657220616d6f756e7420657863656564732062604482015265616c616e636560d01b60648201526084016108f9565b6001600160a01b03808516600090815260076020526040808220858503905591851681529081208054849290611d29908490612f86565b92505081905550826001600160a01b0316846001600160a01b03167fddf252ad1be2c89b69c2b068fc378daa952ba7f163c4a11628f55a4df523b3ef84604051611d7591815260200190565b60405180910390a3611bae565b611d9086600083600061215e565b6000611d9e888888886121d8565b90506000808783604051602001611db79392919061312c565b6040516020818303038152906040529050611dd688828787873461220b565b886001600160a01b03168861ffff167f39a4c66499bcf4b56d79f0dde8ed7a9d4925a0df55825206b2b8531e202be0d08985604051611e16929190613159565b60405180910390a3505050505050505050565b602081015161ffff8116611e4857611e43858585856123b1565b610c08565b60405162461bcd60e51b815260206004820152601c60248201527f4f4654436f72653a20756e6b6e6f776e207061636b657420747970650000000060448201526064016108f9565b600080546001600160a01b038381166001600160a01b0319831681178455604051919092169283917f8be0079c531659141344cd1fd0a4f28419497f9722a3daafe3b4186f6b6457e09190a35050565b606081611eee81601f612f86565b1015611f2d5760405162461bcd60e51b815260206004820152600e60248201526d736c6963655f6f766572666c6f7760901b60448201526064016108f9565b611f378284612f86565b84511015611f7b5760405162461bcd60e51b8152602060048201526011602482015270736c6963655f6f75744f66426f756e647360781b60448201526064016108f9565b606082158015611f9a5760405191506000825260208201604052611fe4565b6040519150601f8416801560200281840101858101878315602002848b0101015b81831015611fd3578051835260209283019201611fbb565b5050858452601f01601f1916604052505b50949350505050565b61185a8160405160240161200391815260200190565b60408051601f198184030181529190526020810180516001600160e01b031663f82c50f160e01b17905261243b565b6000606060008060008661ffff166001600160401b0381111561205757612057612bb2565b6040519080825280601f01601f191660200182016040528015612081576020820181803683370190505b50905060008087516020890160008d8df191503d9250868311156120a3578692505b828152826000602083013e909890975095505050505050565b8180519060200120600560008761ffff1661ffff168152602001908152602001600020856040516120ed919061317b565b9081526040805191829003602090810183206001600160401b0388166000908152915220919091557fe183f33de2837795525b4792ca4cd60535bd77c53b7e7030060bfcf5734d6b0c9061214a9087908790879087908790613197565b60405180910390a15050505050565b505050565b60065460ff161561217a576121758484848461245c565b611bae565b815115611bae5760405162461bcd60e51b815260206004820152602660248201527f4f4654436f72653a205f61646170746572506172616d73206d7573742062652060448201526532b6b83a3c9760d11b60648201526084016108f9565b6000336001600160a01b03861681146121f6576121f6868285611b3a565b612201863085611bb4565b5090949350505050565b61ffff86166000908152600160205260408120805461222990612e53565b80601f016020809104026020016040519081016040528092919081815260200182805461225590612e53565b80156122a25780601f10612277576101008083540402835291602001916122a2565b820191906000526020600020905b81548152906001019060200180831161228557829003601f168201915b505050505090508051600014156123145760405162461bcd60e51b815260206004820152603060248201527f4c7a4170703a2064657374696e6174696f6e20636861696e206973206e6f742060448201526f61207472757374656420736f7572636560801b60648201526084016108f9565b61231f87875161253b565b60405162c5803160e81b81526001600160a01b037f0000000000000000000000000000000000000000000000000000000000000000169063c5803100908490612376908b9086908c908c908c908c906004016131f5565b6000604051808303818588803b15801561238f57600080fd5b505af11580156123a3573d6000803e3d6000fd5b505050505050505050505050565b600080828060200190518101906123c8919061324f565b9093509150600090506123db83826125a9565b90506123e887828461260e565b9150806001600160a01b03168761ffff167fbf551ec93859b170f9b2141bd9298bf3f64322c6f7beb2543a0cb669834118bf8460405161242a91815260200190565b60405180910390a350505050505050565b80516a636f6e736f6c652e6c6f67602083016000808483855afa5050505050565b600061246783612622565b61ffff808716600090815260026020908152604080832093891683529290529081205491925090612499908490612f86565b9050600081116124eb5760405162461bcd60e51b815260206004820152601a60248201527f4c7a4170703a206d696e4761734c696d6974206e6f742073657400000000000060448201526064016108f9565b808210156110625760405162461bcd60e51b815260206004820152601b60248201527f4c7a4170703a20676173206c696d697420697320746f6f206c6f77000000000060448201526064016108f9565b61ffff82166000908152600360205260409020548061255957506127105b808211156121595760405162461bcd60e51b815260206004820181905260248201527f4c7a4170703a207061796c6f61642073697a6520697320746f6f206c6172676560448201526064016108f9565b60006125b6826014612f86565b835110156125fe5760405162461bcd60e51b8152602060048201526015602482015274746f416464726573735f6f75744f66426f756e647360581b60448201526064016108f9565b500160200151600160601b900490565b600061261b308484611bb4565b5092915050565b60006022825110156126765760405162461bcd60e51b815260206004820152601c60248201527f4c7a4170703a20696e76616c69642061646170746572506172616d730000000060448201526064016108f9565b506022015190565b82805461268a90612e53565b90600052602060002090601f0160209004810192826126ac57600085556126f2565b82601f106126c557805160ff19168380011785556126f2565b828001600101855582156126f2579182015b828111156126f25782518255916020019190600101906126d7565b506126fe929150612776565b5090565b82805461270e90612e53565b90600052602060002090601f01602090048101928261273057600085556126f2565b82601f106127495782800160ff198235161785556126f2565b828001600101855582156126f2579182015b828111156126f257823582559160200191906001019061275b565b5b808211156126fe5760008155600101612777565b61ffff8116811461185a57600080fd5b60008083601f8401126127ad57600080fd5b5081356001600160401b038111156127c457600080fd5b6020830191508360208285010111156127dc57600080fd5b9250929050565b80356001600160401b03811681146127fa57600080fd5b919050565b6000806000806000806080878903121561281857600080fd5b86356128238161278b565b955060208701356001600160401b038082111561283f57600080fd5b61284b8a838b0161279b565b909750955085915061285f60408a016127e3565b9450606089013591508082111561287557600080fd5b5061288289828a0161279b565b979a9699509497509295939492505050565b6000602082840312156128a657600080fd5b81356001600160e01b03198116811461123757600080fd5b60005b838110156128d95781810151838201526020016128c1565b83811115611bae5750506000910152565b600081518084526129028160208601602086016128be565b601f01601f19169290920160200192915050565b60208152600061123760208301846128ea565b60006020828403121561293b57600080fd5b81356112378161278b565b6001600160a01b038116811461185a57600080fd5b6000806040838503121561296e57600080fd5b823561297981612946565b946020939093013593505050565b6000806040838503121561299a57600080fd5b82356129798161278b565b6000806000606084860312156129ba57600080fd5b83356129c581612946565b925060208401356129d581612946565b929592945050506040919091013590565b803580151581146127fa57600080fd5b600080600080600080600060a0888a031215612a1157600080fd5b8735612a1c8161278b565b965060208801356001600160401b0380821115612a3857600080fd5b612a448b838c0161279b565b909850965060408a01359550869150612a5f60608b016129e6565b945060808a0135915080821115612a7557600080fd5b50612a828a828b0161279b565b989b979a50959850939692959293505050565b600080600060408486031215612aaa57600080fd5b8335612ab58161278b565b925060208401356001600160401b03811115612ad057600080fd5b612adc8682870161279b565b9497909650939450505050565b600080600080600080600080600060e08a8c031215612b0757600080fd5b8935612b1281612946565b985060208a0135612b228161278b565b975060408a01356001600160401b0380821115612b3e57600080fd5b612b4a8d838e0161279b565b909950975060608c0135965060808c01359150612b6682612946565b90945060a08b013590612b7882612946565b90935060c08b01359080821115612b8e57600080fd5b50612b9b8c828d0161279b565b915080935050809150509295985092959850929598565b634e487b7160e01b600052604160045260246000fd5b604051601f8201601f191681016001600160401b0381118282101715612bf057612bf0612bb2565b604052919050565b60006001600160401b03821115612c1157612c11612bb2565b50601f01601f191660200190565b600080600060608486031215612c3457600080fd5b8335612c3f8161278b565b925060208401356001600160401b03811115612c5a57600080fd5b8401601f81018613612c6b57600080fd5b8035612c7e612c7982612bf8565b612bc8565b818152876020838501011115612c9357600080fd5b81602084016020830137600060208383010152809450505050612cb8604085016127e3565b90509250925092565b600060208284031215612cd357600080fd5b813561123781612946565b60008060408385031215612cf157600080fd5b8235612cfc8161278b565b91506020830135612d0c8161278b565b809150509250929050565b600080600080600060808688031215612d2f57600080fd5b8535612d3a8161278b565b94506020860135612d4a8161278b565b93506040860135925060608601356001600160401b03811115612d6c57600080fd5b612d788882890161279b565b969995985093965092949392505050565b60008060408385031215612d9c57600080fd5b8235612da781612946565b91506020830135612d0c81612946565b600080600060608486031215612dcc57600080fd5b8335612dd78161278b565b925060208401356129d58161278b565b600060208284031215612df957600080fd5b611237826129e6565b60008060008060808587031215612e1857600080fd5b8435612e238161278b565b93506020850135612e338161278b565b92506040850135612e4381612946565b9396929550929360600135925050565b600181811c90821680612e6757607f821691505b60208210811415612e8857634e487b7160e01b600052602260045260246000fd5b50919050565b8183823760009101908152919050565b81835281816020850137506000828201602090810191909152601f909101601f19169091010190565b61ffff85168152606060208201526000612ee5606083018587612e9e565b905082604083015295945050505050565b61ffff871681526001600160a01b038616602082015260a060408201819052600090612f24908301876128ea565b85151560608401528281036080840152612f3f818587612e9e565b9998505050505050505050565b60008060408385031215612f5f57600080fd5b505080516020909101519092909150565b634e487b7160e01b600052601160045260246000fd5b60008219821115612f9957612f99612f70565b500190565b61ffff84168152604060208201526000611905604083018486612e9e565b600082821015612fce57612fce612f70565b500390565b8284823760609190911b6bffffffffffffffffffffffff19169101908152601401919050565b600061ffff808816835280871660208401525084604083015260806060830152613027608083018486612e9e565b979650505050505050565b61ffff86168152608060208201526000613050608083018688612e9e565b6001600160401b0394909416604083015250606001529392505050565b600082601f83011261307e57600080fd5b815161308c612c7982612bf8565b8181528460208386010111156130a157600080fd5b6130b28260208301602087016128be565b949350505050565b6000602082840312156130cc57600080fd5b81516001600160401b038111156130e257600080fd5b6130b28482850161306d565b61ffff8516815260806020820152600061310b60808301866128ea565b6001600160401b0385166040840152828103606084015261302781856128ea565b61ffff8416815260606020820152600061314960608301856128ea565b9050826040830152949350505050565b60408152600061316c60408301856128ea565b90508260208301529392505050565b6000825161318d8184602087016128be565b9190910192915050565b61ffff8616815260a0602082015260006131b460a08301876128ea565b6001600160401b038616604084015282810360608401526131d581866128ea565b905082810360808401526131e981856128ea565b98975050505050505050565b61ffff8716815260c06020820152600061321260c08301886128ea565b828103604084015261322481886128ea565b6001600160a01b0387811660608601528616608085015283810360a08501529050612f3f81856128ea565b60008060006060848603121561326457600080fd5b835161326f8161278b565b60208501519093506001600160401b0381111561328b57600080fd5b6132978682870161306d565b92505060408401519050925092509256fea26469706673582212201ffe16143b4fd71f38194835e69ea5ce3fa4e9e3ab469a5c02b1c145c5adf6f864736f6c634300080c0033",
  "linkReferences": {},
  "deployedLinkReferences": {}
}