{
  "_format": "hh-sol-artifact-1",
  "contractName": "OFTV2",
  "sourceName": "contracts/token/oft/v2/OFTV2.sol",
  "abi": [
    {
      "inputs": [
        {
          "internalType": "string",
          "name": "_name",
          "type": "string"
        },
        {
          "internalType": "string",
          "name": "_symbol",
          "type": "string"
        },
        {
          "internalType": "uint8",
          "name": "_sharedDecimals",
          "type": "uint8"
        },
        {
          "internalType": "address",
          "name": "_lzEndpoint",
          "type": "address"
        }
      ],
      "stateMutability": "nonpayable",
      "type": "constructor"
    },
    {
      "anonymous": false,
      "inputs": [
        {
          "indexed": true,
          "internalType": "address",
          "name": "owner",
          "type": "address"
        },
        {
          "indexed": true,
          "internalType": "address",
          "name": "spender",
          "type": "address"
        },
        {
          "indexed": false,
          "internalType": "uint256",
          "name": "value",
          "type": "uint256"
        }
      ],
      "name": "Approval",
      "type": "event"
    },
    {
      "anonymous": false,
      "inputs": [
        {
          "indexed": true,
          "internalType": "uint16",
          "name": "_srcChainId",
          "type": "uint16"
        },
        {
          "indexed": false,
          "internalType": "bytes",
          "name": "_srcAddress",
          "type": "bytes"
        },
        {
          "indexed": false,
          "internalType": "uint64",
          "name": "_nonce",
          "type": "uint64"
        },
        {
          "indexed": false,
          "internalType": "bytes32",
          "name": "_hash",
          "type": "bytes32"
        }
      ],
      "name": "CallOFTReceivedSuccess",
      "type": "event"
    },
    {
      "anonymous": false,
      "inputs": [
        {
          "indexed": false,
          "internalType": "uint16",
          "name": "_srcChainId",
          "type": "uint16"
        },
        {
          "indexed": false,
          "internalType": "bytes",
          "name": "_srcAddress",
          "type": "bytes"
        },
        {
          "indexed": false,
          "internalType": "uint64",
          "name": "_nonce",
          "type": "uint64"
        },
        {
          "indexed": false,
          "internalType": "bytes",
          "name": "_payload",
          "type": "bytes"
        },
        {
          "indexed": false,
          "internalType": "bytes",
          "name": "_reason",
          "type": "bytes"
        }
      ],
      "name": "MessageFailed",
      "type": "event"
    },
    {
      "anonymous": false,
      "inputs": [
        {
          "indexed": false,
          "internalType": "address",
          "name": "_address",
          "type": "address"
        }
      ],
      "name": "NonContractAddress",
      "type": "event"
    },
    {
      "anonymous": false,
      "inputs": [
        {
          "indexed": true,
          "internalType": "address",
          "name": "previousOwner",
          "type": "address"
        },
        {
          "indexed": true,
          "internalType": "address",
          "name": "newOwner",
          "type": "address"
        }
      ],
      "name": "OwnershipTransferred",
      "type": "event"
    },
    {
      "anonymous": false,
      "inputs": [
        {
          "indexed": true,
          "internalType": "uint16",
          "name": "_srcChainId",
          "type": "uint16"
        },
        {
          "indexed": true,
          "internalType": "address",
          "name": "_to",
          "type": "address"
        },
        {
          "indexed": false,
          "internalType": "uint256",
          "name": "_amount",
          "type": "uint256"
        }
      ],
      "name": "ReceiveFromChain",
      "type": "event"
    },
    {
      "anonymous": false,
      "inputs": [
        {
          "indexed": false,
          "internalType": "uint16",
          "name": "_srcChainId",
          "type": "uint16"
        },
        {
          "indexed": false,
          "internalType": "bytes",
          "name": "_srcAddress",
          "type": "bytes"
        },
        {
          "indexed": false,
          "internalType": "uint64",
          "name": "_nonce",
          "type": "uint64"
        },
        {
          "indexed": false,
          "internalType": "bytes32",
          "name": "_payloadHash",
          "type": "bytes32"
        }
      ],
      "name": "RetryMessageSuccess",
      "type": "event"
    },
    {
      "anonymous": false,
      "inputs": [
        {
          "indexed": true,
          "internalType": "uint16",
          "name": "_dstChainId",
          "type": "uint16"
        },
        {
          "indexed": true,
          "internalType": "address",
          "name": "_from",
          "type": "address"
        },
        {
          "indexed": true,
          "internalType": "bytes32",
          "name": "_toAddress",
          "type": "bytes32"
        },
        {
          "indexed": false,
          "internalType": "uint256",
          "name": "_amount",
          "type": "uint256"
        }
      ],
      "name": "SendToChain",
      "type": "event"
    },
    {
      "anonymous": false,
      "inputs": [
        {
          "indexed": false,
          "internalType": "uint16",
          "name": "_dstChainId",
          "type": "uint16"
        },
        {
          "indexed": false,
          "internalType": "uint16",
          "name": "_type",
          "type": "uint16"
        },
        {
          "indexed": false,
          "internalType": "uint256",
          "name": "_minDstGas",
          "type": "uint256"
        }
      ],
      "name": "SetMinDstGas",
      "type": "event"
    },
    {
      "anonymous": false,
      "inputs": [
        {
          "indexed": false,
          "internalType": "address",
          "name": "precrime",
          "type": "address"
        }
      ],
      "name": "SetPrecrime",
      "type": "event"
    },
    {
      "anonymous": false,
      "inputs": [
        {
          "indexed": false,
          "internalType": "uint16",
          "name": "_remoteChainId",
          "type": "uint16"
        },
        {
          "indexed": false,
          "internalType": "bytes",
          "name": "_path",
          "type": "bytes"
        }
      ],
      "name": "SetTrustedRemote",
      "type": "event"
    },
    {
      "anonymous": false,
      "inputs": [
        {
          "indexed": false,
          "internalType": "uint16",
          "name": "_remoteChainId",
          "type": "uint16"
        },
        {
          "indexed": false,
          "internalType": "bytes",
          "name": "_remoteAddress",
          "type": "bytes"
        }
      ],
      "name": "SetTrustedRemoteAddress",
      "type": "event"
    },
    {
      "anonymous": false,
      "inputs": [
        {
          "indexed": false,
          "internalType": "bool",
          "name": "_useCustomAdapterParams",
          "type": "bool"
        }
      ],
      "name": "SetUseCustomAdapterParams",
      "type": "event"
    },
    {
      "anonymous": false,
      "inputs": [
        {
          "indexed": true,
          "internalType": "address",
          "name": "from",
          "type": "address"
        },
        {
          "indexed": true,
          "internalType": "address",
          "name": "to",
          "type": "address"
        },
        {
          "indexed": false,
          "internalType": "uint256",
          "name": "value",
          "type": "uint256"
        }
      ],
      "name": "Transfer",
      "type": "event"
    },
    {
      "inputs": [],
      "name": "DEFAULT_PAYLOAD_SIZE_LIMIT",
      "outputs": [
        {
          "internalType": "uint256",
          "name": "",
          "type": "uint256"
        }
      ],
      "stateMutability": "view",
      "type": "function"
    },
    {
      "inputs": [],
      "name": "NO_EXTRA_GAS",
      "outputs": [
        {
          "internalType": "uint256",
          "name": "",
          "type": "uint256"
        }
      ],
      "stateMutability": "view",
      "type": "function"
    },
    {
      "inputs": [],
      "name": "PT_SEND",
      "outputs": [
        {
          "internalType": "uint8",
          "name": "",
          "type": "uint8"
        }
      ],
      "stateMutability": "view",
      "type": "function"
    },
    {
      "inputs": [],
      "name": "PT_SEND_AND_CALL",
      "outputs": [
        {
          "internalType": "uint8",
          "name": "",
          "type": "uint8"
        }
      ],
      "stateMutability": "view",
      "type": "function"
    },
    {
      "inputs": [
        {
          "internalType": "address",
          "name": "owner",
          "type": "address"
        },
        {
          "internalType": "address",
          "name": "spender",
          "type": "address"
        }
      ],
      "name": "allowance",
      "outputs": [
        {
          "internalType": "uint256",
          "name": "",
          "type": "uint256"
        }
      ],
      "stateMutability": "view",
      "type": "function"
    },
    {
      "inputs": [
        {
          "internalType": "address",
          "name": "spender",
          "type": "address"
        },
        {
          "internalType": "uint256",
          "name": "amount",
          "type": "uint256"
        }
      ],
      "name": "approve",
      "outputs": [
        {
          "internalType": "bool",
          "name": "",
          "type": "bool"
        }
      ],
      "stateMutability": "nonpayable",
      "type": "function"
    },
    {
      "inputs": [
        {
          "internalType": "address",
          "name": "account",
          "type": "address"
        }
      ],
      "name": "balanceOf",
      "outputs": [
        {
          "internalType": "uint256",
          "name": "",
          "type": "uint256"
        }
      ],
      "stateMutability": "view",
      "type": "function"
    },
    {
      "inputs": [
        {
          "internalType": "uint16",
          "name": "_srcChainId",
          "type": "uint16"
        },
        {
          "internalType": "bytes",
          "name": "_srcAddress",
          "type": "bytes"
        },
        {
          "internalType": "uint64",
          "name": "_nonce",
          "type": "uint64"
        },
        {
          "internalType": "bytes32",
          "name": "_from",
          "type": "bytes32"
        },
        {
          "internalType": "address",
          "name": "_to",
          "type": "address"
        },
        {
          "internalType": "uint256",
          "name": "_amount",
          "type": "uint256"
        },
        {
          "internalType": "bytes",
          "name": "_payload",
          "type": "bytes"
        },
        {
          "internalType": "uint256",
          "name": "_gasForCall",
          "type": "uint256"
        }
      ],
      "name": "callOnOFTReceived",
      "outputs": [],
      "stateMutability": "nonpayable",
      "type": "function"
    },
    {
      "inputs": [],
      "name": "circulatingSupply",
      "outputs": [
        {
          "internalType": "uint256",
          "name": "",
          "type": "uint256"
        }
      ],
      "stateMutability": "view",
      "type": "function"
    },
    {
      "inputs": [
        {
          "internalType": "uint16",
          "name": "",
          "type": "uint16"
        },
        {
          "internalType": "bytes",
          "name": "",
          "type": "bytes"
        },
        {
          "internalType": "uint64",
          "name": "",
          "type": "uint64"
        }
      ],
      "name": "creditedPackets",
      "outputs": [
        {
          "internalType": "bool",
          "name": "",
          "type": "bool"
        }
      ],
      "stateMutability": "view",
      "type": "function"
    },
    {
      "inputs": [],
      "name": "decimals",
      "outputs": [
        {
          "internalType": "uint8",
          "name": "",
          "type": "uint8"
        }
      ],
      "stateMutability": "view",
      "type": "function"
    },
    {
      "inputs": [
        {
          "internalType": "address",
          "name": "spender",
          "type": "address"
        },
        {
          "internalType": "uint256",
          "name": "subtractedValue",
          "type": "uint256"
        }
      ],
      "name": "decreaseAllowance",
      "outputs": [
        {
          "internalType": "bool",
          "name": "",
          "type": "bool"
        }
      ],
      "stateMutability": "nonpayable",
      "type": "function"
    },
    {
      "inputs": [
        {
          "internalType": "uint16",
          "name": "_dstChainId",
          "type": "uint16"
        },
        {
          "internalType": "bytes32",
          "name": "_toAddress",
          "type": "bytes32"
        },
        {
          "internalType": "uint256",
          "name": "_amount",
          "type": "uint256"
        },
        {
          "internalType": "bytes",
          "name": "_payload",
          "type": "bytes"
        },
        {
          "internalType": "uint64",
          "name": "_dstGasForCall",
          "type": "uint64"
        },
        {
          "internalType": "bool",
          "name": "_useZro",
          "type": "bool"
        },
        {
          "internalType": "bytes",
          "name": "_adapterParams",
          "type": "bytes"
        }
      ],
      "name": "estimateSendAndCallFee",
      "outputs": [
        {
          "internalType": "uint256",
          "name": "nativeFee",
          "type": "uint256"
        },
        {
          "internalType": "uint256",
          "name": "zroFee",
          "type": "uint256"
        }
      ],
      "stateMutability": "view",
      "type": "function"
    },
    {
      "inputs": [
        {
          "internalType": "uint16",
          "name": "_dstChainId",
          "type": "uint16"
        },
        {
          "internalType": "bytes32",
          "name": "_toAddress",
          "type": "bytes32"
        },
        {
          "internalType": "uint256",
          "name": "_amount",
          "type": "uint256"
        },
        {
          "internalType": "bool",
          "name": "_useZro",
          "type": "bool"
        },
        {
          "internalType": "bytes",
          "name": "_adapterParams",
          "type": "bytes"
        }
      ],
      "name": "estimateSendFee",
      "outputs": [
        {
          "internalType": "uint256",
          "name": "nativeFee",
          "type": "uint256"
        },
        {
          "internalType": "uint256",
          "name": "zroFee",
          "type": "uint256"
        }
      ],
      "stateMutability": "view",
      "type": "function"
    },
    {
      "inputs": [
        {
          "internalType": "uint16",
          "name": "",
          "type": "uint16"
        },
        {
          "internalType": "bytes",
          "name": "",
          "type": "bytes"
        },
        {
          "internalType": "uint64",
          "name": "",
          "type": "uint64"
        }
      ],
      "name": "failedMessages",
      "outputs": [
        {
          "internalType": "bytes32",
          "name": "",
          "type": "bytes32"
        }
      ],
      "stateMutability": "view",
      "type": "function"
    },
    {
      "inputs": [
        {
          "internalType": "uint16",
          "name": "_srcChainId",
          "type": "uint16"
        },
        {
          "internalType": "bytes",
          "name": "_srcAddress",
          "type": "bytes"
        }
      ],
      "name": "forceResumeReceive",
      "outputs": [],
      "stateMutability": "nonpayable",
      "type": "function"
    },
    {
      "inputs": [
        {
          "internalType": "uint16",
          "name": "_version",
          "type": "uint16"
        },
        {
          "internalType": "uint16",
          "name": "_chainId",
          "type": "uint16"
        },
        {
          "internalType": "address",
          "name": "",
          "type": "address"
        },
        {
          "internalType": "uint256",
          "name": "_configType",
          "type": "uint256"
        }
      ],
      "name": "getConfig",
      "outputs": [
        {
          "internalType": "bytes",
          "name": "",
          "type": "bytes"
        }
      ],
      "stateMutability": "view",
      "type": "function"
    },
    {
      "inputs": [
        {
          "internalType": "uint16",
          "name": "_remoteChainId",
          "type": "uint16"
        }
      ],
      "name": "getTrustedRemoteAddress",
      "outputs": [
        {
          "internalType": "bytes",
          "name": "",
          "type": "bytes"
        }
      ],
      "stateMutability": "view",
      "type": "function"
    },
    {
      "inputs": [
        {
          "internalType": "address",
          "name": "spender",
          "type": "address"
        },
        {
          "internalType": "uint256",
          "name": "addedValue",
          "type": "uint256"
        }
      ],
      "name": "increaseAllowance",
      "outputs": [
        {
          "internalType": "bool",
          "name": "",
          "type": "bool"
        }
      ],
      "stateMutability": "nonpayable",
      "type": "function"
    },
    {
      "inputs": [
        {
          "internalType": "uint16",
          "name": "_srcChainId",
          "type": "uint16"
        },
        {
          "internalType": "bytes",
          "name": "_srcAddress",
          "type": "bytes"
        }
      ],
      "name": "isTrustedRemote",
      "outputs": [
        {
          "internalType": "bool",
          "name": "",
          "type": "bool"
        }
      ],
      "stateMutability": "view",
      "type": "function"
    },
    {
      "inputs": [],
      "name": "lzEndpoint",
      "outputs": [
        {
          "internalType": "contract ILayerZeroEndpoint",
          "name": "",
          "type": "address"
        }
      ],
      "stateMutability": "view",
      "type": "function"
    },
    {
      "inputs": [
        {
          "internalType": "uint16",
          "name": "_srcChainId",
          "type": "uint16"
        },
        {
          "internalType": "bytes",
          "name": "_srcAddress",
          "type": "bytes"
        },
        {
          "internalType": "uint64",
          "name": "_nonce",
          "type": "uint64"
        },
        {
          "internalType": "bytes",
          "name": "_payload",
          "type": "bytes"
        }
      ],
      "name": "lzReceive",
      "outputs": [],
      "stateMutability": "nonpayable",
      "type": "function"
    },
    {
      "inputs": [
        {
          "internalType": "uint16",
          "name": "",
          "type": "uint16"
        },
        {
          "internalType": "uint16",
          "name": "",
          "type": "uint16"
        }
      ],
      "name": "minDstGasLookup",
      "outputs": [
        {
          "internalType": "uint256",
          "name": "",
          "type": "uint256"
        }
      ],
      "stateMutability": "view",
      "type": "function"
    },
    {
      "inputs": [],
      "name": "name",
      "outputs": [
        {
          "internalType": "string",
          "name": "",
          "type": "string"
        }
      ],
      "stateMutability": "view",
      "type": "function"
    },
    {
      "inputs": [
        {
          "internalType": "uint16",
          "name": "_srcChainId",
          "type": "uint16"
        },
        {
          "internalType": "bytes",
          "name": "_srcAddress",
          "type": "bytes"
        },
        {
          "internalType": "uint64",
          "name": "_nonce",
          "type": "uint64"
        },
        {
          "internalType": "bytes",
          "name": "_payload",
          "type": "bytes"
        }
      ],
      "name": "nonblockingLzReceive",
      "outputs": [],
      "stateMutability": "nonpayable",
      "type": "function"
    },
    {
      "inputs": [],
      "name": "owner",
      "outputs": [
        {
          "internalType": "address",
          "name": "",
          "type": "address"
        }
      ],
      "stateMutability": "view",
      "type": "function"
    },
    {
      "inputs": [
        {
          "internalType": "uint16",
          "name": "",
          "type": "uint16"
        }
      ],
      "name": "payloadSizeLimitLookup",
      "outputs": [
        {
          "internalType": "uint256",
          "name": "",
          "type": "uint256"
        }
      ],
      "stateMutability": "view",
      "type": "function"
    },
    {
      "inputs": [],
      "name": "precrime",
      "outputs": [
        {
          "internalType": "address",
          "name": "",
          "type": "address"
        }
      ],
      "stateMutability": "view",
      "type": "function"
    },
    {
      "inputs": [],
      "name": "renounceOwnership",
      "outputs": [],
      "stateMutability": "nonpayable",
      "type": "function"
    },
    {
      "inputs": [
        {
          "internalType": "uint16",
          "name": "_srcChainId",
          "type": "uint16"
        },
        {
          "internalType": "bytes",
          "name": "_srcAddress",
          "type": "bytes"
        },
        {
          "internalType": "uint64",
          "name": "_nonce",
          "type": "uint64"
        },
        {
          "internalType": "bytes",
          "name": "_payload",
          "type": "bytes"
        }
      ],
      "name": "retryMessage",
      "outputs": [],
      "stateMutability": "payable",
      "type": "function"
    },
    {
      "inputs": [
        {
          "internalType": "address",
          "name": "_from",
          "type": "address"
        },
        {
          "internalType": "uint16",
          "name": "_dstChainId",
          "type": "uint16"
        },
        {
          "internalType": "bytes32",
          "name": "_toAddress",
          "type": "bytes32"
        },
        {
          "internalType": "uint256",
          "name": "_amount",
          "type": "uint256"
        },
        {
          "internalType": "bytes",
          "name": "_payload",
          "type": "bytes"
        },
        {
          "internalType": "uint64",
          "name": "_dstGasForCall",
          "type": "uint64"
        },
        {
          "components": [
            {
              "internalType": "address payable",
              "name": "refundAddress",
              "type": "address"
            },
            {
              "internalType": "address",
              "name": "zroPaymentAddress",
              "type": "address"
            },
            {
              "internalType": "bytes",
              "name": "adapterParams",
              "type": "bytes"
            }
          ],
          "internalType": "struct ICommonOFT.LzCallParams",
          "name": "_callParams",
          "type": "tuple"
        }
      ],
      "name": "sendAndCall",
      "outputs": [],
      "stateMutability": "payable",
      "type": "function"
    },
    {
      "inputs": [
        {
          "internalType": "address",
          "name": "_from",
          "type": "address"
        },
        {
          "internalType": "uint16",
          "name": "_dstChainId",
          "type": "uint16"
        },
        {
          "internalType": "bytes32",
          "name": "_toAddress",
          "type": "bytes32"
        },
        {
          "internalType": "uint256",
          "name": "_amount",
          "type": "uint256"
        },
        {
          "components": [
            {
              "internalType": "address payable",
              "name": "refundAddress",
              "type": "address"
            },
            {
              "internalType": "address",
              "name": "zroPaymentAddress",
              "type": "address"
            },
            {
              "internalType": "bytes",
              "name": "adapterParams",
              "type": "bytes"
            }
          ],
          "internalType": "struct ICommonOFT.LzCallParams",
          "name": "_callParams",
          "type": "tuple"
        }
      ],
      "name": "sendFrom",
      "outputs": [],
      "stateMutability": "payable",
      "type": "function"
    },
    {
      "inputs": [
        {
          "internalType": "uint16",
          "name": "_version",
          "type": "uint16"
        },
        {
          "internalType": "uint16",
          "name": "_chainId",
          "type": "uint16"
        },
        {
          "internalType": "uint256",
          "name": "_configType",
          "type": "uint256"
        },
        {
          "internalType": "bytes",
          "name": "_config",
          "type": "bytes"
        }
      ],
      "name": "setConfig",
      "outputs": [],
      "stateMutability": "nonpayable",
      "type": "function"
    },
    {
      "inputs": [
        {
          "internalType": "uint16",
          "name": "_dstChainId",
          "type": "uint16"
        },
        {
          "internalType": "uint16",
          "name": "_packetType",
          "type": "uint16"
        },
        {
          "internalType": "uint256",
          "name": "_minGas",
          "type": "uint256"
        }
      ],
      "name": "setMinDstGas",
      "outputs": [],
      "stateMutability": "nonpayable",
      "type": "function"
    },
    {
      "inputs": [
        {
          "internalType": "uint16",
          "name": "_dstChainId",
          "type": "uint16"
        },
        {
          "internalType": "uint256",
          "name": "_size",
          "type": "uint256"
        }
      ],
      "name": "setPayloadSizeLimit",
      "outputs": [],
      "stateMutability": "nonpayable",
      "type": "function"
    },
    {
      "inputs": [
        {
          "internalType": "address",
          "name": "_precrime",
          "type": "address"
        }
      ],
      "name": "setPrecrime",
      "outputs": [],
      "stateMutability": "nonpayable",
      "type": "function"
    },
    {
      "inputs": [
        {
          "internalType": "uint16",
          "name": "_version",
          "type": "uint16"
        }
      ],
      "name": "setReceiveVersion",
      "outputs": [],
      "stateMutability": "nonpayable",
      "type": "function"
    },
    {
      "inputs": [
        {
          "internalType": "uint16",
          "name": "_version",
          "type": "uint16"
        }
      ],
      "name": "setSendVersion",
      "outputs": [],
      "stateMutability": "nonpayable",
      "type": "function"
    },
    {
      "inputs": [
        {
          "internalType": "uint16",
          "name": "_srcChainId",
          "type": "uint16"
        },
        {
          "internalType": "bytes",
          "name": "_path",
          "type": "bytes"
        }
      ],
      "name": "setTrustedRemote",
      "outputs": [],
      "stateMutability": "nonpayable",
      "type": "function"
    },
    {
      "inputs": [
        {
          "internalType": "uint16",
          "name": "_remoteChainId",
          "type": "uint16"
        },
        {
          "internalType": "bytes",
          "name": "_remoteAddress",
          "type": "bytes"
        }
      ],
      "name": "setTrustedRemoteAddress",
      "outputs": [],
      "stateMutability": "nonpayable",
      "type": "function"
    },
    {
      "inputs": [
        {
          "internalType": "bool",
          "name": "_useCustomAdapterParams",
          "type": "bool"
        }
      ],
      "name": "setUseCustomAdapterParams",
      "outputs": [],
      "stateMutability": "nonpayable",
      "type": "function"
    },
    {
      "inputs": [],
      "name": "sharedDecimals",
      "outputs": [
        {
          "internalType": "uint8",
          "name": "",
          "type": "uint8"
        }
      ],
      "stateMutability": "view",
      "type": "function"
    },
    {
      "inputs": [
        {
          "internalType": "bytes4",
          "name": "interfaceId",
          "type": "bytes4"
        }
      ],
      "name": "supportsInterface",
      "outputs": [
        {
          "internalType": "bool",
          "name": "",
          "type": "bool"
        }
      ],
      "stateMutability": "view",
      "type": "function"
    },
    {
      "inputs": [],
      "name": "symbol",
      "outputs": [
        {
          "internalType": "string",
          "name": "",
          "type": "string"
        }
      ],
      "stateMutability": "view",
      "type": "function"
    },
    {
      "inputs": [],
      "name": "token",
      "outputs": [
        {
          "internalType": "address",
          "name": "",
          "type": "address"
        }
      ],
      "stateMutability": "view",
      "type": "function"
    },
    {
      "inputs": [],
      "name": "totalSupply",
      "outputs": [
        {
          "internalType": "uint256",
          "name": "",
          "type": "uint256"
        }
      ],
      "stateMutability": "view",
      "type": "function"
    },
    {
      "inputs": [
        {
          "internalType": "address",
          "name": "to",
          "type": "address"
        },
        {
          "internalType": "uint256",
          "name": "amount",
          "type": "uint256"
        }
      ],
      "name": "transfer",
      "outputs": [
        {
          "internalType": "bool",
          "name": "",
          "type": "bool"
        }
      ],
      "stateMutability": "nonpayable",
      "type": "function"
    },
    {
      "inputs": [
        {
          "internalType": "address",
          "name": "from",
          "type": "address"
        },
        {
          "internalType": "address",
          "name": "to",
          "type": "address"
        },
        {
          "internalType": "uint256",
          "name": "amount",
          "type": "uint256"
        }
      ],
      "name": "transferFrom",
      "outputs": [
        {
          "internalType": "bool",
          "name": "",
          "type": "bool"
        }
      ],
      "stateMutability": "nonpayable",
      "type": "function"
    },
    {
      "inputs": [
        {
          "internalType": "address",
          "name": "newOwner",
          "type": "address"
        }
      ],
      "name": "transferOwnership",
      "outputs": [],
      "stateMutability": "nonpayable",
      "type": "function"
    },
    {
      "inputs": [
        {
          "internalType": "uint16",
          "name": "",
          "type": "uint16"
        }
      ],
      "name": "trustedRemoteLookup",
      "outputs": [
        {
          "internalType": "bytes",
          "name": "",
          "type": "bytes"
        }
      ],
      "stateMutability": "view",
      "type": "function"
    },
    {
      "inputs": [],
      "name": "useCustomAdapterParams",
      "outputs": [
        {
          "internalType": "bool",
          "name": "",
          "type": "bool"
        }
      ],
      "stateMutability": "view",
      "type": "function"
    }
  ],
  "bytecode": "0x60e06040523480156200001157600080fd5b506040516200495b3803806200495b8339810160408190526200003491620002fa565b8383838381818080620000473362000132565b6001600160a01b0316608052505060ff1660a052505081516200007290600b90602085019062000187565b5080516200008890600c90602084019062000187565b50505060006200009d6200018260201b60201c565b90508060ff168360ff1611156200010a5760405162461bcd60e51b815260206004820152602760248201527f4f46543a20736861726564446563696d616c73206d757374206265203c3d20646044820152666563696d616c7360c81b606482015260840160405180910390fd5b620001168382620003b4565b6200012390600a620004d9565b60c052506200052e9350505050565b600080546001600160a01b038381166001600160a01b0319831681178455604051919092169283917f8be0079c531659141344cd1fd0a4f28419497f9722a3daafe3b4186f6b6457e09190a35050565b601290565b8280546200019590620004f1565b90600052602060002090601f016020900481019282620001b9576000855562000204565b82601f10620001d457805160ff191683800117855562000204565b8280016001018555821562000204579182015b8281111562000204578251825591602001919060010190620001e7565b506200021292915062000216565b5090565b5b8082111562000212576000815560010162000217565b634e487b7160e01b600052604160045260246000fd5b600082601f8301126200025557600080fd5b81516001600160401b03808211156200027257620002726200022d565b604051601f8301601f19908116603f011681019082821181831017156200029d576200029d6200022d565b81604052838152602092508683858801011115620002ba57600080fd5b600091505b83821015620002de5785820183015181830184015290820190620002bf565b83821115620002f05760008385830101525b9695505050505050565b600080600080608085870312156200031157600080fd5b84516001600160401b03808211156200032957600080fd5b620003378883890162000243565b955060208701519150808211156200034e57600080fd5b506200035d8782880162000243565b935050604085015160ff811681146200037557600080fd5b60608601519092506001600160a01b03811681146200039357600080fd5b939692955090935050565b634e487b7160e01b600052601160045260246000fd5b600060ff821660ff841680821015620003d157620003d16200039e565b90039392505050565b600181815b808511156200041b578160001904821115620003ff57620003ff6200039e565b808516156200040d57918102915b93841c9390800290620003df565b509250929050565b6000826200043457506001620004d3565b816200044357506000620004d3565b81600181146200045c5760028114620004675762000487565b6001915050620004d3565b60ff8411156200047b576200047b6200039e565b50506001821b620004d3565b5060208310610133831016604e8410600b8410161715620004ac575081810a620004d3565b620004b88383620003da565b8060001904821115620004cf57620004cf6200039e565b0290505b92915050565b6000620004ea60ff84168362000423565b9392505050565b600181811c908216806200050657607f821691505b602082108114156200052857634e487b7160e01b600052602260045260246000fd5b50919050565b60805160a05160c0516143b0620005ab6000396000818161279f01528181612b990152612e970152600061064001526000818161081a015281816109ca01528181610ce201528181610da201528181610f5f015281816115d401528181611b9e015281816120c5015281816125460152612d2d01526143b06000f3fe6080604052600436106102e35760003560e01c80638cfd8f5c11610190578063c4461834116100dc578063eab45d9c11610095578063ed629c5c1161006f578063ed629c5c1461095a578063f2fde38b14610974578063f5ecbdbc14610994578063fc0c546a146109b457600080fd5b8063eab45d9c146108fa578063eaffd49a1461091a578063eb8d72b71461093a57600080fd5b8063c44618341461085c578063cbed8b9c14610872578063d1deba1f14610892578063dd62ed3e146108a5578063df2a5b3b146108c5578063e6a20ae6146108e557600080fd5b80639f38369a11610149578063a6c3d16511610123578063a6c3d165146107c8578063a9059cbb146107e8578063b353aaa714610808578063baf3292d1461083c57600080fd5b80639f38369a14610768578063a457c2d714610788578063a4c51df5146107a857600080fd5b80638cfd8f5c146106625780638da5cb5b1461069a5780639358928b146106cc578063950c8a74146106e157806395d89b41146107015780639bdb98121461071657600080fd5b80633d8b38f61161024f57806366ad5c8a11610208578063715018a6116101e2578063715018a6146105e65780637533d788146105fb57806376203b481461061b578063857749b01461062e57600080fd5b806366ad5c8a1461057d578063695ef6bf1461059d57806370a08231146105b057600080fd5b80633d8b38f6146104975780633f1f4fa4146104b757806342d65a8d146104e457806344770515146105045780634c42899a146105195780635b8c41e61461052e57600080fd5b806310ddb137116102a157806310ddb137146103c157806318160ddd146103e157806323b872dd14610400578063313ce56714610420578063365260b414610442578063395093511461047757600080fd5b80621d3567146102e857806301ffc9a71461030a57806306fdde031461033f57806307e0db1714610361578063095ea7b3146103815780630df37483146103a1575b600080fd5b3480156102f457600080fd5b50610308610303366004613608565b6109c7565b005b34801561031657600080fd5b5061032a61032536600461369b565b610bf8565b60405190151581526020015b60405180910390f35b34801561034b57600080fd5b50610354610c2f565b604051610336919061371d565b34801561036d57600080fd5b5061030861037c366004613730565b610cc1565b34801561038d57600080fd5b5061032a61039c366004613760565b610d4a565b3480156103ad57600080fd5b506103086103bc36600461378c565b610d62565b3480156103cd57600080fd5b506103086103dc366004613730565b610d81565b3480156103ed57600080fd5b50600a545b604051908152602001610336565b34801561040c57600080fd5b5061032a61041b3660046137a8565b610dd9565b34801561042c57600080fd5b5060125b60405160ff9091168152602001610336565b34801561044e57600080fd5b5061046261045d3660046137f9565b610dfd565b60408051928352602083019190915201610336565b34801561048357600080fd5b5061032a610492366004613760565b610e52565b3480156104a357600080fd5b5061032a6104b236600461385e565b610e74565b3480156104c357600080fd5b506103f26104d2366004613730565b60036020526000908152604090205481565b3480156104f057600080fd5b506103086104ff36600461385e565b610f40565b34801561051057600080fd5b506103f2600081565b34801561052557600080fd5b50610430600081565b34801561053a57600080fd5b506103f261054936600461391d565b6005602090815260009384526040808520845180860184018051928152908401958401959095209452929052825290205481565b34801561058957600080fd5b50610308610598366004613608565b610fc6565b6103086105ab3660046139d5565b6110a2565b3480156105bc57600080fd5b506103f26105cb366004613a48565b6001600160a01b031660009081526008602052604090205490565b3480156105f257600080fd5b5061030861110d565b34801561060757600080fd5b50610354610616366004613730565b611121565b610308610629366004613a65565b6111bb565b34801561063a57600080fd5b506104307f000000000000000000000000000000000000000000000000000000000000000081565b34801561066e57600080fd5b506103f261067d366004613b17565b600260209081526000928352604080842090915290825290205481565b3480156106a657600080fd5b506000546001600160a01b03165b6040516001600160a01b039091168152602001610336565b3480156106d857600080fd5b506103f261126a565b3480156106ed57600080fd5b506004546106b4906001600160a01b031681565b34801561070d57600080fd5b5061035461127a565b34801561072257600080fd5b5061032a61073136600461391d565b6007602090815260009384526040808520845180860184018051928152908401958401959095209452929052825290205460ff1681565b34801561077457600080fd5b50610354610783366004613730565b611289565b34801561079457600080fd5b5061032a6107a3366004613760565b6113a0565b3480156107b457600080fd5b506104626107c3366004613b4a565b61141b565b3480156107d457600080fd5b506103086107e336600461385e565b6114aa565b3480156107f457600080fd5b5061032a610803366004613760565b61154a565b34801561081457600080fd5b506106b47f000000000000000000000000000000000000000000000000000000000000000081565b34801561084857600080fd5b50610308610857366004613a48565b611558565b34801561086857600080fd5b506103f261271081565b34801561087e57600080fd5b5061030861088d366004613c03565b6115b5565b6103086108a0366004613608565b61163f565b3480156108b157600080fd5b506103f26108c0366004613c71565b611855565b3480156108d157600080fd5b506103086108e0366004613caa565b611880565b3480156108f157600080fd5b50610430600181565b34801561090657600080fd5b50610308610915366004613ce6565b611932565b34801561092657600080fd5b50610308610935366004613d01565b61197b565b34801561094657600080fd5b5061030861095536600461385e565b611a9a565b34801561096657600080fd5b5060065461032a9060ff1681565b34801561098057600080fd5b5061030861098f366004613a48565b611af4565b3480156109a057600080fd5b506103546109af366004613dc9565b611b6d565b3480156109c057600080fd5b50306106b4565b337f00000000000000000000000000000000000000000000000000000000000000006001600160a01b031614610a445760405162461bcd60e51b815260206004820152601e60248201527f4c7a4170703a20696e76616c696420656e64706f696e742063616c6c6572000060448201526064015b60405180910390fd5b61ffff861660009081526001602052604081208054610a6290613e16565b80601f0160208091040260200160405190810160405280929190818152602001828054610a8e90613e16565b8015610adb5780601f10610ab057610100808354040283529160200191610adb565b820191906000526020600020905b815481529060010190602001808311610abe57829003601f168201915b50505050509050805186869050148015610af6575060008151115b8015610b1e575080516020820120604051610b149088908890613e4b565b6040518091039020145b610b795760405162461bcd60e51b815260206004820152602660248201527f4c7a4170703a20696e76616c696420736f757263652073656e64696e6720636f6044820152651b9d1c9858dd60d21b6064820152608401610a3b565b610bef8787878080601f01602080910402602001604051908101604052809392919081815260200183838082843760009201919091525050604080516020601f8a018190048102820181019092528881528a935091508890889081908401838280828437600092019190915250611c1e92505050565b50505050505050565b60006001600160e01b03198216631f7ecdf760e01b1480610c2957506301ffc9a760e01b6001600160e01b03198316145b92915050565b6060600b8054610c3e90613e16565b80601f0160208091040260200160405190810160405280929190818152602001828054610c6a90613e16565b8015610cb75780601f10610c8c57610100808354040283529160200191610cb7565b820191906000526020600020905b815481529060010190602001808311610c9a57829003601f168201915b5050505050905090565b610cc9611c97565b6040516307e0db1760e01b815261ffff821660048201527f00000000000000000000000000000000000000000000000000000000000000006001600160a01b0316906307e0db17906024015b600060405180830381600087803b158015610d2f57600080fd5b505af1158015610d43573d6000803e3d6000fd5b5050505050565b600033610d58818585611cf1565b5060019392505050565b610d6a611c97565b61ffff909116600090815260036020526040902055565b610d89611c97565b6040516310ddb13760e01b815261ffff821660048201527f00000000000000000000000000000000000000000000000000000000000000006001600160a01b0316906310ddb13790602401610d15565b600033610de7858285611e15565b610df2858585611e8f565b506001949350505050565b600080610e438888888888888080601f01602080910402602001604051908101604052809392919081815260200183838082843760009201919091525061205d92505050565b91509150965096945050505050565b600033610d58818585610e658383611855565b610e6f9190613e71565b611cf1565b61ffff831660009081526001602052604081208054829190610e9590613e16565b80601f0160208091040260200160405190810160405280929190818152602001828054610ec190613e16565b8015610f0e5780601f10610ee357610100808354040283529160200191610f0e565b820191906000526020600020905b815481529060010190602001808311610ef157829003601f168201915b505050505090508383604051610f25929190613e4b565b60405180910390208180519060200120149150509392505050565b610f48611c97565b6040516342d65a8d60e01b81526001600160a01b037f000000000000000000000000000000000000000000000000000000000000000016906342d65a8d90610f9890869086908690600401613eb2565b600060405180830381600087803b158015610fb257600080fd5b505af1158015610bef573d6000803e3d6000fd5b3330146110245760405162461bcd60e51b815260206004820152602660248201527f4e6f6e626c6f636b696e674c7a4170703a2063616c6c6572206d7573742062656044820152650204c7a4170760d41b6064820152608401610a3b565b61109a8686868080601f01602080910402602001604051908101604052809392919081815260200183838082843760009201919091525050604080516020601f89018190048102820181019092528781528993509150879087908190840183828082843760009201919091525061215192505050565b505050505050565b61109a858585856110b66020870187613a48565b6110c66040880160208901613a48565b6110d36040890189613ed0565b8080601f0160208091040260200160405190810160405280939291908181526020018383808284376000920191909152506121d892505050565b611115611c97565b61111f60006122c0565b565b6001602052600090815260409020805461113a90613e16565b80601f016020809104026020016040519081016040528092919081815260200182805461116690613e16565b80156111b35780601f10611188576101008083540402835291602001916111b3565b820191906000526020600020905b81548152906001019060200180831161119657829003601f168201915b505050505081565b61125f8888888888888080601f0160208091040260200160405190810160405280939291908181526020018383808284376000920191909152508a92506112089150506020890189613a48565b61121860408a0160208b01613a48565b61122560408b018b613ed0565b8080601f01602080910402602001604051908101604052809392919081815260200183838082843760009201919091525061231092505050565b505050505050505050565b6000611275600a5490565b905090565b6060600c8054610c3e90613e16565b61ffff81166000908152600160205260408120805460609291906112ac90613e16565b80601f01602080910402602001604051908101604052809291908181526020018280546112d890613e16565b80156113255780601f106112fa57610100808354040283529160200191611325565b820191906000526020600020905b81548152906001019060200180831161130857829003601f168201915b5050505050905080516000141561137e5760405162461bcd60e51b815260206004820152601d60248201527f4c7a4170703a206e6f20747275737465642070617468207265636f72640000006044820152606401610a3b565b6113996000601483516113919190613f16565b83919061240c565b9392505050565b600033816113ae8286611855565b90508381101561140e5760405162461bcd60e51b815260206004820152602560248201527f45524332303a2064656372656173656420616c6c6f77616e63652062656c6f77604482015264207a65726f60d81b6064820152608401610a3b565b610df28286868403611cf1565b6000806114988b8b8b8b8b8080601f01602080910402602001604051908101604052809392919081815260200183838082843760009201919091525050604080516020601f8d018190048102820181019092528b81528e93508d9250908c908c908190840183828082843760009201919091525061251992505050565b91509150995099975050505050505050565b6114b2611c97565b8181306040516020016114c793929190613f2d565b60408051601f1981840301815291815261ffff851660009081526001602090815291902082516114fc93919290910190613485565b5061150a8361ffff166125d4565b7f8c0400cfe2d1199b1a725c78960bcc2a344d869b80590d0f2bd005db15a572ce83838360405161153d93929190613eb2565b60405180910390a1505050565b600033610d58818585611e8f565b611560611c97565b600480546001600160a01b0319166001600160a01b0383169081179091556040519081527f5db758e995a17ec1ad84bdef7e8c3293a0bd6179bcce400dff5d4c3d87db726b906020015b60405180910390a150565b6115bd611c97565b6040516332fb62e760e21b81526001600160a01b037f0000000000000000000000000000000000000000000000000000000000000000169063cbed8b9c906116119088908890889088908890600401613f53565b600060405180830381600087803b15801561162b57600080fd5b505af115801561125f573d6000803e3d6000fd5b61ffff861660009081526005602052604080822090516116629088908890613e4b565b90815260408051602092819003830190206001600160401b038716600090815292529020549050806116e25760405162461bcd60e51b815260206004820152602360248201527f4e6f6e626c6f636b696e674c7a4170703a206e6f2073746f726564206d65737360448201526261676560e81b6064820152608401610a3b565b8083836040516116f3929190613e4b565b6040518091039020146117525760405162461bcd60e51b815260206004820152602160248201527f4e6f6e626c6f636b696e674c7a4170703a20696e76616c6964207061796c6f616044820152601960fa1b6064820152608401610a3b565b61ffff871660009081526005602052604080822090516117759089908990613e4b565b90815260408051602092819003830181206001600160401b038916600090815290845282902093909355601f8801829004820283018201905286825261180d918991899089908190840183828082843760009201919091525050604080516020601f8a018190048102820181019092528881528a93509150889088908190840183828082843760009201919091525061215192505050565b7fc264d91f3adc5588250e1551f547752ca0cfa8f6b530d243b9f9f4cab10ea8e58787878785604051611844959493929190613f8c565b60405180910390a150505050505050565b6001600160a01b03918216600090815260096020908152604080832093909416825291909152205490565b611888611c97565b600081116118d05760405162461bcd60e51b81526020600482015260156024820152744c7a4170703a20696e76616c6964206d696e47617360581b6044820152606401610a3b565b61ffff83811660008181526002602090815260408083209487168084529482529182902085905581519283528201929092529081018290527f9d5c7c0b934da8fefa9c7760c98383778a12dfbfc0c3b3106518f43fb9508ac09060600161153d565b61193a611c97565b6006805460ff19168215159081179091556040519081527f1584ad594a70cbe1e6515592e1272a987d922b097ead875069cebe8b40c004a4906020016115aa565b3330146119ca5760405162461bcd60e51b815260206004820152601f60248201527f4f4654436f72653a2063616c6c6572206d757374206265204f4654436f7265006044820152606401610a3b565b6119d5308686612619565b9350846001600160a01b03168a61ffff167fbf551ec93859b170f9b2141bd9298bf3f64322c6f7beb2543a0cb669834118bf86604051611a1791815260200190565b60405180910390a3604051633fe79aed60e11b81526001600160a01b03861690637fcf35da908390611a5b908e908e908e908e908e908d908d908d90600401613fc7565b600060405180830381600088803b158015611a7557600080fd5b5087f1158015611a89573d6000803e3d6000fd5b505050505050505050505050505050565b611aa2611c97565b61ffff83166000908152600160205260409020611ac0908383613509565b507ffa41487ad5d6728f0b19276fa1eddc16558578f5109fc39d2dc33c3230470dab83838360405161153d93929190613eb2565b611afc611c97565b6001600160a01b038116611b615760405162461bcd60e51b815260206004820152602660248201527f4f776e61626c653a206e6577206f776e657220697320746865207a65726f206160448201526564647265737360d01b6064820152608401610a3b565b611b6a816122c0565b50565b604051633d7b2f6f60e21b815261ffff808616600483015284166024820152306044820152606481018290526060907f00000000000000000000000000000000000000000000000000000000000000006001600160a01b03169063f5ecbdbc90608401600060405180830381865afa158015611bed573d6000803e3d6000fd5b505050506040513d6000823e601f3d908101601f19168201604052611c159190810190614022565b95945050505050565b600080611c815a60966366ad5c8a60e01b89898989604051602401611c46949392919061408f565b60408051601f198184030181529190526020810180516001600160e01b03166001600160e01b0319909316929092179091523092919061266b565b915091508161109a5761109a86868686856126f5565b6000546001600160a01b0316331461111f5760405162461bcd60e51b815260206004820181905260248201527f4f776e61626c653a2063616c6c6572206973206e6f7420746865206f776e65726044820152606401610a3b565b6001600160a01b038316611d535760405162461bcd60e51b8152602060048201526024808201527f45524332303a20617070726f76652066726f6d20746865207a65726f206164646044820152637265737360e01b6064820152608401610a3b565b6001600160a01b038216611db45760405162461bcd60e51b815260206004820152602260248201527f45524332303a20617070726f766520746f20746865207a65726f206164647265604482015261737360f01b6064820152608401610a3b565b6001600160a01b0383811660008181526009602090815260408083209487168084529482529182902085905590518481527f8c5be1e5ebec7d5bd14f71427d1e84f3dd0314c0f7b2291e5b200ac8c7c3b925910160405180910390a3505050565b6000611e218484611855565b90506000198114611e895781811015611e7c5760405162461bcd60e51b815260206004820152601d60248201527f45524332303a20696e73756666696369656e7420616c6c6f77616e63650000006044820152606401610a3b565b611e898484848403611cf1565b50505050565b6001600160a01b038316611ef35760405162461bcd60e51b815260206004820152602560248201527f45524332303a207472616e736665722066726f6d20746865207a65726f206164604482015264647265737360d81b6064820152608401610a3b565b6001600160a01b038216611f555760405162461bcd60e51b815260206004820152602360248201527f45524332303a207472616e7366657220746f20746865207a65726f206164647260448201526265737360e81b6064820152608401610a3b565b6001600160a01b03831660009081526008602052604090205481811015611fcd5760405162461bcd60e51b815260206004820152602660248201527f45524332303a207472616e7366657220616d6f756e7420657863656564732062604482015265616c616e636560d01b6064820152608401610a3b565b6001600160a01b03808516600090815260086020526040808220858503905591851681529081208054849290612004908490613e71565b92505081905550826001600160a01b0316846001600160a01b03167fddf252ad1be2c89b69c2b068fc378daa952ba7f163c4a11628f55a4df523b3ef8460405161205091815260200190565b60405180910390a3611e89565b60008060006120ab8761206f88612797565b6040805160006020820152602181019390935260c09190911b6001600160c01b0319166041830152805160298184030181526049909201905290565b60405163040a7bb160e41b81529091506001600160a01b037f000000000000000000000000000000000000000000000000000000000000000016906340a7bb1090612102908b90309086908b908b906004016140cd565b6040805180830381865afa15801561211e573d6000803e3d6000fd5b505050506040513d601f19601f820116820180604052508101906121429190614121565b92509250509550959350505050565b600061215d828261281d565b905060ff81166121785761217385858585612879565b610d43565b60ff8116600114156121905761217385858585612909565b60405162461bcd60e51b815260206004820152601c60248201527f4f4654436f72653a20756e6b6e6f776e207061636b65742074797065000000006044820152606401610a3b565b60006121e687828481612b17565b6121ef85612b91565b5090506121fe88888884612bd1565b90506000811161224c5760405162461bcd60e51b815260206004820152601960248201527813d19510dbdc994e88185b5bdd5b9d081d1bdbc81cdb585b1b603a1b6044820152606401610a3b565b600061225b8761206f84612797565b905061226b888287878734612c03565b86896001600160a01b03168961ffff167fd81fc9b8523134ed613870ed029d6170cbb73aa6a6bc311b9a642689fb9df59a856040516122ac91815260200190565b60405180910390a450979650505050505050565b600080546001600160a01b038381166001600160a01b0319831681178455604051919092169283917f8be0079c531659141344cd1fd0a4f28419497f9722a3daafe3b4186f6b6457e09190a35050565b6000612328896001846001600160401b038916612b17565b61233187612b91565b5090506123408a8a8a84612bd1565b90506000811161238e5760405162461bcd60e51b815260206004820152601960248201527813d19510dbdc994e88185b5bdd5b9d081d1bdbc81cdb585b1b603a1b6044820152606401610a3b565b60006123a5338a61239e85612797565b8a8a612da9565b90506123b58a8287878734612c03565b888b6001600160a01b03168b61ffff167fd81fc9b8523134ed613870ed029d6170cbb73aa6a6bc311b9a642689fb9df59a856040516123f691815260200190565b60405180910390a4509998505050505050505050565b60608161241a81601f613e71565b10156124595760405162461bcd60e51b815260206004820152600e60248201526d736c6963655f6f766572666c6f7760901b6044820152606401610a3b565b6124638284613e71565b845110156124a75760405162461bcd60e51b8152602060048201526011602482015270736c6963655f6f75744f66426f756e647360781b6044820152606401610a3b565b6060821580156124c65760405191506000825260208201604052612510565b6040519150601f8416801560200281840101858101878315602002848b0101015b818310156124ff5780518352602092830192016124e7565b5050858452601f01601f1916604052505b50949350505050565b600080600061252c338a61239e8b612797565b60405163040a7bb160e41b81529091506001600160a01b037f000000000000000000000000000000000000000000000000000000000000000016906340a7bb1090612583908d90309086908b908b906004016140cd565b6040805180830381865afa15801561259f573d6000803e3d6000fd5b505050506040513d601f19601f820116820180604052508101906125c39190614121565b925092505097509795505050505050565b611b6a816040516024016125ea91815260200190565b60408051601f198184030181529190526020810180516001600160e01b031663f82c50f160e01b179052612dea565b600033306001600160a01b038616148015906126475750806001600160a01b0316856001600160a01b031614155b1561265757612657858285611e15565b612662858585611e8f565b50909392505050565b6000606060008060008661ffff166001600160401b03811115612690576126906138b0565b6040519080825280601f01601f1916602001820160405280156126ba576020820181803683370190505b50905060008087516020890160008d8df191503d9250868311156126dc578692505b828152826000602083013e909890975095505050505050565b8180519060200120600560008761ffff1661ffff168152602001908152602001600020856040516127269190614145565b9081526040805191829003602090810183206001600160401b0388166000908152915220919091557fe183f33de2837795525b4792ca4cd60535bd77c53b7e7030060bfcf5734d6b0c906127839087908790879087908790614161565b60405180910390a15050505050565b505050565b6000806127c47f0000000000000000000000000000000000000000000000000000000000000000846141c9565b90506001600160401b03811115610c295760405162461bcd60e51b815260206004820152601a60248201527f4f4654436f72653a20616d6f756e745344206f766572666c6f770000000000006044820152606401610a3b565b600061282a826001613e71565b835110156128705760405162461bcd60e51b8152602060048201526013602482015272746f55696e74385f6f75744f66426f756e647360681b6044820152606401610a3b565b50016001015190565b60008061288583612e0b565b90925090506001600160a01b03821661289e5761dead91505b60006128a982612e90565b90506128b6878483612ec5565b9050826001600160a01b03168761ffff167fbf551ec93859b170f9b2141bd9298bf3f64322c6f7beb2543a0cb669834118bf836040516128f891815260200190565b60405180910390a350505050505050565b600080600080600061291a86612ed8565b945094509450945094506000600760008b61ffff1661ffff1681526020019081526020016000208960405161294f9190614145565b90815260408051602092819003830190206001600160401b038b166000908152925281205460ff16915061298285612e90565b9050816129f0576129948b3083612ec5565b61ffff8c166000908152600760205260409081902090519192506001916129bc908d90614145565b90815260408051602092819003830190206001600160401b038d16600090815292529020805460ff19169115159190911790555b6001600160a01b0386163b612a47576040516001600160a01b03871681527f9aedf5fdba8716db3b6705ca00150643309995d4f818a249ed6dde6677e7792d9060200160405180910390a150505050505050611e89565b8a8a8a8a8a8a868a60008a612a65578b6001600160401b0316612a67565b5a5b9050600080612a995a609663eaffd49a60e01b8e8e8e8d8d8d8d8d604051602401611c469897969594939291906141dd565b915091508115612af2578751602089012060405161ffff8d16907fb8890edbfc1c74692f527444645f95489c3703cc2df42e4a366f5d06fa6cd88490612ae4908e908e908690614251565b60405180910390a250612aff565b612aff8b8b8b8b856126f5565b50505050505050505050505050505050505050505050565b60065460ff1615612b3357612b2e84848484612f8f565b611e89565b815115611e895760405162461bcd60e51b815260206004820152602660248201527f4f4654436f72653a205f61646170746572506172616d73206d7573742062652060448201526532b6b83a3c9760d11b6064820152608401610a3b565b600080612bbe7f00000000000000000000000000000000000000000000000000000000000000008461427f565b9050612bca8184613f16565b9150915091565b6000336001600160a01b0386168114612bef57612bef868285611e15565b612bf9868461306e565b5090949350505050565b61ffff861660009081526001602052604081208054612c2190613e16565b80601f0160208091040260200160405190810160405280929190818152602001828054612c4d90613e16565b8015612c9a5780601f10612c6f57610100808354040283529160200191612c9a565b820191906000526020600020905b815481529060010190602001808311612c7d57829003601f168201915b50505050509050805160001415612d0c5760405162461bcd60e51b815260206004820152603060248201527f4c7a4170703a2064657374696e6174696f6e20636861696e206973206e6f742060448201526f61207472757374656420736f7572636560801b6064820152608401610a3b565b612d178787516131bc565b60405162c5803160e81b81526001600160a01b037f0000000000000000000000000000000000000000000000000000000000000000169063c5803100908490612d6e908b9086908c908c908c908c90600401614293565b6000604051808303818588803b158015612d8757600080fd5b505af1158015612d9b573d6000803e3d6000fd5b505050505050505050505050565b6060600185856001600160a01b0389168587604051602001612dd0969594939291906142fa565b604051602081830303815290604052905095945050505050565b80516a636f6e736f6c652e6c6f67602083016000808483855afa5050505050565b60008080612e19848261281d565b60ff16148015612e2a575082516029145b612e715760405162461bcd60e51b815260206004820152601860248201527713d19510dbdc994e881a5b9d985b1a59081c185e5b1bd85960421b6044820152606401610a3b565b612e7c83600d61322a565b9150612e8983602161328f565b9050915091565b6000610c297f00000000000000000000000000000000000000000000000000000000000000006001600160401b03841661435b565b6000612ed183836132ec565b5092915050565b600080806060816001612eeb878361281d565b60ff1614612f365760405162461bcd60e51b815260206004820152601860248201527713d19510dbdc994e881a5b9d985b1a59081c185e5b1bd85960421b6044820152606401610a3b565b612f4186600d61322a565b9350612f4e86602161328f565b9250612f5b8660296133cb565b9450612f6886604961328f565b9050612f846051808851612f7c9190613f16565b88919061240c565b915091939590929450565b6000612f9a83613429565b61ffff808716600090815260026020908152604080832093891683529290529081205491925090612fcc908490613e71565b90506000811161301e5760405162461bcd60e51b815260206004820152601a60248201527f4c7a4170703a206d696e4761734c696d6974206e6f74207365740000000000006044820152606401610a3b565b8082101561109a5760405162461bcd60e51b815260206004820152601b60248201527f4c7a4170703a20676173206c696d697420697320746f6f206c6f7700000000006044820152606401610a3b565b6001600160a01b0382166130ce5760405162461bcd60e51b815260206004820152602160248201527f45524332303a206275726e2066726f6d20746865207a65726f206164647265736044820152607360f81b6064820152608401610a3b565b6001600160a01b038216600090815260086020526040902054818110156131425760405162461bcd60e51b815260206004820152602260248201527f45524332303a206275726e20616d6f756e7420657863656564732062616c616e604482015261636560f01b6064820152608401610a3b565b6001600160a01b03831660009081526008602052604081208383039055600a8054849290613171908490613f16565b90915550506040518281526000906001600160a01b038516907fddf252ad1be2c89b69c2b068fc378daa952ba7f163c4a11628f55a4df523b3ef9060200160405180910390a3505050565b61ffff8216600090815260036020526040902054806131da57506127105b808211156127925760405162461bcd60e51b815260206004820181905260248201527f4c7a4170703a207061796c6f61642073697a6520697320746f6f206c617267656044820152606401610a3b565b6000613237826014613e71565b8351101561327f5760405162461bcd60e51b8152602060048201526015602482015274746f416464726573735f6f75744f66426f756e647360581b6044820152606401610a3b565b500160200151600160601b900490565b600061329c826008613e71565b835110156132e35760405162461bcd60e51b8152602060048201526014602482015273746f55696e7436345f6f75744f66426f756e647360601b6044820152606401610a3b565b50016008015190565b6001600160a01b0382166133425760405162461bcd60e51b815260206004820152601f60248201527f45524332303a206d696e7420746f20746865207a65726f2061646472657373006044820152606401610a3b565b80600a60008282546133549190613e71565b90915550506001600160a01b03821660009081526008602052604081208054839290613381908490613e71565b90915550506040518181526001600160a01b038316906000907fddf252ad1be2c89b69c2b068fc378daa952ba7f163c4a11628f55a4df523b3ef9060200160405180910390a35050565b60006133d8826020613e71565b835110156134205760405162461bcd60e51b8152602060048201526015602482015274746f427974657333325f6f75744f66426f756e647360581b6044820152606401610a3b565b50016020015190565b600060228251101561347d5760405162461bcd60e51b815260206004820152601c60248201527f4c7a4170703a20696e76616c69642061646170746572506172616d73000000006044820152606401610a3b565b506022015190565b82805461349190613e16565b90600052602060002090601f0160209004810192826134b357600085556134f9565b82601f106134cc57805160ff19168380011785556134f9565b828001600101855582156134f9579182015b828111156134f95782518255916020019190600101906134de565b5061350592915061357d565b5090565b82805461351590613e16565b90600052602060002090601f01602090048101928261353757600085556134f9565b82601f106135505782800160ff198235161785556134f9565b828001600101855582156134f9579182015b828111156134f9578235825591602001919060010190613562565b5b80821115613505576000815560010161357e565b803561ffff811681146135a457600080fd5b919050565b60008083601f8401126135bb57600080fd5b5081356001600160401b038111156135d257600080fd5b6020830191508360208285010111156135ea57600080fd5b9250929050565b80356001600160401b03811681146135a457600080fd5b6000806000806000806080878903121561362157600080fd5b61362a87613592565b955060208701356001600160401b038082111561364657600080fd5b6136528a838b016135a9565b909750955085915061366660408a016135f1565b9450606089013591508082111561367c57600080fd5b5061368989828a016135a9565b979a9699509497509295939492505050565b6000602082840312156136ad57600080fd5b81356001600160e01b03198116811461139957600080fd5b60005b838110156136e05781810151838201526020016136c8565b83811115611e895750506000910152565b600081518084526137098160208601602086016136c5565b601f01601f19169290920160200192915050565b60208152600061139960208301846136f1565b60006020828403121561374257600080fd5b61139982613592565b6001600160a01b0381168114611b6a57600080fd5b6000806040838503121561377357600080fd5b823561377e8161374b565b946020939093013593505050565b6000806040838503121561379f57600080fd5b61377e83613592565b6000806000606084860312156137bd57600080fd5b83356137c88161374b565b925060208401356137d88161374b565b929592945050506040919091013590565b803580151581146135a457600080fd5b60008060008060008060a0878903121561381257600080fd5b61381b87613592565b95506020870135945060408701359350613837606088016137e9565b925060808701356001600160401b0381111561385257600080fd5b61368989828a016135a9565b60008060006040848603121561387357600080fd5b61387c84613592565b925060208401356001600160401b0381111561389757600080fd5b6138a3868287016135a9565b9497909650939450505050565b634e487b7160e01b600052604160045260246000fd5b604051601f8201601f191681016001600160401b03811182821017156138ee576138ee6138b0565b604052919050565b60006001600160401b0382111561390f5761390f6138b0565b50601f01601f191660200190565b60008060006060848603121561393257600080fd5b61393b84613592565b925060208401356001600160401b0381111561395657600080fd5b8401601f8101861361396757600080fd5b803561397a613975826138f6565b6138c6565b81815287602083850101111561398f57600080fd5b816020840160208301376000602083830101528094505050506139b4604085016135f1565b90509250925092565b6000606082840312156139cf57600080fd5b50919050565b600080600080600060a086880312156139ed57600080fd5b85356139f88161374b565b9450613a0660208701613592565b9350604086013592506060860135915060808601356001600160401b03811115613a2f57600080fd5b613a3b888289016139bd565b9150509295509295909350565b600060208284031215613a5a57600080fd5b81356113998161374b565b60008060008060008060008060e0898b031215613a8157600080fd5b8835613a8c8161374b565b9750613a9a60208a01613592565b9650604089013595506060890135945060808901356001600160401b0380821115613ac457600080fd5b613ad08c838d016135a9565b9096509450849150613ae460a08c016135f1565b935060c08b0135915080821115613afa57600080fd5b50613b078b828c016139bd565b9150509295985092959890939650565b60008060408385031215613b2a57600080fd5b613b3383613592565b9150613b4160208401613592565b90509250929050565b600080600080600080600080600060e08a8c031215613b6857600080fd5b613b718a613592565b985060208a0135975060408a0135965060608a01356001600160401b0380821115613b9b57600080fd5b613ba78d838e016135a9565b9098509650869150613bbb60808d016135f1565b9550613bc960a08d016137e9565b945060c08c0135915080821115613bdf57600080fd5b50613bec8c828d016135a9565b915080935050809150509295985092959850929598565b600080600080600060808688031215613c1b57600080fd5b613c2486613592565b9450613c3260208701613592565b93506040860135925060608601356001600160401b03811115613c5457600080fd5b613c60888289016135a9565b969995985093965092949392505050565b60008060408385031215613c8457600080fd5b8235613c8f8161374b565b91506020830135613c9f8161374b565b809150509250929050565b600080600060608486031215613cbf57600080fd5b613cc884613592565b9250613cd660208501613592565b9150604084013590509250925092565b600060208284031215613cf857600080fd5b611399826137e9565b6000806000806000806000806000806101008b8d031215613d2157600080fd5b613d2a8b613592565b995060208b01356001600160401b0380821115613d4657600080fd5b613d528e838f016135a9565b909b509950899150613d6660408e016135f1565b985060608d0135975060808d01359150613d7f8261374b565b90955060a08c0135945060c08c01359080821115613d9c57600080fd5b50613da98d828e016135a9565b9150809450508092505060e08b013590509295989b9194979a5092959850565b60008060008060808587031215613ddf57600080fd5b613de885613592565b9350613df660208601613592565b92506040850135613e068161374b565b9396929550929360600135925050565b600181811c90821680613e2a57607f821691505b602082108114156139cf57634e487b7160e01b600052602260045260246000fd5b8183823760009101908152919050565b634e487b7160e01b600052601160045260246000fd5b60008219821115613e8457613e84613e5b565b500190565b81835281816020850137506000828201602090810191909152601f909101601f19169091010190565b61ffff84168152604060208201526000611c15604083018486613e89565b6000808335601e19843603018112613ee757600080fd5b8301803591506001600160401b03821115613f0157600080fd5b6020019150368190038213156135ea57600080fd5b600082821015613f2857613f28613e5b565b500390565b8284823760609190911b6bffffffffffffffffffffffff19169101908152601401919050565b600061ffff808816835280871660208401525084604083015260806060830152613f81608083018486613e89565b979650505050505050565b61ffff86168152608060208201526000613faa608083018688613e89565b6001600160401b0394909416604083015250606001529392505050565b61ffff8916815260c060208201526000613fe560c08301898b613e89565b6001600160401b038816604084015286606084015285608084015282810360a0840152614013818587613e89565b9b9a5050505050505050505050565b60006020828403121561403457600080fd5b81516001600160401b0381111561404a57600080fd5b8201601f8101841361405b57600080fd5b8051614069613975826138f6565b81815285602083850101111561407e57600080fd5b611c158260208301602086016136c5565b61ffff851681526080602082015260006140ac60808301866136f1565b6001600160401b03851660408401528281036060840152613f8181856136f1565b61ffff861681526001600160a01b038516602082015260a0604082018190526000906140fb908301866136f1565b8415156060840152828103608084015261411581856136f1565b98975050505050505050565b6000806040838503121561413457600080fd5b505080516020909101519092909150565b600082516141578184602087016136c5565b9190910192915050565b61ffff8616815260a06020820152600061417e60a08301876136f1565b6001600160401b0386166040840152828103606084015261419f81866136f1565b9050828103608084015261411581856136f1565b634e487b7160e01b600052601260045260246000fd5b6000826141d8576141d86141b3565b500490565b600061010061ffff8b1683528060208401526141fb8184018b6136f1565b6001600160401b038a166040850152606084018990526001600160a01b038816608085015260a0840187905283810360c0850152905061423b81866136f1565b9150508260e08301529998505050505050505050565b60608152600061426460608301866136f1565b6001600160401b039490941660208301525060400152919050565b60008261428e5761428e6141b3565b500690565b61ffff8716815260c0602082015260006142b060c08301886136f1565b82810360408401526142c281886136f1565b6001600160a01b0387811660608601528616608085015283810360a085015290506142ed81856136f1565b9998505050505050505050565b60ff60f81b8760f81b16815285600182015260006001600160401b0360c01b808760c01b166021840152856029840152808560c01b1660498401525082516143498160518501602087016136c5565b91909101605101979650505050505050565b600081600019048311821515161561437557614375613e5b565b50029056fea2646970667358221220920eb617198620d2d65ea75adb2363726f87d02e053c35f936962004a346f9a564736f6c634300080c0033",
  "linkReferences": {},
  "deployedLinkReferences": {}
}