{
  "_format": "hh-sol-artifact-1",
  "contractName": "PingPong",
  "sourceName": "contracts/mocks/PingPong.sol",
  "abi": [
    {
      "inputs": [
        {
          "internalType": "address",
          "name": "_layerZeroEndpoint",
          "type": "address"
        }
      ],
      "stateMutability": "nonpayable",
      "type": "constructor"
    },
    {
      "anonymous": false,
      "inputs": [
        {
          "indexed": false,
          "internalType": "uint256",
          "name": "pings",
          "type": "uint256"
        }
      ],
      "name": "Ping",
      "type": "event"
    },
    {
      "stateMutability": "payable",
      "type": "fallback"
    },
    {
      "inputs": [],
      "name": "disable",
      "outputs": [],
      "stateMutability": "nonpayable",
      "type": "function"
    },
    {
      "inputs": [],
      "name": "endpoint",
      "outputs": [
        {
          "internalType": "contract ILayerZeroEndpoint",
          "name": "",
          "type": "address"
        }
      ],
      "stateMutability": "view",
      "type": "function"
    },
    {
      "inputs": [
        {
          "internalType": "uint16",
          "name": "_srcChainId",
          "type": "uint16"
        },
        {
          "internalType": "bytes",
          "name": "_srcAddress",
          "type": "bytes"
        }
      ],
      "name": "forceResumeReceive",
      "outputs": [],
      "stateMutability": "nonpayable",
      "type": "function"
    },
    {
      "inputs": [
        {
          "internalType": "uint16",
          "name": "",
          "type": "uint16"
        },
        {
          "internalType": "uint16",
          "name": "_chainId",
          "type": "uint16"
        },
        {
          "internalType": "address",
          "name": "",
          "type": "address"
        },
        {
          "internalType": "uint256",
          "name": "_configType",
          "type": "uint256"
        }
      ],
      "name": "getConfig",
      "outputs": [
        {
          "internalType": "bytes",
          "name": "",
          "type": "bytes"
        }
      ],
      "stateMutability": "view",
      "type": "function"
    },
    {
      "inputs": [],
      "name": "getReceiveVersion",
      "outputs": [
        {
          "internalType": "uint16",
          "name": "",
          "type": "uint16"
        }
      ],
      "stateMutability": "view",
      "type": "function"
    },
    {
      "inputs": [],
      "name": "getSendVersion",
      "outputs": [
        {
          "internalType": "uint16",
          "name": "",
          "type": "uint16"
        }
      ],
      "stateMutability": "view",
      "type": "function"
    },
    {
      "inputs": [
        {
          "internalType": "uint16",
          "name": "_srcChainId",
          "type": "uint16"
        },
        {
          "internalType": "bytes",
          "name": "_fromAddress",
          "type": "bytes"
        },
        {
          "internalType": "uint64",
          "name": "",
          "type": "uint64"
        },
        {
          "internalType": "bytes",
          "name": "_payload",
          "type": "bytes"
        }
      ],
      "name": "lzReceive",
      "outputs": [],
      "stateMutability": "nonpayable",
      "type": "function"
    },
    {
      "inputs": [],
      "name": "maxPings",
      "outputs": [
        {
          "internalType": "uint256",
          "name": "",
          "type": "uint256"
        }
      ],
      "stateMutability": "view",
      "type": "function"
    },
    {
      "inputs": [],
      "name": "numPings",
      "outputs": [
        {
          "internalType": "uint256",
          "name": "",
          "type": "uint256"
        }
      ],
      "stateMutability": "view",
      "type": "function"
    },
    {
      "inputs": [
        {
          "internalType": "uint16",
          "name": "_dstChainId",
          "type": "uint16"
        },
        {
          "internalType": "address",
          "name": "_dstPingPongAddr",
          "type": "address"
        },
        {
          "internalType": "uint256",
          "name": "pings",
          "type": "uint256"
        }
      ],
      "name": "ping",
      "outputs": [],
      "stateMutability": "nonpayable",
      "type": "function"
    },
    {
      "inputs": [],
      "name": "pingsEnabled",
      "outputs": [
        {
          "internalType": "bool",
          "name": "",
          "type": "bool"
        }
      ],
      "stateMutability": "view",
      "type": "function"
    },
    {
      "inputs": [
        {
          "internalType": "uint16",
          "name": "",
          "type": "uint16"
        },
        {
          "internalType": "uint16",
          "name": "_dstChainId",
          "type": "uint16"
        },
        {
          "internalType": "uint256",
          "name": "_configType",
          "type": "uint256"
        },
        {
          "internalType": "bytes",
          "name": "_config",
          "type": "bytes"
        }
      ],
      "name": "setConfig",
      "outputs": [],
      "stateMutability": "nonpayable",
      "type": "function"
    },
    {
      "inputs": [
        {
          "internalType": "uint16",
          "name": "version",
          "type": "uint16"
        }
      ],
      "name": "setReceiveVersion",
      "outputs": [],
      "stateMutability": "nonpayable",
      "type": "function"
    },
    {
      "inputs": [
        {
          "internalType": "uint16",
          "name": "version",
          "type": "uint16"
        }
      ],
      "name": "setSendVersion",
      "outputs": [],
      "stateMutability": "nonpayable",
      "type": "function"
    },
    {
      "stateMutability": "payable",
      "type": "receive"
    }
  ],
  "bytecode": "0x608060405234801561001057600080fd5b50604051610fe1380380610fe183398101604081905261002f91610060565b600080546001600160a01b039092166001600160a81b031990921691909117600160a01b1790556005600155610090565b60006020828403121561007257600080fd5b81516001600160a01b038116811461008957600080fd5b9392505050565b610f428061009f6000396000f3fe6080604052600436106100d45760003560e01c806354a5beda11610079578063cbed8b9c11610056578063cbed8b9c1461024c578063cf5d14711461026c578063f2d566fc14610281578063f5ecbdbc146102a157005b806354a5beda146101d65780635e280f11146101fe5780636c7c091b1461023657005b80632f2770db116100b25780632f2770db1461013d578063315f7a7f1461015c5780633ba6107f1461018557806342d65a8d146101b657005b80621d3567146100dd57806307e0db17146100fd57806310ddb1371461011d57005b366100db57005b005b3480156100e957600080fd5b506100db6100f8366004610a78565b6102ce565b34801561010957600080fd5b506100db610118366004610b08565b610327565b34801561012957600080fd5b506100db610138366004610b08565b61038c565b34801561014957600080fd5b506100db6000805460ff60a01b19169055565b34801561016857600080fd5b5061017260025481565b6040519081526020015b60405180910390f35b34801561019157600080fd5b506000546101a690600160a01b900460ff1681565b604051901515815260200161017c565b3480156101c257600080fd5b506100db6101d1366004610b2c565b505050565b3480156101e257600080fd5b506101eb6103c0565b60405161ffff909116815260200161017c565b34801561020a57600080fd5b5060005461021e906001600160a01b031681565b6040516001600160a01b03909116815260200161017c565b34801561024257600080fd5b5061017260015481565b34801561025857600080fd5b506100db610267366004610bb1565b610433565b34801561027857600080fd5b506101eb610502565b34801561028d57600080fd5b506100db61029c366004610c2d565b610533565b3480156102ad57600080fd5b506102c16102bc366004610c6b565b6108a6565b60405161017c9190610d16565b6000546001600160a01b031633146102e557600080fd5b601483015181516000906103029084016020908101908501610d29565b905061030d81610d42565b6002819055905061031f868383610533565b505050505050565b6000546040516307e0db1760e01b815261ffff831660048201526001600160a01b03909116906307e0db17906024015b600060405180830381600087803b15801561037157600080fd5b505af1158015610385573d6000803e3d6000fd5b5050505050565b6000546040516310ddb13760e01b815261ffff831660048201526001600160a01b03909116906310ddb13790602401610357565b600080546040516304b2b47b60e11b81523060048201526001600160a01b039091169063096568f6906024015b602060405180830381865afa15801561040a573d6000803e3d6000fd5b505050506040513d601f19601f8201168201806040525081019061042e9190610d6b565b905090565b6000546040516304b2b47b60e11b81523060048201526001600160a01b039091169063cbed8b9c908590839063096568f690602401602060405180830381865afa158015610485573d6000803e3d6000fd5b505050506040513d601f19601f820116820180604052508101906104a99190610d6b565b85856040518563ffffffff1660e01b81526004016104ca9493929190610d88565b600060405180830381600087803b1580156104e457600080fd5b505af11580156104f8573d6000803e3d6000fd5b5050505050505050565b60008054604051636d0d3e4d60e11b81523060048201526001600160a01b039091169063da1a7c9a906024016103ed565b600047116105b0576040805162461bcd60e51b81526020600482015260248101919091527f7468652062616c616e6365206f66207468697320636f6e74726163742069732060448201527f302e20706c732073656e642067617320666f72206d657373616765206665657360648201526084015b60405180910390fd5b600054600160a01b900460ff166106195760405162461bcd60e51b815260206004820152602760248201527f70696e6773456e61626c65642069732066616c73652e206d65737361676573206044820152661cdd1bdc1c195960ca1b60648201526084016105a7565b806001541161067d5760405162461bcd60e51b815260206004820152602a60248201527f6d617850696e677320686173206265656e20726561636865642c206e6f206d6f6044820152697265206c6f6f70696e6760b01b60648201526084016105a7565b6040518181527f48257dc961b6f792c2b78a080dacfed693b660960a702de21cee364e20270e2f9060200160405180910390a16000816040516020016106c591815260200190565b60408051808303601f1901815290829052600160f01b6020830152620557306022830181905290925060019160009060420160408051601f19818403018152908290526000805463040a7bb160e41b8452919350916001600160a01b03909116906340a7bb1090610742908b9030908a9087908990600401610dbf565b6040805180830381865afa15801561075e573d6000803e3d6000fd5b505050506040513d601f19601f820116820180604052508101906107829190610e13565b509050804710156108055760405162461bcd60e51b815260206004820152604160248201527f616464726573732874686973292e62616c616e6365203c206d6573736167654660448201527f65652e20706c732073656e642067617320666f72206d657373616765206665656064820152607360f81b608482015260a4016105a7565b600080546040805160608b901b6bffffffffffffffffffffffff1916602082015281516014818303018152603482019283905262c5803160e81b9092526001600160a01b039092169263c580310092859261086a928e928c9130918b90603801610e37565b6000604051808303818588803b15801561088357600080fd5b505af1158015610897573d6000803e3d6000fd5b50505050505050505050505050565b6000546040516304b2b47b60e11b81523060048201526060916001600160a01b03169063f5ecbdbc90829063096568f690602401602060405180830381865afa1580156108f7573d6000803e3d6000fd5b505050506040513d601f19601f8201168201806040525081019061091b9190610d6b565b6040516001600160e01b031960e084901b16815261ffff9182166004820152908716602482015230604482015260648101859052608401600060405180830381865afa15801561096f573d6000803e3d6000fd5b505050506040513d6000823e601f3d908101601f191682016040526109979190810190610e9e565b95945050505050565b61ffff811681146109b057600080fd5b50565b634e487b7160e01b600052604160045260246000fd5b604051601f8201601f1916810167ffffffffffffffff811182821017156109f2576109f26109b3565b604052919050565b600067ffffffffffffffff821115610a1457610a146109b3565b50601f01601f191660200190565b600082601f830112610a3357600080fd5b8135610a46610a41826109fa565b6109c9565b818152846020838601011115610a5b57600080fd5b816020850160208301376000918101602001919091529392505050565b60008060008060808587031215610a8e57600080fd5b8435610a99816109a0565b9350602085013567ffffffffffffffff80821115610ab657600080fd5b610ac288838901610a22565b9450604087013591508082168214610ad957600080fd5b90925060608601359080821115610aef57600080fd5b50610afc87828801610a22565b91505092959194509250565b600060208284031215610b1a57600080fd5b8135610b25816109a0565b9392505050565b600080600060408486031215610b4157600080fd5b8335610b4c816109a0565b9250602084013567ffffffffffffffff80821115610b6957600080fd5b818601915086601f830112610b7d57600080fd5b813581811115610b8c57600080fd5b876020828501011115610b9e57600080fd5b6020830194508093505050509250925092565b60008060008060808587031215610bc757600080fd5b8435610bd2816109a0565b93506020850135610be2816109a0565b925060408501359150606085013567ffffffffffffffff811115610c0557600080fd5b610afc87828801610a22565b80356001600160a01b0381168114610c2857600080fd5b919050565b600080600060608486031215610c4257600080fd5b8335610c4d816109a0565b9250610c5b60208501610c11565b9150604084013590509250925092565b60008060008060808587031215610c8157600080fd5b8435610c8c816109a0565b93506020850135610c9c816109a0565b9250610caa60408601610c11565b9396929550929360600135925050565b60005b83811015610cd5578181015183820152602001610cbd565b83811115610ce4576000848401525b50505050565b60008151808452610d02816020860160208601610cba565b601f01601f19169290920160200192915050565b602081526000610b256020830184610cea565b600060208284031215610d3b57600080fd5b5051919050565b6000600019821415610d6457634e487b7160e01b600052601160045260246000fd5b5060010190565b600060208284031215610d7d57600080fd5b8151610b25816109a0565b600061ffff808716835280861660208401525083604083015260806060830152610db56080830184610cea565b9695505050505050565b61ffff861681526001600160a01b038516602082015260a060408201819052600090610ded90830186610cea565b84151560608401528281036080840152610e078185610cea565b98975050505050505050565b60008060408385031215610e2657600080fd5b505080516020909101519092909150565b61ffff8716815260c060208201526000610e5460c0830188610cea565b8281036040840152610e668188610cea565b6001600160a01b0387811660608601528616608085015283810360a08501529050610e918185610cea565b9998505050505050505050565b600060208284031215610eb057600080fd5b815167ffffffffffffffff811115610ec757600080fd5b8201601f81018413610ed857600080fd5b8051610ee6610a41826109fa565b818152856020838501011115610efb57600080fd5b610997826020830160208601610cba56fea2646970667358221220c97988cb686c6eacf901940551c0db794d010cb115fe50b0401bd8fd397d032364736f6c634300080c0033",
  "linkReferences": {},
  "deployedLinkReferences": {}
}