{
  "_format": "hh-sol-artifact-1",
  "contractName": "OmniCounter",
  "sourceName": "contracts/mocks/OmniCounter.sol",
  "abi": [
    {
      "inputs": [
        {
          "internalType": "address",
          "name": "_endpoint",
          "type": "address"
        }
      ],
      "stateMutability": "nonpayable",
      "type": "constructor"
    },
    {
      "anonymous": false,
      "inputs": [
        {
          "indexed": true,
          "internalType": "address",
          "name": "previousOwner",
          "type": "address"
        },
        {
          "indexed": true,
          "internalType": "address",
          "name": "newOwner",
          "type": "address"
        }
      ],
      "name": "OwnershipTransferred",
      "type": "event"
    },
    {
      "stateMutability": "payable",
      "type": "fallback"
    },
    {
      "inputs": [
        {
          "internalType": "address",
          "name": "token",
          "type": "address"
        },
        {
          "internalType": "address",
          "name": "spender",
          "type": "address"
        },
        {
          "internalType": "uint256",
          "name": "amount",
          "type": "uint256"
        }
      ],
      "name": "approveTokenSpender",
      "outputs": [],
      "stateMutability": "nonpayable",
      "type": "function"
    },
    {
      "inputs": [],
      "name": "endpoint",
      "outputs": [
        {
          "internalType": "contract ILayerZeroEndpoint",
          "name": "",
          "type": "address"
        }
      ],
      "stateMutability": "view",
      "type": "function"
    },
    {
      "inputs": [
        {
          "internalType": "uint16",
          "name": "_srcChainId",
          "type": "uint16"
        },
        {
          "internalType": "bytes",
          "name": "_srcAddress",
          "type": "bytes"
        }
      ],
      "name": "forceResumeReceive",
      "outputs": [],
      "stateMutability": "nonpayable",
      "type": "function"
    },
    {
      "inputs": [
        {
          "internalType": "uint16",
          "name": "",
          "type": "uint16"
        },
        {
          "internalType": "uint16",
          "name": "_chainId",
          "type": "uint16"
        },
        {
          "internalType": "address",
          "name": "",
          "type": "address"
        },
        {
          "internalType": "uint256",
          "name": "_configType",
          "type": "uint256"
        }
      ],
      "name": "getConfig",
      "outputs": [
        {
          "internalType": "bytes",
          "name": "",
          "type": "bytes"
        }
      ],
      "stateMutability": "view",
      "type": "function"
    },
    {
      "inputs": [],
      "name": "getCounter",
      "outputs": [
        {
          "internalType": "uint256",
          "name": "",
          "type": "uint256"
        }
      ],
      "stateMutability": "view",
      "type": "function"
    },
    {
      "inputs": [],
      "name": "getReceiveVersion",
      "outputs": [
        {
          "internalType": "uint16",
          "name": "",
          "type": "uint16"
        }
      ],
      "stateMutability": "view",
      "type": "function"
    },
    {
      "inputs": [],
      "name": "getSendVersion",
      "outputs": [
        {
          "internalType": "uint16",
          "name": "",
          "type": "uint16"
        }
      ],
      "stateMutability": "view",
      "type": "function"
    },
    {
      "inputs": [
        {
          "internalType": "uint16",
          "name": "_dstChainId",
          "type": "uint16"
        },
        {
          "internalType": "bytes",
          "name": "_dstCounterMockAddress",
          "type": "bytes"
        }
      ],
      "name": "incrementCounter",
      "outputs": [],
      "stateMutability": "payable",
      "type": "function"
    },
    {
      "inputs": [
        {
          "internalType": "uint16[]",
          "name": "_dstChainIds",
          "type": "uint16[]"
        },
        {
          "internalType": "bytes[]",
          "name": "_dstCounterMockAddresses",
          "type": "bytes[]"
        },
        {
          "internalType": "address payable",
          "name": "_refundAddr",
          "type": "address"
        }
      ],
      "name": "incrementCounterMulti",
      "outputs": [],
      "stateMutability": "payable",
      "type": "function"
    },
    {
      "inputs": [
        {
          "internalType": "uint16",
          "name": "_dstChainId",
          "type": "uint16"
        },
        {
          "internalType": "bytes",
          "name": "_dstCounterMockAddress",
          "type": "bytes"
        },
        {
          "internalType": "uint256",
          "name": "gasAmountForDst",
          "type": "uint256"
        }
      ],
      "name": "incrementCounterWithAdapterParamsV1",
      "outputs": [],
      "stateMutability": "payable",
      "type": "function"
    },
    {
      "inputs": [
        {
          "internalType": "uint16",
          "name": "_dstChainId",
          "type": "uint16"
        },
        {
          "internalType": "bytes",
          "name": "_dstCounterMockAddress",
          "type": "bytes"
        },
        {
          "internalType": "uint256",
          "name": "gasAmountForDst",
          "type": "uint256"
        },
        {
          "internalType": "uint256",
          "name": "airdropEthQty",
          "type": "uint256"
        },
        {
          "internalType": "address",
          "name": "airdropAddr",
          "type": "address"
        }
      ],
      "name": "incrementCounterWithAdapterParamsV2",
      "outputs": [],
      "stateMutability": "payable",
      "type": "function"
    },
    {
      "inputs": [
        {
          "internalType": "uint16",
          "name": "_dstChainId",
          "type": "uint16"
        },
        {
          "internalType": "bytes",
          "name": "_dstCounterMockAddress",
          "type": "bytes"
        },
        {
          "internalType": "bytes",
          "name": "payload",
          "type": "bytes"
        }
      ],
      "name": "incrementCounterWithPayload",
      "outputs": [],
      "stateMutability": "payable",
      "type": "function"
    },
    {
      "inputs": [
        {
          "internalType": "uint16",
          "name": "",
          "type": "uint16"
        },
        {
          "internalType": "bytes",
          "name": "_fromAddress",
          "type": "bytes"
        },
        {
          "internalType": "uint64",
          "name": "",
          "type": "uint64"
        },
        {
          "internalType": "bytes",
          "name": "_payload",
          "type": "bytes"
        }
      ],
      "name": "lzReceive",
      "outputs": [],
      "stateMutability": "nonpayable",
      "type": "function"
    },
    {
      "inputs": [],
      "name": "messageCounter",
      "outputs": [
        {
          "internalType": "uint256",
          "name": "",
          "type": "uint256"
        }
      ],
      "stateMutability": "view",
      "type": "function"
    },
    {
      "inputs": [],
      "name": "owner",
      "outputs": [
        {
          "internalType": "address",
          "name": "",
          "type": "address"
        }
      ],
      "stateMutability": "view",
      "type": "function"
    },
    {
      "inputs": [],
      "name": "payInZRO",
      "outputs": [
        {
          "internalType": "bool",
          "name": "",
          "type": "bool"
        }
      ],
      "stateMutability": "view",
      "type": "function"
    },
    {
      "inputs": [
        {
          "internalType": "address",
          "name": "",
          "type": "address"
        }
      ],
      "name": "remoteAddressCounter",
      "outputs": [
        {
          "internalType": "uint256",
          "name": "",
          "type": "uint256"
        }
      ],
      "stateMutability": "view",
      "type": "function"
    },
    {
      "inputs": [],
      "name": "renounceOwnership",
      "outputs": [],
      "stateMutability": "nonpayable",
      "type": "function"
    },
    {
      "inputs": [
        {
          "internalType": "uint16",
          "name": "",
          "type": "uint16"
        },
        {
          "internalType": "uint16",
          "name": "_chainId",
          "type": "uint16"
        },
        {
          "internalType": "uint256",
          "name": "_configType",
          "type": "uint256"
        },
        {
          "internalType": "bytes",
          "name": "_config",
          "type": "bytes"
        }
      ],
      "name": "setConfig",
      "outputs": [],
      "stateMutability": "nonpayable",
      "type": "function"
    },
    {
      "inputs": [
        {
          "internalType": "uint16",
          "name": "remoteChainId",
          "type": "uint16"
        },
        {
          "internalType": "uint16",
          "name": "confirmations",
          "type": "uint16"
        }
      ],
      "name": "setInboundConfirmations",
      "outputs": [],
      "stateMutability": "nonpayable",
      "type": "function"
    },
    {
      "inputs": [
        {
          "internalType": "uint16",
          "name": "dstChainId",
          "type": "uint16"
        },
        {
          "internalType": "address",
          "name": "oracle",
          "type": "address"
        }
      ],
      "name": "setOracle",
      "outputs": [],
      "stateMutability": "nonpayable",
      "type": "function"
    },
    {
      "inputs": [
        {
          "internalType": "uint16",
          "name": "remoteChainId",
          "type": "uint16"
        },
        {
          "internalType": "uint16",
          "name": "confirmations",
          "type": "uint16"
        }
      ],
      "name": "setOutboundConfirmations",
      "outputs": [],
      "stateMutability": "nonpayable",
      "type": "function"
    },
    {
      "inputs": [
        {
          "internalType": "bool",
          "name": "_payInZRO",
          "type": "bool"
        }
      ],
      "name": "setPayInZRO",
      "outputs": [],
      "stateMutability": "nonpayable",
      "type": "function"
    },
    {
      "inputs": [
        {
          "internalType": "uint16",
          "name": "version",
          "type": "uint16"
        }
      ],
      "name": "setReceiveVersion",
      "outputs": [],
      "stateMutability": "nonpayable",
      "type": "function"
    },
    {
      "inputs": [
        {
          "internalType": "uint16",
          "name": "version",
          "type": "uint16"
        }
      ],
      "name": "setSendVersion",
      "outputs": [],
      "stateMutability": "nonpayable",
      "type": "function"
    },
    {
      "inputs": [
        {
          "internalType": "address",
          "name": "newOwner",
          "type": "address"
        }
      ],
      "name": "transferOwnership",
      "outputs": [],
      "stateMutability": "nonpayable",
      "type": "function"
    },
    {
      "stateMutability": "payable",
      "type": "receive"
    }
  ],
  "bytecode": "0x608060405234801561001057600080fd5b5060405162001d6a38038062001d6a833981016040819052610031916100af565b61003a3361005f565b600380546001600160a01b0319166001600160a01b03929092169190911790556100df565b600080546001600160a01b038381166001600160a01b0319831681178455604051919092169283917f8be0079c531659141344cd1fd0a4f28419497f9722a3daafe3b4186f6b6457e09190a35050565b6000602082840312156100c157600080fd5b81516001600160a01b03811681146100d857600080fd5b9392505050565b611c7b80620000ef6000396000f3fe6080604052600436106101725760003560e01c8063715018a6116100c8578063b7e0f7ba11610084578063d7d3c3b911610061578063d7d3c3b9146104c0578063ed0cc14f146104e0578063f2fde38b146104f3578063f5ecbdbc1461051357005b8063b7e0f7ba1461045e578063cbed8b9c1461048b578063cf5d1471146104ab57005b8063715018a6146103bf5780637af9ce73146103d45780638ada066e146104055780638da5cb5b1461041a5780639cd0e63014610438578063a245b77b1461044b57005b806342d65a8d1161012f578063529c75881161010c578063529c75881461031657806354a5beda1461033f5780635e280f11146103675780636df653711461039f57005b806342d65a8d146102c3578063492e527e146102e35780634dc21b1a1461030357005b80621d35671461021057806307e0db171461023057806308d968b91461025057806310ddb137146102635780632b2257dc1461028357806341e63d13146102a357005b3661020e576103e834108015610189575034600a14155b61020e5760405162461bcd60e51b8152602060048201526044602482018190527f44696420796f75206d65616e20746f2073656e64206120626c6f636b65642061908201527f6d6f756e74202d20636865636b20726563656976652829202f2066616c6c6261606482015263636b282960e01b608482015260a4015b60405180910390fd5b005b34801561021c57600080fd5b5061020e61022b36600461132e565b610540565b34801561023c57600080fd5b5061020e61024b3660046113bd565b610681565b61020e61025e366004611437565b6106e6565b34801561026f57600080fd5b5061020e61027e3660046113bd565b6107b1565b34801561028f57600080fd5b5061020e61029e3660046114b2565b6107e5565b3480156102af57600080fd5b5061020e6102be3660046114f9565b6108d2565b3480156102cf57600080fd5b5061020e6102de366004611516565b505050565b3480156102ef57600080fd5b5061020e6102fe36600461156a565b6108f8565b61020e6103113660046115dc565b6109ea565b34801561032257600080fd5b5061032c60015481565b6040519081526020015b60405180910390f35b34801561034b57600080fd5b50610354610bdf565b60405161ffff9091168152602001610336565b34801561037357600080fd5b50600354610387906001600160a01b031681565b6040516001600160a01b039091168152602001610336565b3480156103ab57600080fd5b5061020e6103ba3660046114b2565b610c52565b3480156103cb57600080fd5b5061020e610cdf565b3480156103e057600080fd5b506003546103f590600160a01b900460ff1681565b6040519015158152602001610336565b34801561041157600080fd5b5060015461032c565b34801561042657600080fd5b506000546001600160a01b0316610387565b61020e61044636600461165f565b610cf3565b61020e6104593660046116e1565b610d97565b34801561046a57600080fd5b5061032c61047936600461173c565b60026020526000908152604090205481565b34801561049757600080fd5b5061020e6104a6366004611759565b610e06565b3480156104b757600080fd5b50610354610ed7565b3480156104cc57600080fd5b5061020e6104db3660046117ba565b610f08565b61020e6104ee366004611516565b610f89565b3480156104ff57600080fd5b5061020e61050e36600461173c565b611013565b34801561051f57600080fd5b5061053361052e3660046117fb565b61108c565b60405161033691906118a4565b6003546001600160a01b0316331461055757600080fd5b601483015160405161333360f11b6020820152602a01604051602081830303815290604052805190602001208260405160200161059491906118b7565b604051602081830303815290604052805190602001201415610633576003546040805160208082018352600080835283519182018452808252925163c2fa481360e01b81526001600160a01b039094169363c2fa481393610600936001939092849182916004016118d3565b600060405180830381600087803b15801561061a57600080fd5b505af115801561062e573d6000803e3d6000fd5b505050505b6001600160a01b038116600090815260026020526040812080546001929061065c90849061194a565b925050819055506001806000828254610675919061194a565b90915550505050505050565b6003546040516307e0db1760e01b815261ffff831660048201526001600160a01b03909116906307e0db17906024015b600060405180830381600087803b1580156106cb57600080fd5b505af11580156106df573d6000803e3d6000fd5b5050505050565b604051600160f11b602082015260228101849052604281018390526bffffffffffffffffffffffff19606083901b16606282015260029060009060760160408051601f198184030181526003546020840183526000808552925162c5803160e81b81529194506001600160a01b03169263c5803100923492610775928e928e928e929133918b9060040161198b565b6000604051808303818588803b15801561078e57600080fd5b505af11580156107a2573d6000803e3d6000fd5b50505050505050505050505050565b6003546040516310ddb13760e01b815261ffff831660048201526001600160a01b03909116906310ddb137906024016106b1565b6003546040516304b2b47b60e11b81523060048201526001600160a01b039091169063cbed8b9c90829063096568f690602401602060405180830381865afa158015610835573d6000803e3d6000fd5b505050506040513d601f19601f8201168201806040525081019061085991906119f4565b6040805161ffff861660208201528691600591015b6040516020818303038152906040526040518563ffffffff1660e01b815260040161089c9493929190611a11565b600060405180830381600087803b1580156108b657600080fd5b505af11580156108ca573d6000803e3d6000fd5b505050505050565b6108da611186565b60038054911515600160a01b0260ff60a01b19909216919091179055565b6003546040516304b2b47b60e11b81523060048201526006916001600160a01b03169063cbed8b9c90829063096568f690602401602060405180830381865afa158015610949573d6000803e3d6000fd5b505050506040513d601f19601f8201168201806040525081019061096d91906119f4565b604080516001600160a01b038716602082015287918691016040516020818303038152906040526040518563ffffffff1660e01b81526004016109b39493929190611a11565b600060405180830381600087803b1580156109cd57600080fd5b505af11580156109e1573d6000803e3d6000fd5b50505050505050565b838214610a695760405162461bcd60e51b815260206004820152604160248201527f5f647374436861696e4964732e6c656e6774682c205f647374436f756e74657260448201527f4d6f636b4164647265737365732e6c656e677468206e6f74207468652073616d6064820152606560f81b608482015260a401610205565b836000610a7634836111e0565b600354909150600090600160a01b900460ff16610a94576000610a96565b305b905060005b83811015610b83576003546001600160a01b031663c5803100848b8b85818110610ac757610ac7611a48565b9050602002016020810190610adc91906113bd565b8a8a86818110610aee57610aee611a48565b9050602002810190610b009190611a5e565b6040805160208082018352600080835283519182018452815291516001600160e01b031960e089901b168152610b40959493928e918c919060040161198b565b6000604051808303818588803b158015610b5957600080fd5b505af1158015610b6d573d6000803e3d6000fd5b505050505080610b7c90611aa4565b9050610a9b565b506000610b9a610b9384866111f3565b34906111ff565b6040519091506001600160a01b0386169082156108fc029083906000818181858888f19350505050158015610bd3573d6000803e3d6000fd5b50505050505050505050565b6003546040516304b2b47b60e11b81523060048201526000916001600160a01b03169063096568f6906024015b602060405180830381865afa158015610c29573d6000803e3d6000fd5b505050506040513d601f19601f82011682018060405250810190610c4d91906119f4565b905090565b6003546040516304b2b47b60e11b81523060048201526001600160a01b039091169063cbed8b9c90829063096568f690602401602060405180830381865afa158015610ca2573d6000803e3d6000fd5b505050506040513d601f19601f82011682018060405250810190610cc691906119f4565b6040805161ffff8616602082015286916002910161086e565b610ce7611186565b610cf1600061120b565b565b600354600090600160a01b900460ff16610d0e576000610d10565b305b6003546040805160208101825260008152905162c5803160e81b81529293506001600160a01b039091169163c5803100913491610d5d918b918b918b918b918b9133918c91600401611abf565b6000604051808303818588803b158015610d7657600080fd5b505af1158015610d8a573d6000803e3d6000fd5b5050505050505050505050565b604051600160f01b60208201526022810182905260019060009060420160408051601f198184030181526003546020840183526000808552925162c5803160e81b81529194506001600160a01b03169263c5803100923492610d5d928c928c928c929133918b9060040161198b565b6003546040516304b2b47b60e11b81523060048201526001600160a01b039091169063cbed8b9c90829063096568f690602401602060405180830381865afa158015610e56573d6000803e3d6000fd5b505050506040513d601f19601f82011682018060405250810190610e7a91906119f4565b868686866040518663ffffffff1660e01b8152600401610e9e959493929190611b2a565b600060405180830381600087803b158015610eb857600080fd5b505af1158015610ecc573d6000803e3d6000fd5b505050505050505050565b600354604051636d0d3e4d60e11b81523060048201526000916001600160a01b03169063da1a7c9a90602401610c0c565b610f10611186565b60405163095ea7b360e01b81526001600160a01b0383811660048301526024820183905284169063095ea7b3906044016020604051808303816000875af1158015610f5f573d6000803e3d6000fd5b505050506040513d601f19601f82011682018060405250810190610f839190611b63565b50505050565b600354600090600160a01b900460ff16610fa4576000610fa6565b305b60035460408051602080820183526000808352835191820184528152915162c5803160e81b81529394506001600160a01b039092169263c5803100923492610ffa928a928a928a9233918b9160040161198b565b6000604051808303818588803b158015610eb857600080fd5b61101b611186565b6001600160a01b0381166110805760405162461bcd60e51b815260206004820152602660248201527f4f776e61626c653a206e6577206f776e657220697320746865207a65726f206160448201526564647265737360d01b6064820152608401610205565b6110898161120b565b50565b6003546040516304b2b47b60e11b81523060048201526060916001600160a01b03169063f5ecbdbc90829063096568f690602401602060405180830381865afa1580156110dd573d6000803e3d6000fd5b505050506040513d601f19601f8201168201806040525081019061110191906119f4565b6040516001600160e01b031960e084901b16815261ffff9182166004820152908716602482015230604482015260648101859052608401600060405180830381865afa158015611155573d6000803e3d6000fd5b505050506040513d6000823e601f3d908101601f1916820160405261117d9190810190611b80565b95945050505050565b6000546001600160a01b03163314610cf15760405162461bcd60e51b815260206004820181905260248201527f4f776e61626c653a2063616c6c6572206973206e6f7420746865206f776e65726044820152606401610205565b60006111ec8284611bed565b9392505050565b60006111ec8284611c0f565b60006111ec8284611c2e565b600080546001600160a01b038381166001600160a01b0319831681178455604051919092169283917f8be0079c531659141344cd1fd0a4f28419497f9722a3daafe3b4186f6b6457e09190a35050565b61ffff8116811461108957600080fd5b634e487b7160e01b600052604160045260246000fd5b604051601f8201601f191681016001600160401b03811182821017156112a9576112a961126b565b604052919050565b60006001600160401b038211156112ca576112ca61126b565b50601f01601f191660200190565b600082601f8301126112e957600080fd5b81356112fc6112f7826112b1565b611281565b81815284602083860101111561131157600080fd5b816020850160208301376000918101602001919091529392505050565b6000806000806080858703121561134457600080fd5b843561134f8161125b565b935060208501356001600160401b038082111561136b57600080fd5b611377888389016112d8565b945060408701359150808216821461138e57600080fd5b909250606086013590808211156113a457600080fd5b506113b1878288016112d8565b91505092959194509250565b6000602082840312156113cf57600080fd5b81356111ec8161125b565b60008083601f8401126113ec57600080fd5b5081356001600160401b0381111561140357600080fd5b60208301915083602082850101111561141b57600080fd5b9250929050565b6001600160a01b038116811461108957600080fd5b60008060008060008060a0878903121561145057600080fd5b863561145b8161125b565b955060208701356001600160401b0381111561147657600080fd5b61148289828a016113da565b909650945050604087013592506060870135915060808701356114a481611422565b809150509295509295509295565b600080604083850312156114c557600080fd5b82356114d08161125b565b915060208301356114e08161125b565b809150509250929050565b801515811461108957600080fd5b60006020828403121561150b57600080fd5b81356111ec816114eb565b60008060006040848603121561152b57600080fd5b83356115368161125b565b925060208401356001600160401b0381111561155157600080fd5b61155d868287016113da565b9497909650939450505050565b6000806040838503121561157d57600080fd5b82356115888161125b565b915060208301356114e081611422565b60008083601f8401126115aa57600080fd5b5081356001600160401b038111156115c157600080fd5b6020830191508360208260051b850101111561141b57600080fd5b6000806000806000606086880312156115f457600080fd5b85356001600160401b038082111561160b57600080fd5b61161789838a01611598565b9097509550602088013591508082111561163057600080fd5b5061163d88828901611598565b909450925050604086013561165181611422565b809150509295509295909350565b60008060008060006060868803121561167757600080fd5b85356116828161125b565b945060208601356001600160401b038082111561169e57600080fd5b6116aa89838a016113da565b909650945060408801359150808211156116c357600080fd5b506116d0888289016113da565b969995985093965092949392505050565b600080600080606085870312156116f757600080fd5b84356117028161125b565b935060208501356001600160401b0381111561171d57600080fd5b611729878288016113da565b9598909750949560400135949350505050565b60006020828403121561174e57600080fd5b81356111ec81611422565b60008060008060006080868803121561177157600080fd5b853561177c8161125b565b9450602086013561178c8161125b565b93506040860135925060608601356001600160401b038111156117ae57600080fd5b6116d0888289016113da565b6000806000606084860312156117cf57600080fd5b83356117da81611422565b925060208401356117ea81611422565b929592945050506040919091013590565b6000806000806080858703121561181157600080fd5b843561181c8161125b565b9350602085013561182c8161125b565b9250604085013561183c81611422565b9396929550929360600135925050565b60005b8381101561186757818101518382015260200161184f565b83811115610f835750506000910152565b6000815180845261189081602086016020860161184c565b601f01601f19169290920160200192915050565b6020815260006111ec6020830184611878565b600082516118c981846020870161184c565b9190910192915050565b61ffff8716815260c0602082015260006118f060c0830188611878565b6001600160a01b03871660408401526001600160401b03861660608401526080830185905282810360a08401526119278185611878565b9998505050505050505050565b634e487b7160e01b600052601160045260246000fd5b6000821982111561195d5761195d611934565b500190565b81835281816020850137506000828201602090810191909152601f909101601f19169091010190565b61ffff8816815260c0602082015260006119a960c08301888a611962565b82810360408401526119bb8188611878565b6001600160a01b0387811660608601528616608085015283810360a085015290506119e68185611878565b9a9950505050505050505050565b600060208284031215611a0657600080fd5b81516111ec8161125b565b600061ffff808716835280861660208401525083604083015260806060830152611a3e6080830184611878565b9695505050505050565b634e487b7160e01b600052603260045260246000fd5b6000808335601e19843603018112611a7557600080fd5b8301803591506001600160401b03821115611a8f57600080fd5b60200191503681900382131561141b57600080fd5b6000600019821415611ab857611ab8611934565b5060010190565b61ffff8916815260c060208201526000611add60c08301898b611962565b8281036040840152611af081888a611962565b6001600160a01b0387811660608601528616608085015283810360a08501529050611b1b8185611878565b9b9a5050505050505050505050565b600061ffff808816835280871660208401525084604083015260806060830152611b58608083018486611962565b979650505050505050565b600060208284031215611b7557600080fd5b81516111ec816114eb565b600060208284031215611b9257600080fd5b81516001600160401b03811115611ba857600080fd5b8201601f81018413611bb957600080fd5b8051611bc76112f7826112b1565b818152856020838501011115611bdc57600080fd5b61117d82602083016020860161184c565b600082611c0a57634e487b7160e01b600052601260045260246000fd5b500490565b6000816000190483118215151615611c2957611c29611934565b500290565b600082821015611c4057611c40611934565b50039056fea2646970667358221220704d791e014a96d7ff46c070d1e19883fb3ce6b8cbc76dece7a04a6335d8793d64736f6c634300080c0033",
  "linkReferences": {},
  "deployedLinkReferences": {}
}