{
  "_format": "hh-sol-artifact-1",
  "contractName": "RelayerV2",
  "sourceName": "contracts/mContracts/lzContracts/RelayerV2.sol",
  "abi": [
    {
      "anonymous": false,
      "inputs": [
        {
          "indexed": false,
          "internalType": "address",
          "name": "addr",
          "type": "address"
        },
        {
          "indexed": false,
          "internalType": "bool",
          "name": "approved",
          "type": "bool"
        }
      ],
      "name": "ApproveAddress",
      "type": "event"
    },
    {
      "anonymous": false,
      "inputs": [
        {
          "indexed": false,
          "internalType": "uint256",
          "name": "totalFee",
          "type": "uint256"
        }
      ],
      "name": "AssignJob",
      "type": "event"
    },
    {
      "anonymous": false,
      "inputs": [
        {
          "indexed": false,
          "internalType": "uint8",
          "name": "version",
          "type": "uint8"
        }
      ],
      "name": "Initialized",
      "type": "event"
    },
    {
      "anonymous": false,
      "inputs": [
        {
          "indexed": true,
          "internalType": "address",
          "name": "previousOwner",
          "type": "address"
        },
        {
          "indexed": true,
          "internalType": "address",
          "name": "newOwner",
          "type": "address"
        }
      ],
      "name": "OwnershipTransferred",
      "type": "event"
    },
    {
      "anonymous": false,
      "inputs": [
        {
          "indexed": false,
          "internalType": "uint16",
          "name": "chainId",
          "type": "uint16"
        },
        {
          "indexed": false,
          "internalType": "uint16",
          "name": "outboundProofType",
          "type": "uint16"
        },
        {
          "indexed": false,
          "internalType": "uint128",
          "name": "dstNativeAmtCap",
          "type": "uint128"
        },
        {
          "indexed": false,
          "internalType": "uint64",
          "name": "baseGas",
          "type": "uint64"
        },
        {
          "indexed": false,
          "internalType": "uint64",
          "name": "gasPerByte",
          "type": "uint64"
        }
      ],
      "name": "SetDstConfig",
      "type": "event"
    },
    {
      "anonymous": false,
      "inputs": [
        {
          "indexed": false,
          "internalType": "uint16",
          "name": "chainId",
          "type": "uint16"
        },
        {
          "indexed": false,
          "internalType": "uint128",
          "name": "dstPriceRatio",
          "type": "uint128"
        },
        {
          "indexed": false,
          "internalType": "uint128",
          "name": "dstGasPriceInWei",
          "type": "uint128"
        }
      ],
      "name": "SetDstPrice",
      "type": "event"
    },
    {
      "anonymous": false,
      "inputs": [
        {
          "indexed": true,
          "internalType": "address",
          "name": "to",
          "type": "address"
        },
        {
          "indexed": true,
          "internalType": "uint256",
          "name": "quantity",
          "type": "uint256"
        }
      ],
      "name": "ValueTransferFailed",
      "type": "event"
    },
    {
      "anonymous": false,
      "inputs": [
        {
          "indexed": false,
          "internalType": "address",
          "name": "to",
          "type": "address"
        },
        {
          "indexed": false,
          "internalType": "uint256",
          "name": "amount",
          "type": "uint256"
        }
      ],
      "name": "Withdraw",
      "type": "event"
    },
    {
      "inputs": [
        {
          "internalType": "address",
          "name": "",
          "type": "address"
        }
      ],
      "name": "approvedAddresses",
      "outputs": [
        {
          "internalType": "bool",
          "name": "",
          "type": "bool"
        }
      ],
      "stateMutability": "view",
      "type": "function"
    },
    {
      "inputs": [
        {
          "internalType": "uint16",
          "name": "_dstChainId",
          "type": "uint16"
        },
        {
          "internalType": "uint16",
          "name": "_outboundProofType",
          "type": "uint16"
        },
        {
          "internalType": "address",
          "name": "_userApplication",
          "type": "address"
        },
        {
          "internalType": "uint256",
          "name": "_payloadSize",
          "type": "uint256"
        },
        {
          "internalType": "bytes",
          "name": "_adapterParams",
          "type": "bytes"
        }
      ],
      "name": "assignJob",
      "outputs": [
        {
          "internalType": "uint256",
          "name": "",
          "type": "uint256"
        }
      ],
      "stateMutability": "nonpayable",
      "type": "function"
    },
    {
      "inputs": [
        {
          "internalType": "uint16",
          "name": "",
          "type": "uint16"
        },
        {
          "internalType": "uint16",
          "name": "",
          "type": "uint16"
        }
      ],
      "name": "dstConfigLookup",
      "outputs": [
        {
          "internalType": "uint128",
          "name": "dstNativeAmtCap",
          "type": "uint128"
        },
        {
          "internalType": "uint64",
          "name": "baseGas",
          "type": "uint64"
        },
        {
          "internalType": "uint64",
          "name": "gasPerByte",
          "type": "uint64"
        }
      ],
      "stateMutability": "view",
      "type": "function"
    },
    {
      "inputs": [
        {
          "internalType": "uint16",
          "name": "",
          "type": "uint16"
        }
      ],
      "name": "dstPriceLookup",
      "outputs": [
        {
          "internalType": "uint128",
          "name": "dstPriceRatio",
          "type": "uint128"
        },
        {
          "internalType": "uint128",
          "name": "dstGasPriceInWei",
          "type": "uint128"
        }
      ],
      "stateMutability": "view",
      "type": "function"
    },
    {
      "inputs": [
        {
          "internalType": "uint16",
          "name": "_dstChainId",
          "type": "uint16"
        },
        {
          "internalType": "uint16",
          "name": "_outboundProofType",
          "type": "uint16"
        },
        {
          "internalType": "address",
          "name": "_userApplication",
          "type": "address"
        },
        {
          "internalType": "uint256",
          "name": "_payloadSize",
          "type": "uint256"
        },
        {
          "internalType": "bytes",
          "name": "_adapterParams",
          "type": "bytes"
        }
      ],
      "name": "getFee",
      "outputs": [
        {
          "internalType": "uint256",
          "name": "",
          "type": "uint256"
        }
      ],
      "stateMutability": "view",
      "type": "function"
    },
    {
      "inputs": [
        {
          "internalType": "address",
          "name": "_uln",
          "type": "address"
        }
      ],
      "name": "initialize",
      "outputs": [],
      "stateMutability": "nonpayable",
      "type": "function"
    },
    {
      "inputs": [
        {
          "internalType": "address",
          "name": "_relayerAddress",
          "type": "address"
        }
      ],
      "name": "isApproved",
      "outputs": [
        {
          "internalType": "bool",
          "name": "",
          "type": "bool"
        }
      ],
      "stateMutability": "view",
      "type": "function"
    },
    {
      "inputs": [],
      "name": "owner",
      "outputs": [
        {
          "internalType": "address",
          "name": "",
          "type": "address"
        }
      ],
      "stateMutability": "view",
      "type": "function"
    },
    {
      "inputs": [],
      "name": "paused",
      "outputs": [
        {
          "internalType": "bool",
          "name": "",
          "type": "bool"
        }
      ],
      "stateMutability": "view",
      "type": "function"
    },
    {
      "inputs": [],
      "name": "renounceOwnership",
      "outputs": [],
      "stateMutability": "nonpayable",
      "type": "function"
    },
    {
      "inputs": [
        {
          "internalType": "address",
          "name": "_relayerAddress",
          "type": "address"
        },
        {
          "internalType": "bool",
          "name": "_approve",
          "type": "bool"
        }
      ],
      "name": "setApprovedAddress",
      "outputs": [],
      "stateMutability": "nonpayable",
      "type": "function"
    },
    {
      "inputs": [
        {
          "internalType": "uint16",
          "name": "_chainId",
          "type": "uint16"
        },
        {
          "internalType": "uint16",
          "name": "_outboundProofType",
          "type": "uint16"
        },
        {
          "internalType": "uint128",
          "name": "_dstNativeAmtCap",
          "type": "uint128"
        },
        {
          "internalType": "uint64",
          "name": "_baseGas",
          "type": "uint64"
        },
        {
          "internalType": "uint64",
          "name": "_gasPerByte",
          "type": "uint64"
        }
      ],
      "name": "setDstConfig",
      "outputs": [],
      "stateMutability": "nonpayable",
      "type": "function"
    },
    {
      "inputs": [
        {
          "internalType": "uint16",
          "name": "_chainId",
          "type": "uint16"
        },
        {
          "internalType": "uint128",
          "name": "_dstPriceRatio",
          "type": "uint128"
        },
        {
          "internalType": "uint128",
          "name": "_dstGasPriceInWei",
          "type": "uint128"
        }
      ],
      "name": "setDstPrice",
      "outputs": [],
      "stateMutability": "nonpayable",
      "type": "function"
    },
    {
      "inputs": [
        {
          "internalType": "bool",
          "name": "_paused",
          "type": "bool"
        }
      ],
      "name": "setPause",
      "outputs": [],
      "stateMutability": "nonpayable",
      "type": "function"
    },
    {
      "inputs": [
        {
          "internalType": "address",
          "name": "_stargateAddress",
          "type": "address"
        }
      ],
      "name": "setStargateAddress",
      "outputs": [],
      "stateMutability": "nonpayable",
      "type": "function"
    },
    {
      "inputs": [],
      "name": "stargateBridgeAddress",
      "outputs": [
        {
          "internalType": "address",
          "name": "",
          "type": "address"
        }
      ],
      "stateMutability": "view",
      "type": "function"
    },
    {
      "inputs": [
        {
          "internalType": "address",
          "name": "newOwner",
          "type": "address"
        }
      ],
      "name": "transferOwnership",
      "outputs": [],
      "stateMutability": "nonpayable",
      "type": "function"
    },
    {
      "inputs": [],
      "name": "uln",
      "outputs": [
        {
          "internalType": "contract ILayerZeroUltraLightNodeV2",
          "name": "",
          "type": "address"
        }
      ],
      "stateMutability": "view",
      "type": "function"
    },
    {
      "inputs": [
        {
          "internalType": "uint16",
          "name": "_srcChainId",
          "type": "uint16"
        },
        {
          "internalType": "address",
          "name": "_dstAddress",
          "type": "address"
        },
        {
          "internalType": "uint256",
          "name": "_gasLimit",
          "type": "uint256"
        },
        {
          "internalType": "bytes32",
          "name": "_blockHash",
          "type": "bytes32"
        },
        {
          "internalType": "bytes32",
          "name": "_data",
          "type": "bytes32"
        },
        {
          "internalType": "bytes",
          "name": "_transactionProof",
          "type": "bytes"
        }
      ],
      "name": "validateTransactionProofV1",
      "outputs": [],
      "stateMutability": "nonpayable",
      "type": "function"
    },
    {
      "inputs": [
        {
          "internalType": "uint16",
          "name": "_srcChainId",
          "type": "uint16"
        },
        {
          "internalType": "address",
          "name": "_dstAddress",
          "type": "address"
        },
        {
          "internalType": "uint256",
          "name": "_gasLimit",
          "type": "uint256"
        },
        {
          "internalType": "bytes32",
          "name": "_blockHash",
          "type": "bytes32"
        },
        {
          "internalType": "bytes32",
          "name": "_data",
          "type": "bytes32"
        },
        {
          "internalType": "bytes",
          "name": "_transactionProof",
          "type": "bytes"
        },
        {
          "internalType": "address payable",
          "name": "_to",
          "type": "address"
        }
      ],
      "name": "validateTransactionProofV2",
      "outputs": [],
      "stateMutability": "payable",
      "type": "function"
    },
    {
      "inputs": [
        {
          "internalType": "address payable",
          "name": "_to",
          "type": "address"
        },
        {
          "internalType": "uint256",
          "name": "_amount",
          "type": "uint256"
        }
      ],
      "name": "withdrawFee",
      "outputs": [],
      "stateMutability": "nonpayable",
      "type": "function"
    }
  ],
  "bytecode": "0x608060405234801561001057600080fd5b506001600055611945806100256000396000f3fe60806040526004361061012a5760003560e01c80636c473aff116100ab578063bedb86fb1161006f578063bedb86fb146103db578063c03f1529146103fb578063c4d66de81461041b578063f136a8741461043b578063f2fde38b1461046b578063fd9be5221461048b57600080fd5b80636c473aff14610307578063715018a614610327578063765a8a541461033c5780638da5cb5b1461039d578063b8f8bad4146103bb57600080fd5b8063575765e2116100f2578063575765e2146102375780635886ea65146102575780635c975abb146102855780636348d269146102af578063673448dd146102e757600080fd5b806303343f541461012f5780630508941e1461015157806323161ff814610164578063252f7b01146101f75780633f10348714610217575b600080fd5b34801561013b57600080fd5b5061014f61014a3660046113ee565b6104ab565b005b61014f61015f36600461146b565b61051c565b34801561017057600080fd5b506101c261017f366004611502565b60696020908152600092835260408084209091529082529020546001600160801b0381169067ffffffffffffffff600160801b8204811691600160c01b90041683565b604080516001600160801b03909416845267ffffffffffffffff92831660208501529116908201526060015b60405180910390f35b34801561020357600080fd5b5061014f610212366004611535565b6106c7565b34801561022357600080fd5b5061014f6102323660046115e8565b6107e1565b34801561024357600080fd5b5061014f61025236600461165d565b610936565b34801561026357600080fd5b50610277610272366004611689565b6109a1565b6040519081526020016101ee565b34801561029157600080fd5b50606b5461029f9060ff1681565b60405190151581526020016101ee565b3480156102bb57600080fd5b506067546102cf906001600160a01b031681565b6040516001600160a01b0390911681526020016101ee565b3480156102f357600080fd5b5061029f6103023660046113ee565b610a9d565b34801561031357600080fd5b506066546102cf906001600160a01b031681565b34801561033357600080fd5b5061014f610abb565b34801561034857600080fd5b5061037d61035736600461170a565b6068602052600090815260409020546001600160801b0380821691600160801b90041682565b604080516001600160801b039384168152929091166020830152016101ee565b3480156103a957600080fd5b506034546001600160a01b03166102cf565b3480156103c757600080fd5b5061014f6103d6366004611725565b610acf565b3480156103e757600080fd5b5061014f6103f6366004611768565b610b9c565b34801561040757600080fd5b50610277610416366004611689565b610bb7565b34801561042757600080fd5b5061014f6104363660046113ee565b610c24565b34801561044757600080fd5b5061029f6104563660046113ee565b606a6020526000908152604090205460ff1681565b34801561047757600080fd5b5061014f6104863660046113ee565b610dd1565b34801561049757600080fd5b5061014f6104a6366004611783565b610e4a565b336104be6034546001600160a01b031690565b6001600160a01b0316146104fa576104d533610a9d565b6104fa5760405162461bcd60e51b81526004016104f1906117af565b60405180910390fd5b606780546001600160a01b0319166001600160a01b0392909216919091179055565b3361052f6034546001600160a01b031690565b6001600160a01b0316146105625761054633610a9d565b6105625760405162461bcd60e51b81526004016104f1906117af565b600260005414156105b55760405162461bcd60e51b815260206004820152601f60248201527f5265656e7472616e637947756172643a207265656e7472616e742063616c6c0060448201526064016104f1565b600260009081556040516001600160a01b0383169034908381818185875af1925050503d8060008114610604576040519150601f19603f3d011682016040523d82523d6000602084013e610609565b606091505b50509050806106495760405134906001600160a01b038416907f2c7a964ca3de5ec1d42d9822f9bbd0eb142a59cc9f855e9d93813b773192c7a390600090a35b60665460405163987fa2d560e01b81526001600160a01b039091169063987fa2d590610685908c908c908c908c908c908c908c906004016117de565b600060405180830381600087803b15801561069f57600080fd5b505af11580156106b3573d6000803e3d6000fd5b505060016000555050505050505050505050565b336106da6034546001600160a01b031690565b6001600160a01b03161461070d576106f133610a9d565b61070d5760405162461bcd60e51b81526004016104f1906117af565b600260005414156107605760405162461bcd60e51b815260206004820152601f60248201527f5265656e7472616e637947756172643a207265656e7472616e742063616c6c0060448201526064016104f1565b600260005560665460405163987fa2d560e01b81526001600160a01b039091169063987fa2d5906107a1908a908a908a908a908a908a908a906004016117de565b600060405180830381600087803b1580156107bb57600080fd5b505af11580156107cf573d6000803e3d6000fd5b50506001600055505050505050505050565b336107f46034546001600160a01b031690565b6001600160a01b0316146108275761080b33610a9d565b6108275760405162461bcd60e51b81526004016104f1906117af565b604080516060810182526001600160801b03808616825267ffffffffffffffff808616602080850191825286831685870190815261ffff808d16600090815260698452888120918d16815292529086902094518554925191518416600160c01b026001600160c01b0392909416600160801b026001600160c01b03199093169416939093171791909116179055517fd053e021dda81c7c2794ff89e320caea5379962d49ed383a3bd0a54ffc4b932f90610927908790879087908790879061ffff95861681529390941660208401526001600160801b0391909116604083015267ffffffffffffffff908116606083015291909116608082015260a00190565b60405180910390a15050505050565b61093e610fc9565b6001600160a01b0382166000818152606a6020908152604091829020805460ff19168515159081179091558251938452908301527fb10786d0bfa68fb1aa29552d9203e5f545f7c073ff0784da1de1d800986f1023910160405180910390a15050565b6066546000906001600160a01b031633146109f55760405162461bcd60e51b81526020600482015260146024820152732932b630bcb2b91d1034b73b30b634b2103ab63760611b60448201526064016104f1565b600080610a3a89898988888080601f01602080910402602001604051908101604052809392919081815260200183838082843760009201919091525061102392505050565b90925090506000610a55610a4e88846112fd565b8490611310565b90507fdf21c415b78ed2552cc9971249e32a053abce6087a0ae0fbf3f78db5174a349381604051610a8891815260200190565b60405180910390a19998505050505050505050565b6001600160a01b03166000908152606a602052604090205460ff1690565b610ac3610fc9565b610acd600061131c565b565b33610ae26034546001600160a01b031690565b6001600160a01b031614610b1557610af933610a9d565b610b155760405162461bcd60e51b81526004016104f1906117af565b6040805180820182526001600160801b03848116808352848216602080850182815261ffff8a16600081815260688452889020965191518616600160801b029190951617909455845192835292820152918201527fa812e6d95f70b4a1555cf2cfcc53d6aa10ca827ef87ce47a0e145eebc0c19a3c906060015b60405180910390a1505050565b610ba4610fc9565b606b805460ff1916911515919091179055565b6000806000610bfe89898988888080601f01602080910402602001604051908101604052809392919081815260200183838082843760009201919091525061102392505050565b9092509050610c17610c1087836112fd565b8390611310565b9998505050505050505050565b6000610c4e7fb53127684a568b3173ae13b9f8a6016e243e63b6e8ee1178d6a717850b5d61035490565b90506001600160a01b038116610c8d576001600160a01b037fb53127684a568b3173ae13b9f8a6016e243e63b6e8ee1178d6a717850b5d610355610ca2565b336001600160a01b03821614610ca257600080fd5b600154610100900460ff1615808015610cbf57506001805460ff16105b80610cd85750303b158015610cd857506001805460ff16145b610d3b5760405162461bcd60e51b815260206004820152602e60248201527f496e697469616c697a61626c653a20636f6e747261637420697320616c72656160448201526d191e481a5b9a5d1a585b1a5e995960921b60648201526084016104f1565b6001805460ff1916811790558015610d5d576001805461ff0019166101001790555b610d6561136e565b606680546001600160a01b0319166001600160a01b038516179055610d8b306001610936565b8015610dcc576001805461ff00191681556040519081527f7f26b83ff96e1f2b6a682f133852f6798a09c465da95921460cefb384740249890602001610b8f565b505050565b610dd9610fc9565b6001600160a01b038116610e3e5760405162461bcd60e51b815260206004820152602660248201527f4f776e61626c653a206e6577206f776e657220697320746865207a65726f206160448201526564647265737360d01b60648201526084016104f1565b610e478161131c565b50565b33610e5d6034546001600160a01b031690565b6001600160a01b031614610e9057610e7433610a9d565b610e905760405162461bcd60e51b81526004016104f1906117af565b6066546040516334a095fd60e11b81523060048201526000916001600160a01b0316906369412bfa90602401602060405180830381865afa158015610ed9573d6000803e3d6000fd5b505050506040513d601f19601f82011682018060405250810190610efd919061183c565b905080821115610f5e5760405162461bcd60e51b815260206004820152602660248201527f52656c617965723a206e6f7420656e6f7567682066656520666f722077697468604482015265191c985dd85b60d21b60648201526084016104f1565b6066546040516303d8c5ef60e11b81526001600160a01b03858116600483015260248201859052909116906307b18bde90604401600060405180830381600087803b158015610fac57600080fd5b505af1158015610fc0573d6000803e3d6000fd5b50505050505050565b6034546001600160a01b03163314610acd5760405162461bcd60e51b815260206004820181905260248201527f4f776e61626c653a2063616c6c6572206973206e6f7420746865206f776e657260448201526064016104f1565b606b54600090819060ff161561106b5760405162461bcd60e51b815260206004820152600d60248201526c10591b5a5b8e881c185d5cd959609a1b60448201526064016104f1565b82516022148061107c575060428351115b6110d75760405162461bcd60e51b815260206004820152602660248201527f52656c617965723a2077726f6e67205f61646170746572506172616d65746572604482015265732073697a6560d01b60648201526084016104f1565b60028301516022840151806111255760405162461bcd60e51b815260206004820152601460248201527352656c617965723a2067617320746f6f206c6f7760601b60448201526064016104f1565b8161ffff166001148061113c57508161ffff166002145b6111885760405162461bcd60e51b815260206004820152601b60248201527f52656c617965723a20756e737570706f7274656420747854797065000000000060448201526064016104f1565b61ffff8881166000908152606860209081526040808320606983528184208c861685529092528220909290919085166002141561122c57604288015182546001600160801b031681111561121e5760405162461bcd60e51b815260206004820152601f60248201527f52656c617965723a206473744e6174697665416d7420746f6f206c617267650060448201526064016104f1565b6112288282611310565b9150505b81546000906112689061125090600160801b900467ffffffffffffffff1687611310565b8554600160801b90046001600160801b0316906112fd565b90506112748282611310565b845490925061129e906402540be400906112989085906001600160801b03166112fd565b9061139d565b845484549199506112ec916402540be40091611298916001600160801b03808316926112e692600160801b90910490911690600160c01b900467ffffffffffffffff166112fd565b906112fd565b965050505050505094509492505050565b6000611309828461186b565b9392505050565b6000611309828461188a565b603480546001600160a01b038381166001600160a01b0319831681179093556040519116919082907f8be0079c531659141344cd1fd0a4f28419497f9722a3daafe3b4186f6b6457e090600090a35050565b600154610100900460ff166113955760405162461bcd60e51b81526004016104f1906118a2565b610acd6113a9565b600061130982846118ed565b600154610100900460ff166113d05760405162461bcd60e51b81526004016104f1906118a2565b610acd3361131c565b6001600160a01b0381168114610e4757600080fd5b60006020828403121561140057600080fd5b8135611309816113d9565b803561ffff8116811461141d57600080fd5b919050565b60008083601f84011261143457600080fd5b50813567ffffffffffffffff81111561144c57600080fd5b60208301915083602082850101111561146457600080fd5b9250929050565b60008060008060008060008060e0898b03121561148757600080fd5b6114908961140b565b975060208901356114a0816113d9565b965060408901359550606089013594506080890135935060a089013567ffffffffffffffff8111156114d157600080fd5b6114dd8b828c01611422565b90945092505060c08901356114f1816113d9565b809150509295985092959890939650565b6000806040838503121561151557600080fd5b61151e8361140b565b915061152c6020840161140b565b90509250929050565b600080600080600080600060c0888a03121561155057600080fd5b6115598861140b565b96506020880135611569816113d9565b955060408801359450606088013593506080880135925060a088013567ffffffffffffffff81111561159a57600080fd5b6115a68a828b01611422565b989b979a50959850939692959293505050565b80356001600160801b038116811461141d57600080fd5b803567ffffffffffffffff8116811461141d57600080fd5b600080600080600060a0868803121561160057600080fd5b6116098661140b565b94506116176020870161140b565b9350611625604087016115b9565b9250611633606087016115d0565b9150611641608087016115d0565b90509295509295909350565b8035801515811461141d57600080fd5b6000806040838503121561167057600080fd5b823561167b816113d9565b915061152c6020840161164d565b60008060008060008060a087890312156116a257600080fd5b6116ab8761140b565b95506116b96020880161140b565b945060408701356116c9816113d9565b935060608701359250608087013567ffffffffffffffff8111156116ec57600080fd5b6116f889828a01611422565b979a9699509497509295939492505050565b60006020828403121561171c57600080fd5b6113098261140b565b60008060006060848603121561173a57600080fd5b6117438461140b565b9250611751602085016115b9565b915061175f604085016115b9565b90509250925092565b60006020828403121561177a57600080fd5b6113098261164d565b6000806040838503121561179657600080fd5b82356117a1816113d9565b946020939093013593505050565b60208082526015908201527414995b185e595c8e881b9bdd08185c1c1c9bdd9959605a1b604082015260600190565b61ffff8816815260018060a01b038716602082015285604082015284606082015283608082015260c060a08201528160c0820152818360e0830137600081830160e090810191909152601f909201601f191601019695505050505050565b60006020828403121561184e57600080fd5b5051919050565b634e487b7160e01b600052601160045260246000fd5b600081600019048311821515161561188557611885611855565b500290565b6000821982111561189d5761189d611855565b500190565b6020808252602b908201527f496e697469616c697a61626c653a20636f6e7472616374206973206e6f74206960408201526a6e697469616c697a696e6760a81b606082015260800190565b60008261190a57634e487b7160e01b600052601260045260246000fd5b50049056fea2646970667358221220d5353e195ee9913e108f75fb93696eedde62f9ac5d448dc80c45942f48b2b52364736f6c634300080c0033",
  "linkReferences": {},
  "deployedLinkReferences": {}
}