{
  "_format": "hh-sol-artifact-1",
  "contractName": "ExampleUniversalONFT721",
  "sourceName": "contracts/examples/ExampleUniversalONFT721.sol",
  "abi": [
    {
      "inputs": [
        {
          "internalType": "uint256",
          "name": "_minGasToStore",
          "type": "uint256"
        },
        {
          "internalType": "address",
          "name": "_layerZeroEndpoint",
          "type": "address"
        },
        {
          "internalType": "uint256",
          "name": "_startMintId",
          "type": "uint256"
        },
        {
          "internalType": "uint256",
          "name": "_endMintId",
          "type": "uint256"
        }
      ],
      "stateMutability": "nonpayable",
      "type": "constructor"
    },
    {
      "anonymous": false,
      "inputs": [
        {
          "indexed": true,
          "internalType": "address",
          "name": "owner",
          "type": "address"
        },
        {
          "indexed": true,
          "internalType": "address",
          "name": "approved",
          "type": "address"
        },
        {
          "indexed": true,
          "internalType": "uint256",
          "name": "tokenId",
          "type": "uint256"
        }
      ],
      "name": "Approval",
      "type": "event"
    },
    {
      "anonymous": false,
      "inputs": [
        {
          "indexed": true,
          "internalType": "address",
          "name": "owner",
          "type": "address"
        },
        {
          "indexed": true,
          "internalType": "address",
          "name": "operator",
          "type": "address"
        },
        {
          "indexed": false,
          "internalType": "bool",
          "name": "approved",
          "type": "bool"
        }
      ],
      "name": "ApprovalForAll",
      "type": "event"
    },
    {
      "anonymous": false,
      "inputs": [
        {
          "indexed": false,
          "internalType": "bytes32",
          "name": "_hashedPayload",
          "type": "bytes32"
        }
      ],
      "name": "CreditCleared",
      "type": "event"
    },
    {
      "anonymous": false,
      "inputs": [
        {
          "indexed": false,
          "internalType": "bytes32",
          "name": "_hashedPayload",
          "type": "bytes32"
        },
        {
          "indexed": false,
          "internalType": "bytes",
          "name": "_payload",
          "type": "bytes"
        }
      ],
      "name": "CreditStored",
      "type": "event"
    },
    {
      "anonymous": false,
      "inputs": [
        {
          "indexed": false,
          "internalType": "uint16",
          "name": "_srcChainId",
          "type": "uint16"
        },
        {
          "indexed": false,
          "internalType": "bytes",
          "name": "_srcAddress",
          "type": "bytes"
        },
        {
          "indexed": false,
          "internalType": "uint64",
          "name": "_nonce",
          "type": "uint64"
        },
        {
          "indexed": false,
          "internalType": "bytes",
          "name": "_payload",
          "type": "bytes"
        },
        {
          "indexed": false,
          "internalType": "bytes",
          "name": "_reason",
          "type": "bytes"
        }
      ],
      "name": "MessageFailed",
      "type": "event"
    },
    {
      "anonymous": false,
      "inputs": [
        {
          "indexed": true,
          "internalType": "address",
          "name": "previousOwner",
          "type": "address"
        },
        {
          "indexed": true,
          "internalType": "address",
          "name": "newOwner",
          "type": "address"
        }
      ],
      "name": "OwnershipTransferred",
      "type": "event"
    },
    {
      "anonymous": false,
      "inputs": [
        {
          "indexed": true,
          "internalType": "uint16",
          "name": "_srcChainId",
          "type": "uint16"
        },
        {
          "indexed": true,
          "internalType": "bytes",
          "name": "_srcAddress",
          "type": "bytes"
        },
        {
          "indexed": true,
          "internalType": "address",
          "name": "_toAddress",
          "type": "address"
        },
        {
          "indexed": false,
          "internalType": "uint256[]",
          "name": "_tokenIds",
          "type": "uint256[]"
        }
      ],
      "name": "ReceiveFromChain",
      "type": "event"
    },
    {
      "anonymous": false,
      "inputs": [
        {
          "indexed": false,
          "internalType": "uint16",
          "name": "_srcChainId",
          "type": "uint16"
        },
        {
          "indexed": false,
          "internalType": "bytes",
          "name": "_srcAddress",
          "type": "bytes"
        },
        {
          "indexed": false,
          "internalType": "uint64",
          "name": "_nonce",
          "type": "uint64"
        },
        {
          "indexed": false,
          "internalType": "bytes32",
          "name": "_payloadHash",
          "type": "bytes32"
        }
      ],
      "name": "RetryMessageSuccess",
      "type": "event"
    },
    {
      "anonymous": false,
      "inputs": [
        {
          "indexed": true,
          "internalType": "uint16",
          "name": "_dstChainId",
          "type": "uint16"
        },
        {
          "indexed": true,
          "internalType": "address",
          "name": "_from",
          "type": "address"
        },
        {
          "indexed": true,
          "internalType": "bytes",
          "name": "_toAddress",
          "type": "bytes"
        },
        {
          "indexed": false,
          "internalType": "uint256[]",
          "name": "_tokenIds",
          "type": "uint256[]"
        }
      ],
      "name": "SendToChain",
      "type": "event"
    },
    {
      "anonymous": false,
      "inputs": [
        {
          "indexed": false,
          "internalType": "uint16",
          "name": "_dstChainId",
          "type": "uint16"
        },
        {
          "indexed": false,
          "internalType": "uint16",
          "name": "_type",
          "type": "uint16"
        },
        {
          "indexed": false,
          "internalType": "uint256",
          "name": "_minDstGas",
          "type": "uint256"
        }
      ],
      "name": "SetMinDstGas",
      "type": "event"
    },
    {
      "anonymous": false,
      "inputs": [
        {
          "indexed": false,
          "internalType": "address",
          "name": "precrime",
          "type": "address"
        }
      ],
      "name": "SetPrecrime",
      "type": "event"
    },
    {
      "anonymous": false,
      "inputs": [
        {
          "indexed": false,
          "internalType": "uint16",
          "name": "_remoteChainId",
          "type": "uint16"
        },
        {
          "indexed": false,
          "internalType": "bytes",
          "name": "_path",
          "type": "bytes"
        }
      ],
      "name": "SetTrustedRemote",
      "type": "event"
    },
    {
      "anonymous": false,
      "inputs": [
        {
          "indexed": false,
          "internalType": "uint16",
          "name": "_remoteChainId",
          "type": "uint16"
        },
        {
          "indexed": false,
          "internalType": "bytes",
          "name": "_remoteAddress",
          "type": "bytes"
        }
      ],
      "name": "SetTrustedRemoteAddress",
      "type": "event"
    },
    {
      "anonymous": false,
      "inputs": [
        {
          "indexed": true,
          "internalType": "address",
          "name": "from",
          "type": "address"
        },
        {
          "indexed": true,
          "internalType": "address",
          "name": "to",
          "type": "address"
        },
        {
          "indexed": true,
          "internalType": "uint256",
          "name": "tokenId",
          "type": "uint256"
        }
      ],
      "name": "Transfer",
      "type": "event"
    },
    {
      "inputs": [],
      "name": "DEFAULT_PAYLOAD_SIZE_LIMIT",
      "outputs": [
        {
          "internalType": "uint256",
          "name": "",
          "type": "uint256"
        }
      ],
      "stateMutability": "view",
      "type": "function"
    },
    {
      "inputs": [],
      "name": "FUNCTION_TYPE_SEND",
      "outputs": [
        {
          "internalType": "uint16",
          "name": "",
          "type": "uint16"
        }
      ],
      "stateMutability": "view",
      "type": "function"
    },
    {
      "inputs": [
        {
          "internalType": "address",
          "name": "to",
          "type": "address"
        },
        {
          "internalType": "uint256",
          "name": "tokenId",
          "type": "uint256"
        }
      ],
      "name": "approve",
      "outputs": [],
      "stateMutability": "nonpayable",
      "type": "function"
    },
    {
      "inputs": [
        {
          "internalType": "address",
          "name": "owner",
          "type": "address"
        }
      ],
      "name": "balanceOf",
      "outputs": [
        {
          "internalType": "uint256",
          "name": "",
          "type": "uint256"
        }
      ],
      "stateMutability": "view",
      "type": "function"
    },
    {
      "inputs": [
        {
          "internalType": "bytes",
          "name": "_payload",
          "type": "bytes"
        }
      ],
      "name": "clearCredits",
      "outputs": [],
      "stateMutability": "nonpayable",
      "type": "function"
    },
    {
      "inputs": [
        {
          "internalType": "uint16",
          "name": "",
          "type": "uint16"
        }
      ],
      "name": "dstChainIdToBatchLimit",
      "outputs": [
        {
          "internalType": "uint256",
          "name": "",
          "type": "uint256"
        }
      ],
      "stateMutability": "view",
      "type": "function"
    },
    {
      "inputs": [
        {
          "internalType": "uint16",
          "name": "",
          "type": "uint16"
        }
      ],
      "name": "dstChainIdToTransferGas",
      "outputs": [
        {
          "internalType": "uint256",
          "name": "",
          "type": "uint256"
        }
      ],
      "stateMutability": "view",
      "type": "function"
    },
    {
      "inputs": [
        {
          "internalType": "uint16",
          "name": "_dstChainId",
          "type": "uint16"
        },
        {
          "internalType": "bytes",
          "name": "_toAddress",
          "type": "bytes"
        },
        {
          "internalType": "uint256[]",
          "name": "_tokenIds",
          "type": "uint256[]"
        },
        {
          "internalType": "bool",
          "name": "_useZro",
          "type": "bool"
        },
        {
          "internalType": "bytes",
          "name": "_adapterParams",
          "type": "bytes"
        }
      ],
      "name": "estimateSendBatchFee",
      "outputs": [
        {
          "internalType": "uint256",
          "name": "nativeFee",
          "type": "uint256"
        },
        {
          "internalType": "uint256",
          "name": "zroFee",
          "type": "uint256"
        }
      ],
      "stateMutability": "view",
      "type": "function"
    },
    {
      "inputs": [
        {
          "internalType": "uint16",
          "name": "_dstChainId",
          "type": "uint16"
        },
        {
          "internalType": "bytes",
          "name": "_toAddress",
          "type": "bytes"
        },
        {
          "internalType": "uint256",
          "name": "_tokenId",
          "type": "uint256"
        },
        {
          "internalType": "bool",
          "name": "_useZro",
          "type": "bool"
        },
        {
          "internalType": "bytes",
          "name": "_adapterParams",
          "type": "bytes"
        }
      ],
      "name": "estimateSendFee",
      "outputs": [
        {
          "internalType": "uint256",
          "name": "nativeFee",
          "type": "uint256"
        },
        {
          "internalType": "uint256",
          "name": "zroFee",
          "type": "uint256"
        }
      ],
      "stateMutability": "view",
      "type": "function"
    },
    {
      "inputs": [
        {
          "internalType": "uint16",
          "name": "",
          "type": "uint16"
        },
        {
          "internalType": "bytes",
          "name": "",
          "type": "bytes"
        },
        {
          "internalType": "uint64",
          "name": "",
          "type": "uint64"
        }
      ],
      "name": "failedMessages",
      "outputs": [
        {
          "internalType": "bytes32",
          "name": "",
          "type": "bytes32"
        }
      ],
      "stateMutability": "view",
      "type": "function"
    },
    {
      "inputs": [
        {
          "internalType": "uint16",
          "name": "_srcChainId",
          "type": "uint16"
        },
        {
          "internalType": "bytes",
          "name": "_srcAddress",
          "type": "bytes"
        }
      ],
      "name": "forceResumeReceive",
      "outputs": [],
      "stateMutability": "nonpayable",
      "type": "function"
    },
    {
      "inputs": [
        {
          "internalType": "uint256",
          "name": "tokenId",
          "type": "uint256"
        }
      ],
      "name": "getApproved",
      "outputs": [
        {
          "internalType": "address",
          "name": "",
          "type": "address"
        }
      ],
      "stateMutability": "view",
      "type": "function"
    },
    {
      "inputs": [
        {
          "internalType": "uint16",
          "name": "_version",
          "type": "uint16"
        },
        {
          "internalType": "uint16",
          "name": "_chainId",
          "type": "uint16"
        },
        {
          "internalType": "address",
          "name": "",
          "type": "address"
        },
        {
          "internalType": "uint256",
          "name": "_configType",
          "type": "uint256"
        }
      ],
      "name": "getConfig",
      "outputs": [
        {
          "internalType": "bytes",
          "name": "",
          "type": "bytes"
        }
      ],
      "stateMutability": "view",
      "type": "function"
    },
    {
      "inputs": [
        {
          "internalType": "uint16",
          "name": "_remoteChainId",
          "type": "uint16"
        }
      ],
      "name": "getTrustedRemoteAddress",
      "outputs": [
        {
          "internalType": "bytes",
          "name": "",
          "type": "bytes"
        }
      ],
      "stateMutability": "view",
      "type": "function"
    },
    {
      "inputs": [
        {
          "internalType": "address",
          "name": "owner",
          "type": "address"
        },
        {
          "internalType": "address",
          "name": "operator",
          "type": "address"
        }
      ],
      "name": "isApprovedForAll",
      "outputs": [
        {
          "internalType": "bool",
          "name": "",
          "type": "bool"
        }
      ],
      "stateMutability": "view",
      "type": "function"
    },
    {
      "inputs": [
        {
          "internalType": "uint16",
          "name": "_srcChainId",
          "type": "uint16"
        },
        {
          "internalType": "bytes",
          "name": "_srcAddress",
          "type": "bytes"
        }
      ],
      "name": "isTrustedRemote",
      "outputs": [
        {
          "internalType": "bool",
          "name": "",
          "type": "bool"
        }
      ],
      "stateMutability": "view",
      "type": "function"
    },
    {
      "inputs": [],
      "name": "lzEndpoint",
      "outputs": [
        {
          "internalType": "contract ILayerZeroEndpoint",
          "name": "",
          "type": "address"
        }
      ],
      "stateMutability": "view",
      "type": "function"
    },
    {
      "inputs": [
        {
          "internalType": "uint16",
          "name": "_srcChainId",
          "type": "uint16"
        },
        {
          "internalType": "bytes",
          "name": "_srcAddress",
          "type": "bytes"
        },
        {
          "internalType": "uint64",
          "name": "_nonce",
          "type": "uint64"
        },
        {
          "internalType": "bytes",
          "name": "_payload",
          "type": "bytes"
        }
      ],
      "name": "lzReceive",
      "outputs": [],
      "stateMutability": "nonpayable",
      "type": "function"
    },
    {
      "inputs": [],
      "name": "maxMintId",
      "outputs": [
        {
          "internalType": "uint256",
          "name": "",
          "type": "uint256"
        }
      ],
      "stateMutability": "view",
      "type": "function"
    },
    {
      "inputs": [
        {
          "internalType": "uint16",
          "name": "",
          "type": "uint16"
        },
        {
          "internalType": "uint16",
          "name": "",
          "type": "uint16"
        }
      ],
      "name": "minDstGasLookup",
      "outputs": [
        {
          "internalType": "uint256",
          "name": "",
          "type": "uint256"
        }
      ],
      "stateMutability": "view",
      "type": "function"
    },
    {
      "inputs": [],
      "name": "minGasToTransferAndStore",
      "outputs": [
        {
          "internalType": "uint256",
          "name": "",
          "type": "uint256"
        }
      ],
      "stateMutability": "view",
      "type": "function"
    },
    {
      "inputs": [],
      "name": "mint",
      "outputs": [],
      "stateMutability": "payable",
      "type": "function"
    },
    {
      "inputs": [],
      "name": "name",
      "outputs": [
        {
          "internalType": "string",
          "name": "",
          "type": "string"
        }
      ],
      "stateMutability": "view",
      "type": "function"
    },
    {
      "inputs": [],
      "name": "nextMintId",
      "outputs": [
        {
          "internalType": "uint256",
          "name": "",
          "type": "uint256"
        }
      ],
      "stateMutability": "view",
      "type": "function"
    },
    {
      "inputs": [
        {
          "internalType": "uint16",
          "name": "_srcChainId",
          "type": "uint16"
        },
        {
          "internalType": "bytes",
          "name": "_srcAddress",
          "type": "bytes"
        },
        {
          "internalType": "uint64",
          "name": "_nonce",
          "type": "uint64"
        },
        {
          "internalType": "bytes",
          "name": "_payload",
          "type": "bytes"
        }
      ],
      "name": "nonblockingLzReceive",
      "outputs": [],
      "stateMutability": "nonpayable",
      "type": "function"
    },
    {
      "inputs": [],
      "name": "owner",
      "outputs": [
        {
          "internalType": "address",
          "name": "",
          "type": "address"
        }
      ],
      "stateMutability": "view",
      "type": "function"
    },
    {
      "inputs": [
        {
          "internalType": "uint256",
          "name": "tokenId",
          "type": "uint256"
        }
      ],
      "name": "ownerOf",
      "outputs": [
        {
          "internalType": "address",
          "name": "",
          "type": "address"
        }
      ],
      "stateMutability": "view",
      "type": "function"
    },
    {
      "inputs": [
        {
          "internalType": "uint16",
          "name": "",
          "type": "uint16"
        }
      ],
      "name": "payloadSizeLimitLookup",
      "outputs": [
        {
          "internalType": "uint256",
          "name": "",
          "type": "uint256"
        }
      ],
      "stateMutability": "view",
      "type": "function"
    },
    {
      "inputs": [],
      "name": "precrime",
      "outputs": [
        {
          "internalType": "address",
          "name": "",
          "type": "address"
        }
      ],
      "stateMutability": "view",
      "type": "function"
    },
    {
      "inputs": [],
      "name": "renounceOwnership",
      "outputs": [],
      "stateMutability": "nonpayable",
      "type": "function"
    },
    {
      "inputs": [
        {
          "internalType": "uint16",
          "name": "_srcChainId",
          "type": "uint16"
        },
        {
          "internalType": "bytes",
          "name": "_srcAddress",
          "type": "bytes"
        },
        {
          "internalType": "uint64",
          "name": "_nonce",
          "type": "uint64"
        },
        {
          "internalType": "bytes",
          "name": "_payload",
          "type": "bytes"
        }
      ],
      "name": "retryMessage",
      "outputs": [],
      "stateMutability": "payable",
      "type": "function"
    },
    {
      "inputs": [
        {
          "internalType": "address",
          "name": "from",
          "type": "address"
        },
        {
          "internalType": "address",
          "name": "to",
          "type": "address"
        },
        {
          "internalType": "uint256",
          "name": "tokenId",
          "type": "uint256"
        }
      ],
      "name": "safeTransferFrom",
      "outputs": [],
      "stateMutability": "nonpayable",
      "type": "function"
    },
    {
      "inputs": [
        {
          "internalType": "address",
          "name": "from",
          "type": "address"
        },
        {
          "internalType": "address",
          "name": "to",
          "type": "address"
        },
        {
          "internalType": "uint256",
          "name": "tokenId",
          "type": "uint256"
        },
        {
          "internalType": "bytes",
          "name": "data",
          "type": "bytes"
        }
      ],
      "name": "safeTransferFrom",
      "outputs": [],
      "stateMutability": "nonpayable",
      "type": "function"
    },
    {
      "inputs": [
        {
          "internalType": "address",
          "name": "_from",
          "type": "address"
        },
        {
          "internalType": "uint16",
          "name": "_dstChainId",
          "type": "uint16"
        },
        {
          "internalType": "bytes",
          "name": "_toAddress",
          "type": "bytes"
        },
        {
          "internalType": "uint256[]",
          "name": "_tokenIds",
          "type": "uint256[]"
        },
        {
          "internalType": "address payable",
          "name": "_refundAddress",
          "type": "address"
        },
        {
          "internalType": "address",
          "name": "_zroPaymentAddress",
          "type": "address"
        },
        {
          "internalType": "bytes",
          "name": "_adapterParams",
          "type": "bytes"
        }
      ],
      "name": "sendBatchFrom",
      "outputs": [],
      "stateMutability": "payable",
      "type": "function"
    },
    {
      "inputs": [
        {
          "internalType": "address",
          "name": "_from",
          "type": "address"
        },
        {
          "internalType": "uint16",
          "name": "_dstChainId",
          "type": "uint16"
        },
        {
          "internalType": "bytes",
          "name": "_toAddress",
          "type": "bytes"
        },
        {
          "internalType": "uint256",
          "name": "_tokenId",
          "type": "uint256"
        },
        {
          "internalType": "address payable",
          "name": "_refundAddress",
          "type": "address"
        },
        {
          "internalType": "address",
          "name": "_zroPaymentAddress",
          "type": "address"
        },
        {
          "internalType": "bytes",
          "name": "_adapterParams",
          "type": "bytes"
        }
      ],
      "name": "sendFrom",
      "outputs": [],
      "stateMutability": "payable",
      "type": "function"
    },
    {
      "inputs": [
        {
          "internalType": "address",
          "name": "operator",
          "type": "address"
        },
        {
          "internalType": "bool",
          "name": "approved",
          "type": "bool"
        }
      ],
      "name": "setApprovalForAll",
      "outputs": [],
      "stateMutability": "nonpayable",
      "type": "function"
    },
    {
      "inputs": [
        {
          "internalType": "uint16",
          "name": "_version",
          "type": "uint16"
        },
        {
          "internalType": "uint16",
          "name": "_chainId",
          "type": "uint16"
        },
        {
          "internalType": "uint256",
          "name": "_configType",
          "type": "uint256"
        },
        {
          "internalType": "bytes",
          "name": "_config",
          "type": "bytes"
        }
      ],
      "name": "setConfig",
      "outputs": [],
      "stateMutability": "nonpayable",
      "type": "function"
    },
    {
      "inputs": [
        {
          "internalType": "uint16",
          "name": "_dstChainId",
          "type": "uint16"
        },
        {
          "internalType": "uint256",
          "name": "_dstChainIdToBatchLimit",
          "type": "uint256"
        }
      ],
      "name": "setDstChainIdToBatchLimit",
      "outputs": [],
      "stateMutability": "nonpayable",
      "type": "function"
    },
    {
      "inputs": [
        {
          "internalType": "uint16",
          "name": "_dstChainId",
          "type": "uint16"
        },
        {
          "internalType": "uint256",
          "name": "_dstChainIdToTransferGas",
          "type": "uint256"
        }
      ],
      "name": "setDstChainIdToTransferGas",
      "outputs": [],
      "stateMutability": "nonpayable",
      "type": "function"
    },
    {
      "inputs": [
        {
          "internalType": "uint16",
          "name": "_dstChainId",
          "type": "uint16"
        },
        {
          "internalType": "uint16",
          "name": "_packetType",
          "type": "uint16"
        },
        {
          "internalType": "uint256",
          "name": "_minGas",
          "type": "uint256"
        }
      ],
      "name": "setMinDstGas",
      "outputs": [],
      "stateMutability": "nonpayable",
      "type": "function"
    },
    {
      "inputs": [
        {
          "internalType": "uint256",
          "name": "_minGasToTransferAndStore",
          "type": "uint256"
        }
      ],
      "name": "setMinGasToTransferAndStore",
      "outputs": [],
      "stateMutability": "nonpayable",
      "type": "function"
    },
    {
      "inputs": [
        {
          "internalType": "uint16",
          "name": "_dstChainId",
          "type": "uint16"
        },
        {
          "internalType": "uint256",
          "name": "_size",
          "type": "uint256"
        }
      ],
      "name": "setPayloadSizeLimit",
      "outputs": [],
      "stateMutability": "nonpayable",
      "type": "function"
    },
    {
      "inputs": [
        {
          "internalType": "address",
          "name": "_precrime",
          "type": "address"
        }
      ],
      "name": "setPrecrime",
      "outputs": [],
      "stateMutability": "nonpayable",
      "type": "function"
    },
    {
      "inputs": [
        {
          "internalType": "uint16",
          "name": "_version",
          "type": "uint16"
        }
      ],
      "name": "setReceiveVersion",
      "outputs": [],
      "stateMutability": "nonpayable",
      "type": "function"
    },
    {
      "inputs": [
        {
          "internalType": "uint16",
          "name": "_version",
          "type": "uint16"
        }
      ],
      "name": "setSendVersion",
      "outputs": [],
      "stateMutability": "nonpayable",
      "type": "function"
    },
    {
      "inputs": [
        {
          "internalType": "uint16",
          "name": "_srcChainId",
          "type": "uint16"
        },
        {
          "internalType": "bytes",
          "name": "_path",
          "type": "bytes"
        }
      ],
      "name": "setTrustedRemote",
      "outputs": [],
      "stateMutability": "nonpayable",
      "type": "function"
    },
    {
      "inputs": [
        {
          "internalType": "uint16",
          "name": "_remoteChainId",
          "type": "uint16"
        },
        {
          "internalType": "bytes",
          "name": "_remoteAddress",
          "type": "bytes"
        }
      ],
      "name": "setTrustedRemoteAddress",
      "outputs": [],
      "stateMutability": "nonpayable",
      "type": "function"
    },
    {
      "inputs": [
        {
          "internalType": "bytes32",
          "name": "",
          "type": "bytes32"
        }
      ],
      "name": "storedCredits",
      "outputs": [
        {
          "internalType": "uint16",
          "name": "srcChainId",
          "type": "uint16"
        },
        {
          "internalType": "address",
          "name": "toAddress",
          "type": "address"
        },
        {
          "internalType": "uint256",
          "name": "index",
          "type": "uint256"
        },
        {
          "internalType": "bool",
          "name": "creditsRemain",
          "type": "bool"
        }
      ],
      "stateMutability": "view",
      "type": "function"
    },
    {
      "inputs": [
        {
          "internalType": "bytes4",
          "name": "interfaceId",
          "type": "bytes4"
        }
      ],
      "name": "supportsInterface",
      "outputs": [
        {
          "internalType": "bool",
          "name": "",
          "type": "bool"
        }
      ],
      "stateMutability": "view",
      "type": "function"
    },
    {
      "inputs": [],
      "name": "symbol",
      "outputs": [
        {
          "internalType": "string",
          "name": "",
          "type": "string"
        }
      ],
      "stateMutability": "view",
      "type": "function"
    },
    {
      "inputs": [
        {
          "internalType": "uint256",
          "name": "tokenId",
          "type": "uint256"
        }
      ],
      "name": "tokenURI",
      "outputs": [
        {
          "internalType": "string",
          "name": "",
          "type": "string"
        }
      ],
      "stateMutability": "view",
      "type": "function"
    },
    {
      "inputs": [
        {
          "internalType": "address",
          "name": "from",
          "type": "address"
        },
        {
          "internalType": "address",
          "name": "to",
          "type": "address"
        },
        {
          "internalType": "uint256",
          "name": "tokenId",
          "type": "uint256"
        }
      ],
      "name": "transferFrom",
      "outputs": [],
      "stateMutability": "nonpayable",
      "type": "function"
    },
    {
      "inputs": [
        {
          "internalType": "address",
          "name": "newOwner",
          "type": "address"
        }
      ],
      "name": "transferOwnership",
      "outputs": [],
      "stateMutability": "nonpayable",
      "type": "function"
    },
    {
      "inputs": [
        {
          "internalType": "uint16",
          "name": "",
          "type": "uint16"
        }
      ],
      "name": "trustedRemoteLookup",
      "outputs": [
        {
          "internalType": "bytes",
          "name": "",
          "type": "bytes"
        }
      ],
      "stateMutability": "view",
      "type": "function"
    }
  ],
  "bytecode": "0x60a06040523480156200001157600080fd5b50604051620049d5380380620049d583398101604081905262000034916200026f565b6040518060400160405280601781526020017f4578616d706c65556e6976657273616c4f4e4654373231000000000000000000815250604051806040016040528060078152602001664f4e465437323160c81b8152508585858585858585838383838080620000b2620000ac6200017560201b60201c565b62000179565b6001600160a01b03166080525081620001275760405162461bcd60e51b815260206004820152602d60248201527f4f4e46543732313a206d696e476173546f5472616e73666572416e6453746f7260448201526c065206d757374206265203e203609c1b606482015260840160405180910390fd5b5060065581516200014090600a906020850190620001c9565b5080516200015690600b906020840190620001c9565b50505060109590955550505060115550620002f9975050505050505050565b3390565b600080546001600160a01b038381166001600160a01b0319831681178455604051919092169283917f8be0079c531659141344cd1fd0a4f28419497f9722a3daafe3b4186f6b6457e09190a35050565b828054620001d790620002bc565b90600052602060002090601f016020900481019282620001fb576000855562000246565b82601f106200021657805160ff191683800117855562000246565b8280016001018555821562000246579182015b828111156200024657825182559160200191906001019062000229565b506200025492915062000258565b5090565b5b8082111562000254576000815560010162000259565b600080600080608085870312156200028657600080fd5b845160208601519094506001600160a01b0381168114620002a657600080fd5b6040860151606090960151949790965092505050565b600181811c90821680620002d157607f821691505b60208210811415620002f357634e487b7160e01b600052602260045260246000fd5b50919050565b6080516146886200034d600039600081816108cd01528181610ae701528181610deb015281816110430152818161126101528181611b2501528181611f80015281816120b3015261314801526146886000f3fe6080604052600436106103345760003560e01c80638cfd8f5c116101ab578063baf3292d116100f7578063e1d4c87011610095578063f23536411161006f578063f235364114610a57578063f2fde38b14610a77578063f5ecbdbc14610a97578063fa25f9b614610ab757600080fd5b8063e1d4c870146109d8578063e985e9c5146109ee578063eb8d72b714610a3757600080fd5b8063cbed8b9c116100d1578063cbed8b9c14610965578063d12473a514610985578063d1deba1f146109a5578063df2a5b3b146109b857600080fd5b8063baf3292d1461090f578063c44618341461092f578063c87b56dd1461094557600080fd5b80639f38369a11610164578063ab3ffb931161013e578063ab3ffb9314610880578063af3fb21c14610893578063b353aaa7146108bb578063b88d4fde146108ef57600080fd5b80639f38369a14610820578063a22cb46514610840578063a6c3d1651461086057600080fd5b80638cfd8f5c146107555780638da5cb5b1461078d5780638ffa1f2a146107ab578063950c8a74146107cb57806395d89b41146107eb5780639ea5d6b11461080057600080fd5b80633d8b38f6116102855780635b8c41e6116102235780636aa99da3116101fd5780636aa99da3146106ea57806370a0823114610700578063715018a6146107205780637533d7881461073557600080fd5b80635b8c41e61461065b5780636352211e146106aa57806366ad5c8a146106ca57600080fd5b806342d65a8d1161025f57806342d65a8d146105e557806348288190146106055780634ac3f4ff1461061b578063519056361461064857600080fd5b80633d8b38f61461056a5780633f1f4fa41461058a57806342842e0e146105c557600080fd5b80630b4cad4c116102f25780631249c58b116102cc5780631249c58b1461048a57806322a3ecf91461049257806323b872dd146105155780632a205e3d1461053557600080fd5b80630b4cad4c1461042a5780630df374831461044a57806310ddb1371461046a57600080fd5b80621d35671461033957806301ffc9a71461035b57806306fdde031461039057806307e0db17146103b2578063081812fc146103d2578063095ea7b31461040a575b600080fd5b34801561034557600080fd5b506103596103543660046136fe565b610ae4565b005b34801561036757600080fd5b5061037b6103763660046137a7565b610d15565b60405190151581526020015b60405180910390f35b34801561039c57600080fd5b506103a5610d38565b604051610387919061381c565b3480156103be57600080fd5b506103596103cd36600461382f565b610dca565b3480156103de57600080fd5b506103f26103ed36600461384a565b610e53565b6040516001600160a01b039091168152602001610387565b34801561041657600080fd5b50610359610425366004613883565b610e7a565b34801561043657600080fd5b5061035961044536600461384a565b610f90565b34801561045657600080fd5b506103596104653660046138af565b611003565b34801561047657600080fd5b5061035961048536600461382f565b611022565b61035961107a565b34801561049e57600080fd5b506104e66104ad36600461384a565b60096020526000908152604090208054600182015460029092015461ffff821692620100009092046001600160a01b0316919060ff1684565b6040805161ffff90951685526001600160a01b0390931660208501529183015215156060820152608001610387565b34801561052157600080fd5b506103596105303660046138cb565b611103565b34801561054157600080fd5b506105556105503660046139df565b611135565b60408051928352602083019190915201610387565b34801561057657600080fd5b5061037b610585366004613a6d565b61115b565b34801561059657600080fd5b506105b76105a536600461382f565b60036020526000908152604090205481565b604051908152602001610387565b3480156105d157600080fd5b506103596105e03660046138cb565b611227565b3480156105f157600080fd5b50610359610600366004613a6d565b611242565b34801561061157600080fd5b506105b760065481565b34801561062757600080fd5b506105b761063636600461382f565b60076020526000908152604090205481565b610359610656366004613abf565b6112c8565b34801561066757600080fd5b506105b7610676366004613b78565b6005602090815260009384526040808520845180860184018051928152908401958401959095209452929052825290205481565b3480156106b657600080fd5b506103f26106c536600461384a565b6112df565b3480156106d657600080fd5b506103596106e53660046136fe565b61133f565b3480156106f657600080fd5b506105b760105481565b34801561070c57600080fd5b506105b761071b366004613bd5565b61141b565b34801561072c57600080fd5b506103596114a1565b34801561074157600080fd5b506103a561075036600461382f565b6114b5565b34801561076157600080fd5b506105b7610770366004613bf2565b600260209081526000928352604080842090915290825290205481565b34801561079957600080fd5b506000546001600160a01b03166103f2565b3480156107b757600080fd5b506103596107c6366004613c25565b61154f565b3480156107d757600080fd5b506004546103f2906001600160a01b031681565b3480156107f757600080fd5b506103a561179e565b34801561080c57600080fd5b5061035961081b3660046138af565b6117ad565b34801561082c57600080fd5b506103a561083b36600461382f565b611830565b34801561084c57600080fd5b5061035961085b366004613c59565b611947565b34801561086c57600080fd5b5061035961087b366004613a6d565b611956565b61035961088e366004613d0e565b6119f6565b34801561089f57600080fd5b506108a8600181565b60405161ffff9091168152602001610387565b3480156108c757600080fd5b506103f27f000000000000000000000000000000000000000000000000000000000000000081565b3480156108fb57600080fd5b5061035961090a366004613dc3565b611a05565b34801561091b57600080fd5b5061035961092a366004613bd5565b611a37565b34801561093b57600080fd5b506105b761271081565b34801561095157600080fd5b506103a561096036600461384a565b611a93565b34801561097157600080fd5b50610359610980366004613e2e565b611b06565b34801561099157600080fd5b506103596109a03660046138af565b611b9b565b6103596109b33660046136fe565b611c1f565b3480156109c457600080fd5b506103596109d3366004613e9c565b611e35565b3480156109e457600080fd5b506105b760115481565b3480156109fa57600080fd5b5061037b610a09366004613ed8565b6001600160a01b039182166000908152600f6020908152604080832093909416825291909152205460ff1690565b348015610a4357600080fd5b50610359610a52366004613a6d565b611ee7565b348015610a6357600080fd5b50610555610a72366004613f11565b611f41565b348015610a8357600080fd5b50610359610a92366004613bd5565b61200c565b348015610aa357600080fd5b506103a5610ab2366004613f8a565b612082565b348015610ac357600080fd5b506105b7610ad236600461382f565b60086020526000908152604090205481565b337f00000000000000000000000000000000000000000000000000000000000000006001600160a01b031614610b615760405162461bcd60e51b815260206004820152601e60248201527f4c7a4170703a20696e76616c696420656e64706f696e742063616c6c6572000060448201526064015b60405180910390fd5b61ffff861660009081526001602052604081208054610b7f90613fd7565b80601f0160208091040260200160405190810160405280929190818152602001828054610bab90613fd7565b8015610bf85780601f10610bcd57610100808354040283529160200191610bf8565b820191906000526020600020905b815481529060010190602001808311610bdb57829003601f168201915b50505050509050805186869050148015610c13575060008151115b8015610c3b575080516020820120604051610c319088908890614012565b6040518091039020145b610c965760405162461bcd60e51b815260206004820152602660248201527f4c7a4170703a20696e76616c696420736f757263652073656e64696e6720636f6044820152651b9d1c9858dd60d21b6064820152608401610b58565b610d0c8787878080601f01602080910402602001604051908101604052809392919081815260200183838082843760009201919091525050604080516020601f8a018190048102820181019092528881528a93509150889088908190840183828082843760009201919091525061213592505050565b50505050505050565b60006001600160e01b031982161580610d325750610d32826121ae565b92915050565b6060600a8054610d4790613fd7565b80601f0160208091040260200160405190810160405280929190818152602001828054610d7390613fd7565b8015610dc05780601f10610d9557610100808354040283529160200191610dc0565b820191906000526020600020905b815481529060010190602001808311610da357829003601f168201915b5050505050905090565b610dd26121ee565b6040516307e0db1760e01b815261ffff821660048201527f00000000000000000000000000000000000000000000000000000000000000006001600160a01b0316906307e0db17906024015b600060405180830381600087803b158015610e3857600080fd5b505af1158015610e4c573d6000803e3d6000fd5b5050505050565b6000610e5e82612248565b506000908152600e60205260409020546001600160a01b031690565b6000610e85826112df565b9050806001600160a01b0316836001600160a01b03161415610ef35760405162461bcd60e51b815260206004820152602160248201527f4552433732313a20617070726f76616c20746f2063757272656e74206f776e656044820152603960f91b6064820152608401610b58565b336001600160a01b0382161480610f0f5750610f0f8133610a09565b610f815760405162461bcd60e51b815260206004820152603e60248201527f4552433732313a20617070726f76652063616c6c6572206973206e6f7420746f60448201527f6b656e206f776e6572206e6f7220617070726f76656420666f7220616c6c00006064820152608401610b58565b610f8b83836122a7565b505050565b610f986121ee565b60008111610ffe5760405162461bcd60e51b815260206004820152602d60248201527f4f4e46543732313a206d696e476173546f5472616e73666572416e6453746f7260448201526c065206d757374206265203e203609c1b6064820152608401610b58565b600655565b61100b6121ee565b61ffff909116600090815260036020526040902055565b61102a6121ee565b6040516310ddb13760e01b815261ffff821660048201527f00000000000000000000000000000000000000000000000000000000000000006001600160a01b0316906310ddb13790602401610e1e565b60115460105411156110df5760405162461bcd60e51b815260206004820152602860248201527f556e6976657273616c4f4e46543732313a206d6178206d696e74206c696d6974604482015267081c995858da195960c21b6064820152608401610b58565b6010805490819060006110f183614038565b91905055506111003382612315565b50565b61110e335b8261232f565b61112a5760405162461bcd60e51b8152600401610b5890614053565b610f8b8383836123ad565b60008061114d878761114688612549565b8787611f41565b915091509550959350505050565b61ffff83166000908152600160205260408120805482919061117c90613fd7565b80601f01602080910402602001604051908101604052809291908181526020018280546111a890613fd7565b80156111f55780601f106111ca576101008083540402835291602001916111f5565b820191906000526020600020905b8154815290600101906020018083116111d857829003601f168201915b50505050509050838360405161120c929190614012565b60405180910390208180519060200120149150509392505050565b610f8b83838360405180602001604052806000815250611a05565b61124a6121ee565b6040516342d65a8d60e01b81526001600160a01b037f000000000000000000000000000000000000000000000000000000000000000016906342d65a8d9061129a908690869086906004016140ca565b600060405180830381600087803b1580156112b457600080fd5b505af1158015610d0c573d6000803e3d6000fd5b610d0c8787876112d788612549565b878787612594565b6000818152600c60205260408120546001600160a01b031680610d325760405162461bcd60e51b8152602060048201526018602482015277115490cdcc8c4e881a5b9d985b1a59081d1bdad95b88125160421b6044820152606401610b58565b33301461139d5760405162461bcd60e51b815260206004820152602660248201527f4e6f6e626c6f636b696e674c7a4170703a2063616c6c6572206d7573742062656044820152650204c7a4170760d41b6064820152608401610b58565b6114138686868080601f01602080910402602001604051908101604052809392919081815260200183838082843760009201919091525050604080516020601f89018190048102820181019092528781528993509150879087908190840183828082843760009201919091525061277b92505050565b505050505050565b60006001600160a01b0382166114855760405162461bcd60e51b815260206004820152602960248201527f4552433732313a2061646472657373207a65726f206973206e6f7420612076616044820152683634b21037bbb732b960b91b6064820152608401610b58565b506001600160a01b03166000908152600d602052604090205490565b6114a96121ee565b6114b360006128d2565b565b600160205260009081526040902080546114ce90613fd7565b80601f01602080910402602001604051908101604052809291908181526020018280546114fa90613fd7565b80156115475780601f1061151c57610100808354040283529160200191611547565b820191906000526020600020905b81548152906001019060200180831161152a57829003601f168201915b505050505081565b80516020808301919091206000818152600990925260409091206002015460ff166115bc5760405162461bcd60e51b815260206004820152601a60248201527f4f4e46543732313a206e6f20637265646974732073746f7265640000000000006044820152606401610b58565b6000828060200190518101906115d2919061412d565b6000848152600960205260408120805460019091015492945090925061160e9161ffff8216916201000090046001600160a01b03169085612922565b600084815260096020526040902060010154909150811161168c5760405162461bcd60e51b815260206004820152603260248201527f4f4e46543732313a206e6f7420656e6f7567682067617320746f2070726f636560448201527139b99031b932b234ba103a3930b739b332b960711b6064820152608401610b58565b81518114156117045760008381526009602052604080822080546001600160b01b031916815560018101929092556002909101805460ff19169055517fd7be02b8dd0d27bd0517a9cb4d7469ce27df4313821ae5ec1ff69acc594ba233906116f79085815260200190565b60405180910390a1611798565b60408051608081018252600085815260096020818152848320805461ffff80821687526001600160a01b03620100008084048216868a019081529989018b8152600160608b01818152998f90529790965297519851169096026001600160b01b03199091169690951695909517939093178455915191830191909155516002909101805491151560ff199092169190911790555b50505050565b6060600b8054610d4790613fd7565b6117b56121ee565b600081116118195760405162461bcd60e51b815260206004820152602b60248201527f4f4e46543732313a20647374436861696e4964546f42617463684c696d69742060448201526a06d757374206265203e20360ac1b6064820152608401610b58565b61ffff909116600090815260076020526040902055565b61ffff811660009081526001602052604081208054606092919061185390613fd7565b80601f016020809104026020016040519081016040528092919081815260200182805461187f90613fd7565b80156118cc5780601f106118a1576101008083540402835291602001916118cc565b820191906000526020600020905b8154815290600101906020018083116118af57829003601f168201915b505050505090508051600014156119255760405162461bcd60e51b815260206004820152601d60248201527f4c7a4170703a206e6f20747275737465642070617468207265636f72640000006044820152606401610b58565b61194060006014835161193891906141e7565b839190612974565b9392505050565b611952338383612a81565b5050565b61195e6121ee565b818130604051602001611973939291906141fe565b60408051601f1981840301815291815261ffff851660009081526001602090815291902082516119a89391929091019061357b565b506119b68361ffff16612b50565b7f8c0400cfe2d1199b1a725c78960bcc2a344d869b80590d0f2bd005db15a572ce8383836040516119e9939291906140ca565b60405180910390a1505050565b610d0c87878787878787612594565b611a0f338361232f565b611a2b5760405162461bcd60e51b8152600401610b5890614053565b61179884848484612b95565b611a3f6121ee565b600480546001600160a01b0319166001600160a01b0383169081179091556040519081527f5db758e995a17ec1ad84bdef7e8c3293a0bd6179bcce400dff5d4c3d87db726b9060200160405180910390a150565b6060611a9e82612248565b6000611ab560408051602081019091526000815290565b90506000815111611ad55760405180602001604052806000815250611940565b80611adf84612bc8565b604051602001611af0929190614224565b6040516020818303038152906040529392505050565b611b0e6121ee565b6040516332fb62e760e21b81526001600160a01b037f0000000000000000000000000000000000000000000000000000000000000000169063cbed8b9c90611b629088908890889088908890600401614253565b600060405180830381600087803b158015611b7c57600080fd5b505af1158015611b90573d6000803e3d6000fd5b505050505050505050565b611ba36121ee565b60008111611c085760405162461bcd60e51b815260206004820152602c60248201527f4f4e46543732313a20647374436861696e4964546f5472616e7366657247617360448201526b0206d757374206265203e20360a41b6064820152608401610b58565b61ffff909116600090815260086020526040902055565b61ffff86166000908152600560205260408082209051611c429088908890614012565b90815260408051602092819003830190206001600160401b03871660009081529252902054905080611cc25760405162461bcd60e51b815260206004820152602360248201527f4e6f6e626c6f636b696e674c7a4170703a206e6f2073746f726564206d65737360448201526261676560e81b6064820152608401610b58565b808383604051611cd3929190614012565b604051809103902014611d325760405162461bcd60e51b815260206004820152602160248201527f4e6f6e626c6f636b696e674c7a4170703a20696e76616c6964207061796c6f616044820152601960fa1b6064820152608401610b58565b61ffff87166000908152600560205260408082209051611d559089908990614012565b90815260408051602092819003830181206001600160401b038916600090815290845282902093909355601f88018290048202830182019052868252611ded918991899089908190840183828082843760009201919091525050604080516020601f8a018190048102820181019092528881528a93509150889088908190840183828082843760009201919091525061277b92505050565b7fc264d91f3adc5588250e1551f547752ca0cfa8f6b530d243b9f9f4cab10ea8e58787878785604051611e2495949392919061428c565b60405180910390a150505050505050565b611e3d6121ee565b60008111611e855760405162461bcd60e51b81526020600482015260156024820152744c7a4170703a20696e76616c6964206d696e47617360581b6044820152606401610b58565b61ffff83811660008181526002602090815260408083209487168084529482529182902085905581519283528201929092529081018290527f9d5c7c0b934da8fefa9c7760c98383778a12dfbfc0c3b3106518f43fb9508ac0906060016119e9565b611eef6121ee565b61ffff83166000908152600160205260409020611f0d9083836135ff565b507ffa41487ad5d6728f0b19276fa1eddc16558578f5109fc39d2dc33c3230470dab8383836040516119e9939291906140ca565b60008060008686604051602001611f59929190614302565b60408051601f198184030181529082905263040a7bb160e41b825291506001600160a01b037f000000000000000000000000000000000000000000000000000000000000000016906340a7bb1090611fbd908b90309086908b908b90600401614330565b6040805180830381865afa158015611fd9573d6000803e3d6000fd5b505050506040513d601f19601f82011682018060405250810190611ffd9190614384565b92509250509550959350505050565b6120146121ee565b6001600160a01b0381166120795760405162461bcd60e51b815260206004820152602660248201527f4f776e61626c653a206e6577206f776e657220697320746865207a65726f206160448201526564647265737360d01b6064820152608401610b58565b611100816128d2565b604051633d7b2f6f60e21b815261ffff808616600483015284166024820152306044820152606481018290526060907f00000000000000000000000000000000000000000000000000000000000000006001600160a01b03169063f5ecbdbc90608401600060405180830381865afa158015612102573d6000803e3d6000fd5b505050506040513d6000823e601f3d908101601f1916820160405261212a91908101906143a8565b90505b949350505050565b6000806121985a60966366ad5c8a60e01b8989898960405160240161215d94939291906143dc565b60408051601f198184030181529190526020810180516001600160e01b03166001600160e01b03199093169290921790915230929190612cc5565b9150915081611413576114138686868685612d4f565b60006001600160e01b031982166380ac58cd60e01b14806121df57506001600160e01b03198216635b5e139f60e01b145b80610d325750610d3282612dec565b6000546001600160a01b031633146114b35760405162461bcd60e51b815260206004820181905260248201527f4f776e61626c653a2063616c6c6572206973206e6f7420746865206f776e65726044820152606401610b58565b6000818152600c60205260409020546001600160a01b03166111005760405162461bcd60e51b8152602060048201526018602482015277115490cdcc8c4e881a5b9d985b1a59081d1bdad95b88125160421b6044820152606401610b58565b6000818152600e6020526040902080546001600160a01b0319166001600160a01b03841690811790915581906122dc826112df565b6001600160a01b03167f8c5be1e5ebec7d5bd14f71427d1e84f3dd0314c0f7b2291e5b200ac8c7c3b92560405160405180910390a45050565b611952828260405180602001604052806000815250612e21565b60008061233b836112df565b9050806001600160a01b0316846001600160a01b0316148061238257506001600160a01b038082166000908152600f602090815260408083209388168352929052205460ff165b8061212d5750836001600160a01b031661239b84610e53565b6001600160a01b031614949350505050565b826001600160a01b03166123c0826112df565b6001600160a01b0316146124245760405162461bcd60e51b815260206004820152602560248201527f4552433732313a207472616e736665722066726f6d20696e636f72726563742060448201526437bbb732b960d91b6064820152608401610b58565b6001600160a01b0382166124865760405162461bcd60e51b8152602060048201526024808201527f4552433732313a207472616e7366657220746f20746865207a65726f206164646044820152637265737360e01b6064820152608401610b58565b6124916000826122a7565b6001600160a01b0383166000908152600d602052604081208054600192906124ba9084906141e7565b90915550506001600160a01b0382166000908152600d602052604081208054600192906124e890849061441a565b90915550506000818152600c602052604080822080546001600160a01b0319166001600160a01b0386811691821790925591518493918716917fddf252ad1be2c89b69c2b068fc378daa952ba7f163c4a11628f55a4df523b3ef91a4505050565b6040805160018082528183019092526060916000919060208083019080368337019050509050828160008151811061258357612583614432565b602090810291909101015292915050565b60008451116125e55760405162461bcd60e51b815260206004820152601a60248201527f4c7a4170703a20746f6b656e4964735b5d20697320656d7074790000000000006044820152606401610b58565b835160011480612609575061ffff8616600090815260076020526040902054845111155b6126695760405162461bcd60e51b815260206004820152602b60248201527f4f4e46543732313a2062617463682073697a652065786365656473206473742060448201526a18985d18da081b1a5b5a5d60aa1b6064820152608401610b58565b60005b84518110156126ac5761269a88888888858151811061268d5761268d614432565b6020026020010151612e54565b806126a481614038565b91505061266c565b50600085856040516020016126c2929190614302565b6040516020818303038152906040529050612707876001848851600860008d61ffff1661ffff168152602001908152602001600020546127029190614448565b612f3f565b61271587828686863461301e565b856040516127239190614467565b6040518091039020886001600160a01b03168861ffff167fe1b87c47fdeb4f9cbadbca9df3af7aba453bb6e501075d0440d88125b711522a886040516127699190614483565b60405180910390a45050505050505050565b60008082806020019051810190612792919061412d565b6014820151919350915060006127aa88838386612922565b9050825181101561287e5784516020808701919091206040805160808101825261ffff808d1682526001600160a01b0380881683870190815283850188815260016060860181815260008981526009909a529887902095518654935190941662010000026001600160b01b03199093169390941692909217178355519082015592516002909301805493151560ff199094169390931790925590517f10e0b70d256bccc84b7027506978bd8b68984a870788b93b479def144c839ad7906128749083908990614496565b60405180910390a1505b816001600160a01b0316876040516128969190614467565b60405180910390208961ffff167f5b821db8a46f8ecbe1941ba2f51cfeea9643268b56631f70d45e2a745d990265866040516127699190614483565b600080546001600160a01b038381166001600160a01b0319831681178455604051919092169283917f8be0079c531659141344cd1fd0a4f28419497f9722a3daafe3b4186f6b6457e09190a35050565b6000825b825181101561212a576006545a101561293e5761212a565b612962868685848151811061295557612955614432565b60200260200101516131c4565b8061296c81614038565b915050612926565b60608161298281601f61441a565b10156129c15760405162461bcd60e51b815260206004820152600e60248201526d736c6963655f6f766572666c6f7760901b6044820152606401610b58565b6129cb828461441a565b84511015612a0f5760405162461bcd60e51b8152602060048201526011602482015270736c6963655f6f75744f66426f756e647360781b6044820152606401610b58565b606082158015612a2e5760405191506000825260208201604052612a78565b6040519150601f8416801560200281840101858101878315602002848b0101015b81831015612a67578051835260209283019201612a4f565b5050858452601f01601f1916604052505b50949350505050565b816001600160a01b0316836001600160a01b03161415612ae35760405162461bcd60e51b815260206004820152601960248201527f4552433732313a20617070726f766520746f2063616c6c6572000000000000006044820152606401610b58565b6001600160a01b038381166000818152600f6020908152604080832094871680845294825291829020805460ff191686151590811790915591519182527f17307eab39ab6107e8899845ad3d59bd9653f200f220920489ca2b5937696c31910160405180910390a3505050565b61110081604051602401612b6691815260200190565b60408051601f198184030181529190526020810180516001600160e01b031663f82c50f160e01b179052613253565b612ba08484846123ad565b612bac84848484613274565b6117985760405162461bcd60e51b8152600401610b58906144af565b606081612bec5750506040805180820190915260018152600360fc1b602082015290565b8160005b8115612c165780612c0081614038565b9150612c0f9050600a83614517565b9150612bf0565b6000816001600160401b03811115612c3057612c3061390c565b6040519080825280601f01601f191660200182016040528015612c5a576020820181803683370190505b5090505b841561212d57612c6f6001836141e7565b9150612c7c600a8661452b565b612c8790603061441a565b60f81b818381518110612c9c57612c9c614432565b60200101906001600160f81b031916908160001a905350612cbe600a86614517565b9450612c5e565b6000606060008060008661ffff166001600160401b03811115612cea57612cea61390c565b6040519080825280601f01601f191660200182016040528015612d14576020820181803683370190505b50905060008087516020890160008d8df191503d925086831115612d36578692505b828152826000602083013e909890975095505050505050565b8180519060200120600560008761ffff1661ffff16815260200190815260200160002085604051612d809190614467565b9081526040805191829003602090810183206001600160401b0388166000908152915220919091557fe183f33de2837795525b4792ca4cd60535bd77c53b7e7030060bfcf5734d6b0c90612ddd908790879087908790879061453f565b60405180910390a15050505050565b60006001600160e01b031982166322bac5d960e01b1480610d3257506301ffc9a760e01b6001600160e01b0319831614610d32565b612e2b838361336f565b612e386000848484613274565b610f8b5760405162461bcd60e51b8152600401610b58906144af565b612e5d33611108565b612ec05760405162461bcd60e51b815260206004820152602e60248201527f4f4e46543732313a2073656e642063616c6c6572206973206e6f74206f776e6560448201526d1c881b9bdc88185c1c1c9bdd995960921b6064820152608401610b58565b836001600160a01b0316612ed3826112df565b6001600160a01b031614612f345760405162461bcd60e51b815260206004820152602260248201527f4f4e46543732313a2073656e642066726f6d20696e636f7272656374206f776e60448201526132b960f11b6064820152608401610b58565b6117988430836123ad565b6000612f4a836134b1565b61ffff808716600090815260026020908152604080832093891683529290529081205491925090612f7c90849061441a565b905060008111612fce5760405162461bcd60e51b815260206004820152601a60248201527f4c7a4170703a206d696e4761734c696d6974206e6f74207365740000000000006044820152606401610b58565b808210156114135760405162461bcd60e51b815260206004820152601b60248201527f4c7a4170703a20676173206c696d697420697320746f6f206c6f7700000000006044820152606401610b58565b61ffff86166000908152600160205260408120805461303c90613fd7565b80601f016020809104026020016040519081016040528092919081815260200182805461306890613fd7565b80156130b55780601f1061308a576101008083540402835291602001916130b5565b820191906000526020600020905b81548152906001019060200180831161309857829003601f168201915b505050505090508051600014156131275760405162461bcd60e51b815260206004820152603060248201527f4c7a4170703a2064657374696e6174696f6e20636861696e206973206e6f742060448201526f61207472757374656420736f7572636560801b6064820152608401610b58565b61313287875161350d565b60405162c5803160e81b81526001600160a01b037f0000000000000000000000000000000000000000000000000000000000000000169063c5803100908490613189908b9086908c908c908c908c90600401614591565b6000604051808303818588803b1580156131a257600080fd5b505af11580156131b6573d6000803e3d6000fd5b505050505050505050505050565b6000818152600c60205260409020546001600160a01b0316158061321957506000818152600c60205260409020546001600160a01b03161515801561321957503061320e826112df565b6001600160a01b0316145b61322257600080fd5b6000818152600c60205260409020546001600160a01b031661324857610f8b8282612315565b610f8b3083836123ad565b80516a636f6e736f6c652e6c6f67602083016000808483855afa5050505050565b60006001600160a01b0384163b1561336757604051630a85bd0160e11b81526001600160a01b0385169063150b7a02906132b89033908990889088906004016145f8565b6020604051808303816000875af19250505080156132f3575060408051601f3d908101601f191682019092526132f091810190614635565b60015b61334d573d808015613321576040519150601f19603f3d011682016040523d82523d6000602084013e613326565b606091505b5080516133455760405162461bcd60e51b8152600401610b58906144af565b805181602001fd5b6001600160e01b031916630a85bd0160e11b14905061212d565b50600161212d565b6001600160a01b0382166133c55760405162461bcd60e51b815260206004820181905260248201527f4552433732313a206d696e7420746f20746865207a65726f20616464726573736044820152606401610b58565b6000818152600c60205260409020546001600160a01b03161561342a5760405162461bcd60e51b815260206004820152601c60248201527f4552433732313a20746f6b656e20616c7265616479206d696e746564000000006044820152606401610b58565b6001600160a01b0382166000908152600d6020526040812080546001929061345390849061441a565b90915550506000818152600c602052604080822080546001600160a01b0319166001600160a01b03861690811790915590518392907fddf252ad1be2c89b69c2b068fc378daa952ba7f163c4a11628f55a4df523b3ef908290a45050565b60006022825110156135055760405162461bcd60e51b815260206004820152601c60248201527f4c7a4170703a20696e76616c69642061646170746572506172616d73000000006044820152606401610b58565b506022015190565b61ffff82166000908152600360205260409020548061352b57506127105b80821115610f8b5760405162461bcd60e51b815260206004820181905260248201527f4c7a4170703a207061796c6f61642073697a6520697320746f6f206c617267656044820152606401610b58565b82805461358790613fd7565b90600052602060002090601f0160209004810192826135a957600085556135ef565b82601f106135c257805160ff19168380011785556135ef565b828001600101855582156135ef579182015b828111156135ef5782518255916020019190600101906135d4565b506135fb929150613673565b5090565b82805461360b90613fd7565b90600052602060002090601f01602090048101928261362d57600085556135ef565b82601f106136465782800160ff198235161785556135ef565b828001600101855582156135ef579182015b828111156135ef578235825591602001919060010190613658565b5b808211156135fb5760008155600101613674565b803561ffff8116811461369a57600080fd5b919050565b60008083601f8401126136b157600080fd5b5081356001600160401b038111156136c857600080fd5b6020830191508360208285010111156136e057600080fd5b9250929050565b80356001600160401b038116811461369a57600080fd5b6000806000806000806080878903121561371757600080fd5b61372087613688565b955060208701356001600160401b038082111561373c57600080fd5b6137488a838b0161369f565b909750955085915061375c60408a016136e7565b9450606089013591508082111561377257600080fd5b5061377f89828a0161369f565b979a9699509497509295939492505050565b6001600160e01b03198116811461110057600080fd5b6000602082840312156137b957600080fd5b813561194081613791565b60005b838110156137df5781810151838201526020016137c7565b838111156117985750506000910152565b600081518084526138088160208601602086016137c4565b601f01601f19169290920160200192915050565b60208152600061194060208301846137f0565b60006020828403121561384157600080fd5b61194082613688565b60006020828403121561385c57600080fd5b5035919050565b6001600160a01b038116811461110057600080fd5b803561369a81613863565b6000806040838503121561389657600080fd5b82356138a181613863565b946020939093013593505050565b600080604083850312156138c257600080fd5b6138a183613688565b6000806000606084860312156138e057600080fd5b83356138eb81613863565b925060208401356138fb81613863565b929592945050506040919091013590565b634e487b7160e01b600052604160045260246000fd5b604051601f8201601f191681016001600160401b038111828210171561394a5761394a61390c565b604052919050565b60006001600160401b0382111561396b5761396b61390c565b50601f01601f191660200190565b600082601f83011261398a57600080fd5b813561399d61399882613952565b613922565b8181528460208386010111156139b257600080fd5b816020850160208301376000918101602001919091529392505050565b8035801515811461369a57600080fd5b600080600080600060a086880312156139f757600080fd5b613a0086613688565b945060208601356001600160401b0380821115613a1c57600080fd5b613a2889838a01613979565b955060408801359450613a3d606089016139cf565b93506080880135915080821115613a5357600080fd5b50613a6088828901613979565b9150509295509295909350565b600080600060408486031215613a8257600080fd5b613a8b84613688565b925060208401356001600160401b03811115613aa657600080fd5b613ab28682870161369f565b9497909650939450505050565b600080600080600080600060e0888a031215613ada57600080fd5b8735613ae581613863565b9650613af360208901613688565b955060408801356001600160401b0380821115613b0f57600080fd5b613b1b8b838c01613979565b965060608a0135955060808a01359150613b3482613863565b90935060a089013590613b4682613863565b90925060c08901359080821115613b5c57600080fd5b50613b698a828b01613979565b91505092959891949750929550565b600080600060608486031215613b8d57600080fd5b613b9684613688565b925060208401356001600160401b03811115613bb157600080fd5b613bbd86828701613979565b925050613bcc604085016136e7565b90509250925092565b600060208284031215613be757600080fd5b813561194081613863565b60008060408385031215613c0557600080fd5b613c0e83613688565b9150613c1c60208401613688565b90509250929050565b600060208284031215613c3757600080fd5b81356001600160401b03811115613c4d57600080fd5b61212d84828501613979565b60008060408385031215613c6c57600080fd5b8235613c7781613863565b9150613c1c602084016139cf565b60006001600160401b03821115613c9e57613c9e61390c565b5060051b60200190565b600082601f830112613cb957600080fd5b81356020613cc961399883613c85565b82815260059290921b84018101918181019086841115613ce857600080fd5b8286015b84811015613d035780358352918301918301613cec565b509695505050505050565b600080600080600080600060e0888a031215613d2957600080fd5b8735613d3481613863565b9650613d4260208901613688565b955060408801356001600160401b0380821115613d5e57600080fd5b613d6a8b838c01613979565b965060608a0135915080821115613d8057600080fd5b613d8c8b838c01613ca8565b955060808a01359150613d9e82613863565b819450613dad60a08b01613878565b935060c08a0135915080821115613b5c57600080fd5b60008060008060808587031215613dd957600080fd5b8435613de481613863565b93506020850135613df481613863565b92506040850135915060608501356001600160401b03811115613e1657600080fd5b613e2287828801613979565b91505092959194509250565b600080600080600060808688031215613e4657600080fd5b613e4f86613688565b9450613e5d60208701613688565b93506040860135925060608601356001600160401b03811115613e7f57600080fd5b613e8b8882890161369f565b969995985093965092949392505050565b600080600060608486031215613eb157600080fd5b613eba84613688565b9250613ec860208501613688565b9150604084013590509250925092565b60008060408385031215613eeb57600080fd5b8235613ef681613863565b91506020830135613f0681613863565b809150509250929050565b600080600080600060a08688031215613f2957600080fd5b613f3286613688565b945060208601356001600160401b0380821115613f4e57600080fd5b613f5a89838a01613979565b95506040880135915080821115613f7057600080fd5b613f7c89838a01613ca8565b9450613a3d606089016139cf565b60008060008060808587031215613fa057600080fd5b613fa985613688565b9350613fb760208601613688565b92506040850135613fc781613863565b9396929550929360600135925050565b600181811c90821680613feb57607f821691505b6020821081141561400c57634e487b7160e01b600052602260045260246000fd5b50919050565b8183823760009101908152919050565b634e487b7160e01b600052601160045260246000fd5b600060001982141561404c5761404c614022565b5060010190565b6020808252602e908201527f4552433732313a2063616c6c6572206973206e6f7420746f6b656e206f776e6560408201526d1c881b9bdc88185c1c1c9bdd995960921b606082015260800190565b81835281816020850137506000828201602090810191909152601f909101601f19169091010190565b61ffff8416815260406020820152600061212a6040830184866140a1565b600082601f8301126140f957600080fd5b815161410761399882613952565b81815284602083860101111561411c57600080fd5b61212d8260208301602087016137c4565b6000806040838503121561414057600080fd5b82516001600160401b038082111561415757600080fd5b614163868387016140e8565b935060209150818501518181111561417a57600080fd5b85019050601f8101861361418d57600080fd5b805161419b61399882613c85565b81815260059190911b820183019083810190888311156141ba57600080fd5b928401925b828410156141d8578351825292840192908401906141bf565b80955050505050509250929050565b6000828210156141f9576141f9614022565b500390565b8284823760609190911b6bffffffffffffffffffffffff19169101908152601401919050565b600083516142368184602088016137c4565b83519083019061424a8183602088016137c4565b01949350505050565b600061ffff8088168352808716602084015250846040830152608060608301526142816080830184866140a1565b979650505050505050565b61ffff861681526080602082015260006142aa6080830186886140a1565b6001600160401b0394909416604083015250606001529392505050565b600081518084526020808501945080840160005b838110156142f7578151875295820195908201906001016142db565b509495945050505050565b60408152600061431560408301856137f0565b828103602084015261432781856142c7565b95945050505050565b61ffff861681526001600160a01b038516602082015260a06040820181905260009061435e908301866137f0565b8415156060840152828103608084015261437881856137f0565b98975050505050505050565b6000806040838503121561439757600080fd5b505080516020909101519092909150565b6000602082840312156143ba57600080fd5b81516001600160401b038111156143d057600080fd5b61212d848285016140e8565b61ffff851681526080602082015260006143f960808301866137f0565b6001600160401b0385166040840152828103606084015261428181856137f0565b6000821982111561442d5761442d614022565b500190565b634e487b7160e01b600052603260045260246000fd5b600081600019048311821515161561446257614462614022565b500290565b600082516144798184602087016137c4565b9190910192915050565b60208152600061194060208301846142c7565b82815260406020820152600061212d60408301846137f0565b60208082526032908201527f4552433732313a207472616e7366657220746f206e6f6e20455243373231526560408201527131b2b4bb32b91034b6b83632b6b2b73a32b960711b606082015260800190565b634e487b7160e01b600052601260045260246000fd5b60008261452657614526614501565b500490565b60008261453a5761453a614501565b500690565b61ffff8616815260a06020820152600061455c60a08301876137f0565b6001600160401b0386166040840152828103606084015261457d81866137f0565b9050828103608084015261437881856137f0565b61ffff8716815260c0602082015260006145ae60c08301886137f0565b82810360408401526145c081886137f0565b6001600160a01b0387811660608601528616608085015283810360a085015290506145eb81856137f0565b9998505050505050505050565b6001600160a01b038581168252841660208201526040810183905260806060820181905260009061462b908301846137f0565b9695505050505050565b60006020828403121561464757600080fd5b81516119408161379156fea264697066735822122063a870403bc8ab4063ec3be1cad8a304cbf949ff374f23c1b21050e77787bd8064736f6c634300080c0033",
  "linkReferences": {},
  "deployedLinkReferences": {}
}