{
  "_format": "hh-sol-artifact-1",
  "contractName": "NativeOFT",
  "sourceName": "contracts/token/oft/extension/NativeOFT.sol",
  "abi": [
    {
      "inputs": [
        {
          "internalType": "string",
          "name": "_name",
          "type": "string"
        },
        {
          "internalType": "string",
          "name": "_symbol",
          "type": "string"
        },
        {
          "internalType": "address",
          "name": "_lzEndpoint",
          "type": "address"
        }
      ],
      "stateMutability": "nonpayable",
      "type": "constructor"
    },
    {
      "anonymous": false,
      "inputs": [
        {
          "indexed": true,
          "internalType": "address",
          "name": "owner",
          "type": "address"
        },
        {
          "indexed": true,
          "internalType": "address",
          "name": "spender",
          "type": "address"
        },
        {
          "indexed": false,
          "internalType": "uint256",
          "name": "value",
          "type": "uint256"
        }
      ],
      "name": "Approval",
      "type": "event"
    },
    {
      "anonymous": false,
      "inputs": [
        {
          "indexed": true,
          "internalType": "address",
          "name": "_dst",
          "type": "address"
        },
        {
          "indexed": false,
          "internalType": "uint256",
          "name": "_amount",
          "type": "uint256"
        }
      ],
      "name": "Deposit",
      "type": "event"
    },
    {
      "anonymous": false,
      "inputs": [
        {
          "indexed": false,
          "internalType": "uint16",
          "name": "_srcChainId",
          "type": "uint16"
        },
        {
          "indexed": false,
          "internalType": "bytes",
          "name": "_srcAddress",
          "type": "bytes"
        },
        {
          "indexed": false,
          "internalType": "uint64",
          "name": "_nonce",
          "type": "uint64"
        },
        {
          "indexed": false,
          "internalType": "bytes",
          "name": "_payload",
          "type": "bytes"
        },
        {
          "indexed": false,
          "internalType": "bytes",
          "name": "_reason",
          "type": "bytes"
        }
      ],
      "name": "MessageFailed",
      "type": "event"
    },
    {
      "anonymous": false,
      "inputs": [
        {
          "indexed": true,
          "internalType": "address",
          "name": "previousOwner",
          "type": "address"
        },
        {
          "indexed": true,
          "internalType": "address",
          "name": "newOwner",
          "type": "address"
        }
      ],
      "name": "OwnershipTransferred",
      "type": "event"
    },
    {
      "anonymous": false,
      "inputs": [
        {
          "indexed": true,
          "internalType": "uint16",
          "name": "_srcChainId",
          "type": "uint16"
        },
        {
          "indexed": true,
          "internalType": "address",
          "name": "_to",
          "type": "address"
        },
        {
          "indexed": false,
          "internalType": "uint256",
          "name": "_amount",
          "type": "uint256"
        }
      ],
      "name": "ReceiveFromChain",
      "type": "event"
    },
    {
      "anonymous": false,
      "inputs": [
        {
          "indexed": false,
          "internalType": "uint16",
          "name": "_srcChainId",
          "type": "uint16"
        },
        {
          "indexed": false,
          "internalType": "bytes",
          "name": "_srcAddress",
          "type": "bytes"
        },
        {
          "indexed": false,
          "internalType": "uint64",
          "name": "_nonce",
          "type": "uint64"
        },
        {
          "indexed": false,
          "internalType": "bytes32",
          "name": "_payloadHash",
          "type": "bytes32"
        }
      ],
      "name": "RetryMessageSuccess",
      "type": "event"
    },
    {
      "anonymous": false,
      "inputs": [
        {
          "indexed": true,
          "internalType": "uint16",
          "name": "_dstChainId",
          "type": "uint16"
        },
        {
          "indexed": true,
          "internalType": "address",
          "name": "_from",
          "type": "address"
        },
        {
          "indexed": false,
          "internalType": "bytes",
          "name": "_toAddress",
          "type": "bytes"
        },
        {
          "indexed": false,
          "internalType": "uint256",
          "name": "_amount",
          "type": "uint256"
        }
      ],
      "name": "SendToChain",
      "type": "event"
    },
    {
      "anonymous": false,
      "inputs": [
        {
          "indexed": false,
          "internalType": "uint16",
          "name": "_dstChainId",
          "type": "uint16"
        },
        {
          "indexed": false,
          "internalType": "uint16",
          "name": "_type",
          "type": "uint16"
        },
        {
          "indexed": false,
          "internalType": "uint256",
          "name": "_minDstGas",
          "type": "uint256"
        }
      ],
      "name": "SetMinDstGas",
      "type": "event"
    },
    {
      "anonymous": false,
      "inputs": [
        {
          "indexed": false,
          "internalType": "address",
          "name": "precrime",
          "type": "address"
        }
      ],
      "name": "SetPrecrime",
      "type": "event"
    },
    {
      "anonymous": false,
      "inputs": [
        {
          "indexed": false,
          "internalType": "uint16",
          "name": "_remoteChainId",
          "type": "uint16"
        },
        {
          "indexed": false,
          "internalType": "bytes",
          "name": "_path",
          "type": "bytes"
        }
      ],
      "name": "SetTrustedRemote",
      "type": "event"
    },
    {
      "anonymous": false,
      "inputs": [
        {
          "indexed": false,
          "internalType": "uint16",
          "name": "_remoteChainId",
          "type": "uint16"
        },
        {
          "indexed": false,
          "internalType": "bytes",
          "name": "_remoteAddress",
          "type": "bytes"
        }
      ],
      "name": "SetTrustedRemoteAddress",
      "type": "event"
    },
    {
      "anonymous": false,
      "inputs": [
        {
          "indexed": false,
          "internalType": "bool",
          "name": "_useCustomAdapterParams",
          "type": "bool"
        }
      ],
      "name": "SetUseCustomAdapterParams",
      "type": "event"
    },
    {
      "anonymous": false,
      "inputs": [
        {
          "indexed": true,
          "internalType": "address",
          "name": "from",
          "type": "address"
        },
        {
          "indexed": true,
          "internalType": "address",
          "name": "to",
          "type": "address"
        },
        {
          "indexed": false,
          "internalType": "uint256",
          "name": "value",
          "type": "uint256"
        }
      ],
      "name": "Transfer",
      "type": "event"
    },
    {
      "anonymous": false,
      "inputs": [
        {
          "indexed": true,
          "internalType": "address",
          "name": "_src",
          "type": "address"
        },
        {
          "indexed": false,
          "internalType": "uint256",
          "name": "_amount",
          "type": "uint256"
        }
      ],
      "name": "Withdrawal",
      "type": "event"
    },
    {
      "inputs": [],
      "name": "DEFAULT_PAYLOAD_SIZE_LIMIT",
      "outputs": [
        {
          "internalType": "uint256",
          "name": "",
          "type": "uint256"
        }
      ],
      "stateMutability": "view",
      "type": "function"
    },
    {
      "inputs": [],
      "name": "NO_EXTRA_GAS",
      "outputs": [
        {
          "internalType": "uint256",
          "name": "",
          "type": "uint256"
        }
      ],
      "stateMutability": "view",
      "type": "function"
    },
    {
      "inputs": [],
      "name": "PT_SEND",
      "outputs": [
        {
          "internalType": "uint16",
          "name": "",
          "type": "uint16"
        }
      ],
      "stateMutability": "view",
      "type": "function"
    },
    {
      "inputs": [
        {
          "internalType": "address",
          "name": "owner",
          "type": "address"
        },
        {
          "internalType": "address",
          "name": "spender",
          "type": "address"
        }
      ],
      "name": "allowance",
      "outputs": [
        {
          "internalType": "uint256",
          "name": "",
          "type": "uint256"
        }
      ],
      "stateMutability": "view",
      "type": "function"
    },
    {
      "inputs": [
        {
          "internalType": "address",
          "name": "spender",
          "type": "address"
        },
        {
          "internalType": "uint256",
          "name": "amount",
          "type": "uint256"
        }
      ],
      "name": "approve",
      "outputs": [
        {
          "internalType": "bool",
          "name": "",
          "type": "bool"
        }
      ],
      "stateMutability": "nonpayable",
      "type": "function"
    },
    {
      "inputs": [
        {
          "internalType": "address",
          "name": "account",
          "type": "address"
        }
      ],
      "name": "balanceOf",
      "outputs": [
        {
          "internalType": "uint256",
          "name": "",
          "type": "uint256"
        }
      ],
      "stateMutability": "view",
      "type": "function"
    },
    {
      "inputs": [],
      "name": "circulatingSupply",
      "outputs": [
        {
          "internalType": "uint256",
          "name": "",
          "type": "uint256"
        }
      ],
      "stateMutability": "view",
      "type": "function"
    },
    {
      "inputs": [],
      "name": "decimals",
      "outputs": [
        {
          "internalType": "uint8",
          "name": "",
          "type": "uint8"
        }
      ],
      "stateMutability": "view",
      "type": "function"
    },
    {
      "inputs": [
        {
          "internalType": "address",
          "name": "spender",
          "type": "address"
        },
        {
          "internalType": "uint256",
          "name": "subtractedValue",
          "type": "uint256"
        }
      ],
      "name": "decreaseAllowance",
      "outputs": [
        {
          "internalType": "bool",
          "name": "",
          "type": "bool"
        }
      ],
      "stateMutability": "nonpayable",
      "type": "function"
    },
    {
      "inputs": [],
      "name": "deposit",
      "outputs": [],
      "stateMutability": "payable",
      "type": "function"
    },
    {
      "inputs": [
        {
          "internalType": "uint16",
          "name": "_dstChainId",
          "type": "uint16"
        },
        {
          "internalType": "bytes",
          "name": "_toAddress",
          "type": "bytes"
        },
        {
          "internalType": "uint256",
          "name": "_amount",
          "type": "uint256"
        },
        {
          "internalType": "bool",
          "name": "_useZro",
          "type": "bool"
        },
        {
          "internalType": "bytes",
          "name": "_adapterParams",
          "type": "bytes"
        }
      ],
      "name": "estimateSendFee",
      "outputs": [
        {
          "internalType": "uint256",
          "name": "nativeFee",
          "type": "uint256"
        },
        {
          "internalType": "uint256",
          "name": "zroFee",
          "type": "uint256"
        }
      ],
      "stateMutability": "view",
      "type": "function"
    },
    {
      "inputs": [
        {
          "internalType": "uint16",
          "name": "",
          "type": "uint16"
        },
        {
          "internalType": "bytes",
          "name": "",
          "type": "bytes"
        },
        {
          "internalType": "uint64",
          "name": "",
          "type": "uint64"
        }
      ],
      "name": "failedMessages",
      "outputs": [
        {
          "internalType": "bytes32",
          "name": "",
          "type": "bytes32"
        }
      ],
      "stateMutability": "view",
      "type": "function"
    },
    {
      "inputs": [
        {
          "internalType": "uint16",
          "name": "_srcChainId",
          "type": "uint16"
        },
        {
          "internalType": "bytes",
          "name": "_srcAddress",
          "type": "bytes"
        }
      ],
      "name": "forceResumeReceive",
      "outputs": [],
      "stateMutability": "nonpayable",
      "type": "function"
    },
    {
      "inputs": [
        {
          "internalType": "uint16",
          "name": "_version",
          "type": "uint16"
        },
        {
          "internalType": "uint16",
          "name": "_chainId",
          "type": "uint16"
        },
        {
          "internalType": "address",
          "name": "",
          "type": "address"
        },
        {
          "internalType": "uint256",
          "name": "_configType",
          "type": "uint256"
        }
      ],
      "name": "getConfig",
      "outputs": [
        {
          "internalType": "bytes",
          "name": "",
          "type": "bytes"
        }
      ],
      "stateMutability": "view",
      "type": "function"
    },
    {
      "inputs": [
        {
          "internalType": "uint16",
          "name": "_remoteChainId",
          "type": "uint16"
        }
      ],
      "name": "getTrustedRemoteAddress",
      "outputs": [
        {
          "internalType": "bytes",
          "name": "",
          "type": "bytes"
        }
      ],
      "stateMutability": "view",
      "type": "function"
    },
    {
      "inputs": [
        {
          "internalType": "address",
          "name": "spender",
          "type": "address"
        },
        {
          "internalType": "uint256",
          "name": "addedValue",
          "type": "uint256"
        }
      ],
      "name": "increaseAllowance",
      "outputs": [
        {
          "internalType": "bool",
          "name": "",
          "type": "bool"
        }
      ],
      "stateMutability": "nonpayable",
      "type": "function"
    },
    {
      "inputs": [
        {
          "internalType": "uint16",
          "name": "_srcChainId",
          "type": "uint16"
        },
        {
          "internalType": "bytes",
          "name": "_srcAddress",
          "type": "bytes"
        }
      ],
      "name": "isTrustedRemote",
      "outputs": [
        {
          "internalType": "bool",
          "name": "",
          "type": "bool"
        }
      ],
      "stateMutability": "view",
      "type": "function"
    },
    {
      "inputs": [],
      "name": "lzEndpoint",
      "outputs": [
        {
          "internalType": "contract ILayerZeroEndpoint",
          "name": "",
          "type": "address"
        }
      ],
      "stateMutability": "view",
      "type": "function"
    },
    {
      "inputs": [
        {
          "internalType": "uint16",
          "name": "_srcChainId",
          "type": "uint16"
        },
        {
          "internalType": "bytes",
          "name": "_srcAddress",
          "type": "bytes"
        },
        {
          "internalType": "uint64",
          "name": "_nonce",
          "type": "uint64"
        },
        {
          "internalType": "bytes",
          "name": "_payload",
          "type": "bytes"
        }
      ],
      "name": "lzReceive",
      "outputs": [],
      "stateMutability": "nonpayable",
      "type": "function"
    },
    {
      "inputs": [
        {
          "internalType": "uint16",
          "name": "",
          "type": "uint16"
        },
        {
          "internalType": "uint16",
          "name": "",
          "type": "uint16"
        }
      ],
      "name": "minDstGasLookup",
      "outputs": [
        {
          "internalType": "uint256",
          "name": "",
          "type": "uint256"
        }
      ],
      "stateMutability": "view",
      "type": "function"
    },
    {
      "inputs": [],
      "name": "name",
      "outputs": [
        {
          "internalType": "string",
          "name": "",
          "type": "string"
        }
      ],
      "stateMutability": "view",
      "type": "function"
    },
    {
      "inputs": [
        {
          "internalType": "uint16",
          "name": "_srcChainId",
          "type": "uint16"
        },
        {
          "internalType": "bytes",
          "name": "_srcAddress",
          "type": "bytes"
        },
        {
          "internalType": "uint64",
          "name": "_nonce",
          "type": "uint64"
        },
        {
          "internalType": "bytes",
          "name": "_payload",
          "type": "bytes"
        }
      ],
      "name": "nonblockingLzReceive",
      "outputs": [],
      "stateMutability": "nonpayable",
      "type": "function"
    },
    {
      "inputs": [],
      "name": "owner",
      "outputs": [
        {
          "internalType": "address",
          "name": "",
          "type": "address"
        }
      ],
      "stateMutability": "view",
      "type": "function"
    },
    {
      "inputs": [
        {
          "internalType": "uint16",
          "name": "",
          "type": "uint16"
        }
      ],
      "name": "payloadSizeLimitLookup",
      "outputs": [
        {
          "internalType": "uint256",
          "name": "",
          "type": "uint256"
        }
      ],
      "stateMutability": "view",
      "type": "function"
    },
    {
      "inputs": [],
      "name": "precrime",
      "outputs": [
        {
          "internalType": "address",
          "name": "",
          "type": "address"
        }
      ],
      "stateMutability": "view",
      "type": "function"
    },
    {
      "inputs": [],
      "name": "renounceOwnership",
      "outputs": [],
      "stateMutability": "nonpayable",
      "type": "function"
    },
    {
      "inputs": [
        {
          "internalType": "uint16",
          "name": "_srcChainId",
          "type": "uint16"
        },
        {
          "internalType": "bytes",
          "name": "_srcAddress",
          "type": "bytes"
        },
        {
          "internalType": "uint64",
          "name": "_nonce",
          "type": "uint64"
        },
        {
          "internalType": "bytes",
          "name": "_payload",
          "type": "bytes"
        }
      ],
      "name": "retryMessage",
      "outputs": [],
      "stateMutability": "payable",
      "type": "function"
    },
    {
      "inputs": [
        {
          "internalType": "address",
          "name": "_from",
          "type": "address"
        },
        {
          "internalType": "uint16",
          "name": "_dstChainId",
          "type": "uint16"
        },
        {
          "internalType": "bytes",
          "name": "_toAddress",
          "type": "bytes"
        },
        {
          "internalType": "uint256",
          "name": "_amount",
          "type": "uint256"
        },
        {
          "internalType": "address payable",
          "name": "_refundAddress",
          "type": "address"
        },
        {
          "internalType": "address",
          "name": "_zroPaymentAddress",
          "type": "address"
        },
        {
          "internalType": "bytes",
          "name": "_adapterParams",
          "type": "bytes"
        }
      ],
      "name": "sendFrom",
      "outputs": [],
      "stateMutability": "payable",
      "type": "function"
    },
    {
      "inputs": [
        {
          "internalType": "uint16",
          "name": "_version",
          "type": "uint16"
        },
        {
          "internalType": "uint16",
          "name": "_chainId",
          "type": "uint16"
        },
        {
          "internalType": "uint256",
          "name": "_configType",
          "type": "uint256"
        },
        {
          "internalType": "bytes",
          "name": "_config",
          "type": "bytes"
        }
      ],
      "name": "setConfig",
      "outputs": [],
      "stateMutability": "nonpayable",
      "type": "function"
    },
    {
      "inputs": [
        {
          "internalType": "uint16",
          "name": "_dstChainId",
          "type": "uint16"
        },
        {
          "internalType": "uint16",
          "name": "_packetType",
          "type": "uint16"
        },
        {
          "internalType": "uint256",
          "name": "_minGas",
          "type": "uint256"
        }
      ],
      "name": "setMinDstGas",
      "outputs": [],
      "stateMutability": "nonpayable",
      "type": "function"
    },
    {
      "inputs": [
        {
          "internalType": "uint16",
          "name": "_dstChainId",
          "type": "uint16"
        },
        {
          "internalType": "uint256",
          "name": "_size",
          "type": "uint256"
        }
      ],
      "name": "setPayloadSizeLimit",
      "outputs": [],
      "stateMutability": "nonpayable",
      "type": "function"
    },
    {
      "inputs": [
        {
          "internalType": "address",
          "name": "_precrime",
          "type": "address"
        }
      ],
      "name": "setPrecrime",
      "outputs": [],
      "stateMutability": "nonpayable",
      "type": "function"
    },
    {
      "inputs": [
        {
          "internalType": "uint16",
          "name": "_version",
          "type": "uint16"
        }
      ],
      "name": "setReceiveVersion",
      "outputs": [],
      "stateMutability": "nonpayable",
      "type": "function"
    },
    {
      "inputs": [
        {
          "internalType": "uint16",
          "name": "_version",
          "type": "uint16"
        }
      ],
      "name": "setSendVersion",
      "outputs": [],
      "stateMutability": "nonpayable",
      "type": "function"
    },
    {
      "inputs": [
        {
          "internalType": "uint16",
          "name": "_srcChainId",
          "type": "uint16"
        },
        {
          "internalType": "bytes",
          "name": "_path",
          "type": "bytes"
        }
      ],
      "name": "setTrustedRemote",
      "outputs": [],
      "stateMutability": "nonpayable",
      "type": "function"
    },
    {
      "inputs": [
        {
          "internalType": "uint16",
          "name": "_remoteChainId",
          "type": "uint16"
        },
        {
          "internalType": "bytes",
          "name": "_remoteAddress",
          "type": "bytes"
        }
      ],
      "name": "setTrustedRemoteAddress",
      "outputs": [],
      "stateMutability": "nonpayable",
      "type": "function"
    },
    {
      "inputs": [
        {
          "internalType": "bool",
          "name": "_useCustomAdapterParams",
          "type": "bool"
        }
      ],
      "name": "setUseCustomAdapterParams",
      "outputs": [],
      "stateMutability": "nonpayable",
      "type": "function"
    },
    {
      "inputs": [
        {
          "internalType": "bytes4",
          "name": "interfaceId",
          "type": "bytes4"
        }
      ],
      "name": "supportsInterface",
      "outputs": [
        {
          "internalType": "bool",
          "name": "",
          "type": "bool"
        }
      ],
      "stateMutability": "view",
      "type": "function"
    },
    {
      "inputs": [],
      "name": "symbol",
      "outputs": [
        {
          "internalType": "string",
          "name": "",
          "type": "string"
        }
      ],
      "stateMutability": "view",
      "type": "function"
    },
    {
      "inputs": [],
      "name": "token",
      "outputs": [
        {
          "internalType": "address",
          "name": "",
          "type": "address"
        }
      ],
      "stateMutability": "view",
      "type": "function"
    },
    {
      "inputs": [],
      "name": "totalSupply",
      "outputs": [
        {
          "internalType": "uint256",
          "name": "",
          "type": "uint256"
        }
      ],
      "stateMutability": "view",
      "type": "function"
    },
    {
      "inputs": [
        {
          "internalType": "address",
          "name": "to",
          "type": "address"
        },
        {
          "internalType": "uint256",
          "name": "amount",
          "type": "uint256"
        }
      ],
      "name": "transfer",
      "outputs": [
        {
          "internalType": "bool",
          "name": "",
          "type": "bool"
        }
      ],
      "stateMutability": "nonpayable",
      "type": "function"
    },
    {
      "inputs": [
        {
          "internalType": "address",
          "name": "from",
          "type": "address"
        },
        {
          "internalType": "address",
          "name": "to",
          "type": "address"
        },
        {
          "internalType": "uint256",
          "name": "amount",
          "type": "uint256"
        }
      ],
      "name": "transferFrom",
      "outputs": [
        {
          "internalType": "bool",
          "name": "",
          "type": "bool"
        }
      ],
      "stateMutability": "nonpayable",
      "type": "function"
    },
    {
      "inputs": [
        {
          "internalType": "address",
          "name": "newOwner",
          "type": "address"
        }
      ],
      "name": "transferOwnership",
      "outputs": [],
      "stateMutability": "nonpayable",
      "type": "function"
    },
    {
      "inputs": [
        {
          "internalType": "uint16",
          "name": "",
          "type": "uint16"
        }
      ],
      "name": "trustedRemoteLookup",
      "outputs": [
        {
          "internalType": "bytes",
          "name": "",
          "type": "bytes"
        }
      ],
      "stateMutability": "view",
      "type": "function"
    },
    {
      "inputs": [],
      "name": "useCustomAdapterParams",
      "outputs": [
        {
          "internalType": "bool",
          "name": "",
          "type": "bool"
        }
      ],
      "stateMutability": "view",
      "type": "function"
    },
    {
      "inputs": [
        {
          "internalType": "uint256",
          "name": "_amount",
          "type": "uint256"
        }
      ],
      "name": "withdraw",
      "outputs": [],
      "stateMutability": "nonpayable",
      "type": "function"
    },
    {
      "stateMutability": "payable",
      "type": "receive"
    }
  ],
  "bytecode": "0x60a06040523480156200001157600080fd5b5060405162003c3738038062003c37833981016040819052620000349162000258565b8282828282828080620000473362000095565b6001600160a01b0316608052505081516200006a90600a906020850190620000e5565b5080516200008090600b906020840190620000e5565b50506001600c55506200032295505050505050565b600080546001600160a01b038381166001600160a01b0319831681178455604051919092169283917f8be0079c531659141344cd1fd0a4f28419497f9722a3daafe3b4186f6b6457e09190a35050565b828054620000f390620002e5565b90600052602060002090601f01602090048101928262000117576000855562000162565b82601f106200013257805160ff191683800117855562000162565b8280016001018555821562000162579182015b828111156200016257825182559160200191906001019062000145565b506200017092915062000174565b5090565b5b8082111562000170576000815560010162000175565b634e487b7160e01b600052604160045260246000fd5b600082601f830112620001b357600080fd5b81516001600160401b0380821115620001d057620001d06200018b565b604051601f8301601f19908116603f01168101908282118183101715620001fb57620001fb6200018b565b816040528381526020925086838588010111156200021857600080fd5b600091505b838210156200023c57858201830151818301840152908201906200021d565b838211156200024e5760008385830101525b9695505050505050565b6000806000606084860312156200026e57600080fd5b83516001600160401b03808211156200028657600080fd5b6200029487838801620001a1565b94506020860151915080821115620002ab57600080fd5b50620002ba86828701620001a1565b604086015190935090506001600160a01b0381168114620002da57600080fd5b809150509250925092565b600181811c90821680620002fa57607f821691505b602082108114156200031c57634e487b7160e01b600052602260045260246000fd5b50919050565b6080516138c162000376600039600081816107430152818161090701528181610c2601528181610ce601528181610d84015281816110b80152818161160901528181611ab401526127fc01526138c16000f3fe60806040526004361061028b5760003560e01c80637533d7881161015a578063c4461834116100c1578063eab45d9c1161007a578063eab45d9c14610816578063eb8d72b714610836578063ed629c5c14610856578063f2fde38b14610870578063f5ecbdbc14610890578063fc0c546a146108b057600080fd5b8063c446183414610785578063cbed8b9c1461079b578063d0e30db0146107bb578063d1deba1f146107c3578063dd62ed3e146107d6578063df2a5b3b146107f657600080fd5b80639f38369a116101135780639f38369a146106b1578063a457c2d7146106d1578063a6c3d165146106f1578063a9059cbb14610711578063b353aaa714610731578063baf3292d1461076557600080fd5b80637533d788146105dd5780638cfd8f5c146105fd5780638da5cb5b146106355780639358928b14610667578063950c8a741461067c57806395d89b411461069c57600080fd5b8063313ce567116101fe5780634c42899a116101b75780634c42899a146104e857806351905636146105105780635b8c41e61461052357806366ad5c8a1461057257806370a0823114610592578063715018a6146105c857600080fd5b8063313ce5671461042a57806339509351146104465780633d8b38f6146104665780633f1f4fa41461048657806342d65a8d146104b357806344770515146104d357600080fd5b80630df37483116102505780630df374831461035657806310ddb1371461037657806318160ddd1461039657806323b872dd146103b55780632a205e3d146103d55780632e1a7d4d1461040a57600080fd5b80621d35671461029f57806301ffc9a7146102bf57806306fdde03146102f457806307e0db1714610316578063095ea7b31461033657600080fd5b3661029a576102986108c3565b005b600080fd5b3480156102ab57600080fd5b506102986102ba366004612db0565b610904565b3480156102cb57600080fd5b506102df6102da366004612e45565b610b35565b60405190151581526020015b60405180910390f35b34801561030057600080fd5b50610309610b73565b6040516102eb9190612ec7565b34801561032257600080fd5b50610298610331366004612eda565b610c05565b34801561034257600080fd5b506102df610351366004612f0c565b610c8e565b34801561036257600080fd5b50610298610371366004612f38565b610ca6565b34801561038257600080fd5b50610298610391366004612eda565b610cc5565b3480156103a257600080fd5b506009545b6040519081526020016102eb565b3480156103c157600080fd5b506102df6103d0366004612f56565b610d1d565b3480156103e157600080fd5b506103f56103f0366004612fa7565b610d41565b604080519283526020830191909152016102eb565b34801561041657600080fd5b50610298610425366004613046565b610e14565b34801561043657600080fd5b50604051601281526020016102eb565b34801561045257600080fd5b506102df610461366004612f0c565b610fab565b34801561047257600080fd5b506102df61048136600461305f565b610fcd565b34801561049257600080fd5b506103a76104a1366004612eda565b60036020526000908152604090205481565b3480156104bf57600080fd5b506102986104ce36600461305f565b611099565b3480156104df57600080fd5b506103a7600081565b3480156104f457600080fd5b506104fd600081565b60405161ffff90911681526020016102eb565b61029861051e3660046130b3565b61111f565b34801561052f57600080fd5b506103a761053e3660046131e9565b6005602090815260009384526040808520845180860184018051928152908401958401959095209452929052825290205481565b34801561057e57600080fd5b5061029861058d366004612db0565b6111a4565b34801561059e57600080fd5b506103a76105ad36600461328b565b6001600160a01b031660009081526007602052604090205490565b3480156105d457600080fd5b50610298611280565b3480156105e957600080fd5b506103096105f8366004612eda565b611294565b34801561060957600080fd5b506103a76106183660046132a8565b600260209081526000928352604080842090915290825290205481565b34801561064157600080fd5b506000546001600160a01b03165b6040516001600160a01b0390911681526020016102eb565b34801561067357600080fd5b506103a761132e565b34801561068857600080fd5b5060045461064f906001600160a01b031681565b3480156106a857600080fd5b5061030961133e565b3480156106bd57600080fd5b506103096106cc366004612eda565b61134d565b3480156106dd57600080fd5b506102df6106ec366004612f0c565b611464565b3480156106fd57600080fd5b5061029861070c36600461305f565b6114df565b34801561071d57600080fd5b506102df61072c366004612f0c565b61157f565b34801561073d57600080fd5b5061064f7f000000000000000000000000000000000000000000000000000000000000000081565b34801561077157600080fd5b5061029861078036600461328b565b61158d565b34801561079157600080fd5b506103a761271081565b3480156107a757600080fd5b506102986107b63660046132e1565b6115ea565b6102986108c3565b6102986107d1366004612db0565b611674565b3480156107e257600080fd5b506103a76107f1366004613353565b61188a565b34801561080257600080fd5b50610298610811366004613381565b6118b5565b34801561082257600080fd5b506102986108313660046133b1565b611967565b34801561084257600080fd5b5061029861085136600461305f565b6119b0565b34801561086257600080fd5b506006546102df9060ff1681565b34801561087c57600080fd5b5061029861088b36600461328b565b611a0a565b34801561089c57600080fd5b506103096108ab3660046133cc565b611a83565b3480156108bc57600080fd5b503061064f565b6108cd3334611b34565b60405134815233907fe1fffcc4923d04b559f4d29a8bfc6cda04eb5b0d3c460751c2402c5c5cc9109c9060200160405180910390a2565b337f00000000000000000000000000000000000000000000000000000000000000006001600160a01b0316146109815760405162461bcd60e51b815260206004820152601e60248201527f4c7a4170703a20696e76616c696420656e64706f696e742063616c6c6572000060448201526064015b60405180910390fd5b61ffff86166000908152600160205260408120805461099f9061341d565b80601f01602080910402602001604051908101604052809291908181526020018280546109cb9061341d565b8015610a185780601f106109ed57610100808354040283529160200191610a18565b820191906000526020600020905b8154815290600101906020018083116109fb57829003601f168201915b50505050509050805186869050148015610a33575060008151115b8015610a5b575080516020820120604051610a519088908890613452565b6040518091039020145b610ab65760405162461bcd60e51b815260206004820152602660248201527f4c7a4170703a20696e76616c696420736f757263652073656e64696e6720636f6044820152651b9d1c9858dd60d21b6064820152608401610978565b610b2c8787878080601f01602080910402602001604051908101604052809392919081815260200183838082843760009201919091525050604080516020601f8a018190048102820181019092528881528a935091508890889081908401838280828437600092019190915250611c1392505050565b50505050505050565b60006001600160e01b031982161580610b5e57506001600160e01b031982166336372b0760e01b145b80610b6d5750610b6d82611c8c565b92915050565b6060600a8054610b829061341d565b80601f0160208091040260200160405190810160405280929190818152602001828054610bae9061341d565b8015610bfb5780601f10610bd057610100808354040283529160200191610bfb565b820191906000526020600020905b815481529060010190602001808311610bde57829003601f168201915b5050505050905090565b610c0d611cc1565b6040516307e0db1760e01b815261ffff821660048201527f00000000000000000000000000000000000000000000000000000000000000006001600160a01b0316906307e0db17906024015b600060405180830381600087803b158015610c7357600080fd5b505af1158015610c87573d6000803e3d6000fd5b5050505050565b600033610c9c818585611d1b565b5060019392505050565b610cae611cc1565b61ffff909116600090815260036020526040902055565b610ccd611cc1565b6040516310ddb13760e01b815261ffff821660048201527f00000000000000000000000000000000000000000000000000000000000000006001600160a01b0316906310ddb13790602401610c59565b600033610d2b858285611e40565b610d36858585611eba565b506001949350505050565b600080600080898989604051602001610d5d949392919061348b565b60408051601f198184030181529082905263040a7bb160e41b825291506001600160a01b037f000000000000000000000000000000000000000000000000000000000000000016906340a7bb1090610dc3908d90309086908c908c908c906004016134ba565b6040805180830381865afa158015610ddf573d6000803e3d6000fd5b505050506040513d601f19601f82011682018060405250810190610e039190613510565b925092505097509795505050505050565b6002600c541415610e675760405162461bcd60e51b815260206004820152601f60248201527f5265656e7472616e637947756172643a207265656e7472616e742063616c6c006044820152606401610978565b6002600c5533600090815260076020526040902054811115610ecb5760405162461bcd60e51b815260206004820181905260248201527f4e61746976654f46543a20496e73756666696369656e742062616c616e63652e6044820152606401610978565b610ed53382612088565b604051600090339083908381818185875af1925050503d8060008114610f17576040519150601f19603f3d011682016040523d82523d6000602084013e610f1c565b606091505b5050905080610f6d5760405162461bcd60e51b815260206004820152601b60248201527f4e61746976654f46543a206661696c656420746f20756e7772617000000000006044820152606401610978565b60405182815233907f7fcf532c15f0a6db0bd6d0e038bea71d30d808c7d98cb3bf7268a95bf5081b659060200160405180910390a250506001600c55565b600033610c9c818585610fbe838361188a565b610fc8919061354a565b611d1b565b61ffff831660009081526001602052604081208054829190610fee9061341d565b80601f016020809104026020016040519081016040528092919081815260200182805461101a9061341d565b80156110675780601f1061103c57610100808354040283529160200191611067565b820191906000526020600020905b81548152906001019060200180831161104a57829003601f168201915b50505050509050838360405161107e929190613452565b60405180910390208180519060200120149150509392505050565b6110a1611cc1565b6040516342d65a8d60e01b81526001600160a01b037f000000000000000000000000000000000000000000000000000000000000000016906342d65a8d906110f190869086908690600401613562565b600060405180830381600087803b15801561110b57600080fd5b505af1158015610b2c573d6000803e3d6000fd5b611199898989898080601f01602080910402602001604051908101604052809392919081815260200183838082843760009201919091525050604080516020601f8a018190048102820181019092528881528c93508b92508a918a908a90819084018382808284376000920191909152506121d392505050565b505050505050505050565b3330146112025760405162461bcd60e51b815260206004820152602660248201527f4e6f6e626c6f636b696e674c7a4170703a2063616c6c6572206d7573742062656044820152650204c7a4170760d41b6064820152608401610978565b6112788686868080601f01602080910402602001604051908101604052809392919081815260200183838082843760009201919091525050604080516020601f89018190048102820181019092528781528993509150879087908190840183828082843760009201919091525061229992505050565b505050505050565b611288611cc1565b6112926000612300565b565b600160205260009081526040902080546112ad9061341d565b80601f01602080910402602001604051908101604052809291908181526020018280546112d99061341d565b80156113265780601f106112fb57610100808354040283529160200191611326565b820191906000526020600020905b81548152906001019060200180831161130957829003601f168201915b505050505081565b600061133960095490565b905090565b6060600b8054610b829061341d565b61ffff81166000908152600160205260408120805460609291906113709061341d565b80601f016020809104026020016040519081016040528092919081815260200182805461139c9061341d565b80156113e95780601f106113be576101008083540402835291602001916113e9565b820191906000526020600020905b8154815290600101906020018083116113cc57829003601f168201915b505050505090508051600014156114425760405162461bcd60e51b815260206004820152601d60248201527f4c7a4170703a206e6f20747275737465642070617468207265636f72640000006044820152606401610978565b61145d6000601483516114559190613580565b839190612350565b9392505050565b60003381611472828661188a565b9050838110156114d25760405162461bcd60e51b815260206004820152602560248201527f45524332303a2064656372656173656420616c6c6f77616e63652062656c6f77604482015264207a65726f60d81b6064820152608401610978565b610d368286868403611d1b565b6114e7611cc1565b8181306040516020016114fc93929190613597565b60408051601f1981840301815291815261ffff8516600090815260016020908152919020825161153193919290910190612c2f565b5061153f8361ffff1661245d565b7f8c0400cfe2d1199b1a725c78960bcc2a344d869b80590d0f2bd005db15a572ce83838360405161157293929190613562565b60405180910390a1505050565b600033610c9c818585611eba565b611595611cc1565b600480546001600160a01b0319166001600160a01b0383169081179091556040519081527f5db758e995a17ec1ad84bdef7e8c3293a0bd6179bcce400dff5d4c3d87db726b906020015b60405180910390a150565b6115f2611cc1565b6040516332fb62e760e21b81526001600160a01b037f0000000000000000000000000000000000000000000000000000000000000000169063cbed8b9c9061164690889088908890889088906004016135bd565b600060405180830381600087803b15801561166057600080fd5b505af1158015611199573d6000803e3d6000fd5b61ffff861660009081526005602052604080822090516116979088908890613452565b90815260408051602092819003830190206001600160401b038716600090815292529020549050806117175760405162461bcd60e51b815260206004820152602360248201527f4e6f6e626c6f636b696e674c7a4170703a206e6f2073746f726564206d65737360448201526261676560e81b6064820152608401610978565b808383604051611728929190613452565b6040518091039020146117875760405162461bcd60e51b815260206004820152602160248201527f4e6f6e626c6f636b696e674c7a4170703a20696e76616c6964207061796c6f616044820152601960fa1b6064820152608401610978565b61ffff871660009081526005602052604080822090516117aa9089908990613452565b90815260408051602092819003830181206001600160401b038916600090815290845282902093909355601f88018290048202830182019052868252611842918991899089908190840183828082843760009201919091525050604080516020601f8a018190048102820181019092528881528a93509150889088908190840183828082843760009201919091525061229992505050565b7fc264d91f3adc5588250e1551f547752ca0cfa8f6b530d243b9f9f4cab10ea8e587878787856040516118799594939291906135f6565b60405180910390a150505050505050565b6001600160a01b03918216600090815260086020908152604080832093909416825291909152205490565b6118bd611cc1565b600081116119055760405162461bcd60e51b81526020600482015260156024820152744c7a4170703a20696e76616c6964206d696e47617360581b6044820152606401610978565b61ffff83811660008181526002602090815260408083209487168084529482529182902085905581519283528201929092529081018290527f9d5c7c0b934da8fefa9c7760c98383778a12dfbfc0c3b3106518f43fb9508ac090606001611572565b61196f611cc1565b6006805460ff19168215159081179091556040519081527f1584ad594a70cbe1e6515592e1272a987d922b097ead875069cebe8b40c004a4906020016115df565b6119b8611cc1565b61ffff831660009081526001602052604090206119d6908383612cb3565b507ffa41487ad5d6728f0b19276fa1eddc16558578f5109fc39d2dc33c3230470dab83838360405161157293929190613562565b611a12611cc1565b6001600160a01b038116611a775760405162461bcd60e51b815260206004820152602660248201527f4f776e61626c653a206e6577206f776e657220697320746865207a65726f206160448201526564647265737360d01b6064820152608401610978565b611a8081612300565b50565b604051633d7b2f6f60e21b815261ffff808616600483015284166024820152306044820152606481018290526060907f00000000000000000000000000000000000000000000000000000000000000006001600160a01b03169063f5ecbdbc90608401600060405180830381865afa158015611b03573d6000803e3d6000fd5b505050506040513d6000823e601f3d908101601f19168201604052611b2b919081019061367e565b95945050505050565b6001600160a01b038216611b8a5760405162461bcd60e51b815260206004820152601f60248201527f45524332303a206d696e7420746f20746865207a65726f2061646472657373006044820152606401610978565b8060096000828254611b9c919061354a565b90915550506001600160a01b03821660009081526007602052604081208054839290611bc990849061354a565b90915550506040518181526001600160a01b038316906000907fddf252ad1be2c89b69c2b068fc378daa952ba7f163c4a11628f55a4df523b3ef9060200160405180910390a35050565b600080611c765a60966366ad5c8a60e01b89898989604051602401611c3b94939291906136b2565b60408051601f198184030181529190526020810180516001600160e01b03166001600160e01b031990931692909217909152309291906124a2565b915091508161127857611278868686868561252c565b60006001600160e01b03198216630a72677560e11b1480610b6d57506301ffc9a760e01b6001600160e01b0319831614610b6d565b6000546001600160a01b031633146112925760405162461bcd60e51b815260206004820181905260248201527f4f776e61626c653a2063616c6c6572206973206e6f7420746865206f776e65726044820152606401610978565b6001600160a01b038316611d7d5760405162461bcd60e51b8152602060048201526024808201527f45524332303a20617070726f76652066726f6d20746865207a65726f206164646044820152637265737360e01b6064820152608401610978565b6001600160a01b038216611dde5760405162461bcd60e51b815260206004820152602260248201527f45524332303a20617070726f766520746f20746865207a65726f206164647265604482015261737360f01b6064820152608401610978565b6001600160a01b0383811660008181526008602090815260408083209487168084529482529182902085905590518481527f8c5be1e5ebec7d5bd14f71427d1e84f3dd0314c0f7b2291e5b200ac8c7c3b92591015b60405180910390a3505050565b6000611e4c848461188a565b90506000198114611eb45781811015611ea75760405162461bcd60e51b815260206004820152601d60248201527f45524332303a20696e73756666696369656e7420616c6c6f77616e63650000006044820152606401610978565b611eb48484848403611d1b565b50505050565b6001600160a01b038316611f1e5760405162461bcd60e51b815260206004820152602560248201527f45524332303a207472616e736665722066726f6d20746865207a65726f206164604482015264647265737360d81b6064820152608401610978565b6001600160a01b038216611f805760405162461bcd60e51b815260206004820152602360248201527f45524332303a207472616e7366657220746f20746865207a65726f206164647260448201526265737360e81b6064820152608401610978565b6001600160a01b03831660009081526007602052604090205481811015611ff85760405162461bcd60e51b815260206004820152602660248201527f45524332303a207472616e7366657220616d6f756e7420657863656564732062604482015265616c616e636560d01b6064820152608401610978565b6001600160a01b0380851660009081526007602052604080822085850390559185168152908120805484929061202f90849061354a565b92505081905550826001600160a01b0316846001600160a01b03167fddf252ad1be2c89b69c2b068fc378daa952ba7f163c4a11628f55a4df523b3ef8460405161207b91815260200190565b60405180910390a3611eb4565b6001600160a01b0382166120e85760405162461bcd60e51b815260206004820152602160248201527f45524332303a206275726e2066726f6d20746865207a65726f206164647265736044820152607360f81b6064820152608401610978565b6001600160a01b0382166000908152600760205260409020548181101561215c5760405162461bcd60e51b815260206004820152602260248201527f45524332303a206275726e20616d6f756e7420657863656564732062616c616e604482015261636560f01b6064820152608401610978565b6001600160a01b038316600090815260076020526040812083830390556009805484929061218b908490613580565b90915550506040518281526000906001600160a01b038516907fddf252ad1be2c89b69c2b068fc378daa952ba7f163c4a11628f55a4df523b3ef90602001611e33565b505050565b60006121e1888888886125c9565b905060008087876040516020016121fa939291906136f0565b60408051601f1981840301815291905260065490915060ff161561222b576122268860008560006125f3565b61228b565b82511561228b5760405162461bcd60e51b815260206004820152602860248201527f4e61746976654f46543a205f61646170746572506172616d73206d7573742062604482015267329032b6b83a3c9760c11b6064820152608401610978565b6111998882878787876126d2565b602081015161ffff81166122b8576122b385858585612878565b610c87565b60405162461bcd60e51b815260206004820152601c60248201527f4f4654436f72653a20756e6b6e6f776e207061636b65742074797065000000006044820152606401610978565b600080546001600160a01b038381166001600160a01b0319831681178455604051919092169283917f8be0079c531659141344cd1fd0a4f28419497f9722a3daafe3b4186f6b6457e09190a35050565b60608161235e81601f61354a565b101561239d5760405162461bcd60e51b815260206004820152600e60248201526d736c6963655f6f766572666c6f7760901b6044820152606401610978565b6123a7828461354a565b845110156123eb5760405162461bcd60e51b8152602060048201526011602482015270736c6963655f6f75744f66426f756e647360781b6044820152606401610978565b60608215801561240a5760405191506000825260208201604052612454565b6040519150601f8416801560200281840101858101878315602002848b0101015b8183101561244357805183526020928301920161242b565b5050858452601f01601f1916604052505b50949350505050565b611a808160405160240161247391815260200190565b60408051601f198184030181529190526020810180516001600160e01b031663f82c50f160e01b179052612902565b6000606060008060008661ffff166001600160401b038111156124c7576124c761317c565b6040519080825280601f01601f1916602001820160405280156124f1576020820181803683370190505b50905060008087516020890160008d8df191503d925086831115612513578692505b828152826000602083013e909890975095505050505050565b8180519060200120600560008761ffff1661ffff1681526020019081526020016000208560405161255d919061371d565b9081526040805191829003602090810183206001600160401b0388166000908152915220919091557fe183f33de2837795525b4792ca4cd60535bd77c53b7e7030060bfcf5734d6b0c906125ba9087908790879087908790613739565b60405180910390a15050505050565b6000336001600160a01b038616146125ea576125e58583612923565b611b2b565b611b2b826129c8565b60006125fe83612a48565b61ffff80871660009081526002602090815260408083209389168352929052908120549192509061263090849061354a565b9050600081116126825760405162461bcd60e51b815260206004820152601a60248201527f4c7a4170703a206d696e4761734c696d6974206e6f74207365740000000000006044820152606401610978565b808210156112785760405162461bcd60e51b815260206004820152601b60248201527f4c7a4170703a20676173206c696d697420697320746f6f206c6f7700000000006044820152606401610978565b61ffff8616600090815260016020526040812080546126f09061341d565b80601f016020809104026020016040519081016040528092919081815260200182805461271c9061341d565b80156127695780601f1061273e57610100808354040283529160200191612769565b820191906000526020600020905b81548152906001019060200180831161274c57829003601f168201915b505050505090508051600014156127db5760405162461bcd60e51b815260206004820152603060248201527f4c7a4170703a2064657374696e6174696f6e20636861696e206973206e6f742060448201526f61207472757374656420736f7572636560801b6064820152608401610978565b6127e6878751612aa4565b60405162c5803160e81b81526001600160a01b037f0000000000000000000000000000000000000000000000000000000000000000169063c580310090849061283d908b9086908c908c908c908c90600401613797565b6000604051808303818588803b15801561285657600080fd5b505af115801561286a573d6000803e3d6000fd5b505050505050505050505050565b6000808280602001905181019061288f91906137f1565b9093509150600090506128a28382612b12565b90506128af878284612b77565b9150806001600160a01b03168761ffff167fbf551ec93859b170f9b2141bd9298bf3f64322c6f7beb2543a0cb669834118bf846040516128f191815260200190565b60405180910390a350505050505050565b80516a636f6e736f6c652e6c6f67602083016000808483855afa5050505050565b6001600160a01b038216600090815260076020526040812054828110156129a7578261294f348361354a565b101561296d5760405162461bcd60e51b81526004016109789061384a565b60006129798285613580565b90506129853382611b34565b612990333083611eba565b819350803461299f9190613580565b9250506129ab565b3491505b6129b6843385611e40565b6129c1843085611eba565b5092915050565b3360009081526007602052604081205482811015612a3357826129eb348361354a565b1015612a095760405162461bcd60e51b81526004016109789061384a565b6000612a158285613580565b9050612a213382611b34565b612a2b8134613580565b925050612a37565b3491505b612a42333085611eba565b50919050565b6000602282511015612a9c5760405162461bcd60e51b815260206004820152601c60248201527f4c7a4170703a20696e76616c69642061646170746572506172616d73000000006044820152606401610978565b506022015190565b61ffff821660009081526003602052604090205480612ac257506127105b808211156121ce5760405162461bcd60e51b815260206004820181905260248201527f4c7a4170703a207061796c6f61642073697a6520697320746f6f206c617267656044820152606401610978565b6000612b1f82601461354a565b83511015612b675760405162461bcd60e51b8152602060048201526015602482015274746f416464726573735f6f75744f66426f756e647360581b6044820152606401610978565b500160200151600160601b900490565b6000612b833083612088565b6000836001600160a01b03168360405160006040518083038185875af1925050503d8060008114612bd0576040519150601f19603f3d011682016040523d82523d6000602084013e612bd5565b606091505b5050905080612c265760405162461bcd60e51b815260206004820152601e60248201527f4e61746976654f46543a206661696c656420746f205f637265646974546f00006044820152606401610978565b50909392505050565b828054612c3b9061341d565b90600052602060002090601f016020900481019282612c5d5760008555612ca3565b82601f10612c7657805160ff1916838001178555612ca3565b82800160010185558215612ca3579182015b82811115612ca3578251825591602001919060010190612c88565b50612caf929150612d27565b5090565b828054612cbf9061341d565b90600052602060002090601f016020900481019282612ce15760008555612ca3565b82601f10612cfa5782800160ff19823516178555612ca3565b82800160010185558215612ca3579182015b82811115612ca3578235825591602001919060010190612d0c565b5b80821115612caf5760008155600101612d28565b61ffff81168114611a8057600080fd5b60008083601f840112612d5e57600080fd5b5081356001600160401b03811115612d7557600080fd5b602083019150836020828501011115612d8d57600080fd5b9250929050565b80356001600160401b0381168114612dab57600080fd5b919050565b60008060008060008060808789031215612dc957600080fd5b8635612dd481612d3c565b955060208701356001600160401b0380821115612df057600080fd5b612dfc8a838b01612d4c565b9097509550859150612e1060408a01612d94565b94506060890135915080821115612e2657600080fd5b50612e3389828a01612d4c565b979a9699509497509295939492505050565b600060208284031215612e5757600080fd5b81356001600160e01b03198116811461145d57600080fd5b60005b83811015612e8a578181015183820152602001612e72565b83811115611eb45750506000910152565b60008151808452612eb3816020860160208601612e6f565b601f01601f19169290920160200192915050565b60208152600061145d6020830184612e9b565b600060208284031215612eec57600080fd5b813561145d81612d3c565b6001600160a01b0381168114611a8057600080fd5b60008060408385031215612f1f57600080fd5b8235612f2a81612ef7565b946020939093013593505050565b60008060408385031215612f4b57600080fd5b8235612f2a81612d3c565b600080600060608486031215612f6b57600080fd5b8335612f7681612ef7565b92506020840135612f8681612ef7565b929592945050506040919091013590565b80358015158114612dab57600080fd5b600080600080600080600060a0888a031215612fc257600080fd5b8735612fcd81612d3c565b965060208801356001600160401b0380821115612fe957600080fd5b612ff58b838c01612d4c565b909850965060408a0135955086915061301060608b01612f97565b945060808a013591508082111561302657600080fd5b506130338a828b01612d4c565b989b979a50959850939692959293505050565b60006020828403121561305857600080fd5b5035919050565b60008060006040848603121561307457600080fd5b833561307f81612d3c565b925060208401356001600160401b0381111561309a57600080fd5b6130a686828701612d4c565b9497909650939450505050565b600080600080600080600080600060e08a8c0312156130d157600080fd5b89356130dc81612ef7565b985060208a01356130ec81612d3c565b975060408a01356001600160401b038082111561310857600080fd5b6131148d838e01612d4c565b909950975060608c0135965060808c0135915061313082612ef7565b90945060a08b01359061314282612ef7565b90935060c08b0135908082111561315857600080fd5b506131658c828d01612d4c565b915080935050809150509295985092959850929598565b634e487b7160e01b600052604160045260246000fd5b604051601f8201601f191681016001600160401b03811182821017156131ba576131ba61317c565b604052919050565b60006001600160401b038211156131db576131db61317c565b50601f01601f191660200190565b6000806000606084860312156131fe57600080fd5b833561320981612d3c565b925060208401356001600160401b0381111561322457600080fd5b8401601f8101861361323557600080fd5b8035613248613243826131c2565b613192565b81815287602083850101111561325d57600080fd5b8160208401602083013760006020838301015280945050505061328260408501612d94565b90509250925092565b60006020828403121561329d57600080fd5b813561145d81612ef7565b600080604083850312156132bb57600080fd5b82356132c681612d3c565b915060208301356132d681612d3c565b809150509250929050565b6000806000806000608086880312156132f957600080fd5b853561330481612d3c565b9450602086013561331481612d3c565b93506040860135925060608601356001600160401b0381111561333657600080fd5b61334288828901612d4c565b969995985093965092949392505050565b6000806040838503121561336657600080fd5b823561337181612ef7565b915060208301356132d681612ef7565b60008060006060848603121561339657600080fd5b83356133a181612d3c565b92506020840135612f8681612d3c565b6000602082840312156133c357600080fd5b61145d82612f97565b600080600080608085870312156133e257600080fd5b84356133ed81612d3c565b935060208501356133fd81612d3c565b9250604085013561340d81612ef7565b9396929550929360600135925050565b600181811c9082168061343157607f821691505b60208210811415612a4257634e487b7160e01b600052602260045260246000fd5b8183823760009101908152919050565b81835281816020850137506000828201602090810191909152601f909101601f19169091010190565b61ffff851681526060602082015260006134a9606083018587613462565b905082604083015295945050505050565b61ffff871681526001600160a01b038616602082015260a0604082018190526000906134e890830187612e9b565b85151560608401528281036080840152613503818587613462565b9998505050505050505050565b6000806040838503121561352357600080fd5b505080516020909101519092909150565b634e487b7160e01b600052601160045260246000fd5b6000821982111561355d5761355d613534565b500190565b61ffff84168152604060208201526000611b2b604083018486613462565b60008282101561359257613592613534565b500390565b8284823760609190911b6bffffffffffffffffffffffff19169101908152601401919050565b600061ffff8088168352808716602084015250846040830152608060608301526135eb608083018486613462565b979650505050505050565b61ffff86168152608060208201526000613614608083018688613462565b6001600160401b0394909416604083015250606001529392505050565b600082601f83011261364257600080fd5b8151613650613243826131c2565b81815284602083860101111561366557600080fd5b613676826020830160208701612e6f565b949350505050565b60006020828403121561369057600080fd5b81516001600160401b038111156136a657600080fd5b61367684828501613631565b61ffff851681526080602082015260006136cf6080830186612e9b565b6001600160401b038516604084015282810360608401526135eb8185612e9b565b61ffff8416815260606020820152600061370d6060830185612e9b565b9050826040830152949350505050565b6000825161372f818460208701612e6f565b9190910192915050565b61ffff8616815260a06020820152600061375660a0830187612e9b565b6001600160401b038616604084015282810360608401526137778186612e9b565b9050828103608084015261378b8185612e9b565b98975050505050505050565b61ffff8716815260c0602082015260006137b460c0830188612e9b565b82810360408401526137c68188612e9b565b6001600160a01b0387811660608601528616608085015283810360a085015290506135038185612e9b565b60008060006060848603121561380657600080fd5b835161381181612d3c565b60208501519093506001600160401b0381111561382d57600080fd5b61383986828701613631565b925050604084015190509250925092565b60208082526021908201527f4e61746976654f46543a20496e73756666696369656e74206d73672e76616c756040820152606560f81b60608201526080019056fea2646970667358221220c95a9210eba8bdbbf4a782f2403c3ea42c3540f5eb24f6b8527a34a965cd124c64736f6c634300080c0033",
  "linkReferences": {},
  "deployedLinkReferences": {}
}