{
  "_format": "hh-sol-artifact-1",
  "contractName": "ComposableProxyOFT",
  "sourceName": "contracts/token/oft/composable/ComposableProxyOFT.sol",
  "abi": [
    {
      "inputs": [
        {
          "internalType": "address",
          "name": "_lzEndpoint",
          "type": "address"
        },
        {
          "internalType": "address",
          "name": "_proxyToken",
          "type": "address"
        }
      ],
      "stateMutability": "nonpayable",
      "type": "constructor"
    },
    {
      "anonymous": false,
      "inputs": [
        {
          "indexed": true,
          "internalType": "uint16",
          "name": "_srcChainId",
          "type": "uint16"
        },
        {
          "indexed": false,
          "internalType": "bytes",
          "name": "_srcAddress",
          "type": "bytes"
        },
        {
          "indexed": false,
          "internalType": "uint64",
          "name": "_nonce",
          "type": "uint64"
        },
        {
          "indexed": false,
          "internalType": "bytes",
          "name": "_from",
          "type": "bytes"
        },
        {
          "indexed": true,
          "internalType": "address",
          "name": "_to",
          "type": "address"
        },
        {
          "indexed": false,
          "internalType": "uint256",
          "name": "_amount",
          "type": "uint256"
        },
        {
          "indexed": false,
          "internalType": "bytes",
          "name": "_payload",
          "type": "bytes"
        },
        {
          "indexed": false,
          "internalType": "bytes",
          "name": "_reason",
          "type": "bytes"
        }
      ],
      "name": "CallOFTReceivedFailure",
      "type": "event"
    },
    {
      "anonymous": false,
      "inputs": [
        {
          "indexed": true,
          "internalType": "uint16",
          "name": "_srcChainId",
          "type": "uint16"
        },
        {
          "indexed": false,
          "internalType": "bytes",
          "name": "_srcAddress",
          "type": "bytes"
        },
        {
          "indexed": false,
          "internalType": "uint64",
          "name": "_nonce",
          "type": "uint64"
        },
        {
          "indexed": false,
          "internalType": "bytes32",
          "name": "_hash",
          "type": "bytes32"
        }
      ],
      "name": "CallOFTReceivedSuccess",
      "type": "event"
    },
    {
      "anonymous": false,
      "inputs": [
        {
          "indexed": false,
          "internalType": "uint16",
          "name": "_srcChainId",
          "type": "uint16"
        },
        {
          "indexed": false,
          "internalType": "bytes",
          "name": "_srcAddress",
          "type": "bytes"
        },
        {
          "indexed": false,
          "internalType": "uint64",
          "name": "_nonce",
          "type": "uint64"
        },
        {
          "indexed": false,
          "internalType": "bytes",
          "name": "_payload",
          "type": "bytes"
        },
        {
          "indexed": false,
          "internalType": "bytes",
          "name": "_reason",
          "type": "bytes"
        }
      ],
      "name": "MessageFailed",
      "type": "event"
    },
    {
      "anonymous": false,
      "inputs": [
        {
          "indexed": false,
          "internalType": "address",
          "name": "_address",
          "type": "address"
        }
      ],
      "name": "NonContractAddress",
      "type": "event"
    },
    {
      "anonymous": false,
      "inputs": [
        {
          "indexed": true,
          "internalType": "address",
          "name": "previousOwner",
          "type": "address"
        },
        {
          "indexed": true,
          "internalType": "address",
          "name": "newOwner",
          "type": "address"
        }
      ],
      "name": "OwnershipTransferred",
      "type": "event"
    },
    {
      "anonymous": false,
      "inputs": [
        {
          "indexed": true,
          "internalType": "uint16",
          "name": "_srcChainId",
          "type": "uint16"
        },
        {
          "indexed": true,
          "internalType": "address",
          "name": "_to",
          "type": "address"
        },
        {
          "indexed": false,
          "internalType": "uint256",
          "name": "_amount",
          "type": "uint256"
        }
      ],
      "name": "ReceiveFromChain",
      "type": "event"
    },
    {
      "anonymous": false,
      "inputs": [
        {
          "indexed": false,
          "internalType": "uint16",
          "name": "_srcChainId",
          "type": "uint16"
        },
        {
          "indexed": false,
          "internalType": "bytes",
          "name": "_srcAddress",
          "type": "bytes"
        },
        {
          "indexed": false,
          "internalType": "uint64",
          "name": "_nonce",
          "type": "uint64"
        },
        {
          "indexed": false,
          "internalType": "bytes32",
          "name": "_payloadHash",
          "type": "bytes32"
        }
      ],
      "name": "RetryMessageSuccess",
      "type": "event"
    },
    {
      "anonymous": false,
      "inputs": [
        {
          "indexed": false,
          "internalType": "bytes32",
          "name": "_messageHash",
          "type": "bytes32"
        }
      ],
      "name": "RetryOFTReceivedSuccess",
      "type": "event"
    },
    {
      "anonymous": false,
      "inputs": [
        {
          "indexed": true,
          "internalType": "uint16",
          "name": "_dstChainId",
          "type": "uint16"
        },
        {
          "indexed": true,
          "internalType": "address",
          "name": "_from",
          "type": "address"
        },
        {
          "indexed": false,
          "internalType": "bytes",
          "name": "_toAddress",
          "type": "bytes"
        },
        {
          "indexed": false,
          "internalType": "uint256",
          "name": "_amount",
          "type": "uint256"
        }
      ],
      "name": "SendToChain",
      "type": "event"
    },
    {
      "anonymous": false,
      "inputs": [
        {
          "indexed": false,
          "internalType": "uint16",
          "name": "_dstChainId",
          "type": "uint16"
        },
        {
          "indexed": false,
          "internalType": "uint16",
          "name": "_type",
          "type": "uint16"
        },
        {
          "indexed": false,
          "internalType": "uint256",
          "name": "_minDstGas",
          "type": "uint256"
        }
      ],
      "name": "SetMinDstGas",
      "type": "event"
    },
    {
      "anonymous": false,
      "inputs": [
        {
          "indexed": false,
          "internalType": "address",
          "name": "precrime",
          "type": "address"
        }
      ],
      "name": "SetPrecrime",
      "type": "event"
    },
    {
      "anonymous": false,
      "inputs": [
        {
          "indexed": false,
          "internalType": "uint16",
          "name": "_remoteChainId",
          "type": "uint16"
        },
        {
          "indexed": false,
          "internalType": "bytes",
          "name": "_path",
          "type": "bytes"
        }
      ],
      "name": "SetTrustedRemote",
      "type": "event"
    },
    {
      "anonymous": false,
      "inputs": [
        {
          "indexed": false,
          "internalType": "uint16",
          "name": "_remoteChainId",
          "type": "uint16"
        },
        {
          "indexed": false,
          "internalType": "bytes",
          "name": "_remoteAddress",
          "type": "bytes"
        }
      ],
      "name": "SetTrustedRemoteAddress",
      "type": "event"
    },
    {
      "anonymous": false,
      "inputs": [
        {
          "indexed": false,
          "internalType": "bool",
          "name": "_useCustomAdapterParams",
          "type": "bool"
        }
      ],
      "name": "SetUseCustomAdapterParams",
      "type": "event"
    },
    {
      "inputs": [],
      "name": "DEFAULT_PAYLOAD_SIZE_LIMIT",
      "outputs": [
        {
          "internalType": "uint256",
          "name": "",
          "type": "uint256"
        }
      ],
      "stateMutability": "view",
      "type": "function"
    },
    {
      "inputs": [],
      "name": "NO_EXTRA_GAS",
      "outputs": [
        {
          "internalType": "uint256",
          "name": "",
          "type": "uint256"
        }
      ],
      "stateMutability": "view",
      "type": "function"
    },
    {
      "inputs": [],
      "name": "PT_SEND",
      "outputs": [
        {
          "internalType": "uint16",
          "name": "",
          "type": "uint16"
        }
      ],
      "stateMutability": "view",
      "type": "function"
    },
    {
      "inputs": [],
      "name": "PT_SEND_AND_CALL",
      "outputs": [
        {
          "internalType": "uint16",
          "name": "",
          "type": "uint16"
        }
      ],
      "stateMutability": "view",
      "type": "function"
    },
    {
      "inputs": [],
      "name": "circulatingSupply",
      "outputs": [
        {
          "internalType": "uint256",
          "name": "",
          "type": "uint256"
        }
      ],
      "stateMutability": "view",
      "type": "function"
    },
    {
      "inputs": [
        {
          "internalType": "uint16",
          "name": "_dstChainId",
          "type": "uint16"
        },
        {
          "internalType": "bytes",
          "name": "_toAddress",
          "type": "bytes"
        },
        {
          "internalType": "uint256",
          "name": "_amount",
          "type": "uint256"
        },
        {
          "internalType": "bytes",
          "name": "_payload",
          "type": "bytes"
        },
        {
          "internalType": "uint64",
          "name": "_dstGasForCall",
          "type": "uint64"
        },
        {
          "internalType": "bool",
          "name": "_useZro",
          "type": "bool"
        },
        {
          "internalType": "bytes",
          "name": "_adapterParams",
          "type": "bytes"
        }
      ],
      "name": "estimateSendAndCallFee",
      "outputs": [
        {
          "internalType": "uint256",
          "name": "nativeFee",
          "type": "uint256"
        },
        {
          "internalType": "uint256",
          "name": "zroFee",
          "type": "uint256"
        }
      ],
      "stateMutability": "view",
      "type": "function"
    },
    {
      "inputs": [
        {
          "internalType": "uint16",
          "name": "_dstChainId",
          "type": "uint16"
        },
        {
          "internalType": "bytes",
          "name": "_toAddress",
          "type": "bytes"
        },
        {
          "internalType": "uint256",
          "name": "_amount",
          "type": "uint256"
        },
        {
          "internalType": "bool",
          "name": "_useZro",
          "type": "bool"
        },
        {
          "internalType": "bytes",
          "name": "_adapterParams",
          "type": "bytes"
        }
      ],
      "name": "estimateSendFee",
      "outputs": [
        {
          "internalType": "uint256",
          "name": "nativeFee",
          "type": "uint256"
        },
        {
          "internalType": "uint256",
          "name": "zroFee",
          "type": "uint256"
        }
      ],
      "stateMutability": "view",
      "type": "function"
    },
    {
      "inputs": [
        {
          "internalType": "uint16",
          "name": "",
          "type": "uint16"
        },
        {
          "internalType": "bytes",
          "name": "",
          "type": "bytes"
        },
        {
          "internalType": "uint64",
          "name": "",
          "type": "uint64"
        }
      ],
      "name": "failedMessages",
      "outputs": [
        {
          "internalType": "bytes32",
          "name": "",
          "type": "bytes32"
        }
      ],
      "stateMutability": "view",
      "type": "function"
    },
    {
      "inputs": [
        {
          "internalType": "uint16",
          "name": "",
          "type": "uint16"
        },
        {
          "internalType": "bytes",
          "name": "",
          "type": "bytes"
        },
        {
          "internalType": "uint64",
          "name": "",
          "type": "uint64"
        }
      ],
      "name": "failedOFTReceivedMessages",
      "outputs": [
        {
          "internalType": "bytes32",
          "name": "",
          "type": "bytes32"
        }
      ],
      "stateMutability": "view",
      "type": "function"
    },
    {
      "inputs": [
        {
          "internalType": "uint16",
          "name": "_srcChainId",
          "type": "uint16"
        },
        {
          "internalType": "bytes",
          "name": "_srcAddress",
          "type": "bytes"
        }
      ],
      "name": "forceResumeReceive",
      "outputs": [],
      "stateMutability": "nonpayable",
      "type": "function"
    },
    {
      "inputs": [
        {
          "internalType": "uint16",
          "name": "_version",
          "type": "uint16"
        },
        {
          "internalType": "uint16",
          "name": "_chainId",
          "type": "uint16"
        },
        {
          "internalType": "address",
          "name": "",
          "type": "address"
        },
        {
          "internalType": "uint256",
          "name": "_configType",
          "type": "uint256"
        }
      ],
      "name": "getConfig",
      "outputs": [
        {
          "internalType": "bytes",
          "name": "",
          "type": "bytes"
        }
      ],
      "stateMutability": "view",
      "type": "function"
    },
    {
      "inputs": [
        {
          "internalType": "uint16",
          "name": "_remoteChainId",
          "type": "uint16"
        }
      ],
      "name": "getTrustedRemoteAddress",
      "outputs": [
        {
          "internalType": "bytes",
          "name": "",
          "type": "bytes"
        }
      ],
      "stateMutability": "view",
      "type": "function"
    },
    {
      "inputs": [
        {
          "internalType": "uint16",
          "name": "_srcChainId",
          "type": "uint16"
        },
        {
          "internalType": "bytes",
          "name": "_srcAddress",
          "type": "bytes"
        }
      ],
      "name": "isTrustedRemote",
      "outputs": [
        {
          "internalType": "bool",
          "name": "",
          "type": "bool"
        }
      ],
      "stateMutability": "view",
      "type": "function"
    },
    {
      "inputs": [],
      "name": "lzEndpoint",
      "outputs": [
        {
          "internalType": "contract ILayerZeroEndpoint",
          "name": "",
          "type": "address"
        }
      ],
      "stateMutability": "view",
      "type": "function"
    },
    {
      "inputs": [
        {
          "internalType": "uint16",
          "name": "_srcChainId",
          "type": "uint16"
        },
        {
          "internalType": "bytes",
          "name": "_srcAddress",
          "type": "bytes"
        },
        {
          "internalType": "uint64",
          "name": "_nonce",
          "type": "uint64"
        },
        {
          "internalType": "bytes",
          "name": "_payload",
          "type": "bytes"
        }
      ],
      "name": "lzReceive",
      "outputs": [],
      "stateMutability": "nonpayable",
      "type": "function"
    },
    {
      "inputs": [
        {
          "internalType": "uint16",
          "name": "",
          "type": "uint16"
        },
        {
          "internalType": "uint16",
          "name": "",
          "type": "uint16"
        }
      ],
      "name": "minDstGasLookup",
      "outputs": [
        {
          "internalType": "uint256",
          "name": "",
          "type": "uint256"
        }
      ],
      "stateMutability": "view",
      "type": "function"
    },
    {
      "inputs": [
        {
          "internalType": "uint16",
          "name": "_srcChainId",
          "type": "uint16"
        },
        {
          "internalType": "bytes",
          "name": "_srcAddress",
          "type": "bytes"
        },
        {
          "internalType": "uint64",
          "name": "_nonce",
          "type": "uint64"
        },
        {
          "internalType": "bytes",
          "name": "_payload",
          "type": "bytes"
        }
      ],
      "name": "nonblockingLzReceive",
      "outputs": [],
      "stateMutability": "nonpayable",
      "type": "function"
    },
    {
      "inputs": [],
      "name": "owner",
      "outputs": [
        {
          "internalType": "address",
          "name": "",
          "type": "address"
        }
      ],
      "stateMutability": "view",
      "type": "function"
    },
    {
      "inputs": [
        {
          "internalType": "uint16",
          "name": "",
          "type": "uint16"
        }
      ],
      "name": "payloadSizeLimitLookup",
      "outputs": [
        {
          "internalType": "uint256",
          "name": "",
          "type": "uint256"
        }
      ],
      "stateMutability": "view",
      "type": "function"
    },
    {
      "inputs": [],
      "name": "precrime",
      "outputs": [
        {
          "internalType": "address",
          "name": "",
          "type": "address"
        }
      ],
      "stateMutability": "view",
      "type": "function"
    },
    {
      "inputs": [],
      "name": "renounceOwnership",
      "outputs": [],
      "stateMutability": "nonpayable",
      "type": "function"
    },
    {
      "inputs": [
        {
          "internalType": "uint16",
          "name": "_srcChainId",
          "type": "uint16"
        },
        {
          "internalType": "bytes",
          "name": "_srcAddress",
          "type": "bytes"
        },
        {
          "internalType": "uint64",
          "name": "_nonce",
          "type": "uint64"
        },
        {
          "internalType": "bytes",
          "name": "_payload",
          "type": "bytes"
        }
      ],
      "name": "retryMessage",
      "outputs": [],
      "stateMutability": "payable",
      "type": "function"
    },
    {
      "inputs": [
        {
          "internalType": "uint16",
          "name": "_srcChainId",
          "type": "uint16"
        },
        {
          "internalType": "bytes",
          "name": "_srcAddress",
          "type": "bytes"
        },
        {
          "internalType": "uint64",
          "name": "_nonce",
          "type": "uint64"
        },
        {
          "internalType": "bytes",
          "name": "_from",
          "type": "bytes"
        },
        {
          "internalType": "address",
          "name": "_to",
          "type": "address"
        },
        {
          "internalType": "uint256",
          "name": "_amount",
          "type": "uint256"
        },
        {
          "internalType": "bytes",
          "name": "_payload",
          "type": "bytes"
        }
      ],
      "name": "retryOFTReceived",
      "outputs": [],
      "stateMutability": "nonpayable",
      "type": "function"
    },
    {
      "inputs": [
        {
          "internalType": "address",
          "name": "_from",
          "type": "address"
        },
        {
          "internalType": "uint16",
          "name": "_dstChainId",
          "type": "uint16"
        },
        {
          "internalType": "bytes",
          "name": "_toAddress",
          "type": "bytes"
        },
        {
          "internalType": "uint256",
          "name": "_amount",
          "type": "uint256"
        },
        {
          "internalType": "bytes",
          "name": "_payload",
          "type": "bytes"
        },
        {
          "internalType": "uint64",
          "name": "_dstGasForCall",
          "type": "uint64"
        },
        {
          "internalType": "address payable",
          "name": "_refundAddress",
          "type": "address"
        },
        {
          "internalType": "address",
          "name": "_zroPaymentAddress",
          "type": "address"
        },
        {
          "internalType": "bytes",
          "name": "_adapterParams",
          "type": "bytes"
        }
      ],
      "name": "sendAndCall",
      "outputs": [],
      "stateMutability": "payable",
      "type": "function"
    },
    {
      "inputs": [
        {
          "internalType": "address",
          "name": "_from",
          "type": "address"
        },
        {
          "internalType": "uint16",
          "name": "_dstChainId",
          "type": "uint16"
        },
        {
          "internalType": "bytes",
          "name": "_toAddress",
          "type": "bytes"
        },
        {
          "internalType": "uint256",
          "name": "_amount",
          "type": "uint256"
        },
        {
          "internalType": "address payable",
          "name": "_refundAddress",
          "type": "address"
        },
        {
          "internalType": "address",
          "name": "_zroPaymentAddress",
          "type": "address"
        },
        {
          "internalType": "bytes",
          "name": "_adapterParams",
          "type": "bytes"
        }
      ],
      "name": "sendFrom",
      "outputs": [],
      "stateMutability": "payable",
      "type": "function"
    },
    {
      "inputs": [
        {
          "internalType": "uint16",
          "name": "_version",
          "type": "uint16"
        },
        {
          "internalType": "uint16",
          "name": "_chainId",
          "type": "uint16"
        },
        {
          "internalType": "uint256",
          "name": "_configType",
          "type": "uint256"
        },
        {
          "internalType": "bytes",
          "name": "_config",
          "type": "bytes"
        }
      ],
      "name": "setConfig",
      "outputs": [],
      "stateMutability": "nonpayable",
      "type": "function"
    },
    {
      "inputs": [
        {
          "internalType": "uint16",
          "name": "_dstChainId",
          "type": "uint16"
        },
        {
          "internalType": "uint16",
          "name": "_packetType",
          "type": "uint16"
        },
        {
          "internalType": "uint256",
          "name": "_minGas",
          "type": "uint256"
        }
      ],
      "name": "setMinDstGas",
      "outputs": [],
      "stateMutability": "nonpayable",
      "type": "function"
    },
    {
      "inputs": [
        {
          "internalType": "uint16",
          "name": "_dstChainId",
          "type": "uint16"
        },
        {
          "internalType": "uint256",
          "name": "_size",
          "type": "uint256"
        }
      ],
      "name": "setPayloadSizeLimit",
      "outputs": [],
      "stateMutability": "nonpayable",
      "type": "function"
    },
    {
      "inputs": [
        {
          "internalType": "address",
          "name": "_precrime",
          "type": "address"
        }
      ],
      "name": "setPrecrime",
      "outputs": [],
      "stateMutability": "nonpayable",
      "type": "function"
    },
    {
      "inputs": [
        {
          "internalType": "uint16",
          "name": "_version",
          "type": "uint16"
        }
      ],
      "name": "setReceiveVersion",
      "outputs": [],
      "stateMutability": "nonpayable",
      "type": "function"
    },
    {
      "inputs": [
        {
          "internalType": "uint16",
          "name": "_version",
          "type": "uint16"
        }
      ],
      "name": "setSendVersion",
      "outputs": [],
      "stateMutability": "nonpayable",
      "type": "function"
    },
    {
      "inputs": [
        {
          "internalType": "uint16",
          "name": "_srcChainId",
          "type": "uint16"
        },
        {
          "internalType": "bytes",
          "name": "_path",
          "type": "bytes"
        }
      ],
      "name": "setTrustedRemote",
      "outputs": [],
      "stateMutability": "nonpayable",
      "type": "function"
    },
    {
      "inputs": [
        {
          "internalType": "uint16",
          "name": "_remoteChainId",
          "type": "uint16"
        },
        {
          "internalType": "bytes",
          "name": "_remoteAddress",
          "type": "bytes"
        }
      ],
      "name": "setTrustedRemoteAddress",
      "outputs": [],
      "stateMutability": "nonpayable",
      "type": "function"
    },
    {
      "inputs": [
        {
          "internalType": "bool",
          "name": "_useCustomAdapterParams",
          "type": "bool"
        }
      ],
      "name": "setUseCustomAdapterParams",
      "outputs": [],
      "stateMutability": "nonpayable",
      "type": "function"
    },
    {
      "inputs": [
        {
          "internalType": "bytes4",
          "name": "interfaceId",
          "type": "bytes4"
        }
      ],
      "name": "supportsInterface",
      "outputs": [
        {
          "internalType": "bool",
          "name": "",
          "type": "bool"
        }
      ],
      "stateMutability": "view",
      "type": "function"
    },
    {
      "inputs": [],
      "name": "token",
      "outputs": [
        {
          "internalType": "address",
          "name": "",
          "type": "address"
        }
      ],
      "stateMutability": "view",
      "type": "function"
    },
    {
      "inputs": [
        {
          "internalType": "address",
          "name": "newOwner",
          "type": "address"
        }
      ],
      "name": "transferOwnership",
      "outputs": [],
      "stateMutability": "nonpayable",
      "type": "function"
    },
    {
      "inputs": [
        {
          "internalType": "uint16",
          "name": "",
          "type": "uint16"
        }
      ],
      "name": "trustedRemoteLookup",
      "outputs": [
        {
          "internalType": "bytes",
          "name": "",
          "type": "bytes"
        }
      ],
      "stateMutability": "view",
      "type": "function"
    },
    {
      "inputs": [],
      "name": "useCustomAdapterParams",
      "outputs": [
        {
          "internalType": "bool",
          "name": "",
          "type": "bool"
        }
      ],
      "stateMutability": "view",
      "type": "function"
    }
  ],
  "bytecode": "0x60c06040523480156200001157600080fd5b50604051620042de380380620042de8339810160408190526200003491620000d0565b81808080620000433362000063565b6001600160a01b039081166080529390931660a052506200010892505050565b600080546001600160a01b038381166001600160a01b0319831681178455604051919092169283917f8be0079c531659141344cd1fd0a4f28419497f9722a3daafe3b4186f6b6457e09190a35050565b80516001600160a01b0381168114620000cb57600080fd5b919050565b60008060408385031215620000e457600080fd5b620000ef83620000b3565b9150620000ff60208401620000b3565b90509250929050565b60805160a051614139620001a56000396000818161079801528181610f6501528181610fda01528181612257015281816122d90152818161231801528181612937015281816129b101526129f90152600081816105dc015281816107bf01528181610a3901528181610ae101528181610b5b01528181610cd7015281816112cd0152818161139401528181611ae901526124c901526141396000f3fe60806040526004361061022f5760003560e01c80639358928b1161012e578063d1deba1f116100ab578063eb8d72b71161006f578063eb8d72b71461070f578063ed629c5c1461072f578063f2fde38b14610749578063f5ecbdbc14610769578063fc0c546a1461078957600080fd5b8063d1deba1f14610694578063df2a5b3b146106a7578063e6a20ae6146106c7578063e7f0c59f146106dc578063eab45d9c146106ef57600080fd5b8063baf3292d116100f2578063baf3292d146105fe578063c44618341461061e578063c8598dca14610634578063cbed8b9c14610654578063cfd6528e1461067457600080fd5b80639358928b14610555578063950c8a741461056a5780639f38369a1461058a578063a6c3d165146105aa578063b353aaa7146105ca57600080fd5b806344770515116101bc57806366ad5c8a1161018057806366ad5c8a14610489578063715018a6146104a95780637533d788146104be5780638cfd8f5c146104eb5780638da5cb5b1461052357600080fd5b8063447705151461039b5780634c42899a146103b057806351905636146103d85780635b8c41e6146103eb5780636096cc581461043a57600080fd5b806310ddb1371161020357806310ddb137146102cb5780632a205e3d146102eb5780633d8b38f6146103205780633f1f4fa41461034057806342d65a8d1461037b57600080fd5b80621d35671461023457806301ffc9a71461025657806307e0db171461028b5780630df37483146102ab575b600080fd5b34801561024057600080fd5b5061025461024f3660046130a6565b6107bc565b005b34801561026257600080fd5b5061027661027136600461313c565b6109ed565b60405190151581526020015b60405180910390f35b34801561029757600080fd5b506102546102a6366004613166565b610a18565b3480156102b757600080fd5b506102546102c6366004613183565b610aa1565b3480156102d757600080fd5b506102546102e6366004613166565b610ac0565b3480156102f757600080fd5b5061030b6103063660046131c8565b610b18565b60408051928352602083019190915201610282565b34801561032c57600080fd5b5061027661033b366004613268565b610beb565b34801561034c57600080fd5b5061036d61035b366004613166565b60036020526000908152604090205481565b604051908152602001610282565b34801561038757600080fd5b50610254610396366004613268565b610cb8565b3480156103a757600080fd5b5061036d600081565b3480156103bc57600080fd5b506103c5600081565b60405161ffff9091168152602001610282565b6102546103e63660046132dc565b610d3e565b3480156103f757600080fd5b5061036d610406366004613412565b6005602090815260009384526040808520845180860184018051928152908401958401959095209452929052825290205481565b34801561044657600080fd5b5061036d610455366004613412565b6007602090815260009384526040808520845180860184018051928152908401958401959095209452929052825290205481565b34801561049557600080fd5b506102546104a43660046130a6565b610dc3565b3480156104b557600080fd5b50610254610e9f565b3480156104ca57600080fd5b506104de6104d9366004613166565b610eb3565b6040516102829190613510565b3480156104f757600080fd5b5061036d610506366004613523565b600260209081526000928352604080842090915290825290205481565b34801561052f57600080fd5b506000546001600160a01b03165b6040516001600160a01b039091168152602001610282565b34801561056157600080fd5b5061036d610f4d565b34801561057657600080fd5b5060045461053d906001600160a01b031681565b34801561059657600080fd5b506104de6105a5366004613166565b611060565b3480156105b657600080fd5b506102546105c5366004613268565b611170565b3480156105d657600080fd5b5061053d7f000000000000000000000000000000000000000000000000000000000000000081565b34801561060a57600080fd5b5061025461061936600461355c565b611210565b34801561062a57600080fd5b5061036d61271081565b34801561064057600080fd5b5061030b61064f366004613579565b61126d565b34801561066057600080fd5b5061025461066f366004613657565b611375565b34801561068057600080fd5b5061025461068f3660046136c9565b6113ff565b6102546106a23660046130a6565b611645565b3480156106b357600080fd5b506102546106c2366004613783565b61185b565b3480156106d357600080fd5b506103c5600181565b6102546106ea3660046137c4565b61190d565b3480156106fb57600080fd5b5061025461070a3660046138cd565b61199c565b34801561071b57600080fd5b5061025461072a366004613268565b6119e5565b34801561073b57600080fd5b506006546102769060ff1681565b34801561075557600080fd5b5061025461076436600461355c565b611a3f565b34801561077557600080fd5b506104de6107843660046138ea565b611ab8565b34801561079557600080fd5b507f000000000000000000000000000000000000000000000000000000000000000061053d565b337f00000000000000000000000000000000000000000000000000000000000000006001600160a01b0316146108395760405162461bcd60e51b815260206004820152601e60248201527f4c7a4170703a20696e76616c696420656e64706f696e742063616c6c6572000060448201526064015b60405180910390fd5b61ffff8616600090815260016020526040812080546108579061393b565b80601f01602080910402602001604051908101604052809291908181526020018280546108839061393b565b80156108d05780601f106108a5576101008083540402835291602001916108d0565b820191906000526020600020905b8154815290600101906020018083116108b357829003601f168201915b505050505090508051868690501480156108eb575060008151115b80156109135750805160208201206040516109099088908890613976565b6040518091039020145b61096e5760405162461bcd60e51b815260206004820152602660248201527f4c7a4170703a20696e76616c696420736f757263652073656e64696e6720636f6044820152651b9d1c9858dd60d21b6064820152608401610830565b6109e48787878080601f01602080910402602001604051908101604052809392919081815260200183838082843760009201919091525050604080516020601f8a018190048102820181019092528881528a935091508890889081908401838280828437600092019190915250611b6992505050565b50505050505050565b60006001600160e01b0319821663e07f1adb60e01b1480610a125750610a1282611be2565b92915050565b610a20611c17565b6040516307e0db1760e01b815261ffff821660048201527f00000000000000000000000000000000000000000000000000000000000000006001600160a01b0316906307e0db17906024015b600060405180830381600087803b158015610a8657600080fd5b505af1158015610a9a573d6000803e3d6000fd5b5050505050565b610aa9611c17565b61ffff909116600090815260036020526040902055565b610ac8611c17565b6040516310ddb13760e01b815261ffff821660048201527f00000000000000000000000000000000000000000000000000000000000000006001600160a01b0316906310ddb13790602401610a6c565b600080600080898989604051602001610b3494939291906139af565b60408051601f198184030181529082905263040a7bb160e41b825291506001600160a01b037f000000000000000000000000000000000000000000000000000000000000000016906340a7bb1090610b9a908d90309086908c908c908c906004016139de565b6040805180830381865afa158015610bb6573d6000803e3d6000fd5b505050506040513d601f19601f82011682018060405250810190610bda9190613a34565b925092505097509795505050505050565b61ffff831660009081526001602052604081208054829190610c0c9061393b565b80601f0160208091040260200160405190810160405280929190818152602001828054610c389061393b565b8015610c855780601f10610c5a57610100808354040283529160200191610c85565b820191906000526020600020905b815481529060010190602001808311610c6857829003601f168201915b505050505090508383604051610c9c929190613976565b60405180910390208180519060200120149150505b9392505050565b610cc0611c17565b6040516342d65a8d60e01b81526001600160a01b037f000000000000000000000000000000000000000000000000000000000000000016906342d65a8d90610d1090869086908690600401613a58565b600060405180830381600087803b158015610d2a57600080fd5b505af11580156109e4573d6000803e3d6000fd5b610db8898989898080601f01602080910402602001604051908101604052809392919081815260200183838082843760009201919091525050604080516020601f8a018190048102820181019092528881528c93508b92508a918a908a9081908401838280828437600092019190915250611c7192505050565b505050505050505050565b333014610e215760405162461bcd60e51b815260206004820152602660248201527f4e6f6e626c6f636b696e674c7a4170703a2063616c6c6572206d7573742062656044820152650204c7a4170760d41b6064820152608401610830565b610e978686868080601f01602080910402602001604051908101604052809392919081815260200183838082843760009201919091525050604080516020601f890181900481028201810190925287815289935091508790879081908401838280828437600092019190915250611d1892505050565b505050505050565b610ea7611c17565b610eb16000611da7565b565b60016020526000908152604090208054610ecc9061393b565b80601f0160208091040260200160405190810160405280929190818152602001828054610ef89061393b565b8015610f455780601f10610f1a57610100808354040283529160200191610f45565b820191906000526020600020905b815481529060010190602001808311610f2857829003601f168201915b505050505081565b6040516370a0823160e01b81523060048201526000907f00000000000000000000000000000000000000000000000000000000000000006001600160a01b0316906370a0823190602401602060405180830381865afa158015610fb4573d6000803e3d6000fd5b505050506040513d601f19601f82011682018060405250810190610fd89190613a76565b7f00000000000000000000000000000000000000000000000000000000000000006001600160a01b03166318160ddd6040518163ffffffff1660e01b8152600401602060405180830381865afa158015611036573d6000803e3d6000fd5b505050506040513d601f19601f8201168201806040525081019061105a9190613a76565b03905090565b61ffff81166000908152600160205260408120805460609291906110839061393b565b80601f01602080910402602001604051908101604052809291908181526020018280546110af9061393b565b80156110fc5780601f106110d1576101008083540402835291602001916110fc565b820191906000526020600020905b8154815290600101906020018083116110df57829003601f168201915b505050505090508051600014156111555760405162461bcd60e51b815260206004820152601d60248201527f4c7a4170703a206e6f20747275737465642070617468207265636f72640000006044820152606401610830565b610cb16000601483516111689190613aa5565b839190611df7565b611178611c17565b81813060405160200161118d93929190613abc565b60408051601f1981840301815291815261ffff851660009081526001602090815291902082516111c293919290910190612f11565b506111d08361ffff16611f04565b7f8c0400cfe2d1199b1a725c78960bcc2a344d869b80590d0f2bd005db15a572ce83838360405161120393929190613a58565b60405180910390a1505050565b611218611c17565b600480546001600160a01b0319166001600160a01b0383169081179091556040519081527f5db758e995a17ec1ad84bdef7e8c3293a0bd6179bcce400dff5d4c3d87db726b906020015b60405180910390a150565b6040516001600160601b03193360601b1660208201526000908190819060019060340160408051601f19818403018152908290526112ba92918f908f908f908f908f908f90602001613add565b60405160208183030381529060405290507f00000000000000000000000000000000000000000000000000000000000000006001600160a01b03166340a7bb108e30848a8a8a6040518763ffffffff1660e01b8152600401611321969594939291906139de565b6040805180830381865afa15801561133d573d6000803e3d6000fd5b505050506040513d601f19601f820116820180604052508101906113619190613a34565b92509250509a509a98505050505050505050565b61137d611c17565b6040516332fb62e760e21b81526001600160a01b037f0000000000000000000000000000000000000000000000000000000000000000169063cbed8b9c906113d19088908890889088908890600401613b47565b600060405180830381600087803b1580156113eb57600080fd5b505af1158015610db8573d6000803e3d6000fd5b61ffff8a166000908152600760205260408082209051611422908c908c90613976565b90815260408051602092819003830190206001600160401b038b16600090815292529020549050806114ac5760405162461bcd60e51b815260206004820152602d60248201527f436f6d706f7361626c654f4654436f72653a206e6f206661696c6564206d657360448201526c7361676520746f20726574727960981b6064820152608401610830565b60008787878787876040516020016114c996959493929190613b75565b6040516020818303038152906040528051906020012090508181146115485760405162461bcd60e51b815260206004820152602f60248201527f436f6d706f7361626c654f4654436f72653a206661696c6564206d657373616760448201526e0ca40d0c2e6d040dad2e6dac2e8c6d608b1b6064820152608401610830565b61ffff8c1660009081526007602052604090819020905161156c908d908d90613976565b9081526040805191829003602090810183206001600160401b038d16600090815291529081205563147a7d7160e01b81526001600160a01b0387169063147a7d71906115cc908f908f908f908f908f908f908e908e908e90600401613bb2565b600060405180830381600087803b1580156115e657600080fd5b505af11580156115fa573d6000803e3d6000fd5b505050507f41ea88d75e53240e2c5ace3a3d7263efe6c8f4fe42c0e3ef269f71daef1001c88160405161162f91815260200190565b60405180910390a1505050505050505050505050565b61ffff861660009081526005602052604080822090516116689088908890613976565b90815260408051602092819003830190206001600160401b038716600090815292529020549050806116e85760405162461bcd60e51b815260206004820152602360248201527f4e6f6e626c6f636b696e674c7a4170703a206e6f2073746f726564206d65737360448201526261676560e81b6064820152608401610830565b8083836040516116f9929190613976565b6040518091039020146117585760405162461bcd60e51b815260206004820152602160248201527f4e6f6e626c6f636b696e674c7a4170703a20696e76616c6964207061796c6f616044820152601960fa1b6064820152608401610830565b61ffff8716600090815260056020526040808220905161177b9089908990613976565b90815260408051602092819003830181206001600160401b038916600090815290845282902093909355601f88018290048202830182019052868252611813918991899089908190840183828082843760009201919091525050604080516020601f8a018190048102820181019092528881528a935091508890889081908401838280828437600092019190915250611d1892505050565b7fc264d91f3adc5588250e1551f547752ca0cfa8f6b530d243b9f9f4cab10ea8e5878787878560405161184a959493929190613c1d565b60405180910390a150505050505050565b611863611c17565b600081116118ab5760405162461bcd60e51b81526020600482015260156024820152744c7a4170703a20696e76616c6964206d696e47617360581b6044820152606401610830565b61ffff83811660008181526002602090815260408083209487168084529482529182902085905581519283528201929092529081018290527f9d5c7c0b934da8fefa9c7760c98383778a12dfbfc0c3b3106518f43fb9508ac090606001611203565b61198e8c8c8c8c8080601f01602080910402602001604051908101604052809392919081815260200183838082843760009201919091525050604080516020601f8a018190048102820181019092528881528f93508e92508d918d918d918d91908d908d9081908401838280828437600092019190915250611f4992505050565b505050505050505050505050565b6119a4611c17565b6006805460ff19168215159081179091556040519081527f1584ad594a70cbe1e6515592e1272a987d922b097ead875069cebe8b40c004a490602001611262565b6119ed611c17565b61ffff83166000908152600160205260409020611a0b908383612f95565b507ffa41487ad5d6728f0b19276fa1eddc16558578f5109fc39d2dc33c3230470dab83838360405161120393929190613a58565b611a47611c17565b6001600160a01b038116611aac5760405162461bcd60e51b815260206004820152602660248201527f4f776e61626c653a206e6577206f776e657220697320746865207a65726f206160448201526564647265737360d01b6064820152608401610830565b611ab581611da7565b50565b604051633d7b2f6f60e21b815261ffff808616600483015284166024820152306044820152606481018290526060907f00000000000000000000000000000000000000000000000000000000000000006001600160a01b03169063f5ecbdbc90608401600060405180830381865afa158015611b38573d6000803e3d6000fd5b505050506040513d6000823e601f3d908101601f19168201604052611b609190810190613c9d565b95945050505050565b600080611bcc5a60966366ad5c8a60e01b89898989604051602401611b919493929190613cd1565b60408051601f198184030181529190526020810180516001600160e01b03166001600160e01b03199093169290921790915230929190612029565b9150915081610e9757610e9786868686856120b3565b60006001600160e01b03198216630a72677560e11b1480610a1257506301ffc9a760e01b6001600160e01b0319831614610a12565b6000546001600160a01b03163314610eb15760405162461bcd60e51b815260206004820181905260248201527f4f776e61626c653a2063616c6c6572206973206e6f7420746865206f776e65726044820152606401610830565b611c7f866000836000612150565b6000611c8d888888886121d0565b90506000808783604051602001611ca693929190613d0f565b6040516020818303038152906040529050611cc588828787873461239f565b886001600160a01b03168861ffff167f39a4c66499bcf4b56d79f0dde8ed7a9d4925a0df55825206b2b8531e202be0d08985604051611d05929190613d3c565b60405180910390a3505050505050505050565b602081015161ffff8116611d3757611d3285858585612537565b610a9a565b61ffff811660011415611d5057611d32858585856125c1565b60405162461bcd60e51b815260206004820152602660248201527f436f6d706f7361626c654f4654436f72653a20756e6b6e6f776e207061636b6560448201526574207479706560d01b6064820152608401610830565b600080546001600160a01b038381166001600160a01b0319831681178455604051919092169283917f8be0079c531659141344cd1fd0a4f28419497f9722a3daafe3b4186f6b6457e09190a35050565b606081611e0581601f613d5e565b1015611e445760405162461bcd60e51b815260206004820152600e60248201526d736c6963655f6f766572666c6f7760901b6044820152606401610830565b611e4e8284613d5e565b84511015611e925760405162461bcd60e51b8152602060048201526011602482015270736c6963655f6f75744f66426f756e647360781b6044820152606401610830565b606082158015611eb15760405191506000825260208201604052611efb565b6040519150601f8416801560200281840101858101878315602002848b0101015b81831015611eea578051835260209283019201611ed2565b5050858452601f01601f1916604052505b50949350505050565b611ab581604051602401611f1a91815260200190565b60408051601f198184030181529190526020810180516001600160e01b031663f82c50f160e01b1790526126d0565b611f5f89600183876001600160401b0316612150565b6000611f6d8b8b8b8b6121d0565b604080513360601b6001600160601b03191660208201528151601481830301815260348201909252919250600091611fb4916001918d9086908d908d908d90605401613d76565b6040516020818303038152906040529050611fd38b828787873461239f565b8b6001600160a01b03168b61ffff167f39a4c66499bcf4b56d79f0dde8ed7a9d4925a0df55825206b2b8531e202be0d08c85604051612013929190613d3c565b60405180910390a3505050505050505050505050565b6000606060008060008661ffff166001600160401b0381111561204e5761204e6133a5565b6040519080825280601f01601f191660200182016040528015612078576020820181803683370190505b50905060008087516020890160008d8df191503d92508683111561209a578692505b828152826000602083013e909890975095505050505050565b8180519060200120600560008761ffff1661ffff168152602001908152602001600020856040516120e49190613dde565b9081526040805191829003602090810183206001600160401b0388166000908152915220919091557fe183f33de2837795525b4792ca4cd60535bd77c53b7e7030060bfcf5734d6b0c906121419087908790879087908790613dfa565b60405180910390a15050505050565b60065460ff161561216c57612167848484846126f1565b6121ca565b8151156121ca5760405162461bcd60e51b815260206004820152602660248201527f4f4654436f72653a205f61646170746572506172616d73206d7573742062652060448201526532b6b83a3c9760d11b6064820152608401610830565b50505050565b60006001600160a01b038516331461223f5760405162461bcd60e51b815260206004820152602c60248201527f436f6d706f7361626c6550726f78794f46543a206f776e6572206973206e6f7460448201526b1039b2b7321031b0b63632b960a11b6064820152608401610830565b6040516370a0823160e01b81523060048201526000907f00000000000000000000000000000000000000000000000000000000000000006001600160a01b0316906370a0823190602401602060405180830381865afa1580156122a6573d6000803e3d6000fd5b505050506040513d601f19601f820116820180604052508101906122ca9190613a76565b90506123016001600160a01b037f0000000000000000000000000000000000000000000000000000000000000000168730866127d0565b6040516370a0823160e01b815230600482015281907f00000000000000000000000000000000000000000000000000000000000000006001600160a01b0316906370a0823190602401602060405180830381865afa158015612367573d6000803e3d6000fd5b505050506040513d601f19601f8201168201806040525081019061238b9190613a76565b6123959190613aa5565b9695505050505050565b61ffff8616600090815260016020526040812080546123bd9061393b565b80601f01602080910402602001604051908101604052809291908181526020018280546123e99061393b565b80156124365780601f1061240b57610100808354040283529160200191612436565b820191906000526020600020905b81548152906001019060200180831161241957829003601f168201915b505050505090508051600014156124a85760405162461bcd60e51b815260206004820152603060248201527f4c7a4170703a2064657374696e6174696f6e20636861696e206973206e6f742060448201526f61207472757374656420736f7572636560801b6064820152608401610830565b6124b387875161283b565b60405162c5803160e81b81526001600160a01b037f0000000000000000000000000000000000000000000000000000000000000000169063c580310090849061250a908b9086908c908c908c908c90600401613e58565b6000604051808303818588803b15801561252357600080fd5b505af115801561198e573d6000803e3d6000fd5b6000808280602001905181019061254e9190613eb2565b90935091506000905061256183826128ae565b905061256e878284612913565b9150806001600160a01b03168761ffff167fbf551ec93859b170f9b2141bd9298bf3f64322c6f7beb2543a0cb669834118bf846040516125b091815260200190565b60405180910390a350505050505050565b6000806000806000858060200190518101906125dd9190613f0b565b955095509550955095505060006125fe6000866128ae90919063ffffffff16565b905061260b8a8286612913565b9350806001600160a01b03168a61ffff167fbf551ec93859b170f9b2141bd9298bf3f64322c6f7beb2543a0cb669834118bf8660405161264d91815260200190565b60405180910390a36001600160a01b0381163b6126ab576040516001600160a01b03821681527f9aedf5fdba8716db3b6705ca00150643309995d4f818a249ed6dde6677e7792d9060200160405180910390a15050505050506121ca565b6126c48a8a8a89858989896001600160401b0316612a70565b50505050505050505050565b80516a636f6e736f6c652e6c6f67602083016000808483855afa5050505050565b60006126fc83612c32565b61ffff80871660009081526002602090815260408083209389168352929052908120549192509061272e908490613d5e565b9050600081116127805760405162461bcd60e51b815260206004820152601a60248201527f4c7a4170703a206d696e4761734c696d6974206e6f74207365740000000000006044820152606401610830565b80821015610e975760405162461bcd60e51b815260206004820152601b60248201527f4c7a4170703a20676173206c696d697420697320746f6f206c6f7700000000006044820152606401610830565b6040516001600160a01b03808516602483015283166044820152606481018290526121ca9085906323b872dd60e01b906084015b60408051601f198184030181529190526020810180516001600160e01b03166001600160e01b031990931692909217909152612c8e565b61ffff82166000908152600360205260409020548061285957506127105b808211156128a95760405162461bcd60e51b815260206004820181905260248201527f4c7a4170703a207061796c6f61642073697a6520697320746f6f206c617267656044820152606401610830565b505050565b60006128bb826014613d5e565b835110156129035760405162461bcd60e51b8152602060048201526015602482015274746f416464726573735f6f75744f66426f756e647360581b6044820152606401610830565b500160200151600160601b900490565b6040516370a0823160e01b81526001600160a01b03838116600483015260009182917f000000000000000000000000000000000000000000000000000000000000000016906370a0823190602401602060405180830381865afa15801561297e573d6000803e3d6000fd5b505050506040513d601f19601f820116820180604052508101906129a29190613a76565b90506129d86001600160a01b037f0000000000000000000000000000000000000000000000000000000000000000168585612d60565b6040516370a0823160e01b81526001600160a01b03858116600483015282917f0000000000000000000000000000000000000000000000000000000000000000909116906370a0823190602401602060405180830381865afa158015612a42573d6000803e3d6000fd5b505050506040513d601f19601f82011682018060405250810190612a669190613a76565b611b609190613aa5565b600080612ae083609663147a7d7160e01b8d8d8d8d8c8c604051602401612a9c96959493929190613fc3565b60408051601f198184030181529190526020810180516001600160e01b03166001600160e01b0319909316929092179091526001600160a01b038a16929190612029565b9150915081612bb45786868686604051602001612b00949392919061401b565b60408051601f19818403018152828252805160209182012061ffff8e16600090815260079092529190209091612b37908c90613dde565b9081526040805191829003602090810183206001600160401b038d166000908152915220919091556001600160a01b0387169061ffff8c16907f95c1ad3ef50dd05e668d7b80e9a723079395ac4867a4050552d5d9219e683d7490612ba7908d908d908d908c908c908a90614056565b60405180910390a36126c4565b600087878787604051602001612bcd949392919061401b565b6040516020818303038152906040528051906020012090508a61ffff167fb8890edbfc1c74692f527444645f95489c3703cc2df42e4a366f5d06fa6cd8848b8b84604051612c1d939291906140b8565b60405180910390a25050505050505050505050565b6000602282511015612c865760405162461bcd60e51b815260206004820152601c60248201527f4c7a4170703a20696e76616c69642061646170746572506172616d73000000006044820152606401610830565b506022015190565b6000612ce3826040518060400160405280602081526020017f5361666545524332303a206c6f772d6c6576656c2063616c6c206661696c6564815250856001600160a01b0316612d909092919063ffffffff16565b8051909150156128a95780806020019051810190612d0191906140e6565b6128a95760405162461bcd60e51b815260206004820152602a60248201527f5361666545524332303a204552433230206f7065726174696f6e20646964206e6044820152691bdd081cdd58d8d9595960b21b6064820152608401610830565b6040516001600160a01b0383166024820152604481018290526128a990849063a9059cbb60e01b90606401612804565b6060612d9f8484600085612da7565b949350505050565b606082471015612e085760405162461bcd60e51b815260206004820152602660248201527f416464726573733a20696e73756666696369656e742062616c616e636520666f6044820152651c8818d85b1b60d21b6064820152608401610830565b6001600160a01b0385163b612e5f5760405162461bcd60e51b815260206004820152601d60248201527f416464726573733a2063616c6c20746f206e6f6e2d636f6e74726163740000006044820152606401610830565b600080866001600160a01b03168587604051612e7b9190613dde565b60006040518083038185875af1925050503d8060008114612eb8576040519150601f19603f3d011682016040523d82523d6000602084013e612ebd565b606091505b5091509150612ecd828286612ed8565b979650505050505050565b60608315612ee7575081610cb1565b825115612ef75782518084602001fd5b8160405162461bcd60e51b81526004016108309190613510565b828054612f1d9061393b565b90600052602060002090601f016020900481019282612f3f5760008555612f85565b82601f10612f5857805160ff1916838001178555612f85565b82800160010185558215612f85579182015b82811115612f85578251825591602001919060010190612f6a565b50612f91929150613009565b5090565b828054612fa19061393b565b90600052602060002090601f016020900481019282612fc35760008555612f85565b82601f10612fdc5782800160ff19823516178555612f85565b82800160010185558215612f85579182015b82811115612f85578235825591602001919060010190612fee565b5b80821115612f91576000815560010161300a565b61ffff81168114611ab557600080fd5b80356130398161301e565b919050565b60008083601f84011261305057600080fd5b5081356001600160401b0381111561306757600080fd5b60208301915083602082850101111561307f57600080fd5b9250929050565b6001600160401b0381168114611ab557600080fd5b803561303981613086565b600080600080600080608087890312156130bf57600080fd5b86356130ca8161301e565b955060208701356001600160401b03808211156130e657600080fd5b6130f28a838b0161303e565b90975095506040890135915061310782613086565b9093506060880135908082111561311d57600080fd5b5061312a89828a0161303e565b979a9699509497509295939492505050565b60006020828403121561314e57600080fd5b81356001600160e01b031981168114610cb157600080fd5b60006020828403121561317857600080fd5b8135610cb18161301e565b6000806040838503121561319657600080fd5b82356131a18161301e565b946020939093013593505050565b8015158114611ab557600080fd5b8035613039816131af565b600080600080600080600060a0888a0312156131e357600080fd5b87356131ee8161301e565b965060208801356001600160401b038082111561320a57600080fd5b6132168b838c0161303e565b909850965060408a0135955060608a01359150613232826131af565b9093506080890135908082111561324857600080fd5b506132558a828b0161303e565b989b979a50959850939692959293505050565b60008060006040848603121561327d57600080fd5b83356132888161301e565b925060208401356001600160401b038111156132a357600080fd5b6132af8682870161303e565b9497909650939450505050565b6001600160a01b0381168114611ab557600080fd5b8035613039816132bc565b600080600080600080600080600060e08a8c0312156132fa57600080fd5b8935613305816132bc565b985060208a01356133158161301e565b975060408a01356001600160401b038082111561333157600080fd5b61333d8d838e0161303e565b909950975060608c0135965060808c01359150613359826132bc565b90945060a08b01359061336b826132bc565b90935060c08b0135908082111561338157600080fd5b5061338e8c828d0161303e565b915080935050809150509295985092959850929598565b634e487b7160e01b600052604160045260246000fd5b604051601f8201601f191681016001600160401b03811182821017156133e3576133e36133a5565b604052919050565b60006001600160401b03821115613404576134046133a5565b50601f01601f191660200190565b60008060006060848603121561342757600080fd5b83356134328161301e565b925060208401356001600160401b0381111561344d57600080fd5b8401601f8101861361345e57600080fd5b803561347161346c826133eb565b6133bb565b81815287602083850101111561348657600080fd5b8160208401602083013760006020838301015280945050505060408401356134ad81613086565b809150509250925092565b60005b838110156134d35781810151838201526020016134bb565b838111156121ca5750506000910152565b600081518084526134fc8160208601602086016134b8565b601f01601f19169290920160200192915050565b602081526000610cb160208301846134e4565b6000806040838503121561353657600080fd5b82356135418161301e565b915060208301356135518161301e565b809150509250929050565b60006020828403121561356e57600080fd5b8135610cb1816132bc565b60008060008060008060008060008060e08b8d03121561359857600080fd5b8a356135a38161301e565b995060208b01356001600160401b03808211156135bf57600080fd5b6135cb8e838f0161303e565b909b50995060408d0135985060608d01359150808211156135eb57600080fd5b6135f78e838f0161303e565b909850965060808d0135915061360c82613086565b81955061361b60a08e016131bd565b945060c08d013591508082111561363157600080fd5b5061363e8d828e0161303e565b915080935050809150509295989b9194979a5092959850565b60008060008060006080868803121561366f57600080fd5b853561367a8161301e565b9450602086013561368a8161301e565b93506040860135925060608601356001600160401b038111156136ac57600080fd5b6136b88882890161303e565b969995985093965092949392505050565b60008060008060008060008060008060e08b8d0312156136e857600080fd5b8a356136f38161301e565b995060208b01356001600160401b038082111561370f57600080fd5b61371b8e838f0161303e565b909b50995060408d0135915061373082613086565b90975060608c0135908082111561374657600080fd5b6137528e838f0161303e565b909850965086915061376660808e016132d1565b955060a08d0135945060c08d013591508082111561363157600080fd5b60008060006060848603121561379857600080fd5b83356137a38161301e565b925060208401356137b38161301e565b929592945050506040919091013590565b6000806000806000806000806000806000806101208d8f0312156137e757600080fd5b6137f08d6132d1565b9b506137fe60208e0161302e565b9a506001600160401b0360408e0135111561381857600080fd5b6138288e60408f01358f0161303e565b909a50985060608d013597506001600160401b0360808e0135111561384c57600080fd5b61385c8e60808f01358f0161303e565b909750955061386d60a08e0161309b565b945061387b60c08e016132d1565b935061388960e08e016132d1565b92506001600160401b036101008e013511156138a457600080fd5b6138b58e6101008f01358f0161303e565b81935080925050509295989b509295989b509295989b565b6000602082840312156138df57600080fd5b8135610cb1816131af565b6000806000806080858703121561390057600080fd5b843561390b8161301e565b9350602085013561391b8161301e565b9250604085013561392b816132bc565b9396929550929360600135925050565b600181811c9082168061394f57607f821691505b6020821081141561397057634e487b7160e01b600052602260045260246000fd5b50919050565b8183823760009101908152919050565b81835281816020850137506000828201602090810191909152601f909101601f19169091010190565b61ffff851681526060602082015260006139cd606083018587613986565b905082604083015295945050505050565b61ffff871681526001600160a01b038616602082015260a060408201819052600090613a0c908301876134e4565b85151560608401528281036080840152613a27818587613986565b9998505050505050505050565b60008060408385031215613a4757600080fd5b505080516020909101519092909150565b61ffff84168152604060208201526000611b60604083018486613986565b600060208284031215613a8857600080fd5b5051919050565b634e487b7160e01b600052601160045260246000fd5b600082821015613ab757613ab7613a8f565b500390565b8284823760609190911b6001600160601b0319169101908152601401919050565b61ffff8916815260c060208201526000613afa60c083018a6134e4565b8281036040840152613b0d81898b613986565b90508660608401528281036080840152613b28818688613986565b9150506001600160401b03831660a08301529998505050505050505050565b600061ffff808816835280871660208401525084604083015260806060830152612ecd608083018486613986565b608081526000613b8960808301888a613986565b6001600160a01b0387166020840152604083018690528281036060840152613a27818587613986565b61ffff8a16815260c060208201526000613bd060c083018a8c613986565b6001600160401b03891660408401528281036060840152613bf281888a613986565b905085608084015282810360a0840152613c0d818587613986565b9c9b505050505050505050505050565b61ffff86168152608060208201526000613c3b608083018688613986565b6001600160401b0394909416604083015250606001529392505050565b600082601f830112613c6957600080fd5b8151613c7761346c826133eb565b818152846020838601011115613c8c57600080fd5b612d9f8260208301602087016134b8565b600060208284031215613caf57600080fd5b81516001600160401b03811115613cc557600080fd5b612d9f84828501613c58565b61ffff85168152608060208201526000613cee60808301866134e4565b6001600160401b03851660408401528281036060840152612ecd81856134e4565b61ffff84168152606060208201526000613d2c60608301856134e4565b9050826040830152949350505050565b604081526000613d4f60408301856134e4565b90508260208301529392505050565b60008219821115613d7157613d71613a8f565b500190565b61ffff8816815260c060208201526000613d9360c08301896134e4565b8281036040840152613da581896134e4565b90508660608401528281036080840152613dc0818688613986565b9150506001600160401b03831660a083015298975050505050505050565b60008251613df08184602087016134b8565b9190910192915050565b61ffff8616815260a060208201526000613e1760a08301876134e4565b6001600160401b03861660408401528281036060840152613e3881866134e4565b90508281036080840152613e4c81856134e4565b98975050505050505050565b61ffff8716815260c060208201526000613e7560c08301886134e4565b8281036040840152613e8781886134e4565b6001600160a01b0387811660608601528616608085015283810360a08501529050613a2781856134e4565b600080600060608486031215613ec757600080fd5b8351613ed28161301e565b60208501519093506001600160401b03811115613eee57600080fd5b613efa86828701613c58565b925050604084015190509250925092565b60008060008060008060c08789031215613f2457600080fd5b8651613f2f8161301e565b60208801519096506001600160401b0380821115613f4c57600080fd5b613f588a838b01613c58565b96506040890151915080821115613f6e57600080fd5b613f7a8a838b01613c58565b9550606089015194506080890151915080821115613f9757600080fd5b50613fa489828a01613c58565b92505060a0870151613fb581613086565b809150509295509295509295565b61ffff8716815260c060208201526000613fe060c08301886134e4565b6001600160401b0387166040840152828103606084015261400181876134e4565b905084608084015282810360a0840152613a2781856134e4565b60808152600061402e60808301876134e4565b6001600160a01b0386166020840152604083018590528281036060840152612ecd81856134e4565b60c08152600061406960c08301896134e4565b6001600160401b0388166020840152828103604084015261408a81886134e4565b905085606084015282810360808401526140a481866134e4565b905082810360a0840152613a2781856134e4565b6060815260006140cb60608301866134e4565b6001600160401b039490941660208301525060400152919050565b6000602082840312156140f857600080fd5b8151610cb1816131af56fea26469706673582212205db25d27bf92e8a556e079d3fa9baeb22d7ee7b51125967f91b8e2b692550aeb64736f6c634300080c0033",
  "linkReferences": {},
  "deployedLinkReferences": {}
}