{
  "_format": "hh-sol-artifact-1",
  "contractName": "ProxyOFTV2",
  "sourceName": "contracts/token/oft/v2/ProxyOFTV2.sol",
  "abi": [
    {
      "inputs": [
        {
          "internalType": "address",
          "name": "_token",
          "type": "address"
        },
        {
          "internalType": "uint8",
          "name": "_sharedDecimals",
          "type": "uint8"
        },
        {
          "internalType": "address",
          "name": "_lzEndpoint",
          "type": "address"
        }
      ],
      "stateMutability": "nonpayable",
      "type": "constructor"
    },
    {
      "anonymous": false,
      "inputs": [
        {
          "indexed": true,
          "internalType": "uint16",
          "name": "_srcChainId",
          "type": "uint16"
        },
        {
          "indexed": false,
          "internalType": "bytes",
          "name": "_srcAddress",
          "type": "bytes"
        },
        {
          "indexed": false,
          "internalType": "uint64",
          "name": "_nonce",
          "type": "uint64"
        },
        {
          "indexed": false,
          "internalType": "bytes32",
          "name": "_hash",
          "type": "bytes32"
        }
      ],
      "name": "CallOFTReceivedSuccess",
      "type": "event"
    },
    {
      "anonymous": false,
      "inputs": [
        {
          "indexed": false,
          "internalType": "uint16",
          "name": "_srcChainId",
          "type": "uint16"
        },
        {
          "indexed": false,
          "internalType": "bytes",
          "name": "_srcAddress",
          "type": "bytes"
        },
        {
          "indexed": false,
          "internalType": "uint64",
          "name": "_nonce",
          "type": "uint64"
        },
        {
          "indexed": false,
          "internalType": "bytes",
          "name": "_payload",
          "type": "bytes"
        },
        {
          "indexed": false,
          "internalType": "bytes",
          "name": "_reason",
          "type": "bytes"
        }
      ],
      "name": "MessageFailed",
      "type": "event"
    },
    {
      "anonymous": false,
      "inputs": [
        {
          "indexed": false,
          "internalType": "address",
          "name": "_address",
          "type": "address"
        }
      ],
      "name": "NonContractAddress",
      "type": "event"
    },
    {
      "anonymous": false,
      "inputs": [
        {
          "indexed": true,
          "internalType": "address",
          "name": "previousOwner",
          "type": "address"
        },
        {
          "indexed": true,
          "internalType": "address",
          "name": "newOwner",
          "type": "address"
        }
      ],
      "name": "OwnershipTransferred",
      "type": "event"
    },
    {
      "anonymous": false,
      "inputs": [
        {
          "indexed": true,
          "internalType": "uint16",
          "name": "_srcChainId",
          "type": "uint16"
        },
        {
          "indexed": true,
          "internalType": "address",
          "name": "_to",
          "type": "address"
        },
        {
          "indexed": false,
          "internalType": "uint256",
          "name": "_amount",
          "type": "uint256"
        }
      ],
      "name": "ReceiveFromChain",
      "type": "event"
    },
    {
      "anonymous": false,
      "inputs": [
        {
          "indexed": false,
          "internalType": "uint16",
          "name": "_srcChainId",
          "type": "uint16"
        },
        {
          "indexed": false,
          "internalType": "bytes",
          "name": "_srcAddress",
          "type": "bytes"
        },
        {
          "indexed": false,
          "internalType": "uint64",
          "name": "_nonce",
          "type": "uint64"
        },
        {
          "indexed": false,
          "internalType": "bytes32",
          "name": "_payloadHash",
          "type": "bytes32"
        }
      ],
      "name": "RetryMessageSuccess",
      "type": "event"
    },
    {
      "anonymous": false,
      "inputs": [
        {
          "indexed": true,
          "internalType": "uint16",
          "name": "_dstChainId",
          "type": "uint16"
        },
        {
          "indexed": true,
          "internalType": "address",
          "name": "_from",
          "type": "address"
        },
        {
          "indexed": true,
          "internalType": "bytes32",
          "name": "_toAddress",
          "type": "bytes32"
        },
        {
          "indexed": false,
          "internalType": "uint256",
          "name": "_amount",
          "type": "uint256"
        }
      ],
      "name": "SendToChain",
      "type": "event"
    },
    {
      "anonymous": false,
      "inputs": [
        {
          "indexed": false,
          "internalType": "uint16",
          "name": "_dstChainId",
          "type": "uint16"
        },
        {
          "indexed": false,
          "internalType": "uint16",
          "name": "_type",
          "type": "uint16"
        },
        {
          "indexed": false,
          "internalType": "uint256",
          "name": "_minDstGas",
          "type": "uint256"
        }
      ],
      "name": "SetMinDstGas",
      "type": "event"
    },
    {
      "anonymous": false,
      "inputs": [
        {
          "indexed": false,
          "internalType": "address",
          "name": "precrime",
          "type": "address"
        }
      ],
      "name": "SetPrecrime",
      "type": "event"
    },
    {
      "anonymous": false,
      "inputs": [
        {
          "indexed": false,
          "internalType": "uint16",
          "name": "_remoteChainId",
          "type": "uint16"
        },
        {
          "indexed": false,
          "internalType": "bytes",
          "name": "_path",
          "type": "bytes"
        }
      ],
      "name": "SetTrustedRemote",
      "type": "event"
    },
    {
      "anonymous": false,
      "inputs": [
        {
          "indexed": false,
          "internalType": "uint16",
          "name": "_remoteChainId",
          "type": "uint16"
        },
        {
          "indexed": false,
          "internalType": "bytes",
          "name": "_remoteAddress",
          "type": "bytes"
        }
      ],
      "name": "SetTrustedRemoteAddress",
      "type": "event"
    },
    {
      "anonymous": false,
      "inputs": [
        {
          "indexed": false,
          "internalType": "bool",
          "name": "_useCustomAdapterParams",
          "type": "bool"
        }
      ],
      "name": "SetUseCustomAdapterParams",
      "type": "event"
    },
    {
      "inputs": [],
      "name": "DEFAULT_PAYLOAD_SIZE_LIMIT",
      "outputs": [
        {
          "internalType": "uint256",
          "name": "",
          "type": "uint256"
        }
      ],
      "stateMutability": "view",
      "type": "function"
    },
    {
      "inputs": [],
      "name": "NO_EXTRA_GAS",
      "outputs": [
        {
          "internalType": "uint256",
          "name": "",
          "type": "uint256"
        }
      ],
      "stateMutability": "view",
      "type": "function"
    },
    {
      "inputs": [],
      "name": "PT_SEND",
      "outputs": [
        {
          "internalType": "uint8",
          "name": "",
          "type": "uint8"
        }
      ],
      "stateMutability": "view",
      "type": "function"
    },
    {
      "inputs": [],
      "name": "PT_SEND_AND_CALL",
      "outputs": [
        {
          "internalType": "uint8",
          "name": "",
          "type": "uint8"
        }
      ],
      "stateMutability": "view",
      "type": "function"
    },
    {
      "inputs": [
        {
          "internalType": "uint16",
          "name": "_srcChainId",
          "type": "uint16"
        },
        {
          "internalType": "bytes",
          "name": "_srcAddress",
          "type": "bytes"
        },
        {
          "internalType": "uint64",
          "name": "_nonce",
          "type": "uint64"
        },
        {
          "internalType": "bytes32",
          "name": "_from",
          "type": "bytes32"
        },
        {
          "internalType": "address",
          "name": "_to",
          "type": "address"
        },
        {
          "internalType": "uint256",
          "name": "_amount",
          "type": "uint256"
        },
        {
          "internalType": "bytes",
          "name": "_payload",
          "type": "bytes"
        },
        {
          "internalType": "uint256",
          "name": "_gasForCall",
          "type": "uint256"
        }
      ],
      "name": "callOnOFTReceived",
      "outputs": [],
      "stateMutability": "nonpayable",
      "type": "function"
    },
    {
      "inputs": [],
      "name": "circulatingSupply",
      "outputs": [
        {
          "internalType": "uint256",
          "name": "",
          "type": "uint256"
        }
      ],
      "stateMutability": "view",
      "type": "function"
    },
    {
      "inputs": [
        {
          "internalType": "uint16",
          "name": "",
          "type": "uint16"
        },
        {
          "internalType": "bytes",
          "name": "",
          "type": "bytes"
        },
        {
          "internalType": "uint64",
          "name": "",
          "type": "uint64"
        }
      ],
      "name": "creditedPackets",
      "outputs": [
        {
          "internalType": "bool",
          "name": "",
          "type": "bool"
        }
      ],
      "stateMutability": "view",
      "type": "function"
    },
    {
      "inputs": [
        {
          "internalType": "uint16",
          "name": "_dstChainId",
          "type": "uint16"
        },
        {
          "internalType": "bytes32",
          "name": "_toAddress",
          "type": "bytes32"
        },
        {
          "internalType": "uint256",
          "name": "_amount",
          "type": "uint256"
        },
        {
          "internalType": "bytes",
          "name": "_payload",
          "type": "bytes"
        },
        {
          "internalType": "uint64",
          "name": "_dstGasForCall",
          "type": "uint64"
        },
        {
          "internalType": "bool",
          "name": "_useZro",
          "type": "bool"
        },
        {
          "internalType": "bytes",
          "name": "_adapterParams",
          "type": "bytes"
        }
      ],
      "name": "estimateSendAndCallFee",
      "outputs": [
        {
          "internalType": "uint256",
          "name": "nativeFee",
          "type": "uint256"
        },
        {
          "internalType": "uint256",
          "name": "zroFee",
          "type": "uint256"
        }
      ],
      "stateMutability": "view",
      "type": "function"
    },
    {
      "inputs": [
        {
          "internalType": "uint16",
          "name": "_dstChainId",
          "type": "uint16"
        },
        {
          "internalType": "bytes32",
          "name": "_toAddress",
          "type": "bytes32"
        },
        {
          "internalType": "uint256",
          "name": "_amount",
          "type": "uint256"
        },
        {
          "internalType": "bool",
          "name": "_useZro",
          "type": "bool"
        },
        {
          "internalType": "bytes",
          "name": "_adapterParams",
          "type": "bytes"
        }
      ],
      "name": "estimateSendFee",
      "outputs": [
        {
          "internalType": "uint256",
          "name": "nativeFee",
          "type": "uint256"
        },
        {
          "internalType": "uint256",
          "name": "zroFee",
          "type": "uint256"
        }
      ],
      "stateMutability": "view",
      "type": "function"
    },
    {
      "inputs": [
        {
          "internalType": "uint16",
          "name": "",
          "type": "uint16"
        },
        {
          "internalType": "bytes",
          "name": "",
          "type": "bytes"
        },
        {
          "internalType": "uint64",
          "name": "",
          "type": "uint64"
        }
      ],
      "name": "failedMessages",
      "outputs": [
        {
          "internalType": "bytes32",
          "name": "",
          "type": "bytes32"
        }
      ],
      "stateMutability": "view",
      "type": "function"
    },
    {
      "inputs": [
        {
          "internalType": "uint16",
          "name": "_srcChainId",
          "type": "uint16"
        },
        {
          "internalType": "bytes",
          "name": "_srcAddress",
          "type": "bytes"
        }
      ],
      "name": "forceResumeReceive",
      "outputs": [],
      "stateMutability": "nonpayable",
      "type": "function"
    },
    {
      "inputs": [
        {
          "internalType": "uint16",
          "name": "_version",
          "type": "uint16"
        },
        {
          "internalType": "uint16",
          "name": "_chainId",
          "type": "uint16"
        },
        {
          "internalType": "address",
          "name": "",
          "type": "address"
        },
        {
          "internalType": "uint256",
          "name": "_configType",
          "type": "uint256"
        }
      ],
      "name": "getConfig",
      "outputs": [
        {
          "internalType": "bytes",
          "name": "",
          "type": "bytes"
        }
      ],
      "stateMutability": "view",
      "type": "function"
    },
    {
      "inputs": [
        {
          "internalType": "uint16",
          "name": "_remoteChainId",
          "type": "uint16"
        }
      ],
      "name": "getTrustedRemoteAddress",
      "outputs": [
        {
          "internalType": "bytes",
          "name": "",
          "type": "bytes"
        }
      ],
      "stateMutability": "view",
      "type": "function"
    },
    {
      "inputs": [
        {
          "internalType": "uint16",
          "name": "_srcChainId",
          "type": "uint16"
        },
        {
          "internalType": "bytes",
          "name": "_srcAddress",
          "type": "bytes"
        }
      ],
      "name": "isTrustedRemote",
      "outputs": [
        {
          "internalType": "bool",
          "name": "",
          "type": "bool"
        }
      ],
      "stateMutability": "view",
      "type": "function"
    },
    {
      "inputs": [],
      "name": "lzEndpoint",
      "outputs": [
        {
          "internalType": "contract ILayerZeroEndpoint",
          "name": "",
          "type": "address"
        }
      ],
      "stateMutability": "view",
      "type": "function"
    },
    {
      "inputs": [
        {
          "internalType": "uint16",
          "name": "_srcChainId",
          "type": "uint16"
        },
        {
          "internalType": "bytes",
          "name": "_srcAddress",
          "type": "bytes"
        },
        {
          "internalType": "uint64",
          "name": "_nonce",
          "type": "uint64"
        },
        {
          "internalType": "bytes",
          "name": "_payload",
          "type": "bytes"
        }
      ],
      "name": "lzReceive",
      "outputs": [],
      "stateMutability": "nonpayable",
      "type": "function"
    },
    {
      "inputs": [
        {
          "internalType": "uint16",
          "name": "",
          "type": "uint16"
        },
        {
          "internalType": "uint16",
          "name": "",
          "type": "uint16"
        }
      ],
      "name": "minDstGasLookup",
      "outputs": [
        {
          "internalType": "uint256",
          "name": "",
          "type": "uint256"
        }
      ],
      "stateMutability": "view",
      "type": "function"
    },
    {
      "inputs": [
        {
          "internalType": "uint16",
          "name": "_srcChainId",
          "type": "uint16"
        },
        {
          "internalType": "bytes",
          "name": "_srcAddress",
          "type": "bytes"
        },
        {
          "internalType": "uint64",
          "name": "_nonce",
          "type": "uint64"
        },
        {
          "internalType": "bytes",
          "name": "_payload",
          "type": "bytes"
        }
      ],
      "name": "nonblockingLzReceive",
      "outputs": [],
      "stateMutability": "nonpayable",
      "type": "function"
    },
    {
      "inputs": [],
      "name": "outboundAmount",
      "outputs": [
        {
          "internalType": "uint256",
          "name": "",
          "type": "uint256"
        }
      ],
      "stateMutability": "view",
      "type": "function"
    },
    {
      "inputs": [],
      "name": "owner",
      "outputs": [
        {
          "internalType": "address",
          "name": "",
          "type": "address"
        }
      ],
      "stateMutability": "view",
      "type": "function"
    },
    {
      "inputs": [
        {
          "internalType": "uint16",
          "name": "",
          "type": "uint16"
        }
      ],
      "name": "payloadSizeLimitLookup",
      "outputs": [
        {
          "internalType": "uint256",
          "name": "",
          "type": "uint256"
        }
      ],
      "stateMutability": "view",
      "type": "function"
    },
    {
      "inputs": [],
      "name": "precrime",
      "outputs": [
        {
          "internalType": "address",
          "name": "",
          "type": "address"
        }
      ],
      "stateMutability": "view",
      "type": "function"
    },
    {
      "inputs": [],
      "name": "renounceOwnership",
      "outputs": [],
      "stateMutability": "nonpayable",
      "type": "function"
    },
    {
      "inputs": [
        {
          "internalType": "uint16",
          "name": "_srcChainId",
          "type": "uint16"
        },
        {
          "internalType": "bytes",
          "name": "_srcAddress",
          "type": "bytes"
        },
        {
          "internalType": "uint64",
          "name": "_nonce",
          "type": "uint64"
        },
        {
          "internalType": "bytes",
          "name": "_payload",
          "type": "bytes"
        }
      ],
      "name": "retryMessage",
      "outputs": [],
      "stateMutability": "payable",
      "type": "function"
    },
    {
      "inputs": [
        {
          "internalType": "address",
          "name": "_from",
          "type": "address"
        },
        {
          "internalType": "uint16",
          "name": "_dstChainId",
          "type": "uint16"
        },
        {
          "internalType": "bytes32",
          "name": "_toAddress",
          "type": "bytes32"
        },
        {
          "internalType": "uint256",
          "name": "_amount",
          "type": "uint256"
        },
        {
          "internalType": "bytes",
          "name": "_payload",
          "type": "bytes"
        },
        {
          "internalType": "uint64",
          "name": "_dstGasForCall",
          "type": "uint64"
        },
        {
          "components": [
            {
              "internalType": "address payable",
              "name": "refundAddress",
              "type": "address"
            },
            {
              "internalType": "address",
              "name": "zroPaymentAddress",
              "type": "address"
            },
            {
              "internalType": "bytes",
              "name": "adapterParams",
              "type": "bytes"
            }
          ],
          "internalType": "struct ICommonOFT.LzCallParams",
          "name": "_callParams",
          "type": "tuple"
        }
      ],
      "name": "sendAndCall",
      "outputs": [],
      "stateMutability": "payable",
      "type": "function"
    },
    {
      "inputs": [
        {
          "internalType": "address",
          "name": "_from",
          "type": "address"
        },
        {
          "internalType": "uint16",
          "name": "_dstChainId",
          "type": "uint16"
        },
        {
          "internalType": "bytes32",
          "name": "_toAddress",
          "type": "bytes32"
        },
        {
          "internalType": "uint256",
          "name": "_amount",
          "type": "uint256"
        },
        {
          "components": [
            {
              "internalType": "address payable",
              "name": "refundAddress",
              "type": "address"
            },
            {
              "internalType": "address",
              "name": "zroPaymentAddress",
              "type": "address"
            },
            {
              "internalType": "bytes",
              "name": "adapterParams",
              "type": "bytes"
            }
          ],
          "internalType": "struct ICommonOFT.LzCallParams",
          "name": "_callParams",
          "type": "tuple"
        }
      ],
      "name": "sendFrom",
      "outputs": [],
      "stateMutability": "payable",
      "type": "function"
    },
    {
      "inputs": [
        {
          "internalType": "uint16",
          "name": "_version",
          "type": "uint16"
        },
        {
          "internalType": "uint16",
          "name": "_chainId",
          "type": "uint16"
        },
        {
          "internalType": "uint256",
          "name": "_configType",
          "type": "uint256"
        },
        {
          "internalType": "bytes",
          "name": "_config",
          "type": "bytes"
        }
      ],
      "name": "setConfig",
      "outputs": [],
      "stateMutability": "nonpayable",
      "type": "function"
    },
    {
      "inputs": [
        {
          "internalType": "uint16",
          "name": "_dstChainId",
          "type": "uint16"
        },
        {
          "internalType": "uint16",
          "name": "_packetType",
          "type": "uint16"
        },
        {
          "internalType": "uint256",
          "name": "_minGas",
          "type": "uint256"
        }
      ],
      "name": "setMinDstGas",
      "outputs": [],
      "stateMutability": "nonpayable",
      "type": "function"
    },
    {
      "inputs": [
        {
          "internalType": "uint16",
          "name": "_dstChainId",
          "type": "uint16"
        },
        {
          "internalType": "uint256",
          "name": "_size",
          "type": "uint256"
        }
      ],
      "name": "setPayloadSizeLimit",
      "outputs": [],
      "stateMutability": "nonpayable",
      "type": "function"
    },
    {
      "inputs": [
        {
          "internalType": "address",
          "name": "_precrime",
          "type": "address"
        }
      ],
      "name": "setPrecrime",
      "outputs": [],
      "stateMutability": "nonpayable",
      "type": "function"
    },
    {
      "inputs": [
        {
          "internalType": "uint16",
          "name": "_version",
          "type": "uint16"
        }
      ],
      "name": "setReceiveVersion",
      "outputs": [],
      "stateMutability": "nonpayable",
      "type": "function"
    },
    {
      "inputs": [
        {
          "internalType": "uint16",
          "name": "_version",
          "type": "uint16"
        }
      ],
      "name": "setSendVersion",
      "outputs": [],
      "stateMutability": "nonpayable",
      "type": "function"
    },
    {
      "inputs": [
        {
          "internalType": "uint16",
          "name": "_srcChainId",
          "type": "uint16"
        },
        {
          "internalType": "bytes",
          "name": "_path",
          "type": "bytes"
        }
      ],
      "name": "setTrustedRemote",
      "outputs": [],
      "stateMutability": "nonpayable",
      "type": "function"
    },
    {
      "inputs": [
        {
          "internalType": "uint16",
          "name": "_remoteChainId",
          "type": "uint16"
        },
        {
          "internalType": "bytes",
          "name": "_remoteAddress",
          "type": "bytes"
        }
      ],
      "name": "setTrustedRemoteAddress",
      "outputs": [],
      "stateMutability": "nonpayable",
      "type": "function"
    },
    {
      "inputs": [
        {
          "internalType": "bool",
          "name": "_useCustomAdapterParams",
          "type": "bool"
        }
      ],
      "name": "setUseCustomAdapterParams",
      "outputs": [],
      "stateMutability": "nonpayable",
      "type": "function"
    },
    {
      "inputs": [],
      "name": "sharedDecimals",
      "outputs": [
        {
          "internalType": "uint8",
          "name": "",
          "type": "uint8"
        }
      ],
      "stateMutability": "view",
      "type": "function"
    },
    {
      "inputs": [
        {
          "internalType": "bytes4",
          "name": "interfaceId",
          "type": "bytes4"
        }
      ],
      "name": "supportsInterface",
      "outputs": [
        {
          "internalType": "bool",
          "name": "",
          "type": "bool"
        }
      ],
      "stateMutability": "view",
      "type": "function"
    },
    {
      "inputs": [],
      "name": "token",
      "outputs": [
        {
          "internalType": "address",
          "name": "",
          "type": "address"
        }
      ],
      "stateMutability": "view",
      "type": "function"
    },
    {
      "inputs": [
        {
          "internalType": "address",
          "name": "newOwner",
          "type": "address"
        }
      ],
      "name": "transferOwnership",
      "outputs": [],
      "stateMutability": "nonpayable",
      "type": "function"
    },
    {
      "inputs": [
        {
          "internalType": "uint16",
          "name": "",
          "type": "uint16"
        }
      ],
      "name": "trustedRemoteLookup",
      "outputs": [
        {
          "internalType": "bytes",
          "name": "",
          "type": "bytes"
        }
      ],
      "stateMutability": "view",
      "type": "function"
    },
    {
      "inputs": [],
      "name": "useCustomAdapterParams",
      "outputs": [
        {
          "internalType": "bool",
          "name": "",
          "type": "bool"
        }
      ],
      "stateMutability": "view",
      "type": "function"
    }
  ],
  "bytecode": "0x6101006040523480156200001257600080fd5b50604051620045203803806200452083398101604081905262000035916200027a565b8181818180806200004633620001fb565b6001600160a01b0390811660805260ff90931660a0525050851660c081905260408051600481526024810182526020810180516001600160e01b031663313ce56760e01b179052905160009450849350620000a29190620002c4565b600060405180830381855afa9150503d8060008114620000df576040519150601f19603f3d011682016040523d82523d6000602084013e620000e4565b606091505b5091509150816200014b5760405162461bcd60e51b815260206004820152602660248201527f50726f78794f46543a206661696c656420746f2067657420746f6b656e20646560448201526563696d616c7360d01b60648201526084015b60405180910390fd5b60008180602001905181019062000163919062000302565b90508060ff168560ff161115620001d25760405162461bcd60e51b815260206004820152602c60248201527f50726f78794f46543a20736861726564446563696d616c73206d75737420626560448201526b203c3d20646563696d616c7360a01b606482015260840162000142565b620001de85826200033d565b620001eb90600a62000462565b60e0525062000473945050505050565b600080546001600160a01b038381166001600160a01b0319831681178455604051919092169283917f8be0079c531659141344cd1fd0a4f28419497f9722a3daafe3b4186f6b6457e09190a35050565b80516001600160a01b03811681146200026357600080fd5b919050565b805160ff811681146200026357600080fd5b6000806000606084860312156200029057600080fd5b6200029b846200024b565b9250620002ab6020850162000268565b9150620002bb604085016200024b565b90509250925092565b6000825160005b81811015620002e75760208186018101518583015201620002cb565b81811115620002f7576000828501525b509190910192915050565b6000602082840312156200031557600080fd5b620003208262000268565b9392505050565b634e487b7160e01b600052601160045260246000fd5b600060ff821660ff8416808210156200035a576200035a62000327565b90039392505050565b600181815b80851115620003a457816000190482111562000388576200038862000327565b808516156200039657918102915b93841c939080029062000368565b509250929050565b600082620003bd575060016200045c565b81620003cc575060006200045c565b8160018114620003e55760028114620003f05762000410565b60019150506200045c565b60ff84111562000404576200040462000327565b50506001821b6200045c565b5060208310610133831016604e8410600b841016171562000435575081810a6200045c565b62000441838362000363565b806000190482111562000458576200045862000327565b0290505b92915050565b60006200032060ff841683620003ac565b60805160a05160c05160e051613ffc62000524600039600081816122a8015281816126a30152612b600152600081816107fa01528181610fd901528181611ff501528181612080015281816120b9015281816121020152612771015260006104d60152600081816106710152818161082101528181610aa701528181610b4f01528181610cc701528181611323015281816118c201528181611a7d01528181611efe01526129560152613ffc6000f3fe6080604052600436106102455760003560e01c80639358928b11610139578063cbed8b9c116100b6578063eaffd49a1161007a578063eaffd49a14610751578063eb8d72b714610771578063ed629c5c14610791578063f2fde38b146107ab578063f5ecbdbc146107cb578063fc0c546a146107eb57600080fd5b8063cbed8b9c146106c9578063d1deba1f146106e9578063df2a5b3b146106fc578063e6a20ae61461071c578063eab45d9c1461073157600080fd5b8063a4c51df5116100fd578063a4c51df51461061f578063a6c3d1651461063f578063b353aaa71461065f578063baf3292d14610693578063c4461834146106b357600080fd5b80639358928b14610562578063950c8a74146105775780639689cb05146105975780639bdb9812146105ad5780639f38369a146105ff57600080fd5b80634c42899a116101c75780637533d7881161018b5780637533d7881461048457806376203b48146104b1578063857749b0146104c45780638cfd8f5c146104f85780638da5cb5b1461053057600080fd5b80634c42899a146103c65780635b8c41e6146103ed57806366ad5c8a1461043c578063695ef6bf1461045c578063715018a61461046f57600080fd5b8063365260b41161020e578063365260b4146103015780633d8b38f6146103365780633f1f4fa41461035657806342d65a8d1461039157806344770515146103b157600080fd5b80621d35671461024a57806301ffc9a71461026c57806307e0db17146102a15780630df37483146102c157806310ddb137146102e1575b600080fd5b34801561025657600080fd5b5061026a6102653660046132bb565b61081e565b005b34801561027857600080fd5b5061028c61028736600461334e565b610a4f565b60405190151581526020015b60405180910390f35b3480156102ad57600080fd5b5061026a6102bc366004613378565b610a86565b3480156102cd57600080fd5b5061026a6102dc366004613393565b610b0f565b3480156102ed57600080fd5b5061026a6102fc366004613378565b610b2e565b34801561030d57600080fd5b5061032161031c3660046133cb565b610b86565b60408051928352602083019190915201610298565b34801561034257600080fd5b5061028c610351366004613432565b610bdb565b34801561036257600080fd5b50610383610371366004613378565b60036020526000908152604090205481565b604051908152602001610298565b34801561039d57600080fd5b5061026a6103ac366004613432565b610ca8565b3480156103bd57600080fd5b50610383600081565b3480156103d257600080fd5b506103db600081565b60405160ff9091168152602001610298565b3480156103f957600080fd5b506103836104083660046134f1565b6005602090815260009384526040808520845180860184018051928152908401958401959095209452929052825290205481565b34801561044857600080fd5b5061026a6104573660046132bb565b610d2e565b61026a61046a3660046135be565b610e0a565b34801561047b57600080fd5b5061026a610e75565b34801561049057600080fd5b506104a461049f366004613378565b610e89565b6040516102989190613689565b61026a6104bf36600461369c565b610f23565b3480156104d057600080fd5b506103db7f000000000000000000000000000000000000000000000000000000000000000081565b34801561050457600080fd5b5061038361051336600461374e565b600260209081526000928352604080842090915290825290205481565b34801561053c57600080fd5b506000546001600160a01b03165b6040516001600160a01b039091168152602001610298565b34801561056e57600080fd5b50610383610fd2565b34801561058357600080fd5b5060045461054a906001600160a01b031681565b3480156105a357600080fd5b5061038360085481565b3480156105b957600080fd5b5061028c6105c83660046134f1565b6007602090815260009384526040808520845180860184018051928152908401958401959095209452929052825290205460ff1681565b34801561060b57600080fd5b506104a461061a366004613378565b611068565b34801561062b57600080fd5b5061032161063a366004613781565b611178565b34801561064b57600080fd5b5061026a61065a366004613432565b611207565b34801561066b57600080fd5b5061054a7f000000000000000000000000000000000000000000000000000000000000000081565b34801561069f57600080fd5b5061026a6106ae36600461383e565b6112a7565b3480156106bf57600080fd5b5061038361271081565b3480156106d557600080fd5b5061026a6106e436600461385b565b611304565b61026a6106f73660046132bb565b61138e565b34801561070857600080fd5b5061026a6107173660046138c9565b6115a4565b34801561072857600080fd5b506103db600181565b34801561073d57600080fd5b5061026a61074c366004613905565b611656565b34801561075d57600080fd5b5061026a61076c366004613922565b61169f565b34801561077d57600080fd5b5061026a61078c366004613432565b6117be565b34801561079d57600080fd5b5060065461028c9060ff1681565b3480156107b757600080fd5b5061026a6107c636600461383e565b611818565b3480156107d757600080fd5b506104a46107e63660046139ea565b611891565b3480156107f757600080fd5b507f000000000000000000000000000000000000000000000000000000000000000061054a565b337f00000000000000000000000000000000000000000000000000000000000000006001600160a01b03161461089b5760405162461bcd60e51b815260206004820152601e60248201527f4c7a4170703a20696e76616c696420656e64706f696e742063616c6c6572000060448201526064015b60405180910390fd5b61ffff8616600090815260016020526040812080546108b990613a37565b80601f01602080910402602001604051908101604052809291908181526020018280546108e590613a37565b80156109325780601f1061090757610100808354040283529160200191610932565b820191906000526020600020905b81548152906001019060200180831161091557829003601f168201915b5050505050905080518686905014801561094d575060008151115b801561097557508051602082012060405161096b9088908890613a6c565b6040518091039020145b6109d05760405162461bcd60e51b815260206004820152602660248201527f4c7a4170703a20696e76616c696420736f757263652073656e64696e6720636f6044820152651b9d1c9858dd60d21b6064820152608401610892565b610a468787878080601f01602080910402602001604051908101604052809392919081815260200183838082843760009201919091525050604080516020601f8a018190048102820181019092528881528a93509150889088908190840183828082843760009201919091525061194292505050565b50505050505050565b60006001600160e01b03198216631f7ecdf760e01b1480610a8057506301ffc9a760e01b6001600160e01b03198316145b92915050565b610a8e6119bb565b6040516307e0db1760e01b815261ffff821660048201527f00000000000000000000000000000000000000000000000000000000000000006001600160a01b0316906307e0db17906024015b600060405180830381600087803b158015610af457600080fd5b505af1158015610b08573d6000803e3d6000fd5b5050505050565b610b176119bb565b61ffff909116600090815260036020526040902055565b610b366119bb565b6040516310ddb13760e01b815261ffff821660048201527f00000000000000000000000000000000000000000000000000000000000000006001600160a01b0316906310ddb13790602401610ada565b600080610bcc8888888888888080601f016020809104026020016040519081016040528093929190818152602001838380828437600092019190915250611a1592505050565b91509150965096945050505050565b61ffff831660009081526001602052604081208054829190610bfc90613a37565b80601f0160208091040260200160405190810160405280929190818152602001828054610c2890613a37565b8015610c755780601f10610c4a57610100808354040283529160200191610c75565b820191906000526020600020905b815481529060010190602001808311610c5857829003601f168201915b505050505090508383604051610c8c929190613a6c565b60405180910390208180519060200120149150505b9392505050565b610cb06119bb565b6040516342d65a8d60e01b81526001600160a01b037f000000000000000000000000000000000000000000000000000000000000000016906342d65a8d90610d0090869086908690600401613aa5565b600060405180830381600087803b158015610d1a57600080fd5b505af1158015610a46573d6000803e3d6000fd5b333014610d8c5760405162461bcd60e51b815260206004820152602660248201527f4e6f6e626c6f636b696e674c7a4170703a2063616c6c6572206d7573742062656044820152650204c7a4170760d41b6064820152608401610892565b610e028686868080601f01602080910402602001604051908101604052809392919081815260200183838082843760009201919091525050604080516020601f890181900481028201810190925287815289935091508790879081908401838280828437600092019190915250611b0992505050565b505050505050565b610e0285858585610e1e602087018761383e565b610e2e604088016020890161383e565b610e3b6040890189613ac3565b8080601f016020809104026020016040519081016040528093929190818152602001838380828437600092019190915250611b9092505050565b610e7d6119bb565b610e876000611c78565b565b60016020526000908152604090208054610ea290613a37565b80601f0160208091040260200160405190810160405280929190818152602001828054610ece90613a37565b8015610f1b5780601f10610ef057610100808354040283529160200191610f1b565b820191906000526020600020905b815481529060010190602001808311610efe57829003601f168201915b505050505081565b610fc78888888888888080601f0160208091040260200160405190810160405280939291908181526020018383808284376000920191909152508a9250610f70915050602089018961383e565b610f8060408a0160208b0161383e565b610f8d60408b018b613ac3565b8080601f016020809104026020016040519081016040528093929190818152602001838380828437600092019190915250611cc892505050565b505050505050505050565b60006008547f00000000000000000000000000000000000000000000000000000000000000006001600160a01b03166318160ddd6040518163ffffffff1660e01b8152600401602060405180830381865afa158015611035573d6000803e3d6000fd5b505050506040513d601f19601f820116820180604052508101906110599190613b09565b6110639190613b38565b905090565b61ffff811660009081526001602052604081208054606092919061108b90613a37565b80601f01602080910402602001604051908101604052809291908181526020018280546110b790613a37565b80156111045780601f106110d957610100808354040283529160200191611104565b820191906000526020600020905b8154815290600101906020018083116110e757829003601f168201915b5050505050905080516000141561115d5760405162461bcd60e51b815260206004820152601d60248201527f4c7a4170703a206e6f20747275737465642070617468207265636f72640000006044820152606401610892565b610ca16000601483516111709190613b38565b839190611dc4565b6000806111f58b8b8b8b8b8080601f01602080910402602001604051908101604052809392919081815260200183838082843760009201919091525050604080516020601f8d018190048102820181019092528b81528e93508d9250908c908c9081908401838280828437600092019190915250611ed192505050565b91509150995099975050505050505050565b61120f6119bb565b81813060405160200161122493929190613b4f565b60408051601f1981840301815291815261ffff8516600090815260016020908152919020825161125993919290910190613138565b506112678361ffff16611f8c565b7f8c0400cfe2d1199b1a725c78960bcc2a344d869b80590d0f2bd005db15a572ce83838360405161129a93929190613aa5565b60405180910390a1505050565b6112af6119bb565b600480546001600160a01b0319166001600160a01b0383169081179091556040519081527f5db758e995a17ec1ad84bdef7e8c3293a0bd6179bcce400dff5d4c3d87db726b906020015b60405180910390a150565b61130c6119bb565b6040516332fb62e760e21b81526001600160a01b037f0000000000000000000000000000000000000000000000000000000000000000169063cbed8b9c906113609088908890889088908890600401613b75565b600060405180830381600087803b15801561137a57600080fd5b505af1158015610fc7573d6000803e3d6000fd5b61ffff861660009081526005602052604080822090516113b19088908890613a6c565b90815260408051602092819003830190206001600160401b038716600090815292529020549050806114315760405162461bcd60e51b815260206004820152602360248201527f4e6f6e626c6f636b696e674c7a4170703a206e6f2073746f726564206d65737360448201526261676560e81b6064820152608401610892565b808383604051611442929190613a6c565b6040518091039020146114a15760405162461bcd60e51b815260206004820152602160248201527f4e6f6e626c6f636b696e674c7a4170703a20696e76616c6964207061796c6f616044820152601960fa1b6064820152608401610892565b61ffff871660009081526005602052604080822090516114c49089908990613a6c565b90815260408051602092819003830181206001600160401b038916600090815290845282902093909355601f8801829004820283018201905286825261155c918991899089908190840183828082843760009201919091525050604080516020601f8a018190048102820181019092528881528a935091508890889081908401838280828437600092019190915250611b0992505050565b7fc264d91f3adc5588250e1551f547752ca0cfa8f6b530d243b9f9f4cab10ea8e58787878785604051611593959493929190613ba3565b60405180910390a150505050505050565b6115ac6119bb565b600081116115f45760405162461bcd60e51b81526020600482015260156024820152744c7a4170703a20696e76616c6964206d696e47617360581b6044820152606401610892565b61ffff83811660008181526002602090815260408083209487168084529482529182902085905581519283528201929092529081018290527f9d5c7c0b934da8fefa9c7760c98383778a12dfbfc0c3b3106518f43fb9508ac09060600161129a565b61165e6119bb565b6006805460ff19168215159081179091556040519081527f1584ad594a70cbe1e6515592e1272a987d922b097ead875069cebe8b40c004a4906020016112f9565b3330146116ee5760405162461bcd60e51b815260206004820152601f60248201527f4f4654436f72653a2063616c6c6572206d757374206265204f4654436f7265006044820152606401610892565b6116f9308686611fd1565b9350846001600160a01b03168a61ffff167fbf551ec93859b170f9b2141bd9298bf3f64322c6f7beb2543a0cb669834118bf8660405161173b91815260200190565b60405180910390a3604051633fe79aed60e11b81526001600160a01b03861690637fcf35da90839061177f908e908e908e908e908e908d908d908d90600401613bde565b600060405180830381600088803b15801561179957600080fd5b5087f11580156117ad573d6000803e3d6000fd5b505050505050505050505050505050565b6117c66119bb565b61ffff831660009081526001602052604090206117e49083836131bc565b507ffa41487ad5d6728f0b19276fa1eddc16558578f5109fc39d2dc33c3230470dab83838360405161129a93929190613aa5565b6118206119bb565b6001600160a01b0381166118855760405162461bcd60e51b815260206004820152602660248201527f4f776e61626c653a206e6577206f776e657220697320746865207a65726f206160448201526564647265737360d01b6064820152608401610892565b61188e81611c78565b50565b604051633d7b2f6f60e21b815261ffff808616600483015284166024820152306044820152606481018290526060907f00000000000000000000000000000000000000000000000000000000000000006001600160a01b03169063f5ecbdbc90608401600060405180830381865afa158015611911573d6000803e3d6000fd5b505050506040513d6000823e601f3d908101601f191682016040526119399190810190613c39565b95945050505050565b6000806119a55a60966366ad5c8a60e01b8989898960405160240161196a9493929190613ca6565b60408051601f198184030181529190526020810180516001600160e01b03166001600160e01b03199093169290921790915230929190612179565b9150915081610e0257610e028686868685612203565b6000546001600160a01b03163314610e875760405162461bcd60e51b815260206004820181905260248201527f4f776e61626c653a2063616c6c6572206973206e6f7420746865206f776e65726044820152606401610892565b6000806000611a6387611a27886122a0565b6040805160006020820152602181019390935260c09190911b6001600160c01b0319166041830152805160298184030181526049909201905290565b60405163040a7bb160e41b81529091506001600160a01b037f000000000000000000000000000000000000000000000000000000000000000016906340a7bb1090611aba908b90309086908b908b90600401613ce4565b6040805180830381865afa158015611ad6573d6000803e3d6000fd5b505050506040513d601f19601f82011682018060405250810190611afa9190613d38565b92509250509550959350505050565b6000611b158282612326565b905060ff8116611b3057611b2b85858585612382565b610b08565b60ff811660011415611b4857611b2b85858585612412565b60405162461bcd60e51b815260206004820152601c60248201527f4f4654436f72653a20756e6b6e6f776e207061636b65742074797065000000006044820152606401610892565b6000611b9e87828481612621565b611ba78561269b565b509050611bb6888888846126db565b905060008111611c045760405162461bcd60e51b815260206004820152601960248201527813d19510dbdc994e88185b5bdd5b9d081d1bdbc81cdb585b1b603a1b6044820152606401610892565b6000611c1387611a27846122a0565b9050611c2388828787873461282c565b86896001600160a01b03168961ffff167fd81fc9b8523134ed613870ed029d6170cbb73aa6a6bc311b9a642689fb9df59a85604051611c6491815260200190565b60405180910390a450979650505050505050565b600080546001600160a01b038381166001600160a01b0319831681178455604051919092169283917f8be0079c531659141344cd1fd0a4f28419497f9722a3daafe3b4186f6b6457e09190a35050565b6000611ce0896001846001600160401b038916612621565b611ce98761269b565b509050611cf88a8a8a846126db565b905060008111611d465760405162461bcd60e51b815260206004820152601960248201527813d19510dbdc994e88185b5bdd5b9d081d1bdbc81cdb585b1b603a1b6044820152606401610892565b6000611d5d338a611d56856122a0565b8a8a6129d2565b9050611d6d8a828787873461282c565b888b6001600160a01b03168b61ffff167fd81fc9b8523134ed613870ed029d6170cbb73aa6a6bc311b9a642689fb9df59a85604051611dae91815260200190565b60405180910390a4509998505050505050505050565b606081611dd281601f613d5c565b1015611e115760405162461bcd60e51b815260206004820152600e60248201526d736c6963655f6f766572666c6f7760901b6044820152606401610892565b611e1b8284613d5c565b84511015611e5f5760405162461bcd60e51b8152602060048201526011602482015270736c6963655f6f75744f66426f756e647360781b6044820152606401610892565b606082158015611e7e5760405191506000825260208201604052611ec8565b6040519150601f8416801560200281840101858101878315602002848b0101015b81831015611eb7578051835260209283019201611e9f565b5050858452601f01601f1916604052505b50949350505050565b6000806000611ee4338a611d568b6122a0565b60405163040a7bb160e41b81529091506001600160a01b037f000000000000000000000000000000000000000000000000000000000000000016906340a7bb1090611f3b908d90309086908b908b90600401613ce4565b6040805180830381865afa158015611f57573d6000803e3d6000fd5b505050506040513d601f19601f82011682018060405250810190611f7b9190613d38565b925092505097509795505050505050565b61188e81604051602401611fa291815260200190565b60408051601f198184030181529190526020810180516001600160e01b031663f82c50f160e01b179052612a13565b6040516370a0823160e01b81526001600160a01b03838116600483015260009182917f000000000000000000000000000000000000000000000000000000000000000016906370a0823190602401602060405180830381865afa15801561203c573d6000803e3d6000fd5b505050506040513d601f19601f820116820180604052508101906120609190613b09565b90506001600160a01b0385163014156120ac576120a76001600160a01b037f0000000000000000000000000000000000000000000000000000000000000000168585612a34565b6120e1565b6120e16001600160a01b037f000000000000000000000000000000000000000000000000000000000000000016868686612a9c565b6040516370a0823160e01b81526001600160a01b03858116600483015282917f0000000000000000000000000000000000000000000000000000000000000000909116906370a0823190602401602060405180830381865afa15801561214b573d6000803e3d6000fd5b505050506040513d601f19601f8201168201806040525081019061216f9190613b09565b6119399190613b38565b6000606060008060008661ffff166001600160401b0381111561219e5761219e613484565b6040519080825280601f01601f1916602001820160405280156121c8576020820181803683370190505b50905060008087516020890160008d8df191503d9250868311156121ea578692505b828152826000602083013e909890975095505050505050565b8180519060200120600560008761ffff1661ffff168152602001908152602001600020856040516122349190613d74565b9081526040805191829003602090810183206001600160401b0388166000908152915220919091557fe183f33de2837795525b4792ca4cd60535bd77c53b7e7030060bfcf5734d6b0c906122919087908790879087908790613d90565b60405180910390a15050505050565b6000806122cd7f000000000000000000000000000000000000000000000000000000000000000084613df8565b90506001600160401b03811115610a805760405162461bcd60e51b815260206004820152601a60248201527f4f4654436f72653a20616d6f756e745344206f766572666c6f770000000000006044820152606401610892565b6000612333826001613d5c565b835110156123795760405162461bcd60e51b8152602060048201526013602482015272746f55696e74385f6f75744f66426f756e647360681b6044820152606401610892565b50016001015190565b60008061238e83612ad4565b90925090506001600160a01b0382166123a75761dead91505b60006123b282612b59565b90506123bf878483612b8e565b9050826001600160a01b03168761ffff167fbf551ec93859b170f9b2141bd9298bf3f64322c6f7beb2543a0cb669834118bf8360405161240191815260200190565b60405180910390a350505050505050565b600080600080600061242386612bd2565b945094509450945094506000600760008b61ffff1661ffff168152602001908152602001600020896040516124589190613d74565b90815260408051602092819003830190206001600160401b038b166000908152925281205460ff16915061248b85612b59565b9050816124f95761249d8b3083612b8e565b61ffff8c166000908152600760205260409081902090519192506001916124c5908d90613d74565b90815260408051602092819003830190206001600160401b038d16600090815292529020805460ff19169115159190911790555b6001600160a01b0386163b612550576040516001600160a01b03871681527f9aedf5fdba8716db3b6705ca00150643309995d4f818a249ed6dde6677e7792d9060200160405180910390a15050505050505061261b565b8a8a8a8a8a8a868a60008a61256e578b6001600160401b0316612570565b5a5b90506000806125a25a609663eaffd49a60e01b8e8e8e8d8d8d8d8d60405160240161196a989796959493929190613e0c565b9150915081156125fb578751602089012060405161ffff8d16907fb8890edbfc1c74692f527444645f95489c3703cc2df42e4a366f5d06fa6cd884906125ed908e908e908690613e80565b60405180910390a250612608565b6126088b8b8b8b85612203565b5050505050505050505050505050505050505b50505050565b60065460ff161561263d5761263884848484612c89565b61261b565b81511561261b5760405162461bcd60e51b815260206004820152602660248201527f4f4654436f72653a205f61646170746572506172616d73206d7573742062652060448201526532b6b83a3c9760d11b6064820152608401610892565b6000806126c87f000000000000000000000000000000000000000000000000000000000000000084613eae565b90506126d48184613b38565b9150915091565b60006001600160a01b03851633146127405760405162461bcd60e51b815260206004820152602260248201527f50726f78794f46543a206f776e6572206973206e6f742073656e642063616c6c60448201526132b960f11b6064820152608401610892565b61274b853084611fd1565b91506000806127598461269b565b90925090508015612798576127986001600160a01b037f0000000000000000000000000000000000000000000000000000000000000000168883612a34565b81600860008282546127aa9190613d5c565b90915550600090506127c26001600160401b03612b59565b90506008548110156128205760405162461bcd60e51b815260206004820152602160248201527f50726f78794f46543a206f7574626f756e64416d6f756e74206f766572666c6f6044820152607760f81b6064820152608401610892565b50909695505050505050565b61ffff86166000908152600160205260408120805461284a90613a37565b80601f016020809104026020016040519081016040528092919081815260200182805461287690613a37565b80156128c35780601f10612898576101008083540402835291602001916128c3565b820191906000526020600020905b8154815290600101906020018083116128a657829003601f168201915b505050505090508051600014156129355760405162461bcd60e51b815260206004820152603060248201527f4c7a4170703a2064657374696e6174696f6e20636861696e206973206e6f742060448201526f61207472757374656420736f7572636560801b6064820152608401610892565b612940878751612d68565b60405162c5803160e81b81526001600160a01b037f0000000000000000000000000000000000000000000000000000000000000000169063c5803100908490612997908b9086908c908c908c908c90600401613ec2565b6000604051808303818588803b1580156129b057600080fd5b505af11580156129c4573d6000803e3d6000fd5b505050505050505050505050565b6060600185856001600160a01b03891685876040516020016129f996959493929190613f29565b604051602081830303815290604052905095945050505050565b80516a636f6e736f6c652e6c6f67602083016000808483855afa5050505050565b6040516001600160a01b038316602482015260448101829052612a9790849063a9059cbb60e01b906064015b60408051601f198184030181529190526020810180516001600160e01b03166001600160e01b031990931692909217909152612dd6565b505050565b6040516001600160a01b038085166024830152831660448201526064810182905261261b9085906323b872dd60e01b90608401612a60565b60008080612ae28482612326565b60ff16148015612af3575082516029145b612b3a5760405162461bcd60e51b815260206004820152601860248201527713d19510dbdc994e881a5b9d985b1a59081c185e5b1bd85960421b6044820152606401610892565b612b4583600d612ea8565b9150612b52836021612f0d565b9050915091565b6000610a807f00000000000000000000000000000000000000000000000000000000000000006001600160401b038416613f8a565b60008160086000828254612ba29190613b38565b90915550506001600160a01b038316301415612bbf575080610ca1565b612bca308484611fd1565b949350505050565b600080806060816001612be58783612326565b60ff1614612c305760405162461bcd60e51b815260206004820152601860248201527713d19510dbdc994e881a5b9d985b1a59081c185e5b1bd85960421b6044820152606401610892565b612c3b86600d612ea8565b9350612c48866021612f0d565b9250612c55866029612f6a565b9450612c62866049612f0d565b9050612c7e6051808851612c769190613b38565b889190611dc4565b915091939590929450565b6000612c9483612fc8565b61ffff808716600090815260026020908152604080832093891683529290529081205491925090612cc6908490613d5c565b905060008111612d185760405162461bcd60e51b815260206004820152601a60248201527f4c7a4170703a206d696e4761734c696d6974206e6f74207365740000000000006044820152606401610892565b80821015610e025760405162461bcd60e51b815260206004820152601b60248201527f4c7a4170703a20676173206c696d697420697320746f6f206c6f7700000000006044820152606401610892565b61ffff821660009081526003602052604090205480612d8657506127105b80821115612a975760405162461bcd60e51b815260206004820181905260248201527f4c7a4170703a207061796c6f61642073697a6520697320746f6f206c617267656044820152606401610892565b6000612e2b826040518060400160405280602081526020017f5361666545524332303a206c6f772d6c6576656c2063616c6c206661696c6564815250856001600160a01b03166130249092919063ffffffff16565b805190915015612a975780806020019051810190612e499190613fa9565b612a975760405162461bcd60e51b815260206004820152602a60248201527f5361666545524332303a204552433230206f7065726174696f6e20646964206e6044820152691bdd081cdd58d8d9595960b21b6064820152608401610892565b6000612eb5826014613d5c565b83511015612efd5760405162461bcd60e51b8152602060048201526015602482015274746f416464726573735f6f75744f66426f756e647360581b6044820152606401610892565b500160200151600160601b900490565b6000612f1a826008613d5c565b83511015612f615760405162461bcd60e51b8152602060048201526014602482015273746f55696e7436345f6f75744f66426f756e647360601b6044820152606401610892565b50016008015190565b6000612f77826020613d5c565b83511015612fbf5760405162461bcd60e51b8152602060048201526015602482015274746f427974657333325f6f75744f66426f756e647360581b6044820152606401610892565b50016020015190565b600060228251101561301c5760405162461bcd60e51b815260206004820152601c60248201527f4c7a4170703a20696e76616c69642061646170746572506172616d73000000006044820152606401610892565b506022015190565b6060612bca8484600085856001600160a01b0385163b6130865760405162461bcd60e51b815260206004820152601d60248201527f416464726573733a2063616c6c20746f206e6f6e2d636f6e74726163740000006044820152606401610892565b600080866001600160a01b031685876040516130a29190613d74565b60006040518083038185875af1925050503d80600081146130df576040519150601f19603f3d011682016040523d82523d6000602084013e6130e4565b606091505b50915091506130f48282866130ff565b979650505050505050565b6060831561310e575081610ca1565b82511561311e5782518084602001fd5b8160405162461bcd60e51b81526004016108929190613689565b82805461314490613a37565b90600052602060002090601f01602090048101928261316657600085556131ac565b82601f1061317f57805160ff19168380011785556131ac565b828001600101855582156131ac579182015b828111156131ac578251825591602001919060010190613191565b506131b8929150613230565b5090565b8280546131c890613a37565b90600052602060002090601f0160209004810192826131ea57600085556131ac565b82601f106132035782800160ff198235161785556131ac565b828001600101855582156131ac579182015b828111156131ac578235825591602001919060010190613215565b5b808211156131b85760008155600101613231565b803561ffff8116811461325757600080fd5b919050565b60008083601f84011261326e57600080fd5b5081356001600160401b0381111561328557600080fd5b60208301915083602082850101111561329d57600080fd5b9250929050565b80356001600160401b038116811461325757600080fd5b600080600080600080608087890312156132d457600080fd5b6132dd87613245565b955060208701356001600160401b03808211156132f957600080fd5b6133058a838b0161325c565b909750955085915061331960408a016132a4565b9450606089013591508082111561332f57600080fd5b5061333c89828a0161325c565b979a9699509497509295939492505050565b60006020828403121561336057600080fd5b81356001600160e01b031981168114610ca157600080fd5b60006020828403121561338a57600080fd5b610ca182613245565b600080604083850312156133a657600080fd5b6133af83613245565b946020939093013593505050565b801515811461188e57600080fd5b60008060008060008060a087890312156133e457600080fd5b6133ed87613245565b95506020870135945060408701359350606087013561340b816133bd565b925060808701356001600160401b0381111561342657600080fd5b61333c89828a0161325c565b60008060006040848603121561344757600080fd5b61345084613245565b925060208401356001600160401b0381111561346b57600080fd5b6134778682870161325c565b9497909650939450505050565b634e487b7160e01b600052604160045260246000fd5b604051601f8201601f191681016001600160401b03811182821017156134c2576134c2613484565b604052919050565b60006001600160401b038211156134e3576134e3613484565b50601f01601f191660200190565b60008060006060848603121561350657600080fd5b61350f84613245565b925060208401356001600160401b0381111561352a57600080fd5b8401601f8101861361353b57600080fd5b803561354e613549826134ca565b61349a565b81815287602083850101111561356357600080fd5b81602084016020830137600060208383010152809450505050613588604085016132a4565b90509250925092565b6001600160a01b038116811461188e57600080fd5b6000606082840312156135b857600080fd5b50919050565b600080600080600060a086880312156135d657600080fd5b85356135e181613591565b94506135ef60208701613245565b9350604086013592506060860135915060808601356001600160401b0381111561361857600080fd5b613624888289016135a6565b9150509295509295909350565b60005b8381101561364c578181015183820152602001613634565b8381111561261b5750506000910152565b60008151808452613675816020860160208601613631565b601f01601f19169290920160200192915050565b602081526000610ca1602083018461365d565b60008060008060008060008060e0898b0312156136b857600080fd5b88356136c381613591565b97506136d160208a01613245565b9650604089013595506060890135945060808901356001600160401b03808211156136fb57600080fd5b6137078c838d0161325c565b909650945084915061371b60a08c016132a4565b935060c08b013591508082111561373157600080fd5b5061373e8b828c016135a6565b9150509295985092959890939650565b6000806040838503121561376157600080fd5b61376a83613245565b915061377860208401613245565b90509250929050565b600080600080600080600080600060e08a8c03121561379f57600080fd5b6137a88a613245565b985060208a0135975060408a0135965060608a01356001600160401b03808211156137d257600080fd5b6137de8d838e0161325c565b90985096508691506137f260808d016132a4565b955060a08c01359150613804826133bd565b90935060c08b0135908082111561381a57600080fd5b506138278c828d0161325c565b915080935050809150509295985092959850929598565b60006020828403121561385057600080fd5b8135610ca181613591565b60008060008060006080868803121561387357600080fd5b61387c86613245565b945061388a60208701613245565b93506040860135925060608601356001600160401b038111156138ac57600080fd5b6138b88882890161325c565b969995985093965092949392505050565b6000806000606084860312156138de57600080fd5b6138e784613245565b92506138f560208501613245565b9150604084013590509250925092565b60006020828403121561391757600080fd5b8135610ca1816133bd565b6000806000806000806000806000806101008b8d03121561394257600080fd5b61394b8b613245565b995060208b01356001600160401b038082111561396757600080fd5b6139738e838f0161325c565b909b50995089915061398760408e016132a4565b985060608d0135975060808d013591506139a082613591565b90955060a08c0135945060c08c013590808211156139bd57600080fd5b506139ca8d828e0161325c565b9150809450508092505060e08b013590509295989b9194979a5092959850565b60008060008060808587031215613a0057600080fd5b613a0985613245565b9350613a1760208601613245565b92506040850135613a2781613591565b9396929550929360600135925050565b600181811c90821680613a4b57607f821691505b602082108114156135b857634e487b7160e01b600052602260045260246000fd5b8183823760009101908152919050565b81835281816020850137506000828201602090810191909152601f909101601f19169091010190565b61ffff84168152604060208201526000611939604083018486613a7c565b6000808335601e19843603018112613ada57600080fd5b8301803591506001600160401b03821115613af457600080fd5b60200191503681900382131561329d57600080fd5b600060208284031215613b1b57600080fd5b5051919050565b634e487b7160e01b600052601160045260246000fd5b600082821015613b4a57613b4a613b22565b500390565b8284823760609190911b6bffffffffffffffffffffffff19169101908152601401919050565b600061ffff8088168352808716602084015250846040830152608060608301526130f4608083018486613a7c565b61ffff86168152608060208201526000613bc1608083018688613a7c565b6001600160401b0394909416604083015250606001529392505050565b61ffff8916815260c060208201526000613bfc60c08301898b613a7c565b6001600160401b038816604084015286606084015285608084015282810360a0840152613c2a818587613a7c565b9b9a5050505050505050505050565b600060208284031215613c4b57600080fd5b81516001600160401b03811115613c6157600080fd5b8201601f81018413613c7257600080fd5b8051613c80613549826134ca565b818152856020838501011115613c9557600080fd5b611939826020830160208601613631565b61ffff85168152608060208201526000613cc3608083018661365d565b6001600160401b038516604084015282810360608401526130f4818561365d565b61ffff861681526001600160a01b038516602082015260a060408201819052600090613d129083018661365d565b84151560608401528281036080840152613d2c818561365d565b98975050505050505050565b60008060408385031215613d4b57600080fd5b505080516020909101519092909150565b60008219821115613d6f57613d6f613b22565b500190565b60008251613d86818460208701613631565b9190910192915050565b61ffff8616815260a060208201526000613dad60a083018761365d565b6001600160401b03861660408401528281036060840152613dce818661365d565b90508281036080840152613d2c818561365d565b634e487b7160e01b600052601260045260246000fd5b600082613e0757613e07613de2565b500490565b600061010061ffff8b168352806020840152613e2a8184018b61365d565b6001600160401b038a166040850152606084018990526001600160a01b038816608085015260a0840187905283810360c08501529050613e6a818661365d565b9150508260e08301529998505050505050505050565b606081526000613e93606083018661365d565b6001600160401b039490941660208301525060400152919050565b600082613ebd57613ebd613de2565b500690565b61ffff8716815260c060208201526000613edf60c083018861365d565b8281036040840152613ef1818861365d565b6001600160a01b0387811660608601528616608085015283810360a08501529050613f1c818561365d565b9998505050505050505050565b60ff60f81b8760f81b16815285600182015260006001600160401b0360c01b808760c01b166021840152856029840152808560c01b166049840152508251613f78816051850160208701613631565b91909101605101979650505050505050565b6000816000190483118215151615613fa457613fa4613b22565b500290565b600060208284031215613fbb57600080fd5b8151610ca1816133bd56fea26469706673582212209b5515df83beb51f4bc488ffc2cbdc7d59c4f4a453af8abafc4129a4e6c899f364736f6c634300080c0033",
  "linkReferences": {},
  "deployedLinkReferences": {}
}