{
  "_format": "hh-sol-artifact-1",
  "contractName": "MozaicVault",
  "sourceName": "contracts/mContracts/MozaicVault.sol",
  "abi": [
    {
      "inputs": [
        {
          "internalType": "address",
          "name": "_lzEndpoint",
          "type": "address"
        },
        {
          "internalType": "bool",
          "name": "_isMain",
          "type": "bool"
        }
      ],
      "stateMutability": "nonpayable",
      "type": "constructor"
    },
    {
      "anonymous": false,
      "inputs": [
        {
          "indexed": true,
          "internalType": "address",
          "name": "at",
          "type": "address"
        },
        {
          "indexed": true,
          "internalType": "address",
          "name": "lzPoint",
          "type": "address"
        }
      ],
      "name": "Deployed",
      "type": "event"
    },
    {
      "anonymous": false,
      "inputs": [
        {
          "indexed": false,
          "internalType": "uint16",
          "name": "_srcChainId",
          "type": "uint16"
        },
        {
          "indexed": false,
          "internalType": "bytes",
          "name": "_srcAddress",
          "type": "bytes"
        },
        {
          "indexed": false,
          "internalType": "uint64",
          "name": "_nonce",
          "type": "uint64"
        },
        {
          "indexed": false,
          "internalType": "bytes",
          "name": "_payload",
          "type": "bytes"
        },
        {
          "indexed": false,
          "internalType": "bytes",
          "name": "_reason",
          "type": "bytes"
        }
      ],
      "name": "MessageFailed",
      "type": "event"
    },
    {
      "anonymous": false,
      "inputs": [
        {
          "indexed": true,
          "internalType": "address",
          "name": "previousOwner",
          "type": "address"
        },
        {
          "indexed": true,
          "internalType": "address",
          "name": "newOwner",
          "type": "address"
        }
      ],
      "name": "OwnershipTransferred",
      "type": "event"
    },
    {
      "anonymous": false,
      "inputs": [
        {
          "indexed": false,
          "internalType": "uint16",
          "name": "_srcChainId",
          "type": "uint16"
        },
        {
          "indexed": false,
          "internalType": "bytes",
          "name": "_srcAddress",
          "type": "bytes"
        },
        {
          "indexed": false,
          "internalType": "uint64",
          "name": "_nonce",
          "type": "uint64"
        },
        {
          "indexed": false,
          "internalType": "bytes32",
          "name": "_payloadHash",
          "type": "bytes32"
        }
      ],
      "name": "RetryMessageSuccess",
      "type": "event"
    },
    {
      "anonymous": false,
      "inputs": [
        {
          "indexed": false,
          "internalType": "uint16",
          "name": "_dstChainId",
          "type": "uint16"
        },
        {
          "indexed": false,
          "internalType": "uint16",
          "name": "_type",
          "type": "uint16"
        },
        {
          "indexed": false,
          "internalType": "uint256",
          "name": "_minDstGas",
          "type": "uint256"
        }
      ],
      "name": "SetMinDstGas",
      "type": "event"
    },
    {
      "anonymous": false,
      "inputs": [
        {
          "indexed": false,
          "internalType": "address",
          "name": "precrime",
          "type": "address"
        }
      ],
      "name": "SetPrecrime",
      "type": "event"
    },
    {
      "anonymous": false,
      "inputs": [
        {
          "indexed": false,
          "internalType": "uint16",
          "name": "_remoteChainId",
          "type": "uint16"
        },
        {
          "indexed": false,
          "internalType": "bytes",
          "name": "_path",
          "type": "bytes"
        }
      ],
      "name": "SetTrustedRemote",
      "type": "event"
    },
    {
      "anonymous": false,
      "inputs": [
        {
          "indexed": false,
          "internalType": "uint16",
          "name": "_remoteChainId",
          "type": "uint16"
        },
        {
          "indexed": false,
          "internalType": "bytes",
          "name": "_remoteAddress",
          "type": "bytes"
        }
      ],
      "name": "SetTrustedRemoteAddress",
      "type": "event"
    },
    {
      "inputs": [],
      "name": "DEFAULT_PAYLOAD_SIZE_LIMIT",
      "outputs": [
        {
          "internalType": "uint256",
          "name": "",
          "type": "uint256"
        }
      ],
      "stateMutability": "view",
      "type": "function"
    },
    {
      "inputs": [
        {
          "internalType": "uint16",
          "name": "",
          "type": "uint16"
        },
        {
          "internalType": "bytes",
          "name": "",
          "type": "bytes"
        },
        {
          "internalType": "uint64",
          "name": "",
          "type": "uint64"
        }
      ],
      "name": "failedMessages",
      "outputs": [
        {
          "internalType": "bytes32",
          "name": "",
          "type": "bytes32"
        }
      ],
      "stateMutability": "view",
      "type": "function"
    },
    {
      "inputs": [
        {
          "internalType": "uint16",
          "name": "_srcChainId",
          "type": "uint16"
        },
        {
          "internalType": "bytes",
          "name": "_srcAddress",
          "type": "bytes"
        }
      ],
      "name": "forceResumeReceive",
      "outputs": [],
      "stateMutability": "nonpayable",
      "type": "function"
    },
    {
      "inputs": [
        {
          "internalType": "uint16",
          "name": "_version",
          "type": "uint16"
        },
        {
          "internalType": "uint16",
          "name": "_chainId",
          "type": "uint16"
        },
        {
          "internalType": "address",
          "name": "",
          "type": "address"
        },
        {
          "internalType": "uint256",
          "name": "_configType",
          "type": "uint256"
        }
      ],
      "name": "getConfig",
      "outputs": [
        {
          "internalType": "bytes",
          "name": "",
          "type": "bytes"
        }
      ],
      "stateMutability": "view",
      "type": "function"
    },
    {
      "inputs": [
        {
          "internalType": "uint16",
          "name": "_remoteChainId",
          "type": "uint16"
        }
      ],
      "name": "getTrustedRemoteAddress",
      "outputs": [
        {
          "internalType": "bytes",
          "name": "",
          "type": "bytes"
        }
      ],
      "stateMutability": "view",
      "type": "function"
    },
    {
      "inputs": [],
      "name": "isMain",
      "outputs": [
        {
          "internalType": "bool",
          "name": "",
          "type": "bool"
        }
      ],
      "stateMutability": "view",
      "type": "function"
    },
    {
      "inputs": [
        {
          "internalType": "uint16",
          "name": "_srcChainId",
          "type": "uint16"
        },
        {
          "internalType": "bytes",
          "name": "_srcAddress",
          "type": "bytes"
        }
      ],
      "name": "isTrustedRemote",
      "outputs": [
        {
          "internalType": "bool",
          "name": "",
          "type": "bool"
        }
      ],
      "stateMutability": "view",
      "type": "function"
    },
    {
      "inputs": [],
      "name": "lzEndpoint",
      "outputs": [
        {
          "internalType": "contract ILayerZeroEndpoint",
          "name": "",
          "type": "address"
        }
      ],
      "stateMutability": "view",
      "type": "function"
    },
    {
      "inputs": [
        {
          "internalType": "uint16",
          "name": "_srcChainId",
          "type": "uint16"
        },
        {
          "internalType": "bytes",
          "name": "_srcAddress",
          "type": "bytes"
        },
        {
          "internalType": "uint64",
          "name": "_nonce",
          "type": "uint64"
        },
        {
          "internalType": "bytes",
          "name": "_payload",
          "type": "bytes"
        }
      ],
      "name": "lzReceive",
      "outputs": [],
      "stateMutability": "nonpayable",
      "type": "function"
    },
    {
      "inputs": [
        {
          "internalType": "uint16",
          "name": "",
          "type": "uint16"
        },
        {
          "internalType": "uint16",
          "name": "",
          "type": "uint16"
        }
      ],
      "name": "minDstGasLookup",
      "outputs": [
        {
          "internalType": "uint256",
          "name": "",
          "type": "uint256"
        }
      ],
      "stateMutability": "view",
      "type": "function"
    },
    {
      "inputs": [
        {
          "internalType": "uint16",
          "name": "_srcChainId",
          "type": "uint16"
        },
        {
          "internalType": "bytes",
          "name": "_srcAddress",
          "type": "bytes"
        },
        {
          "internalType": "uint64",
          "name": "_nonce",
          "type": "uint64"
        },
        {
          "internalType": "bytes",
          "name": "_payload",
          "type": "bytes"
        }
      ],
      "name": "nonblockingLzReceive",
      "outputs": [],
      "stateMutability": "nonpayable",
      "type": "function"
    },
    {
      "inputs": [],
      "name": "owner",
      "outputs": [
        {
          "internalType": "address",
          "name": "",
          "type": "address"
        }
      ],
      "stateMutability": "view",
      "type": "function"
    },
    {
      "inputs": [
        {
          "internalType": "uint16",
          "name": "",
          "type": "uint16"
        }
      ],
      "name": "payloadSizeLimitLookup",
      "outputs": [
        {
          "internalType": "uint256",
          "name": "",
          "type": "uint256"
        }
      ],
      "stateMutability": "view",
      "type": "function"
    },
    {
      "inputs": [],
      "name": "precrime",
      "outputs": [
        {
          "internalType": "address",
          "name": "",
          "type": "address"
        }
      ],
      "stateMutability": "view",
      "type": "function"
    },
    {
      "inputs": [],
      "name": "renounceOwnership",
      "outputs": [],
      "stateMutability": "nonpayable",
      "type": "function"
    },
    {
      "inputs": [
        {
          "internalType": "uint16",
          "name": "_srcChainId",
          "type": "uint16"
        },
        {
          "internalType": "bytes",
          "name": "_srcAddress",
          "type": "bytes"
        },
        {
          "internalType": "uint64",
          "name": "_nonce",
          "type": "uint64"
        },
        {
          "internalType": "bytes",
          "name": "_payload",
          "type": "bytes"
        }
      ],
      "name": "retryMessage",
      "outputs": [],
      "stateMutability": "payable",
      "type": "function"
    },
    {
      "inputs": [
        {
          "internalType": "uint16",
          "name": "_version",
          "type": "uint16"
        },
        {
          "internalType": "uint16",
          "name": "_chainId",
          "type": "uint16"
        },
        {
          "internalType": "uint256",
          "name": "_configType",
          "type": "uint256"
        },
        {
          "internalType": "bytes",
          "name": "_config",
          "type": "bytes"
        }
      ],
      "name": "setConfig",
      "outputs": [],
      "stateMutability": "nonpayable",
      "type": "function"
    },
    {
      "inputs": [
        {
          "internalType": "uint16",
          "name": "_dstChainId",
          "type": "uint16"
        },
        {
          "internalType": "uint16",
          "name": "_packetType",
          "type": "uint16"
        },
        {
          "internalType": "uint256",
          "name": "_minGas",
          "type": "uint256"
        }
      ],
      "name": "setMinDstGas",
      "outputs": [],
      "stateMutability": "nonpayable",
      "type": "function"
    },
    {
      "inputs": [
        {
          "internalType": "uint16",
          "name": "_dstChainId",
          "type": "uint16"
        },
        {
          "internalType": "uint256",
          "name": "_size",
          "type": "uint256"
        }
      ],
      "name": "setPayloadSizeLimit",
      "outputs": [],
      "stateMutability": "nonpayable",
      "type": "function"
    },
    {
      "inputs": [
        {
          "internalType": "address",
          "name": "_precrime",
          "type": "address"
        }
      ],
      "name": "setPrecrime",
      "outputs": [],
      "stateMutability": "nonpayable",
      "type": "function"
    },
    {
      "inputs": [
        {
          "internalType": "uint16",
          "name": "_version",
          "type": "uint16"
        }
      ],
      "name": "setReceiveVersion",
      "outputs": [],
      "stateMutability": "nonpayable",
      "type": "function"
    },
    {
      "inputs": [
        {
          "internalType": "uint16",
          "name": "_version",
          "type": "uint16"
        }
      ],
      "name": "setSendVersion",
      "outputs": [],
      "stateMutability": "nonpayable",
      "type": "function"
    },
    {
      "inputs": [
        {
          "internalType": "uint16",
          "name": "_srcChainId",
          "type": "uint16"
        },
        {
          "internalType": "bytes",
          "name": "_path",
          "type": "bytes"
        }
      ],
      "name": "setTrustedRemote",
      "outputs": [],
      "stateMutability": "nonpayable",
      "type": "function"
    },
    {
      "inputs": [
        {
          "internalType": "uint16",
          "name": "_remoteChainId",
          "type": "uint16"
        },
        {
          "internalType": "bytes",
          "name": "_remoteAddress",
          "type": "bytes"
        }
      ],
      "name": "setTrustedRemoteAddress",
      "outputs": [],
      "stateMutability": "nonpayable",
      "type": "function"
    },
    {
      "inputs": [
        {
          "internalType": "address",
          "name": "newOwner",
          "type": "address"
        }
      ],
      "name": "transferOwnership",
      "outputs": [],
      "stateMutability": "nonpayable",
      "type": "function"
    },
    {
      "inputs": [
        {
          "internalType": "uint16",
          "name": "",
          "type": "uint16"
        }
      ],
      "name": "trustedRemoteLookup",
      "outputs": [
        {
          "internalType": "bytes",
          "name": "",
          "type": "bytes"
        }
      ],
      "stateMutability": "view",
      "type": "function"
    },
    {
      "stateMutability": "payable",
      "type": "receive"
    }
  ],
  "bytecode": "0x60a06040523480156200001157600080fd5b5060405162001fdc38038062001fdc8339810160408190526200003491620000e5565b8180620000413362000095565b6001600160a01b039081166080526006805460ff1916841515179055604051908416915030907f09e48df7857bd0c1e0d31bb8a85d42cf1874817895f171c917f6ee2cea73ec2090600090a3505062000133565b600080546001600160a01b038381166001600160a01b0319831681178455604051919092169283917f8be0079c531659141344cd1fd0a4f28419497f9722a3daafe3b4186f6b6457e09190a35050565b60008060408385031215620000f957600080fd5b82516001600160a01b03811681146200011157600080fd5b602084015190925080151581146200012857600080fd5b809150509250929050565b608051611e63620001796000396000818161044901528181610557015281816107a60152818161084e0152818161097001528181610d9301526111d50152611e636000f3fe6080604052600436106101845760003560e01c80638da5cb5b116100d1578063c44618341161008a578063df2a5b3b11610064578063df2a5b3b146104d4578063eb8d72b7146104f4578063f2fde38b14610514578063f5ecbdbc1461053457600080fd5b8063c44618341461048b578063cbed8b9c146104a1578063d1deba1f146104c157600080fd5b80638da5cb5b146103a5578063950c8a74146103d75780639f38369a146103f7578063a6c3d16514610417578063b353aaa714610437578063baf3292d1461046b57600080fd5b806342d65a8d1161013e57806366ad5c8a1161011857806366ad5c8a1461030b578063715018a61461032b5780637533d788146103405780638cfd8f5c1461036d57600080fd5b806342d65a8d146102825780635b8c41e6146102a2578063604269d1146102f157600080fd5b80621d35671461019057806307e0db17146101b25780630df37483146101d257806310ddb137146101f25780633d8b38f6146102125780633f1f4fa41461024757600080fd5b3661018b57005b600080fd5b34801561019c57600080fd5b506101b06101ab36600461179b565b610554565b005b3480156101be57600080fd5b506101b06101cd36600461182e565b610785565b3480156101de57600080fd5b506101b06101ed366004611849565b61080e565b3480156101fe57600080fd5b506101b061020d36600461182e565b61082d565b34801561021e57600080fd5b5061023261022d366004611873565b610885565b60405190151581526020015b60405180910390f35b34801561025357600080fd5b5061027461026236600461182e565b60036020526000908152604090205481565b60405190815260200161023e565b34801561028e57600080fd5b506101b061029d366004611873565b610951565b3480156102ae57600080fd5b506102746102bd366004611932565b6005602090815260009384526040808520845180860184018051928152908401958401959095209452929052825290205481565b3480156102fd57600080fd5b506006546102329060ff1681565b34801561031757600080fd5b506101b061032636600461179b565b6109d7565b34801561033757600080fd5b506101b0610ab3565b34801561034c57600080fd5b5061036061035b36600461182e565b610ac7565b60405161023e9190611a2a565b34801561037957600080fd5b50610274610388366004611a3d565b600260209081526000928352604080842090915290825290205481565b3480156103b157600080fd5b506000546001600160a01b03165b6040516001600160a01b03909116815260200161023e565b3480156103e357600080fd5b506004546103bf906001600160a01b031681565b34801561040357600080fd5b5061036061041236600461182e565b610b61565b34801561042357600080fd5b506101b0610432366004611873565b610c78565b34801561044357600080fd5b506103bf7f000000000000000000000000000000000000000000000000000000000000000081565b34801561047757600080fd5b506101b0610486366004611a87565b610d18565b34801561049757600080fd5b5061027461271081565b3480156104ad57600080fd5b506101b06104bc366004611aa2565b610d74565b6101b06104cf36600461179b565b610e09565b3480156104e057600080fd5b506101b06104ef366004611b10565b61101f565b34801561050057600080fd5b506101b061050f366004611873565b6110d1565b34801561052057600080fd5b506101b061052f366004611a87565b61112b565b34801561054057600080fd5b5061036061054f366004611b4c565b6111a4565b337f00000000000000000000000000000000000000000000000000000000000000006001600160a01b0316146105d15760405162461bcd60e51b815260206004820152601e60248201527f4c7a4170703a20696e76616c696420656e64706f696e742063616c6c6572000060448201526064015b60405180910390fd5b61ffff8616600090815260016020526040812080546105ef90611b97565b80601f016020809104026020016040519081016040528092919081815260200182805461061b90611b97565b80156106685780601f1061063d57610100808354040283529160200191610668565b820191906000526020600020905b81548152906001019060200180831161064b57829003601f168201915b50505050509050805186869050148015610683575060008151115b80156106ab5750805160208201206040516106a19088908890611bd2565b6040518091039020145b6107065760405162461bcd60e51b815260206004820152602660248201527f4c7a4170703a20696e76616c696420736f757263652073656e64696e6720636f6044820152651b9d1c9858dd60d21b60648201526084016105c8565b61077c8787878080601f01602080910402602001604051908101604052809392919081815260200183838082843760009201919091525050604080516020601f8a018190048102820181019092528881528a93509150889088908190840183828082843760009201919091525061125592505050565b50505050505050565b61078d6112ce565b6040516307e0db1760e01b815261ffff821660048201527f00000000000000000000000000000000000000000000000000000000000000006001600160a01b0316906307e0db17906024015b600060405180830381600087803b1580156107f357600080fd5b505af1158015610807573d6000803e3d6000fd5b5050505050565b6108166112ce565b61ffff909116600090815260036020526040902055565b6108356112ce565b6040516310ddb13760e01b815261ffff821660048201527f00000000000000000000000000000000000000000000000000000000000000006001600160a01b0316906310ddb137906024016107d9565b61ffff8316600090815260016020526040812080548291906108a690611b97565b80601f01602080910402602001604051908101604052809291908181526020018280546108d290611b97565b801561091f5780601f106108f45761010080835404028352916020019161091f565b820191906000526020600020905b81548152906001019060200180831161090257829003601f168201915b505050505090508383604051610936929190611bd2565b60405180910390208180519060200120149150509392505050565b6109596112ce565b6040516342d65a8d60e01b81526001600160a01b037f000000000000000000000000000000000000000000000000000000000000000016906342d65a8d906109a990869086908690600401611c0b565b600060405180830381600087803b1580156109c357600080fd5b505af115801561077c573d6000803e3d6000fd5b333014610a355760405162461bcd60e51b815260206004820152602660248201527f4e6f6e626c6f636b696e674c7a4170703a2063616c6c6572206d7573742062656044820152650204c7a4170760d41b60648201526084016105c8565b610aab8686868080601f01602080910402602001604051908101604052809392919081815260200183838082843760009201919091525050604080516020601f89018190048102820181019092528781528993509150879087908190840183828082843760009201919091525061132892505050565b505050505050565b610abb6112ce565b610ac5600061132e565b565b60016020526000908152604090208054610ae090611b97565b80601f0160208091040260200160405190810160405280929190818152602001828054610b0c90611b97565b8015610b595780601f10610b2e57610100808354040283529160200191610b59565b820191906000526020600020905b815481529060010190602001808311610b3c57829003601f168201915b505050505081565b61ffff8116600090815260016020526040812080546060929190610b8490611b97565b80601f0160208091040260200160405190810160405280929190818152602001828054610bb090611b97565b8015610bfd5780601f10610bd257610100808354040283529160200191610bfd565b820191906000526020600020905b815481529060010190602001808311610be057829003601f168201915b50505050509050805160001415610c565760405162461bcd60e51b815260206004820152601d60248201527f4c7a4170703a206e6f20747275737465642070617468207265636f726400000060448201526064016105c8565b610c71600060148351610c699190611c3f565b83919061137e565b9392505050565b610c806112ce565b818130604051602001610c9593929190611c56565b60408051601f1981840301815291815261ffff85166000908152600160209081529190208251610cca93919290910190611618565b50610cd88361ffff1661148b565b7f8c0400cfe2d1199b1a725c78960bcc2a344d869b80590d0f2bd005db15a572ce838383604051610d0b93929190611c0b565b60405180910390a1505050565b610d206112ce565b600480546001600160a01b0319166001600160a01b0383169081179091556040519081527f5db758e995a17ec1ad84bdef7e8c3293a0bd6179bcce400dff5d4c3d87db726b9060200160405180910390a150565b610d7c6112ce565b6040516332fb62e760e21b81526001600160a01b037f0000000000000000000000000000000000000000000000000000000000000000169063cbed8b9c90610dd09088908890889088908890600401611c7c565b600060405180830381600087803b158015610dea57600080fd5b505af1158015610dfe573d6000803e3d6000fd5b505050505050505050565b61ffff86166000908152600560205260408082209051610e2c9088908890611bd2565b90815260408051602092819003830190206001600160401b03871660009081529252902054905080610eac5760405162461bcd60e51b815260206004820152602360248201527f4e6f6e626c6f636b696e674c7a4170703a206e6f2073746f726564206d65737360448201526261676560e81b60648201526084016105c8565b808383604051610ebd929190611bd2565b604051809103902014610f1c5760405162461bcd60e51b815260206004820152602160248201527f4e6f6e626c6f636b696e674c7a4170703a20696e76616c6964207061796c6f616044820152601960fa1b60648201526084016105c8565b61ffff87166000908152600560205260408082209051610f3f9089908990611bd2565b90815260408051602092819003830181206001600160401b038916600090815290845282902093909355601f88018290048202830182019052868252610fd7918991899089908190840183828082843760009201919091525050604080516020601f8a018190048102820181019092528881528a93509150889088908190840183828082843760009201919091525061132892505050565b7fc264d91f3adc5588250e1551f547752ca0cfa8f6b530d243b9f9f4cab10ea8e5878787878560405161100e959493929190611cb5565b60405180910390a150505050505050565b6110276112ce565b6000811161106f5760405162461bcd60e51b81526020600482015260156024820152744c7a4170703a20696e76616c6964206d696e47617360581b60448201526064016105c8565b61ffff83811660008181526002602090815260408083209487168084529482529182902085905581519283528201929092529081018290527f9d5c7c0b934da8fefa9c7760c98383778a12dfbfc0c3b3106518f43fb9508ac090606001610d0b565b6110d96112ce565b61ffff831660009081526001602052604090206110f790838361169c565b507ffa41487ad5d6728f0b19276fa1eddc16558578f5109fc39d2dc33c3230470dab838383604051610d0b93929190611c0b565b6111336112ce565b6001600160a01b0381166111985760405162461bcd60e51b815260206004820152602660248201527f4f776e61626c653a206e6577206f776e657220697320746865207a65726f206160448201526564647265737360d01b60648201526084016105c8565b6111a18161132e565b50565b604051633d7b2f6f60e21b815261ffff808616600483015284166024820152306044820152606481018290526060907f00000000000000000000000000000000000000000000000000000000000000006001600160a01b03169063f5ecbdbc90608401600060405180830381865afa158015611224573d6000803e3d6000fd5b505050506040513d6000823e601f3d908101601f1916820160405261124c9190810190611cf0565b95945050505050565b6000806112b85a60966366ad5c8a60e01b8989898960405160240161127d9493929190611d5d565b60408051601f198184030181529190526020810180516001600160e01b03166001600160e01b031990931692909217909152309291906114d0565b9150915081610aab57610aab868686868561155a565b6000546001600160a01b03163314610ac55760405162461bcd60e51b815260206004820181905260248201527f4f776e61626c653a2063616c6c6572206973206e6f7420746865206f776e657260448201526064016105c8565b50505050565b600080546001600160a01b038381166001600160a01b0319831681178455604051919092169283917f8be0079c531659141344cd1fd0a4f28419497f9722a3daafe3b4186f6b6457e09190a35050565b60608161138c81601f611d9b565b10156113cb5760405162461bcd60e51b815260206004820152600e60248201526d736c6963655f6f766572666c6f7760901b60448201526064016105c8565b6113d58284611d9b565b845110156114195760405162461bcd60e51b8152602060048201526011602482015270736c6963655f6f75744f66426f756e647360781b60448201526064016105c8565b6060821580156114385760405191506000825260208201604052611482565b6040519150601f8416801560200281840101858101878315602002848b0101015b81831015611471578051835260209283019201611459565b5050858452601f01601f1916604052505b50949350505050565b6111a1816040516024016114a191815260200190565b60408051601f198184030181529190526020810180516001600160e01b031663f82c50f160e01b1790526115f7565b6000606060008060008661ffff166001600160401b038111156114f5576114f56118c5565b6040519080825280601f01601f19166020018201604052801561151f576020820181803683370190505b50905060008087516020890160008d8df191503d925086831115611541578692505b828152826000602083013e909890975095505050505050565b8180519060200120600560008761ffff1661ffff1681526020019081526020016000208560405161158b9190611db3565b9081526040805191829003602090810183206001600160401b0388166000908152915220919091557fe183f33de2837795525b4792ca4cd60535bd77c53b7e7030060bfcf5734d6b0c906115e89087908790879087908790611dcf565b60405180910390a15050505050565b80516a636f6e736f6c652e6c6f67602083016000808483855afa5050505050565b82805461162490611b97565b90600052602060002090601f016020900481019282611646576000855561168c565b82601f1061165f57805160ff191683800117855561168c565b8280016001018555821561168c579182015b8281111561168c578251825591602001919060010190611671565b50611698929150611710565b5090565b8280546116a890611b97565b90600052602060002090601f0160209004810192826116ca576000855561168c565b82601f106116e35782800160ff1982351617855561168c565b8280016001018555821561168c579182015b8281111561168c5782358255916020019190600101906116f5565b5b808211156116985760008155600101611711565b803561ffff8116811461173757600080fd5b919050565b60008083601f84011261174e57600080fd5b5081356001600160401b0381111561176557600080fd5b60208301915083602082850101111561177d57600080fd5b9250929050565b80356001600160401b038116811461173757600080fd5b600080600080600080608087890312156117b457600080fd5b6117bd87611725565b955060208701356001600160401b03808211156117d957600080fd5b6117e58a838b0161173c565b90975095508591506117f960408a01611784565b9450606089013591508082111561180f57600080fd5b5061181c89828a0161173c565b979a9699509497509295939492505050565b60006020828403121561184057600080fd5b610c7182611725565b6000806040838503121561185c57600080fd5b61186583611725565b946020939093013593505050565b60008060006040848603121561188857600080fd5b61189184611725565b925060208401356001600160401b038111156118ac57600080fd5b6118b88682870161173c565b9497909650939450505050565b634e487b7160e01b600052604160045260246000fd5b604051601f8201601f191681016001600160401b0381118282101715611903576119036118c5565b604052919050565b60006001600160401b03821115611924576119246118c5565b50601f01601f191660200190565b60008060006060848603121561194757600080fd5b61195084611725565b925060208401356001600160401b0381111561196b57600080fd5b8401601f8101861361197c57600080fd5b803561198f61198a8261190b565b6118db565b8181528760208385010111156119a457600080fd5b816020840160208301376000602083830101528094505050506119c960408501611784565b90509250925092565b60005b838110156119ed5781810151838201526020016119d5565b838111156113285750506000910152565b60008151808452611a168160208601602086016119d2565b601f01601f19169290920160200192915050565b602081526000610c7160208301846119fe565b60008060408385031215611a5057600080fd5b611a5983611725565b9150611a6760208401611725565b90509250929050565b80356001600160a01b038116811461173757600080fd5b600060208284031215611a9957600080fd5b610c7182611a70565b600080600080600060808688031215611aba57600080fd5b611ac386611725565b9450611ad160208701611725565b93506040860135925060608601356001600160401b03811115611af357600080fd5b611aff8882890161173c565b969995985093965092949392505050565b600080600060608486031215611b2557600080fd5b611b2e84611725565b9250611b3c60208501611725565b9150604084013590509250925092565b60008060008060808587031215611b6257600080fd5b611b6b85611725565b9350611b7960208601611725565b9250611b8760408601611a70565b9396929550929360600135925050565b600181811c90821680611bab57607f821691505b60208210811415611bcc57634e487b7160e01b600052602260045260246000fd5b50919050565b8183823760009101908152919050565b81835281816020850137506000828201602090810191909152601f909101601f19169091010190565b61ffff8416815260406020820152600061124c604083018486611be2565b634e487b7160e01b600052601160045260246000fd5b600082821015611c5157611c51611c29565b500390565b8284823760609190911b6bffffffffffffffffffffffff19169101908152601401919050565b600061ffff808816835280871660208401525084604083015260806060830152611caa608083018486611be2565b979650505050505050565b61ffff86168152608060208201526000611cd3608083018688611be2565b6001600160401b0394909416604083015250606001529392505050565b600060208284031215611d0257600080fd5b81516001600160401b03811115611d1857600080fd5b8201601f81018413611d2957600080fd5b8051611d3761198a8261190b565b818152856020838501011115611d4c57600080fd5b61124c8260208301602086016119d2565b61ffff85168152608060208201526000611d7a60808301866119fe565b6001600160401b03851660408401528281036060840152611caa81856119fe565b60008219821115611dae57611dae611c29565b500190565b60008251611dc58184602087016119d2565b9190910192915050565b61ffff8616815260a060208201526000611dec60a08301876119fe565b6001600160401b03861660408401528281036060840152611e0d81866119fe565b90508281036080840152611e2181856119fe565b9897505050505050505056fea2646970667358221220fb7fb30c07beedaa97409a54815b354fbb4ac0b9e8d3f6be9b9ea50ffb84673664736f6c634300080c0033",
  "linkReferences": {},
  "deployedLinkReferences": {}
}