{
  "_format": "hh-sol-artifact-1",
  "contractName": "MozaicVault",
  "sourceName": "contracts/mContracts/MozaicVault.sol",
  "abi": [
    {
      "inputs": [
        {
          "internalType": "address",
          "name": "_lzEndpoint",
          "type": "address"
        },
        {
          "internalType": "bool",
          "name": "_isMain",
          "type": "bool"
        }
      ],
      "stateMutability": "nonpayable",
      "type": "constructor"
    },
    {
      "anonymous": false,
      "inputs": [
        {
          "indexed": true,
          "internalType": "address",
          "name": "at",
          "type": "address"
        },
        {
          "indexed": true,
          "internalType": "address",
          "name": "lzPoint",
          "type": "address"
        }
      ],
      "name": "Deployed",
      "type": "event"
    },
    {
      "anonymous": false,
      "inputs": [
        {
          "indexed": false,
          "internalType": "uint16",
          "name": "_srcChainId",
          "type": "uint16"
        },
        {
          "indexed": false,
          "internalType": "bytes",
          "name": "_srcAddress",
          "type": "bytes"
        },
        {
          "indexed": false,
          "internalType": "uint64",
          "name": "_nonce",
          "type": "uint64"
        },
        {
          "indexed": false,
          "internalType": "bytes",
          "name": "_payload",
          "type": "bytes"
        },
        {
          "indexed": false,
          "internalType": "bytes",
          "name": "_reason",
          "type": "bytes"
        }
      ],
      "name": "MessageFailed",
      "type": "event"
    },
    {
      "anonymous": false,
      "inputs": [
        {
          "indexed": true,
          "internalType": "address",
          "name": "previousOwner",
          "type": "address"
        },
        {
          "indexed": true,
          "internalType": "address",
          "name": "newOwner",
          "type": "address"
        }
      ],
      "name": "OwnershipTransferred",
      "type": "event"
    },
    {
      "anonymous": false,
      "inputs": [
        {
          "indexed": false,
          "internalType": "uint16",
          "name": "_srcChainId",
          "type": "uint16"
        },
        {
          "indexed": false,
          "internalType": "bytes",
          "name": "_srcAddress",
          "type": "bytes"
        },
        {
          "indexed": false,
          "internalType": "uint64",
          "name": "_nonce",
          "type": "uint64"
        },
        {
          "indexed": false,
          "internalType": "bytes32",
          "name": "_payloadHash",
          "type": "bytes32"
        }
      ],
      "name": "RetryMessageSuccess",
      "type": "event"
    },
    {
      "anonymous": false,
      "inputs": [
        {
          "indexed": false,
          "internalType": "uint16",
          "name": "_dstChainId",
          "type": "uint16"
        },
        {
          "indexed": false,
          "internalType": "uint16",
          "name": "_type",
          "type": "uint16"
        },
        {
          "indexed": false,
          "internalType": "uint256",
          "name": "_minDstGas",
          "type": "uint256"
        }
      ],
      "name": "SetMinDstGas",
      "type": "event"
    },
    {
      "anonymous": false,
      "inputs": [
        {
          "indexed": false,
          "internalType": "address",
          "name": "precrime",
          "type": "address"
        }
      ],
      "name": "SetPrecrime",
      "type": "event"
    },
    {
      "anonymous": false,
      "inputs": [
        {
          "indexed": false,
          "internalType": "uint16",
          "name": "_remoteChainId",
          "type": "uint16"
        },
        {
          "indexed": false,
          "internalType": "bytes",
          "name": "_path",
          "type": "bytes"
        }
      ],
      "name": "SetTrustedRemote",
      "type": "event"
    },
    {
      "anonymous": false,
      "inputs": [
        {
          "indexed": false,
          "internalType": "uint16",
          "name": "_remoteChainId",
          "type": "uint16"
        },
        {
          "indexed": false,
          "internalType": "bytes",
          "name": "_remoteAddress",
          "type": "bytes"
        }
      ],
      "name": "SetTrustedRemoteAddress",
      "type": "event"
    },
    {
      "inputs": [],
      "name": "DEFAULT_PAYLOAD_SIZE_LIMIT",
      "outputs": [
        {
          "internalType": "uint256",
          "name": "",
          "type": "uint256"
        }
      ],
      "stateMutability": "view",
      "type": "function"
    },
    {
      "inputs": [
        {
          "internalType": "uint16",
          "name": "",
          "type": "uint16"
        },
        {
          "internalType": "bytes",
          "name": "",
          "type": "bytes"
        },
        {
          "internalType": "uint64",
          "name": "",
          "type": "uint64"
        }
      ],
      "name": "failedMessages",
      "outputs": [
        {
          "internalType": "bytes32",
          "name": "",
          "type": "bytes32"
        }
      ],
      "stateMutability": "view",
      "type": "function"
    },
    {
      "inputs": [
        {
          "internalType": "uint16",
          "name": "_srcChainId",
          "type": "uint16"
        },
        {
          "internalType": "bytes",
          "name": "_srcAddress",
          "type": "bytes"
        }
      ],
      "name": "forceResumeReceive",
      "outputs": [],
      "stateMutability": "nonpayable",
      "type": "function"
    },
    {
      "inputs": [
        {
          "internalType": "uint16",
          "name": "_version",
          "type": "uint16"
        },
        {
          "internalType": "uint16",
          "name": "_chainId",
          "type": "uint16"
        },
        {
          "internalType": "address",
          "name": "",
          "type": "address"
        },
        {
          "internalType": "uint256",
          "name": "_configType",
          "type": "uint256"
        }
      ],
      "name": "getConfig",
      "outputs": [
        {
          "internalType": "bytes",
          "name": "",
          "type": "bytes"
        }
      ],
      "stateMutability": "view",
      "type": "function"
    },
    {
      "inputs": [
        {
          "internalType": "uint16",
          "name": "_remoteChainId",
          "type": "uint16"
        }
      ],
      "name": "getTrustedRemoteAddress",
      "outputs": [
        {
          "internalType": "bytes",
          "name": "",
          "type": "bytes"
        }
      ],
      "stateMutability": "view",
      "type": "function"
    },
    {
      "inputs": [],
      "name": "isMain",
      "outputs": [
        {
          "internalType": "bool",
          "name": "",
          "type": "bool"
        }
      ],
      "stateMutability": "view",
      "type": "function"
    },
    {
      "inputs": [
        {
          "internalType": "uint16",
          "name": "_srcChainId",
          "type": "uint16"
        },
        {
          "internalType": "bytes",
          "name": "_srcAddress",
          "type": "bytes"
        }
      ],
      "name": "isTrustedRemote",
      "outputs": [
        {
          "internalType": "bool",
          "name": "",
          "type": "bool"
        }
      ],
      "stateMutability": "view",
      "type": "function"
    },
    {
      "inputs": [],
      "name": "lzEndpoint",
      "outputs": [
        {
          "internalType": "contract ILayerZeroEndpoint",
          "name": "",
          "type": "address"
        }
      ],
      "stateMutability": "view",
      "type": "function"
    },
    {
      "inputs": [
        {
          "internalType": "uint16",
          "name": "_srcChainId",
          "type": "uint16"
        },
        {
          "internalType": "bytes",
          "name": "_srcAddress",
          "type": "bytes"
        },
        {
          "internalType": "uint64",
          "name": "_nonce",
          "type": "uint64"
        },
        {
          "internalType": "bytes",
          "name": "_payload",
          "type": "bytes"
        }
      ],
      "name": "lzReceive",
      "outputs": [],
      "stateMutability": "nonpayable",
      "type": "function"
    },
    {
      "inputs": [
        {
          "internalType": "uint16",
          "name": "",
          "type": "uint16"
        },
        {
          "internalType": "uint16",
          "name": "",
          "type": "uint16"
        }
      ],
      "name": "minDstGasLookup",
      "outputs": [
        {
          "internalType": "uint256",
          "name": "",
          "type": "uint256"
        }
      ],
      "stateMutability": "view",
      "type": "function"
    },
    {
      "inputs": [
        {
          "internalType": "uint16",
          "name": "_srcChainId",
          "type": "uint16"
        },
        {
          "internalType": "bytes",
          "name": "_srcAddress",
          "type": "bytes"
        },
        {
          "internalType": "uint64",
          "name": "_nonce",
          "type": "uint64"
        },
        {
          "internalType": "bytes",
          "name": "_payload",
          "type": "bytes"
        }
      ],
      "name": "nonblockingLzReceive",
      "outputs": [],
      "stateMutability": "nonpayable",
      "type": "function"
    },
    {
      "inputs": [],
      "name": "owner",
      "outputs": [
        {
          "internalType": "address",
          "name": "",
          "type": "address"
        }
      ],
      "stateMutability": "view",
      "type": "function"
    },
    {
      "inputs": [
        {
          "internalType": "uint16",
          "name": "",
          "type": "uint16"
        }
      ],
      "name": "payloadSizeLimitLookup",
      "outputs": [
        {
          "internalType": "uint256",
          "name": "",
          "type": "uint256"
        }
      ],
      "stateMutability": "view",
      "type": "function"
    },
    {
      "inputs": [
        {
          "internalType": "uint16",
          "name": "_dstChainId",
          "type": "uint16"
        },
        {
          "internalType": "address",
          "name": "",
          "type": "address"
        },
        {
          "internalType": "uint256",
          "name": "pings",
          "type": "uint256"
        }
      ],
      "name": "ping",
      "outputs": [],
      "stateMutability": "payable",
      "type": "function"
    },
    {
      "inputs": [],
      "name": "precrime",
      "outputs": [
        {
          "internalType": "address",
          "name": "",
          "type": "address"
        }
      ],
      "stateMutability": "view",
      "type": "function"
    },
    {
      "inputs": [],
      "name": "renounceOwnership",
      "outputs": [],
      "stateMutability": "nonpayable",
      "type": "function"
    },
    {
      "inputs": [
        {
          "internalType": "uint16",
          "name": "_srcChainId",
          "type": "uint16"
        },
        {
          "internalType": "bytes",
          "name": "_srcAddress",
          "type": "bytes"
        },
        {
          "internalType": "uint64",
          "name": "_nonce",
          "type": "uint64"
        },
        {
          "internalType": "bytes",
          "name": "_payload",
          "type": "bytes"
        }
      ],
      "name": "retryMessage",
      "outputs": [],
      "stateMutability": "payable",
      "type": "function"
    },
    {
      "inputs": [
        {
          "internalType": "uint16",
          "name": "_version",
          "type": "uint16"
        },
        {
          "internalType": "uint16",
          "name": "_chainId",
          "type": "uint16"
        },
        {
          "internalType": "uint256",
          "name": "_configType",
          "type": "uint256"
        },
        {
          "internalType": "bytes",
          "name": "_config",
          "type": "bytes"
        }
      ],
      "name": "setConfig",
      "outputs": [],
      "stateMutability": "nonpayable",
      "type": "function"
    },
    {
      "inputs": [
        {
          "internalType": "uint16",
          "name": "_dstChainId",
          "type": "uint16"
        },
        {
          "internalType": "uint16",
          "name": "_packetType",
          "type": "uint16"
        },
        {
          "internalType": "uint256",
          "name": "_minGas",
          "type": "uint256"
        }
      ],
      "name": "setMinDstGas",
      "outputs": [],
      "stateMutability": "nonpayable",
      "type": "function"
    },
    {
      "inputs": [
        {
          "internalType": "uint16",
          "name": "_dstChainId",
          "type": "uint16"
        },
        {
          "internalType": "uint256",
          "name": "_size",
          "type": "uint256"
        }
      ],
      "name": "setPayloadSizeLimit",
      "outputs": [],
      "stateMutability": "nonpayable",
      "type": "function"
    },
    {
      "inputs": [
        {
          "internalType": "address",
          "name": "_precrime",
          "type": "address"
        }
      ],
      "name": "setPrecrime",
      "outputs": [],
      "stateMutability": "nonpayable",
      "type": "function"
    },
    {
      "inputs": [
        {
          "internalType": "uint16",
          "name": "_version",
          "type": "uint16"
        }
      ],
      "name": "setReceiveVersion",
      "outputs": [],
      "stateMutability": "nonpayable",
      "type": "function"
    },
    {
      "inputs": [
        {
          "internalType": "uint16",
          "name": "_version",
          "type": "uint16"
        }
      ],
      "name": "setSendVersion",
      "outputs": [],
      "stateMutability": "nonpayable",
      "type": "function"
    },
    {
      "inputs": [
        {
          "internalType": "uint16",
          "name": "_srcChainId",
          "type": "uint16"
        },
        {
          "internalType": "bytes",
          "name": "_path",
          "type": "bytes"
        }
      ],
      "name": "setTrustedRemote",
      "outputs": [],
      "stateMutability": "nonpayable",
      "type": "function"
    },
    {
      "inputs": [
        {
          "internalType": "uint16",
          "name": "_remoteChainId",
          "type": "uint16"
        },
        {
          "internalType": "bytes",
          "name": "_remoteAddress",
          "type": "bytes"
        }
      ],
      "name": "setTrustedRemoteAddress",
      "outputs": [],
      "stateMutability": "nonpayable",
      "type": "function"
    },
    {
      "inputs": [
        {
          "internalType": "address",
          "name": "newOwner",
          "type": "address"
        }
      ],
      "name": "transferOwnership",
      "outputs": [],
      "stateMutability": "nonpayable",
      "type": "function"
    },
    {
      "inputs": [
        {
          "internalType": "uint16",
          "name": "",
          "type": "uint16"
        }
      ],
      "name": "trustedRemoteLookup",
      "outputs": [
        {
          "internalType": "bytes",
          "name": "",
          "type": "bytes"
        }
      ],
      "stateMutability": "view",
      "type": "function"
    },
    {
      "stateMutability": "payable",
      "type": "receive"
    }
  ],
  "bytecode": "0x60a06040523480156200001157600080fd5b5060405162002396380380620023968339810160408190526200003491620000e5565b8180620000413362000095565b6001600160a01b039081166080526006805460ff1916841515179055604051908416915030907f09e48df7857bd0c1e0d31bb8a85d42cf1874817895f171c917f6ee2cea73ec2090600090a3505062000133565b600080546001600160a01b038381166001600160a01b0319831681178455604051919092169283917f8be0079c531659141344cd1fd0a4f28419497f9722a3daafe3b4186f6b6457e09190a35050565b60008060408385031215620000f957600080fd5b82516001600160a01b03811681146200011157600080fd5b602084015190925080151581146200012857600080fd5b809150509250929050565b608051612216620001806000396000818161046401528181610585015281816107d40152818161087c0152818161099e01528181610dc1015281816112dc015261170101526122166000f3fe60806040526004361061019f5760003560e01c80638da5cb5b116100ec578063cbed8b9c1161008a578063eb8d72b711610064578063eb8d72b71461050f578063f2d566fc1461052f578063f2fde38b14610542578063f5ecbdbc1461056257600080fd5b8063cbed8b9c146104bc578063d1deba1f146104dc578063df2a5b3b146104ef57600080fd5b8063a6c3d165116100c6578063a6c3d16514610432578063b353aaa714610452578063baf3292d14610486578063c4461834146104a657600080fd5b80638da5cb5b146103c0578063950c8a74146103f25780639f38369a1461041257600080fd5b806342d65a8d1161015957806366ad5c8a1161013357806366ad5c8a14610326578063715018a6146103465780637533d7881461035b5780638cfd8f5c1461038857600080fd5b806342d65a8d1461029d5780635b8c41e6146102bd578063604269d11461030c57600080fd5b80621d3567146101ab57806307e0db17146101cd5780630df37483146101ed57806310ddb1371461020d5780633d8b38f61461022d5780633f1f4fa41461026257600080fd5b366101a657005b600080fd5b3480156101b757600080fd5b506101cb6101c6366004611abb565b610582565b005b3480156101d957600080fd5b506101cb6101e8366004611b4e565b6107b3565b3480156101f957600080fd5b506101cb610208366004611b69565b61083c565b34801561021957600080fd5b506101cb610228366004611b4e565b61085b565b34801561023957600080fd5b5061024d610248366004611b93565b6108b3565b60405190151581526020015b60405180910390f35b34801561026e57600080fd5b5061028f61027d366004611b4e565b60036020526000908152604090205481565b604051908152602001610259565b3480156102a957600080fd5b506101cb6102b8366004611b93565b61097f565b3480156102c957600080fd5b5061028f6102d8366004611c52565b6005602090815260009384526040808520845180860184018051928152908401958401959095209452929052825290205481565b34801561031857600080fd5b5060065461024d9060ff1681565b34801561033257600080fd5b506101cb610341366004611abb565b610a05565b34801561035257600080fd5b506101cb610ae1565b34801561036757600080fd5b5061037b610376366004611b4e565b610af5565b6040516102599190611d4a565b34801561039457600080fd5b5061028f6103a3366004611d5d565b600260209081526000928352604080842090915290825290205481565b3480156103cc57600080fd5b506000546001600160a01b03165b6040516001600160a01b039091168152602001610259565b3480156103fe57600080fd5b506004546103da906001600160a01b031681565b34801561041e57600080fd5b5061037b61042d366004611b4e565b610b8f565b34801561043e57600080fd5b506101cb61044d366004611b93565b610ca6565b34801561045e57600080fd5b506103da7f000000000000000000000000000000000000000000000000000000000000000081565b34801561049257600080fd5b506101cb6104a1366004611da7565b610d46565b3480156104b257600080fd5b5061028f61271081565b3480156104c857600080fd5b506101cb6104d7366004611dc2565b610da2565b6101cb6104ea366004611abb565b610e37565b3480156104fb57600080fd5b506101cb61050a366004611e30565b61104d565b34801561051b57600080fd5b506101cb61052a366004611b93565b6110ff565b6101cb61053d366004611e6c565b611159565b34801561054e57600080fd5b506101cb61055d366004611da7565b611232565b34801561056e57600080fd5b5061037b61057d366004611e98565b6112ab565b337f00000000000000000000000000000000000000000000000000000000000000006001600160a01b0316146105ff5760405162461bcd60e51b815260206004820152601e60248201527f4c7a4170703a20696e76616c696420656e64706f696e742063616c6c6572000060448201526064015b60405180910390fd5b61ffff86166000908152600160205260408120805461061d90611ee3565b80601f016020809104026020016040519081016040528092919081815260200182805461064990611ee3565b80156106965780601f1061066b57610100808354040283529160200191610696565b820191906000526020600020905b81548152906001019060200180831161067957829003601f168201915b505050505090508051868690501480156106b1575060008151115b80156106d95750805160208201206040516106cf9088908890611f1e565b6040518091039020145b6107345760405162461bcd60e51b815260206004820152602660248201527f4c7a4170703a20696e76616c696420736f757263652073656e64696e6720636f6044820152651b9d1c9858dd60d21b60648201526084016105f6565b6107aa8787878080601f01602080910402602001604051908101604052809392919081815260200183838082843760009201919091525050604080516020601f8a018190048102820181019092528881528a93509150889088908190840183828082843760009201919091525061135c92505050565b50505050505050565b6107bb6113d5565b6040516307e0db1760e01b815261ffff821660048201527f00000000000000000000000000000000000000000000000000000000000000006001600160a01b0316906307e0db17906024015b600060405180830381600087803b15801561082157600080fd5b505af1158015610835573d6000803e3d6000fd5b5050505050565b6108446113d5565b61ffff909116600090815260036020526040902055565b6108636113d5565b6040516310ddb13760e01b815261ffff821660048201527f00000000000000000000000000000000000000000000000000000000000000006001600160a01b0316906310ddb13790602401610807565b61ffff8316600090815260016020526040812080548291906108d490611ee3565b80601f016020809104026020016040519081016040528092919081815260200182805461090090611ee3565b801561094d5780601f106109225761010080835404028352916020019161094d565b820191906000526020600020905b81548152906001019060200180831161093057829003601f168201915b505050505090508383604051610964929190611f1e565b60405180910390208180519060200120149150509392505050565b6109876113d5565b6040516342d65a8d60e01b81526001600160a01b037f000000000000000000000000000000000000000000000000000000000000000016906342d65a8d906109d790869086908690600401611f57565b600060405180830381600087803b1580156109f157600080fd5b505af11580156107aa573d6000803e3d6000fd5b333014610a635760405162461bcd60e51b815260206004820152602660248201527f4e6f6e626c6f636b696e674c7a4170703a2063616c6c6572206d7573742062656044820152650204c7a4170760d41b60648201526084016105f6565b610ad98686868080601f01602080910402602001604051908101604052809392919081815260200183838082843760009201919091525050604080516020601f89018190048102820181019092528781528993509150879087908190840183828082843760009201919091525061142f92505050565b505050505050565b610ae96113d5565b610af36000611435565b565b60016020526000908152604090208054610b0e90611ee3565b80601f0160208091040260200160405190810160405280929190818152602001828054610b3a90611ee3565b8015610b875780601f10610b5c57610100808354040283529160200191610b87565b820191906000526020600020905b815481529060010190602001808311610b6a57829003601f168201915b505050505081565b61ffff8116600090815260016020526040812080546060929190610bb290611ee3565b80601f0160208091040260200160405190810160405280929190818152602001828054610bde90611ee3565b8015610c2b5780601f10610c0057610100808354040283529160200191610c2b565b820191906000526020600020905b815481529060010190602001808311610c0e57829003601f168201915b50505050509050805160001415610c845760405162461bcd60e51b815260206004820152601d60248201527f4c7a4170703a206e6f20747275737465642070617468207265636f726400000060448201526064016105f6565b610c9f600060148351610c979190611f8b565b839190611485565b9392505050565b610cae6113d5565b818130604051602001610cc393929190611fa2565b60408051601f1981840301815291815261ffff85166000908152600160209081529190208251610cf893919290910190611938565b50610d068361ffff16611592565b7f8c0400cfe2d1199b1a725c78960bcc2a344d869b80590d0f2bd005db15a572ce838383604051610d3993929190611f57565b60405180910390a1505050565b610d4e6113d5565b600480546001600160a01b0319166001600160a01b0383169081179091556040519081527f5db758e995a17ec1ad84bdef7e8c3293a0bd6179bcce400dff5d4c3d87db726b9060200160405180910390a150565b610daa6113d5565b6040516332fb62e760e21b81526001600160a01b037f0000000000000000000000000000000000000000000000000000000000000000169063cbed8b9c90610dfe9088908890889088908890600401611fc8565b600060405180830381600087803b158015610e1857600080fd5b505af1158015610e2c573d6000803e3d6000fd5b505050505050505050565b61ffff86166000908152600560205260408082209051610e5a9088908890611f1e565b90815260408051602092819003830190206001600160401b03871660009081529252902054905080610eda5760405162461bcd60e51b815260206004820152602360248201527f4e6f6e626c6f636b696e674c7a4170703a206e6f2073746f726564206d65737360448201526261676560e81b60648201526084016105f6565b808383604051610eeb929190611f1e565b604051809103902014610f4a5760405162461bcd60e51b815260206004820152602160248201527f4e6f6e626c6f636b696e674c7a4170703a20696e76616c6964207061796c6f616044820152601960fa1b60648201526084016105f6565b61ffff87166000908152600560205260408082209051610f6d9089908990611f1e565b90815260408051602092819003830181206001600160401b038916600090815290845282902093909355601f88018290048202830182019052868252611005918991899089908190840183828082843760009201919091525050604080516020601f8a018190048102820181019092528881528a93509150889088908190840183828082843760009201919091525061142f92505050565b7fc264d91f3adc5588250e1551f547752ca0cfa8f6b530d243b9f9f4cab10ea8e5878787878560405161103c959493929190612001565b60405180910390a150505050505050565b6110556113d5565b6000811161109d5760405162461bcd60e51b81526020600482015260156024820152744c7a4170703a20696e76616c6964206d696e47617360581b60448201526064016105f6565b61ffff83811660008181526002602090815260408083209487168084529482529182902085905581519283528201929092529081018290527f9d5c7c0b934da8fefa9c7760c98383778a12dfbfc0c3b3106518f43fb9508ac090606001610d39565b6111076113d5565b61ffff831660009081526001602052604090206111259083836119bc565b507ffa41487ad5d6728f0b19276fa1eddc16558578f5109fc39d2dc33c3230470dab838383604051610d3993929190611f57565b600047116111d1576040805162461bcd60e51b81526020600482015260248101919091527f7468652062616c616e6365206f66207468697320636f6e74726163742069732060448201527f302e20706c732073656e642067617320666f72206d657373616765206665657360648201526084016105f6565b6000816040516020016111e691815260200190565b60408051601f19818403018152828252600160f01b602084015262055730602280850182905283518086039091018152604290940190925292506001916107aa878530600085346115d7565b61123a6113d5565b6001600160a01b03811661129f5760405162461bcd60e51b815260206004820152602660248201527f4f776e61626c653a206e6577206f776e657220697320746865207a65726f206160448201526564647265737360d01b60648201526084016105f6565b6112a881611435565b50565b604051633d7b2f6f60e21b815261ffff808616600483015284166024820152306044820152606481018290526060907f00000000000000000000000000000000000000000000000000000000000000006001600160a01b03169063f5ecbdbc90608401600060405180830381865afa15801561132b573d6000803e3d6000fd5b505050506040513d6000823e601f3d908101601f19168201604052611353919081019061203c565b95945050505050565b6000806113bf5a60966366ad5c8a60e01b8989898960405160240161138494939291906120a9565b60408051601f198184030181529190526020810180516001600160e01b03166001600160e01b0319909316929092179091523092919061177d565b9150915081610ad957610ad98686868685611807565b6000546001600160a01b03163314610af35760405162461bcd60e51b815260206004820181905260248201527f4f776e61626c653a2063616c6c6572206973206e6f7420746865206f776e657260448201526064016105f6565b50505050565b600080546001600160a01b038381166001600160a01b0319831681178455604051919092169283917f8be0079c531659141344cd1fd0a4f28419497f9722a3daafe3b4186f6b6457e09190a35050565b60608161149381601f6120e7565b10156114d25760405162461bcd60e51b815260206004820152600e60248201526d736c6963655f6f766572666c6f7760901b60448201526064016105f6565b6114dc82846120e7565b845110156115205760405162461bcd60e51b8152602060048201526011602482015270736c6963655f6f75744f66426f756e647360781b60448201526064016105f6565b60608215801561153f5760405191506000825260208201604052611589565b6040519150601f8416801560200281840101858101878315602002848b0101015b81831015611578578051835260209283019201611560565b5050858452601f01601f1916604052505b50949350505050565b6112a8816040516024016115a891815260200190565b60408051601f198184030181529190526020810180516001600160e01b031663f82c50f160e01b1790526118a4565b61ffff8616600090815260016020526040812080546115f590611ee3565b80601f016020809104026020016040519081016040528092919081815260200182805461162190611ee3565b801561166e5780601f106116435761010080835404028352916020019161166e565b820191906000526020600020905b81548152906001019060200180831161165157829003601f168201915b505050505090508051600014156116e05760405162461bcd60e51b815260206004820152603060248201527f4c7a4170703a2064657374696e6174696f6e20636861696e206973206e6f742060448201526f61207472757374656420736f7572636560801b60648201526084016105f6565b6116eb8787516118c5565b60405162c5803160e81b81526001600160a01b037f0000000000000000000000000000000000000000000000000000000000000000169063c5803100908490611742908b9086908c908c908c908c906004016120ff565b6000604051808303818588803b15801561175b57600080fd5b505af115801561176f573d6000803e3d6000fd5b505050505050505050505050565b6000606060008060008661ffff166001600160401b038111156117a2576117a2611be5565b6040519080825280601f01601f1916602001820160405280156117cc576020820181803683370190505b50905060008087516020890160008d8df191503d9250868311156117ee578692505b828152826000602083013e909890975095505050505050565b8180519060200120600560008761ffff1661ffff168152602001908152602001600020856040516118389190612166565b9081526040805191829003602090810183206001600160401b0388166000908152915220919091557fe183f33de2837795525b4792ca4cd60535bd77c53b7e7030060bfcf5734d6b0c906118959087908790879087908790612182565b60405180910390a15050505050565b80516a636f6e736f6c652e6c6f67602083016000808483855afa5050505050565b61ffff8216600090815260036020526040902054806118e357506127105b808211156119335760405162461bcd60e51b815260206004820181905260248201527f4c7a4170703a207061796c6f61642073697a6520697320746f6f206c6172676560448201526064016105f6565b505050565b82805461194490611ee3565b90600052602060002090601f01602090048101928261196657600085556119ac565b82601f1061197f57805160ff19168380011785556119ac565b828001600101855582156119ac579182015b828111156119ac578251825591602001919060010190611991565b506119b8929150611a30565b5090565b8280546119c890611ee3565b90600052602060002090601f0160209004810192826119ea57600085556119ac565b82601f10611a035782800160ff198235161785556119ac565b828001600101855582156119ac579182015b828111156119ac578235825591602001919060010190611a15565b5b808211156119b85760008155600101611a31565b803561ffff81168114611a5757600080fd5b919050565b60008083601f840112611a6e57600080fd5b5081356001600160401b03811115611a8557600080fd5b602083019150836020828501011115611a9d57600080fd5b9250929050565b80356001600160401b0381168114611a5757600080fd5b60008060008060008060808789031215611ad457600080fd5b611add87611a45565b955060208701356001600160401b0380821115611af957600080fd5b611b058a838b01611a5c565b9097509550859150611b1960408a01611aa4565b94506060890135915080821115611b2f57600080fd5b50611b3c89828a01611a5c565b979a9699509497509295939492505050565b600060208284031215611b6057600080fd5b610c9f82611a45565b60008060408385031215611b7c57600080fd5b611b8583611a45565b946020939093013593505050565b600080600060408486031215611ba857600080fd5b611bb184611a45565b925060208401356001600160401b03811115611bcc57600080fd5b611bd886828701611a5c565b9497909650939450505050565b634e487b7160e01b600052604160045260246000fd5b604051601f8201601f191681016001600160401b0381118282101715611c2357611c23611be5565b604052919050565b60006001600160401b03821115611c4457611c44611be5565b50601f01601f191660200190565b600080600060608486031215611c6757600080fd5b611c7084611a45565b925060208401356001600160401b03811115611c8b57600080fd5b8401601f81018613611c9c57600080fd5b8035611caf611caa82611c2b565b611bfb565b818152876020838501011115611cc457600080fd5b81602084016020830137600060208383010152809450505050611ce960408501611aa4565b90509250925092565b60005b83811015611d0d578181015183820152602001611cf5565b8381111561142f5750506000910152565b60008151808452611d36816020860160208601611cf2565b601f01601f19169290920160200192915050565b602081526000610c9f6020830184611d1e565b60008060408385031215611d7057600080fd5b611d7983611a45565b9150611d8760208401611a45565b90509250929050565b80356001600160a01b0381168114611a5757600080fd5b600060208284031215611db957600080fd5b610c9f82611d90565b600080600080600060808688031215611dda57600080fd5b611de386611a45565b9450611df160208701611a45565b93506040860135925060608601356001600160401b03811115611e1357600080fd5b611e1f88828901611a5c565b969995985093965092949392505050565b600080600060608486031215611e4557600080fd5b611e4e84611a45565b9250611e5c60208501611a45565b9150604084013590509250925092565b600080600060608486031215611e8157600080fd5b611e8a84611a45565b9250611e5c60208501611d90565b60008060008060808587031215611eae57600080fd5b611eb785611a45565b9350611ec560208601611a45565b9250611ed360408601611d90565b9396929550929360600135925050565b600181811c90821680611ef757607f821691505b60208210811415611f1857634e487b7160e01b600052602260045260246000fd5b50919050565b8183823760009101908152919050565b81835281816020850137506000828201602090810191909152601f909101601f19169091010190565b61ffff84168152604060208201526000611353604083018486611f2e565b634e487b7160e01b600052601160045260246000fd5b600082821015611f9d57611f9d611f75565b500390565b8284823760609190911b6bffffffffffffffffffffffff19169101908152601401919050565b600061ffff808816835280871660208401525084604083015260806060830152611ff6608083018486611f2e565b979650505050505050565b61ffff8616815260806020820152600061201f608083018688611f2e565b6001600160401b0394909416604083015250606001529392505050565b60006020828403121561204e57600080fd5b81516001600160401b0381111561206457600080fd5b8201601f8101841361207557600080fd5b8051612083611caa82611c2b565b81815285602083850101111561209857600080fd5b611353826020830160208601611cf2565b61ffff851681526080602082015260006120c66080830186611d1e565b6001600160401b03851660408401528281036060840152611ff68185611d1e565b600082198211156120fa576120fa611f75565b500190565b61ffff8716815260c06020820152600061211c60c0830188611d1e565b828103604084015261212e8188611d1e565b6001600160a01b0387811660608601528616608085015283810360a085015290506121598185611d1e565b9998505050505050505050565b60008251612178818460208701611cf2565b9190910192915050565b61ffff8616815260a06020820152600061219f60a0830187611d1e565b6001600160401b038616604084015282810360608401526121c08186611d1e565b905082810360808401526121d48185611d1e565b9897505050505050505056fea264697066735822122006edc5c548f83574c9ebd29d4767589c4f9c32fa9c6d853bc2d230add664737564736f6c634300080c0033",
  "linkReferences": {},
  "deployedLinkReferences": {}
}