{
  "_format": "hh-sol-artifact-1",
  "contractName": "UltraLightNodeV2",
  "sourceName": "contracts/mContracts/lzContracts/UltraLightNodeV2.Mock.sol",
  "abi": [
    {
      "inputs": [
        {
          "internalType": "address",
          "name": "_endpoint",
          "type": "address"
        },
        {
          "internalType": "address",
          "name": "_nonceContract",
          "type": "address"
        },
        {
          "internalType": "uint16",
          "name": "_localChainId",
          "type": "uint16"
        }
      ],
      "stateMutability": "nonpayable",
      "type": "constructor"
    },
    {
      "anonymous": false,
      "inputs": [
        {
          "indexed": true,
          "internalType": "uint16",
          "name": "chainId",
          "type": "uint16"
        },
        {
          "indexed": false,
          "internalType": "address",
          "name": "lib",
          "type": "address"
        }
      ],
      "name": "AddInboundProofLibraryForChain",
      "type": "event"
    },
    {
      "anonymous": false,
      "inputs": [
        {
          "indexed": true,
          "internalType": "address",
          "name": "userApplication",
          "type": "address"
        },
        {
          "indexed": true,
          "internalType": "uint256",
          "name": "configType",
          "type": "uint256"
        },
        {
          "indexed": false,
          "internalType": "bytes",
          "name": "newConfig",
          "type": "bytes"
        }
      ],
      "name": "AppConfigUpdated",
      "type": "event"
    },
    {
      "anonymous": false,
      "inputs": [
        {
          "indexed": true,
          "internalType": "uint16",
          "name": "chainId",
          "type": "uint16"
        },
        {
          "indexed": false,
          "internalType": "uint16",
          "name": "proofType",
          "type": "uint16"
        }
      ],
      "name": "EnableSupportedOutboundProof",
      "type": "event"
    },
    {
      "anonymous": false,
      "inputs": [
        {
          "indexed": true,
          "internalType": "uint16",
          "name": "srcChainId",
          "type": "uint16"
        },
        {
          "indexed": true,
          "internalType": "address",
          "name": "oracle",
          "type": "address"
        },
        {
          "indexed": false,
          "internalType": "bytes32",
          "name": "lookupHash",
          "type": "bytes32"
        },
        {
          "indexed": false,
          "internalType": "bytes32",
          "name": "blockData",
          "type": "bytes32"
        },
        {
          "indexed": false,
          "internalType": "uint256",
          "name": "confirmations",
          "type": "uint256"
        }
      ],
      "name": "HashReceived",
      "type": "event"
    },
    {
      "anonymous": false,
      "inputs": [
        {
          "indexed": true,
          "internalType": "uint16",
          "name": "srcChainId",
          "type": "uint16"
        },
        {
          "indexed": false,
          "internalType": "bytes",
          "name": "srcAddress",
          "type": "bytes"
        },
        {
          "indexed": true,
          "internalType": "address",
          "name": "dstAddress",
          "type": "address"
        },
        {
          "indexed": false,
          "internalType": "uint64",
          "name": "nonce",
          "type": "uint64"
        },
        {
          "indexed": false,
          "internalType": "bytes32",
          "name": "payloadHash",
          "type": "bytes32"
        }
      ],
      "name": "InvalidDst",
      "type": "event"
    },
    {
      "anonymous": false,
      "inputs": [
        {
          "indexed": true,
          "internalType": "address",
          "name": "previousOwner",
          "type": "address"
        },
        {
          "indexed": true,
          "internalType": "address",
          "name": "newOwner",
          "type": "address"
        }
      ],
      "name": "OwnershipTransferred",
      "type": "event"
    },
    {
      "anonymous": false,
      "inputs": [
        {
          "indexed": false,
          "internalType": "bytes",
          "name": "payload",
          "type": "bytes"
        }
      ],
      "name": "Packet",
      "type": "event"
    },
    {
      "anonymous": false,
      "inputs": [
        {
          "indexed": true,
          "internalType": "uint16",
          "name": "srcChainId",
          "type": "uint16"
        },
        {
          "indexed": false,
          "internalType": "bytes",
          "name": "srcAddress",
          "type": "bytes"
        },
        {
          "indexed": true,
          "internalType": "address",
          "name": "dstAddress",
          "type": "address"
        },
        {
          "indexed": false,
          "internalType": "uint64",
          "name": "nonce",
          "type": "uint64"
        },
        {
          "indexed": false,
          "internalType": "bytes32",
          "name": "payloadHash",
          "type": "bytes32"
        }
      ],
      "name": "PacketReceived",
      "type": "event"
    },
    {
      "anonymous": false,
      "inputs": [
        {
          "indexed": false,
          "internalType": "bytes",
          "name": "adapterParams",
          "type": "bytes"
        },
        {
          "indexed": false,
          "internalType": "uint16",
          "name": "outboundProofType",
          "type": "uint16"
        }
      ],
      "name": "RelayerParams",
      "type": "event"
    },
    {
      "anonymous": false,
      "inputs": [
        {
          "indexed": true,
          "internalType": "uint16",
          "name": "chainId",
          "type": "uint16"
        },
        {
          "indexed": false,
          "internalType": "uint256",
          "name": "size",
          "type": "uint256"
        }
      ],
      "name": "SetChainAddressSize",
      "type": "event"
    },
    {
      "anonymous": false,
      "inputs": [
        {
          "indexed": true,
          "internalType": "uint16",
          "name": "chainId",
          "type": "uint16"
        },
        {
          "indexed": true,
          "internalType": "uint16",
          "name": "proofType",
          "type": "uint16"
        },
        {
          "indexed": false,
          "internalType": "bytes",
          "name": "adapterParams",
          "type": "bytes"
        }
      ],
      "name": "SetDefaultAdapterParamsForChainId",
      "type": "event"
    },
    {
      "anonymous": false,
      "inputs": [
        {
          "indexed": true,
          "internalType": "uint16",
          "name": "chainId",
          "type": "uint16"
        },
        {
          "indexed": false,
          "internalType": "uint16",
          "name": "inboundProofLib",
          "type": "uint16"
        },
        {
          "indexed": false,
          "internalType": "uint64",
          "name": "inboundBlockConfirm",
          "type": "uint64"
        },
        {
          "indexed": false,
          "internalType": "address",
          "name": "relayer",
          "type": "address"
        },
        {
          "indexed": false,
          "internalType": "uint16",
          "name": "outboundProofType",
          "type": "uint16"
        },
        {
          "indexed": false,
          "internalType": "uint64",
          "name": "outboundBlockConfirm",
          "type": "uint64"
        },
        {
          "indexed": false,
          "internalType": "address",
          "name": "oracle",
          "type": "address"
        }
      ],
      "name": "SetDefaultConfigForChainId",
      "type": "event"
    },
    {
      "anonymous": false,
      "inputs": [
        {
          "indexed": true,
          "internalType": "address",
          "name": "tokenAddress",
          "type": "address"
        }
      ],
      "name": "SetLayerZeroToken",
      "type": "event"
    },
    {
      "anonymous": false,
      "inputs": [
        {
          "indexed": true,
          "internalType": "uint16",
          "name": "chainId",
          "type": "uint16"
        },
        {
          "indexed": false,
          "internalType": "bytes32",
          "name": "uln",
          "type": "bytes32"
        }
      ],
      "name": "SetRemoteUln",
      "type": "event"
    },
    {
      "anonymous": false,
      "inputs": [
        {
          "indexed": true,
          "internalType": "address",
          "name": "treasuryAddress",
          "type": "address"
        }
      ],
      "name": "SetTreasury",
      "type": "event"
    },
    {
      "anonymous": false,
      "inputs": [
        {
          "indexed": true,
          "internalType": "address",
          "name": "msgSender",
          "type": "address"
        },
        {
          "indexed": true,
          "internalType": "address",
          "name": "to",
          "type": "address"
        },
        {
          "indexed": false,
          "internalType": "uint256",
          "name": "amount",
          "type": "uint256"
        }
      ],
      "name": "WithdrawNative",
      "type": "event"
    },
    {
      "anonymous": false,
      "inputs": [
        {
          "indexed": true,
          "internalType": "address",
          "name": "msgSender",
          "type": "address"
        },
        {
          "indexed": true,
          "internalType": "address",
          "name": "to",
          "type": "address"
        },
        {
          "indexed": false,
          "internalType": "uint256",
          "name": "amount",
          "type": "uint256"
        }
      ],
      "name": "WithdrawZRO",
      "type": "event"
    },
    {
      "inputs": [],
      "name": "CONFIG_TYPE_INBOUND_BLOCK_CONFIRMATIONS",
      "outputs": [
        {
          "internalType": "uint256",
          "name": "",
          "type": "uint256"
        }
      ],
      "stateMutability": "view",
      "type": "function"
    },
    {
      "inputs": [],
      "name": "CONFIG_TYPE_INBOUND_PROOF_LIBRARY_VERSION",
      "outputs": [
        {
          "internalType": "uint256",
          "name": "",
          "type": "uint256"
        }
      ],
      "stateMutability": "view",
      "type": "function"
    },
    {
      "inputs": [],
      "name": "CONFIG_TYPE_ORACLE",
      "outputs": [
        {
          "internalType": "uint256",
          "name": "",
          "type": "uint256"
        }
      ],
      "stateMutability": "view",
      "type": "function"
    },
    {
      "inputs": [],
      "name": "CONFIG_TYPE_OUTBOUND_BLOCK_CONFIRMATIONS",
      "outputs": [
        {
          "internalType": "uint256",
          "name": "",
          "type": "uint256"
        }
      ],
      "stateMutability": "view",
      "type": "function"
    },
    {
      "inputs": [],
      "name": "CONFIG_TYPE_OUTBOUND_PROOF_TYPE",
      "outputs": [
        {
          "internalType": "uint256",
          "name": "",
          "type": "uint256"
        }
      ],
      "stateMutability": "view",
      "type": "function"
    },
    {
      "inputs": [],
      "name": "CONFIG_TYPE_RELAYER",
      "outputs": [
        {
          "internalType": "uint256",
          "name": "",
          "type": "uint256"
        }
      ],
      "stateMutability": "view",
      "type": "function"
    },
    {
      "inputs": [
        {
          "internalType": "address",
          "name": "_address",
          "type": "address"
        }
      ],
      "name": "accruedNativeFee",
      "outputs": [
        {
          "internalType": "uint256",
          "name": "",
          "type": "uint256"
        }
      ],
      "stateMutability": "view",
      "type": "function"
    },
    {
      "inputs": [
        {
          "internalType": "uint16",
          "name": "_chainId",
          "type": "uint16"
        },
        {
          "internalType": "address",
          "name": "_library",
          "type": "address"
        }
      ],
      "name": "addInboundProofLibraryForChain",
      "outputs": [],
      "stateMutability": "nonpayable",
      "type": "function"
    },
    {
      "inputs": [
        {
          "internalType": "address",
          "name": "",
          "type": "address"
        },
        {
          "internalType": "uint16",
          "name": "",
          "type": "uint16"
        }
      ],
      "name": "appConfig",
      "outputs": [
        {
          "internalType": "uint16",
          "name": "inboundProofLibraryVersion",
          "type": "uint16"
        },
        {
          "internalType": "uint64",
          "name": "inboundBlockConfirmations",
          "type": "uint64"
        },
        {
          "internalType": "address",
          "name": "relayer",
          "type": "address"
        },
        {
          "internalType": "uint16",
          "name": "outboundProofType",
          "type": "uint16"
        },
        {
          "internalType": "uint64",
          "name": "outboundBlockConfirmations",
          "type": "uint64"
        },
        {
          "internalType": "address",
          "name": "oracle",
          "type": "address"
        }
      ],
      "stateMutability": "view",
      "type": "function"
    },
    {
      "inputs": [
        {
          "internalType": "uint16",
          "name": "",
          "type": "uint16"
        }
      ],
      "name": "chainAddressSizeMap",
      "outputs": [
        {
          "internalType": "uint256",
          "name": "",
          "type": "uint256"
        }
      ],
      "stateMutability": "view",
      "type": "function"
    },
    {
      "inputs": [
        {
          "internalType": "uint16",
          "name": "",
          "type": "uint16"
        },
        {
          "internalType": "uint16",
          "name": "",
          "type": "uint16"
        }
      ],
      "name": "defaultAdapterParams",
      "outputs": [
        {
          "internalType": "bytes",
          "name": "",
          "type": "bytes"
        }
      ],
      "stateMutability": "view",
      "type": "function"
    },
    {
      "inputs": [
        {
          "internalType": "uint16",
          "name": "",
          "type": "uint16"
        }
      ],
      "name": "defaultAppConfig",
      "outputs": [
        {
          "internalType": "uint16",
          "name": "inboundProofLibraryVersion",
          "type": "uint16"
        },
        {
          "internalType": "uint64",
          "name": "inboundBlockConfirmations",
          "type": "uint64"
        },
        {
          "internalType": "address",
          "name": "relayer",
          "type": "address"
        },
        {
          "internalType": "uint16",
          "name": "outboundProofType",
          "type": "uint16"
        },
        {
          "internalType": "uint64",
          "name": "outboundBlockConfirmations",
          "type": "uint64"
        },
        {
          "internalType": "address",
          "name": "oracle",
          "type": "address"
        }
      ],
      "stateMutability": "view",
      "type": "function"
    },
    {
      "inputs": [
        {
          "internalType": "uint16",
          "name": "_chainId",
          "type": "uint16"
        },
        {
          "internalType": "uint16",
          "name": "_proofType",
          "type": "uint16"
        }
      ],
      "name": "enableSupportedOutboundProof",
      "outputs": [],
      "stateMutability": "nonpayable",
      "type": "function"
    },
    {
      "inputs": [],
      "name": "endpoint",
      "outputs": [
        {
          "internalType": "contract ILayerZeroEndpoint",
          "name": "",
          "type": "address"
        }
      ],
      "stateMutability": "view",
      "type": "function"
    },
    {
      "inputs": [
        {
          "internalType": "uint16",
          "name": "_dstChainId",
          "type": "uint16"
        },
        {
          "internalType": "address",
          "name": "_ua",
          "type": "address"
        },
        {
          "internalType": "bytes",
          "name": "_payload",
          "type": "bytes"
        },
        {
          "internalType": "bool",
          "name": "_payInZRO",
          "type": "bool"
        },
        {
          "internalType": "bytes",
          "name": "_adapterParams",
          "type": "bytes"
        }
      ],
      "name": "estimateFees",
      "outputs": [
        {
          "internalType": "uint256",
          "name": "nativeFee",
          "type": "uint256"
        },
        {
          "internalType": "uint256",
          "name": "zroFee",
          "type": "uint256"
        }
      ],
      "stateMutability": "view",
      "type": "function"
    },
    {
      "inputs": [
        {
          "internalType": "uint16",
          "name": "_remoteChainId",
          "type": "uint16"
        },
        {
          "internalType": "address",
          "name": "_ua",
          "type": "address"
        }
      ],
      "name": "getAppConfig",
      "outputs": [
        {
          "components": [
            {
              "internalType": "uint16",
              "name": "inboundProofLibraryVersion",
              "type": "uint16"
            },
            {
              "internalType": "uint64",
              "name": "inboundBlockConfirmations",
              "type": "uint64"
            },
            {
              "internalType": "address",
              "name": "relayer",
              "type": "address"
            },
            {
              "internalType": "uint16",
              "name": "outboundProofType",
              "type": "uint16"
            },
            {
              "internalType": "uint64",
              "name": "outboundBlockConfirmations",
              "type": "uint64"
            },
            {
              "internalType": "address",
              "name": "oracle",
              "type": "address"
            }
          ],
          "internalType": "struct ILayerZeroUltraLightNodeV2.ApplicationConfiguration",
          "name": "",
          "type": "tuple"
        }
      ],
      "stateMutability": "view",
      "type": "function"
    },
    {
      "inputs": [
        {
          "internalType": "uint16",
          "name": "_remoteChainId",
          "type": "uint16"
        },
        {
          "internalType": "address",
          "name": "_ua",
          "type": "address"
        },
        {
          "internalType": "uint256",
          "name": "_configType",
          "type": "uint256"
        }
      ],
      "name": "getConfig",
      "outputs": [
        {
          "internalType": "bytes",
          "name": "",
          "type": "bytes"
        }
      ],
      "stateMutability": "view",
      "type": "function"
    },
    {
      "inputs": [
        {
          "internalType": "uint16",
          "name": "_chainId",
          "type": "uint16"
        },
        {
          "internalType": "bytes",
          "name": "_path",
          "type": "bytes"
        }
      ],
      "name": "getOutboundNonce",
      "outputs": [
        {
          "internalType": "uint64",
          "name": "",
          "type": "uint64"
        }
      ],
      "stateMutability": "view",
      "type": "function"
    },
    {
      "inputs": [
        {
          "internalType": "address",
          "name": "",
          "type": "address"
        },
        {
          "internalType": "uint16",
          "name": "",
          "type": "uint16"
        },
        {
          "internalType": "bytes32",
          "name": "",
          "type": "bytes32"
        },
        {
          "internalType": "bytes32",
          "name": "",
          "type": "bytes32"
        }
      ],
      "name": "hashLookup",
      "outputs": [
        {
          "internalType": "uint256",
          "name": "",
          "type": "uint256"
        }
      ],
      "stateMutability": "view",
      "type": "function"
    },
    {
      "inputs": [
        {
          "internalType": "uint16",
          "name": "",
          "type": "uint16"
        },
        {
          "internalType": "uint16",
          "name": "",
          "type": "uint16"
        }
      ],
      "name": "inboundProofLibrary",
      "outputs": [
        {
          "internalType": "address",
          "name": "",
          "type": "address"
        }
      ],
      "stateMutability": "view",
      "type": "function"
    },
    {
      "inputs": [],
      "name": "layerZeroToken",
      "outputs": [
        {
          "internalType": "contract IERC20",
          "name": "",
          "type": "address"
        }
      ],
      "stateMutability": "view",
      "type": "function"
    },
    {
      "inputs": [],
      "name": "localChainId",
      "outputs": [
        {
          "internalType": "uint16",
          "name": "",
          "type": "uint16"
        }
      ],
      "stateMutability": "view",
      "type": "function"
    },
    {
      "inputs": [
        {
          "internalType": "uint16",
          "name": "",
          "type": "uint16"
        }
      ],
      "name": "maxInboundProofLibrary",
      "outputs": [
        {
          "internalType": "uint16",
          "name": "",
          "type": "uint16"
        }
      ],
      "stateMutability": "view",
      "type": "function"
    },
    {
      "inputs": [
        {
          "internalType": "address",
          "name": "",
          "type": "address"
        }
      ],
      "name": "nativeFees",
      "outputs": [
        {
          "internalType": "uint256",
          "name": "",
          "type": "uint256"
        }
      ],
      "stateMutability": "view",
      "type": "function"
    },
    {
      "inputs": [],
      "name": "nonceContract",
      "outputs": [
        {
          "internalType": "contract NonceContract",
          "name": "",
          "type": "address"
        }
      ],
      "stateMutability": "view",
      "type": "function"
    },
    {
      "inputs": [],
      "name": "owner",
      "outputs": [
        {
          "internalType": "address",
          "name": "",
          "type": "address"
        }
      ],
      "stateMutability": "view",
      "type": "function"
    },
    {
      "inputs": [
        {
          "internalType": "uint16",
          "name": "_srcChainId",
          "type": "uint16"
        },
        {
          "internalType": "bytes",
          "name": "_srcAddress",
          "type": "bytes"
        },
        {
          "internalType": "address",
          "name": "_dstAddress",
          "type": "address"
        },
        {
          "internalType": "uint64",
          "name": "_nonce",
          "type": "uint64"
        },
        {
          "internalType": "uint256",
          "name": "_gasLimit",
          "type": "uint256"
        },
        {
          "internalType": "bytes",
          "name": "_payload",
          "type": "bytes"
        }
      ],
      "name": "receivePayload_withNoValidation",
      "outputs": [],
      "stateMutability": "nonpayable",
      "type": "function"
    },
    {
      "inputs": [],
      "name": "renounceOwnership",
      "outputs": [],
      "stateMutability": "nonpayable",
      "type": "function"
    },
    {
      "inputs": [
        {
          "internalType": "address",
          "name": "_ua",
          "type": "address"
        },
        {
          "internalType": "uint64",
          "name": "",
          "type": "uint64"
        },
        {
          "internalType": "uint16",
          "name": "_dstChainId",
          "type": "uint16"
        },
        {
          "internalType": "bytes",
          "name": "_path",
          "type": "bytes"
        },
        {
          "internalType": "bytes",
          "name": "_payload",
          "type": "bytes"
        },
        {
          "internalType": "address payable",
          "name": "_refundAddress",
          "type": "address"
        },
        {
          "internalType": "address",
          "name": "_zroPaymentAddress",
          "type": "address"
        },
        {
          "internalType": "bytes",
          "name": "_adapterParams",
          "type": "bytes"
        }
      ],
      "name": "send",
      "outputs": [],
      "stateMutability": "payable",
      "type": "function"
    },
    {
      "inputs": [
        {
          "internalType": "uint16",
          "name": "_chainId",
          "type": "uint16"
        },
        {
          "internalType": "uint256",
          "name": "_size",
          "type": "uint256"
        }
      ],
      "name": "setChainAddressSize",
      "outputs": [],
      "stateMutability": "nonpayable",
      "type": "function"
    },
    {
      "inputs": [
        {
          "internalType": "uint16",
          "name": "_remoteChainId",
          "type": "uint16"
        },
        {
          "internalType": "address",
          "name": "_ua",
          "type": "address"
        },
        {
          "internalType": "uint256",
          "name": "_configType",
          "type": "uint256"
        },
        {
          "internalType": "bytes",
          "name": "_config",
          "type": "bytes"
        }
      ],
      "name": "setConfig",
      "outputs": [],
      "stateMutability": "nonpayable",
      "type": "function"
    },
    {
      "inputs": [
        {
          "internalType": "uint16",
          "name": "_chainId",
          "type": "uint16"
        },
        {
          "internalType": "uint16",
          "name": "_proofType",
          "type": "uint16"
        },
        {
          "internalType": "bytes",
          "name": "_adapterParams",
          "type": "bytes"
        }
      ],
      "name": "setDefaultAdapterParamsForChainId",
      "outputs": [],
      "stateMutability": "nonpayable",
      "type": "function"
    },
    {
      "inputs": [
        {
          "internalType": "uint16",
          "name": "_chainId",
          "type": "uint16"
        },
        {
          "internalType": "uint16",
          "name": "_inboundProofLibraryVersion",
          "type": "uint16"
        },
        {
          "internalType": "uint64",
          "name": "_inboundBlockConfirmations",
          "type": "uint64"
        },
        {
          "internalType": "address",
          "name": "_relayer",
          "type": "address"
        },
        {
          "internalType": "uint16",
          "name": "_outboundProofType",
          "type": "uint16"
        },
        {
          "internalType": "uint64",
          "name": "_outboundBlockConfirmations",
          "type": "uint64"
        },
        {
          "internalType": "address",
          "name": "_oracle",
          "type": "address"
        }
      ],
      "name": "setDefaultConfigForChainId",
      "outputs": [],
      "stateMutability": "nonpayable",
      "type": "function"
    },
    {
      "inputs": [
        {
          "internalType": "address",
          "name": "_layerZeroToken",
          "type": "address"
        }
      ],
      "name": "setLayerZeroToken",
      "outputs": [],
      "stateMutability": "nonpayable",
      "type": "function"
    },
    {
      "inputs": [
        {
          "internalType": "uint16",
          "name": "_remoteChainId",
          "type": "uint16"
        },
        {
          "internalType": "bytes32",
          "name": "_remoteUln",
          "type": "bytes32"
        }
      ],
      "name": "setRemoteUln",
      "outputs": [],
      "stateMutability": "nonpayable",
      "type": "function"
    },
    {
      "inputs": [
        {
          "internalType": "address",
          "name": "_treasury",
          "type": "address"
        }
      ],
      "name": "setTreasury",
      "outputs": [],
      "stateMutability": "nonpayable",
      "type": "function"
    },
    {
      "inputs": [
        {
          "internalType": "uint16",
          "name": "",
          "type": "uint16"
        },
        {
          "internalType": "uint16",
          "name": "",
          "type": "uint16"
        }
      ],
      "name": "supportedOutboundProof",
      "outputs": [
        {
          "internalType": "bool",
          "name": "",
          "type": "bool"
        }
      ],
      "stateMutability": "view",
      "type": "function"
    },
    {
      "inputs": [
        {
          "internalType": "address",
          "name": "newOwner",
          "type": "address"
        }
      ],
      "name": "transferOwnership",
      "outputs": [],
      "stateMutability": "nonpayable",
      "type": "function"
    },
    {
      "inputs": [],
      "name": "treasuryContract",
      "outputs": [
        {
          "internalType": "contract ILayerZeroTreasury",
          "name": "",
          "type": "address"
        }
      ],
      "stateMutability": "view",
      "type": "function"
    },
    {
      "inputs": [],
      "name": "treasuryZROFees",
      "outputs": [
        {
          "internalType": "uint256",
          "name": "",
          "type": "uint256"
        }
      ],
      "stateMutability": "view",
      "type": "function"
    },
    {
      "inputs": [
        {
          "internalType": "uint16",
          "name": "",
          "type": "uint16"
        }
      ],
      "name": "ulnLookup",
      "outputs": [
        {
          "internalType": "bytes32",
          "name": "",
          "type": "bytes32"
        }
      ],
      "stateMutability": "view",
      "type": "function"
    },
    {
      "inputs": [
        {
          "internalType": "uint16",
          "name": "_srcChainId",
          "type": "uint16"
        },
        {
          "internalType": "bytes32",
          "name": "_lookupHash",
          "type": "bytes32"
        },
        {
          "internalType": "uint256",
          "name": "_confirmations",
          "type": "uint256"
        },
        {
          "internalType": "bytes32",
          "name": "_blockData",
          "type": "bytes32"
        }
      ],
      "name": "updateHash",
      "outputs": [],
      "stateMutability": "nonpayable",
      "type": "function"
    },
    {
      "inputs": [
        {
          "internalType": "uint16",
          "name": "_srcChainId",
          "type": "uint16"
        },
        {
          "internalType": "address",
          "name": "_dstAddress",
          "type": "address"
        },
        {
          "internalType": "uint256",
          "name": "_gasLimit",
          "type": "uint256"
        },
        {
          "internalType": "bytes32",
          "name": "_lookupHash",
          "type": "bytes32"
        },
        {
          "internalType": "bytes32",
          "name": "_blockData",
          "type": "bytes32"
        },
        {
          "internalType": "bytes",
          "name": "_transactionProof",
          "type": "bytes"
        }
      ],
      "name": "validateTransactionProof",
      "outputs": [],
      "stateMutability": "nonpayable",
      "type": "function"
    },
    {
      "inputs": [
        {
          "internalType": "address payable",
          "name": "_to",
          "type": "address"
        },
        {
          "internalType": "uint256",
          "name": "_amount",
          "type": "uint256"
        }
      ],
      "name": "withdrawNative",
      "outputs": [],
      "stateMutability": "nonpayable",
      "type": "function"
    },
    {
      "inputs": [
        {
          "internalType": "address",
          "name": "_to",
          "type": "address"
        },
        {
          "internalType": "uint256",
          "name": "_amount",
          "type": "uint256"
        }
      ],
      "name": "withdrawZRO",
      "outputs": [],
      "stateMutability": "nonpayable",
      "type": "function"
    }
  ],
  "bytecode": "0x60e06040523480156200001157600080fd5b5060405162003f7338038062003f738339810160408190526200003491620001b1565b6001600055620000443362000142565b6001600160a01b038316620000b35760405162461bcd60e51b815260206004820152602a60248201527f4c617965725a65726f3a20656e64706f696e742063616e6e6f74206265207a65604482015269726f206164647265737360b01b60648201526084015b60405180910390fd5b6001600160a01b038216620001235760405162461bcd60e51b815260206004820152602f60248201527f4c617965725a65726f3a206e6f6e6365436f6e74726163742063616e6e6f742060448201526e6265207a65726f206164647265737360881b6064820152608401620000aa565b61ffff1660a0526001600160a01b039182166080521660c05262000205565b600180546001600160a01b038381166001600160a01b0319831681179093556040519116919082907f8be0079c531659141344cd1fd0a4f28419497f9722a3daafe3b4186f6b6457e090600090a35050565b80516001600160a01b0381168114620001ac57600080fd5b919050565b600080600060608486031215620001c757600080fd5b620001d28462000194565b9250620001e26020850162000194565b9150604084015161ffff81168114620001fa57600080fd5b809150509250925092565b60805160a05160c051613d146200025f60003960008181610289015281816111a2015261229c0152600081816104c701526113f401526000818161050e01528181610f35015281816121c801526125750152613d146000f3fe6080604052600436106102725760003560e01c80638317814a1161014f578063b9a99bed116100c1578063ed28580a1161007a578063ed28580a146109a6578063f0f44260146109c6578063f2fde38b146109e6578063f47a5feb14610a06578063f58589a214610a1c578063f8e1734c14610a4957600080fd5b8063b9a99bed14610813578063d543c7741461084b578063db00719b14610896578063ddfdef5a146108d7578063ea216c2114610959578063eb0d4c311461098657600080fd5b8063904d3b8d11610113578063904d3b8d146106d5578063959f5943146106ea578063987fa2d514610717578063a46622221461073b578063b77d22ad146107cd578063b8e7e3e0146107e257600080fd5b80638317814a146106375780638525b7111461065757806387078f9f146106775780638da5cb5b146106975780638debb0b5146106b557600080fd5b806352d2871f116101e85780636a14ac82116101ac5780636a14ac8214610566578063704316e514610586578063715018a6146105a6578063759c5b3b146105bb5780638140666e146106025780638207f79d1461061757600080fd5b806352d2871f1461047557806352d3b500146104955780635b056da5146104b55780635e280f11146104fc57806369412bfa1461053057600080fd5b80632cfacb061161023a5780632cfacb06146103575780632f8134641461037a57806331bd24301461040357806340a7bb101461041857806349148c371461044d5780634d3a0f7c1461046257600080fd5b806302bd97431461027757806307b18bde146102c857806307b9ca7c146102ea57806318da00111461030a5780632a819bbf1461032a575b600080fd5b34801561028357600080fd5b506102ab7f000000000000000000000000000000000000000000000000000000000000000081565b6040516001600160a01b0390911681526020015b60405180910390f35b3480156102d457600080fd5b506102e86102e3366004613181565b610a69565b005b3480156102f657600080fd5b506002546102ab906001600160a01b031681565b34801561031657600080fd5b506003546102ab906001600160a01b031681565b34801561033657600080fd5b5061034a6103453660046131bf565b610c3f565b6040516102bf919061324a565b34801561036357600080fd5b5061036c600381565b6040519081526020016102bf565b34801561038657600080fd5b506103f161039536600461325d565b6007602052600090815260409020805460019091015461ffff808316926001600160401b036201000082048116936001600160a01b03600160501b8404811694600160f01b9094049093169291811691600160401b9091041686565b6040516102bf96959493929190613278565b34801561040f57600080fd5b5061036c600681565b34801561042457600080fd5b50610438610433366004613316565b610ce4565b604080519283526020830191909152016102bf565b34801561045957600080fd5b5061036c600281565b6102e86104703660046133dd565b610f33565b34801561048157600080fd5b5061034a6104903660046134d0565b61148d565b3480156104a157600080fd5b506102e86104b036600461350f565b6117b1565b3480156104c157600080fd5b506104e97f000000000000000000000000000000000000000000000000000000000000000081565b60405161ffff90911681526020016102bf565b34801561050857600080fd5b506102ab7f000000000000000000000000000000000000000000000000000000000000000081565b34801561053c57600080fd5b5061036c61054b36600461350f565b6001600160a01b031660009081526004602052604090205490565b34801561057257600080fd5b506102e861058136600461352c565b611873565b34801561059257600080fd5b506102e86105a13660046135bc565b611c63565b3480156105b257600080fd5b506102e8611d8b565b3480156105c757600080fd5b5061036c6105d63660046135f5565b600d60209081526000948552604080862082529385528385208152918452828420909152825290205481565b34801561060e57600080fd5b5061036c600481565b34801561062357600080fd5b506102e8610632366004613639565b611d9f565b34801561064357600080fd5b506102e8610652366004613670565b611f15565b34801561066357600080fd5b506102e8610672366004613181565b611f92565b34801561068357600080fd5b506102e86106923660046136d0565b6120b4565b3480156106a357600080fd5b506001546001600160a01b03166102ab565b3480156106c157600080fd5b506102e86106d03660046136ec565b61218a565b3480156106e157600080fd5b5061036c600581565b3480156106f657600080fd5b5061036c61070536600461325d565b600c6020526000908152604090205481565b34801561072357600080fd5b506102e861073236600461379e565b50505050505050565b34801561074757600080fd5b5061075b610756366004613639565b612246565b6040516102bf9190600060c08201905061ffff80845116835260208401516001600160401b0380821660208601526040860151915060018060a01b0380831660408701528360608801511660608701528160808801511660808701528060a08801511660a08701525050505092915050565b3480156107d957600080fd5b5061036c600181565b3480156107ee57600080fd5b506104e96107fd36600461325d565b600a6020526000908152604090205461ffff1681565b34801561081f57600080fd5b5061083361082e36600461380e565b612282565b6040516001600160401b0390911681526020016102bf565b34801561085757600080fd5b506108866108663660046131bf565b600b60209081526000928352604080842090915290825290205460ff1681565b60405190151581526020016102bf565b3480156108a257600080fd5b506102ab6108b13660046131bf565b60096020908152600092835260408084209091529082529020546001600160a01b031681565b3480156108e357600080fd5b506103f16108f2366004613860565b60066020908152600092835260408084209091529082529020805460019091015461ffff808316926001600160401b036201000082048116936001600160a01b03600160501b8404811694600160f01b9094049093169291811691600160401b9091041686565b34801561096557600080fd5b5061036c61097436600461325d565b600e6020526000908152604090205481565b34801561099257600080fd5b506102e86109a13660046131bf565b61231e565b3480156109b257600080fd5b506102e86109c13660046136d0565b612384565b3480156109d257600080fd5b506102e86109e136600461350f565b61243f565b3480156109f257600080fd5b506102e8610a0136600461350f565b6124fa565b348015610a1257600080fd5b5061036c60055481565b348015610a2857600080fd5b5061036c610a3736600461350f565b60046020526000908152604090205481565b348015610a5557600080fd5b506102e8610a6436600461387e565b612573565b60026000541415610ac15760405162461bcd60e51b815260206004820152601f60248201527f5265656e7472616e637947756172643a207265656e7472616e742063616c6c0060448201526064015b60405180910390fd5b60026000556001600160a01b038216610b2a5760405162461bcd60e51b815260206004820152602560248201527f4c617965725a65726f3a205f746f2063616e6e6f74206265207a65726f206164604482015264647265737360d81b6064820152608401610ab8565b33600090815260046020526040902054610b44908261286c565b336000908152600460205260408082209290925590516001600160a01b0384169083908381818185875af1925050503d8060008114610b9f576040519150601f19603f3d011682016040523d82523d6000602084013e610ba4565b606091505b5050905080610bf55760405162461bcd60e51b815260206004820152601a60248201527f4c617965725a65726f3a207769746864726177206661696c65640000000000006044820152606401610ab8565b6040518281526001600160a01b0384169033907f3bfd26201736b5cb14a562ab3cfc2bef76901726e3a78483d6288af47131e1d99060200160405180910390a35050600160005550565b600860209081526000928352604080842090915290825290208054610c63906138ee565b80601f0160208091040260200160405190810160405280929190818152602001828054610c8f906138ee565b8015610cdc5780601f10610cb157610100808354040283529160200191610cdc565b820191906000526020600020905b815481529060010190602001808311610cbf57829003601f168201915b505050505081565b6000806000610cf38a8a612878565b905060608415610d3c5785858080601f016020809104026020016040519081016040528093929190818152602001838380828437600092019190915250929350610ded92505050565b61ffff808c16600090815260086020908152604080832060608701519094168352929052208054610d6c906138ee565b80601f0160208091040260200160405190810160405280929190818152602001828054610d98906138ee565b8015610de55780601f10610dba57610100808354040283529160200191610de5565b820191906000526020600020905b815481529060010190602001808311610dc857829003601f168201915b505050505090505b600082604001516001600160a01b031663c03f15298d85606001518e8e8e9050876040518663ffffffff1660e01b8152600401610e2e959493929190613929565b602060405180830381865afa158015610e4b573d6000803e3d6000fd5b505050506040513d601f19601f82011682018060405250810190610e6f9190613966565b600354604051635cbbbd7560e01b81528a15156004820152602481018390526000604482018190529293508d929182916001600160a01b0390911690635cbbbd7590606401602060405180830381865afa158015610ed1573d6000803e3d6000fd5b505050506040513d601f19601f82011682018060405250810190610ef59190613966565b90508a610f055780975087610f0a565b809650865b50610f1f82610f198a87612a1d565b90612a1d565b975050505050505097509795505050505050565b7f00000000000000000000000000000000000000000000000000000000000000006001600160a01b03163314610fa65760405162461bcd60e51b815260206004820152601860248201527713185e595c96995c9bce881bdb9b1e48195b991c1bda5b9d60421b6044820152606401610ab8565b61ffff89166000908152600e60205260409020548b908a906110165760405162461bcd60e51b8152602060048201526024808201527f4c617965725a65726f3a20647374436861696e496420646f6573206e6f7420656044820152631e1a5cdd60e21b6064820152608401610ab8565b61ffff81166000908152600c60205260408120546060919080158015906110465750611043816014613995565b8c145b6110a35760405162461bcd60e51b815260206004820152602860248201527f4c617965725a65726f3a20696e636f72726563742072656d6f746520616464726044820152676573732073697a6560c01b6064820152608401610ab8565b6000808e8e8080601f01602080910402602001604051908101604052809392919081815260200183838082843760009201919091525050505083810160140151925090506001600160a01b03878116908316146111425760405162461bcd60e51b815260206004820152601a60248201527f4c617965725a65726f3a2077726f6e67207061746820646174610000000000006044820152606401610ab8565b8e8e6000908592611155939291906139ad565b8080601f01602080910402602001604051908101604052809392919081815260200183838082843760009201919091525050604051636fe7b67360e01b8152929750506001600160a01b037f00000000000000000000000000000000000000000000000000000000000000001691636fe7b67391506111dc9089908b9086906004016139d7565b6020604051808303816000875af11580156111fb573d6000803e3d6000fd5b505050506040513d601f19601f8201168201806040525081019061121f9190613a0e565b935050505060008a8a8080601f016020809104026020016040519081016040528093929190818152602001838380828437600092018290525093945061126b9250879150889050612878565b905060006112b386838986518d8d8080601f016020809104026020016040519081016040528093929190818152602001838380828437600092019190915250612a2992505050565b90506000806112c483838b8f612bbd565b905060006112d682610f198686612a1d565b9050348111156113365760405162461bcd60e51b815260206004820152602560248201527f4c617965725a65726f3a206e6f7420656e6f756768206e617469766520666f72604482015264206665657360d81b6064820152608401610ab8565b6000611342348361286c565b905080156113ef5760008f6001600160a01b03168260405160006040518083038185875af1925050503d8060008114611397576040519150601f19603f3d011682016040523d82523d6000602084013e61139c565b606091505b50509050806113ed5760405162461bcd60e51b815260206004820152601b60248201527f4c617965725a65726f3a206661696c656420746f20726566756e6400000000006044820152606401610ab8565b505b6000887f00000000000000000000000000000000000000000000000000000000000000008d8d8d8c60405160200161142c96959493929190613a2b565b60405160208183030381529060405290507fe9bded5f24a4168e4f3bf44e00298c993b22376aad8c58c7dda9718a54cbea828160405161146c919061324a565b60405180910390a15050505050505050505050505050505050505050505050565b6001600160a01b038216600090815260066020908152604080832061ffff871684529091529020606090600183141561151b57805461ffff166115045761ffff858116600090815260076020908152604091829020548251931690830152015b6040516020818303038152906040529150506117aa565b80546040805161ffff9092166020830152016114ed565b60028314156115915780546201000090046001600160401b03166115705761ffff8516600090815260076020908152604091829020548251620100009091046001600160401b031691810191909152016114ed565b805460408051620100009092046001600160401b03166020830152016114ed565b600383141561160a578054600160501b90046001600160a01b03166115e85761ffff8516600090815260076020908152604091829020548251600160501b9091046001600160a01b031691810191909152016114ed565b805460408051600160501b9092046001600160a01b03166020830152016114ed565b6004831415611671578054600160f01b900461ffff166116545761ffff858116600090815260076020908152604091829020548251600160f01b90910490931690830152016114ed565b805460408051600160f01b90920461ffff166020830152016114ed565b60058314156116e05760018101546001600160401b03166116c15761ffff85166000908152600760209081526040918290206001015482516001600160401b0390911691810191909152016114ed565b6001810154604080516001600160401b039092166020830152016114ed565b6006831415611762576001810154600160401b90046001600160a01b031661173d5761ffff8516600090815260076020908152604091829020600101548251600160401b9091046001600160a01b031691810191909152016114ed565b600181015460408051600160401b9092046001600160a01b03166020830152016114ed565b60405162461bcd60e51b815260206004820152601e60248201527f4c617965725a65726f3a20496e76616c696420636f6e666967207479706500006044820152606401610ab8565b9392505050565b6117b9612d48565b6001600160a01b0381166118295760405162461bcd60e51b815260206004820152603160248201527f4c617965725a65726f3a205f6c617965725a65726f546f6b656e2063616e6e6f60448201527074206265207a65726f206164647265737360781b6064820152608401610ab8565b600280546001600160a01b0319166001600160a01b0383169081179091556040517f33d644987381deff4408951d55afa136f124e22a7810b163b2aaa3ebef770f6490600090a250565b61187b612d48565b61ffff8088166000908152600a60205260409020548116908716118015906118a7575060008661ffff16115b6118c35760405162461bcd60e51b8152600401610ab890613aaf565b6000856001600160401b0316116119325760405162461bcd60e51b815260206004820152602d60248201527f4c617965725a65726f3a20696e76616c696420696e626f756e6420626c6f636b60448201526c1031b7b73334b936b0ba34b7b760991b6064820152608401610ab8565b6001600160a01b0384166119935760405162461bcd60e51b815260206004820152602260248201527f4c617965725a65726f3a20696e76616c69642072656c61796572206164647265604482015261737360f01b6064820152608401610ab8565b61ffff8088166000908152600b602090815260408083209387168352929052205460ff166119d35760405162461bcd60e51b8152600401610ab890613aff565b6000826001600160401b031611611a435760405162461bcd60e51b815260206004820152602e60248201527f4c617965725a65726f3a20696e76616c6964206f7574626f756e6420626c6f6360448201526d359031b7b73334b936b0ba34b7b760911b6064820152608401610ab8565b6001600160a01b038116611aa35760405162461bcd60e51b815260206004820152602160248201527f4c617965725a65726f3a20696e76616c6964206f7261636c65206164647265736044820152607360f81b6064820152608401610ab8565b6040518060c001604052808761ffff168152602001866001600160401b03168152602001856001600160a01b031681526020018461ffff168152602001836001600160401b03168152602001826001600160a01b0316815250600760008961ffff1661ffff16815260200190815260200160002060008201518160000160006101000a81548161ffff021916908361ffff16021790555060208201518160000160026101000a8154816001600160401b0302191690836001600160401b03160217905550604082015181600001600a6101000a8154816001600160a01b0302191690836001600160a01b03160217905550606082015181600001601e6101000a81548161ffff021916908361ffff16021790555060808201518160010160006101000a8154816001600160401b0302191690836001600160401b0316021790555060a08201518160010160086101000a8154816001600160a01b0302191690836001600160a01b031602179055509050508661ffff167f5a76432853a0871c4e780def7f3ffc7912339b53f022ac31127fe5ff84a36fa1878787878787604051611c5296959493929190613278565b60405180910390a250505050505050565b336000908152600d6020908152604080832061ffff8816845282528083208684528252808320848452909152902054828110611d135760405162461bcd60e51b815260206004820152604360248201527f4c617965725a65726f3a206f7261636c6520646174612063616e206f6e6c792060448201527f75706461746520696620697420686173206d6f726520636f6e6669726d6174696064820152626f6e7360e81b608482015260a401610ab8565b336000818152600d6020908152604080832061ffff8a168085529083528184208985528352818420878552835292819020879055805188815291820186905281018690527f74bbc026808dcba59692d6a8bb20596849ca718e10e2432c6cdf48af865bc5d99060600160405180910390a35050505050565b611d93612d48565b611d9d6000612da2565b565b611da7612d48565b6001600160a01b038116611e0f5760405162461bcd60e51b815260206004820152602960248201527f4c617965725a65726f3a206c6962726172792063616e6e6f74206265207a65726044820152686f206164647265737360b81b6064820152608401610ab8565b61ffff8083166000908152600a60205260409020548116908110611e805760405162461bcd60e51b815260206004820152602260248201527f4c617965725a65726f3a2063616e206e6f7420616464206e6577206c69627261604482015261727960f01b6064820152608401610ab8565b611e8981613b45565b61ffff8481166000818152600a60209081526040808320805461ffff19169587169586179055600982528083209483529381529083902080546001600160a01b0319166001600160a01b0388169081179091559251928352929350917f802d55279d51813cb7a9a98e8fd2d7bec5346cb830901c11b85d1650cb857e9a910160405180910390a2505050565b611f1d612d48565b61ffff8085166000908152600860209081526040808320938716835292905220611f489083836130c3565b508261ffff168461ffff167f4a5695eee2a74d548d5f5c485a3de99ace99e3b664c8e30a90f49be6ebb549328484604051611f84929190613b90565b60405180910390a350505050565b60026000541415611fe55760405162461bcd60e51b815260206004820152601f60248201527f5265656e7472616e637947756172643a207265656e7472616e742063616c6c006044820152606401610ab8565b60026000556003546001600160a01b031633146120445760405162461bcd60e51b815260206004820152601860248201527f4c617965725a65726f3a206f6e6c7920747265617375727900000000000000006044820152606401610ab8565b600554612051908261286c565b60055560025461206b906001600160a01b03168383612df4565b6040518181526001600160a01b0383169033907f3a20c8c3cd1848485ae8261a52398bb9b26f195b717306b3cf7f058e62c095d59060200160405180910390a350506001600055565b6120bc612d48565b61ffff82166000908152600c6020526040902054156121365760405162461bcd60e51b815260206004820152603060248201527f4c617965725a65726f3a2072656d6f746520636861696e20616464726573732060448201526f1cda5e9948185b1c9958591e481cd95d60821b6064820152608401610ab8565b61ffff82166000818152600c602052604090819020839055517f0611bb2107e385b79ec826fff8ecc1c1248a7aae3c875c96668f8cfbf17342209061217e9084815260200190565b60405180910390a25050565b60008787876040516020016121a193929190613ba4565b60408051601f198184030181529082905263c2fa481360e01b825291506001600160a01b037f0000000000000000000000000000000000000000000000000000000000000000169063c2fa481390612209908c9085908b908b908b908b908b90600401613bca565b600060405180830381600087803b15801561222357600080fd5b505af1158015612237573d6000803e3d6000fd5b50505050505050505050505050565b6040805160c081018252600080825260208201819052918101829052606081018290526080810182905260a08101919091526117aa8383612878565b60405163c533338f60e01b81526000906001600160a01b037f0000000000000000000000000000000000000000000000000000000000000000169063c533338f906122d590879087908790600401613c2d565b602060405180830381865afa1580156122f2573d6000803e3d6000fd5b505050506040513d601f19601f820116820180604052508101906123169190613a0e565b949350505050565b612326612d48565b61ffff8281166000818152600b6020908152604080832094861680845294825291829020805460ff19166001179055905192835290917fec23bee6f88cfecebb09d6aaaed66f0ce110debc1f61117c8270a7116597df9a910161217e565b61238c612d48565b61ffff82166000908152600e6020526040902054156123f75760405162461bcd60e51b815260206004820152602160248201527f4c617965725a65726f3a2072656d6f746520756c6e20616c72656164792073656044820152601d60fa1b6064820152608401610ab8565b61ffff82166000818152600e602052604090819020839055517f0dad975e1d2fbe771c95cdcc7be9a1e61181de7173abe0a32b8f8f83140873e59061217e9084815260200190565b612447612d48565b6001600160a01b0381166124b05760405162461bcd60e51b815260206004820152602a60248201527f4c617965725a65726f3a2074726561737572792063616e6e6f74206265207a65604482015269726f206164647265737360b01b6064820152608401610ab8565b600380546001600160a01b0319166001600160a01b0383169081179091556040517fcb7ef3e545f5cdb893f5c568ba710fe08f336375a2d9fd66e161033f8fc09ef390600090a250565b612502612d48565b6001600160a01b0381166125675760405162461bcd60e51b815260206004820152602660248201527f4f776e61626c653a206e6577206f776e657220697320746865207a65726f206160448201526564647265737360d01b6064820152608401610ab8565b61257081612da2565b50565b7f00000000000000000000000000000000000000000000000000000000000000006001600160a01b031633146125e65760405162461bcd60e51b815260206004820152601860248201527713185e595c96995c9bce881bdb9b1e48195b991c1bda5b9d60421b6044820152606401610ab8565b6001600160a01b038416600090815260066020908152604080832061ffff89168452909152902060018414156126765760006126248385018561325d565b61ffff8089166000908152600a602052604090205491925090811690821611156126605760405162461bcd60e51b8152600401610ab890613aaf565b815461ffff191661ffff91909116178155612820565b60028414156126b757600061268d83850185613c4b565b82546001600160401b03909116620100000269ffffffffffffffff00001990911617825550612820565b600384141561270e5760006126ce8385018561350f565b82546001600160a01b03909116600160501b027fffff0000000000000000000000000000000000000000ffffffffffffffffffff90911617825550612820565b60048414156127965760006127258385018561325d565b61ffff8089166000908152600b602090815260408083209385168352929052205490915060ff1680612759575061ffff8116155b6127755760405162461bcd60e51b8152600401610ab890613aff565b815461ffff909116600160f01b026001600160f01b03909116178155612820565b60058414156127d65760006127ad83850185613c4b565b60018301805467ffffffffffffffff19166001600160401b039290921691909117905550612820565b60068414156117625760006127ed8385018561350f565b6001830180546001600160a01b03909216600160401b0268010000000000000000600160e01b0319909216919091179055505b83856001600160a01b03167ffc01bf86212a14151d51d1be5c2ac64d67d5ec823dfc6f53298d7ce3f3d3d252858560405161285c929190613b90565b60405180910390a3505050505050565b60006117aa8284613c68565b6040805160c081018252600080825260208201819052918101829052606081018290526080810182905260a08101919091526001600160a01b03808316600090815260066020908152604080832061ffff808916808652918452828520835160c081018552815480841682526001600160401b03620100008204811683890152600160501b82048a1683880152600160f01b909104841660608301526001909201549182166080820152600160401b90910490961660a08701529084526007909252909120825190911661294f57805461ffff1682525b60208201516001600160401b03166129785780546201000090046001600160401b031660208301525b60408201516001600160a01b03166129a2578054600160501b90046001600160a01b031660408301525b606082015161ffff166129c2578054600160f01b900461ffff1660608301525b60808201516001600160401b03166129e85760018101546001600160401b031660808301525b60a08201516001600160a01b0316612a15576001810154600160401b90046001600160a01b031660a08301525b509392505050565b60006117aa8284613995565b6000815160001415612ae65761ffff808716600090815260086020908152604080832060608a01519094168352929052208054612a65906138ee565b80601f0160208091040260200160405190810160405280929190818152602001828054612a91906138ee565b8015612ade5780601f10612ab357610100808354040283529160200191612ade565b820191906000526020600020905b815481529060010190602001808311612ac157829003601f168201915b505050505091505b60408086015160608701519151635886ea6560e01b8152909182916001600160a01b03831691635886ea6591612b26918c918b908b908b90600401613929565b6020604051808303816000875af1158015612b45573d6000803e3d6000fd5b505050506040513d601f19601f82011682018060405250810190612b699190613966565b9250612b758284612e5c565b7fb0c632f55f1e1b3b2c3d82f41ee4716bb4c00f0f5d84cdafc141581bb8757a4f848860600151604051612baa929190613c7f565b60405180910390a1505095945050505050565b6000806001600160a01b0383161580612bdf57506002546001600160a01b0316155b600354604051635cbbbd7560e01b81528215600482015260248101899052604481018890529192506000916001600160a01b0390911690635cbbbd7590606401602060405180830381865afa158015612c3c573d6000803e3d6000fd5b505050506040513d601f19601f82011682018060405250810190612c609190613966565b90508015612d3e578115612c8d576003546001600160a01b0316612c848183612e5c565b81935050612d3e565b846001600160a01b0316846001600160a01b03161480612cb557506001600160a01b03841632145b612d155760405162461bcd60e51b815260206004820152602b60248201527f4c617965725a65726f3a206d75737420626520706169642062792073656e646560448201526a391037b91037b934b3b4b760a91b6064820152608401610ab8565b600254612d2d906001600160a01b0316853084612e9f565b600554612d3a9082612a1d565b6005555b5050949350505050565b6001546001600160a01b03163314611d9d5760405162461bcd60e51b815260206004820181905260248201527f4f776e61626c653a2063616c6c6572206973206e6f7420746865206f776e65726044820152606401610ab8565b600180546001600160a01b038381166001600160a01b0319831681179093556040519116919082907f8be0079c531659141344cd1fd0a4f28419497f9722a3daafe3b4186f6b6457e090600090a35050565b6040516001600160a01b038316602482015260448101829052612e5790849063a9059cbb60e01b906064015b60408051601f198184030181529190526020810180516001600160e01b03166001600160e01b031990931692909217909152612edd565b505050565b6001600160a01b038216600090815260046020526040902054612e7f9082612a1d565b6001600160a01b0390921660009081526004602052604090209190915550565b6040516001600160a01b0380851660248301528316604482015260648101829052612ed79085906323b872dd60e01b90608401612e20565b50505050565b6000612f32826040518060400160405280602081526020017f5361666545524332303a206c6f772d6c6576656c2063616c6c206661696c6564815250856001600160a01b0316612faf9092919063ffffffff16565b805190915015612e575780806020019051810190612f509190613ca5565b612e575760405162461bcd60e51b815260206004820152602a60248201527f5361666545524332303a204552433230206f7065726174696f6e20646964206e6044820152691bdd081cdd58d8d9595960b21b6064820152608401610ab8565b60606123168484600085856001600160a01b0385163b6130115760405162461bcd60e51b815260206004820152601d60248201527f416464726573733a2063616c6c20746f206e6f6e2d636f6e74726163740000006044820152606401610ab8565b600080866001600160a01b0316858760405161302d9190613cc2565b60006040518083038185875af1925050503d806000811461306a576040519150601f19603f3d011682016040523d82523d6000602084013e61306f565b606091505b509150915061307f82828661308a565b979650505050505050565b606083156130995750816117aa565b8251156130a95782518084602001fd5b8160405162461bcd60e51b8152600401610ab8919061324a565b8280546130cf906138ee565b90600052602060002090601f0160209004810192826130f15760008555613137565b82601f1061310a5782800160ff19823516178555613137565b82800160010185558215613137579182015b8281111561313757823582559160200191906001019061311c565b50613143929150613147565b5090565b5b808211156131435760008155600101613148565b6001600160a01b038116811461257057600080fd5b803561317c8161315c565b919050565b6000806040838503121561319457600080fd5b823561319f8161315c565b946020939093013593505050565b803561ffff8116811461317c57600080fd5b600080604083850312156131d257600080fd5b6131db836131ad565b91506131e9602084016131ad565b90509250929050565b60005b8381101561320d5781810151838201526020016131f5565b83811115612ed75750506000910152565b600081518084526132368160208601602086016131f2565b601f01601f19169290920160200192915050565b6020815260006117aa602083018461321e565b60006020828403121561326f57600080fd5b6117aa826131ad565b61ffff96871681526001600160401b0395861660208201526001600160a01b03948516604082015292909516606083015290921660808301529190911660a082015260c00190565b60008083601f8401126132d257600080fd5b5081356001600160401b038111156132e957600080fd5b60208301915083602082850101111561330157600080fd5b9250929050565b801515811461257057600080fd5b600080600080600080600060a0888a03121561333157600080fd5b61333a886131ad565b9650602088013561334a8161315c565b955060408801356001600160401b038082111561336657600080fd5b6133728b838c016132c0565b909750955060608a0135915061338782613308565b9093506080890135908082111561339d57600080fd5b506133aa8a828b016132c0565b989b979a50959850939692959293505050565b6001600160401b038116811461257057600080fd5b803561317c816133bd565b60008060008060008060008060008060006101008c8e0312156133ff57600080fd5b6134088c613171565b9a5061341660208d016133d2565b995061342460408d016131ad565b98506001600160401b038060608e0135111561343f57600080fd5b61344f8e60608f01358f016132c0565b909950975060808d013581101561346557600080fd5b6134758e60808f01358f016132c0565b909750955061348660a08e01613171565b945061349460c08e01613171565b93508060e08e013511156134a757600080fd5b506134b88d60e08e01358e016132c0565b81935080925050509295989b509295989b9093969950565b6000806000606084860312156134e557600080fd5b6134ee846131ad565b925060208401356134fe8161315c565b929592945050506040919091013590565b60006020828403121561352157600080fd5b81356117aa8161315c565b600080600080600080600060e0888a03121561354757600080fd5b613550886131ad565b965061355e602089016131ad565b9550604088013561356e816133bd565b9450606088013561357e8161315c565b935061358c608089016131ad565b925060a088013561359c816133bd565b915060c08801356135ac8161315c565b8091505092959891949750929550565b600080600080608085870312156135d257600080fd5b6135db856131ad565b966020860135965060408601359560600135945092505050565b6000806000806080858703121561360b57600080fd5b84356136168161315c565b9350613624602086016131ad565b93969395505050506040820135916060013590565b6000806040838503121561364c57600080fd5b613655836131ad565b915060208301356136658161315c565b809150509250929050565b6000806000806060858703121561368657600080fd5b61368f856131ad565b935061369d602086016131ad565b925060408501356001600160401b038111156136b857600080fd5b6136c4878288016132c0565b95989497509550505050565b600080604083850312156136e357600080fd5b61319f836131ad565b60008060008060008060008060c0898b03121561370857600080fd5b613711896131ad565b975060208901356001600160401b038082111561372d57600080fd5b6137398c838d016132c0565b909950975060408b0135915061374e8261315c565b90955060608a013590613760826133bd565b90945060808a0135935060a08a0135908082111561377d57600080fd5b5061378a8b828c016132c0565b999c989b5096995094979396929594505050565b600080600080600080600060c0888a0312156137b957600080fd5b6137c2886131ad565b965060208801356137d28161315c565b955060408801359450606088013593506080880135925060a08801356001600160401b0381111561380257600080fd5b6133aa8a828b016132c0565b60008060006040848603121561382357600080fd5b61382c846131ad565b925060208401356001600160401b0381111561384757600080fd5b613853868287016132c0565b9497909650939450505050565b6000806040838503121561387357600080fd5b82356131db8161315c565b60008060008060006080868803121561389657600080fd5b61389f866131ad565b945060208601356138af8161315c565b93506040860135925060608601356001600160401b038111156138d157600080fd5b6138dd888289016132c0565b969995985093965092949392505050565b600181811c9082168061390257607f821691505b6020821081141561392357634e487b7160e01b600052602260045260246000fd5b50919050565b61ffff8681168252851660208201526001600160a01b03841660408201526060810183905260a06080820181905260009061307f9083018461321e565b60006020828403121561397857600080fd5b5051919050565b634e487b7160e01b600052601160045260246000fd5b600082198211156139a8576139a861397f565b500190565b600080858511156139bd57600080fd5b838611156139ca57600080fd5b5050820193919092039150565b61ffff841681526001600160a01b0383166020820152606060408201819052600090613a059083018461321e565b95945050505050565b600060208284031215613a2057600080fd5b81516117aa816133bd565b6001600160401b0360c01b8760c01b168152600061ffff60f01b808860f01b1660088401526bffffffffffffffffffffffff198760601b16600a840152808660f01b16601e840152508351613a878160208501602088016131f2565b80830190508351613a9f8160208401602088016131f2565b0160200198975050505050505050565b60208082526030908201527f4c617965725a65726f3a20696e76616c696420696e626f756e642070726f6f6660408201526f103634b13930b93c903b32b939b4b7b760811b606082015260800190565b60208082526026908201527f4c617965725a65726f3a20696e76616c6964206f7574626f756e642070726f6f60408201526566207479706560d01b606082015260800190565b600061ffff80831681811415613b5d57613b5d61397f565b6001019392505050565b81835281816020850137506000828201602090810191909152601f909101601f19169091010190565b602081526000612316602083018486613b67565b8284823760609190911b6bffffffffffffffffffffffff19169101908152601401919050565b61ffff8816815260c060208201526000613be760c083018961321e565b6001600160a01b03881660408401526001600160401b03871660608401526080830186905282810360a0840152613c1f818587613b67565b9a9950505050505050505050565b61ffff84168152604060208201526000613a05604083018486613b67565b600060208284031215613c5d57600080fd5b81356117aa816133bd565b600082821015613c7a57613c7a61397f565b500390565b604081526000613c92604083018561321e565b905061ffff831660208301529392505050565b600060208284031215613cb757600080fd5b81516117aa81613308565b60008251613cd48184602087016131f2565b919091019291505056fea2646970667358221220daea5cacee1295a1e5f8a105e947624e49057682cb7a6dc404616e2e5d64975a64736f6c634300080c0033",
  "linkReferences": {},
  "deployedLinkReferences": {}
}