{
  "_format": "hh-sol-artifact-1",
  "contractName": "ProxyOFT",
  "sourceName": "contracts/token/oft/extension/ProxyOFT.sol",
  "abi": [
    {
      "inputs": [
        {
          "internalType": "address",
          "name": "_lzEndpoint",
          "type": "address"
        },
        {
          "internalType": "address",
          "name": "_token",
          "type": "address"
        }
      ],
      "stateMutability": "nonpayable",
      "type": "constructor"
    },
    {
      "anonymous": false,
      "inputs": [
        {
          "indexed": false,
          "internalType": "uint16",
          "name": "_srcChainId",
          "type": "uint16"
        },
        {
          "indexed": false,
          "internalType": "bytes",
          "name": "_srcAddress",
          "type": "bytes"
        },
        {
          "indexed": false,
          "internalType": "uint64",
          "name": "_nonce",
          "type": "uint64"
        },
        {
          "indexed": false,
          "internalType": "bytes",
          "name": "_payload",
          "type": "bytes"
        },
        {
          "indexed": false,
          "internalType": "bytes",
          "name": "_reason",
          "type": "bytes"
        }
      ],
      "name": "MessageFailed",
      "type": "event"
    },
    {
      "anonymous": false,
      "inputs": [
        {
          "indexed": true,
          "internalType": "address",
          "name": "previousOwner",
          "type": "address"
        },
        {
          "indexed": true,
          "internalType": "address",
          "name": "newOwner",
          "type": "address"
        }
      ],
      "name": "OwnershipTransferred",
      "type": "event"
    },
    {
      "anonymous": false,
      "inputs": [
        {
          "indexed": true,
          "internalType": "uint16",
          "name": "_srcChainId",
          "type": "uint16"
        },
        {
          "indexed": true,
          "internalType": "address",
          "name": "_to",
          "type": "address"
        },
        {
          "indexed": false,
          "internalType": "uint256",
          "name": "_amount",
          "type": "uint256"
        }
      ],
      "name": "ReceiveFromChain",
      "type": "event"
    },
    {
      "anonymous": false,
      "inputs": [
        {
          "indexed": false,
          "internalType": "uint16",
          "name": "_srcChainId",
          "type": "uint16"
        },
        {
          "indexed": false,
          "internalType": "bytes",
          "name": "_srcAddress",
          "type": "bytes"
        },
        {
          "indexed": false,
          "internalType": "uint64",
          "name": "_nonce",
          "type": "uint64"
        },
        {
          "indexed": false,
          "internalType": "bytes32",
          "name": "_payloadHash",
          "type": "bytes32"
        }
      ],
      "name": "RetryMessageSuccess",
      "type": "event"
    },
    {
      "anonymous": false,
      "inputs": [
        {
          "indexed": true,
          "internalType": "uint16",
          "name": "_dstChainId",
          "type": "uint16"
        },
        {
          "indexed": true,
          "internalType": "address",
          "name": "_from",
          "type": "address"
        },
        {
          "indexed": false,
          "internalType": "bytes",
          "name": "_toAddress",
          "type": "bytes"
        },
        {
          "indexed": false,
          "internalType": "uint256",
          "name": "_amount",
          "type": "uint256"
        }
      ],
      "name": "SendToChain",
      "type": "event"
    },
    {
      "anonymous": false,
      "inputs": [
        {
          "indexed": false,
          "internalType": "uint16",
          "name": "_dstChainId",
          "type": "uint16"
        },
        {
          "indexed": false,
          "internalType": "uint16",
          "name": "_type",
          "type": "uint16"
        },
        {
          "indexed": false,
          "internalType": "uint256",
          "name": "_minDstGas",
          "type": "uint256"
        }
      ],
      "name": "SetMinDstGas",
      "type": "event"
    },
    {
      "anonymous": false,
      "inputs": [
        {
          "indexed": false,
          "internalType": "address",
          "name": "precrime",
          "type": "address"
        }
      ],
      "name": "SetPrecrime",
      "type": "event"
    },
    {
      "anonymous": false,
      "inputs": [
        {
          "indexed": false,
          "internalType": "uint16",
          "name": "_remoteChainId",
          "type": "uint16"
        },
        {
          "indexed": false,
          "internalType": "bytes",
          "name": "_path",
          "type": "bytes"
        }
      ],
      "name": "SetTrustedRemote",
      "type": "event"
    },
    {
      "anonymous": false,
      "inputs": [
        {
          "indexed": false,
          "internalType": "uint16",
          "name": "_remoteChainId",
          "type": "uint16"
        },
        {
          "indexed": false,
          "internalType": "bytes",
          "name": "_remoteAddress",
          "type": "bytes"
        }
      ],
      "name": "SetTrustedRemoteAddress",
      "type": "event"
    },
    {
      "anonymous": false,
      "inputs": [
        {
          "indexed": false,
          "internalType": "bool",
          "name": "_useCustomAdapterParams",
          "type": "bool"
        }
      ],
      "name": "SetUseCustomAdapterParams",
      "type": "event"
    },
    {
      "inputs": [],
      "name": "DEFAULT_PAYLOAD_SIZE_LIMIT",
      "outputs": [
        {
          "internalType": "uint256",
          "name": "",
          "type": "uint256"
        }
      ],
      "stateMutability": "view",
      "type": "function"
    },
    {
      "inputs": [],
      "name": "NO_EXTRA_GAS",
      "outputs": [
        {
          "internalType": "uint256",
          "name": "",
          "type": "uint256"
        }
      ],
      "stateMutability": "view",
      "type": "function"
    },
    {
      "inputs": [],
      "name": "PT_SEND",
      "outputs": [
        {
          "internalType": "uint16",
          "name": "",
          "type": "uint16"
        }
      ],
      "stateMutability": "view",
      "type": "function"
    },
    {
      "inputs": [],
      "name": "circulatingSupply",
      "outputs": [
        {
          "internalType": "uint256",
          "name": "",
          "type": "uint256"
        }
      ],
      "stateMutability": "view",
      "type": "function"
    },
    {
      "inputs": [
        {
          "internalType": "uint16",
          "name": "_dstChainId",
          "type": "uint16"
        },
        {
          "internalType": "bytes",
          "name": "_toAddress",
          "type": "bytes"
        },
        {
          "internalType": "uint256",
          "name": "_amount",
          "type": "uint256"
        },
        {
          "internalType": "bool",
          "name": "_useZro",
          "type": "bool"
        },
        {
          "internalType": "bytes",
          "name": "_adapterParams",
          "type": "bytes"
        }
      ],
      "name": "estimateSendFee",
      "outputs": [
        {
          "internalType": "uint256",
          "name": "nativeFee",
          "type": "uint256"
        },
        {
          "internalType": "uint256",
          "name": "zroFee",
          "type": "uint256"
        }
      ],
      "stateMutability": "view",
      "type": "function"
    },
    {
      "inputs": [
        {
          "internalType": "uint16",
          "name": "",
          "type": "uint16"
        },
        {
          "internalType": "bytes",
          "name": "",
          "type": "bytes"
        },
        {
          "internalType": "uint64",
          "name": "",
          "type": "uint64"
        }
      ],
      "name": "failedMessages",
      "outputs": [
        {
          "internalType": "bytes32",
          "name": "",
          "type": "bytes32"
        }
      ],
      "stateMutability": "view",
      "type": "function"
    },
    {
      "inputs": [
        {
          "internalType": "uint16",
          "name": "_srcChainId",
          "type": "uint16"
        },
        {
          "internalType": "bytes",
          "name": "_srcAddress",
          "type": "bytes"
        }
      ],
      "name": "forceResumeReceive",
      "outputs": [],
      "stateMutability": "nonpayable",
      "type": "function"
    },
    {
      "inputs": [
        {
          "internalType": "uint16",
          "name": "_version",
          "type": "uint16"
        },
        {
          "internalType": "uint16",
          "name": "_chainId",
          "type": "uint16"
        },
        {
          "internalType": "address",
          "name": "",
          "type": "address"
        },
        {
          "internalType": "uint256",
          "name": "_configType",
          "type": "uint256"
        }
      ],
      "name": "getConfig",
      "outputs": [
        {
          "internalType": "bytes",
          "name": "",
          "type": "bytes"
        }
      ],
      "stateMutability": "view",
      "type": "function"
    },
    {
      "inputs": [
        {
          "internalType": "uint16",
          "name": "_remoteChainId",
          "type": "uint16"
        }
      ],
      "name": "getTrustedRemoteAddress",
      "outputs": [
        {
          "internalType": "bytes",
          "name": "",
          "type": "bytes"
        }
      ],
      "stateMutability": "view",
      "type": "function"
    },
    {
      "inputs": [
        {
          "internalType": "uint16",
          "name": "_srcChainId",
          "type": "uint16"
        },
        {
          "internalType": "bytes",
          "name": "_srcAddress",
          "type": "bytes"
        }
      ],
      "name": "isTrustedRemote",
      "outputs": [
        {
          "internalType": "bool",
          "name": "",
          "type": "bool"
        }
      ],
      "stateMutability": "view",
      "type": "function"
    },
    {
      "inputs": [],
      "name": "lzEndpoint",
      "outputs": [
        {
          "internalType": "contract ILayerZeroEndpoint",
          "name": "",
          "type": "address"
        }
      ],
      "stateMutability": "view",
      "type": "function"
    },
    {
      "inputs": [
        {
          "internalType": "uint16",
          "name": "_srcChainId",
          "type": "uint16"
        },
        {
          "internalType": "bytes",
          "name": "_srcAddress",
          "type": "bytes"
        },
        {
          "internalType": "uint64",
          "name": "_nonce",
          "type": "uint64"
        },
        {
          "internalType": "bytes",
          "name": "_payload",
          "type": "bytes"
        }
      ],
      "name": "lzReceive",
      "outputs": [],
      "stateMutability": "nonpayable",
      "type": "function"
    },
    {
      "inputs": [
        {
          "internalType": "uint16",
          "name": "",
          "type": "uint16"
        },
        {
          "internalType": "uint16",
          "name": "",
          "type": "uint16"
        }
      ],
      "name": "minDstGasLookup",
      "outputs": [
        {
          "internalType": "uint256",
          "name": "",
          "type": "uint256"
        }
      ],
      "stateMutability": "view",
      "type": "function"
    },
    {
      "inputs": [
        {
          "internalType": "uint16",
          "name": "_srcChainId",
          "type": "uint16"
        },
        {
          "internalType": "bytes",
          "name": "_srcAddress",
          "type": "bytes"
        },
        {
          "internalType": "uint64",
          "name": "_nonce",
          "type": "uint64"
        },
        {
          "internalType": "bytes",
          "name": "_payload",
          "type": "bytes"
        }
      ],
      "name": "nonblockingLzReceive",
      "outputs": [],
      "stateMutability": "nonpayable",
      "type": "function"
    },
    {
      "inputs": [],
      "name": "owner",
      "outputs": [
        {
          "internalType": "address",
          "name": "",
          "type": "address"
        }
      ],
      "stateMutability": "view",
      "type": "function"
    },
    {
      "inputs": [
        {
          "internalType": "uint16",
          "name": "",
          "type": "uint16"
        }
      ],
      "name": "payloadSizeLimitLookup",
      "outputs": [
        {
          "internalType": "uint256",
          "name": "",
          "type": "uint256"
        }
      ],
      "stateMutability": "view",
      "type": "function"
    },
    {
      "inputs": [],
      "name": "precrime",
      "outputs": [
        {
          "internalType": "address",
          "name": "",
          "type": "address"
        }
      ],
      "stateMutability": "view",
      "type": "function"
    },
    {
      "inputs": [],
      "name": "renounceOwnership",
      "outputs": [],
      "stateMutability": "nonpayable",
      "type": "function"
    },
    {
      "inputs": [
        {
          "internalType": "uint16",
          "name": "_srcChainId",
          "type": "uint16"
        },
        {
          "internalType": "bytes",
          "name": "_srcAddress",
          "type": "bytes"
        },
        {
          "internalType": "uint64",
          "name": "_nonce",
          "type": "uint64"
        },
        {
          "internalType": "bytes",
          "name": "_payload",
          "type": "bytes"
        }
      ],
      "name": "retryMessage",
      "outputs": [],
      "stateMutability": "payable",
      "type": "function"
    },
    {
      "inputs": [
        {
          "internalType": "address",
          "name": "_from",
          "type": "address"
        },
        {
          "internalType": "uint16",
          "name": "_dstChainId",
          "type": "uint16"
        },
        {
          "internalType": "bytes",
          "name": "_toAddress",
          "type": "bytes"
        },
        {
          "internalType": "uint256",
          "name": "_amount",
          "type": "uint256"
        },
        {
          "internalType": "address payable",
          "name": "_refundAddress",
          "type": "address"
        },
        {
          "internalType": "address",
          "name": "_zroPaymentAddress",
          "type": "address"
        },
        {
          "internalType": "bytes",
          "name": "_adapterParams",
          "type": "bytes"
        }
      ],
      "name": "sendFrom",
      "outputs": [],
      "stateMutability": "payable",
      "type": "function"
    },
    {
      "inputs": [
        {
          "internalType": "uint16",
          "name": "_version",
          "type": "uint16"
        },
        {
          "internalType": "uint16",
          "name": "_chainId",
          "type": "uint16"
        },
        {
          "internalType": "uint256",
          "name": "_configType",
          "type": "uint256"
        },
        {
          "internalType": "bytes",
          "name": "_config",
          "type": "bytes"
        }
      ],
      "name": "setConfig",
      "outputs": [],
      "stateMutability": "nonpayable",
      "type": "function"
    },
    {
      "inputs": [
        {
          "internalType": "uint16",
          "name": "_dstChainId",
          "type": "uint16"
        },
        {
          "internalType": "uint16",
          "name": "_packetType",
          "type": "uint16"
        },
        {
          "internalType": "uint256",
          "name": "_minGas",
          "type": "uint256"
        }
      ],
      "name": "setMinDstGas",
      "outputs": [],
      "stateMutability": "nonpayable",
      "type": "function"
    },
    {
      "inputs": [
        {
          "internalType": "uint16",
          "name": "_dstChainId",
          "type": "uint16"
        },
        {
          "internalType": "uint256",
          "name": "_size",
          "type": "uint256"
        }
      ],
      "name": "setPayloadSizeLimit",
      "outputs": [],
      "stateMutability": "nonpayable",
      "type": "function"
    },
    {
      "inputs": [
        {
          "internalType": "address",
          "name": "_precrime",
          "type": "address"
        }
      ],
      "name": "setPrecrime",
      "outputs": [],
      "stateMutability": "nonpayable",
      "type": "function"
    },
    {
      "inputs": [
        {
          "internalType": "uint16",
          "name": "_version",
          "type": "uint16"
        }
      ],
      "name": "setReceiveVersion",
      "outputs": [],
      "stateMutability": "nonpayable",
      "type": "function"
    },
    {
      "inputs": [
        {
          "internalType": "uint16",
          "name": "_version",
          "type": "uint16"
        }
      ],
      "name": "setSendVersion",
      "outputs": [],
      "stateMutability": "nonpayable",
      "type": "function"
    },
    {
      "inputs": [
        {
          "internalType": "uint16",
          "name": "_srcChainId",
          "type": "uint16"
        },
        {
          "internalType": "bytes",
          "name": "_path",
          "type": "bytes"
        }
      ],
      "name": "setTrustedRemote",
      "outputs": [],
      "stateMutability": "nonpayable",
      "type": "function"
    },
    {
      "inputs": [
        {
          "internalType": "uint16",
          "name": "_remoteChainId",
          "type": "uint16"
        },
        {
          "internalType": "bytes",
          "name": "_remoteAddress",
          "type": "bytes"
        }
      ],
      "name": "setTrustedRemoteAddress",
      "outputs": [],
      "stateMutability": "nonpayable",
      "type": "function"
    },
    {
      "inputs": [
        {
          "internalType": "bool",
          "name": "_useCustomAdapterParams",
          "type": "bool"
        }
      ],
      "name": "setUseCustomAdapterParams",
      "outputs": [],
      "stateMutability": "nonpayable",
      "type": "function"
    },
    {
      "inputs": [
        {
          "internalType": "bytes4",
          "name": "interfaceId",
          "type": "bytes4"
        }
      ],
      "name": "supportsInterface",
      "outputs": [
        {
          "internalType": "bool",
          "name": "",
          "type": "bool"
        }
      ],
      "stateMutability": "view",
      "type": "function"
    },
    {
      "inputs": [],
      "name": "token",
      "outputs": [
        {
          "internalType": "address",
          "name": "",
          "type": "address"
        }
      ],
      "stateMutability": "view",
      "type": "function"
    },
    {
      "inputs": [
        {
          "internalType": "address",
          "name": "newOwner",
          "type": "address"
        }
      ],
      "name": "transferOwnership",
      "outputs": [],
      "stateMutability": "nonpayable",
      "type": "function"
    },
    {
      "inputs": [
        {
          "internalType": "uint16",
          "name": "",
          "type": "uint16"
        }
      ],
      "name": "trustedRemoteLookup",
      "outputs": [
        {
          "internalType": "bytes",
          "name": "",
          "type": "bytes"
        }
      ],
      "stateMutability": "view",
      "type": "function"
    },
    {
      "inputs": [],
      "name": "useCustomAdapterParams",
      "outputs": [
        {
          "internalType": "bool",
          "name": "",
          "type": "bool"
        }
      ],
      "stateMutability": "view",
      "type": "function"
    }
  ],
  "bytecode": "0x60c06040523480156200001157600080fd5b50604051620033ec380380620033ec8339810160408190526200003491620000ce565b818080620000423362000061565b6001600160a01b039081166080529290921660a0525062000106915050565b600080546001600160a01b038381166001600160a01b0319831681178455604051919092169283917f8be0079c531659141344cd1fd0a4f28419497f9722a3daafe3b4186f6b6457e09190a35050565b80516001600160a01b0381168114620000c957600080fd5b919050565b60008060408385031215620000e257600080fd5b620000ed83620000b1565b9150620000fd60208401620000b1565b90509250929050565b60805160a0516132506200019c600039600081816106aa01528181610e8301528181610ef801528181611c5101528181611cd301528181611d1201528181612230015281816122aa01526122f2015260008181610556015281816106d101528181610957015281816109ff01528181610a7901528181610bf5015281816111aa0152818161162a0152611ec301526132506000f3fe6080604052600436106101f85760003560e01c80638da5cb5b1161010d578063cbed8b9c116100a0578063eb8d72b71161006f578063eb8d72b714610621578063ed629c5c14610641578063f2fde38b1461065b578063f5ecbdbc1461067b578063fc0c546a1461069b57600080fd5b8063cbed8b9c146105ae578063d1deba1f146105ce578063df2a5b3b146105e1578063eab45d9c1461060157600080fd5b8063a6c3d165116100dc578063a6c3d16514610524578063b353aaa714610544578063baf3292d14610578578063c44618341461059857600080fd5b80638da5cb5b1461049d5780639358928b146104cf578063950c8a74146104e45780639f38369a1461050457600080fd5b806342d65a8d116101905780635b8c41e61161015f5780635b8c41e6146103b457806366ad5c8a14610403578063715018a6146104235780637533d788146104385780638cfd8f5c1461046557600080fd5b806342d65a8d1461034457806344770515146103645780634c42899a1461037957806351905636146103a157600080fd5b806310ddb137116101cc57806310ddb137146102945780632a205e3d146102b45780633d8b38f6146102e95780633f1f4fa41461030957600080fd5b80621d3567146101fd57806301ffc9a71461021f57806307e0db17146102545780630df3748314610274575b600080fd5b34801561020957600080fd5b5061021d6102183660046127c9565b6106ce565b005b34801561022b57600080fd5b5061023f61023a36600461285e565b6108ff565b60405190151581526020015b60405180910390f35b34801561026057600080fd5b5061021d61026f366004612888565b610936565b34801561028057600080fd5b5061021d61028f3660046128a5565b6109bf565b3480156102a057600080fd5b5061021d6102af366004612888565b6109de565b3480156102c057600080fd5b506102d46102cf3660046128df565b610a36565b6040805192835260208301919091520161024b565b3480156102f557600080fd5b5061023f61030436600461297f565b610b09565b34801561031557600080fd5b50610336610324366004612888565b60036020526000908152604090205481565b60405190815260200161024b565b34801561035057600080fd5b5061021d61035f36600461297f565b610bd6565b34801561037057600080fd5b50610336600081565b34801561038557600080fd5b5061038e600081565b60405161ffff909116815260200161024b565b61021d6103af3660046129e8565b610c5c565b3480156103c057600080fd5b506103366103cf366004612b1e565b6005602090815260009384526040808520845180860184018051928152908401958401959095209452929052825290205481565b34801561040f57600080fd5b5061021d61041e3660046127c9565b610ce1565b34801561042f57600080fd5b5061021d610dbd565b34801561044457600080fd5b50610458610453366004612888565b610dd1565b60405161024b9190612c18565b34801561047157600080fd5b50610336610480366004612c2b565b600260209081526000928352604080842090915290825290205481565b3480156104a957600080fd5b506000546001600160a01b03165b6040516001600160a01b03909116815260200161024b565b3480156104db57600080fd5b50610336610e6b565b3480156104f057600080fd5b506004546104b7906001600160a01b031681565b34801561051057600080fd5b5061045861051f366004612888565b610f7e565b34801561053057600080fd5b5061021d61053f36600461297f565b61108e565b34801561055057600080fd5b506104b77f000000000000000000000000000000000000000000000000000000000000000081565b34801561058457600080fd5b5061021d610593366004612c64565b61112e565b3480156105a457600080fd5b5061033661271081565b3480156105ba57600080fd5b5061021d6105c9366004612c81565b61118b565b61021d6105dc3660046127c9565b611215565b3480156105ed57600080fd5b5061021d6105fc366004612cf3565b61142b565b34801561060d57600080fd5b5061021d61061c366004612d34565b6114dd565b34801561062d57600080fd5b5061021d61063c36600461297f565b611526565b34801561064d57600080fd5b5060065461023f9060ff1681565b34801561066757600080fd5b5061021d610676366004612c64565b611580565b34801561068757600080fd5b50610458610696366004612d51565b6115f9565b3480156106a757600080fd5b507f00000000000000000000000000000000000000000000000000000000000000006104b7565b337f00000000000000000000000000000000000000000000000000000000000000006001600160a01b03161461074b5760405162461bcd60e51b815260206004820152601e60248201527f4c7a4170703a20696e76616c696420656e64706f696e742063616c6c6572000060448201526064015b60405180910390fd5b61ffff86166000908152600160205260408120805461076990612da2565b80601f016020809104026020016040519081016040528092919081815260200182805461079590612da2565b80156107e25780601f106107b7576101008083540402835291602001916107e2565b820191906000526020600020905b8154815290600101906020018083116107c557829003601f168201915b505050505090508051868690501480156107fd575060008151115b801561082557508051602082012060405161081b9088908890612ddd565b6040518091039020145b6108805760405162461bcd60e51b815260206004820152602660248201527f4c7a4170703a20696e76616c696420736f757263652073656e64696e6720636f6044820152651b9d1c9858dd60d21b6064820152608401610742565b6108f68787878080601f01602080910402602001604051908101604052809392919081815260200183838082843760009201919091525050604080516020601f8a018190048102820181019092528881528a9350915088908890819084018382808284376000920191909152506116aa92505050565b50505050505050565b60006001600160e01b03198216630a72677560e11b148061093057506301ffc9a760e01b6001600160e01b03198316145b92915050565b61093e611723565b6040516307e0db1760e01b815261ffff821660048201527f00000000000000000000000000000000000000000000000000000000000000006001600160a01b0316906307e0db17906024015b600060405180830381600087803b1580156109a457600080fd5b505af11580156109b8573d6000803e3d6000fd5b5050505050565b6109c7611723565b61ffff909116600090815260036020526040902055565b6109e6611723565b6040516310ddb13760e01b815261ffff821660048201527f00000000000000000000000000000000000000000000000000000000000000006001600160a01b0316906310ddb1379060240161098a565b600080600080898989604051602001610a529493929190612e16565b60408051601f198184030181529082905263040a7bb160e41b825291506001600160a01b037f000000000000000000000000000000000000000000000000000000000000000016906340a7bb1090610ab8908d90309086908c908c908c90600401612e45565b6040805180830381865afa158015610ad4573d6000803e3d6000fd5b505050506040513d601f19601f82011682018060405250810190610af89190612e9b565b925092505097509795505050505050565b61ffff831660009081526001602052604081208054829190610b2a90612da2565b80601f0160208091040260200160405190810160405280929190818152602001828054610b5690612da2565b8015610ba35780601f10610b7857610100808354040283529160200191610ba3565b820191906000526020600020905b815481529060010190602001808311610b8657829003601f168201915b505050505090508383604051610bba929190612ddd565b60405180910390208180519060200120149150505b9392505050565b610bde611723565b6040516342d65a8d60e01b81526001600160a01b037f000000000000000000000000000000000000000000000000000000000000000016906342d65a8d90610c2e90869086908690600401612ebf565b600060405180830381600087803b158015610c4857600080fd5b505af11580156108f6573d6000803e3d6000fd5b610cd6898989898080601f01602080910402602001604051908101604052809392919081815260200183838082843760009201919091525050604080516020601f8a018190048102820181019092528881528c93508b92508a918a908a908190840183828082843760009201919091525061177d92505050565b505050505050505050565b333014610d3f5760405162461bcd60e51b815260206004820152602660248201527f4e6f6e626c6f636b696e674c7a4170703a2063616c6c6572206d7573742062656044820152650204c7a4170760d41b6064820152608401610742565b610db58686868080601f01602080910402602001604051908101604052809392919081815260200183838082843760009201919091525050604080516020601f89018190048102820181019092528781528993509150879087908190840183828082843760009201919091525061182492505050565b505050505050565b610dc5611723565b610dcf600061188b565b565b60016020526000908152604090208054610dea90612da2565b80601f0160208091040260200160405190810160405280929190818152602001828054610e1690612da2565b8015610e635780601f10610e3857610100808354040283529160200191610e63565b820191906000526020600020905b815481529060010190602001808311610e4657829003601f168201915b505050505081565b6040516370a0823160e01b81523060048201526000907f00000000000000000000000000000000000000000000000000000000000000006001600160a01b0316906370a0823190602401602060405180830381865afa158015610ed2573d6000803e3d6000fd5b505050506040513d601f19601f82011682018060405250810190610ef69190612edd565b7f00000000000000000000000000000000000000000000000000000000000000006001600160a01b03166318160ddd6040518163ffffffff1660e01b8152600401602060405180830381865afa158015610f54573d6000803e3d6000fd5b505050506040513d601f19601f82011682018060405250810190610f789190612edd565b03905090565b61ffff8116600090815260016020526040812080546060929190610fa190612da2565b80601f0160208091040260200160405190810160405280929190818152602001828054610fcd90612da2565b801561101a5780601f10610fef5761010080835404028352916020019161101a565b820191906000526020600020905b815481529060010190602001808311610ffd57829003601f168201915b505050505090508051600014156110735760405162461bcd60e51b815260206004820152601d60248201527f4c7a4170703a206e6f20747275737465642070617468207265636f72640000006044820152606401610742565b610bcf6000601483516110869190612f0c565b8391906118db565b611096611723565b8181306040516020016110ab93929190612f23565b60408051601f1981840301815291815261ffff851660009081526001602090815291902082516110e093919290910190612648565b506110ee8361ffff166119e8565b7f8c0400cfe2d1199b1a725c78960bcc2a344d869b80590d0f2bd005db15a572ce83838360405161112193929190612ebf565b60405180910390a1505050565b611136611723565b600480546001600160a01b0319166001600160a01b0383169081179091556040519081527f5db758e995a17ec1ad84bdef7e8c3293a0bd6179bcce400dff5d4c3d87db726b906020015b60405180910390a150565b611193611723565b6040516332fb62e760e21b81526001600160a01b037f0000000000000000000000000000000000000000000000000000000000000000169063cbed8b9c906111e79088908890889088908890600401612f49565b600060405180830381600087803b15801561120157600080fd5b505af1158015610cd6573d6000803e3d6000fd5b61ffff861660009081526005602052604080822090516112389088908890612ddd565b90815260408051602092819003830190206001600160401b038716600090815292529020549050806112b85760405162461bcd60e51b815260206004820152602360248201527f4e6f6e626c6f636b696e674c7a4170703a206e6f2073746f726564206d65737360448201526261676560e81b6064820152608401610742565b8083836040516112c9929190612ddd565b6040518091039020146113285760405162461bcd60e51b815260206004820152602160248201527f4e6f6e626c6f636b696e674c7a4170703a20696e76616c6964207061796c6f616044820152601960fa1b6064820152608401610742565b61ffff8716600090815260056020526040808220905161134b9089908990612ddd565b90815260408051602092819003830181206001600160401b038916600090815290845282902093909355601f880182900482028301820190528682526113e3918991899089908190840183828082843760009201919091525050604080516020601f8a018190048102820181019092528881528a93509150889088908190840183828082843760009201919091525061182492505050565b7fc264d91f3adc5588250e1551f547752ca0cfa8f6b530d243b9f9f4cab10ea8e5878787878560405161141a959493929190612f77565b60405180910390a150505050505050565b611433611723565b6000811161147b5760405162461bcd60e51b81526020600482015260156024820152744c7a4170703a20696e76616c6964206d696e47617360581b6044820152606401610742565b61ffff83811660008181526002602090815260408083209487168084529482529182902085905581519283528201929092529081018290527f9d5c7c0b934da8fefa9c7760c98383778a12dfbfc0c3b3106518f43fb9508ac090606001611121565b6114e5611723565b6006805460ff19168215159081179091556040519081527f1584ad594a70cbe1e6515592e1272a987d922b097ead875069cebe8b40c004a490602001611180565b61152e611723565b61ffff8316600090815260016020526040902061154c9083836126cc565b507ffa41487ad5d6728f0b19276fa1eddc16558578f5109fc39d2dc33c3230470dab83838360405161112193929190612ebf565b611588611723565b6001600160a01b0381166115ed5760405162461bcd60e51b815260206004820152602660248201527f4f776e61626c653a206e6577206f776e657220697320746865207a65726f206160448201526564647265737360d01b6064820152608401610742565b6115f68161188b565b50565b604051633d7b2f6f60e21b815261ffff808616600483015284166024820152306044820152606481018290526060907f00000000000000000000000000000000000000000000000000000000000000006001600160a01b03169063f5ecbdbc90608401600060405180830381865afa158015611679573d6000803e3d6000fd5b505050506040513d6000823e601f3d908101601f191682016040526116a19190810190612ff7565b95945050505050565b60008061170d5a60966366ad5c8a60e01b898989896040516024016116d2949392919061302b565b60408051601f198184030181529190526020810180516001600160e01b03166001600160e01b03199093169290921790915230929190611a2d565b9150915081610db557610db58686868685611ab7565b6000546001600160a01b03163314610dcf5760405162461bcd60e51b815260206004820181905260248201527f4f776e61626c653a2063616c6c6572206973206e6f7420746865206f776e65726044820152606401610742565b61178b866000836000611b54565b600061179988888888611bd4565b905060008087836040516020016117b293929190613069565b60405160208183030381529060405290506117d1888287878734611d99565b886001600160a01b03168861ffff167f39a4c66499bcf4b56d79f0dde8ed7a9d4925a0df55825206b2b8531e202be0d08985604051611811929190613096565b60405180910390a3505050505050505050565b602081015161ffff81166118435761183e85858585611f3f565b6109b8565b60405162461bcd60e51b815260206004820152601c60248201527f4f4654436f72653a20756e6b6e6f776e207061636b65742074797065000000006044820152606401610742565b600080546001600160a01b038381166001600160a01b0319831681178455604051919092169283917f8be0079c531659141344cd1fd0a4f28419497f9722a3daafe3b4186f6b6457e09190a35050565b6060816118e981601f6130b8565b10156119285760405162461bcd60e51b815260206004820152600e60248201526d736c6963655f6f766572666c6f7760901b6044820152606401610742565b61193282846130b8565b845110156119765760405162461bcd60e51b8152602060048201526011602482015270736c6963655f6f75744f66426f756e647360781b6044820152606401610742565b60608215801561199557604051915060008252602082016040526119df565b6040519150601f8416801560200281840101858101878315602002848b0101015b818310156119ce5780518352602092830192016119b6565b5050858452601f01601f1916604052505b50949350505050565b6115f6816040516024016119fe91815260200190565b60408051601f198184030181529190526020810180516001600160e01b031663f82c50f160e01b179052611fc9565b6000606060008060008661ffff166001600160401b03811115611a5257611a52612ab1565b6040519080825280601f01601f191660200182016040528015611a7c576020820181803683370190505b50905060008087516020890160008d8df191503d925086831115611a9e578692505b828152826000602083013e909890975095505050505050565b8180519060200120600560008761ffff1661ffff16815260200190815260200160002085604051611ae891906130d0565b9081526040805191829003602090810183206001600160401b0388166000908152915220919091557fe183f33de2837795525b4792ca4cd60535bd77c53b7e7030060bfcf5734d6b0c90611b4590879087908790879087906130ec565b60405180910390a15050505050565b60065460ff1615611b7057611b6b84848484611fea565b611bce565b815115611bce5760405162461bcd60e51b815260206004820152602660248201527f4f4654436f72653a205f61646170746572506172616d73206d7573742062652060448201526532b6b83a3c9760d11b6064820152608401610742565b50505050565b60006001600160a01b0385163314611c395760405162461bcd60e51b815260206004820152602260248201527f50726f78794f46543a206f776e6572206973206e6f742073656e642063616c6c60448201526132b960f11b6064820152608401610742565b6040516370a0823160e01b81523060048201526000907f00000000000000000000000000000000000000000000000000000000000000006001600160a01b0316906370a0823190602401602060405180830381865afa158015611ca0573d6000803e3d6000fd5b505050506040513d601f19601f82011682018060405250810190611cc49190612edd565b9050611cfb6001600160a01b037f0000000000000000000000000000000000000000000000000000000000000000168730866120c9565b6040516370a0823160e01b815230600482015281907f00000000000000000000000000000000000000000000000000000000000000006001600160a01b0316906370a0823190602401602060405180830381865afa158015611d61573d6000803e3d6000fd5b505050506040513d601f19601f82011682018060405250810190611d859190612edd565b611d8f9190612f0c565b9695505050505050565b61ffff861660009081526001602052604081208054611db790612da2565b80601f0160208091040260200160405190810160405280929190818152602001828054611de390612da2565b8015611e305780601f10611e0557610100808354040283529160200191611e30565b820191906000526020600020905b815481529060010190602001808311611e1357829003601f168201915b50505050509050805160001415611ea25760405162461bcd60e51b815260206004820152603060248201527f4c7a4170703a2064657374696e6174696f6e20636861696e206973206e6f742060448201526f61207472757374656420736f7572636560801b6064820152608401610742565b611ead878751612134565b60405162c5803160e81b81526001600160a01b037f0000000000000000000000000000000000000000000000000000000000000000169063c5803100908490611f04908b9086908c908c908c908c9060040161314a565b6000604051808303818588803b158015611f1d57600080fd5b505af1158015611f31573d6000803e3d6000fd5b505050505050505050505050565b60008082806020019051810190611f5691906131a4565b909350915060009050611f6983826121a7565b9050611f7687828461220c565b9150806001600160a01b03168761ffff167fbf551ec93859b170f9b2141bd9298bf3f64322c6f7beb2543a0cb669834118bf84604051611fb891815260200190565b60405180910390a350505050505050565b80516a636f6e736f6c652e6c6f67602083016000808483855afa5050505050565b6000611ff583612369565b61ffff8087166000908152600260209081526040808320938916835292905290812054919250906120279084906130b8565b9050600081116120795760405162461bcd60e51b815260206004820152601a60248201527f4c7a4170703a206d696e4761734c696d6974206e6f74207365740000000000006044820152606401610742565b80821015610db55760405162461bcd60e51b815260206004820152601b60248201527f4c7a4170703a20676173206c696d697420697320746f6f206c6f7700000000006044820152606401610742565b6040516001600160a01b0380851660248301528316604482015260648101829052611bce9085906323b872dd60e01b906084015b60408051601f198184030181529190526020810180516001600160e01b03166001600160e01b0319909316929092179091526123c5565b61ffff82166000908152600360205260409020548061215257506127105b808211156121a25760405162461bcd60e51b815260206004820181905260248201527f4c7a4170703a207061796c6f61642073697a6520697320746f6f206c617267656044820152606401610742565b505050565b60006121b48260146130b8565b835110156121fc5760405162461bcd60e51b8152602060048201526015602482015274746f416464726573735f6f75744f66426f756e647360581b6044820152606401610742565b500160200151600160601b900490565b6040516370a0823160e01b81526001600160a01b03838116600483015260009182917f000000000000000000000000000000000000000000000000000000000000000016906370a0823190602401602060405180830381865afa158015612277573d6000803e3d6000fd5b505050506040513d601f19601f8201168201806040525081019061229b9190612edd565b90506122d16001600160a01b037f0000000000000000000000000000000000000000000000000000000000000000168585612497565b6040516370a0823160e01b81526001600160a01b03858116600483015282917f0000000000000000000000000000000000000000000000000000000000000000909116906370a0823190602401602060405180830381865afa15801561233b573d6000803e3d6000fd5b505050506040513d601f19601f8201168201806040525081019061235f9190612edd565b6116a19190612f0c565b60006022825110156123bd5760405162461bcd60e51b815260206004820152601c60248201527f4c7a4170703a20696e76616c69642061646170746572506172616d73000000006044820152606401610742565b506022015190565b600061241a826040518060400160405280602081526020017f5361666545524332303a206c6f772d6c6576656c2063616c6c206661696c6564815250856001600160a01b03166124c79092919063ffffffff16565b8051909150156121a2578080602001905181019061243891906131fd565b6121a25760405162461bcd60e51b815260206004820152602a60248201527f5361666545524332303a204552433230206f7065726174696f6e20646964206e6044820152691bdd081cdd58d8d9595960b21b6064820152608401610742565b6040516001600160a01b0383166024820152604481018290526121a290849063a9059cbb60e01b906064016120fd565b60606124d684846000856124de565b949350505050565b60608247101561253f5760405162461bcd60e51b815260206004820152602660248201527f416464726573733a20696e73756666696369656e742062616c616e636520666f6044820152651c8818d85b1b60d21b6064820152608401610742565b6001600160a01b0385163b6125965760405162461bcd60e51b815260206004820152601d60248201527f416464726573733a2063616c6c20746f206e6f6e2d636f6e74726163740000006044820152606401610742565b600080866001600160a01b031685876040516125b291906130d0565b60006040518083038185875af1925050503d80600081146125ef576040519150601f19603f3d011682016040523d82523d6000602084013e6125f4565b606091505b509150915061260482828661260f565b979650505050505050565b6060831561261e575081610bcf565b82511561262e5782518084602001fd5b8160405162461bcd60e51b81526004016107429190612c18565b82805461265490612da2565b90600052602060002090601f01602090048101928261267657600085556126bc565b82601f1061268f57805160ff19168380011785556126bc565b828001600101855582156126bc579182015b828111156126bc5782518255916020019190600101906126a1565b506126c8929150612740565b5090565b8280546126d890612da2565b90600052602060002090601f0160209004810192826126fa57600085556126bc565b82601f106127135782800160ff198235161785556126bc565b828001600101855582156126bc579182015b828111156126bc578235825591602001919060010190612725565b5b808211156126c85760008155600101612741565b61ffff811681146115f657600080fd5b60008083601f84011261277757600080fd5b5081356001600160401b0381111561278e57600080fd5b6020830191508360208285010111156127a657600080fd5b9250929050565b80356001600160401b03811681146127c457600080fd5b919050565b600080600080600080608087890312156127e257600080fd5b86356127ed81612755565b955060208701356001600160401b038082111561280957600080fd5b6128158a838b01612765565b909750955085915061282960408a016127ad565b9450606089013591508082111561283f57600080fd5b5061284c89828a01612765565b979a9699509497509295939492505050565b60006020828403121561287057600080fd5b81356001600160e01b031981168114610bcf57600080fd5b60006020828403121561289a57600080fd5b8135610bcf81612755565b600080604083850312156128b857600080fd5b82356128c381612755565b946020939093013593505050565b80151581146115f657600080fd5b600080600080600080600060a0888a0312156128fa57600080fd5b873561290581612755565b965060208801356001600160401b038082111561292157600080fd5b61292d8b838c01612765565b909850965060408a0135955060608a01359150612949826128d1565b9093506080890135908082111561295f57600080fd5b5061296c8a828b01612765565b989b979a50959850939692959293505050565b60008060006040848603121561299457600080fd5b833561299f81612755565b925060208401356001600160401b038111156129ba57600080fd5b6129c686828701612765565b9497909650939450505050565b6001600160a01b03811681146115f657600080fd5b600080600080600080600080600060e08a8c031215612a0657600080fd5b8935612a11816129d3565b985060208a0135612a2181612755565b975060408a01356001600160401b0380821115612a3d57600080fd5b612a498d838e01612765565b909950975060608c0135965060808c01359150612a65826129d3565b90945060a08b013590612a77826129d3565b90935060c08b01359080821115612a8d57600080fd5b50612a9a8c828d01612765565b915080935050809150509295985092959850929598565b634e487b7160e01b600052604160045260246000fd5b604051601f8201601f191681016001600160401b0381118282101715612aef57612aef612ab1565b604052919050565b60006001600160401b03821115612b1057612b10612ab1565b50601f01601f191660200190565b600080600060608486031215612b3357600080fd5b8335612b3e81612755565b925060208401356001600160401b03811115612b5957600080fd5b8401601f81018613612b6a57600080fd5b8035612b7d612b7882612af7565b612ac7565b818152876020838501011115612b9257600080fd5b81602084016020830137600060208383010152809450505050612bb7604085016127ad565b90509250925092565b60005b83811015612bdb578181015183820152602001612bc3565b83811115611bce5750506000910152565b60008151808452612c04816020860160208601612bc0565b601f01601f19169290920160200192915050565b602081526000610bcf6020830184612bec565b60008060408385031215612c3e57600080fd5b8235612c4981612755565b91506020830135612c5981612755565b809150509250929050565b600060208284031215612c7657600080fd5b8135610bcf816129d3565b600080600080600060808688031215612c9957600080fd5b8535612ca481612755565b94506020860135612cb481612755565b93506040860135925060608601356001600160401b03811115612cd657600080fd5b612ce288828901612765565b969995985093965092949392505050565b600080600060608486031215612d0857600080fd5b8335612d1381612755565b92506020840135612d2381612755565b929592945050506040919091013590565b600060208284031215612d4657600080fd5b8135610bcf816128d1565b60008060008060808587031215612d6757600080fd5b8435612d7281612755565b93506020850135612d8281612755565b92506040850135612d92816129d3565b9396929550929360600135925050565b600181811c90821680612db657607f821691505b60208210811415612dd757634e487b7160e01b600052602260045260246000fd5b50919050565b8183823760009101908152919050565b81835281816020850137506000828201602090810191909152601f909101601f19169091010190565b61ffff85168152606060208201526000612e34606083018587612ded565b905082604083015295945050505050565b61ffff871681526001600160a01b038616602082015260a060408201819052600090612e7390830187612bec565b85151560608401528281036080840152612e8e818587612ded565b9998505050505050505050565b60008060408385031215612eae57600080fd5b505080516020909101519092909150565b61ffff841681526040602082015260006116a1604083018486612ded565b600060208284031215612eef57600080fd5b5051919050565b634e487b7160e01b600052601160045260246000fd5b600082821015612f1e57612f1e612ef6565b500390565b8284823760609190911b6bffffffffffffffffffffffff19169101908152601401919050565b600061ffff808816835280871660208401525084604083015260806060830152612604608083018486612ded565b61ffff86168152608060208201526000612f95608083018688612ded565b6001600160401b0394909416604083015250606001529392505050565b600082601f830112612fc357600080fd5b8151612fd1612b7882612af7565b818152846020838601011115612fe657600080fd5b6124d6826020830160208701612bc0565b60006020828403121561300957600080fd5b81516001600160401b0381111561301f57600080fd5b6124d684828501612fb2565b61ffff851681526080602082015260006130486080830186612bec565b6001600160401b038516604084015282810360608401526126048185612bec565b61ffff841681526060602082015260006130866060830185612bec565b9050826040830152949350505050565b6040815260006130a96040830185612bec565b90508260208301529392505050565b600082198211156130cb576130cb612ef6565b500190565b600082516130e2818460208701612bc0565b9190910192915050565b61ffff8616815260a06020820152600061310960a0830187612bec565b6001600160401b0386166040840152828103606084015261312a8186612bec565b9050828103608084015261313e8185612bec565b98975050505050505050565b61ffff8716815260c06020820152600061316760c0830188612bec565b82810360408401526131798188612bec565b6001600160a01b0387811660608601528616608085015283810360a08501529050612e8e8185612bec565b6000806000606084860312156131b957600080fd5b83516131c481612755565b60208501519093506001600160401b038111156131e057600080fd5b6131ec86828701612fb2565b925050604084015190509250925092565b60006020828403121561320f57600080fd5b8151610bcf816128d156fea2646970667358221220f5236de711cee66f5c8a8d5d6f2b4448e1ad391e134c33dff16284b88c29743b64736f6c634300080c0033",
  "linkReferences": {},
  "deployedLinkReferences": {}
}