{
  "address": "0xCf7Ed3AccA5a467e9e704C703E8D87F634fB0Fc9",
  "abi": [
    {
      "inputs": [
        {
          "internalType": "address",
          "name": "_lzEndpoint",
          "type": "address"
        },
        {
          "internalType": "bool",
          "name": "main",
          "type": "bool"
        }
      ],
      "stateMutability": "nonpayable",
      "type": "constructor"
    },
    {
      "anonymous": false,
      "inputs": [
        {
          "indexed": false,
          "internalType": "uint16",
          "name": "_srcChainId",
          "type": "uint16"
        },
        {
          "indexed": false,
          "internalType": "bytes",
          "name": "_srcAddress",
          "type": "bytes"
        },
        {
          "indexed": false,
          "internalType": "uint64",
          "name": "_nonce",
          "type": "uint64"
        },
        {
          "indexed": false,
          "internalType": "bytes",
          "name": "_payload",
          "type": "bytes"
        },
        {
          "indexed": false,
          "internalType": "bytes",
          "name": "_reason",
          "type": "bytes"
        }
      ],
      "name": "MessageFailed",
      "type": "event"
    },
    {
      "anonymous": false,
      "inputs": [
        {
          "indexed": true,
          "internalType": "address",
          "name": "previousOwner",
          "type": "address"
        },
        {
          "indexed": true,
          "internalType": "address",
          "name": "newOwner",
          "type": "address"
        }
      ],
      "name": "OwnershipTransferred",
      "type": "event"
    },
    {
      "anonymous": false,
      "inputs": [
        {
          "indexed": false,
          "internalType": "uint16",
          "name": "_srcChainId",
          "type": "uint16"
        },
        {
          "indexed": false,
          "internalType": "bytes",
          "name": "_srcAddress",
          "type": "bytes"
        },
        {
          "indexed": false,
          "internalType": "uint64",
          "name": "_nonce",
          "type": "uint64"
        },
        {
          "indexed": false,
          "internalType": "bytes32",
          "name": "_payloadHash",
          "type": "bytes32"
        }
      ],
      "name": "RetryMessageSuccess",
      "type": "event"
    },
    {
      "anonymous": false,
      "inputs": [
        {
          "indexed": false,
          "internalType": "uint16",
          "name": "_dstChainId",
          "type": "uint16"
        },
        {
          "indexed": false,
          "internalType": "uint16",
          "name": "_type",
          "type": "uint16"
        },
        {
          "indexed": false,
          "internalType": "uint256",
          "name": "_minDstGas",
          "type": "uint256"
        }
      ],
      "name": "SetMinDstGas",
      "type": "event"
    },
    {
      "anonymous": false,
      "inputs": [
        {
          "indexed": false,
          "internalType": "address",
          "name": "precrime",
          "type": "address"
        }
      ],
      "name": "SetPrecrime",
      "type": "event"
    },
    {
      "anonymous": false,
      "inputs": [
        {
          "indexed": false,
          "internalType": "uint16",
          "name": "_remoteChainId",
          "type": "uint16"
        },
        {
          "indexed": false,
          "internalType": "bytes",
          "name": "_path",
          "type": "bytes"
        }
      ],
      "name": "SetTrustedRemote",
      "type": "event"
    },
    {
      "anonymous": false,
      "inputs": [
        {
          "indexed": false,
          "internalType": "uint16",
          "name": "_remoteChainId",
          "type": "uint16"
        },
        {
          "indexed": false,
          "internalType": "bytes",
          "name": "_remoteAddress",
          "type": "bytes"
        }
      ],
      "name": "SetTrustedRemoteAddress",
      "type": "event"
    },
    {
      "inputs": [],
      "name": "DEFAULT_PAYLOAD_SIZE_LIMIT",
      "outputs": [
        {
          "internalType": "uint256",
          "name": "",
          "type": "uint256"
        }
      ],
      "stateMutability": "view",
      "type": "function"
    },
    {
      "inputs": [
        {
          "internalType": "uint16",
          "name": "",
          "type": "uint16"
        },
        {
          "internalType": "bytes",
          "name": "",
          "type": "bytes"
        },
        {
          "internalType": "uint64",
          "name": "",
          "type": "uint64"
        }
      ],
      "name": "failedMessages",
      "outputs": [
        {
          "internalType": "bytes32",
          "name": "",
          "type": "bytes32"
        }
      ],
      "stateMutability": "view",
      "type": "function"
    },
    {
      "inputs": [
        {
          "internalType": "uint16",
          "name": "_srcChainId",
          "type": "uint16"
        },
        {
          "internalType": "bytes",
          "name": "_srcAddress",
          "type": "bytes"
        }
      ],
      "name": "forceResumeReceive",
      "outputs": [],
      "stateMutability": "nonpayable",
      "type": "function"
    },
    {
      "inputs": [
        {
          "internalType": "uint16",
          "name": "_version",
          "type": "uint16"
        },
        {
          "internalType": "uint16",
          "name": "_chainId",
          "type": "uint16"
        },
        {
          "internalType": "address",
          "name": "",
          "type": "address"
        },
        {
          "internalType": "uint256",
          "name": "_configType",
          "type": "uint256"
        }
      ],
      "name": "getConfig",
      "outputs": [
        {
          "internalType": "bytes",
          "name": "",
          "type": "bytes"
        }
      ],
      "stateMutability": "view",
      "type": "function"
    },
    {
      "inputs": [
        {
          "internalType": "uint16",
          "name": "_remoteChainId",
          "type": "uint16"
        }
      ],
      "name": "getTrustedRemoteAddress",
      "outputs": [
        {
          "internalType": "bytes",
          "name": "",
          "type": "bytes"
        }
      ],
      "stateMutability": "view",
      "type": "function"
    },
    {
      "inputs": [
        {
          "internalType": "uint16",
          "name": "_srcChainId",
          "type": "uint16"
        },
        {
          "internalType": "bytes",
          "name": "_srcAddress",
          "type": "bytes"
        }
      ],
      "name": "isTrustedRemote",
      "outputs": [
        {
          "internalType": "bool",
          "name": "",
          "type": "bool"
        }
      ],
      "stateMutability": "view",
      "type": "function"
    },
    {
      "inputs": [],
      "name": "lzEndpoint",
      "outputs": [
        {
          "internalType": "contract ILayerZeroEndpoint",
          "name": "",
          "type": "address"
        }
      ],
      "stateMutability": "view",
      "type": "function"
    },
    {
      "inputs": [
        {
          "internalType": "uint16",
          "name": "_srcChainId",
          "type": "uint16"
        },
        {
          "internalType": "bytes",
          "name": "_srcAddress",
          "type": "bytes"
        },
        {
          "internalType": "uint64",
          "name": "_nonce",
          "type": "uint64"
        },
        {
          "internalType": "bytes",
          "name": "_payload",
          "type": "bytes"
        }
      ],
      "name": "lzReceive",
      "outputs": [],
      "stateMutability": "nonpayable",
      "type": "function"
    },
    {
      "inputs": [
        {
          "internalType": "uint16",
          "name": "",
          "type": "uint16"
        },
        {
          "internalType": "uint16",
          "name": "",
          "type": "uint16"
        }
      ],
      "name": "minDstGasLookup",
      "outputs": [
        {
          "internalType": "uint256",
          "name": "",
          "type": "uint256"
        }
      ],
      "stateMutability": "view",
      "type": "function"
    },
    {
      "inputs": [
        {
          "internalType": "uint16",
          "name": "_srcChainId",
          "type": "uint16"
        },
        {
          "internalType": "bytes",
          "name": "_srcAddress",
          "type": "bytes"
        },
        {
          "internalType": "uint64",
          "name": "_nonce",
          "type": "uint64"
        },
        {
          "internalType": "bytes",
          "name": "_payload",
          "type": "bytes"
        }
      ],
      "name": "nonblockingLzReceive",
      "outputs": [],
      "stateMutability": "nonpayable",
      "type": "function"
    },
    {
      "inputs": [],
      "name": "owner",
      "outputs": [
        {
          "internalType": "address",
          "name": "",
          "type": "address"
        }
      ],
      "stateMutability": "view",
      "type": "function"
    },
    {
      "inputs": [
        {
          "internalType": "uint16",
          "name": "",
          "type": "uint16"
        }
      ],
      "name": "payloadSizeLimitLookup",
      "outputs": [
        {
          "internalType": "uint256",
          "name": "",
          "type": "uint256"
        }
      ],
      "stateMutability": "view",
      "type": "function"
    },
    {
      "inputs": [],
      "name": "precrime",
      "outputs": [
        {
          "internalType": "address",
          "name": "",
          "type": "address"
        }
      ],
      "stateMutability": "view",
      "type": "function"
    },
    {
      "inputs": [],
      "name": "renounceOwnership",
      "outputs": [],
      "stateMutability": "nonpayable",
      "type": "function"
    },
    {
      "inputs": [
        {
          "internalType": "uint16",
          "name": "_srcChainId",
          "type": "uint16"
        },
        {
          "internalType": "bytes",
          "name": "_srcAddress",
          "type": "bytes"
        },
        {
          "internalType": "uint64",
          "name": "_nonce",
          "type": "uint64"
        },
        {
          "internalType": "bytes",
          "name": "_payload",
          "type": "bytes"
        }
      ],
      "name": "retryMessage",
      "outputs": [],
      "stateMutability": "payable",
      "type": "function"
    },
    {
      "inputs": [
        {
          "internalType": "uint16",
          "name": "_version",
          "type": "uint16"
        },
        {
          "internalType": "uint16",
          "name": "_chainId",
          "type": "uint16"
        },
        {
          "internalType": "uint256",
          "name": "_configType",
          "type": "uint256"
        },
        {
          "internalType": "bytes",
          "name": "_config",
          "type": "bytes"
        }
      ],
      "name": "setConfig",
      "outputs": [],
      "stateMutability": "nonpayable",
      "type": "function"
    },
    {
      "inputs": [
        {
          "internalType": "uint16",
          "name": "_dstChainId",
          "type": "uint16"
        },
        {
          "internalType": "uint16",
          "name": "_packetType",
          "type": "uint16"
        },
        {
          "internalType": "uint256",
          "name": "_minGas",
          "type": "uint256"
        }
      ],
      "name": "setMinDstGas",
      "outputs": [],
      "stateMutability": "nonpayable",
      "type": "function"
    },
    {
      "inputs": [
        {
          "internalType": "uint16",
          "name": "_dstChainId",
          "type": "uint16"
        },
        {
          "internalType": "uint256",
          "name": "_size",
          "type": "uint256"
        }
      ],
      "name": "setPayloadSizeLimit",
      "outputs": [],
      "stateMutability": "nonpayable",
      "type": "function"
    },
    {
      "inputs": [
        {
          "internalType": "address",
          "name": "_precrime",
          "type": "address"
        }
      ],
      "name": "setPrecrime",
      "outputs": [],
      "stateMutability": "nonpayable",
      "type": "function"
    },
    {
      "inputs": [
        {
          "internalType": "uint16",
          "name": "_version",
          "type": "uint16"
        }
      ],
      "name": "setReceiveVersion",
      "outputs": [],
      "stateMutability": "nonpayable",
      "type": "function"
    },
    {
      "inputs": [
        {
          "internalType": "uint16",
          "name": "_version",
          "type": "uint16"
        }
      ],
      "name": "setSendVersion",
      "outputs": [],
      "stateMutability": "nonpayable",
      "type": "function"
    },
    {
      "inputs": [
        {
          "internalType": "uint16",
          "name": "_srcChainId",
          "type": "uint16"
        },
        {
          "internalType": "bytes",
          "name": "_path",
          "type": "bytes"
        }
      ],
      "name": "setTrustedRemote",
      "outputs": [],
      "stateMutability": "nonpayable",
      "type": "function"
    },
    {
      "inputs": [
        {
          "internalType": "uint16",
          "name": "_remoteChainId",
          "type": "uint16"
        },
        {
          "internalType": "bytes",
          "name": "_remoteAddress",
          "type": "bytes"
        }
      ],
      "name": "setTrustedRemoteAddress",
      "outputs": [],
      "stateMutability": "nonpayable",
      "type": "function"
    },
    {
      "inputs": [
        {
          "internalType": "address",
          "name": "newOwner",
          "type": "address"
        }
      ],
      "name": "transferOwnership",
      "outputs": [],
      "stateMutability": "nonpayable",
      "type": "function"
    },
    {
      "inputs": [
        {
          "internalType": "uint16",
          "name": "",
          "type": "uint16"
        }
      ],
      "name": "trustedRemoteLookup",
      "outputs": [
        {
          "internalType": "bytes",
          "name": "",
          "type": "bytes"
        }
      ],
      "stateMutability": "view",
      "type": "function"
    },
    {
      "stateMutability": "payable",
      "type": "receive"
    }
  ],
  "transactionHash": "0x2f8f611e395c919a835b5f60399c416909d2ed619ee5af0a12a2a6185d85f910",
  "args": [
    "0x5FbDB2315678afecb367f032d93F642f64180aa3",
    true
  ],
  "numDeployments": 1,
  "solcInputHash": "0ff038a80f0aead6acdfb0e7e63742e9",
  "bytecode": "0x60a06040523480156200001157600080fd5b5060405162001f0538038062001f058339810160408190526200003491620000b6565b8180620000413362000066565b6001600160a01b0316608052506006805460ff19169115159190911790555062000104565b600080546001600160a01b038381166001600160a01b0319831681178455604051919092169283917f8be0079c531659141344cd1fd0a4f28419497f9722a3daafe3b4186f6b6457e09190a35050565b60008060408385031215620000ca57600080fd5b82516001600160a01b0381168114620000e257600080fd5b60208401519092508015158114620000f957600080fd5b809150509250929050565b608051611dbb6200014a600039600081816104140152818161052201528181610771015281816108190152818161093b01528181610d5101526111930152611dbb6000f3fe6080604052600436106101695760003560e01c80638da5cb5b116100d1578063c44618341161008a578063df2a5b3b11610064578063df2a5b3b1461049f578063eb8d72b7146104bf578063f2fde38b146104df578063f5ecbdbc146104ff57600080fd5b8063c446183414610456578063cbed8b9c1461046c578063d1deba1f1461048c57600080fd5b80638da5cb5b14610370578063950c8a74146103a25780639f38369a146103c2578063a6c3d165146103e2578063b353aaa714610402578063baf3292d1461043657600080fd5b806342d65a8d1161012357806342d65a8d146102675780635b8c41e61461028757806366ad5c8a146102d6578063715018a6146102f65780637533d7881461030b5780638cfd8f5c1461033857600080fd5b80621d35671461017557806307e0db17146101975780630df37483146101b757806310ddb137146101d75780633d8b38f6146101f75780633f1f4fa41461022c57600080fd5b3661017057005b600080fd5b34801561018157600080fd5b506101956101903660046116f3565b61051f565b005b3480156101a357600080fd5b506101956101b2366004611786565b610750565b3480156101c357600080fd5b506101956101d23660046117a1565b6107d9565b3480156101e357600080fd5b506101956101f2366004611786565b6107f8565b34801561020357600080fd5b506102176102123660046117cb565b610850565b60405190151581526020015b60405180910390f35b34801561023857600080fd5b50610259610247366004611786565b60036020526000908152604090205481565b604051908152602001610223565b34801561027357600080fd5b506101956102823660046117cb565b61091c565b34801561029357600080fd5b506102596102a236600461188a565b6005602090815260009384526040808520845180860184018051928152908401958401959095209452929052825290205481565b3480156102e257600080fd5b506101956102f13660046116f3565b6109a2565b34801561030257600080fd5b50610195610a7e565b34801561031757600080fd5b5061032b610326366004611786565b610a92565b6040516102239190611982565b34801561034457600080fd5b50610259610353366004611995565b600260209081526000928352604080842090915290825290205481565b34801561037c57600080fd5b506000546001600160a01b03165b6040516001600160a01b039091168152602001610223565b3480156103ae57600080fd5b5060045461038a906001600160a01b031681565b3480156103ce57600080fd5b5061032b6103dd366004611786565b610b2c565b3480156103ee57600080fd5b506101956103fd3660046117cb565b610c43565b34801561040e57600080fd5b5061038a7f000000000000000000000000000000000000000000000000000000000000000081565b34801561044257600080fd5b506101956104513660046119df565b610cd6565b34801561046257600080fd5b5061025961271081565b34801561047857600080fd5b506101956104873660046119fa565b610d32565b61019561049a3660046116f3565b610dc7565b3480156104ab57600080fd5b506101956104ba366004611a68565b610fdd565b3480156104cb57600080fd5b506101956104da3660046117cb565b61108f565b3480156104eb57600080fd5b506101956104fa3660046119df565b6110e9565b34801561050b57600080fd5b5061032b61051a366004611aa4565b611162565b337f00000000000000000000000000000000000000000000000000000000000000006001600160a01b03161461059c5760405162461bcd60e51b815260206004820152601e60248201527f4c7a4170703a20696e76616c696420656e64706f696e742063616c6c6572000060448201526064015b60405180910390fd5b61ffff8616600090815260016020526040812080546105ba90611aef565b80601f01602080910402602001604051908101604052809291908181526020018280546105e690611aef565b80156106335780601f1061060857610100808354040283529160200191610633565b820191906000526020600020905b81548152906001019060200180831161061657829003601f168201915b5050505050905080518686905014801561064e575060008151115b801561067657508051602082012060405161066c9088908890611b2a565b6040518091039020145b6106d15760405162461bcd60e51b815260206004820152602660248201527f4c7a4170703a20696e76616c696420736f757263652073656e64696e6720636f6044820152651b9d1c9858dd60d21b6064820152608401610593565b6107478787878080601f01602080910402602001604051908101604052809392919081815260200183838082843760009201919091525050604080516020601f8a018190048102820181019092528881528a93509150889088908190840183828082843760009201919091525061121392505050565b50505050505050565b61075861128c565b6040516307e0db1760e01b815261ffff821660048201527f00000000000000000000000000000000000000000000000000000000000000006001600160a01b0316906307e0db17906024015b600060405180830381600087803b1580156107be57600080fd5b505af11580156107d2573d6000803e3d6000fd5b5050505050565b6107e161128c565b61ffff909116600090815260036020526040902055565b61080061128c565b6040516310ddb13760e01b815261ffff821660048201527f00000000000000000000000000000000000000000000000000000000000000006001600160a01b0316906310ddb137906024016107a4565b61ffff83166000908152600160205260408120805482919061087190611aef565b80601f016020809104026020016040519081016040528092919081815260200182805461089d90611aef565b80156108ea5780601f106108bf576101008083540402835291602001916108ea565b820191906000526020600020905b8154815290600101906020018083116108cd57829003601f168201915b505050505090508383604051610901929190611b2a565b60405180910390208180519060200120149150509392505050565b61092461128c565b6040516342d65a8d60e01b81526001600160a01b037f000000000000000000000000000000000000000000000000000000000000000016906342d65a8d9061097490869086908690600401611b63565b600060405180830381600087803b15801561098e57600080fd5b505af1158015610747573d6000803e3d6000fd5b333014610a005760405162461bcd60e51b815260206004820152602660248201527f4e6f6e626c6f636b696e674c7a4170703a2063616c6c6572206d7573742062656044820152650204c7a4170760d41b6064820152608401610593565b610a768686868080601f01602080910402602001604051908101604052809392919081815260200183838082843760009201919091525050604080516020601f8901819004810282018101909252878152899350915087908790819084018382808284376000920191909152506112e692505050565b505050505050565b610a8661128c565b610a9060006112ec565b565b60016020526000908152604090208054610aab90611aef565b80601f0160208091040260200160405190810160405280929190818152602001828054610ad790611aef565b8015610b245780601f10610af957610100808354040283529160200191610b24565b820191906000526020600020905b815481529060010190602001808311610b0757829003601f168201915b505050505081565b61ffff8116600090815260016020526040812080546060929190610b4f90611aef565b80601f0160208091040260200160405190810160405280929190818152602001828054610b7b90611aef565b8015610bc85780601f10610b9d57610100808354040283529160200191610bc8565b820191906000526020600020905b815481529060010190602001808311610bab57829003601f168201915b50505050509050805160001415610c215760405162461bcd60e51b815260206004820152601d60248201527f4c7a4170703a206e6f20747275737465642070617468207265636f72640000006044820152606401610593565b610c3c600060148351610c349190611b97565b83919061133c565b9392505050565b610c4b61128c565b818130604051602001610c6093929190611bae565b60408051601f1981840301815291815261ffff85166000908152600160209081529190208251610c9593919290910190611570565b507f8c0400cfe2d1199b1a725c78960bcc2a344d869b80590d0f2bd005db15a572ce838383604051610cc993929190611b63565b60405180910390a1505050565b610cde61128c565b600480546001600160a01b0319166001600160a01b0383169081179091556040519081527f5db758e995a17ec1ad84bdef7e8c3293a0bd6179bcce400dff5d4c3d87db726b9060200160405180910390a150565b610d3a61128c565b6040516332fb62e760e21b81526001600160a01b037f0000000000000000000000000000000000000000000000000000000000000000169063cbed8b9c90610d8e9088908890889088908890600401611bd4565b600060405180830381600087803b158015610da857600080fd5b505af1158015610dbc573d6000803e3d6000fd5b505050505050505050565b61ffff86166000908152600560205260408082209051610dea9088908890611b2a565b90815260408051602092819003830190206001600160401b03871660009081529252902054905080610e6a5760405162461bcd60e51b815260206004820152602360248201527f4e6f6e626c6f636b696e674c7a4170703a206e6f2073746f726564206d65737360448201526261676560e81b6064820152608401610593565b808383604051610e7b929190611b2a565b604051809103902014610eda5760405162461bcd60e51b815260206004820152602160248201527f4e6f6e626c6f636b696e674c7a4170703a20696e76616c6964207061796c6f616044820152601960fa1b6064820152608401610593565b61ffff87166000908152600560205260408082209051610efd9089908990611b2a565b90815260408051602092819003830181206001600160401b038916600090815290845282902093909355601f88018290048202830182019052868252610f95918991899089908190840183828082843760009201919091525050604080516020601f8a018190048102820181019092528881528a9350915088908890819084018382808284376000920191909152506112e692505050565b7fc264d91f3adc5588250e1551f547752ca0cfa8f6b530d243b9f9f4cab10ea8e58787878785604051610fcc959493929190611c0d565b60405180910390a150505050505050565b610fe561128c565b6000811161102d5760405162461bcd60e51b81526020600482015260156024820152744c7a4170703a20696e76616c6964206d696e47617360581b6044820152606401610593565b61ffff83811660008181526002602090815260408083209487168084529482529182902085905581519283528201929092529081018290527f9d5c7c0b934da8fefa9c7760c98383778a12dfbfc0c3b3106518f43fb9508ac090606001610cc9565b61109761128c565b61ffff831660009081526001602052604090206110b59083836115f4565b507ffa41487ad5d6728f0b19276fa1eddc16558578f5109fc39d2dc33c3230470dab838383604051610cc993929190611b63565b6110f161128c565b6001600160a01b0381166111565760405162461bcd60e51b815260206004820152602660248201527f4f776e61626c653a206e6577206f776e657220697320746865207a65726f206160448201526564647265737360d01b6064820152608401610593565b61115f816112ec565b50565b604051633d7b2f6f60e21b815261ffff808616600483015284166024820152306044820152606481018290526060907f00000000000000000000000000000000000000000000000000000000000000006001600160a01b03169063f5ecbdbc90608401600060405180830381865afa1580156111e2573d6000803e3d6000fd5b505050506040513d6000823e601f3d908101601f1916820160405261120a9190810190611c48565b95945050505050565b6000806112765a60966366ad5c8a60e01b8989898960405160240161123b9493929190611cb5565b60408051601f198184030181529190526020810180516001600160e01b03166001600160e01b03199093169290921790915230929190611449565b9150915081610a7657610a7686868686856114d3565b6000546001600160a01b03163314610a905760405162461bcd60e51b815260206004820181905260248201527f4f776e61626c653a2063616c6c6572206973206e6f7420746865206f776e65726044820152606401610593565b50505050565b600080546001600160a01b038381166001600160a01b0319831681178455604051919092169283917f8be0079c531659141344cd1fd0a4f28419497f9722a3daafe3b4186f6b6457e09190a35050565b60608161134a81601f611cf3565b10156113895760405162461bcd60e51b815260206004820152600e60248201526d736c6963655f6f766572666c6f7760901b6044820152606401610593565b6113938284611cf3565b845110156113d75760405162461bcd60e51b8152602060048201526011602482015270736c6963655f6f75744f66426f756e647360781b6044820152606401610593565b6060821580156113f65760405191506000825260208201604052611440565b6040519150601f8416801560200281840101858101878315602002848b0101015b8183101561142f578051835260209283019201611417565b5050858452601f01601f1916604052505b50949350505050565b6000606060008060008661ffff166001600160401b0381111561146e5761146e61181d565b6040519080825280601f01601f191660200182016040528015611498576020820181803683370190505b50905060008087516020890160008d8df191503d9250868311156114ba578692505b828152826000602083013e909890975095505050505050565b8180519060200120600560008761ffff1661ffff168152602001908152602001600020856040516115049190611d0b565b9081526040805191829003602090810183206001600160401b0388166000908152915220919091557fe183f33de2837795525b4792ca4cd60535bd77c53b7e7030060bfcf5734d6b0c906115619087908790879087908790611d27565b60405180910390a15050505050565b82805461157c90611aef565b90600052602060002090601f01602090048101928261159e57600085556115e4565b82601f106115b757805160ff19168380011785556115e4565b828001600101855582156115e4579182015b828111156115e45782518255916020019190600101906115c9565b506115f0929150611668565b5090565b82805461160090611aef565b90600052602060002090601f01602090048101928261162257600085556115e4565b82601f1061163b5782800160ff198235161785556115e4565b828001600101855582156115e4579182015b828111156115e457823582559160200191906001019061164d565b5b808211156115f05760008155600101611669565b803561ffff8116811461168f57600080fd5b919050565b60008083601f8401126116a657600080fd5b5081356001600160401b038111156116bd57600080fd5b6020830191508360208285010111156116d557600080fd5b9250929050565b80356001600160401b038116811461168f57600080fd5b6000806000806000806080878903121561170c57600080fd5b6117158761167d565b955060208701356001600160401b038082111561173157600080fd5b61173d8a838b01611694565b909750955085915061175160408a016116dc565b9450606089013591508082111561176757600080fd5b5061177489828a01611694565b979a9699509497509295939492505050565b60006020828403121561179857600080fd5b610c3c8261167d565b600080604083850312156117b457600080fd5b6117bd8361167d565b946020939093013593505050565b6000806000604084860312156117e057600080fd5b6117e98461167d565b925060208401356001600160401b0381111561180457600080fd5b61181086828701611694565b9497909650939450505050565b634e487b7160e01b600052604160045260246000fd5b604051601f8201601f191681016001600160401b038111828210171561185b5761185b61181d565b604052919050565b60006001600160401b0382111561187c5761187c61181d565b50601f01601f191660200190565b60008060006060848603121561189f57600080fd5b6118a88461167d565b925060208401356001600160401b038111156118c357600080fd5b8401601f810186136118d457600080fd5b80356118e76118e282611863565b611833565b8181528760208385010111156118fc57600080fd5b81602084016020830137600060208383010152809450505050611921604085016116dc565b90509250925092565b60005b8381101561194557818101518382015260200161192d565b838111156112e65750506000910152565b6000815180845261196e81602086016020860161192a565b601f01601f19169290920160200192915050565b602081526000610c3c6020830184611956565b600080604083850312156119a857600080fd5b6119b18361167d565b91506119bf6020840161167d565b90509250929050565b80356001600160a01b038116811461168f57600080fd5b6000602082840312156119f157600080fd5b610c3c826119c8565b600080600080600060808688031215611a1257600080fd5b611a1b8661167d565b9450611a296020870161167d565b93506040860135925060608601356001600160401b03811115611a4b57600080fd5b611a5788828901611694565b969995985093965092949392505050565b600080600060608486031215611a7d57600080fd5b611a868461167d565b9250611a946020850161167d565b9150604084013590509250925092565b60008060008060808587031215611aba57600080fd5b611ac38561167d565b9350611ad16020860161167d565b9250611adf604086016119c8565b9396929550929360600135925050565b600181811c90821680611b0357607f821691505b60208210811415611b2457634e487b7160e01b600052602260045260246000fd5b50919050565b8183823760009101908152919050565b81835281816020850137506000828201602090810191909152601f909101601f19169091010190565b61ffff8416815260406020820152600061120a604083018486611b3a565b634e487b7160e01b600052601160045260246000fd5b600082821015611ba957611ba9611b81565b500390565b8284823760609190911b6bffffffffffffffffffffffff19169101908152601401919050565b600061ffff808816835280871660208401525084604083015260806060830152611c02608083018486611b3a565b979650505050505050565b61ffff86168152608060208201526000611c2b608083018688611b3a565b6001600160401b0394909416604083015250606001529392505050565b600060208284031215611c5a57600080fd5b81516001600160401b03811115611c7057600080fd5b8201601f81018413611c8157600080fd5b8051611c8f6118e282611863565b818152856020838501011115611ca457600080fd5b61120a82602083016020860161192a565b61ffff85168152608060208201526000611cd26080830186611956565b6001600160401b03851660408401528281036060840152611c028185611956565b60008219821115611d0657611d06611b81565b500190565b60008251611d1d81846020870161192a565b9190910192915050565b61ffff8616815260a060208201526000611d4460a0830187611956565b6001600160401b03861660408401528281036060840152611d658186611956565b90508281036080840152611d798185611956565b9897505050505050505056fea2646970667358221220539fa06a2dfec943443637959c31433148d4e7522e1f66d183836af14aae91fd64736f6c634300080c0033",
  "devdoc": {
    "kind": "dev",
    "methods": {
      "owner()": {
        "details": "Returns the address of the current owner."
      },
      "renounceOwnership()": {
        "details": "Leaves the contract without owner. It will not be possible to call `onlyOwner` functions anymore. Can only be called by the current owner. NOTE: Renouncing ownership will leave the contract without an owner, thereby removing any functionality that is only available to the owner."
      },
      "transferOwnership(address)": {
        "details": "Transfers ownership of the contract to a new account (`newOwner`). Can only be called by the current owner."
      }
    },
    "version": 1
  },
  "userdoc": {
    "kind": "user",
    "methods": {},
    "version": 1
  },
  "storageLayout": {
    "storage": [
      {
        "astId": 7,
        "contract": "contracts/mContracts/MozaicVault.sol:MozaicVault",
        "label": "_owner",
        "offset": 0,
        "slot": "0",
        "type": "t_address"
      },
      {
        "astId": 350,
        "contract": "contracts/mContracts/MozaicVault.sol:MozaicVault",
        "label": "trustedRemoteLookup",
        "offset": 0,
        "slot": "1",
        "type": "t_mapping(t_uint16,t_bytes_storage)"
      },
      {
        "astId": 356,
        "contract": "contracts/mContracts/MozaicVault.sol:MozaicVault",
        "label": "minDstGasLookup",
        "offset": 0,
        "slot": "2",
        "type": "t_mapping(t_uint16,t_mapping(t_uint16,t_uint256))"
      },
      {
        "astId": 360,
        "contract": "contracts/mContracts/MozaicVault.sol:MozaicVault",
        "label": "payloadSizeLimitLookup",
        "offset": 0,
        "slot": "3",
        "type": "t_mapping(t_uint16,t_uint256)"
      },
      {
        "astId": 362,
        "contract": "contracts/mContracts/MozaicVault.sol:MozaicVault",
        "label": "precrime",
        "offset": 0,
        "slot": "4",
        "type": "t_address"
      },
      {
        "astId": 899,
        "contract": "contracts/mContracts/MozaicVault.sol:MozaicVault",
        "label": "failedMessages",
        "offset": 0,
        "slot": "5",
        "type": "t_mapping(t_uint16,t_mapping(t_bytes_memory_ptr,t_mapping(t_uint64,t_bytes32)))"
      },
      {
        "astId": 1121,
        "contract": "contracts/mContracts/MozaicVault.sol:MozaicVault",
        "label": "i_am_main",
        "offset": 0,
        "slot": "6",
        "type": "t_bool"
      }
    ],
    "types": {
      "t_address": {
        "encoding": "inplace",
        "label": "address",
        "numberOfBytes": "20"
      },
      "t_bool": {
        "encoding": "inplace",
        "label": "bool",
        "numberOfBytes": "1"
      },
      "t_bytes32": {
        "encoding": "inplace",
        "label": "bytes32",
        "numberOfBytes": "32"
      },
      "t_bytes_memory_ptr": {
        "encoding": "bytes",
        "label": "bytes",
        "numberOfBytes": "32"
      },
      "t_bytes_storage": {
        "encoding": "bytes",
        "label": "bytes",
        "numberOfBytes": "32"
      },
      "t_mapping(t_bytes_memory_ptr,t_mapping(t_uint64,t_bytes32))": {
        "encoding": "mapping",
        "key": "t_bytes_memory_ptr",
        "label": "mapping(bytes => mapping(uint64 => bytes32))",
        "numberOfBytes": "32",
        "value": "t_mapping(t_uint64,t_bytes32)"
      },
      "t_mapping(t_uint16,t_bytes_storage)": {
        "encoding": "mapping",
        "key": "t_uint16",
        "label": "mapping(uint16 => bytes)",
        "numberOfBytes": "32",
        "value": "t_bytes_storage"
      },
      "t_mapping(t_uint16,t_mapping(t_bytes_memory_ptr,t_mapping(t_uint64,t_bytes32)))": {
        "encoding": "mapping",
        "key": "t_uint16",
        "label": "mapping(uint16 => mapping(bytes => mapping(uint64 => bytes32)))",
        "numberOfBytes": "32",
        "value": "t_mapping(t_bytes_memory_ptr,t_mapping(t_uint64,t_bytes32))"
      },
      "t_mapping(t_uint16,t_mapping(t_uint16,t_uint256))": {
        "encoding": "mapping",
        "key": "t_uint16",
        "label": "mapping(uint16 => mapping(uint16 => uint256))",
        "numberOfBytes": "32",
        "value": "t_mapping(t_uint16,t_uint256)"
      },
      "t_mapping(t_uint16,t_uint256)": {
        "encoding": "mapping",
        "key": "t_uint16",
        "label": "mapping(uint16 => uint256)",
        "numberOfBytes": "32",
        "value": "t_uint256"
      },
      "t_mapping(t_uint64,t_bytes32)": {
        "encoding": "mapping",
        "key": "t_uint64",
        "label": "mapping(uint64 => bytes32)",
        "numberOfBytes": "32",
        "value": "t_bytes32"
      },
      "t_uint16": {
        "encoding": "inplace",
        "label": "uint16",
        "numberOfBytes": "2"
      },
      "t_uint256": {
        "encoding": "inplace",
        "label": "uint256",
        "numberOfBytes": "32"
      },
      "t_uint64": {
        "encoding": "inplace",
        "label": "uint64",
        "numberOfBytes": "8"
      }
    }
  }
}