{
  "_format": "hh-sol-artifact-1",
  "contractName": "LayerZeroOracleBadMock",
  "sourceName": "contracts/mocks/LayerZeroOracleBadMock.sol",
  "abi": [
    {
      "inputs": [],
      "stateMutability": "nonpayable",
      "type": "constructor"
    },
    {
      "anonymous": false,
      "inputs": [
        {
          "indexed": false,
          "internalType": "uint16",
          "name": "dstChainId",
          "type": "uint16"
        },
        {
          "indexed": false,
          "internalType": "uint16",
          "name": "_outboundProofType",
          "type": "uint16"
        },
        {
          "indexed": false,
          "internalType": "uint256",
          "name": "blockConfirmations",
          "type": "uint256"
        }
      ],
      "name": "OracleNotified",
      "type": "event"
    },
    {
      "anonymous": false,
      "inputs": [
        {
          "indexed": true,
          "internalType": "address",
          "name": "previousOwner",
          "type": "address"
        },
        {
          "indexed": true,
          "internalType": "address",
          "name": "newOwner",
          "type": "address"
        }
      ],
      "name": "OwnershipTransferred",
      "type": "event"
    },
    {
      "anonymous": false,
      "inputs": [
        {
          "indexed": false,
          "internalType": "address",
          "name": "to",
          "type": "address"
        },
        {
          "indexed": false,
          "internalType": "uint256",
          "name": "amount",
          "type": "uint256"
        }
      ],
      "name": "Withdraw",
      "type": "event"
    },
    {
      "stateMutability": "payable",
      "type": "fallback"
    },
    {
      "inputs": [
        {
          "internalType": "address",
          "name": "",
          "type": "address"
        }
      ],
      "name": "approvedAddresses",
      "outputs": [
        {
          "internalType": "bool",
          "name": "",
          "type": "bool"
        }
      ],
      "stateMutability": "view",
      "type": "function"
    },
    {
      "inputs": [
        {
          "internalType": "uint16",
          "name": "",
          "type": "uint16"
        },
        {
          "internalType": "uint16",
          "name": "",
          "type": "uint16"
        }
      ],
      "name": "chainPriceLookup",
      "outputs": [
        {
          "internalType": "uint256",
          "name": "",
          "type": "uint256"
        }
      ],
      "stateMutability": "view",
      "type": "function"
    },
    {
      "inputs": [],
      "name": "endpoint",
      "outputs": [
        {
          "internalType": "contract ILayerZeroEndpoint",
          "name": "",
          "type": "address"
        }
      ],
      "stateMutability": "view",
      "type": "function"
    },
    {
      "inputs": [],
      "name": "fee",
      "outputs": [
        {
          "internalType": "uint256",
          "name": "",
          "type": "uint256"
        }
      ],
      "stateMutability": "view",
      "type": "function"
    },
    {
      "inputs": [
        {
          "internalType": "uint16",
          "name": "_destinationChainId",
          "type": "uint16"
        },
        {
          "internalType": "uint16",
          "name": "_outboundProofType",
          "type": "uint16"
        }
      ],
      "name": "getPrice",
      "outputs": [
        {
          "internalType": "uint256",
          "name": "",
          "type": "uint256"
        }
      ],
      "stateMutability": "view",
      "type": "function"
    },
    {
      "inputs": [
        {
          "internalType": "address",
          "name": "_relayerAddress",
          "type": "address"
        }
      ],
      "name": "isApproved",
      "outputs": [
        {
          "internalType": "bool",
          "name": "",
          "type": "bool"
        }
      ],
      "stateMutability": "view",
      "type": "function"
    },
    {
      "inputs": [
        {
          "internalType": "uint16",
          "name": "_dstChainId",
          "type": "uint16"
        },
        {
          "internalType": "uint16",
          "name": "_outboundProofType",
          "type": "uint16"
        },
        {
          "internalType": "uint64",
          "name": "_outboundBlockConfirmations",
          "type": "uint64"
        }
      ],
      "name": "notifyOracle",
      "outputs": [],
      "stateMutability": "nonpayable",
      "type": "function"
    },
    {
      "inputs": [],
      "name": "owner",
      "outputs": [
        {
          "internalType": "address",
          "name": "",
          "type": "address"
        }
      ],
      "stateMutability": "view",
      "type": "function"
    },
    {
      "inputs": [],
      "name": "renounceOwnership",
      "outputs": [],
      "stateMutability": "nonpayable",
      "type": "function"
    },
    {
      "inputs": [
        {
          "internalType": "address",
          "name": "_oracleAddress",
          "type": "address"
        },
        {
          "internalType": "bool",
          "name": "_approve",
          "type": "bool"
        }
      ],
      "name": "setApprovedAddress",
      "outputs": [],
      "stateMutability": "nonpayable",
      "type": "function"
    },
    {
      "inputs": [
        {
          "internalType": "uint16",
          "name": "_dstChainId",
          "type": "uint16"
        },
        {
          "internalType": "address",
          "name": "_deliveryAddress",
          "type": "address"
        }
      ],
      "name": "setDeliveryAddress",
      "outputs": [],
      "stateMutability": "nonpayable",
      "type": "function"
    },
    {
      "inputs": [
        {
          "internalType": "address",
          "name": "endpointAddress",
          "type": "address"
        }
      ],
      "name": "setEndpoint",
      "outputs": [],
      "stateMutability": "nonpayable",
      "type": "function"
    },
    {
      "inputs": [
        {
          "internalType": "uint16",
          "name": "_chain",
          "type": "uint16"
        },
        {
          "internalType": "address",
          "name": "_oracle",
          "type": "address"
        },
        {
          "internalType": "bytes32",
          "name": "_id",
          "type": "bytes32"
        },
        {
          "internalType": "uint256",
          "name": "_fee",
          "type": "uint256"
        }
      ],
      "name": "setJob",
      "outputs": [],
      "stateMutability": "nonpayable",
      "type": "function"
    },
    {
      "inputs": [
        {
          "internalType": "uint16",
          "name": "_destinationChainId",
          "type": "uint16"
        },
        {
          "internalType": "uint16",
          "name": "_outboundProofType",
          "type": "uint16"
        },
        {
          "internalType": "uint256",
          "name": "_price",
          "type": "uint256"
        }
      ],
      "name": "setPrice",
      "outputs": [],
      "stateMutability": "nonpayable",
      "type": "function"
    },
    {
      "inputs": [
        {
          "internalType": "address",
          "name": "ulnAddress",
          "type": "address"
        }
      ],
      "name": "setUln",
      "outputs": [],
      "stateMutability": "nonpayable",
      "type": "function"
    },
    {
      "inputs": [
        {
          "internalType": "address",
          "name": "newOwner",
          "type": "address"
        }
      ],
      "name": "transferOwnership",
      "outputs": [],
      "stateMutability": "nonpayable",
      "type": "function"
    },
    {
      "inputs": [],
      "name": "uln",
      "outputs": [
        {
          "internalType": "contract ILayerZeroUltraLightNodeV1",
          "name": "",
          "type": "address"
        }
      ],
      "stateMutability": "view",
      "type": "function"
    },
    {
      "inputs": [
        {
          "internalType": "uint16",
          "name": "_remoteChainId",
          "type": "uint16"
        },
        {
          "internalType": "bytes32",
          "name": "_blockHash",
          "type": "bytes32"
        },
        {
          "internalType": "uint256",
          "name": "_confirmations",
          "type": "uint256"
        },
        {
          "internalType": "bytes32",
          "name": "_data",
          "type": "bytes32"
        }
      ],
      "name": "updateHash",
      "outputs": [],
      "stateMutability": "nonpayable",
      "type": "function"
    },
    {
      "inputs": [
        {
          "internalType": "address payable",
          "name": "_to",
          "type": "address"
        },
        {
          "internalType": "uint256",
          "name": "_amount",
          "type": "uint256"
        }
      ],
      "name": "withdraw",
      "outputs": [],
      "stateMutability": "nonpayable",
      "type": "function"
    },
    {
      "stateMutability": "payable",
      "type": "receive"
    }
  ],
  "bytecode": "0x608060405234801561001057600080fd5b5061001a3361003e565b6001808055336000908152600260205260409020805460ff1916909117905561008e565b600080546001600160a01b038381166001600160a01b0319831681178455604051919092169283917f8be0079c531659141344cd1fd0a4f28419497f9722a3daafe3b4186f6b6457e09190a35050565b610bc98061009d6000396000f3fe60806040526004361061010c5760003560e01c8063715018a61161009a578063dbbb415511610061578063dbbb41551461037c578063ddca3f431461039c578063f136a874146103b2578063f2fde38b146103e2578063f3fef3a31461040257005b8063715018a6146102d15780638da5cb5b146102e6578063bccc96d514610304578063c758b01714610324578063cd84b89d1461035c57005b80635e280f11116100de5780635e280f11146101f05780636653057914610228578063673448dd146102485780636c473aff14610291578063704316e5146102b157005b806305941644146101155780630b4d5107146101355780632ca4a5b01461018a578063575765e2146101aa57005b3661011357005b005b34801561012157600080fd5b50610113610130366004610911565b610422565b34801561014157600080fd5b50610177610150366004610955565b61ffff80821660009081526003602090815260408083209386168352929052205492915050565b6040519081526020015b60405180910390f35b34801561019657600080fd5b506101136101a5366004610988565b610430565b3480156101b657600080fd5b506101136101c53660046109bf565b6001600160a01b03919091166000908152600260205260409020805460ff1916911515919091179055565b3480156101fc57600080fd5b50600654610210906001600160a01b031681565b6040516001600160a01b039091168152602001610181565b34801561023457600080fd5b506101136102433660046109f2565b61043c565b34801561025457600080fd5b50610281610263366004610a46565b6001600160a01b031660009081526002602052604090205460ff1690565b6040519015158152602001610181565b34801561029d57600080fd5b50600554610210906001600160a01b031681565b3480156102bd57600080fd5b506101136102cc366004610a6a565b6104f6565b3480156102dd57600080fd5b506101136105eb565b3480156102f257600080fd5b506000546001600160a01b0316610210565b34801561031057600080fd5b5061011361031f366004610aa3565b6105ff565b34801561033057600080fd5b5061017761033f366004610955565b600360209081526000928352604080842090915290825290205481565b34801561036857600080fd5b50610113610377366004610a46565b61062d565b34801561038857600080fd5b50610113610397366004610a46565b610657565b3480156103a857600080fd5b5061017760045481565b3480156103be57600080fd5b506102816103cd366004610a46565b60026020526000908152604090205460ff1681565b3480156103ee57600080fd5b506101136103fd366004610a46565b610681565b34801561040e57600080fd5b5061011361041d366004610adf565b6106fa565b61042a61083b565b50505050565b61043861083b565b5050565b60065460405162c5803160e81b81526001600160a01b039091169063c5803100906104709086906000908190600401610b0b565b600060405180830381600087803b15801561048a57600080fd5b505af115801561049e573d6000803e3d6000fd5b50506040805161ffff87811682528616602082015267ffffffffffffffff85168183015290517ff5f7eeb9c1ffb10aced9d0a5354641e9bccdde560963d05f8d26ad4a460c89a29350908190036060019150a1505050565b3360009081526002602052604090205460ff1661056f5760405162461bcd60e51b815260206004820152602c60248201527f4c617965725a65726f4f7261636c654d6f636b3a2063616c6c6572206d75737460448201526b08189948185c1c1c9bdd995960a21b60648201526084015b60405180910390fd5b60055460405163704316e560e01b815261ffff861660048201526024810185905260448101849052606481018390526001600160a01b039091169063704316e590608401600060405180830381600087803b1580156105cd57600080fd5b505af11580156105e1573d6000803e3d6000fd5b5050505050505050565b6105f361083b565b6105fd6000610895565b565b61060761083b565b61ffff918216600090815260036020908152604080832095909416825293909352912055565b61063561083b565b600580546001600160a01b0319166001600160a01b0392909216919091179055565b61065f61083b565b600680546001600160a01b0319166001600160a01b0392909216919091179055565b61068961083b565b6001600160a01b0381166106ee5760405162461bcd60e51b815260206004820152602660248201527f4f776e61626c653a206e6577206f776e657220697320746865207a65726f206160448201526564647265737360d01b6064820152608401610566565b6106f781610895565b50565b61070261083b565b600260015414156107555760405162461bcd60e51b815260206004820152601f60248201527f5265656e7472616e637947756172643a207265656e7472616e742063616c6c006044820152606401610566565b60026001556040516000906001600160a01b0384169083908381818185875af1925050503d80600081146107a5576040519150601f19603f3d011682016040523d82523d6000602084013e6107aa565b606091505b50509050806107f05760405162461bcd60e51b81526020600482015260126024820152716661696c656420746f20776974686472617760701b6044820152606401610566565b604080516001600160a01b0385168152602081018490527f884edad9ce6fa2440d8a54cc123490eb96d2768479d49ff9c7366125a9424364910160405180910390a150506001805550565b6000546001600160a01b031633146105fd5760405162461bcd60e51b815260206004820181905260248201527f4f776e61626c653a2063616c6c6572206973206e6f7420746865206f776e65726044820152606401610566565b600080546001600160a01b038381166001600160a01b0319831681178455604051919092169283917f8be0079c531659141344cd1fd0a4f28419497f9722a3daafe3b4186f6b6457e09190a35050565b803561ffff811681146108f757600080fd5b919050565b6001600160a01b03811681146106f757600080fd5b6000806000806080858703121561092757600080fd5b610930856108e5565b93506020850135610940816108fc565b93969395505050506040820135916060013590565b6000806040838503121561096857600080fd5b610971836108e5565b915061097f602084016108e5565b90509250929050565b6000806040838503121561099b57600080fd5b6109a4836108e5565b915060208301356109b4816108fc565b809150509250929050565b600080604083850312156109d257600080fd5b82356109dd816108fc565b9150602083013580151581146109b457600080fd5b600080600060608486031215610a0757600080fd5b610a10846108e5565b9250610a1e602085016108e5565b9150604084013567ffffffffffffffff81168114610a3b57600080fd5b809150509250925092565b600060208284031215610a5857600080fd5b8135610a63816108fc565b9392505050565b60008060008060808587031215610a8057600080fd5b610a89856108e5565b966020860135965060408601359560600135945092505050565b600080600060608486031215610ab857600080fd5b610ac1846108e5565b9250610acf602085016108e5565b9150604084013590509250925092565b60008060408385031215610af257600080fd5b8235610afd816108fc565b946020939093013593505050565b61ffff8416815260c060208201526000610b3760c083016002815261060f60f31b602082015260400190565b8281036040840152610b58816002815261060f60f31b602082015260400190565b6001600160a01b0395861660608501529390941660808301525080820360a0909101526002815261060f60f31b60208201526040019291505056fea26469706673582212202d2ef947737ad6c74d339d88d63f41c66d5b4368097fd0c27a0c1a669ab0a18564736f6c634300080c0033",
  "linkReferences": {},
  "deployedLinkReferences": {}
}